S01F00006275696C642F626967415652365F313238302F6D61696E2E7372656377
S11300000C9409020C94A21A0C94AC1A0C94B61A0F
S11300100C94DF1A0C941B1B0C94251B0C942F1BA3
S11300200C94391B0C9428020C9428020C94C51BC4
S11300300C9428020C94B2190C9428020C94F11913
S11300400C9428020C9428020C9428020C94280284
S11300500C9428020C9428020C9428020C94280274
S11300600C94FB190C9428020C9428020C9428027A
S11300700C9428020C94731C0C9428020C942802EF
S11300800C9428020C9428020C9428020C94280244
S11300900C9428020C9428020C9428020C94431B00
S11300A00C9428020C9428020C9428020C94280224
S11300B00C9428020C9428020C9428020C94280214
S11300C00C9428020C9428020C9428020C94280204
S11300D00C9428020C9428020C9428020C942802F4
S11300E00C9428028F0A040B6A0B6C0BD60BDA0BE8
S11300F0270C4F0C8C0CD10C550D7B0DC30D320EFF
S11301005F0E8B0EB10EB80ECB0EA211B01183127E
S11301102913FE13F8141B152915441500020E06A5
S11301200C040D090E78155116211A591B531C4144
S11301301D571E2221432258234424452578262373
S113014029202A562B462C542D522E25314E32422C
S113015033483447355A3626394C3A4D3B4A3C5598
S11301603D2F3E28413B424B4349444F453D4629A0
S1130170493A4A5F4B4C4C784D504E3F5278547834
S113018055605A0A5B5E5D2A613E660869316B34CC
S11301906C377030712C7232733574367538792B34
S11301A07A337B2D7C2A7D3900000D090E7C157174
S11301B016311A791B731C611D771E322163227854
S11301C0236424652534263329202A762B662C744F
S11301D02D722E35316E326233683467357A363695
S11301E0392C3A6D3B6A3C753D373E38412C426BA5
S11301F04369446F45304639492E4A2D4B6C4C6F48
S11302004D704E2B526F546F555C5A0A5B785D27C4
S1130210613C660869316B346C377030712C723212
S1130220733574367538792B7A337B2D7C2A7D3976
S11302300000000000000000005F0000000700074D
S113024000147F147F14242A7F2A12231308646263
S113025036495522500005030000001C22410000CD
S113026041221C00082A1C2A0808083E08080050DD
S1130270300000080808080800606000002010082A
S113028004023E5149453E00427F400042615149CB
S1130290462141454B311814127F102745454539F5
S11302A03C4A494930017109050336494949360632
S11302B04949291E00363600000056360000000861
S11302C0142241141414141441221408000201517C
S11302D00906324979413E7E1111117E7F4949490F
S11302E0363E414141227F4141221C7F49494941D7
S11302F07F090901013E414151327F0808087F000E
S1130300417F41002040413F017F081422417F404A
S11303104040407F0204027F7F0408107F3E414139
S1130320413E7F090909063E4151215E7F09192991
S113033046464949493101017F01013F4040403F60
S11303401F2040201F7F2018207F6314081463039C
S113035004780403615149454300007F414102048C
S113036008102041417F0000040201020440404083
S11303704040000102040020545454787F4844440F
S1130380383844444420384444487F38545454183A
S1130390087E090102081454543C7F0804047800C0
S11303A0447D40002040443D00007F10284400412B
S11303B07F40007C041804787C08040478384444A2
S11303C044387C14141408081414187C7C0804049D
S11303D0084854545420043F4440203C4040207C6E
S11303E01C2040201C3C4030403C44281028440C35
S11303F05050503C4464544C4400083641000000C2
S11304007F0000004136080008082A1C08081C2A3E
S1130410080811241FBECFEFD1E2DEBFCDBF13E029
S1130420A0E0B2E0E8EAFAE400E00BBF02C0079003
S11304300D92AC34B107D9F713E1ACE4B3E001C0D9
S11304401D92A83EB107E1F70E94171D0C94522596
S11304500C9400008091440D8093BC00089576981C
S11304600895289A089528980895769A0895809171
S11304705A138F3F69F0E82FF0E0E95FF74F90815E
S113048090935A139F3F11F49093BA139FEF908364
S113049008959FB7F894E82FF0E0E95FF74F2081C3
S11304A02F3F99F4E091BA13E81779F020915A1389
S11304B02F3F19F480935A1304C0F0E0E95FF74F1B
S11304C080838093BA1380E001C085E09FBF0895C4
S11304D085E10C94490286E10C9449028FB7F894A3
S11304E09091BC009093440D8FBF0895ECE7F0E029
S11304F0208180917B00308190818870880F880FE3
S11305002F71822B35FB222720F920FB86F9929547
S1130510969596959370292F279522272795822BB8
S1130520969508952FB7F89460915D0A70915E0ACC
S113053080915F0A9091600A2FBF0895AC01909159
S1130540070B9A30B8F48091680A292F30E0280FFD
S1130550311D2A30310514F02A503109220F331F7E
S1130560F901ED57F24F518340839F5F9093070B3E
S113057080E0089581E008958EBD0DB407FEFDCF9F
S11305808EB508950C94BC02CF93DF9300D0CDB701
S1130590DEB76A8389830E94330289810E94C20282
S11305A06A81862F0E94C2020F900F90DF91CF9133
S11305B00C943102CF93DF931F92CDB7DEB78983BA
S11305C00E94330289810E94C20280E00E94BC0220
S11305D089830E94310289810F90DF91CF91089520
S11305E0CF93DF9300D0CDB7DEB76A8389830E94AF
S11305F03302898180680E94C2026A81862F0E9428
S1130600C2020F900F90DF91CF910C9431028F9220
S11306109F92AF92BF92CF92DF92EF92FF920F938D
S11306201F93CF93DF932FEF280F9DE1299F900114
S1130630112489010956124FF8019081911140C08B
S1130640E901C856D24F2097D9F17A0151E0598374
S113065018821B8298E09A8396E09C8344E04D8341
S11306608090240290902502A0902602B090270248
S11306708786908AA18AB28AD901A056B24FE6E150
S1130680F2E0492F01900D924A95E1F7D901A65560
S1130690B24FFB0101900D929A95E1F7F701C080EA
S11306A0D180E280F380F801C18ED28EE38EF48E85
S11306B08F831E8250838DE00E94490280E001C036
S11306C085E0DF91CF911F910F91FF90EF90DF9024
S11306D0CF90BF90AF909F908F9008953091070B6B
S11306E03323C1F02091680AE22FF0E0EE0FFF1FE0
S11306F0ED57F24F808191811182108231503093F5
S1130700070B2F5F2A3019F02093680A089510927E
S1130710680A089580E090E008952FB7F8948091D6
S11307206F03882309F14091470D5091480D609162
S1130730490D70914A0D8091240890912508A0914B
S11307402608B0912708840F951FA61FB71F409154
S11307505D0A50915E0A60915F0A7091600A4817C1
S113076059076A077B0711F02FBF089510926F0392
S11307702FBF8BE00C9449022FB7F8949091521339
S11307802FBF91110EC09FB7F89423E0209352130A
S1130790109258138093640A9FBF0E946B0280E0FA
S11307A0089581E0089501970196019701960197B4
S11307B001960197C1F708951F93CF93DF938FB7E5
S11307C0F894C0915003C1113DC011E0109350033F
S11307D01092DB0D8FBFDFB7F89480914F03811126
S11307E017C0509851981092B90081E48093B800D2
S11307F01092BA001092BC000E946E028091440DC7
S11308008E7F84608093440D0E942A0210934F03CC
S1130810DFBFDFB7F89480910E02813089F48091B4
S11308205003813021F488E10E94490209C08230DA
S113083039F48091DB0D80930E0283E080935003A2
S1130840DFBF1DC0C091DB0DCC23C1F09091690ABC
S11308509F3F99F4E0910F02EE2379F090911002FA
S11308609F3F19F41092100204C0F0E0E759F54FCD
S1130870108210920F02C0E001C0C5E08FBF8C2F20
S1130880DF91CF911F910895CF939FB7F8948091F2
S113089053139FBF81110BC09FB7F89481E08093DD
S11308A05513809353139FBFCF910C94DC03813075
S11308B009F042C08FB7F89490910D0291113AC09B
S11308C08FBF8FB7F89490914F03913099F522E040
S11308D020934F038FBF8FB7F89420E130E030931B
S11308E0630A2093620A23E63DE030932C082093A8
S11308F02B0820E220936E0323E02093E51310924B
S1130900FB1290934E038FBF0E946E02CFB7F894F0
S11309108091440D8F7A816A8093440D84E08093A2
S11309204F030E942A02CFBF8FB7F894109253133B
S11309308FBF02C08FBFBECFCF9108951F93CF93B7
S1130940DF931F92CDB7DEB7182F806479830E949E
S1130950C40281E0810F7981672F80640F90DF9159
S1130960CF911F910C94C40290915603E92FF0E0AB
S1130970EE0FFF1FE051FD4E408151812091540341
S1130980222359F09F5F953019F09093560302C0CB
S113099010925603215020935403CA010E949E02D0
S11309A080915403882319F088E00C944902109232
S11309B06A0A0895CF93DF939FB7F89480915903FF
S11309C0882369F19FBFDFB7F894C0915903C1111F
S11309D009C081E0809359031092110282E10E94C0
S11309E0490218C080912F088F3F99F4E0911202B8
S11309F0EE2379F0809113028F3F19F410921302C1
S1130A0004C0F0E0E15DF74F108210921202C0E0E2
S1130A1001C0C5E0DFBF8C2FDF91CF9108958CB565
S1130A208F7B8CBD229A2398219A209A8CB5806161
S1130A308CBD8CB58F778CBD8DB58E7F8DBD8CB5FF
S1130A40877F8CBD8CB58B7F8CBD8CB58C7F8CBD2A
S1130A508CB580648CBDB6CF882319F0813071F0D9
S1130A60089510925E03E0915F038BE0E89FF0012C
S1130A701124E55BF24F10828FE010C010925703EF
S1130A80809158039DE0899FF0011124E65FF44FA3
S1130A901082811102C00E94B40483E10C944902C3
S1130AA0109260038091610398E0899FF001112402
S1130AB0E35BF54F10820E942C058EE00C944902F2
S1130AC081110FC0662369F080916403813049F479
S1130AD0109264038091280D8D7F8093280D0C94CF
S1130AE0500508950F931F93CF93DF938091AF1315
S1130AF0882309F43FC010E0C0E0DFE10FB7F894A9
S1130B008091B3138E7F8093B3130E947602282FB3
S1130B102F73881F8827881F9170990F892B1813AA
S1130B2002C091E0D21390E08091B31390FB81F95D
S1130B309D2F9F73990F990F8370892B8093B31303
S1130B401111D064D0937C0080917B00877F8093C7
S1130B507B009091B3138C2F8860806190FB85F9A2
S1130B608064806880937A000FBFDF91CF911F91DA
S1130B700F910895C7E011E0D0E0C0CFCF93DF9389
S1130B80CFB7F8940E946E028091440D8E7F8069E5
S1130B908093440D0E942A02CFBFDFB7F89480915E
S1130BA050038330C1F5C0910E02C11134C080914D
S1130BB010028F3FC1F0E82FF0E0E759F54F908124
S1130BC0909310029F3F11F490930F029FEF908334
S1130BD08093DB0D90930E0281E08093500388E1B3
S1130BE00E94490216C081E080930E0210925003C5
S1130BF080914F03813069F40E946E028091440D0C
S1130C008A768093440D0E942A025898599810922B
S1130C104F03DFBF02C0DFBFC1E08C2FDF91CF9154
S1130C200895CF93C0915213813019F4CF910C944D
S1130C3044040E94BE051092551340E050E02AE09F
S1130C40DA01AD59B24FE22FF0E0EE0FFF1FED5580
S1130C50FA4F8C9190E0982F882711963C91832B22
S1130C60918380832F5F2F704E5F5F4F4032510519
S1130C7039F7C23059F020F4C13089F484E10CC052
S1130C80C33039F0C53059F487E106C0CF910C94D4
S1130C906802CF910C946B02CF910C944902CF91CE
S1130CA00895811110C08091BB009091FB12E091D6
S1130CB02B08F0912C08E90FF11D80838091FB1221
S1130CC08F5F8093FB122091FB1280916E03281793
S1130CD088F430E090E001972817390749F48091AF
S1130CE0E51382FD05C08091440D8F7B8093440DF4
S1130CF00C942A028091440D282F2E7F9091E513A5
S1130D0091FF0AC09D7F9093E513822F80618093A9
S1130D10440D8091B90003C08E778093440D0E94E6
S1130D202A0281E080934F0380910D02811102C059
S1130D300C9411060895CF93DF931F92CDB7DEB7BD
S1130D4089830E9433028FEB0E94C20283E00E94D7
S1130D50C2020E94310269818FE10F90DF91CF912D
S1130D600C94F002FC01009711F40C94500530919E
S1130D703308909134088091ED07811124C04EEE20
S1130D8057E041155105F9F026E0DA0101900D9282
S1130D902A95E1F740E058E05093F5074093F407B3
S1130DA041E358E05093F7074093F607892F90E00A
S1130DB0932B9093F9078093F80781E08093ED07D4
S1130DC08AE00C9449020895CF939FB7F8948091D8
S1130DD054139FBF81112DC09FB7F8948091FA12CC
S1130DE0880F82509FBF20E092E02817B0F43FB7ED
S1130DF0F894422F50E0E92FF0E0EE0FFF1FED557D
S1130E00FA4F60817181FA01ED59F24F7083618369
S1130E103FBF9F5F9F702E5FE8CF8FB7F89492E03B
S1130E209093551391E0909354138FBFCF910C94EA
S1130E30DC03813009F045C09FB7F8948091FA1221
S1130E409FBF9FB7F89420910D022111F9CF9FBF46
S1130E509FB7F89420914F03213091F722E020931B
S1130E604F039FBF9FB7F89420E130E03093630AAB
S1130E702093620A23E63DE030932C0820932B084C
S1130E80880F825080936E0383E08093E513109261
S1130E90FB1210924E039FBF0E946E02CFB7F894CC
S1130EA08091440D8F7E816E8093440D84E0809305
S1130EB04F030E942A02CFBF8FB7F89410925413A5
S1130EC08FBFCF910895CF9390910D02911121C0BE
S1130ED0C0915213813019F4CF910C94E4060E940E
S1130EE0BE0510925513C23071F030F4C13089F44C
S1130EF084E1CF910C944902C33041F0C43049F4E9
S1130F001092521306C0CF910C946802CF910C94A6
S1130F106B02CF9108958091FB1290916E03891713
S1130F2080F4E0912B08F0912C08E80FF11D8081EA
S1130F308093BB008091FB128F5F8093FB120C9413
S1130F402A028091440D282F2E7F9091E51391FF62
S1130F5006C09D7F9093E513822F806101C08E7738
S1130F608093440D0E942A0281E080934F0380E025
S1130F700C946307CF93DF931F92CDB7DEB78983B9
S1130F800E946E029091440D9A7F9093440D0E94AA
S1130F902A020E946E029091440D94609093440D35
S1130FA00E942A0291E090934F0390914E0389810D
S1130FB0992349F090910D0291110AC00F90DF918D
S1130FC0CF910C9411060F90DF91CF910C9463078D
S1130FD00F90DF91CF910895882329F0813029F46F
S1130FE07298739A02C07398729A82B182B981B16D
S1130FF011B87498759A0E94350282E090E00E94BC
S1131000D30380B1079B0DC00E942F0282E090E0C1
S11310100E94D3030E94350282E090E00E94D30331
S1131020F1CF0E942F02759881B18FEF81B9089595
S1131030CF93DF931F92CDB7DEB70E94EC0781B147
S113104011B8749A759A0E94350282E090E00E9469
S1131050D30380B10E942F0282E090E00E94D30368
S11310600E94350282E090E00E94D30380B189831C
S11310700E942F0289810F90DF91CF910895CF9222
S1131080DF92EF92FF92CF93C82F6A017B010E94F7
S1131090920229E0C29FF0011124DF01A05EB24F49
S11310A06D937D938D939C9313971496CD92DD92BB
S11310B0ED92FC921797E85DF24F80818160826027
S11310C080838CE0CF91FF90EF90DF90CF900C94D1
S11310D0490281E08093640346EB53E166E072E0E9
S11310E00E94070344E650E060E070E080E00C9466
S11310F03F084F925F926F927F928F929F92AF922E
S1131100BF92CF92DF92FF920F931F93CF93DF93FF
S1131110A0E2BDE0C12CD12C49E04C9DF0014D9DD5
S1131120F00D1124EF01C05ED24FF884F1FEA9C086
S11311300D911D912D913C91139714968D909D9036
S1131140AD90BC9017972B013C01401A510A620ADA
S1131150730A481459046A047B0408F492C0F0FE2C
S113116006C0E85DF24F20812D7F20830AC0B901BB
S1131170A801480D591D6A1D7B1D488359836A8344
S11311807B8322E0C216B9F183E0C81609F43FC09C
S113119021E0C21221C01092BD131092BE1310920E
S11311A0BF131092C0131092C7131092C813109259
S11311B0C9131092CA131092D1131092D213109221
S11311C0D3131092D4131092DB131092DC131092E9
S11311D0DD131092DE135EC01092640380916503E8
S11311E08F5F80936503833018F40E94690852C0AE
S11311F00E9450054FC09FB7F894809152139FBF2F
S1131200813009F047C084E10E94490243C09FB77E
S1131210F89480914C03811127C081E080934C03A2
S11312201092610A9FBF9FB7F89480917A008068FA
S113123080937A009FBFCFB7F89480910C028130DD
S113124089F480914C03813021F48AE10E9449029F
S113125009C0823039F48091610A80930C0283E0E2
S113126080934C03CFBF16C08091610A882339F064
S113127080911F0D80FD03C0816080931F0D9FBF6F
S113128009C02FEFC21AD20A199624E0C216D1045B
S113129009F043CF8CE0DF91CF911F910F91FF9024
S11312A0DF90CF90BF90AF909F908F907F906F9082
S11312B05F904F900C944902CF93DF931F92CDB768
S11312C0DEB769830E94EC07698162B981B18FEF4F
S11312D081B9749A75980E94350282E090E00E9468
S11312E0D3030E942F0280E00F90DF91CF910895E5
S11312F0CF93DF931F92CDB7DEB769830E94EC07CB
S1131300749875980E94350281B18FEF81B9698113
S113131062B982E090E00E94D3030E942F0280E031
S11313200F90DF91CF910895CF93DF93982FC62F1D
S1131330D82FD295D695D695D37081E0D8279F73B0
S1131340692F60648D2F0E9478096C2F6770686B19
S11313508D2FDF91CF910C9478092F923F924F9269
S11313605F926F927F928F929F92AF92BF92CF9231
S1131370DF92EF92FF920F931F93CF93DF938C0131
S1131380D62F90E055E0952E88248394EE24E394A0
S1131390F12CF80121918F01222309F468C02A302D
S11313A011F02D3019F4D85F512C5FC0293021F48D
S11313B04AE0542E590E59C036E0532E590E80EE91
S11313C0820F803608F051C030E020523109929EDD
S11313D0A001939E500D11249A012E5C3D4F59019A
S11313E08BE0D82ED90EC52D99EF492E4D0E742CB5
S11313F0F5012490C6FBCC24C0F8C824372C3694BD
S113140036943694F72DF7706F2E632D8C2F20FEB3
S11314100DC00E9494098C2D0E941808B70101C0C8
S1131420660F6A94EAF7682E662A0DC00E94940932
S11314308C2D0E941808970101C0220F6A94EAF7C4
S11314402095682E6222632D8C2F0E949409662DAC
S11314508C2D0E945C09269473947D12CFCFCF5FAC
S11314602FEFA21AB20ACD11C2CF952D92CFDF91E0
S1131470CF911F910F91FF90EF90DF90CF90BF908D
S1131480AF909F908F907F906F905F904F903F9020
S11314902F900895CF93DF93C0E06C2F80E00E94DB
S11314A094096C2F80E40E949409D0E060E080E00D
S11314B00E945C0960E081E00E945C09DF5FD03833
S11314C0A9F7CF5FC83049F780E0DF91CF91089545
S11314D03F924F925F926F927F928F929F92AF92C0
S11314E0BF92CF92DF92EF92FF920F931F93CF930D
S11314F0DF93CDB7DEB7C555D1090FB6F894DEBF7B
S11315000FBECDBF0DB71EB790E08C31910510F022
S11315100C948F19FC01EE58FF4F0C94161F8FB7D3
S1131520F894F0906B0AE09070038FBF0E944A0A0F
S11315306AE08BE392E00E94AD098F2D90E0C097A2
S11315400A9780F423E02E1568F08FB7F894E091A1
S1131550700391E09E0F90937003F0E0E059FC4F0C
S1131560F1828FBF48E0F4120EC0EE2061F08FB715
S1131570F894E0917003E150E0937003F0E0E059D7
S1131580FC4F11828FBF9FB7F89485E0E1E7F3E049
S1131590DE01119601900D928A95E1F79FBF64E1F7
S11315A0CE0101960E94AD0987E6F8120C948F19BA
S11315B04AE050E060E070E0CE0101960E944720CE
S11315C02FB7F89433E03093B2132FBF3FB7F8949A
S11315D0209152133FBF21110C948F199B012B565C
S11315E033402E3C310510F00C948F192FB7F8942A
S11315F032E030935213109257137093B5136093E3
S1131600B4132FBF0C9426132FB7F89480916B0A50
S11316109091B2132FBF2091B213213009F054C01E
S11316208C3699F060F4883611F00C948F198FB7CA
S1131630F89494E09093B2138FBF81E00DC0833788
S113164079F08437A1F00C948F198FB7F89494E053
S11316509093B2138FBF80E00E94BC030C948F1947
S11316608FB7F89495E09093B2138FBF33C09FB7B0
S1131670F894809152139FBF882311F08530A1F410
S1131680EB982FB7F8948091AB059091AC059F76B9
S11316909093AC058093AB0584E08093FA1210928A
S11316A052132FBF0E94E4068FB7F8941092700370
S11316B095E0E1E7F3E0DF011D929A95E9F792E006
S11316C09093B2138FBF04C0923011F00C948F1911
S11316D080E068C082E0C0CF0E944A0A6AE08AE4DF
S11316E092E00E94AD090E946E037C016C01B2E09D
S11316F0CB0ED11C80E8F60111928A95E9F78DE5AD
S113170092E09F938F9380E38F9389E38F9384E098
S11317108F938EE08F931F9281E08F9322E632E0C5
S11317203F932F931F928F938BE692E09F938F9317
S1131730DF92CF920E942C22F701EF57FF4F1082C5
S1131740F60101900020E9F73197EC19FD09D70162
S1131750ED93FC9320915403EDB7FEB770960FB64A
S1131760F894FEBF0FBEEDBF2530B0F49091550341
S1131770E92FF0E0EE0FFF1FE051FD4EF182E08211
S113178081E0890F853019F08093550302C01092CF
S113179055032F5F2093540380916A0A81110C949E
S11317A08F1988E00E9449020C948F196AE081EA3B
S11317B092E0AEC02FB7F8948091080B9091090B7A
S11317C031E03093B2132FBF9F938F9384EB92E059
S11317D09F938F93CE0101967C01FF928F930E9479
S11317E02C226AE087EB92E00E94AD0968E2C7010F
S11317F00E94AD099FB7F894809152139FBF0F9038
S11318000F900F900F900F900F90882321F0853048
S113181011F00C948F1988E08CBBEB9A2FB7F894D5
S11318208091AB059091AC0590699093AC05809341
S1131830AB0510925E1310925F131092601384E054
S11318408093FA1285E0809352130C9488152FB775
S1131850F8948091080B9091090B31E03093B21306
S11318602FBF9F938F9384EB92E09F938F93DE011E
S113187011967D01FF92AF930E942C226AE088ECBE
S113188092E00E94AD0968E2C7010E94AD090F9081
S11318900F900F900F900F900F900C948F1984E17C
S11318A0E5E0F3E1DE01DE9601900D928A95E1F721
S11318B084E1E9E1F3E1DE01999601900D928A95C4
S11318C0E1F788E1EDE2F3E1DE01119601900D927A
S11318D08A95E1F763961FAE63971DAE198E0E9439
S11318E04A0A64E18CEF92E10E94AD096EE1CE01F7
S11318F0CE960E94AD0968E2CE0189960E94AD0998
S113190062E3CE0101960E94AD096CE386E493E1A3
S11319100E94AD090C948F19809154038823E9F136
S1131920E0915603F0E0EE0FFF1FE051FD4E0190F1
S1131930F081E02D2081318180910A0B81112DC02D
S11319408BE09BE0892B49F13296F093140BE093E2
S1131950130B80EC80930B0B88EA80930C0B8AE2C8
S113196080930D0BFF24F394F0920E0B80E593EC1F
S11319709093100B80930F0B9093120B8093110B89
S11319803093160B2093150BF0920A0B83E10E94FF
S11319904902F0926A0A0C948F1910926A0A0C9404
S11319A08F1980915303E82FF0E0EE0FFF1FEF52E1
S11319B0F24FE080F18090915103992359F08F5FA9
S11319C0853019F08093530302C010925303915051
S11319D090935103F701A080B180F5013197EE0D8A
S11319E0FF1D82818A3009F053C012824701F2E060
S11319F08F0E911C6DE070E0C4010E9497216C0170
S1131A00009719F0DC011C9206C06501BFEFCB1AE8
S1131A10DB0ACE0CDF1C43E050E06FE272E0C4014D
S1131A200E94AB21892B11F00C9461168DB69EB6E1
S1131A30F701408151815A01F2E0AF1AB1088DB724
S1131A409EB78A199B090FB6F8949EBF0FBE8DBF2F
S1131A50ADB7BEB711963D0143505109B601CD0152
S1131A600E948721F301EA0DFB1D1082AE014D5A3D
S1131A705F4F65ED72E0C3010E94C8216C010097BD
S1131A8011F00C948C150FB6F8949EBE0FBE8DBE4B
S1131A90C7010E949E0280915103882311F089E0BE
S1131AA081CE1092650A0C948F198091680381117C
S1131AB00C948F19809169038F5F817080936903FF
S1131AC0EDE0E89FD0011124A351B84F9C919130CF
S1131AD011F40C94D0168F5F817080936903E89F92
S1131AE0F0011124E351F84F8081813011F00C94FE
S1131AF08F190C94D01680912A08811141C040910D
S1131B004C1350914D1360914E1370914F132FB796
S1131B10F894C090470DD090480DE090490DF09096
S1131B204A0D8091240890912508A0912608B0912F
S1131B3027088C0D9D1DAE1DBF1D2FBF40934C1358
S1131B4050934D1360934E1370934F1310922A08C1
S1131B502FB7F89431E030936F0380932408909367
S1131B602508A0932608B09327084093470D509367
S1131B70480D6093490D70934A0D2FBF0E948D0349
S1131B800E94920247C00E9492022FB7F8941092CA
S1131B906F032FBFE0E2FDE040E088248A94982C94
S1131BA0A82C2FE7B22E20E030E059E0529FD0015C
S1131BB0539FB00D1124A05EB24F1896AC91A1FFB3
S1131BC01AC0C080D180E280F3802B013C014C1804
S1131BD05D086E087F08C480D580E680F780C4184D
S1131BE0D508E608F708C814D904EA04FB041CF471
S1131BF04601570141E02F5F3F4F399624303105AC
S1131C00A9F6442311F40C948F19181419041A0416
S1131C101B0424F00E9479080C948F1980924C13B1
S1131C2090924D13A0924E13B0924F1321E0209343
S1131C302A083FB7F89420936F03609324087093A5
S1131C40250880932608909327088092470D909248
S1131C50480DA092490DB0924A0D3FBF0E948D03DA
S1131C600C948F198091620381110C948F198091C7
S1131C70630390E0019681709927809363032DE1BB
S1131C80289FF001299FF00D1124E956F24F30816D
S1131C90313011F40C943117019681709927809397
S1131CA06303289FF001299FF00D1124E956F24F98
S1131CB08081813011F00C948F190C94311780912C
S1131CC0600381110C948F19E0916103EF5FE1705F
S1131CD0E0936103AE2FB0E093E0AA0FBB1F9A9587
S1131CE0E1F7A35BB54F8C91813011F40C94741718
S1131CF0EF5FE170E0936103F0E083E0EE0FFF1F1C
S1131D008A95E1F7E35BF54F8081813011F00C9403
S1131D108F190C94741780915E0381110C948F19A0
S1131D2080915F038F5F817080935F03EBE0E89F96
S1131D30D0011124A55BB24F9C91913011F40C9405
S1131D4080188F5F817080935F03E89FF0011124F6
S1131D50E55BF24F8081813011F00C948F190C9463
S1131D60801881E080935A030E94DA040C948F193E
S1131D708FB7F89410927703109276031092290883
S1131D80109228081092B1131092B0131092670A9F
S1131D901092660A2BC68FB7F89492E09093590379
S1131DA08FBF8091110281110C948F190E9431020E
S1131DB080915D03813021F0823009F498C089C29A
S1131DC06FEF8FEF0E94C4028DE10E94DA0280FF60
S1131DD0FBCF80E00E949B0660E076E088E00E94F2
S1131DE09E0480E096E0909315028093140260E0D4
S1131DF076E08CE00E949E046FEF7FE18AE00E940F
S1131E009E0460E070E084E00E949E0460E88EE539
S1131E100E94C40281E00E949B0661EA88E50E9458
S1131E20C40282E00E949B0660E081E40E94C40236
S1131E3061E080E40E94C40263E382E40E94C4027D
S1131E4060E083E40E94C4026AE272E08AE00E94D5
S1131E509E0465E184E40E94C4029091280280916A
S1131E60290290931B0280931A0283E00E949B062E
S1131E7060911B0281E40E94C40260911A0280E412
S1131E800E94C4026091190283E40E94C40260911A
S1131E90180282E40E94C4026091170285E40E9441
S1131EA0C4026091160284E40E94C40282E00E948B
S1131EB09B0664E184E50E94C40260E471E086E16B
S1131EC00E949E0462E184E50E94C40262E170E023
S1131ED086E10E949E0460ED8BE50E94C40264E0EA
S1131EE08FE10E94F00282E080935D03F2C1809151
S1131EF05A03882309F43FC010925A038CE10E94CC
S1131F00DA02F82E84FF20C082E00E949B0663E17F
S1131F1084E50E94C40261E082E50E94C40283E079
S1131F200E949B068AE00E94ED1C80FDFBCF82E0AC
S1131F300E949B0660E082E50E94C40288E10E9440
S1131F40ED1C89E10E94ED1C81E00E949B0689E161
S1131F500E94DA02882319F081E080935B03F0FE8B
S1131F600AC00E9433028CEB0E94C20281E00E94EC
S1131F70C2020E94310280915C03813009F044C0A6
S1131F8080E00E949B0660E070E082E00E949E0474
S1131F9060E08AE70E94C402E12CF12C60912D08D4
S1131FA070912E08E616F70670F4E091610DF09139
S1131FB0620DEE0DFF1D60818AE70E94C402BFEF2F
S1131FC0EB1AFB0AEBCF86E00E949E0468E08FE1E7
S1131FD00E94F00210925C031092680380916903DE
S1131FE02DE0829FF0011124E351F84F10828823E1
S1131FF031F0813031F480E00E94061D02C00E945D
S113200050058AE00E94490280915B03813009F007
S113201060C180E00E949B066091140270911502D9
S113202080E00E949E048AE30E94DA0290E090938A
S11320301502809314028AE30E94DA0220911402AA
S113204030911502382B30931502209314028AE341
S11320500E94DA02E82EF12C8AE30E94DA02F82ABE
S11320608AE30E94DA028AE30E94DA02C7010F9728
S11320708B31924090F4F8E7CF2EF3E0DF2E8AE321
S11320800E94DA02D6018D936D01CD0188579340E9
S11320908E159F05A0F3F12C02C0FF24F3946091E8
S11320A01402709115028CE00E949E0460E48EE19B
S11320B00E94F00210925B03F1100BC18091840323
S11320C090E0982F882720918503822B8115B8E012
S11320D09B0729F08630984009F49AC0FAC086E834
S11320E093E09093511380935013809196039091B1
S11320F09703A0919803B0919903C0902402D090C3
S11321002502E0902602F09027028C159D05AE056D
S1132110BF0539F140911C0250911D0260911E02CD
S113212070911F024A015B0180949094A094B09432
S113213024013501482259226A227B224814590479
S11321406A047B0409F0C5C08C259D25AE25BF25F6
S113215084239523A623B723892B8A2B8B2B09F061
S1132160B8C080918F03813109F0B3C040919E03C0
S113217050E0542F442780919F03482B7A01F8E0C4
S1132180EF1AF10880919C0390E0982F8827209102
S11321909D03822B8035934C09F09BC00E946E03F3
S11321A06C0162E382EA93E00E94AD0941E8E4161F
S11321B0F10418F040E8E42EF12CA70162EA73E080
S11321C0C60102960E948721D601ED92FC922091CD
S11321D051032530A8F490915203E92FF0E0EE0F5B
S11321E0FF1FEF52F24FD182C08281E0890F8093AA
S11321F05203853011F4109252032F5F2093510340
S11322008091650A811165C089E00E94490261C01C
S113221080918C0390E0982F882720918D03822B46
S11322208130910519F00297F1F053C040912402D6
S113223050912502609126027091270280919E039D
S113224090919F03A091A003B091A103481759074F
S11322506A077B07F1F544E953E06EE873E082E036
S11322600E94070336C080916403813091F5809108
S11322706603BAE08B9FC0011124FC01E354FC4EB9
S11322804091940350919503609196037091970344
S11322904083518362837383DC01AF53BC4E26E0D9
S11322A0EEE8F3E001900D922A95E1F72091280DD4
S11322B02D7F2093280D109264038F539C4E0E940F
S11322C0B2068091660390E001968370992780930B
S11322D06603FFB6F89480915903823011F580911A
S11322E0110281111EC0809113028F3FB1F0E82FBB
S11322F0F0E0E15DF74F9081909313029F3F11F45A
S1132300909312029FEF90838093110281E0809357
S1132310590382E10E94490204C080931102109281
S11323205903FFBE9FB7F89480915903882309F499
S113233068C79FBFFFB6F8944A9989C380E10E9499
S1132340490285C38091570381110C948F1910920F
S11323505803D0900A0BE1E0DE120C948F1955C794
S11323609FB7F894809156139FBF81110EC05A9A5B
S113237048EE53E060E070E082E00E943F088FB7CF
S1132380F89491E09093561331C3813021F48FB7C0
S1132390F89492E04FC08230A1F42FB7F894809162
S11323A0B1059091B20590689093B2058093B10500
S11323B01092C2051092C1058FE08093FA1283E057
S11323C021C0833059F48FB7F89494E09093561356
S11323D08FBF48E552E060E070E023C08430A9F488
S11323E02FB7F8948091A7059091A8058E7B9F7BC9
S11323F0816090649093A8058093A70582E0809300
S1132400FA1285E08093561383C3853071F48FB735
S1132410F89496E0909356138FBF46E950E060E03D
S113242070E082E00E943F087AC7863031F48FB7AB
S1132430F89497E090935613EDC18730A9F52FB720
S1132440F8948091A5059091A6052FBF83359241FC
S113245039F08FB7F894109252138FBF84E0A2C959
S11324602FB7F8948091AB059091AC058373977B5B
S1132470846098649093AC058093AB0580E199E106
S11324809093AE058093AD058091AF059091B00512
S113249088279E7F8F649093B0058093AF0586E074
S11324A08093FA1288E0AECF883009F038C78FB72E
S11324B0F894109252138FBF0E94920260933B0DC6
S11324C070933C0D80933D0D90933E0D8CE291E012
S11324D0A0E0B0E080933F0D9093400DA093410D98
S11324E0B093420D8091430D8E7F82608093430DA3
S11324F08CE00E9449028FB7F89491E09093B21354
S11325008FBF83E04FC98FB7F894209157138FBFC3
S113251021111AC06EE180E193E00E94AD092FB74A
S1132520F8948091B4139091B5138B5693409370A3
S113253090689093AA058093A90583E08093FA128A
S113254081E080935713E4C2213059F46EE182E1B3
S113255093E00E94AD098FB7F89492E090935713DB
S1132560C6C0223049F46EE184E193E00E94AD09D3
S11325708FB7F89493E034C0233041F56EE186E1DF
S113258093E066962FAF66970E94AD093FB7F89423
S11325908091B9059091BA05937085599C4F909399
S11325A0BC138093BB138091A9059091AA059F77D2
S11325B09093AA058093A90566962FAD66972093FC
S11325C0FA1284E0809357133FBFA3C2243059F416
S11325D06EE188E193E00E94AD098FB7F89495E02D
S11325E09093571317C1253009F099C68FB7F89403
S11325F0E090B705F090B805EE2420E4F222EF2C29
S1132600FF248FBF6EE18AE193E00E94AD098FB78A
S1132610EF28B9F4F894109252138FBF2091BB1392
S11326203091BC139FB7F8943093090B2093080B97
S11326308091B2139FBF853011F482E0B3C885E066
S1132640B1C8F89494E0909357138FBF0E94680226
S113265066C69FB7F894D090640A809158139FBFC0
S1132660811139C06EE18CE193E00E94AD0942E032
S11326702FB7D4120CC0F8948091A7059091A805A7
S113268095609093A8058093A7052FBF0EC0F8947A
S11326908091A7059091A8059A7F91609093A805D1
S11326A08093A7052FBFD11032C62FB7F89480911D
S11326B0A7059091A80592609093A8058093A7051B
S11326C02FBF8FB7F89492E09093FA1291E0909311
S11326D058138FBF1EC2813079F46EE18EE193E00E
S11326E00E94AD098FB7F89492E0909358138FBF6E
S11326F088E08CBBEB9A13C6823049F46EE180E229
S113270093E00E94AD098FB7F89493E036C083300C
S113271051F56EE18CE293E00E94AD092FB7F89475
S11327208091B7059091B8058827907290936B03B8
S11327308091B9059091BA05937085599C4F9093F7
S1132740BC138093BB138091A7059091A8059E7F2D
S11327509093A8058093A70582E08093FA1284E001
S113276080935813D5C1843059F46EE18AEE92E017
S11327700E94AD098FB7F89495E0909358134AC01E
S1132780853009F0CCC58FB7F894E090B705F09088
S1132790B805EE2490E4F922EF2CFF248FBF6EE1FC
S11327A082E293E00E94AD09EF28F9F480916B0373
S11327B0811116C02091BB133091BC138FB7F894CC
S11327C03093090B2093080B8FBF86E00E944902C7
S11327D0A2E08FB7DA1205C0F894109258130AC019
S11327E08FB7F8941092521301C18FB7F89494E004
S11327F0909358138FBF0E946B0291C59FB7F894B2
S1132800809159139FBF811107C08FB7F89491E04D
S1132810909359138FBF0CC1813009F080C54FB715
S1132820F894E091BD053091BE052091BF056091FB
S1132830C0058091C1059091C2054FBF432F4695B5
S11328404695469550E044305105B9F124F44230A0
S1132850510550F0C7C04530510509F444C0483013
S1132860510509F472C0BEC02FB7F894E370F0E0CC
S1132870EE0FFF1FE25AFC4E9383848390915E1304
S113288081E0890F837080935E132FBF933009F02A
S1132890A9C089E0ECEFF2E1DF011D928A95E9F726
S11328A088E0E1E6F3E1ACEFB2E101900D928A95A4
S11328B0E1F787E00E94490295C03FB7F894EF70B2
S11328C0B4E0EB9FF0011124E25AFC4E63872487A5
S11328D09587868790915F1381E0890F8F7080932D
S11328E05F133FBF12C02FB7F894EF70F0E0EE0F04
S11328F0FF1FE25AFC4E9387848790915F1381E017
S1132900890F8F7080935F132FBF9F3009F06AC0C7
S113291081E4E5E0F3E1DF011D928A95E9F780E4C3
S1132920E9E6F3E1A5E0B3E101900D928A95E1F7C0
S113293087E00E94490280E4E9E6F3E1DF011D92A9
S11329408A95E9F710925F134DC022952071392FB3
S113295032953F70232BAC0166E0569547956A95F6
S1132960E1F74F73982F9F719695382F317085FF3B
S113297004C0822F891B431B03C0822F890F430F7E
S1132980EFB6F894E9EAF3E156E0F52EDF012F2DD6
S11329901D922A95E9F71F924F931F928F9384E219
S11329A093E09F938F93FF93EF930E942C22EFBEAB
S11329B0E6E4F3E1DF012F2D1D922A95E9F7E9EA18
S11329C0F3E1A6E4B3E101900D92FA94E1F787E014
S11329D00E9449028DB79EB708960FB6F8949EBF21
S11329E00FBE8DBF8FB7F894109259138FBF97C441
S11329F08FB7F8949091DB0D90930E0293E090932F
S1132A0050038FBF80910E029FB7F89480930D02FC
S1132A109FBF811184C49FB7F894809155139FBFC1
S1132A20813031F0823009F474C00E94BE0577C44D
S1132A300E94440474C4FFB6F89480914E03882322
S1132A4021F081E00E94510602C00E948B07FFBE64
S1132A5066C48FB7F8949091610A90930C0293E046
S1132A6090934C038FBF80910C02811101C0809818
S1132A7080910C02811153C481E08093060B109263
S1132A80AF130E9472054BC41092060BE090450DE3
S1132A90F090460D8091AF13811141C4DFB6F894D4
S1132AA080914C03833091F480910C0281110EC00B
S1132AB080911F0D8111F5C381E080930C02109267
S1132AC04C0380917A008F7780937A00DFBE9FB7A2
S1132AD0F894809152139FBF811121C42FB7F894A9
S1132AE084E080935213C70136E0969587953A9512
S1132AF0E1F7382F3F708091AD059091AE05807F4E
S1132B00832B9093AE058093AD0585E08093FA12F4
S1132B102FBF0E94E40603C4BC0187ED92E00E942B
S1132B20A221892B11F00C94430D4AE050E060E09F
S1132B3070E065968EAD9FAD65970E941C1F603155
S1132B4010F00C94430D6CE270E065968EAD9FAD71
S1132B5065970E949721892B39F468E28AED92E007
S1132B600E94AD090C94430DAE01425C5F4F65EDCC
S1132B7072E0C6010E94C8213C01009711F40C9434
S1132B80430D37EFC32E32E0D32E49E0542E5E01BD
S1132B90B9E2AB0EB11C3EAC4FACB30180EE92E097
S1132BA00E94A221892B81F44AE050E060E070E0A9
S1132BB0832D942D0E941C1F6B5673406E3C71052F
S1132BC008F470C00C94430DB30185EE92E00E94AA
S1132BD0A221892B49F44AE050E060E070E0832DA3
S1132BE0942D0E941C1F5EC0B3018CEE92E00E94E3
S1132BF0A221892B71F44AE050E060E070E0832D5B
S1132C00942D0E941C1F6150693008F44BC00C9431
S1132C10430DB30182EF92E00E94A221892B71F54A
S1132C204F923F92DF92CF921F925F92BF92AF92E8
S1132C300E94EF2119AAEEADFFADCF0108969FAF18
S1132C408EAF8DB79EB708960FB6F8949EBF0FBE91
S1132C508DBF80858C3211F00C94430DCF01099601
S1132C609FAF8EAF6CE270E00E949721009711F441
S1132C700C94430D01969FAF8EAF14C0B3018CEF3B
S1132C8092E00E94A221892B69F448E250E0632D6E
S1132C90742DCE0101960E94B92162961FAE6297EF
S1132CA00C94430DAE01425C5F4F65ED72E080E031
S1132CB090E00E94C8213C01009709F06CCF0C946D
S1132CC0430D44E050E06AE272E0C4010E94AB218B
S1132CD0892B11F00C94480DADB6BEB6D7014D91B9
S1132CE05C914A01B3E08B1A9108EDB7FEB7E8197D
S1132CF0F9090FB6F894FEBF0FBEEDBF8DB79EB7AE
S1132D0001963C0144505109B6010E948721F30108
S1132D10E80DF91D1082AE014F5F5F4F65ED72E063
S1132D20C3010E94C8210097A1F1D12C89809A8007
S1132D30BC0181E093E00E94A221892B81F4B401BB
S1132D4085E093E00E94A221892B39F0B40189E047
S1132D5093E00E94A221892BE1F4DD24D3946CE258
S1132D6070E0C4010E94972101969A838983AE0181
S1132D704F5F5F4F65ED72E080E090E00E94C821F4
S1132D800097A1F6DD2029F068E28AED92E00E9426
S1132D90AD090FB6F894BEBE0FBEADBE0C94480D7F
S1132DA0E0916903ADE0EA9FC0011124FC01E25106
S1132DB0F84F26E0A3ECB5E001900D922A95E1F7D7
S1132DC026E0E6E1F2E0A9ECB5E001900D922A9547
S1132DD0E1F7FC01E351F84F978180859093D0058A
S1132DE08093CF05E384F48461857285A70181ED26
S1132DF095E00E94872180915C0381111BC0809122
S1132E005D038230B9F40E94DA04811115C083ECA9
S1132E1095E09093620D8093610D9EE0E90EF11CA4
S1132E20F0922E08E0922D0881E080935C03809359
S1132E30680375C285E001C087E090916903BDE035
S1132E409B9FF0011124E351F84F1082911103C0AC
S1132E500E94500564C2913009F061C20E94061DAF
S1132E605EC280916303282F30E04DE1849FF0011E
S1132E701124AF014856524F9091FA07911127C07F
S1132E806BEF77E06115710511F1E655F24F86E0BD
S1132E90DB0101900D928A95E1F786E098E090932A
S1132EA002088093010850930408409303088CE1BE
S1132EB090E09093060880930508FF24F394F09221
S1132EC0FA078AE00E944902F092620328C29DE157
S1132ED0929FF001939FF00D1124E956F24F108256
S1132EE065E00E9460051BC2D090610385E4809375
S1132EF031081092320886E68093360880933508AC
S1132F0010923808109237088FEF8093390888E0C0
S1132F10D89E70011124D701A35BB54F5D011696AD
S1132F204D915C911797CA0144968093340890930D
S1132F3033081196ED91FC91129780819181A281C1
S1132F40B3818093410890934208A0934308B093BF
S1132F5044088091240290912502A0912602B09108
S1132F60270280933D0890933E08A0933F08B093B6
S1132F704008F5016481758185E498E00E94872109
S1132F80D50113968C9180933A0810923C081092C4
S1132F903B08E1E3F8E040E050E0BA01819191910F
S1132FA0480F591F611D711DA8E0E534FA07B1F7F8
S1132FB0CB01AA27BB270097A105B10539F06627E5
S1132FC07727480F591F6A1F7B1FF2CF40955095F2
S1132FD06095709550933C0840933B0880911C0287
S1132FE090911D02A0911E02B0911F028090410891
S1132FF090904208A0904308B090440840913D0846
S113300050913E0860913F08709140084825592529
S11330106A257B25482359236A237B23452B462B8A
S1133020472B19F4E1E4F8E002C0E0E2F2E0408169
S113303051816281738180959095A095B0954C01E2
S11330405D0184229522A622B72288169906AA0633
S1133050BB0619F480E092E030C0B090670334E01E
S1133060C32EAAE0AA2E8B2D90E0A89E9001A99EC3
S1133070300D1124D901A354BC4E4D905D906D9038
S11330807C90441655066606770631F4B0926703C1
S1133090C9018F539C4E0BC0019683709927B82E9B
S11330A0CA94C110E0CF8093670380E090E09093CE
S11330B06D0380936C03009719F00E94B20614C04C
S11330C080916403811114C080819181A281B381B4
S11330D08093B6139093B713A093B813B093B91316
S11330E0109265030E94690881E08093600317C110
S11330F0F701E35BF54F10828D2D0E942C050FC163
S1133100E0915F03CE2ED12CBBE0EB9FF0011124A4
S1133110E55BF24F418552857A0124E0E20EF11C11
S1133120858180936C0A868180936D0A678170859E
S113313080E79AE00E94872110926F0A10926E0A2B
S1133140A70156954795ECE6FAE020E030E080E0F0
S113315090E0DC012417350749F061917191860FE5
S1133160971FA11DB11D2F5F3F4FF4CFAD016627FF
S11331707727411551056105710539F0AA27BB2749
S1133180840F951FA61FB71FF1CF80959095A0952A
S1133190B09590936F0A80936E0A80914D0A8111C5
S11331A026C08EE49AE0892B11F12BE02C9DC001FE
S11331B02D9D900D1124845B924F90934F0A809320
S11331C04E0ADD24D394D092500A8CE69AE0909370
S11331D0520A8093510AF092540AE092530AD09210
S11331E04D0A8EE00E944902D0925E0398C08BE0A3
S11331F08C9DF0018D9DF00D1124E55BF24F108242
S11332008EC08CB58F7B8CBD94C890910F0B809130
S1133210100B9093180B8093170B9091110B8091C6
S1133220120B90931A0B8093190B4091150B50912C
S1133230160B7A0188E0E80EF11CE0921C0BF09268
S11332401B0B6091130B7091140B8FE19BE00E9498
S113325087218091550A81111FC086E59AE0892B48
S1133260D9F08BE09BE09093570A8093560A81E152
S11332708093580A87E19BE090935A0A8093590AF5
S1133280F0925C0AE0925B0AD092550A8EE00E94AA
S11332904902D092570343C010920A0B0E94B4040F
S11332A03EC060914D0370E0CB010196A1E0B0E017
S11332B08130910511F480E090E0E82FE695E695E1
S11332C0E695F0E0E15EF24F2081382F3770AD01D2
S11332D001C0440F3A95EAF7322F342331F0409578
S11332E02423208380934D0306C08617970711F08B
S11332F00196DECF8FEF8093610A8FEF80930C02EB
S113330081E080934C038AE10E944902DFCB2FB70E
S1133310F8948091A7059091A8059D7FCDC90FB61B
S1133320F8941EBF0FBE0DBFCB5ADF4F0FB6F894F3
S1133330DEBF0FBECDBFDF91CF911F910F91FF90E4
S1133340EF90DF90CF90BF90AF909F908F907F9041
S11333506F905F904F903F9008958FB7F8940895C1
S11333608FBF08951F920F920FB60F9211240BB6C0
S11333700F922F933F934F935F936F937F938F930A
S11333809F93AF93BF93EF93FF932FB7F8948091DC
S11333905D0A90915E0AA0915F0AB091600A01965D
S11333A0A11DB11D80935D0A90935E0AA0935F0AEC
S11333B0B093600A2FBF78940E948D03FF91EF9120
S11333C0BF91AF919F918F917F916F915F914F9139
S11333D03F912F910F900BBE0F900FBE0F901F9037
S11333E018951F920F920FB60F9211240F900FBED3
S11333F00F901F9018951F920F920FB60F921124E1
S11334000BB60F92CF92DF92EF92FF920F931F931E
S11334102F933F934F935F936F937F938F939F93D8
S1133420AF93BF93CF93DF93EF93FF932EB5E091C8
S11334307603F0917703309739F08091660A909182
S1133440670AE80FF91F20838091660A9091670A42
S113345001969093670A8093660A8CB58F778CBD2A
S1133460C091660AD091670A2091B0133091B113CC
S1133470C217D307D8F50091280810912908C090E5
S11334807603D0907703CE010A962817390708F4FB
S1133490C9017C0121E0E21AF108CE15DF05A0F490
S11334A00115110529F0F801EC0FFD1F808101C001
S11334B080E00E94BC02C114D10421F0F601EC0F9B
S11334C0FD1F80832196E9CF8CB580688CBD0115E2
S11334D0110531F0F801EC0FFD1F80818EBD01C094
S11334E01EBCD093670AC093660A11C0109277037A
S11334F01092760310922908109228081092B113A2
S11335001092B0131092670A1092660A8EB5FF915A
S1133510EF91DF91CF91BF91AF919F918F917F9167
S11335206F915F914F913F912F911F910F91FF9058
S1133530EF90DF90CF900F900BBE0F900FBE0F90C7
S11335401F9018951F920F920FB60F9211240F908F
S11335500FBE0F901F9018951F920F920FB60F92E7
S113356011240F900FBE0F901F9018951F920F9269
S11335700FB60F9211240BB60F922F933F934F93D4
S11335805F936F937F938F939F93AF93BF93EF93C7
S1133590FF9380E10E944902FF91EF91BF91AF91A7
S11335A09F918F917F916F915F914F913F912F9157
S11335B00F900BBE0F900FBE0F901F9018951F9287
S11335C00F920FB60F9211240BB60F922F933F93C5
S11335D04F935F936F937F938F939F93AF93BF9317
S11335E0EF93FF93809152139EEF980F923008F45B
S11335F0EB98833039F0853041F0823049F40E94F1
S1133600680206C00E946B0203C087E10E9449025F
S1133610FF91EF91BF91AF919F918F917F916F91A6
S11336205F914F913F912F910F900BBE0F900FBE62
S11336300F901F9018951F920F920FB60F9211249E
S11336400F900FBE0F901F9018951F920F920FB6F8
S11336500F9211240F900FBE0F901F9018951F9278
S11336600F920FB60F9211240F900FBE0F901F9060
S113367018951F920F920FB60F9211240F900FBE40
S11336800F901F9018951F920F920FB60F9211244E
S11336900BB60F922F933F934F935F936F937F9348
S11336A08F939F93AF93BF93EF93FF930E946E0208
S11336B08091B900982F987F20914F03243079F19D
S11336C0263021F0233009F04DC013C080914E0301
S11336D0813049F4903429F483E080934F0381E0EE
S11336E010C084E016C09831E1F783E080934F0363
S11336F013C020914E03213039F4807F803541F48A
S113370080E00E9451062EC0983231F0903321F0AF
S113371081E00E94BA0726C00E948B0723C08091D3
S1133720E5138E7F8093E5138091440D8F7D98304F
S113373029F0903119F08093440DEACF806480938E
S1133740440D91E080914E03813009F090E0809126
S1133750620A880F892B8093BB0086E080934F0315
S11337600E942A02FF91EF91BF91AF919F918F9197
S11337707F916F915F914F913F912F910F900BBE6D
S11337800F900FBE0F901F9018951F920F920FB6B7
S11337900F9211240BB60F922F933F934F935F9385
S11337A06F937F938F939F93AF93BF93EF93FF9305
S11337B0909106018091300897FD11C083508830A4
S11337C008F07EC080916A03869580936A03909185
S11337D0060196FF75C0806880936A0371C08150AA
S11337E08093300881116CC080916A03803E09F493
S11337F064C090915D13911158C0893549F0803FA0
S113380019F0823149F404C081E080935D1355C0FE
S113381081E08093230851C09091230860E09111C6
S11338201FC091E4262F30E0290F311D35952795CF
S1133830A901440F551FFA01E655FE4FE491E8171C
S113384018F461E0620F09C08E1718F49FEF920F0D
S113385004C0FA01E555FE4F1EC0961718F72DC097
S113386091E4262F30E0290F311D35952795A901C4
S1133870440F551FFA01EE5DFE4FE491E81718F46A
S113388061E0620F0FC08E1718F49FEF920F0AC009
S1133890FA01ED5DFE4FE491E0936B0A81E00E9432
S11338A049020BC09617E8F608C010925D138231E6
S11338B011F0893511F4109223088BE080933008BD
S11338C0FF91EF91BF91AF919F918F917F916F91F4
S11338D05F914F913F912F910F900BBE0F900FBEB0
S11338E00F901F9018951F920F920FB60F921124EC
S11338F00BB60F922F933F934F935F936F937F93E6
S11339008F939F93AF93BF93CF93EF93FF932091A4
S113391078003091790078944FB7F8948091B3137C
S113392081FB992790F981704FBF811122C080914A
S11339307A00877F80937A008091060B813019F09A
S1133940823091F036C0911107C08DE790E00E945B
S1133950D3030E9472052DC03093460D2093450D6C
S11339608BE10E94490225C0992379F31092060B3A
S113397020C0CFB7F8940E947602CFBF2FB7F89437
S113398080917A0086FB992790F9877F806190FB6C
S113399086F98F7780937A00877F80618F7B8F771A
S11339A080937A00877F80618F7B806880937A0020
S11339B02FBFFF91EF91CF91BF91AF919F918F91C5
S11339C07F916F915F914F913F912F910F900BBE1B
S11339D00F900FBE0F901F901895CF93DF931F92F7
S11339E0CDB7DEB789830E94330289810E94C20267
S11339F08FEF0E94C2028FEF0E94BC0289830E9453
S1133A00310289810F90DF91CF910895682F109230
S1133A106203809163039DE1899FF0011124E956BB
S1133A20F24F10820E9460058DE00C944902CF93FE
S1133A30DF93CDB7DEB763970FB6F894DEBF0FBE42
S1133A40CDBF0FB7F8944CE150E06FEF70E087E022
S1133A5098E00E9490218FEF80935A138093BA13B9
S1133A6088EE91E090935C1380935B13089A099A13
S1133A700A9A10981198129880E0877F8F7E8F7D24
S1133A808F7B8F7780937A0081E083BF0E94370217
S1133A908F3F19F00E94680AF9CF10921F0D80938E
S1133AA0690A8CED9DE0E3E8FDE0819391938E57E4
S1133AB09F4F2DE0E739F207C1F78AE08093070BA7
S1133AC01092680A1FEF10932F08729A739A7498D1
S1133AD0759A0E943502779A6A9A6B9A6C9A6D9AD3
S1133AE06E9A6F9A82B112B881B111B96FE380E016
S1133AF00E9478096FE381E00E94780960EC80E01D
S1133B000E94780960EC81E00E9478098091B600F7
S1133B1080728093B6008091B60081FDFCCF82E074
S1133B208093B0008091B60080FDFCCF85E0809347
S1133B30B1008CE78093B300809170008260809321
S1133B4070000E9492026093290D70932A0D809355
S1133B502B0D90932C0D80E395E7A0E0B0E08093CB
S1133B602D0D90932E0DA0932F0DB093300D8091B9
S1133B70310D8E7F82608093310D8CE00E9449026A
S1133B808091280290912902909326028093270223
S1133B900E9437028F3F19F00E94680AF9CF0FBFC5
S1133BA078948FB7F8941092B2138FBF0E944A0A88
S1133BB09FB7F894809107018F77809307019FBF87
S1133BC09FB7F894809107018F7B809307019FBF73
S1133BD080916D00806880936D008FB7F8949BE0AE
S1133BE0909330081092230810925D138FBF809138
S1133BF068008460809368009FB7F89480915213A2
S1133C009FBF811133C09FB7F89481E08093521312
S1133C10109253131092541310925513109256137A
S1133C2080E2E3EAF5E0DF01282F1D922A95E9F707
S1133C30E3E6FDE0DF011D928A95E9F79FBF529A02
S1133C405A98519A599853985B9880916900806862
S1133C5080936900809169008F7B809369004AE0BA
S1133C6050E060E070E082E00E943F0880EC8093C6
S1133C70240298EA909325022AE22093260242E045
S1133C80409327023FEF30931C0230931D02309380
S1133C901E0210921F02809320029093210220930F
S1133CA0220231E0309323021F924F931F922F93ED
S1133CB01F929F931F928F938EE293E09F938F9313
S1133CC08E010F5F1F4F1F930F930E942C226CE3F2
S1133CD0C8010E94AD0910926A0A1092650A0FB6D3
S1133CE0F894DEBF0FBECDBF80915D03811136C055
S1133CF0209A0E943102249A2C981B8A1A8A8A8953
S1133D009B8980329E4430F48A899B8901969B8BDF
S1133D108A8BF5CF2C9A1B8A1A8A8A899B898032CE
S1133D209E4430F48A899B8901969B8B8A8BF5CFBC
S1133D3052985A9A84E08CBB809169008062809387
S1133D406900809169008F7E80936900EA9A0E94DD
S1133D50DA04811103C081E080935D036AE083E4A7
S1133D6093E00E94AD091FB7F8940E9437028F3F79
S1133D7009F058C080917000837089F08091B6007A
S1133D808A71E1F78091B3009091B200891B883069
S1133D9040F08091B200893F20F483E003C085E0C5
S1133DA001C082E0E0916E00E67029F590916F0009
S1133DB09E7221F5E0917100EE72E9F49091720027
S1133DC09E72E1F4E0917300EE72A9F40CB407FC66
S1133DD015C09091C100987189F4E091C900E8710F
S1133DE051F49091BC0092FD09C090917A0097FD26
S1133DF004C0E5E003C0E0E001C0E1E093B78E1742
S1133E0008F4E82FF0E0E45EFE4F8491E92FE07FB0
S1133E10E160E82BE3BF78948895F89483B78E7FAC
S1133E2083BFA3CF1FBF0E94680A9DCFEE0FFF1F61
S1133E300590F491E02D09942F923F924F925F9256
S1133E406F927F928F929F92AF92BF92CF92DF92A6
S1133E50EF92FF920F931F93CF93DF935C016B015B
S1133E607A016115710519F0FB0191838083E114D6
S1133E70F10429F0C7010297839708F0F1C0E50126
S1133E802196F5011081812F90E00E947F21892BDA
S1133E9011F05E01F4CF1D3229F42196F501118150
S1133EA001E007C01B3221F4E5012296F5011181DE
S1133EB000E0E114F10459F1F0E1EF16F10461F4CA
S1133EC01033E1F488818F7D883569F51981229654
S1133ED0026070E1E72EF12C88E0E816F10439F174
S1133EE02CF4F2E0EF16F104C9F12AC08AE0E816D6
S1133EF0F10479F0E0E1EE16F10411F550E1E52E5C
S1133F00F12C812C912CA12C68E0B62E2CC01033FE
S1133F10C9F23AE0E32EF12C4CEC842E982CA82C18
S1133F204CE0B42E20C010E3E114F104A9F698E0AB
S1133F30E92EF12C812C912CA12C20E1B22E13C05E
S1133F4060E070E080E090E89701442737FD4095F9
S1133F50542F0E94162549015A0105C0812C912C29
S1133F60A12C80E4B82E60E020E030E0A901270114
S1133F70662457FC6094762C1E01E0EDE10FEA30D4
S1133F8060F08FEB810F8A3110F4E9EC05C08FE902
S1133F90810F8A3128F5E9EAE10F8E2F90E08E1522
S1133FA09F05F4F467FD18C082169306A406B506AF
S1133FB090F0C301B2010E9406259B01AC012E0FB3
S1133FC0311D411D511D213031054105F0E85F07C8
S1133FD010F461E001C06FEF2196F1011081CCCFA4
S1133FE0802F8170C114D10471F0662329F02197C8
S1133FF0F601D183C08307C001FF19C02297F601DF
S1134000D183C08314C067FF12C0811105C02FEF94
S11340103FEF4FEF5FE704C020E030E040E050E8BE
S113402082E290E09093E7138093E61316C088230E
S113403041F050954095309521953F4F4F4F5F4F3C
S11340400CC057FF0AC082E290E09093E71380937C
S1134050E6132FEF3FEF4FEF5FE7B901CA0104C04A
S113406060E070E080E090E0DF91CF911F910F91CC
S1134070FF90EF90DF90CF90BF90AF909F908F9084
S11340807F906F905F904F903F902F9008952F9264
S11340903F924F925F926F927F928F929F92AF92D4
S11340A0BF92CF92DF92EF92FF920F931F93CF9321
S11340B0DF9300D000D000D0CDB7DEB75C016B0138
S11340C07A016115710519F0DB018D939C93E1145C
S11340D0F10429F0C7010297839708F0DCC0350189
S11340E0BFEF6B1A7B0AF5011081812F90E00E94CB
S11340F07F21892B11F05301F2CF1D3249F4350190
S1134100F2E06F0E711CD50111961C9101E009C0FB
S11341101B3231F43501B2E06B0E711CF5011181D3
S113412000E0E114F10409F4C4C0F0E1EF16F10475
S113413089F4103399F5D3018C918F7D883509F07A
S1134140B2C011961C91B2E06B0E711C026050E17A
S1134150E52EF12CEAE0EE16F10409F4B0C0F0E12A
S1134160EF16F104D9F028E0E216F10451F438E036
S1134170E32EF12C88248A94982CA82C4FE1B42E99
S113418013C06FEF7FEFCB019701442737FD4095B4
S1134190542F0E94162549015A0106C088248A9486
S11341A0982CA82C2FE0B22E7E826D8260E020E055
S11341B030E0A9012701662457FC6094762C2D80F9
S11341C03E80E0EDE10FEA3060F08FEB810F8A3141
S11341D010F4E9EC05C08FE9810F8A3190F5E9EA22
S11341E0E10F8E2F90E08E159F055CF56F3F09F16E
S11341F082169306A406B506D8F0C301B2010E9444
S113420006252E2F30E040E050E029833A834B838B
S11342105C83260F371F481F591F89819A81AB8100
S1134220BC81281739074A075B0710F061E001C019
S11342306FEFED81FE813196FE83ED83D1011C91F8
S1134240BECFC114D10489F0662339F08D819E81DB
S11342500197F6019183808308C001FF06C08D8118
S11342609E810297D6018D939C9300FF07C05095C1
S11342704095309521953F4F4F4F5F4F67FF10C0DA
S113428082E290E09093E7138093E6136FEF7FEF61
S11342908FEF9FEF1BC060E070E080E090E016C0FD
S11342A0B901CA0113C010E3E114F10409F45FCFAA
S11342B051CF103309F43FCF9AE0E92EF12C89E96C
S11342C0882E982CA82C89E1B82E6ECF26960FB68E
S11342D0F894DEBF0FBECDBFDF91CF911F910F9138
S11342E0FF90EF90DF90CF90BF90AF909F908F9012
S11342F07F906F905F904F903F902F900895911111
S1134300D6C2803219F089508550D0F70895FB0148
S1134310DC0102C001900D9241505040D8F708953D
S1134320DC0101C06D9341505040E0F70895FC0159
S11343308191861721F08823D9F799270895319719
S1134340CF010895FB01DC018D91019080190110CA
S1134350D9F3990B0895FB01DC014150504030F032
S11343608D910190801919F40020B9F7881B990BDD
S11343700895FB01DC014150504048F001900D923A
S11343800020C9F701C01D9241505040E0F7089544
S1134390FA01A191B081009719F41097E1F0CD01D1
S11343A0DC01CD010D90002011F4C00113C0FB010C
S11343B02191222319F02015D9F7F3CFFB01219184
S11343C0201519F41E92119606C02223C1F70D90F0
S11343D00020A1F7D001FA01A193B08308950F93AF
S11343E01F93CF93DF93CDB7DEB72E970FB6F89414
S11343F0DEBF0FBECDBF0D891E898F89988D26E043
S11344002C831A83098397FF02C080E090E8019708
S11344109E838D83AE01455E5F4F698D7A8DCE019B
S113442001960E945C224D815E8157FD0AC02F8156
S11344303885421753070CF49A01F801E20FF31F71
S113444010822E960FB6F894DEBF0FBECDBFDF915B
S1134450CF911F910F9108950F931F93CF93DF93E3
S1134460CDB7DEB72E970FB6F894DEBF0FBECDBF23
S11344700D891E8986E08C831A8309838FEF9FE759
S11344809E838D83AE01475E5F4F6F89788DCE0129
S113449001960E945C222F813885F801E20FF31FF8
S11344A010822E960FB6F894DEBF0FBECDBFDF91FB
S11344B0CF911F910F9108952F923F924F925F9247
S11344C06F927F928F929F92AF92BF92CF92DF9220
S11344D0EF92FF920F931F93CF93DF93CDB7DEB785
S11344E02C970FB6F894DEBF0FBECDBF7C016B01D5
S11344F08A01FC0117821682838181FFBDC1CE012E
S113450001964C01F7019381F60193FD859193FF88
S113451081916F01882309F4ABC1853239F493FD8D
S1134520859193FF81916F01853229F4B70190E061
S11345300E947024E7CF512C312C20E02032A0F4CB
S11345408B3269F030F4803259F0833269F420619F
S11345502CC08D3239F0803339F4216026C02260BA
S1134560246023C0286021C027FD27C030ED380F08
S11345703A3078F426FF06C0FAE05F9E300D11242D
S1134580532E13C08AE0389E300D1124332E20623E
S11345900CC08E3221F426FD6BC1206406C08C361B
S11345A011F4206802C0883641F4F60193FD859128
S11345B093FF81916F018111C1CF982F9F7D9554F5
S11345C0933028F40C5F1F4FFFE3F9830DC083364B
S11345D031F0833771F0833509F05BC022C0F801F4
S11345E0808189830E5F1F4F44244394512C5401CE
S11345F015C03801F2E06F0E711CF801A080B18083
S113460026FF03C0652D70E002C06FEF7FEFC50188
S11346102C870E9465242C0183012C852F77222E60
S113462017C03801F2E06F0E711CF801A080B18050
S113463026FF03C0652D70E002C06FEF7FEFC50158
S11346402C870E945A242C012C852068222E830159
S113465023FC1BC0832D90E048165906B0F4B70123
S113466080E290E00E9470243A94F4CFF50127FC94
S1134670859127FE81915F01B70190E00E9470242B
S113468031103A94F1E04F1A51084114510471F772
S1134690E5C0843611F0893639F5F80127FF07C0E3
S11346A060817181828193810C5F1F4F08C060819A
S11346B07181882777FD8095982F0E5F1F4F2F7685
S11346C0722E97FF09C090958095709561957F4FE4
S11346D08F4F9F4F2068722E2AE030E0A4010E9481
S11346E0A824A82EA81844C0853729F42F7EB22EFA
S11346F02AE030E025C0F22FF97FBF2E8F36C1F0BB
S113470018F4883579F0B4C0803719F0883721F06F
S1134710AFC02F2F2061B22EB4FE0DC08B2D84604C
S1134720B82E09C024FF0AC09F2F9660B92E06C078
S113473028E030E005C020E130E002C020E132E0B2
S1134740F801B7FE07C060817181828193810C5F9B
S11347501F4F06C06081718180E090E00E5F1F4FA3
S1134760A4010E94A824A82EA818FB2DFF777F2E51
S113477076FE0BC0372D3E7FA51450F474FE0AC09C
S113478072FC08C0372D3E7E05C0BA2C372D03C0FD
S1134790BA2C01C0B52C34FF0DC0FE01EA0DF11D89
S11347A08081803311F4397E09C032FF06C0B3948E
S11347B0B39404C0832F867809F0B39433FD13C0F7
S11347C030FF06C05A2CB31418F4530C5B18B32CE6
S11347D0B31468F4B70180E290E03C870E9470242F
S11347E0B3943C85F5CFB31410F43B1801C0312CBD
S11347F034FF12C0B70180E390E03C870E9470242C
S11348003C8532FF17C031FD03C088E790E002C049
S113481088E590E0B7010CC0832F867859F031FF0A
S113482002C08BE201C080E237FD8DE2B70190E067
S11348300E947024A51438F4B70180E390E00E942C
S113484070245A94F7CFAA94F401EA0DF11D8081E3
S1134850B70190E00E947024A110F5CF332009F431
S113486051CEB70180E290E00E9470243A94F6CFD2
S1134870F7018681978102C08FEF9FEF2C960FB6C8
S1134880F894DEBF0FBECDBFDF91CF911F910F9182
S1134890FF90EF90DF90CF90BF90AF909F908F905C
S11348A07F906F905F904F903F902F90089599273D
S11348B088270895FC010590615070400110D8F7D5
S11348C0809590958E0F9F1F0895FC016150704054
S11348D001900110D8F7809590958E0F9F1F089531
S11348E00F931F93CF93DF93FB01238121FD03C01B
S11348F08FEF9FEF28C022FF16C046815781248185
S113490035814217530744F4A081B1819D012F5F83
S11349103F4F318320838C93268137812F5F3F4F14
S11349203783268310C0EB01092F182F0084F185EB
S1134930E02D0995892BE1F68E819F8101969F8355
S11349408E83812F902FDF91CF911F910F91089526
S1134950FA01AA27283051F1203181F1E8946F93AC
S11349606E7F6E5F7F4F8F4F9F4FAF4FB1E03ED052
S1134970B4E03CD0670F781F891F9A1FA11D680FF0
S1134980791F8A1F911DA11D6A0F711D811D911D23
S1134990A11D20D009F468943F912AE0269F112498
S11349A03019305D3193DEF6CF010895462F4770FC
S11349B0405D4193B3E00FD0C9F7F6CF462F4F7057
S11349C0405D4A3318F0495D31FD4052419302D0B5
S11349D0A9F7EACFB4E0A69597958795779567955B
S11349E0BA95C9F700976105710508959B01AC015B
S11349F00A2E06945795479537952795BA95C9F782
S1134A00620F731F841F951FA01D0895DB018F93F0
S1134A109F930E943825BF91AF91A29F800D911D55
S1134A20A39F900DB29F900D11240895A1E21A2E18
S1134A30AA1BBB1BFD010DC0AA1FBB1FEE1FFF1F3E
S1134A40A217B307E407F50720F0A21BB30BE40B8E
S1134A50F50B661F771F881F991F1A9469F76095D5
S1134A607095809590959B01AC01BD01CF0108958F
S1134A700E944325A59F900DB49F900DA49F800D87
S1134A80911D11240895A29FB001B39FC001A39F5B
S1134A90700D811D1124911DB29F700D811D112473
S10B4AA0911D0895F894FFCF65
S1134AA8FFFFFFFFFFFFFFFFFFFFFFFF01FF01FF06
S1134AB8FFFFFFFF0006010203040506FFFF0000D5
S1134AC80A3C00010A3C000A010065727200006F8A
S1134AD86B0000207F050706083202456E74657274
S1134AE8206368616E6E656C3A00526164696F2078
S1134AF8696E697469616C697A65642E00594F4CF2
S1134B084F002020464D34202020006164640D6944
S1134B18643D25642C6E616D653D25732C71646953
S1134B28616C3D25642C667265713D25642C706941
S1134B38636F64653D25642C6E6F74653D25730A47
S1134B4800526164696F20696E6974206661696CDA
S1134B586564210025750074756E656420746F2082
S1134B6873746174696F6E006E6578742073746110
S1134B7874696F6E003D0069640073632065760094
S1134B8866726571007069636F6465007164696158
S1134B986C006E616D6500252D3873006E6F746549
S1134BA800636D6400616464007570646174650019
S1134BB831003200330034003500360061006200F1
S1134BC863006600253032643A25303264003E259D
S1134BD83033642E253033642E253033642E25304B
S10F4BE8336400696E697420666D00007F
S9030000FC
