S01F00006275696C642F626967415652365F313238302F6D61696E2E7372656377
S11300000C94C9020C940D220C9417220C942122F6
S11300100C944A220C9490220C949A220C94A422BC
S11300200C94AE220C94E8020C94E8020C943A234B
S11300300C94E8020C941D210C94E8020C945C21AD
S11300400C94E8020C94E8020C94E8020C94E80284
S11300500C94E8020C94E8020C94E8020C94E80274
S11300600C9466210C94E8020C94E8020C94E802C7
S11300700C94E8020C94E8230C94E8020C94E80233
S11300800C94E8020C94E8020C94E8020C94E80244
S11300900C94E8020C94E8020C94E8020C94B82244
S11300A00C94E8020C94E8020C94E8020C94E80224
S11300B00C94E8020C94E8020C94E8020C94E80214
S11300C00C94E8020C94E8020C94E8020C94E80204
S11300D00C94E8020C94E8020C94E8020C94E802F4
S11300E00C94E8026A0ED90EAD0F29105610611057
S11300F06D1094109810B510F910E412E912F3126F
S11301002A13A014131539153D15AD15DA15061665
S11301102C1633164816C518D318C319811A7C1B1C
S1130120D61CE91CEC1CEF1C351D381D5F1D6D1D14
S1130130881DE31DCF10D210D510D810DB10DE10AF
S1130140E110E410E71000020E060C040D090E780D
S1130150155116211A591B531C411D571E222143A8
S11301602258234424452578262329202A562B4621
S11301702C542D522E25314E324233483447355AB1
S11301803626394C3A4D3B4A3C553D2F3E28413B9F
S1130190424B4349444F453D4629493A4A5F4B4CFB
S11301A04C784D504E3F5278547855605A0A5B5EF5
S11301B05D2A613E660869316B346C377030712C8E
S11301C07232733574367538792B7A337B2D7C2AE9
S11301D07D3900000D090E7C157116311A791B73D7
S11301E01C611D771E322163227823642465253423
S11301F0263329202A762B662C742D722E35316EE7
S1130200326233683467357A3636392C3A6D3B6A54
S11302103C753D373E38412C426B4369446F453051
S11302204639492E4A2D4B6C4C6F4D704E2B526FF4
S1130230546F555C5A0A5B785D27613C66086931E6
S11302406B346C377030712C723273357436753888
S1130250792B7A337B2D7C2A7D3900000000000045
S11302600000005F00000007000700147F147F14E3
S1130270242A7F2A12231308646236495522500027
S113028005030000001C2241000041221C00082A32
S11302901C2A0808083E0808005030000008080816
S11302A00808006060000020100804023E5149451F
S11302B03E00427F400042615149462141454B3155
S11302C01814127F1027454545393C4A49493001E5
S11302D0710905033649494936064949291E00363C
S11302E0360000005636000000081422411414148D
S11302F014144122140800020151090632497941BB
S11303003E7E1111117E7F494949363E41414122C9
S11303107F4141221C7F494949417F090901013E2E
S1130320414151327F0808087F00417F410020404D
S1130330413F017F081422417F404040407F020436
S1130340027F7F0408107F3E4141413E7F09090935
S1130350063E4151215E7F091929464649494931E2
S113036001017F01013F4040403F1F2040201F7F8B
S11303702018207F63140814630304780403615174
S113038049454300007F4141020408102041417F58
S11303900000040201020440404040400001020405
S11303A00020545454787F4844443838444444200A
S11303B0384444487F3854545418087E09010208CC
S11303C01454543C7F0804047800447D40002040C9
S11303D0443D00007F10284400417F40007C041805
S11303E004787C0804047838444444387C14141495
S11303F008081414187C7C08040408485454542035
S1130400043F4440203C4040207C1C2040201C3CB5
S11304104030403C44281028440C5050503C446424
S1130420544C44000836410000007F00000041366F
S1130430080008082A1C08081C2A08086E6F74653E
S1130440006E616D6500716469616C007069636F51
S113045064650066726571006964004368616E6E6C
S1130460656C2044422046756C6C00676574006DB1
S11304707367007075726765616C6C006C69737486
S11304800075706461746500616464006F6B0041A1
S11304906C7265616479206661766F7572697465E2
S11304A021004368616E6E656C206E6F7420696E06
S11304B0206C69737421004661766F757269746586
S11304C0206E6F7420736574210042616E64206C29
S11304D0696D6974207265616368656421004442D2
S11304E0206572726F72210044422066756C6C2123
S11304F0004661766F7572697465732066756C6CFD
S113050021004368616E6E656C206C6973742066AB
S1130510756C6C2100496E76616C69642063686156
S11305206E6E656C2100464D436C69636B20696E89
S11305306974206661696C65642100556E6B6E6F29
S1130540776E206572726F7221004572726F723A13
S113055000202020202020202020202020202020B7
S113056020202020202000202020202000202020C7
S1130570202020202000566F6C756D653A004D4890
S11305807A00456E746572204368616E6E656C3ADC
S1130590000011241FBECFEFD1E2DEBFCDBF13E0B8
S11305A0A0E0B2E0E8EEFBE500E00BBF02C007907C
S11305B00D92A630B107D9F713E1A6E0B3E001C06C
S11305C01D92A634B107E1F70E9415250C94F22D73
S11305D00C940000809129128093BC00089540E09F
S11305E050E02AE0DA01A75BBD4EE22FF0E0EE0F07
S11305F0FF1FE15BF54F8C9190E0982F88271196AF
S11306003C91832B918380832F5F2F704E5F5F4FCC
S11306104032510539F70895289A08952898089585
S113062076980895769A08958091B5128F3F69F06F
S1130630E82FF0E0ED54F34F90819093B5129F3F73
S113064011F4909318139FEF90830895EB980895F5
S11306509FB7F894E82FF0E0ED54F34F20812F3F3B
S113066099F4E0911813E81779F02091B5122F3F0F
S113067019F48093B51204C0F0E0ED54F34F808375
S11306808093181380E001C085E09FBF089589E03E
S11306900C94280386E00C94280380E20C9428032D
S11306A08CE10C94280384E00C9428038BE10C94D3
S11306B0280381E00C9428038DE00C9428038EE138
S11306C00C942803ECE7F0E0208180917B003081DA
S11306D090818870880F880F2F71822B35FB222719
S11306E020F920FB86F99295969596959370292F7B
S11306F0279522272795822B969508958FB7F894EE
S11307009091BC00909329128FBF08952FB7F8944D
S11307106091150F7091160F8091170F9091180F1B
S11307202FBF0895CF92DF92EF92FF92CF93C82FFD
S11307306A017B010E94860329E0C29FF001112413
S1130740DF01AD50BE4E6D937D938D939C931397B3
S11307501496CD92DD92ED92FC921797E550FE4EE1
S1130760808181608260808382E1CF91FF90EF90ED
S1130770DF90CF900C9428038EBD0DB407FEFDCFFF
S11307808EB508950C94BC03CF93DF9300D0CDB7FE
S1130790DEB76A8389830E940E0389810E94C203A3
S11307A06A81862F0E94C2030F900F90DF91CF9130
S11307B00C940C03CF93DF931F92CDB7DEB78983DC
S11307C00E940E0389810E94C20380E00E94BC0340
S11307D089830E940C0389810F90DF91CF91089542
S11307E0CF93DF9300D0CDB7DEB76A8389830E94AD
S11307F00E03898180680E94C2036A81862F0E9449
S1130800C2030F900F90DF91CF910C940C038F9241
S11308109F92AF92BF92CF92DF92EF92FF920F938B
S11308201F93CF93DF932FEF280F9DE1299F900112
S11308301124890107591D4EF8019081911140C07E
S1130840E901C659DD4E2097D9F17A0151E0598367
S113085018821B8298E09A8396E09C8344E04D833F
S11308608090240290902502A0902602B090270246
S11308708786908AA18AB28AD901AE58BD4EE6E134
S1130880F2E0492F01900D924A95E1F7D901A4585D
S1130890BD4EFB0101900D929A95E1F7F701C080DE
S11308A0D180E280F380F801C18ED28EE38EF48E83
S11308B08F831E82508383E10E94280380E001C05D
S11308C085E0DF91CF911F910F91FF90EF90DF9022
S11308D0CF90BF90AF909F908F9008952FB7F894CA
S11308E080912108882309F140912D1250912E12F4
S11308F060912F12709130128091DC0C9091DD0C7C
S1130900A091DE0CB091DF0C840F951FA61FB71FBA
S11309104091150F5091160F6091170F7091180F99
S1130920481759076A077B0711F02FBF08951092E3
S113093021082FBF81E10C9428032FB7F8949091DC
S1130940AC122FBF91110EC09FB7F89423E02093EF
S1130950AC121092B21280931C0F9FBF0E945003DE
S113096080E0089581E00895BC014091470427E4A4
S113097034E090E0941761F0255C3F4FF901F8975B
S11309800190F081E02DE617F70721F09F5FF2CF89
S11309908FEF0895892F0895DC0181E04D91442360
S11309A011F12091B91230E090912A12F90154E02A
S11309B0EE0FFF1F5A95E1F7E90FF11DE354F04FD5
S11309C040839F5F90932A12F901E15EF04F808388
S11309D0903121F710922A122F5F3F4F2170332755
S11309E02093B912DBCF08958FB7F894EEEBF7E0BC
S11309F010821182128213828FBF89E0E4ECF7E047
S1130A00DF011D928A95E9F781E4EDECF7E0DF015F
S1130A101D928A95E9F786E0EEE0F8E0DF011D9289
S1130A208A95E9F708950F931F93CF93DF9300D02E
S1130A301F92CDB7DEB780913C041F928F9387EC51
S1130A4092E09F938F938E010F5F1F4F1F930F931D
S1130A500E94CC2A1B821092B91288E080932A1239
S1130A60C8010E94CC0487E20E9428030F900F90D3
S1130A700F900F900F900F900F900F900F90DF91A9
S1130A80CF911F910F9108952F923F924F925F92B1
S1130A906F927F928F929F92AF92BF92CF92DF928A
S1130AA0EF92FF920F931F93CF93DF93CDB7DEB7EF
S1130AB0AD970FB6F894DEBF0FBECDBF2FB7F89435
S1130AC0909139042FBF9111F3C08B018BA78FB77D
S1130AD0F89492E0909339048FBF44E050E068E8C2
S1130AE074E0CE0101961C010E94152A9E012B5F21
S1130AF03F4F47E050E061E874E0C9012CA73DA7EF
S1130B000E94152A2E019CE0490E511C43E050E03E
S1130B1068E574E0C2010E94152A5E01AFE0AA0EE6
S1130B20B11C45E050E063E574E0C5010E94152A5C
S1130B304E01BAE18B0E911C47E050E06CE474E086
S1130B40C4010E94152A6E0184E1C80ED11C46E03E
S1130B5050E066E474E0C6010E94152A7E0191E229
S1130B60E90EF11C45E050E061E474E0C7010E9425
S1130B70152A3E01A6E26A0E711C45E050E06CE3C2
S1130B8074E0C3010E94152AE5E3F3E080E8DF0185
S1130B901D928A95E9F72CA53DA5BBA5BF3FA1F5FC
S1130BA0D80118968C9118978F9317968C91179754
S1130BB08F937F926F9214968C9114978F931396C0
S1130BC08C9113978F939F928F9212968C91129778
S1130BD08F9311968C9111978F93BF92AF928C91B2
S1130BE01F928F93DF92CF9216968C9116978F93C4
S1130BF015968C918F93FF92EF921F921F925F92A2
S1130C004F923F922F9237C09BA59F3008F040C06F
S1130C10D80118968C9118978F9317968C911797E3
S1130C208F937F926F9214968C9114978F9313964F
S1130C308C9113978F939F928F9212968C91129707
S1130C408F9311968C9111978F93BF92AF928C9141
S1130C501F928F93DF92CF9216968C9116978F9353
S1130C6015968C918F93FF92EF921F929F935F92B0
S1130C704F923F932F938BE392E09F938F93FF9335
S1130C80EF930E94CC2A0FB6F894DEBF0FBECDBFFF
S1130C901092B403E5E3F3E001900020E9F7CF01FB
S1130CA08653934090933403809333030E945C03F0
S1130CB0AD960FB6F894DEBF0FBECDBFDF91CF91D6
S1130CC01F910F91FF90EF90DF90CF90BF90AF9066
S1130CD09F908F907F906F905F904F903F902F9058
S1130CE00895CF93DF938FB7F894C0911C08D091E7
S1130CF01D088FBFCE010E94B4048F30C0F52FB7FA
S1130D00F8949091BE072FBF2BE3829FB00111246A
S1130D10EB01C95BDB4F2F813885232BF1F4992339
S1130D20E1F09FB7F8942091C2073091C3079FBFA9
S1130D303E832D839B012E5A3B4F98E0E4ECF7E071
S1130D40D90101900D929A95E1F738872F83675B5B
S1130D507B4FDF91CF910C9444058FB7F89491E0C9
S1130D6090931F088FBFDF91CF910C94590380910A
S1130D7047048F3038F082E080933A04DF91CF91BA
S1130D800C9447039FB7F8948091BE079FBFE091EE
S1130D9047049BE39E9FF0011124E75BFB4F108205
S1130DA0D283C18321E030E0348323831682158209
S1130DB0108617822091470420934804882331F138
S1130DC08FB7F8942091C2073091C3078FBFA091C9
S1130DD047049A9FD0011124FD01E95BFB4F368340
S1130DE02583AE5ABB4F88E0E4ECF7E001900D9206
S1130DF08A95E1F780914704989FC0011124FC0172
S1130E00E95BFB4F8E5A9B4F908787836091470421
S1130E108BE3689FB0011124675B7B4F8FEF0E94C7
S1130E204405809147048F5F80934704DF91CF91FD
S1130E3008950197019601970196019701960197EC
S1130E40C1F7089510921203E09113038BE0E89F19
S1130E50F0011124EF5CFD4E108285E10C9428030F
S1130E600F931F93CF93DF930091B5031091B603B3
S1130E70F801EA54FC4F20812A30D1F4EC011082AD
S1130E806DE070E087EB93E00E944E2A998388839B
S1130E90009741F0FC011082888199810196998321
S1130EA0888304C009541C4F1983088381E001C05E
S1130EB080E0DF91CF911F910F91089581E080939D
S1130EC0180344E153E166E072E00E94070444E63B
S1130ED050E060E070E080E00C9492031F93CF93A5
S1130EE0DF938FB7F894C0910A03C1113DC011E09C
S1130EF010930A031092A3128FBFDFB7F894809166
S1130F000903811117C0509851981092B90081E4D7
S1130F108093B8001092BA001092BC000E947E0325
S1130F20809129128E7F8460809329120E94EA02A4
S1130F3010930903DFBFDFB7F89480910E0281306C
S1130F4089F480910A03813021F483E20E9428030A
S1130F5009C0823039F48091A31280930E0283E099
S1130F6080930A03DFBF1DC0C091A312CC23C1F03C
S1130F709091210F9F3F99F4E0910F02EE2379F0B5
S1130F80909110029F3F19F41092100204C0F0E0F7
S1130F90EF5DF04F108210920F02C0E001C0C5E077
S1130FA08FBF8C2FDF91CF911F910895CF938FB76F
S1130FB0F89490910D02911136C08FBF8FB7F894B9
S1130FC090910903913079F522E0209309038FBFB2
S1130FD08FB7F89420E130E030931B0F20931A0F61
S1130FE029E432E13093E40C2093E30C20E22093D3
S1130FF0200823E0209343131092A5129093080332
S11310008FBF0E947E03CFB7F894809129128F7A04
S1131010816A8093291284E0809309030E94EA0282
S1131020CFBFCF9108958FBF8FE1CF910C94280348
S11310303FB7F89490931D0880931C0820911F08D3
S11310403FBF243079F0253069F48833944028F484
S11310500E94590387E00C94280386E080933A04A5
S11310600C9447030C945903882389F12FB7F894FF
S11310708091570A9091580A90699093580A8093E6
S1131080570A1092BA121092BB121092BC1284E04A
S11310908093A4122FBF48E050E060E270E08EEB32
S11310A092E10E94472A40E450E060E270E088EC5C
S11310B092E10E94472A46E050E060E270E088E056
S11310C093E10E94472A88E08CBBEB9A11C00E94EE
S11310D026032FB7F8948091570A9091580A9F7667
S11310E09093580A8093570A84E08093A4122FBFE8
S11310F00C944D033FB7F8949091B4122091AC1224
S11311008093B4123FBF21110AC0891741F09FB7E1
S1131110F89424E02093AC129FBF0E94340880E02E
S113112008959FB7F8948091AF129FBF81110C94DA
S11311304D039FB7F89482E08093AF128091A4127C
S1131140880F82509FBF20E092E02817B0F43FB789
S1131150F894422F50E0E92FF0E0EE0FFF1FE15B1F
S1131160F54F60817181FA01E75BFD4E7083618305
S11311703FBF9F5F9F702E5FE8CF0C946E071F9355
S1131180CF93DF931F92CDB7DEB7182F8064798396
S11311900E94C40381E0810F7981672F80640F90DE
S11311A0DF91CF911F910C94C403660F660F68B949
S11311B0439A98B18295807F982B98B94398089563
S11311C0CF93DF93C82FD62F82958F700E94D508B6
S11311D06D2F8C2FDF91CF910C94D508CF93DF9393
S11311E09FB7F89480910D03882369F19FBFDFB7FF
S11311F0F894C0910D03C11109C081E080930D03DF
S11312001092110288E10E94280318C08091E70C13
S11312108F3F99F4E0911202EE2379F0809113024A
S11312208F3F19F41092130204C0F0E0E951F34F18
S1131230108210921202C0E001C0C5E0DFBF8C2F03
S1131240DF91CF9108958CB58F7B8CBD229A239822
S1131250219A209A8CB580618CBD8CB58F778CBD1A
S11312608DB58E7F8DBD8CB5877F8CBD8CB58B7F06
S11312708CBD8CB58C7F8CBD8CB580648CBDB6CF99
S11312800F931F93CF93DF9380910E13882309F458
S11312903FC010E0C0E0DFE10FB7F8948091111374
S11312A08E7F809311130E946203282F2F73881F4F
S11312B08827881F9170990F892B181302C091E019
S11312C0D21390E08091111390FB81F99D2F9F73AD
S11312D0990F990F8370892B809311131111D06486
S11312E0D0937C0080917B00877F80937B009091DA
S11312F011138C2F8860806190FB85F9806480686D
S113130080937A000FBFDF91CF911F910F910895C1
S1131310C7E011E0D0E0C0CFCF93DF93CFB7F8940C
S11313200E947E03809129128E7F80698093291206
S11313300E94EA02CFBFDFB7F89480910A0383309A
S1131340C1F5C0910E02C11134C0809110028F3FCB
S1131350C1F0E82FF0E0EF5DF04F90819093100220
S11313609F3F11F490930F029FEF90838093A312F9
S113137090930E0281E080930A0383E20E94280383
S113138016C081E080930E0210920A038091090333
S1131390813069F40E947E03809129128A768093B9
S11313A029120E94EA025898599810920903DFBF43
S11313B002C0DFBFC1E08C2FDF91CF91089510925E
S11313C00B0390910C032DE0929FF0011124E35242
S11313D0F04F1082911103C081110E945C0389E1D6
S11313E00C942803109214039091150328E0929F03
S11313F0F0011124EB5FF04F1082992329F0913012
S113140029F40E94DF0902C00E94220784E10C949F
S11314102803811110C0662371F080911803813074
S113142051F4109218038091FB118D7F8093FB116E
S113143081E00C94F2090895882319F0813021F099
S11314400895862F0C94F2091092160380911703C5
S11314509DE1899FF0011124E759FD4E10820E94FD
S1131460090A83E10C9428034F925F926F927F9252
S11314708F929F92AF92BF92CF92DF92FF920F937F
S11314801F93CF93DF93A3EFB1E1C12CD12C49E09B
S11314904C9DF0014D9DF00D1124EF01CD50DE4E19
S11314A0F884F1FEC1C00D911D912D913C911397CB
S11314B014968D909D90AD90BC9017972B013C0194
S11314C0401A510A620A730A481459046A047B04D4
S11314D008F4AAC0F0FE06C0E550FE4E20812D7F20
S11314E020830AC0B901A801480D591D6A1D7B1D3E
S11314F0488359836A837B8323E0C21609F44DC071
S11315002C1538F081E0C81669F022E0C216D9F132
S11315102AC084E0C81609F444C025E0C21609F4C0
S11315207AC021C010921B1310921C1310921D1329
S113153010921E1310922513109226131092271343
S11315401092281310922F1310923013109231130B
S1131550109232131092391310923A1310923B13D3
S113156010923C136AC010921803809119038F5F84
S113157080931903833018F40E945E075EC081E0F3
S11315800E94F2095AC09FB7F8948091AC129FBF91
S1131590813009F052C08AE101C087E20E94280329
S11315A04CC09FB7F89480910603811127C081E055
S11315B0809306031092190F9FBF9FB7F8948091F0
S11315C07A00806880937A009FBFCFB7F8948091A7
S11315D00C02813089F480910603813021F485E284
S11315E00E94280309C0823039F48091190F809336
S11315F00C0283E080930603CFBF1FC08091190FB4
S1131600882339F08091F21180FD03C081608093BA
S1131610F2119FBF12C08FB7F89491E090931F0806
S11316208FBF0E94590309C02FEFC21AD20A19961C
S113163026E0C216D10409F02BCF82E1DF91CF91CD
S11316401F910F91FF90DF90CF90BF90AF909F902C
S11316508F907F906F905F904F900C942803CF935E
S1131660DF931F92CDB7DEB789830E940E038FEB01
S11316700E94C20383E00E94C2030E940C0369819A
S11316808FE10F90DF91CF910C94F003FC01009750
S113169019F481E00C94F2093091EB0C9091EC0C6C
S11316A08091990C811124C04AE95CE041155105EF
S11316B0F9F026E0DA0101900D922A95E1F740E075
S11316C058E05093A10C4093A00C49EE5CE0509379
S11316D0A30C4093A20C892F90E0932B9093A50C1C
S11316E08093A40C81E08093990C80E10C942803EE
S11316F00895CF92DF92EF92FF928091E20C8111D4
S113170041C04091A6125091A7126091A812709105
S1131710A9122FB7F894C0902D12D0902E12E090F9
S11317202F12F09030128091DC0C9091DD0CA0917E
S1131730DE0CB091DF0C8C0D9D1DAE1DBF1D2FBFA7
S11317404093A6125093A7126093A8127093A91203
S11317501092E20C2FB7F89431E030932108809373
S1131760DC0C9093DD0CA093DE0CB093DF0C409363
S11317702D1250932E1260932F12709330122FBF9C
S11317800E946E040E948603FF90EF90DF90CF903A
S11317900C94340A882329F0813029F47298739ABE
S11317A002C07398729A82B182B981B111B87498E7
S11317B0759A0E94120382E090E00E94190780B19A
S11317C0079B0DC00E94100382E090E00E9419075D
S11317D00E94120382E090E00E941907F1CF0E9458
S11317E01003759881B18FEF81B90895CF93DF937A
S11317F01F92CDB7DEB70E94CA0B81B111B8749A9B
S1131800759A0E94120382E090E00E94190780B149
S11318100E94100382E090E00E9419070E941203C4
S113182082E090E00E94190780B189830E9410032E
S113183089810F90DF91CF910895CF93DF931F9209
S1131840CDB7DEB769830E94CA0B698162B981B1E1
S11318508FEF81B9749A75980E94120382E090E028
S11318600E9419070E94100380E00F90DF91CF912E
S11318700895CF93DF931F92CDB7DEB769830E949B
S1131880CA0B749875980E94120381B18FEF81B9C5
S1131890698162B982E090E00E9419070E941003F6
S11318A080E00F90DF91CF910895CF93DF93982F2D
S11318B0C62FD82FD295D695D695D37081E0D82748
S11318C09F73692F60648D2F0E94390C6C2F677091
S11318D0686B8D2FDF91CF910C94390C5F926F92CE
S11318E07F928F929F92AF92BF92CF92DF92EF92AC
S11318F0FF920F931F93CF93DF9390EE980F903640
S113190008F054C06B0190E0809725E0289F800187
S1131910299F100D1124045A1D4F912C89EF682E14
S11319206D0C55245394AA24A394B12CF92CFC0CCB
S1131930D62DF8017490F6FACC27C0F9C5258D2E62
S1131940869486948694FD2FF770EF2E682D8F2D44
S113195070FE0DC00E94550C8C2F0E94F60BB50131
S113196001C0660FEA94EAF7E82EE62A0DC00E9449
S1131970550C8C2F0E94F60B950101C0220FEA949E
S1131980EAF72095E82EE222682D8F2D0E94550C4F
S11319906E2D8C2F0E941D0C7694DF5FDD11CFCF4E
S11319A00F5F1F4F939485E09812C0CFDF91CF91C2
S11319B01F910F91FF90EF90DF90CF90BF90AF9069
S11319C09F908F907F906F905F900895EF92FF9219
S11319D00F931F93CF93DF9300D0CDB7DEB77C0175
S11319E0162F962F00E0F701E00FF11D8491882354
S11319F0B1F08A3011F08D3019F4485F912F0DC089
S1131A00893011F4965F09C09A5F692F742F498356
S1131A109A830E946E0C9A8149810F5FE4CF0F90E4
S1131A200F90DF91CF911F910F91FF90EF90089548
S1131A30FF920F931F93CF93DF93F62E8C01D42F35
S1131A40CF2DF80181918F01882379F08A3011F02C
S1131A508D3011F4D85FF4CF893011F4C65FF1CF23
S1131A60CA5FBE010E946E0CECCFDF91CF911F9133
S1131A700F91FF900895CF939FB7F894C0911F08DA
S1131A809FBF811115C048E260E086E892E00E94A1
S1131A90180DC63039F0C73029F0C53019F4CF918C
S1131AA00C9453038FB7F8948FBFCF910C945903C0
S1131AB0813011F484E001C085E080933A04CF9131
S1131AC00C944703CF93DF93C0E06C2F80E00E9417
S1131AD0550C6C2F80E40E94550CD0E060E080E04F
S1131AE00E941D0C60E081E00E941D0CDF5FD03875
S1131AF0A9F7CF5FC83049F780E0DF91CF9108950F
S1131B00CF93C091AC12813011F48FE11AC00E94BE
S1131B108C091092AF1282E20E942803C23059F05D
S1131B2020F4C13089F48AE10CC0C33039F0C630E6
S1131B3059F48DE106C0CF910C945603CF910C94C7
S1131B405003CF910C942803CF910895811110C0B4
S1131B508091BB009091A512E091E30CF091E40C0C
S1131B60E90FF11D80838091A5128F5F8093A512E8
S1131B702091A51280912008281788F430E090E085
S1131B8001972817390749F48091431382FD05C052
S1131B90809129128F7B809329120C94EA02809100
S1131BA02912282F2E7F9091431391FF0AC09D7F05
S1131BB090934313822F8061809329128091B900FE
S1131BC003C08E77809329120E94EA0281E08093F9
S1131BD0090380910D02811102C00C94800D0895B7
S1131BE0CF93C091AC12813011F481E214C00E94F1
S1131BF08C091092AF12C33089F038F4C13051F01F
S1131C00C23079F4CF910C945603C63050F410923C
S1131C10AC1207C08AE1CF910C942803CF910C94A5
S1131C205003CF9108958091A512909120088917AF
S1131C3080F4E091E30CF091E40CE80FF11D808155
S1131C408093BB008091A5128F5F8093A5120C94A2
S1131C50EA0280912912282F2E7F9091431391FF3D
S1131C6006C09D7F90934313822F806101C08E77BD
S1131C70809329120E94EA0281E0809309038091F3
S1131C800D02811102C00C94F00D08953F924F9201
S1131C905F926F927F928F929F92AF92BF92CF92F8
S1131CA0DF92EF92FF920F931F93CF93DF93CDB701
S1131CB0DEB7ED970FB6F894DEBF0FBECDBF90E050
S1131CC08832910510F00C94CC20FC01EE58FF4FA3
S1131CD00C948F278FB7F89410911E080091140864
S1131CE08FBF0E94620D4AE060E082E895E00E94A6
S1131CF0E60C812F90E0C0970A9778F4043068F4DA
S1131D008FB7F894E091140891E09E0F9093140813
S1131D10F0E0EC5EF74F11838FBF183071F40023AD
S1131D2061F08FB7F894E0911408E150E09314083F
S1131D30F0E0EC5EF74F11828FBF9FB7F89485E017
S1131D40E5E1F8E0DE01119601900D928A95E1F744
S1131D509FBF44E160E0CE0101960E94180D173642
S1131D6011F00C94CC204AE050E060E070E0CE0129
S1131D7001960E94C0282FB7F89433E030931F08CF
S1131D802FBF9B012B5633402E3C310538F081E0A8
S1131D9080933A040E9447030C94CC202FB7F89404
S1131DA070931B0860931A082FBF0E944A030C9477
S1131DB0CC208FB7F894E0901C08F0901D0891E0B7
S1131DC090931F088FBFC7010E94B404182FC70146
S1131DD06AE070E00E947B279F938F937F936F93B9
S1131DE089E892E09F938F937E012AE2E20EF11C30
S1131DF0FF92EF920E94CC2A0E94620D47E060E0BD
S1131E00C7010E94180D47E064E28EE795E00E9446
S1131E10E60C0FB6F894DEBF0FBECDBF1F30F0F551
S1131E2010934804E12EF12C1F921F938FE892E047
S1131E309F938F938E010D5C1F4F1F930F930E94EE
S1131E40CC2A1DAA47E06CE3C8010E94180D8BE35D
S1131E508E9DF0018F9DF00D1124E95BFB4F828173
S1131E600F900F900F900F900F900F908823B1F068
S1131E701F928F9383E992E09F938F931F930F9305
S1131E800E94CC2A1DAA47E06EE4C8010E94180DE6
S1131E900F900F900F900F900F900F904FE060E015
S1131EA08DE695E00E94E60C4FE060E084EC97E05C
S1131EB00E94180D4FE060E087E695E00E94E60C72
S1131EC04FE066E38EE098E00E94180D85E1EDECAA
S1131ED0F7E0DE01119601900D928A95E1F71E8AD2
S1131EE047E16AE781E595E00E94E60C47E16AE78D
S1131EF0CE0101960E94180D85E1E2EEF7E0DE01C5
S1131F00119601900D928A95E1F71E8A4FE16AE7D6
S1131F1081E595E00E94E60C4FE16AE7CE01019667
S1131F200E94180D85E1E7EFF7E0DE0111960190BC
S1131F300D928A95E1F71E8A47E26AE781E595E00A
S1131F400E94E60C47E26AE7CE0101960E94180D52
S1131F5081E00E947A080C94CC209FB7F894809179
S1131F60BF071091C0070091C1079FBF882389F064
S1131F704FE060E08DE695E00E94E60C4FE060E003
S1131F8084EC97E00E94180D8FB7F8941092BF0765
S1131F908FBF002389F04FE060E087E695E00E9460
S1131FA0E60C4FE066E38EE098E00E94180D8FB7D0
S1131FB0F8941092C1078FBF112311F40C94CC2014
S1131FC085E1EDECF7E0DE01119601900D928A9522
S1131FD0E1F71E8A47E16AE781E595E00E94E60C95
S1131FE047E16AE7CE0101960E94180D85E1E2EE11
S1131FF0F7E0DE01119601900D928A95E1F71E8AB1
S11320004FE16AE781E595E00E94E60C4FE16AE75B
S1132010CE0101960E94180D85E1E7EFF7E0DE019D
S1132020119601900D928A95E1F71E8A47E26AE7BC
S113203081E595E00E94E60C47E26AE7CE0101964D
S11320400E94180D8FB7F8941092C0078FBF0C949C
S1132050CC2080913B0490913C04891711F40C949A
S1132060CC202FB7F8949091AC122FBF911116C0C9
S11320704FB7F89435E03093AC12282F2F7080912D
S1132080590A90915A0A807F822B90935A0A80931E
S1132090590A3093A4124FBF0E944D0380913B0410
S11320A080933C040E9413050C94CC2080E00E9491
S11320B09D04882311F40C94CC200E9453030C94A7
S11320C0CC2081E00E949D04882311F40C94CC2040
S11320D085E00E9428030C94CC202FB7F8948091BB
S11320E01A0890911B082FBF3FB7F8942091AC12A7
S11320F03FBF21110C94251E9C012B5633402E3CCE
S1132100310510F00C94251E2FB7F89432E030936B
S1132110AC121092B11290931313809312132FBF29
S11321200E9456030C94CC200E9471060C94CC207F
S113213080E00E947A080E94620D4AE060E08AE42E
S113214095E00E94E60C80913A0444E160E081113C
S113215006C086E295E00E94E60C0C94CC208BE34A
S113216095E00E94E60C0C94CC2080E00E947A0852
S11321700E94620D4AE060E08AE495E00E94E60C69
S1132180E0913A048E2F90E0FC013197E930F1059B
S113219008F5E656FF4F44E160E00C948F2785E193
S11321A095E01CC082E095E019C081EF94E016C070
S11321B088EE94E013C08EED94E010C08AEC94E0B5
S11321C00DC087EB94E00AC082EA94E007C08FE870
S11321D094E004C044E160E08BE395E00E94E60CE7
S11321E04CEB52E060E070E085E00E9492030C94B6
S11321F0CC2089E0EAE2F2E0DE019A9601900D92A9
S11322008A95E1F79FB7F894E0911E0880911F0822
S11322109FBF90911F08913009F0CDC1E93609F4B0
S11322205BC100F5E13609F44EC0A8F4EC3209F4C0
S113223005C1EE3209F090C180E00E947A080E9444
S1132240F4048FB7F89494E090931F088FBF0E9412
S113225053030C94CC20E63609F443C0E83609F461
S113226078C07AC1E03709F4F9C070F4EC3609F4A7
S11322709CC0EF3609F070C1BE01665D7F4F8FEFE1
S11322800E9444050C94CC20E33709F4C2C0E4371F
S113229009F062C180E00E947A080E94F4048FB7BA
S11322A0F8941092140895E0E5E1F8E0DF011D923E
S11322B09A95E9F792E090931F088FBF80E00E94FF
S11322C028030C94CC2080E00E947A088FB7F894FD
S11322D096E090931F088FBF87E00E9428030C9418
S11322E0CC208FB7F89497E090931F088FBF80910C
S11322F03D04893038F52FB7F89480911C089091EB
S11323001D082FBF0E94B4048F30A8F490913D049F
S11323104EE354E0FA012E2F241B291710F00C94DD
S1132320281E21912813F7CF89E080933A040E9454
S113233047030C94CC2088E080933A040E9447031E
S11323400C94CC2083E080933A040E9447030C94BD
S1132350CC2080914704882311F40C94CC2080E095
S11323600E947A080E94F40480914804811102C0FA
S1132370809147048150809348048FB7F89493E088
S113238090931F08E09148049BE3E99FF001112416
S1132390E95BFB4F2381348130931B0820931A0897
S11323A08FBF0E944A030C94CC2080914704882359
S11323B011F40C94CC2080E00E947A080E94F4046A
S11323C020914804422F50E08091470490E0019707
S11323D04817590719F41092480403C02F5F20933B
S11323E048048FB7F89493E090931F08E091480451
S11323F0ABE3EA9FF0011124E95BFB4F23813481B5
S113240030931B0820931A088FBF0E944A030C9430
S1132410CC2080E00E947A080E94F4048FB7F894DC
S113242095E090931F082BE633E030931B0820932C
S11324301A088FBF0E944A030C94CC2080E00E94AB
S11324407A080E94F4048FB7F89494E090931F08DC
S11324508FBF85E00E9428030C94CC209FB7F8948A
S1132460809139049FBF81110C94CC208FB7F894CC
S113247095E0909339048FBF49E050E063E774E03E
S1132480FE0131967F01CF010E94152A05E313E076
S113249080E8D8011D928A95E9F7FF92EF9287E9C7
S11324A092E09F938F931F930F930E94CC2AF8017D
S11324B001900020E9F78F01065313401093340371
S11324C0009333030E945C030F900F900F900F90C2
S11324D00F900F900C94CC209FB7F89480913904FE
S11324E09FBF81110C94CC208FB7F89493E0909304
S11324F039048FBF1092370445E050E06CE774E074
S1132500FE0131967F01CF010E94152A05E313E0F5
S113251080E8D8011D928A95E9F7FF92EF9287E946
S113252092E09F938F931F930F930E94CC2AF801FC
S113253001900020E9F78F010653134010933403F0
S1132540009333030E945C030F900F900F900F9041
S11325500F900F900C94CC208FEC8E0F893010F0DC
S11325600C94CC20E053F0E0E35CFB4F10811F306F
S1132570D8F480E00E947A080E94F4048FB7F8949B
S113258093E090931F08BBE31B9FF0011124E95BC8
S1132590FB4F2381348130931B0820931A088FBF8B
S11325A00E944A030C94CC2087E080933A040E9452
S11325B047030C94CC20823011F00C94CC2080E0A2
S11325C00E9428030C94CC2082E00E949D040C9469
S11325D0CC200E94620D4AE060E08CE992E00E9407
S11325E0180D0C94CC204091330350913403809106
S11325F0DD0F81112BC08EED9FE0892B39F185E32E
S113260093E09093E70F8093E60F80EC8093DE0FC6
S113261088EA8093DF0F8AE28093E00F81E0809361
S1132620E10F20E533EC3093E30F2093E20F309376
S1132630E50F2093E40F5093E90F4093E80F809344
S1132640DD0F89E10E9428030C94CC200E945C03D6
S11326500C94CC209FB7F894809139049FBF8330A9
S113266009F443C0843009F484C0823009F061C1A4
S1132670CE018A960E943007882309F45AC142E0A9
S113268050E06CE874E087EB93E00E94072A2AA5E7
S11326903BA5892BA1F4AE014F5F5F4F6FEA72E057
S11326A0C9010E94682A4AE050E060E070E0898134
S11326B09A810E94C0286F3048F480E008C06FE619
S11326C074E0C9010E94242A009721F482E00E9448
S11326D03B0D2FC14FE050E06BE574E004960E947F
S11326E0072A892B99F781E0F2CF8091B9038A30C8
S11326F039F44CE360E083E692E00E94180D19C1BE
S1132700CE018A960E943007882309F412C11092E0
S1132710220310922303AE014F5F5F4F61EB72E01F
S11327208AA59BA50E94682A0097D1F04AE050E050
S113273060E070E00E9495276F3050F4E09122032E
S113274081E08E0F80932203F0E0EE5DFC4F628304
S1132750AE014F5F5F4F61EB72E080E090E0E2CF4B
S113276080912203882309F4E4C081E08093380433
S1132770DDC0CE01CC960E943007882309F4D2C074
S1132780AE01465D5F4F6FEA72E08CAD9DAD0E9475
S1132790682A8C01009709F4BBC0B3EB8B2EB2E01E
S11327A09B2E88E0382E3E01E3E36E0E711C4AA492
S11327B05BA442E050E068E574E0C8010E94072A87
S11327C0892B61F44AE050E060E070E0C2010E94AD
S11327D0C0286F3008F09CC0F62E8DC044E050E055
S11327E063E574E0C8010E94072A892B81F44AE05A
S11327F050E060E070E0C2010E94C0289B012B56AB
S113280033402E3C310508F083C06B0174C046E0B0
S113281050E06CE474E0C8010E94072A892B49F453
S11328204AE050E060E070E0C2010E94C0285B0111
S113283062C045E050E066E474E0C8010E94072AE3
S1132840892B71F44AE050E060E070E0C2010E941C
S1132850C0288FEF860F893008F05AC0E62E4BC08F
S113286044E050E061E474E0C8010E94072A892B27
S113287039F55F924F929F928F921F923F927F926F
S11328806F920E948F2A1CAEEAA5FBA5CF01089681
S11328909BA78AA70FB6F894DEBF0FBECDBF808575
S11328A08C32B1F5CF0109969BA78AA76CE270E040
S11328B00E944E2A009761F101969BA78AA71BC02C
S11328C044E050E06CE374E0C8010E94072A892BBD
S11328D091F448E250E0B201CE0101960E94592AD7
S11328E06D961FAE6D978E010D5C1F4F9501A6016D
S11328F06E2D8F2D15C0AE01465D5F4F6FEA72E0FD
S113290080E090E00E94682A8C01009709F04FCF84
S11329100FA518A92DA53EA54BA55CA56AA58EEF0C
S11329200E94B72480913804882319F08FE00E9414
S113293028038FB7F894109239048FBF0C94CC20DD
S113294040912303242F30E08091220390E0821BE6
S1132950930B181619060CF053C04F5F40932303D2
S1132960F901EE5DFC4FB2809FB7F8948091390471
S11329709FBF81110C94CC208FB7F89494E090936E
S113298039048FBF44E050E06BE674E0DE01119639
S11329907D01CD010E94152A6E01BAE2CB0ED11C35
S11329A043E050E068E574E0C6010E94152A05E39F
S11329B013E080E8F80111928A95E9F71F92BF921B
S11329C0DF92CF92FF92EF9288EB92E09F938F93E6
S11329D01F930F930E94CC2AF80101900020E9F77D
S11329E08F010653134010933403009333030E9462
S11329F05C030FB6F894DEBF0FBECDBF0C94CC20A1
S1132A001092380410922203109223038FB7F89483
S1132A10109239048FBF4CE360E083E692E00E9499
S1132A20180D0C94CC2080911C0381110C94CC20A3
S1132A3080911D038F5F817080931D03EDE0E89FFB
S1132A40D0011124A756B34F9C91913011F40C94EA
S1132A503D1E8F5F817080931D03E89FF001112458
S1132A60E756F34F8081813011F00C94CC200C9404
S1132A703D1E0E94790B0C94CC200E9486032FB734
S1132A80F894109221082FBFE3EFF1E110E0442401
S1132A904A94542C642CAFE77A2E20E030E009E00D
S1132AA0029FA001039F500D1124DA01AD50BE4EC8
S1132AB018964C9141FF1AC0C080D180E280F38007
S1132AC04B015C018C189D08AE08BF08C480D580FA
S1132AD0E680F780C818D908EA08FB08C414D504AE
S1132AE0E604F7041CF42601370111E02F5F3F4F81
S1132AF0399626303105A1F6112311F40C94CC201B
S1132B00141415041604170424F00E94340A0C94B7
S1132B10CC204092A6125092A7126092A8127092F2
S1132B20A91221E02093E20C3FB7F89420932108E6
S1132B306093DC0C7093DD0C8093DE0C9093DF0CBF
S1132B4040922D1250922E1260922F1270923012D7
S1132B503FBF0E946E040C94CC2080911603811117
S1132B600C94CC208091170390E0019681709927F2
S1132B70809317032DE1289FF001299FF00D112464
S1132B80E759FD4E3081313011F40C94951E0196B5
S1132B908170992780931703289FF001299FF00DD6
S1132BA01124E759FD4E8081813011F00C94CC2022
S1132BB00C94951E8091140381110C94CC20E09107
S1132BC01503EF5FE170E0931503AE2FB0E0F3E07F
S1132BD0AA0FBB1FFA95E1F7AB5FB04F8C91813020
S1132BE011F40C94D71EEF5FE170E0931503F0E04D
S1132BF073E0EE0FFF1F7A95E1F7EB5FF04F8081F2
S1132C00813011F00C94CC200C94D71E80911203C7
S1132C1081110C94CC20809113038F5F8170809379
S1132C201303EBE0E89FD0011124AF5CBD4E9C91EF
S1132C30913011F40C94E91F8F5F8170809313031A
S1132C40E89FF0011124EF5CFD4E8081813011F08A
S1132C500C94CC200C94E91F81E080930E030E9415
S1132C60EE080C94CC208FB7F8941092230810929D
S1132C7022081092E10C1092E00C109210131092A2
S1132C800F1310921E0F10921D0F8FBF0C94CC20A7
S1132C908FB7F89492E090930D038FBF8091110247
S1132CA081110C94CC200E940C038091110381307B
S1132CB021F0823009F498C037C26FEF8FEF0E9481
S1132CC0C4038DE10E94DA0380FFFBCF80E00E9401
S1132CD02F0B60E076E088E00E94BF0880E096E079
S1132CE0909315028093140260E076E08CE00E94D9
S1132CF0BF086FEF7FE18AE00E94BF0860E070E0E8
S1132D0084E00E94BF0860E88EE50E94C40381E06D
S1132D100E942F0B61EA88E50E94C40382E00E94AE
S1132D202F0B60E081E40E94C40361E080E40E9410
S1132D30C40363E382E40E94C40360E083E40E946A
S1132D40C4036AE272E08AE00E94BF0865E184E499
S1132D500E94C403909128028091290290931B023F
S1132D6080931A0283E00E942F0B60911B0281E47E
S1132D700E94C40360911A0280E40E94C40360911B
S1132D80190283E40E94C4036091180282E40E9441
S1132D90C4036091170285E40E94C4036091160283
S1132DA084E40E94C40382E00E942F0B64E184E562
S1132DB00E94C40360E471E086E10E94BF0862E1FE
S1132DC084E50E94C40362E170E086E10E94BF08CA
S1132DD060ED8BE50E94C40364E08FE10E94F00380
S1132DE082E080931103A0C180910E03882301F136
S1132DF010920E038CE10E94DA03182F84FD0E94C6
S1132E008D2481E00E942F0B89E10E94DA0388233C
S1132E1019F081E080930F0310FF0AC00E940E0393
S1132E208CEB0E94C20381E00E94C2030E940C0347
S1132E30809110038130E1F580E00E942F0B60E067
S1132E4070E082E00E94BF0860E08AE70E94C40349
S1132E5000E010E06091E50C7091E60C061717078E
S1132E6068F4E0914712F0914812E00FF11F60817D
S1132E708AE70E94C4030F5F1F4FECCF86E00E94D5
S1132E80BF0868E08FE10E94F003109210031092D3
S1132E901C0380911D036DE0869FF0011124E75609
S1132EA0F34F108260E00E941C0A80E10E94280314
S1132EB080910F03813009F037C180E00E942F0B0D
S1132EC0609114027091150280E00E94BF088AE3A9
S1132ED00E94DA0390E090931502809314028AE32F
S1132EE00E94DA032091140230911502382B30939A
S1132EF01502209314028AE30E94DA03082F10E0DB
S1132F008AE30E94DA03182B8AE30E94DA038AE335
S1132F100E94DA03C8010F978B31924090F444E287
S1132F20E42E48E0F42E8AE30E94DA03F701819349
S1132F307F01CF018452984080179107A0F310E0DD
S1132F4001C011E060911402709115028CE00E949E
S1132F50BF0860E48EE10E94F00310920F03111188
S1132F60E3C08091300890E0982F882720913108A1
S1132F70822B8115F8E09F0729F08630984009F4E8
S1132F8072C0D2C082E398E09093AB128093AA12ED
S1132F908091420890914308A0914408B09145085B
S1132FA000912402109125022091260230912702DB
S1132FB080179107A207B30739F140911C02509181
S1132FC01D0260911E0270911F026A017B01C09470
S1132FD0D094E094F0944601570188229922AA22C1
S1132FE0BB228C149D04AE04BF0409F09DC080274D
S1132FF09127A227B32784239523A623B723892BBC
S11330008A2B8B2B09F090C080913B08813109F009
S11330108BC000914A0810E0102F002780914B08C4
S1133020082B085011098091480890E0982F8827B0
S113303020914908822B8035934C09F075C00138E2
S1133040110510F000E810E0A8016EE478E087EBC9
S113305093E00E943E2A1093B6030093B5038EE0DA
S11330600E94280361C08091380890E0982F882737
S113307020913908822B8130910519F00297F1F0E3
S113308053C0409124025091250260912602709110
S1133090270280914A0890914B08A0914C08B09166
S11330A04D08481759076A077B07F1F540E458E0D3
S11330B06AE378E082E00E94070436C08091180336
S11330C0813091F580911A03AAE08A9FC0011124EE
S11330D0FC01E55EFC4E409140085091410860912E
S11330E04208709143084083518362837383DC01F7
S11330F0A15EBC4E26E0EAE3F8E001900D922A9529
S1133100E1F72091FB112D7F2093FB1110921803FE
S1133110815E9C4E0E94460B80911A0390E00196BA
S11331208370992780931A031FB7F89480910D0335
S11331308230B9F480911102811113C0809113027D
S11331408F3F59F00E9462248093110281E08093A2
S11331500D0388E10E94280304C080931102109299
S11331600D031FBF9FB7F89480910D03882311F4BA
S11331700C9469209FBF1FB7F8944A9903C086E155
S11331800E9428031FBF0C94CC2080910B03811153
S11331900C94CC2010920C03F090DD0FB1E0FB12E4
S11331A00C94CC209BC79FB7F8948091B0129FBF1A
S11331B0811110C05A9A48EE53E060E070E082E05A
S11331C00E9492038FB7F89491E09093B0128FBF4E
S11331D00C94CC20813051F48FB7F89492E0909302
S11331E0B0128FBF0E945F030C94CC208230D1F4C4
S11331F02FB7F89480915D0A90915E0A906890933D
S11332005E0A80935D0A10926E0A10926D0A8FE036
S11332108093A41283E08093B0122FBF0E944D03C9
S11332200C94CC20833071F48FB7F89494E090938D
S1133230B0128FBF4EEE52E060E070E082E00E9478
S11332409203AAC7843091F48FB7F89421E030E454
S11332503093540A2093530A92E09093A41295E079
S11332609093B0128FBF0E944D0396C7853071F4BE
S11332708FB7F89496E09093B0128FBF46E950E070
S113328060E070E082E00E94920386C7863049F4D1
S11332908FB7F89497E09093B0128FBF0E945F03AA
S11332A07BC7873009F03EC02FB7F8948091510A4C
S11332B09091520A2FBF8335924159F08FB7F894F9
S11332C01092AC128FBF10923A0488E00E94280337
S11332D063C72FB7F8948091570A9091580A837363
S11332E09772846098649093580A8093570A80E197
S11332F099E190935A0A8093590A80915B0A9091BC
S11333005C0A88279E7F8F6490935C0A80935B0A93
S113331086E08093A41288E08093B0122FBF0E94AD
S11333204D033AC7883009F037C78FB7F894109225
S1133330AC128FBF0E948603609317127093181209
S11333408093191290931A1284E690E0A0E0B0E002
S113335080931B1290931C12A0931D12B0931E1203
S113336080911F128E7F826080931F1282E10E94DF
S113337028038FB7F89491E090931F088FBF8CE0D7
S11333800E94280309C79FB7F8948091B1129FBF88
S1133390811122C02FB7F8948091121390911313C6
S11333A08B569340937090689093560A8093550A75
S11333B08091570A9091580A9F7690649093580A86
S11333C08093570A84E08093A41281E08093B11221
S11333D02FBF0E944D03E0C6813051F48FB7F8949B
S11333E092E09093B1128FBF88E08CBBEB9AD4C665
S11333F0823049F48FB7F89493E09093B1128FBF61
S11334000E945F03C9C6833041F52FB7F8948091B9
S1133410650A9091660A937085599C4F90931A138C
S1133420809319138091550A9091560A9F7790932F
S1133430560A8093550A8091570A9091580A9F7BA7
S11334409093580A8093570A84E08093A41280933F
S1133450B1122FBF0E944D039FC6843049F48FB729
S1133460F89495E09093B1128FBF0E945F0394C6C5
S1133470853009F091C62FB7F8948091630A909132
S1133480640A88279074892F99272FBF892B81F587
S11334902091191330911A139FB7F89430931D0893
S11334A020931C0880911F089FBF833029F085302A
S11334B019F40E94530302C00E9459038FB7F89471
S11334C09FE09093BD128FBF8091B412882351F076
S11334D08FB7F89494E09093AC128FBF81E00E9470
S11334E034085AC68FB7F8941092AC128FBF54C6E2
S11334F08FB7F89494E09093B1128FBF0E94560353
S11335004BC69FB7F89410911C0F8091B2129FBFC5
S113351081113FC02FB7123061F4F8948091530A9F
S11335209091540A95609093540A8093530A2FBF44
S11335300EC0F8948091530A9091540A9A7F916036
S11335409093540A8093530A2FBF11111DC62FB7AD
S1133550F8948091530A9091540A92609093540A7B
S11335608093530A2FBF2FB7F8948091570A9091F4
S1133570580A9F7690649093580A8093570A84E07F
S11335808093A41281E08093B2122FBF0E944D0356
S113359003C6813051F48FB7F89492E09093B2123D
S11335A08FBF88E08CBBEB9AF7C5823049F48FB7A4
S11335B0F89493E09093B2128FBF0E945F03ECC51E
S11335C0833081F52FB7F8948091630A9091640A4F
S11335D08827907290931F038091650A9091660AE0
S11335E0937085599C4F90931A138093191380916B
S11335F0530A9091540A9E7F9093540A8093530ADD
S11336008091570A9091580A9F7B9093580A80930F
S1133610570A84E08093A4128093B2122FBF0E94B1
S11336204D03BAC5843049F48FB7F89495E090936C
S1133630B2128FBF0E945F03AFC5853009F0ACC5DD
S11336402FB7F8948091630A9091640A8827907444
S1133650892F99272FBF892B09F045C080911F031B
S1133660811129C08091191390911A130E9418088E
S11336708FB7123039F4F8941092B2128FBF0E94AF
S113368050038AC5F8949FE09093BD128FBF809138
S1133690B412882351F08FB7F89494E09093AC124D
S11336A08FBF81E00E94340877C58FB7F8941092D9
S11336B0AC128FBF71C58FEF9FEF0E9418088091E5
S11336C0B412882351F08FB7F89494E09093AC121D
S11336D08FBF81E00E9434085FC58FB7F8941092C1
S11336E0AC128FBF59C58FB7F89494E09093B2127F
S11336F08FBF0E94500350C58FB7F8946091B312E6
S11337008FBF611109C08FB7F89491E09093B31201
S11337108FBF0E945F0340C5613009F03DC54FB7BC
S1133720F894E091670AF091680A8091690AA0917F
S11337306A0A90916B0A70916C0A20916D0A30911B
S11337406E0A4FBF4A2F46954695469550E0443041
S1133750510509F460C024F44230510550F00EC103
S11337604530510509F484C04830510509F4BCC002
S113377005C14FB7F894F093C612E093C712837053
S1133780E82FF0E0EE0FFF1FE654FD4E348325834F
S113379021E030E0D90102C0AA0FBB1F8A95E2F7ED
S11337A0CD019091BA12892B8093BA124FBF8F30FA
S11337B009F0E4C089E0E4ECF7E0DF011D928A95AA
S11337C0E9F788E0EEEBF2E1A4ECB7E001900D92AA
S11337D08A95E1F72FB7F8946093BE076093BF070B
S11337E08091C61290E0982F88273091C712832BBE
S11337F09093C3078093C2072FBF82E00E942803DF
S113380048E050E060E270E08EEB92E10E94472ACB
S11338101092BA12B3C08F70FFB6F894B4E08B9FC5
S1133820A00111248A0106541D4EF8017687BA01BD
S113383065547D4EDB011E969C93DA01A454BD4E63
S11338401E963C931E9743545D4EFA012687FFBE95
S1133850F80196859D3021F1FB0196859D3001F19B
S11338601E969C919D30E1F0DA011E969C9116C043
S11338708F709FB7F894E82FF0E0EE0FFF1FDF0181
S1133880A654BD4E1E963C931E97E554FD4E2687C6
S11338909FBF1E969C919D3019F096859D3011F422
S11338A08093BD129FB7F8948091BB128F5F809371
S11338B0BB129FBF8FB7F89491E09093C0078FBF5E
S11338C081E4EDECF7E0DF011D928A95E9F780E4ED
S11338D0E8ECF2E1ADECB7E001900D928A95E1F7E6
S11338E082E00E9428034AC0892F82958071932F19
S11338F092959F70892BA90136E0569547953A9584
S1133900E1F74F73922F9F71969525FF02C0891B93
S113391001C0890F0FB7F894E8E0F3E116E0DF0186
S1133920212F1D922A95E9F71F924F931F928F938F
S113393082EC92E09F938F93FF93EF930E94CC2AA3
S11339400FBF8FB7F89491E09093C1078FBFEEE05B
S1133950F8E0DF01212F1D922A95E9F7E8E0F3E171
S1133960AEE0B8E001900D921A95E1F782E00E9472
S113397028030FB6F894DEBF0FBECDBF8091B412FA
S113398081110CC08FB7F89494E09093AC1210920C
S1133990B3128FBF80E00E943408FEC38FB7F8943F
S11339A01092AC121092B3128FBFF6C39FB7F89463
S11339B08091AF129FBF882319F00E945F03ECC36C
S11339C08FB7F89491E09093AF128FBF0E946E0767
S11339D0E3C30E94D607E0C30E949108DDC39FB7EA
S11339E0F8948091A4129FBF9FB7F89420910D0280
S11339F0211136C09FBF9FB7F8942091090321304D
S1133A0079F522E0209309039FBF9FB7F89420E142
S1133A1030E030931B0F20931A0F29E432E13093E6
S1133A20E40C2093E30C880F82508093200883E0F9
S1133A30809343131092A512109208039FBF0E9413
S1133A407E031FB7F894809129128F7E816E809334
S1133A50291284E0809309030E94EA021FBF9CC3D9
S1133A609FBF81E20E94280397C30E94EF0294C380
S1133A708FB7F8949091A31290930E0293E09093D1
S1133A800A038FBF80910E029FB7F89480930D02B2
S1133A909FBF811181C39FB7F8948091AF129FBFDC
S1133AA0813031F0823041F481E20E94280374C3F2
S1133AB08FE10E94280370C30E948C096DC31FB755
S1133AC0F89480910803882321F081E00E94A60DD8
S1133AD002C00E94130E1FBF5FC38FB7F89490916A
S1133AE0190F90930C0293E0909306038FBF80917B
S1133AF00C02811101C0809880910C0281114CC389
S1133B0081E08093BC0F10920E130E94400944C3BD
S1133B101092BC0F00912B1210912C1280910E1355
S1133B2081113AC3FFB6F89480910603833009F0FB
S1133B303EC080910C0281113AC08091F211882319
S1133B4009F417C36091070370E0CB010196A1E06B
S1133B50B0E08130910511F480E090E0E82FE69523
S1133B60E695E695F0E0EE50FE4E2081382F377052
S1133B70AD0101C0440F3A95EAF7322F342331F0F6
S1133B804095242320838093070306C08617970754
S1133B9011F00196DECF8FEF8093190F8FEF809392
S1133BA00C0281E08093060385E20E942803FFBE95
S1133BB096E0169507959A95E1F700933B0483E008
S1133BC00E942803E9C280911F0F8130E1F460E074
S1133BD080E80E94E00888E290E00E94190700E073
S1133BE010E0F801E354F04F61E080810E94E008A6
S1133BF088E290E00E9419070F5F1F4F0031110502
S1133C0081F710921F0F8091200F813009F0C4C2F8
S1133C1060E080EC0E94E00888E290E00E941907CE
S1133C2000E010E0F801E353F04F61E080810E946E
S1133C30E00888E290E00E9419070F5F1F4F0031EF
S1133C40110581F71092200FA7C20E944A03A4C253
S1133C50E92FF0E0E35CFB4F81839F5F90933D0489
S1133C60ABE38A9FB0011124FB01E95BFB4F928314
S1133C70675B7B4F0E9444058FC2E0911D03BDE04A
S1133C80EB9FC0011124FC01E656F34F26E0AFE69A
S1133C90BAE001900D922A95E1F726E0E6E1F2E020
S1133CA0A5E7BAE001900D922A95E1F7FC01E756E9
S1133CB0F34F9781808590937C0A80937B0A0385D8
S1133CC0148561857285A8018DE79AE00E943E2AD9
S1133CD08091100381111AC0809111038230B1F4D4
S1133CE00E94EE08811114C08FE69AE09093481266
S1133CF080934712025F1F4F1093E60C0093E50C6C
S1133D0081E08093100380931C0346C265E001C0E8
S1133D1067E080911D032DE0829FF0011124E75696
S1133D20F34F10820E941C0A37C280911703282F78
S1133D3030E06DE1869FF0011124AF0146595D4EDC
S1133D409091A60C911126C067EA7CE0611571057B
S1133D5009F1E458FD4E86E0DB0101900D928A954D
S1133D60E1F786E098E09093AE0C8093AD0C50930D
S1133D70B00C4093AF0C8CE190E09093B20C809324
S1133D80B10C11E01093A60C80E10E94280310935B
S1133D90160302C29DE1929FF001939FF00D11243E
S1133DA0E759FD4E108265E00E94090AF5C1F090C2
S1133DB0150385E48093E90C1092EA0C86E680935F
S1133DC0EE0C8093ED0C1092F00C1092EF0C8FEF30
S1133DD08093F10C88E0F89E80011124D801AB5F38
S1133DE0B04F6D0116964D915C911797CA01449698
S1133DF08093EC0C9093EB0C1196ED91FC9112973F
S1133E0080819181A281B3818093F90C9093FA0C03
S1133E10A093FB0CB093FC0C80912402909125029A
S1133E20A0912602B09127028093F50C9093F60C92
S1133E30A093F70CB093F80CF601648175818DEFB3
S1133E409CE00E943E2AD60113968C918093F20C3A
S1133E501092F40C1092F30CE9EEFCE080E090E098
S1133E60DC0121913191820F931FA11DB11D2CE022
S1133E70ED3FF207B1F7AD016627772741155105EC
S1133E806105710539F0AA27BB27840F951FA61F6A
S1133E90B71FF1CF80959095A095B0959093F40CB1
S1133EA08093F30C80911C0290911D02A0911E023C
S1133EB0B0911F028090F90C9090FA0CA090FB0C2A
S1133EC0B090FC0C4091F50C5091F60C6091F70CFD
S1133ED07091F80C482559256A257B2548235923D8
S1133EE06A237B23452B462B472B19F4E9EFFCE08F
S1133EF002C0E0E2F2E080809180A280B3808095ED
S1133F009095A095B095AC01BD01482159216A2135
S1133F107B21481759076A077B0719F480E092E070
S1133F202DC050911B0344E06AE0252F30E0629FCE
S1133F30C001639F900D1124DC01A55EBC4E4D9021
S1133F405D906D907C90481459046A047B0429F4B4
S1133F5050931B03815E9C4E0BC0C9010196837074
S1133F609927582F415009F780931B0380E090E074
S1133F709093210380932003009719F00E94460B2D
S1133F8014C080911803811114C080819181A28191
S1133F90B3818093141390931513A0931613B093C5
S1133FA01713109219030E945E0781E08093140393
S1133FB0F3C0F801EB5FF04F1082F11003C00E94D0
S1133FC02207EAC0B1E0FB12E7C085E00E94DF09E6
S1133FD0E3C0E0911303EE2EF12C2BE0E29FF001FD
S1133FE01124EF5CFD4E418552858A010C5F1F4F01
S1133FF085818093220F86818093230F678170854A
S113400086E29FE00E943E2A1092250F1092240F10
S1134010A80156954795E2E2FFE020E030E080E019
S113402090E0DC012417350749F061917191860F06
S1134030971FA11DB11D2F5F3F4FF4CFAD01662720
S11340407727411551056105710539F0AA27BB276A
S1134050840F951FA61FB71FF1CF80959095A0954B
S1134060B0959093250F8093240F8091050F8111B3
S113407026C086E09FE0892B11F12BE02E9DC00124
S11340802F9D900D11248E5C9D4E9093070F80936D
S1134090060FFF24F394F092080F82E29FE09093BE
S11340A00A0F8093090F10930C0F00930B0FF092DB
S11340B0050F84E10E942803F09212036DC08BE087
S11340C08E9DF0018F9DF00D1124EF5CFD4E10824A
S11340D063C08CB58F7B8CBD0C94BA189091E20FA1
S11340E08091E30F9093EB0F8093EA0F9091E40F8C
S11340F08091E50F9093ED0F8093EC0F4091E80FC2
S11341005091E90F8A01085F1F4F0093EF0F10933E
S1134110EE0F6091E60F7091E70F82EF9FE00E942F
S11341203E2A80910D0F81111FC08EE09FE0892BE4
S1134130D9F08EED9FE090930F0F80930E0F81E1E5
S11341408093100F8AEE9FE09093120F8093110FCB
S11341501093140F0093130FF0920D0F84E10E943B
S11341602803F0920B0318C01092DD0F0E945C0329
S113417013C081E080930C021092060380917A00B0
S11341808F7780937A0013CD2FB7F8948091530AD8
S11341909091540A9D7FE2C9ED960FB6F894DEBF64
S11341A00FBECDBFDF91CF911F910F91FF90EF9084
S11341B0DF90CF90BF90AF909F908F907F906F9043
S11341C05F904F903F900895CF93DF931F92CDB7A8
S11341D0DEB789830E947E03909129129A7F90937F
S11341E029120E94EA020E947E039091291294608F
S11341F0909329120E94EA0291E09093090320917E
S1134200080390910D028981222339F091110CC089
S11342100F90DF91CF910C94800D911105C00F90F8
S1134220DF91CF910C94F00D0F90DF91CF91089511
S11342308FB7F89408958FBF08951F920F920FB609
S11342400F9211240BB60F922F933F934F935F93CA
S11342506F937F938F939F93AF93BF93EF93FF934A
S11342602FB7F8948091150F9091160FA091170F06
S1134270B091180F0196A11DB11D8093150F909355
S1134280160FA093170FB093180F2FBF78940E94A6
S11342906E04FF91EF91BF91AF919F918F917F91A8
S11342A06F915F914F913F912F910F900BBE0F90A3
S11342B00FBE0F901F9018951F920F920FB60F927A
S11342C011240F900FBE0F901F9018951F920F92FC
S11342D00FB60F9211240BB60F92CF92DF92EF928A
S11342E0FF920F931F932F933F934F935F936F937B
S11342F07F938F939F93AF93BF93CF93DF93EF936A
S1134300FF932EB5E0912208F0912308309739F0FD
S113431080911D0F90911E0FE80FF91F208380914B
S11343201D0F90911E0F019690931E0F80931D0FE9
S11343308CB58F778CBDC0911D0FD0911E0F20912D
S11343400F1330911013C217D307D8F50091E00C66
S11343501091E10CC0902208D0902308CE010A9657
S11343602817390708F4C9017C0121E0E21AF10891
S1134370CE15DF05A0F40115110529F0F801EC0FA5
S1134380FD1F808101C080E00E94BC03C114D104E0
S113439021F0F601EC0FFD1F80832196E9CF8CB547
S11343A080688CBD0115110531F0F801EC0FFD1F7B
S11343B080818EBD01C01EBCD0931E0FC0931D0F03
S11343C011C010922308109222081092E10C10924E
S11343D0E00C1092101310920F1310921E0F1092F3
S11343E01D0F8EB5FF91EF91DF91CF91BF91AF91EA
S11343F09F918F917F916F915F914F913F912F91F9
S11344001F910F91FF90EF90DF90CF900F900BBE14
S11344100F900FBE0F901F9018951F920F920FB61A
S11344200F9211240F900FBE0F901F9018951F929A
S11344300F920FB60F9211240F900FBE0F901F9082
S113444018951F920F920FB60F9211240BB60F926C
S11344502F933F934F935F936F937F938F939F9388
S1134460AF93BF93EF93FF9386E10E942803FF91DC
S1134470EF91BF91AF919F918F917F916F915F91D8
S11344804F913F912F910F900BBE0F900FBE0F9045
S11344901F9018951F920F920FB60F9211240BB60E
S11344A00F922F933F934F935F936F937F938F93C9
S11344B09F93AF93BF93EF93FF938091AC1282309D
S11344C029F0833041F0811116C00AC00E942603EE
S11344D00E94560312C00E9426030E9450030DC07E
S11344E08091B412882349F086E08093AC128DE168
S11344F00E94280302C00E942603FF91EF91BF91FE
S1134500AF919F918F917F916F915F914F913F9167
S11345102F910F900BBE0F900FBE0F901F90189508
S11345201F920F920FB60F9211240F900FBE0F908F
S11345301F9018951F920F920FB60F9211240F908F
S11345400FBE0F901F9018951F920F920FB60F92E7
S113455011240F900FBE0F901F9018951F920F9269
S11345600FB60F9211240F900FBE0F901F90189545
S11345701F920F920FB60F9211240BB60F922F9326
S11345803F934F935F936F937F938F939F93AF93D7
S1134590BF93EF93FF930E947E038091B900982FFD
S11345A0987F20910903243079F1263021F02330BB
S11345B009F04DC013C080910803813049F4903450
S11345C029F483E08093090381E010C084E016C0DD
S11345D09831E1F783E08093090313C02091080325
S11345E0213039F4807F803541F480E00E94A60DAB
S11345F02EC0983231F0903321F081E00E94E42003
S113460026C00E94130E23C0809143138E7F809393
S11346104313809129128F7D983029F0903119F03D
S113462080932912EACF80648093291291E08091CB
S11346300803813009F090E080911A0F880F892BCC
S11346408093BB0086E0809309030E94EA02FF91F5
S1134650EF91BF91AF919F918F917F916F915F91F6
S11346604F913F912F910F900BBE0F900FBE0F9063
S11346701F9018951F920F920FB60F9211240BB62C
S11346800F922F933F934F935F936F937F938F93E7
S11346909F93AF93BF93EF93FF9390910601809103
S11346A0E80C97FD11C08350883008F07EC08091DB
S11346B01E03869580931E039091060196FF75C094
S11346C0806880931E0371C081508093E80C81112F
S11346D06CC080911E03803E09F464C09091B812AE
S11346E0911158C0893549F0803F19F0823149F45D
S11346F004C081E08093B81255C081E08093DB0C44
S113470051C09091DB0C60E091111FC091E4262F01
S113471030E0290F311D35952795A901440F551F08
S1134720FA01EC52FE4FE491E81718F461E0620FCD
S113473009C08E1718F49FEF920F04C0FA01EB52D0
S1134740FE4F1EC0961718F72DC091E4262F30E0B7
S1134750290F311D35952795A901440F551FFA01DD
S1134760E45BFE4FE491E81718F461E0620F0FC0B8
S11347708E1718F49FEF920F0AC0FA01E35BFE4F05
S1134780E491E0931E088AE00E9428030BC0961768
S1134790E8F608C01092B812823111F0893511F48C
S11347A01092DB0C8BE08093E80CFF91EF91BF91AA
S11347B0AF919F918F917F916F915F914F913F91B5
S11347C02F910F900BBE0F900FBE0F901F90189556
S11347D01F920F920FB60F9211240BB60F922F93C4
S11347E03F934F935F936F937F938F939F93AF9375
S11347F0BF93CF93EF93FF9320917800309179008A
S113480078944FB7F8948091111381FB992790F90C
S113481081704FBF811122C080917A00877F80937D
S11348207A008091BC0F813019F0823091F036C04B
S1134830911107C08DE790E00E9419070E9440097A
S11348402DC030932C1220932B1286E20E94280351
S113485025C0992379F31092BC0F20C0CFB7F894E8
S11348600E946203CFBF2FB7F89480917A0086FB31
S1134870992790F9877F806190FB86F98F778093E1
S11348807A00877F80618F7B8F7780937A00877F20
S113489080618F7B806880937A002FBFFF91EF91B6
S11348A0CF91BF91AF919F918F917F916F915F91C4
S11348B04F913F912F910F900BBE0F900FBE0F9011
S11348C01F901895809113028F3F69F0E82FF0E054
S11348D0E951F34F9081909313029F3F11F4909309
S11348E012029FEF90830895CF93DF931F92CDB769
S11348F0DEB789830E940E0389810E94C2038FEF71
S11349000E94C2038FEF0E94BC0389830E940C03A0
S113491089810F90DF91CF910895CF93DF9382E047
S11349200E942F0B63E184E50E94C40361E082E5E9
S11349300E94C40383E00E942F0B8AE00E94742427
S113494080FDFBCF82E00E942F0B60E082E50E9495
S1134950C40388E10E947424C82FD0E089E10E9436
S113496074249E01382BC901DF91CF910895EF92F1
S1134970FF920F931F93CF93DF93CDB7DEB7C25B44
S1134980D1090FB6F894DEBF0FBECDBF8F3F39F407
S11349904CE360E083E692E00E94180D38C0CE013B
S11349A086559F4F78E0F801DC0101900D927A95CD
S11349B0E1F7FC0110867E01F1E8EF0EF11C78E2CC
S11349C0F801D70101900D927A95E1F7F70110A64D
S11349D0FF92EF929F938F933F932F935F934F9305
S11349E01F926F938CE692E09F938F938E010F5FDB
S11349F01F4F1F930F930E94CC2A48E260E0C80126
S1134A000E94180D0FB6F894DEBF0FBECDBFCE5472
S1134A10DF4F0FB6F894DEBF0FBECDBFDF91CF914D
S1134A201F910F91FF90EF900895CF93DF93CDB72F
S1134A30DEB76B970FB6F894DEBF0FBECDBF0FB7CE
S1134A40F89448E250E06FEF70E083EB9CE00E9442
S1134A50472A8FEF8093B5128093181388EE91E064
S1134A609093B7128093B612089A099A0A9A1098EA
S1134A701198129880E0877F8F7E8F7D8F7B8F7750
S1134A8080937A0081E083BF0E9414038F3F19F062
S1134A900E94460EF9CF87B18C6F87B918E288EE71
S1134AA093E00E9419071150D1F760E088E20E9458
S1134AB0E00888E290E00E94190760E088E20E9422
S1134AC0E00888E290E00E94190760E08CE00E9410
S1134AD0E00888E290E00E94190760E081E00E940B
S1134AE0E00888EE93E00E94190788EE93E00E94A4
S1134AF0190760E086E00E94E00888E290E00E94E6
S1134B00190740E250E060E270E08DEB9FE00E9404
S1134B10472A81E080931F0F8093200F1092B912CF
S1134B2010922A121092F2111FEF1093210F10937A
S1134B30E70C729A739A7498759A0E941203779A82
S1134B406A9A6B9A6C9A6D9A6E9A6F9A82B112B83D
S1134B5081B111B96FE380E00E94390C6FE381E009
S1134B600E94390C60EC80E00E94390C60EC81E01A
S1134B700E94390C8091B60080728093B6008091B7
S1134B80B60081FDFCCF82E08093B0008091B60036
S1134B9080FDFCCF85E08093B1008CE78093B30067
S1134BA0809170008260809370000E9486036093FD
S1134BB0FC117093FD118093FE119093FF1180E31B
S1134BC095E7A0E0B0E08093001290930112A093C7
S1134BD00212B0930312809104128E7F826080933C
S1134BE0041282E10E9428038091280290912902F4
S1134BF090932602809327020E9414038F3F19F09A
S1134C000E94460EF9CF0FBF78948FB7F894109294
S1134C101F088FBF109247041092480410923D045D
S1134C2049E050E06FEF70E08EE394E00E94472A81
S1134C3010923C0410923B0466E775E0CE01429664
S1134C400E94002A198E1092B91210922A12CE01D3
S1134C5042960E94CC040E9413050E94620D9FB7E5
S1134C60F894809107018F77809307019FBF9FB7C6
S1134C70F894809107018F7B809307019FBF8091F7
S1134C806D00806880936D008FB7F8949BE09093DB
S1134C90E80C1092DB0C1092B8128FBF8091680060
S1134CA08460809368009FB7F8948091AC129FBF92
S1134CB0811135C09FB7F89481E08093AC121092B3
S1134CC0AD121092AE121092AF121092B012109256
S1134CD0B41280E2EFE4FAE0DF01282F1D922A9556
S1134CE0E9F7E9E4F2E1DF011D928A95E9F79FBF54
S1134CF0529A5A98519A599853985B98809169009E
S1134D00806880936900809169008F7B809369003B
S1134D1041E050E060E070E082E00E9492038FB7CF
S1134D20F89451E0509339048FBF80EC80932402AF
S1134D3098EA909325022AE22093260242E04093C7
S1134D4027023FEF30931C0230931D0230931E0262
S1134D5010921F028093200290932102209322023A
S1134D60509323021F924F931F922F931F929F934E
S1134D701F928F9389EE92E09F938F938E010F5F22
S1134D801F4F1F930F930E94CC2A4CE360E0C8018D
S1134D900E94180D109238040FB6F894DEBF0FBEAF
S1134DA0CDBF80911103811136C0209A0E940C035B
S1134DB0249A2C981B8E1A8E8A8D9B8D80329E4449
S1134DC030F48A8D9B8D01969B8F8A8FF5CF2C9A18
S1134DD01B8E1A8E8A8D9B8D80329E4430F48A8D70
S1134DE09B8D01969B8F8A8FF5CF52985A9A84E0B7
S1134DF08CBB809169008062809369008091690016
S1134E008F7E80936900EA9A0E94EE08811103C0A4
S1134E1081E0809311038FB7F894109239048FBF07
S1134E204AE060E08EEF92E00E94180D0E94F404C4
S1134E301FB7F8940E9414038F3F09F058C0809163
S1134E407000837089F08091B6008A71E1F78091D7
S1134E50B3009091B200891B883040F08091B20079
S1134E60893F20F483E003C085E001C082E0E09143
S1134E706E00E67029F590916F009E7221F5E09125
S1134E807100EE72E9F4909172009E72E1F4E09187
S1134E907300EE72A9F40CB407FC15C09091C10024
S1134EA0987189F4E091C900E87151F49091BC00C3
S1134EB092FD09C090917A0097FD04C0E5E003C01B
S1134EC0E0E001C0E1E093B78E1708F4E82FF0E0CA
S1134ED0EA5BFE4F8491E92FE07FE160E82BE3BFBA
S1134EE078948895F89483B78E7F83BFA3CF1FBF30
S1134EF00E94460E9DCFAA1BBB1B51E107C0AA1FEF
S1134F00BB1FA617B70710F0A61BB70B881F991F66
S1134F105A95A9F780959095BC01CD010895EE0F9F
S1134F20FF1F0590F491E02D09942F923F924F9228
S1134F305F926F927F928F929F92AF92BF92CF9225
S1134F40DF92EF92FF920F931F93CF93DF935C0155
S1134F506B017A016115710519F0FB01918380835E
S1134F60E114F10429F0C7010297839708F0F1C016
S1134F70E5012196F5011081812F90E00E94F82926
S1134F80892B11F05E01F4CF1D3229F42196F5012D
S1134F90118101E007C01B3221F4E5012296F501DD
S1134FA0118100E0E114F10459F1F0E1EF16F1048C
S1134FB061F41033E1F488818F7D883569F51981B6
S1134FC02296026070E1E72EF12C88E0E816F104E5
S1134FD039F12CF4F2E0EF16F104C9F12AC08AE0A9
S1134FE0E816F10479F0E0E1EE16F10411F550E170
S1134FF0E52EF12C812C912CA12C68E0B62E2CC02E
S11350001033C9F23AE0E32EF12C4CEC842E982CA8
S1135010A82C4CE0B42E20C010E3E114F104A9F64E
S113502098E0E92EF12C812C912CA12C20E1B22EB8
S113503013C060E070E080E090E89701442737FDFA
S11350404095542F0E94B62D49015A0105C0812C68
S1135050912CA12C80E4B82E60E020E030E0A9017E
S11350602701662457FC6094762C1E01E0EDE10FC5
S1135070EA3060F08FEB810F8A3110F4E9EC05C05F
S11350808FE9810F8A3128F5E9EAE10F8E2F90E04C
S11350908E159F05F4F467FD18C082169306A406C6
S11350A0B50690F0C301B2010E94A62D9B01AC018C
S11350B02E0F311D411D511D213031054105F0E8F0
S11350C05F0710F461E001C06FEF2196F1011081D8
S11350D0CCCF802F8170C114D10471F0662329F0E4
S11350E02197F601D183C08307C001FF19C022971D
S11350F0F601D183C08314C067FF12C0811105C0BB
S11351002FEF3FEF4FEF5FE704C020E030E040E0D7
S113511050E882E290E0909345138093441316C0C4
S1135120882341F050954095309521953F4F4F4F3E
S11351305F4F0CC057FF0AC082E290E09093451382
S1135140809344132FEF3FEF4FEF5FE7B901CA019C
S113515004C060E070E080E090E0DF91CF911F91A7
S11351600F91FF90EF90DF90CF90BF90AF909F9002
S11351708F907F906F905F904F903F902F90089505
S11351802F923F924F925F926F927F928F929F9253
S1135190AF92BF92CF92DF92EF92FF920F931F9341
S11351A0CF93DF9300D000D000D0CDB7DEB75C0141
S11351B06B017A016115710519F0DB018D939C93E4
S11351C0E114F10429F0C7010297839708F0DCC0C9
S11351D03501BFEF6B1A7B0AF5011081812F90E036
S11351E00E94F829892B11F05301F2CF1D3249F4A2
S11351F03501F2E06F0E711CD50111961C9101E08E
S113520009C01B3231F43501B2E06B0E711CF5019B
S1135210118100E0E114F10409F4C4C0F0E1EF16D7
S1135220F10489F4103399F5D3018C918F7D88357D
S113523009F0B2C011961C91B2E06B0E711C0260B1
S113524050E1E52EF12CEAE0EE16F10409F4B0C0C9
S1135250F0E1EF16F104D9F028E0E216F10451F47C
S113526038E0E32EF12C88248A94982CA82C4FE162
S1135270B42E13C06FEF7FEFCB019701442737FDA6
S11352804095542F0E94B62D49015A0106C0882426
S11352908A94982CA82C2FE0B22E7E826D8260E036
S11352A020E030E0A9012701662457FC6094762CA5
S11352B02D803E80E0EDE10FEA3060F08FEB810F4E
S11352C08A3110F4E9EC05C08FE9810F8A3190F539
S11352D0E9EAE10F8E2F90E08E159F055CF56F3F94
S11352E009F182169306A406B506D8F0C301B201EB
S11352F00E94A62D2E2F30E040E050E029833A830F
S11353004B835C83260F371F481F591F89819A815D
S1135310AB81BC81281739074A075B0710F061E0AD
S113532001C06FEFED81FE813196FE83ED83D101E3
S11353301C91BECFC114D10489F0662339F08D814C
S11353409E810197F6019183808308C001FF06C006
S11353508D819E810297D6018D939C9300FF07C097
S113536050954095309521953F4F4F4F5F4F67FFC4
S113537010C082E290E090934513809344136FEF42
S11353807FEF8FEF9FEF1BC060E070E080E090E064
S113539016C0B901CA0113C010E3E114F10409F401
S11353A05FCF51CF103309F43FCF9AE0E92EF12CAF
S11353B089E9882E982CA82C89E1B82E6ECF2696E0
S11353C00FB6F894DEBF0FBECDBFDF91CF911F9112
S11353D00F91FF90EF90DF90CF90BF90AF909F9090
S11353E08F907F906F905F904F903F902F90089593
S11353F09111FDC2803219F089508550D0F708957B
S1135400FB01DC0105900D920020E1F70895FB01FA
S1135410DC014150504030F08D910590801919F411
S11354200020B9F7881B990B0895FB01DC0141505A
S1135430504048F005900D920020C9F701C01D921C
S113544041505040E0F70895FB0155915523A9F0D0
S1135450BF01DC014D9145174111E1F759F4CD012C
S11354600590002049F04D9140154111C9F3FB010D
S11354704111EFCF81E090E001970895FB01DC0139
S113548002C001900D9241505040D8F70895DC01BC
S113549001C06D9341505040E0F70895FC018191A3
S11354A0861721F08823D9F7992708953197CF01DA
S11354B00895FB01DC014150504048F001900D92E9
S11354C00020C9F701C01D9241505040E0F70895F3
S11354D0FA01A191B081009719F41097E1F0CD0180
S11354E0DC01CD010D90002011F4C00113C0FB01BB
S11354F02191222319F02015D9F7F3CFFB01219133
S1135500201519F41E92119606C02223C1F70D909E
S11355100020A1F7D001FA01A193B08308950F935D
S11355201F93CF93DF93CDB7DEB72E970FB6F894C2
S1135530DEBF0FBECDBF0D891E898F89988D26E0F1
S11355402C831A83098397FF02C080E090E80197B7
S11355509E838D83AE01455E5F4F698D7A8DCE014A
S113556001960E94FC2A4D815E8157FD0AC02F815D
S11355703885421753070CF49A01F801E20FF31F20
S113558010822E960FB6F894DEBF0FBECDBFDF910A
S1135590CF911F910F9108950F931F93CF93DF9392
S11355A0CDB7DEB72E970FB6F894DEBF0FBECDBFD2
S11355B00D891E8986E08C831A8309838FEF9FE708
S11355C09E838D83AE01475E5F4F6F89788DCE01D8
S11355D001960E94FC2A2F813885F801E20FF31FFF
S11355E010822E960FB6F894DEBF0FBECDBFDF91AA
S11355F0CF911F910F9108952F923F924F925F92F6
S11356006F927F928F929F92AF92BF92CF92DF92CE
S1135610EF92FF920F931F93CF93DF93CDB7DEB733
S11356202C970FB6F894DEBF0FBECDBF7C016B0183
S11356308A01FC0117821682838181FFBDC1CE01DC
S113564001964C01F7019381F60193FD859193FF37
S113565081916F01882309F4ABC1853239F493FD3C
S1135660859193FF81916F01853229F4B70190E010
S11356700E94102DE7CF512C312C20E02032A0F4D1
S11356808B3269F030F4803259F0833269F420614E
S11356902CC08D3239F0803339F4216026C0226069
S11356A0246023C0286021C027FD27C030ED380FB7
S11356B03A3078F426FF06C0FAE05F9E300D1124DC
S11356C0532E13C08AE0389E300D1124332E2062ED
S11356D00CC08E3221F426FD6BC1206406C08C36CA
S11356E011F4206802C0883641F4F60193FD8591D7
S11356F093FF81916F018111C1CF982F9F7D9554A4
S1135700933028F40C5F1F4FFFE3F9830DC08336F9
S113571031F0833771F0833509F05BC022C0F801A2
S1135720808189830E5F1F4F44244394512C54017C
S113573015C03801F2E06F0E711CF801A080B18031
S113574026FF03C0652D70E002C06FEF7FEFC50137
S11357502C870E94052D2C0183012C852F77222E66
S113576017C03801F2E06F0E711CF801A080B180FF
S113577026FF03C0652D70E002C06FEF7FEFC50107
S11357802C870E94FA2C2C012C852068222E830160
S113579023FC1BC0832D90E048165906B0F4B701D2
S11357A080E290E00E94102D3A94F4CFF50127FC9A
S11357B0859127FE81915F01B70190E00E94102D31
S11357C031103A94F1E04F1A51084114510471F721
S11357D0E5C0843611F0893639F5F80127FF07C092
S11357E060817181828193810C5F1F4F08C0608149
S11357F07181882777FD8095982F0E5F1F4F2F7634
S1135800722E97FF09C090958095709561957F4F92
S11358108F4F9F4F2068722E2AE030E0A4010E942F
S1135820482DA82EA81844C0853729F42F7EB22EFF
S11358302AE030E025C0F22FF97FBF2E8F36C1F069
S113584018F4883579F0B4C0803719F0883721F01E
S1135850AFC02F2F2061B22EB4FE0DC08B2D8460FB
S1135860B82E09C024FF0AC09F2F9660B92E06C027
S113587028E030E005C020E130E002C020E132E061
S1135880F801B7FE07C060817181828193810C5F4A
S11358901F4F06C06081718180E090E00E5F1F4F52
S11358A0A4010E94482DA82EA818FB2DFF777F2E57
S11358B076FE0BC0372D3E7FA51450F474FE0AC04B
S11358C072FC08C0372D3E7E05C0BA2C372D03C0AC
S11358D0BA2C01C0B52C34FF0DC0FE01EA0DF11D38
S11358E08081803311F4397E09C032FF06C0B3943D
S11358F0B39404C0832F867809F0B39433FD13C0A6
S113590030FF06C05A2CB31418F4530C5B18B32C94
S1135910B31468F4B70180E290E03C870E94102D34
S1135920B3943C85F5CFB31410F43B1801C0312C6B
S113593034FF12C0B70180E390E03C870E94102D31
S11359403C8532FF17C031FD03C088E790E002C0F8
S113595088E590E0B7010CC0832F867859F031FFB9
S113596002C08BE201C080E237FD8DE2B70190E016
S11359700E94102DA51438F4B70180E390E00E9432
S1135980102D5A94F7CFAA94F401EA0DF11D8081E9
S1135990B70190E00E94102DA110F5CF332009F437
S11359A051CEB70180E290E00E94102D3A94F6CFD8
S11359B0F7018681978102C08FEF9FEF2C960FB677
S11359C0F894DEBF0FBECDBFDF91CF911F910F9131
S11359D0FF90EF90DF90CF90BF90AF909F908F900B
S11359E07F906F905F904F903F902F9008959927EC
S11359F088270895FC010590615070400110D8F784
S1135A00809590958E0F9F1F0895FC016150704002
S1135A1001900110D8F7809590958E0F9F1F0895DF
S1135A200F931F93CF93DF93FB01238121FD03C0C9
S1135A308FEF9FEF28C022FF16C046815781248133
S1135A4035814217530744F4A081B1819D012F5F32
S1135A503F4F318320838C93268137812F5F3F4FC3
S1135A603783268310C0EB01092F182F0084F1859A
S1135A70E02D0995892BE1F68E819F8101969F8304
S1135A808E83812F902FDF91CF911F910F910895D5
S1135A90FA01AA27283051F1203181F1E8946F935B
S1135AA06E7F6E5F7F4F8F4F9F4FAF4FB1E03ED001
S1135AB0B4E03CD0670F781F891F9A1FA11D680F9F
S1135AC0791F8A1F911DA11D6A0F711D811D911DD2
S1135AD0A11D20D009F468943F912AE0269F112447
S1135AE03019305D3193DEF6CF010895462F4770AB
S1135AF0405D4193B3E00FD0C9F7F6CF462F4F7006
S1135B00405D4A3318F0495D31FD4052419302D063
S1135B10A9F7EACFB4E0A695979587957795679509
S1135B20BA95C9F700976105710508959B01AC0109
S1135B300A2E06945795479537952795BA95C9F730
S1135B40620F731F841F951FA01D0895DB018F939F
S1135B509F930E94D82DBF91AF91A29F800D911D5C
S1135B60A39F900DB29F900D11240895A1E21A2EC7
S1135B70AA1BBB1BFD010DC0AA1FBB1FEE1FFF1FED
S1135B80A217B307E407F50720F0A21BB30BE40B3D
S1135B90F50B661F771F881F991F1A9469F7609584
S1135BA07095809590959B01AC01BD01CF0108953E
S1135BB00E94E32DA59F900DB49F900DA49F800D8E
S1135BC0911D11240895A29FB001B39FC001A39F0A
S1135BD0700D811D1124911DB29F700D811D112422
S10B5BE0911D0895F894FFCF14
S1135BE8FFFFFFFFFFFFFFFFFFFFFFFF01FF01FFB5
S1135BF8FFFFFFFF0006010203040506FFFF000084
S1135C080A3C00010A3C000A0100010E043930CCA8
S1135C1802D502207F050706085C0225730D25734B
S1135C283D25642C25733D25732C25733D25642C53
S1135C3825733D25642C25733D25642C25733D254A
S1135C48730A006C69737420656E6400713D256481
S1135C582C663D25642C703D25642C6E3D25732CE3
S1135C686E3D25730A0073630025642E2564006362
S1135C782564006625640025730D0A005261646971
S1135C886F20696E697469616C697A65642E003D78
S1135C98002C00252D38730025730D25733D2564CC
S1135CA80A00253032643A253032640020204F45FA
S1135CB83120202000796F20736572766173206823
S1135CC86162652064657265003E253033642E2563
S1135CD83033642E253033642E2530336400696EE6
