S01F00006275696C642F626967415652365F313238302F6D61696E2E7372656377
S11300000C94D5020C94D3250C94DD250C94E7258F
S11300100C9410260C9456260C9460260C946A2694
S11300200C9474260C94F4020C94F4020C9400279F
S11300300C94F4020C94E3240C94F4020C94222502
S11300400C94F4020C94F4020C94F4020C94F40254
S11300500C94F4020C94F4020C94F4020C94F40244
S11300600C942C250C94F4020C94F4020C94F402D9
S11300700C94F4020C94AB270C94F4020C94F40248
S11300800C94F4020C94F4020C94F4020C94F40214
S11300900C94F4020C94F4020C94F4020C947E2656
S11300A00C94F4020C94F4020C94F4020C94F402F4
S11300B00C94F4020C94F4020C94F4020C94F402E4
S11300C00C94F4020C94F4020C94F4020C94F402D4
S11300D00C94F4020C94F4020C94F4020C94F402C4
S11300E00C94F4027512D1125D136E14FA142715D0
S11300F033153F154B15721550166F16B51650185B
S11301008718771AF81A1C1B671BD71B021C2C1C98
S1130110501C571C6C1C701C7F1CC61D851E711F37
S113012061207420B420E5202B2148216F217D21FA
S11301309821F4218B168E169116941697169A16FA
S11301409D16A016A31600020E060C040D090E78C7
S1130150155116211A591B531C411D571E222143A8
S11301602258234424452578262329202A562B4621
S11301702C542D522E25314E324233483447355AB1
S11301803626394C3A4D3B4A3C553D2F3E28413B9F
S1130190424B4349444F453D4629493A4A5F4B4CFB
S11301A04C784D504E3F5278547855605A0A5B5EF5
S11301B05D2A613E660869316B346C377030712C8E
S11301C07232733574367538792B7A337B2D7C2AE9
S11301D07D3900000D090E7C157116311A791B73D7
S11301E01C611D771E322163227823642465253423
S11301F0263329202A762B662C742D722E35316EE7
S1130200326233683467357A3636392C3A6D3B6A54
S11302103C753D373E38412C426B4369446F453051
S11302204639492E4A2D4B6C4C6F4D704E2B526FF4
S1130230546F555C5A0A5B785D27613C66086931E6
S11302406B346C377030712C723273357436753888
S1130250792B7A337B2D7C2A7D3900000000000045
S11302600000005F00000007000700147F147F14E3
S1130270242A7F2A12231308646236495522500027
S113028005030000001C2241000041221C00082A32
S11302901C2A0808083E0808005030000008080816
S11302A00808006060000020100804023E5149451F
S11302B03E00427F400042615149462141454B3155
S11302C01814127F1027454545393C4A49493001E5
S11302D0710905033649494936064949291E00363C
S11302E0360000005636000000081422411414148D
S11302F014144122140800020151090632497941BB
S11303003E7E1111117E7F494949363E41414122C9
S11303107F4141221C7F494949417F090901013E2E
S1130320414151327F0808087F00417F410020404D
S1130330413F017F081422417F404040407F020436
S1130340027F7F0408107F3E4141413E7F09090935
S1130350063E4151215E7F091929464649494931E2
S113036001017F01013F4040403F1F2040201F7F8B
S11303702018207F63140814630304780403615174
S113038049454300007F4141020408102041417F58
S11303900000040201020440404040400001020405
S11303A00020545454787F4844443838444444200A
S11303B0384444487F3854545418087E09010208CC
S11303C01454543C7F0804047800447D40002040C9
S11303D0443D00007F10284400417F40007C041805
S11303E004787C0804047838444444387C14141495
S11303F008081414187C7C08040408485454542035
S1130400043F4440203C4040207C1C2040201C3CB5
S11304104030403C44281028440C5050503C446424
S1130420544C44000836410000007F00000041366F
S1130430080008082A1C08081C2A08086E6F74653E
S1130440006E616D6500716469616C007069636F51
S113045064650066726571006964004368616E6E6C
S1130460656C2044422046756C6C00676574006DB1
S11304707367007075726765616C6C006C69737486
S11304800075706461746500616464006F6B0041A1
S11304906C7265616479206661766F7572697465E2
S11304A021004368616E6E656C206E6F7420696E06
S11304B0206C69737421004661766F757269746586
S11304C0206E6F7420736574210042616E64206C29
S11304D0696D6974207265616368656421004442D2
S11304E0206572726F72210044422066756C6C2123
S11304F0004661766F7572697465732066756C6CFD
S113050021004368616E6E656C206C6973742066AB
S1130510756C6C2100496E76616C69642063686156
S11305206E6E656C2100464D436C69636B20696E89
S11305306974206661696C65642100556E6B6E6F29
S1130540776E206572726F7221004572726F723A13
S1130550004E6F20524453206461746121002020B6
S11305602020202020202020202020202020202087
S113057020202000202020202000202020202020B7
S1130580202000566F6C756D653A004D487A004521
S11305906E746572204E6F74653A00456E746572B0
S11305A0204368616E6E656C3A0011241FBECFEF64
S11305B0D1E2DEBFCDBF12E0A0E0B2E0E0E3F2E6BC
S11305C000E00BBF02C007900D92A43AB107D9F71F
S11305D013E1A4EAB2E001C01D92A631B107E1F72C
S11305E00E9425280C9416310C9400008091FF1170
S11305F08093BC00089576980895289A08952898C1
S11306000895769A0895809189128F3F69F0E82FB2
S1130610F0E0EF57F34F9081909389129F3F11F4CC
S11306209093E8129FEF90830895EB9808959FB7F5
S1130630F894E82FF0E0EF57F34F20812F3F99F41F
S1130640E091E812E81779F0209189122F3F19F40C
S11306508093891204C0F0E0EF57F34F80838093B6
S1130660E81280E001C085E09FBF08958BE00C9400
S1130670170388E00C9417038DE00C94170380E2B1
S11306800C9417038CE10C9417038BE10C9417035F
S113069082E00C9417038EE10C941703ECE7F0E06E
S11306A0208180917B00308190818870880F880F31
S11306B02F71822B35FB222720F920FB86F9929596
S11306C0969596959370292F279522272795822B07
S11306D0969508958FB7F8949091BC009093FF116C
S11306E08FBF08952FB7F8946091E10E7091E20ED8
S11306F08091E30E9091E40E2FBF0895CF92DF9284
S1130700EF92FF92CF93C82F6A017B010E9472037C
S113071029E0C29FF0011124DF01A054BE4E6D9365
S11307207D938D939C9313971496CD92DD92ED92C5
S1130730FC921797E853FE4E80818160826080832B
S113074082E1CF91FF90EF90DF90CF900C9417034C
S11307508EBD0DB407FEFDCF8EB508950C94A8038D
S1130760CF93DF9300D0CDB7DEB76A8389830E942D
S1130770FF0289810E94AE036A81862F0E94AE0324
S11307800F900F90DF91CF910C94FD02CF93DF93E4
S11307901F92CDB7DEB789830E94FF0289810E9430
S11307A0AE0380E00E94A80389830E94FD02898130
S11307B00F90DF91CF910895CF93DF9300D0CDB701
S11307C0DEB76A8389830E94FF02898180680E9460
S11307D0AE036A81862F0E94AE030F900F90DF91C3
S11307E0CF910C94FD02CF93DF931F92CDB7DEB768
S11307F089830E94FF0289810E94AE038FEF0E94C9
S1130800AE038FEF0E94A80389830E94FD028981B1
S11308100F90DF91CF9108958F929F92AF92BF92E4
S1130820CF92DF92EF92FF920F931F93CF93DF93B8
S11308302FEF280F9DE1299F900111248901015C6C
S11308401D4EF8019081911140C0E901C05CDD4E5C
S11308502097D9F17A0151E0598318821B8298E0DC
S11308609A8396E09C8344E04D8380902402909088
S11308702502A0902602B09027028786908AA18A3A
S1130880B28AD901A85BBD4EE6E1F2E0492F01909E
S11308900D924A95E1F7D901AE5ABD4EFB01019084
S11308A00D929A95E1F7F701C080D180E280F38040
S11308B0F801C18ED28EE38EF48E8F831E82508314
S11308C083E10E94170380E001C085E0DF91CF91AE
S11308D01F910F91FF90EF90DF90CF90BF90AF905A
S11308E09F908F9008952FB7F8948091EF078823F5
S11308F009F1409103125091041260910512709114
S113090006128091A90C9091AA0CA091AB0CB09105
S1130910AC0C840F951FA61FB71F4091E10E509198
S1130920E20E6091E30E7091E40E481759076A07CE
S11309307B0711F02FBF08951092EF072FBF81E1BD
S11309400C941703BC014091EC032CEE33E090E0CF
S1130950941761F0255C3F4FF901F9970190F081FC
S1130960E02DE617F70721F09F5FF2CF8FEF089590
S1130970892F08952FB7F894909182122FBF911167
S11309800EC09FB7F89423E020938212109286122F
S11309908093E90E9FBF0E94420380E0089581E0A6
S11309A00895DC0181E04D91442311F120918C12D2
S11309B030E090910012F90154E0EE0FFF1F5A95B8
S11309C0E1F7E90FF11DE657F04F40839F5F9093E5
S11309D00012F901E451F14F8083903121F7109214
S11309E000122F5F3F4F2170332720938C12DBCFEF
S11309F00895282FFC0190E28E2F821B861740F465
S1130A0080818A3011F08D3009F490833196F4CFCF
S1130A1008959091ED078093EC07923031F098306F
S1130A2031F0913039F48CE003C080E001C081E002
S1130A300C94170308958FB7F894ECE8F7E010824C
S1130A401182128213828FBF89E0E2E9F7E0DF01AD
S1130A501D928A95E9F781E4EBE9F7E0DF011D9245
S1130A608A95E9F786E0ECEDF7E0DF011D928A95BF
S1130A70E9F708953FB7F8949093EB078093EA075A
S1130A802091ED073FBF2430D9F02530C9F48933D4
S1130A909440E0F08091EC03882391F00E941B05C0
S1130AA08FB7F8942091EE033091EF033093E90768
S1130AB02093E80793E09093ED078FBF0C943903DC
S1130AC08FB7F89491E09093ED078FBF0C9448038F
S1130AD00F931F93CF93DF9300D01F92CDB7DEB750
S1130AE08091E1031F928F9389E892E09F938F9303
S1130AF08E010F5F1F4F1F930F930E94F02D1B82D7
S1130B0010928C1288E080930012C8010E94D104D4
S1130B1087E20E9417030F900F900F900F900F9091
S1130B200F900F900F900F90DF91CF911F910F9125
S1130B3008952F923F924F925F926F927F928F927D
S1130B409F92AF92BF92CF92DF92EF92FF920F9358
S1130B501F93CF93DF93CDB7DEB7AD970FB6F8945D
S1130B60DEBF0FBECDBF2FB7F8949091DE032FBF29
S1130B709111F3C08B018BA78FB7F89492E09093F7
S1130B80DE038FBF44E050E068E874E0CE010196D4
S1130B901C010E94392D9E012B5F3F4F47E050E01E
S1130BA061E874E0C9012CA73DA70E94392D2E01EC
S1130BB09CE0490E511C43E050E068E574E0C2013A
S1130BC00E94392D5E01AFE0AA0EB11C45E050E051
S1130BD063E574E0C5010E94392D4E01BAE18B0E24
S1130BE0911C47E050E06CE474E0C4010E94392D8C
S1130BF06E0184E1C80ED11C46E050E066E474E066
S1130C00C6010E94392D7E0191E2E90EF11C45E0F6
S1130C1050E061E474E0C7010E94392D3E01A6E270
S1130C206A0E711C45E050E06CE374E0C3010E945D
S1130C30392DEAEDF2E080E8DF011D928A95E9F7AB
S1130C402CA53DA5BBA5BF3FA1F5D80118968C9155
S1130C5018978F9317968C9117978F937F926F9213
S1130C6014968C9114978F9313968C9113978F935A
S1130C709F928F9212968C9112978F9311968C91CA
S1130C8011978F93BF92AF928C911F928F93DF92A3
S1130C90CF9216968C9116978F9315968C918F936D
S1130CA0FF92EF921F921F925F924F923F922F9268
S1130CB037C09BA59F3008F040C0D80118968C918E
S1130CC018978F9317968C9117978F937F926F92A3
S1130CD014968C9114978F9313968C9113978F93EA
S1130CE09F928F9212968C9112978F9311968C915A
S1130CF011978F93BF92AF928C911F928F93DF9233
S1130D00CF9216968C9116978F9315968C918F93FC
S1130D10FF92EF921F929F935F924F923F932F9374
S1130D2082E392E09F938F93FF93EF930E94F02DC1
S1130D300FB6F894DEBF0FBECDBF10925903EAED93
S1130D40F2E001900020E9F7CF018B5D924090938F
S1130D50D9028093D8020E943C03AD960FB6F89452
S1130D60DEBF0FBECDBFDF91CF911F910F91FF90DA
S1130D70EF90DF90CF90BF90AF909F908F907F9037
S1130D806F905F904F903F902F900895EF92FF9255
S1130D900F931F93CF93DF93CDB7DEB729970FB689
S1130DA0F894DEBF0FBECDBF9FB7F8948091DE03E9
S1130DB09FBF811133C08FB7F89495E09093DE0301
S1130DC08FBF49E050E063E774E0CE0101967C01F7
S1130DD00E94392D0AED12E080E8F80111928A95FB
S1130DE0E9F7FF92EF928CE592E09F938F931F9324
S1130DF00F930E94F02DF80101900020E9F78F0174
S1130E000B5D12401093D9020093D8020E943C0358
S1130E100F900F900F900F900F900F9029960FB690
S1130E20F894DEBF0FBECDBFDF91CF911F910F911C
S1130E30FF90EF900895EF92FF920F931F93CF933B
S1130E40DF93CDB7DEB729970FB6F894DEBF0FBE98
S1130E50CDBFE982FA820B831C832D833E834F83AB
S1130E60588769872FB7F8949091ED072FBF911198
S1130E709AC08F3F09F03EC08091EC03882381F033
S1130E800E941B058FB7F8942091EE033091EF0375
S1130E903093E9072093E80793E09093ED071BC094
S1130EA00E941B050E94C6061092E20349E050E02E
S1130EB06FEF70E083EE93E00E946B2D8FB7F89490
S1130EC01092EC0395E09093ED072BE633E030931A
S1130ED0E9072093E8078FBF29960FB6F894DEBF81
S1130EE00FBECDBFDF91CF911F910F91FF90EF9077
S1130EF00C9439038FB7F8942091EC0391E0920F8E
S1130F009093EC0330E08FBF4BE3429FC001439FBB
S1130F10900D1124DC01A351BC4F29E0FE01319650
S1130F2001900D922A95E1F79C012A503C4F8C01C7
S1130F3004511C4FD80117963C932E931697815059
S1130F409C4F19969C938E9318978F818F938E81C3
S1130F508F9381E692E09F938F931F9288E08F9303
S1130F603F932F930E94B32D6885798548E250E022
S1130F70F801808591850E947D2DD8011196EC9110
S1130F800FB6F894DEBF0FBECDBFEE2361F0F0E0E4
S1130F90EE51FC4F8091EC03815080838091E203F9
S1130FA08F5F8093E20329960FB6F894DEBF0FBEDD
S1130FB0CDBFDF91CF911F910F91FF90EF900895D6
S1130FC00197019601970196019701960197C1F740
S1130FD008950F931F93CF93DF9300915A031091B9
S1130FE05B03F801E55AFC4F20812A30D1F4EC016F
S1130FF010826DE070E08CE593E00E94722D99837D
S11310008883009741F0FC011082888199810196C0
S11310109983888304C0045A1C4F1983088381E090
S113102001C080E0DF91CF911F910F91089581E07D
S11310308093B60244EE52E166E072E00E940C0432
S113104044E650E060E070E080E00C947E031F937F
S1131050CF93DF938FB7F894C091A802C1113DC01C
S113106011E01093A802109279128FBFDFB7F894A1
S11310708091A702811117C0509851981092B9001D
S113108081E48093B8001092BA001092BC000E94D0
S11310906A038091FF118E7F84608093FF110E9408
S11310A0F6021093A702DFBFDFB7F89480910E0217
S11310B0813089F48091A802813021F483E20E9476
S11310C0170309C0823039F48091791280930E029B
S11310D083E08093A802DFBF1DC0C0917912CC23A6
S11310E0C1F09091EE0E9F3F99F4E0910F02EE2330
S11310F079F0909110029F3F19F41092100204C0ED
S1131100F0E0E251F14F108210920F02C0E001C0F2
S1131110C5E08FBF8C2FDF91CF911F910895CF939E
S1131120DF939FB7F894C091A402C11127C081E056
S11311308093A4021092E60E9FBF9FB7F89480910B
S11311407A00806880937A009FBFDFB7F89480911B
S11311500C02813089F48091A402813021F485E26B
S11311600E94170309C0823039F48091E60E8093FF
S11311700C0283E08093A402DFBF0FC0C091E60E8F
S1131180CC2351F08091BF1180FD05C08160809314
S1131190BF11C0E001C0C5E09FBF8C2FDF91CF918C
S11311A00895882369F12FB7F8948091250A9091C6
S11311B0260A90699093260A8093250A10928D122C
S11311C084E080937A122FBF48E050E060E270E040
S11311D08EE892E10E946B2D40E450E060E270E002
S11311E088E992E10E946B2D46E050E060E270E0F5
S11311F088ED92E10E946B2D88E08CBBEB9A11C0C4
S11312000E9415032FB7F8948091250A9091260A1D
S11312109F769093260A8093250A84E080937A121D
S11312202FBF0C943F032FB7F8949091ED072FBF75
S1131230811113C0963049F0973039F0953029F474
S11312400E941B0587E00C9417038FB7F89491E074
S11312509093ED078FBF0C944803813021F48FB72E
S1131260F89494E003C08FB7F89495E09093DF036B
S11312708FBF0C9436031F93CF93DF931F92CDB788
S1131280DEB7182F806479830E94B00381E0810F58
S11312907981672F80640F90DF91CF911F910C9417
S11312A0B003660F660F68B9439A98B18295807F40
S11312B0982B98B943980895CF93DF93C82FD62FCE
S11312C082958F700E9451096D2F8C2FDF91CF91E1
S11312D00C9451091092B002E091B1028BE0E89FA6
S11312E0F0011124E95FFD4E108285E10C9417038F
S11312F0CF93DF939FB7F8948091AB02882369F171
S11313009FBFDFB7F894C091AB02C11109C081E05F
S11313108093AB021092110288E10E94170318C057
S11313208091B40C8F3F99F4E0911202EE2379F08E
S1131330809113028F3F19F41092130204C0F0E05D
S1131340EC54F34F108210921202C0E001C0C5E0C9
S1131350DFBF8C2FDF91CF9108958CB58F7B8CBD2F
S1131360229A2398219A209A8CB580618CBD8CB5E1
S11313708F778CBD8DB58E7F8DBD8CB5877F8CBDF1
S11313808CB58B7F8CBD8CB58C7F8CBD8CB580640B
S11313908CBDB6CF0F931F93CF93DF938091DE1252
S11313A0882309F43FC010E0C0E0DFE10FB7F894F0
S11313B08091E1128E7F8093E1120E944E03282FC8
S11313C02F73881F8827881F9170990F892B1813F2
S11313D002C091E0D21390E08091E11290FB81F978
S11313E09D2F9F73990F990F8370892B8093E1121E
S11313F01111D064D0937C0080917B00877F80930F
S11314007B009091E1128C2F8860806190FB85F9BC
S11314108064806880937A000FBFDF91CF911F9121
S11314200F910895C7E011E0D0E0C0CFCF93DF93D0
S1131430CFB7F8940E946A038091FF118E7F806970
S11314408093FF110E94F602CFBFDFB7F89480911A
S1131450A8028330C1F5C0910E02C11134C080913D
S113146010028F3FC1F0E82FF0E0E251F14F90817C
S1131470909310029F3F11F490930F029FEF90837B
S11314808093791290930E0281E08093A80283E204
S11314900E94170316C081E080930E021092A802E6
S11314A08091A702813069F40E946A038091FF1140
S11314B08A768093FF110E94F602589859981092E8
S11314C0A702DFBF02C0DFBFC1E08C2FDF91CF9145
S11314D008951092A9029091AA022DE0929FF00122
S11314E01124E655F04F1082911103C081110E941E
S11314F03C0389E10C9417031092B2029091B30259
S113150028E0929FF0011124EF52F14F10829923A9
S113151029F0913029F40E94690A02C00E946A09E4
S113152084E10C941703811110C0662371F080913B
S1131530B602813051F41092B6028091C8118D7FA9
S11315408093C81181E00C947C0A0895882319F0D3
S1131550813021F00895862F0C947C0A1092B402F5
S11315608091B5029DE1899FF0011124E15CFD4E5B
S113157010820E94930A83E10C941703CF93DF93A4
S11315801F92CDB7DEB789830E94FF028FEB0E94C2
S1131590AE0383E00E94AE030E94FD0269818FE1E5
S11315A00F90DF91CF910C94DC03FC01009719F4A8
S11315B081E00C947C0A3091B70C9091B80C809126
S11315C0670C811124C048E65CE041155105F9F02F
S11315D026E0DA0101900D922A95E1F740E058E007
S11315E050936F0C40936E0C45EB5CE05093710C80
S11315F04093700C892F90E0932B9093730C8093FD
S1131600720C81E08093670C80E10C9417030895B9
S11316108F929F92AF92BF92CF92DF92EF92FF92FE
S11316200F931F93CF93DF93CDB7DEB7C456D10981
S11316300FB6F894DEBF0FBECDBF8FB7F89492E01B
S11316409093AB028FBF80911102811121C30E943C
S1131650FD028091AF02813021F0823009F498C0FC
S1131660DAC26FEF8FEF0E94B0038DE10E94C603D0
S113167080FFFBCF80E00E94BE0A60E076E088E055
S11316800E943B0980E096E0909315028093140237
S113169060E076E08CE00E943B096FEF7FE18AE036
S11316A00E943B0960E070E084E00E943B0960E82E
S11316B08EE50E94B00381E00E94BE0A61EA88E5DB
S11316C00E94B00382E00E94BE0A60E081E40E94AE
S11316D0B00361E080E40E94B00363E382E40E940B
S11316E0B00360E083E40E94B0036AE272E08AE03F
S11316F00E943B0965E184E40E94B00390912802B2
S11317008091290290931B0280931A0283E00E9425
S1131710BE0A60911B0281E40E94B00360911A0228
S113172080E40E94B0036091190283E40E94B00334
S11317306091180282E40E94B0036091170285E46C
S11317400E94B0036091160284E40E94B00382E018
S11317500E94BE0A64E184E50E94B00360E471E083
S113176086E10E943B0962E184E50E94B00362E1E4
S113177070E086E10E943B0960ED8BE50E94B003B6
S113178064E08FE10E94DC0382E08093AF0243C2F5
S11317908091AC02882309F43FC01092AC028CE122
S11317A00E94C603182F84FF20C082E00E94BE0A54
S11317B063E184E50E94B00361E082E50E94B00326
S11317C083E00E94BE0A8AE00E94F30380FDFBCFFF
S11317D082E00E94BE0A60E082E50E94B00388E1D4
S11317E00E94F30389E10E94F30381E00E94BE0A90
S11317F089E10E94C603882319F081E08093AD0239
S113180010FF0AC00E94FF028CEB0E94AE0381E02D
S11318100E94AE030E94FD028091AE028130E1F588
S113182080E00E94BE0A60E070E082E00E943B0912
S113183060E08AE70E94B00300E010E06091B20C1F
S11318407091B30C0617170768F4E0911D12F0911C
S11318501E12E00FF11F60818AE70E94B0030F5F40
S11318601F4FECCF86E00E943B0968E08FE10E94A5
S1131870DC031092AE021092BA028091BB022DE0FA
S1131880829FF0011124E959F34F108260E00E9415
S1131890A60A80E10E9417038091AD02813009F00D
S11318A0BAC180E00E94BE0A6091140270911502D0
S11318B080E00E943B098AE30E94C60390E0909373
S11318C01502809314028AE30E94C6032091140235
S11318D030911502382B30931502209314028AE3B9
S11318E00E94C603082F10E08AE30E94C603182B47
S11318F08AE30E94C6038AE30E94C603C8010F97C5
S11319008B31924090F4E2EFEE2EE7E0FE2E8AE374
S11319100E94C603F70181937F01CF01825F974044
S113192080179107A0F310E001C011E06091140248
S1131930709115028CE00E943B0960E48EE10E94E4
S1131940DC031092AD02111166C18091FE0790E094
S1131950982F88272091FF07822B8115F8E09F0795
S113196029F08630984009F4F5C055C180E098E02C
S113197090938112809380128091100890911108A5
S1131980A0911208B091130800912402109125022D
S1131990209126023091270280179107A207B307EE
S11319A039F140911C0250911D0260911E02709108
S11319B01F026A017B01C094D094E094F094460124
S11319C0570188229922AA22BB228C149D04AE04BA
S11319D0BF0409F020C180279127A227B3278423BD
S11319E09523A623B723892B8A2B8B2B09F013C1AC
S11319F0309102088091030820910908213021F0D8
S1131A00213109F443C007C160911508909114086D
S1131A10983009F000C1C0900C08D0900D08E090F7
S1131A200E08F0900F0894E6AE014F5F5F4FFA0185
S1131A30792F11927A95E9F7E8E1F8E0DA0101905B
S1131A400D929A95E1F7909107129111E4C0E8E0A4
S1131A50F2E1EF2B09F4DFC050930F1240930E1202
S1131A60C0920812D0920912E0920A12F0920B125C
S1131A7010920C1260930D1290E0932B4897909360
S1131A801112809310122093071260C0409118081D
S1131A9050E0542F442780911908482B485051098D
S1131AA08091160890E0982F882720911708822BA0
S1131AB08035934C99F48A014138510510F000E8BF
S1131AC010E0A8016CE178E08CE593E00E94622DBF
S1131AD010935B0300935A038EE039C0C0900C0846
S1131AE0D0900D08E0900E08F0900F0824E6CE0187
S1131AF00196FC01322F11923A95E9F7ECE1F8E0F6
S1131B00DC0101900D922A95E1F720911212211126
S1131B1082C023E132E1232B09F47DC090931A1291
S1131B2080931912C0921312D0921412E0921512DB
S1131B30F092161283E08093171280931812509338
S1131B401C1240931B1281E08093121285E10E94C3
S1131B50170361C08091060890E0982F8827209190
S1131B600708822B8130910519F00297F1F053C0D8
S1131B70409124025091250260912602709127021F
S1131B808091180890911908A0911A08B0911B0827
S1131B90481759076A077B07F1F54EE058E068E0FB
S1131BA078E082E00E940C0436C08091B602813055
S1131BB091F58091B8027AE0879FC0011124FC015D
S1131BC0E551FD4E40910E0850910F0860911008A8
S1131BD0709111084083518362837383DC01A151A6
S1131BE0BD4E26E0E8E0F8E001900D922A95E1F779
S1131BF02091C8112D7F2093C8111092B6028151F3
S1131C009D4E0E94D50A8091B80290E0019683709F
S1131C1099278093B8021FB7F8948091AB02823061
S1131C2011F58091110281111EC0809113028F3F22
S1131C30B1F0E82FF0E0EC54F34F9081909313024D
S1131C409F3F11F4909312029FEF908380931102AF
S1131C5081E08093AB0288E10E94170304C0809363
S1131C6011021092AB021FBF9FB7F8948091AB0290
S1131C70882351F09FBF1FB7F8944A9903C086E1A7
S1131C800E9417031FBF04C08CB58F7B8CBDF2CF9D
S1131C90CC59DF4F0FB6F894DEBF0FBECDBFDF9136
S1131CA0CF911F910F91FF90EF90DF90CF90BF9055
S1131CB0AF909F908F900895882329F0813029F464
S1131CC07298739A02C07398729A82B182B981B180
S1131CD011B87498759A0E94010382E090E00E9402
S1131CE0E00780B1079B0DC00E94FB0282E090E0F8
S1131CF00E94E0070E94010382E090E00E94E00756
S1131D00F1CF0E94FB02759881B18FEF81B90895DC
S1131D10CF93DF931F92CDB7DEB70E945C0E81B1E3
S1131D2011B8749A759A0E94010382E090E00E94AF
S1131D30E00780B10E94FB0282E090E00E94E0078D
S1131D400E94010382E090E00E94E00780B1898351
S1131D500E94FB0289810F90DF91CF9108954F92E9
S1131D605F926F927F928F929F92AF92BF92CF9227
S1131D70DF92FF920F931F93CF93DF93A0ECB1E117
S1131D80C12CD12C49E04C9DF0014D9DF00D112446
S1131D90EF01C054DE4EF884F1FE8EC00D911D910A
S1131DA02D913C91139714968D909D90AD90BC907D
S1131DB017972B013C01401A510A620A730A48140E
S1131DC059046A047B0408F477C0F0FE06C0E853A3
S1131DD0FE4E20812D7F20830AC0B901A801480D41
S1131DE0591D6A1D7B1D488359836A837B8323E0C5
S1131DF0C21609F44FC02C1538F081E0C81681F0E2
S1131E0022E0C216F1F12DC085E0C81609F447C0DE
S1131E10C81608F441C026E0C21609F449C021C01E
S1131E201092EB121092EC121092ED121092EE122C
S1131E301092F5121092F6121092F7121092F812F4
S1131E401092FF12109200131092011310920213B9
S1131E501092091310920A1310920B1310920C1380
S1131E6034C01092B6028091B7028F5F8093B7029C
S1131E70833018F40E94170828C081E00E947C0A6D
S1131E8024C09FB7F894809182129FBF8130E9F4F7
S1131E908AE10FC087E20DC00E948F0816C08FB779
S1131EA0F89491E09093ED078FBF0E9448030DC012
S1131EB089E00E94170309C02FEFC21AD20A1996AB
S1131EC027E0C216D10409F05ECF82E1DF91CF9101
S1131ED01F910F91FF90DF90CF90BF90AF909F9094
S1131EE08F907F906F905F904F900C941703CF93D7
S1131EF0C0918212813011F48FE11AC00E94160A37
S1131F001092831282E20E941703C23059F020F427
S1131F10C13089F48AE10CC0C33039F0C63059F4B9
S1131F208DE106C0CF910C944503CF910C944203EC
S1131F30CF910C941703CF910895811110C0809113
S1131F40BB0090917B12E091B00CF091B10CE90FC1
S1131F50F11D808380917B128F5F80937B1220918F
S1131F607B128091EE07281788F430E090E0019707
S1131F702817390749F48091131382FD05C0809115
S1131F80FF118F7B8093FF110C94F6028091FF1157
S1131F90282F2E7F9091131391FF0AC09D7F909359
S1131FA01313822F80618093FF118091B90003C0C5
S1131FB08E778093FF110E94F60281E08093A7023E
S1131FC080910D02811102C00C94770F0895CF9374
S1131FD0C0918212813011F481E214C00E94160A69
S1131FE010928312C33089F038F4C13051F0C230FA
S1131FF079F4CF910C944503C63050F410928212B8
S113200007C08AE1CF910C941703CF910C9442033B
S1132010CF91089580917B129091EE07891780F4F7
S1132020E091B00CF091B10CE80FF11D8081809328
S1132030BB0080917B128F5F80937B120C94F6021D
S11320408091FF11282F2E7F9091131391FF06C0CA
S11320509D7F90931313822F806101C08E778093AC
S1132060FF110E94F60281E08093A70280910D0285
S1132070811102C00C94E70F0895CF93DF931F9250
S1132080CDB7DEB789830E946A039091FF119A7FCE
S11320909093FF110E94F6020E946A039091FF112F
S11320A094609093FF110E94F60291E09093A7022E
S11320B02091A60290910D028981222339F0911179
S11320C00CC00F90DF91CF910C94770F911105C044
S11320D00F90DF91CF910C94E70F0F90DF91CF9188
S11320E00895CF93DF931F92CDB7DEB769830E9423
S11320F05C0E698162B981B18FEF81B9749A759868
S11321000E94010382E090E00E94E0070E94FB022B
S113211080E00F90DF91CF910895CF93DF931F92CA
S1132120CDB7DEB769830E945C0E749875980E94DF
S1132130010381B18FEF81B9698162B982E090E0D6
S11321400E94E0070E94FB0280E00F90DF91CF9194
S11321500895CF93DF93982FC62FD82FD295D69575
S1132160D695D37081E0D8279F73692F60648D2F33
S11321700E948D106C2F6770686B8D2FDF91CF914B
S11321800C948D105F926F927F928F929F92AF9278
S1132190BF92CF92DF92EF92FF920F931F93CF9350
S11321A0DF9390EE980F903608F054C06B0190E0E6
S11321B0809725E0289F8001299F100D1124045A3F
S11321C01D4F912C89EF682E6D0C55245394AA242D
S11321D0A394B12CF92CFC0CD62DF8017490F6FACA
S11321E0CC27C0F9C5258D2E869486948694FD2F20
S11321F0F770EF2E682D8F2D70FE0DC00E94A91070
S11322008C2F0E94880EB50101C0660FEA94EAF78C
S1132210E82EE62A0DC00E94A9108C2F0E94880E79
S1132220950101C0220FEA94EAF72095E82EE222F4
S1132230682D8F2D0E94A9106E2D8C2F0E94711075
S11322407694DF5FDD11CFCF0F5F1F4F939485E04E
S11322509812C0CFDF91CF911F910F91FF90EF9013
S1132260DF90CF90BF90AF909F908F907F906F90B2
S11322705F900895EF92FF920F931F93CF93DF9394
S113228000D0CDB7DEB77C01162F962F00E0F70102
S1132290E00FF11D84918823B1F08A3011F08D3064
S11322A019F4485F912F0DC0893011F4965F09C06D
S11322B09A5F692F742F49839A830E94C2109A816E
S11322C049810F5FE4CF0F900F90DF91CF911F9161
S11322D00F91FF90EF900895FF920F931F93CF9368
S11322E0DF93F62E8C01D42FCF2DF80181918F012D
S11322F0882379F08A3011F08D3011F4D85FF4CF4F
S1132300893011F4C65FF1CFCA5FBE010E94C210CA
S1132310ECCFDF91CF911F910F91FF900895DF9241
S1132320EF92FF920F931F93CF93DF93CDB7DEB756
S113233027970FB6F894DEBF0FBECDBF282F8B01B1
S11323408FB7F894D090ED078FBF8091BD02909124
S1132350BE02AC014F5F5F4F5093BE024093BD027B
S11323609F938F9389E692E09F938F93CE0101967A
S11323707C01FF928F932F830E94F02D4CE364E144
S1132380C7010E946C110F900F900F900F900F9047
S11323900F902F81213009F43FC0A8F0223009F0BA
S11323A04FC08FB7F89491E090938F078FBF86E06A
S11323B0ECEDF7E0DF01982F1D929A95E9F7F8010B
S11323C0ACEDB7E039C089E0E2E9F7E0DF011D9246
S11323D08A95E9F788E0F801A2E9B7E001900D9247
S11323E08A95E1F72FB7F89481E080938C07809366
S11323F08D07F801808590E0982F88273185832BFD
S113240090939107809390072FBFF5E0DF1218C0D7
S113241089E00E94170314C08FB7F89420938E07A5
S11324208FBF81E4EBE9F7E0DF011D928A95E9F7BC
S113243080E4F801ABE9B7E001900D928A95E1F7E9
S113244083E00E94170327960FB6F894DEBF0FBEF1
S1132450CDBFDF91CF911F910F91FF90EF90DF904F
S11324600895CF93DF93C0E06C2F80E00E94A91001
S11324706C2F80E40E94A910D0E060E080E00E940C
S1132480711060E081E00E947110DF5FD038A9F71D
S1132490CF5FC83049F780E0DF91CF9108952F9244
S11324A03F924F925F926F927F928F929F92AF92E0
S11324B0BF92CF92DF92EF92FF920F931F93CF932D
S11324C0DF93CDB7DEB7C055D1090FB6F894DEBFA0
S11324D00FBECDBF90E08832910510F00C94C42457
S11324E0FC01EE58FF4F0C94B32A8FB7F894109167
S11324F0EC078FBF812F90E0C0970A9760F4E091BA
S1132500E207E43040F481E08E0F8093E207F0E0CC
S1132510EE51F84F1183183059F4E091E207EE239D
S113252039F0E150E093E207F0E0EE51F84F118208
S113253044E160E084E795E00E943A1144E160E000
S113254083EE97E00E946C111A3011F00C94C424AD
S11325504AE050E060E070E083EE97E00E94E42BF4
S11325602FB7F89433E03093ED072FBF9B012B5620
S113257033402E3C310550F08FB7F89491E090939E
S1132580DF038FBF0E9436030C94C4242FB7F89442
S11325907093E9076093E8072FBF0E9439030C94F6
S11325A0C4248FB7F8941091EC078FBF183061F4EE
S11325B0E0916207EE23D1F0E150E0936207F0E08E
S11325C0EE59F84F118212C01A3081F01D3071F0AB
S11325D0112361F0E0916207E83240F481E08E0F4C
S11325E080936207F0E0EE59F84F118385E1E3E64A
S11325F0F7E0DE01119601900D928A95E1F71E8AAB
S113260044E16AE78EE595E00E943A1144E16AE705
S1132610CE0101960E946C1183E1E8E7F7E0DE0148
S1132620119601900D928A95E1F71C8A4EE16AE7B2
S11326308EE595E00E943A114EE16AE7CE010196DB
S11326400E946C111A3011F00C94C4242FB7F89422
S113265086E08093ED078091EA079091EB072FBF06
S11326600E94A204F82E2FB7F89490E02FBFE091B7
S11326706207F0E0EE59F84F11822BE3289F8001A6
S1132680299F100D1124F801E451FC4F2085318558
S113269089E2D9011D928A95E9F748E250E063E6A0
S11326A077E0808591850E947D2DB80163517C4F30
S11326B08F2D0E9499050C94C4248FB7F894D09060
S11326C0ED07E090EA07F090EB078FBFC7010E9487
S11326D0A204182FC7016AE070E00E949F2A9F930A
S11326E08F937F936F9386E692E09F938F937E01FF
S11326F0BAE2EB0EF11CFF92EF920E94F02D0E94C1
S1132700311247E060E0C7010E946C1147E064E2C7
S11327108BE895E00E943A110FB6F894DEBF0FBE25
S1132720CDBF1F3008F070C0E12EF12C1F921F9313
S11327308CE692E09F938F938E010D5C1F4F1F9345
S11327400F930E94F02D1EAA47E06CE3C8010E947B
S11327506C118BE38E9DF0018F9DF00D1124E451DB
S1132760FC4F81810F900F900F900F900F900F905E
S11327708823B1F01F928F9382E792E09F938F9307
S11327801F930F930E94F02D1DAA47E064E5C80132
S11327900E946C110F900F900F900F900F900F905C
S11327A08BE38E9D80018F9D100D1124F801E15063
S11327B0FC4F85E1DE01119601900D928A95E1F7B7
S11327C01E8A4FE26AE78EE595E00E943A114FE2D5
S11327D06AE7CE0101960E946C11F801EC5EFB4F92
S11327E083E1DE01119601900D928A95E1F71C8A2E
S11327F047E36AE78EE595E00E943A1147E36AE70A
S1132800CE0101960E946C114FE060E08AE795E0EA
S11328100E943A114FE060E082E997E00E946C1157
S11328204FE060E084E795E00E943A114FE066E3F0
S11328308CED97E00E946C1185E1EBE9F7E0DE0195
S1132840119601900D928A95E1F71E8A47E16AE795
S11328508EE595E00E943A1147E16AE7CE010196C0
S11328600E946C1185E1E0EBF7E0DE011196019026
S11328700D928A95E1F71E8A4FE16AE78EE595E0AD
S11328800E943A114FE16AE7CE0101960E946C1151
S113289085E1E5ECF7E0DE01119601900D928A9551
S11328A0E1F71E8A47E26AE78EE595E00E943A1155
S11328B047E26AE7CE0101960E946C1181E08093A1
S11328C0E50EF5E0DF120C94C42448E853E160E01F
S11328D070E086E00E947E030C94C4248091E50E8F
S11328E0882311F40C94C4249FB7F89480918D0725
S11328F010918E0700918F079FBF8823B1F068E085
S113290082E997E00E94F9044FE060E08AE795E0ED
S11329100E943A114FE060E082E997E00E946C1156
S11329208FB7F89410928D078FBF002389F04FE082
S113293060E084E795E00E943A114FE066E38CED95
S113294097E00E946C118FB7F89410928F078FBF95
S1132950112311F40C94C42460E48BE997E00E94E1
S1132960F90485E1EBE9F7E0DE01119601900D929F
S11329708A95E1F71E8A47E16AE78EE595E00E94B1
S11329803A1147E16AE7CE0101960E946C1185E194
S1132990E0EBF7E0DE01119601900D928A95E1F7E4
S11329A01E8A4FE16AE78EE595E00E943A114FE1F5
S11329B06AE7CE0101960E946C1185E1E5ECF7E02F
S11329C0DE01119601900D928A95E1F71E8A47E285
S11329D06AE78EE595E00E943A1147E26AE7CE0184
S11329E001960E946C118FB7F89410928E078FBFD6
S11329F00C94C4248091E0039091E103891711F4AD
S1132A000C94C4242FB7F894909182122FBF911183
S1132A1016C04FB7F89435E030938212282F2F70E8
S1132A208091270A9091280A807F822B9093280A0C
S1132A308093270A30937A124FBF0E943F038091FC
S1132A40E0038093E1030E9468050C94C42480E0B1
S1132A500E94BA04882311F40C94C42485E00E94D3
S1132A6017030C94C42481E00E94BA04882311F44F
S1132A700C94C42486E00E9417030C94C42482E0BE
S1132A800E94BA04882311F40C94C42487E00E94A1
S1132A9017030C94C4242FB7F8948091E8079091FD
S1132AA0E9072FBF3FB7F894209182123FBF21114D
S1132AB00C9436229C012B5633402E3C310510F0E9
S1132AC00C9436222FB7F89432E03093821210928D
S1132AD085129093E3128093E2122FBF0E94450364
S1132AE00C94C4248FB7F894C090EA07D090EB07F5
S1132AF08FBF1092E50EC6010E94A204F82E2EE0AC
S1132B00281708F454C09FB7F89480918C0700915B
S1132B10EC0321E0200F2093EC039FBF8823E9F10D
S1132B204BE3049F80011124C80184519C4F6C0124
S1132B30DC011696ED91FC91179789E0DF011D9257
S1132B408A95E9F782E997E09F938F9381E692E073
S1132B509F938F931F9288E08F93F60187818F93C1
S1132B6086818F930E94B32D8FB7F894209190079C
S1132B7030919107D60115963C932E9314978FBFED
S1132B80B80163517C4F8F2D0E9499050FB6F894BC
S1132B90DEBF0FBECDBF0C94C4248FB7F89491E070
S1132BA09093ED078FBF0E9448030C94C424809136
S1132BB0EC038F3050F08FB7F89492E09093DF03DA
S1132BC08FBF0E9436030C94C4249FB7F89480915D
S1132BD08C070091EC0321E0200F2093EC0310E01C
S1132BE09FBF9BE3909F9001919F300D1124F901A9
S1132BF0E451FC4F1182D382C28241E050E05583FC
S1132C004483B9016A507C4FAF014A5F5F4F7783B9
S1132C10668321503C4F3187208799E0DB011D9268
S1132C209A95E9F72085318599E2D9011D929A9503
S1132C30E9F7882311F18FB7F89420919007309128
S1132C409107358324838FBF82E997E09F938F9305
S1132C5081E692E09F938F931F9288E08F93DA012D
S1132C6011968C918F9386818F930E94B32D0FB60A
S1132C70F894DEBF0FBECDBF06C061E575E0808568
S1132C8091850E94242D8BE3809FB001819F700D5C
S1132C90112463517C4F8FEF0E9499050C94C42436
S1132CA08FB7F8941091DF038FBF1092E50E0E9446
S1132CB031124AE060E08AE495E00E943A1144E16E
S1132CC060E0111106C086E295E00E943A110C946E
S1132CD0C4248BE395E00E943A110C94C4248FB76A
S1132CE0F8941091DF038FBF1092E50E0E94311209
S1132CF04AE060E08AE495E00E943A11812F90E076
S1132D00FC013197E930F10508F5E656FF4F44E13F
S1132D1060E00C94B32A85E195E01CC082E095E064
S1132D2019C081EF94E016C088EE94E013C08EEDD4
S1132D3094E010C08AEC94E00DC087EB94E00AC0E4
S1132D4082EA94E007C08FE894E004C044E160E0C4
S1132D508BE395E00E943A114CEB52E060E070E0A6
S1132D6085E00E947E030C94C4248FB7F894E0910C
S1132D70EC078FBFE63609F452C0C0F4EE3209F412
S1132D804FC1E13609F440C0EC3209F058C1109249
S1132D90E50E0E941B058FB7F89494E09093ED071D
S1132DA08FBF86E00E9417030C94C424EE3609F406
S1132DB0DEC020F4EC3609F498C041C1E33709F4CD
S1132DC00DC1E43709F03BC11092E50E0E941B05CA
S1132DD08FB7F8941092E20795E0E3EEF7E0DF0195
S1132DE01D929A95E9F792E09093ED078FBF0E94A8
S1132DF031124AE060E08BE995E00E943A1180E0EC
S1132E000E9417030C94C4248FB7F89496E090930F
S1132E10ED078FBF89E00E9417030C94C4248FB779
S1132E20F89497E09093ED078FBF8091E203893087
S1132E3008F051C02FB7F8948091EA079091EB07FE
S1132E402FBF0E94A2048F30E0F5482F50E02BE3FF
S1132E50829FF0011124E451FC4F9181992351F098
S1132E608FB7F89499E09093DF038FBF0E943603E5
S1132E700C94C424E3EEF3E090E021912F3F19F089
S1132E809F5F9930D1F7E92FF0E0EE51FC4F818339
S1132E902091E2032F5F2093E2032FB7F8943BE3E2
S1132EA0349FB001359F700D1124FB01E451FC4F98
S1132EB09F5F91832FBF63517C4F0E9499050C94AF
S1132EC0C4248FB7F89498E09093DF038FBF0E94D7
S1132ED036030C94C4248FB7F89493E09093DF03E3
S1132EE08FBF0E9436030C94C4248091EC03882382
S1132EF011F40C94C4248FB7F8946091EA0770918C
S1132F00EB078FBF3091EC03ECEEF3E04FEF5FEF94
S1132F101FEF20E0231769F082819381861B970BB2
S1132F2029F08417950710F4AC01122F2F5FFB963C
S1132F30F1CF1F3010F00C94C4241092E50E0E94BF
S1132F401B058FB7F89493E09093ED074BE3149F20
S1132F50F0011124E451FC4F228133813093E907BD
S1132F602093E8078FBF0E9439030C94C4248FB7C1
S1132F70F89418E01093ED078FBF2FB7F894809161
S1132F80EA079091EB072FBF0E94A2048F30E8F468
S1132F901092E50E8FB7F8941092EC078FBF109241
S1132FA0620789E2E3E6F7E0DF011D928A95E9F71B
S1132FB00E9431124AE060E08FE895E00E943A11E5
S1132FC081E00E9417030C94C4248FB7F8941093E3
S1132FD0DF038FBF0E9436030C94C4241092E50EC5
S1132FE00E941B050E94C6061092E20349E050E0CD
S1132FF06FEF70E083EE93E00E946B2D8FB7F8942F
S11330001092EC0395E09093ED072BE633E03093B8
S1133010E9072093E8078FBF0E9439030C94C42466
S11330201092E50E0E941B058FB7F89494E09093DC
S1133030ED078FBF85E00E9417030C94C4248FEC26
S11330408E0F893010F00C94C424E053F0E0EE515C
S1133050FC4F10811F30D0F41092E50E0E941B0526
S11330608FB7F89493E09093ED07BBE31B9FF001B7
S11330701124E451FC4F228133813093E9072093DA
S1133080E8078FBF0E9439030C94C4248FB7F894C7
S113309097E09093DF038FBF0E9436030C94C424FF
S11330A04091D8025091D9028091AA0F81112BC06E
S11330B08BEA9FE0892B39F18AED92E09093B40F6B
S11330C08093B30F80EC8093AB0F88EA8093AC0FAE
S11330D08AE28093AD0F81E08093AE0F20E533EC5C
S11330E03093B00F2093AF0F3093B20F2093B10FF2
S11330F05093B60F4093B50F8093AA0F89E10E94B5
S113310017030C94C4240E943C030C94C4249FB75A
S1133110F8948091DE039FBF833009F443C0843068
S113312009F4A6C0823009F0DBC1CE018A960E9460
S1133130E907882309F4D4C142E050E06CE874E064
S11331408CE593E00E942B2D2AA53BA5892BA1F4A5
S1133150AE014F5F5F4F66E772E0C9010E948C2D9C
S11331604AE050E060E070E089819A810E94E42B9B
S11331706F3048F480E008C06FE674E0C9010E9433
S1133180482D009721F482E00E941309A9C14FE061
S113319050E06BE574E004960E942B2D892B99F77F
S11331A081E0F2CF80915E038A3049F589E0FE0127
S11331B03196DE01AB5BBF4F01900D928A95E1F72A
S11331C02696EFAC26972796FFAC279728960FAD47
S11331D0289729961FAD29972A962FAD2A972B96C3
S11331E03FAD2B972C964FAD2C972D965FAD2D9719
S11331F02E966FAD2E978FEF0E941B0771C1CE01E3
S11332008A960E94E907882309F46AC11092C702CA
S11332101092C802AE014F5F5F4F68E772E08AA563
S11332209BA50E948C2D0097D1F04AE050E060E00D
S113323070E00E94B92A6F3050F4E091C70281E037
S11332408E0F8093C702F0E0E953FD4F6283AE0115
S11332504F5F5F4F68E772E080E090E0E2CF8091DB
S1133260C702882309F43CC181E08093DD0335C1A2
S1133270CE01825B9F4F0E94E907882309F429C18C
S11332808E010B5B1F4F89E0F80111928A95E9F7D3
S1133290CE0101964C0189E2D4011D928A95E9F789
S11332A0AE01465D5F4F66E772E060968EAD9FADFE
S11332B060970E948C2D6C01009709F4F5C0F1E62B
S11332C06F2EF2E07F2EA8E0FA2EAAA4BBA442E05F
S11332D050E068E574E0C6010E942B2D892B61F44F
S11332E04AE050E060E070E0C5010E94E42B6F30DA
S11332F008F0DAC0562E86C044E050E063E574E07E
S1133300C6010E942B2D892B99F44AE050E060E01D
S113331070E0C5010E94E42B9B012B5633402E3CE8
S1133320310508F0C1C0362E61967FAF61976AC03F
S113333046E050E06CE474E0C6010E942B2D892B1A
S113334051F44AE050E060E070E0C5010E94E42BD3
S1133350462E272E57C045E050E066E474E0C601CF
S11333600E942B2D892B61F44AE050E060E070E06C
S1133370C5010E94E42B6A3008F096C0E62E42C0D4
S113338044E050E061E474E0C6010E942B2D892BD7
S1133390F9F4BF92AF927F926F921F92FF921F93A4
S11333A00F930E94B32DF8011086EAA5FBA5CF0167
S11333B008969BA78AA70FB6F894DEBF0FBECDBFB1
S11333C080858C3209F070C03996FBA7EAA726C025
S11333D044E050E06CE374E0C6010E942B2D892B7D
S11333E089F4D5018C91882331F048E250E0B5018D
S11333F0C4010E947D2DF80110A68091DC03811187
S11334001BC032C06CE270E08AA59BA50E94722D9D
S1133410009709F449C001969BA78AA7AE01465DAF
S11334205F4F66E772E080E090E00E948C2D6C01B3
S1133430009709F04ACF38C0EE2009F44AC0EBAA3D
S1133440F32C3CAA61962FAD61972DAB4EAA2FAAFF
S1133450302F19AF08AF582D9BAE8AAE022F142D12
S1133460222D49AD6BAD1EC0ECAEF32C3DAE619682
S11334702FAD61972EAF4FAE21962FAE2197302FEF
S113348023961FAF0EAF2397582D25969FAE8EAE71
S11334902597022F142D222D23964FAD2397259681
S11334A06FAD2597852D13C089E0FE01F396DE01EB
S11334B09A9601900D928A95E1F7EAA4FBA40CA5D3
S11334C01DA52EA53FA548A959A96AA98EEF0E945A
S11334D01B078091DD03882319F08FE00E941703F6
S11334E08FB7F8941092DE038FBF0C94C4244091DC
S11334F0C802242F30E08091C70290E0821B930B16
S1133500181619060CF052C04F5F4093C802F90117
S1133510E953FD4FB2809FB7F8948091DE039FBFBB
S113352081110C94C4248FB7F89494E09093DE0333
S11335308FBF44E050E06BE674E0CE0101967C015D
S11335400E94392D6E019AE2C90ED11C43E050E06D
S113355068E574E0C6010E94392D0AED12E080E8A6
S1133560D8011D928A95E9F71F92BF92DF92CF92FC
S1133570FF92EF928AE792E09F938F931F930F93AA
S11335800E94F02DF80101900020E9F78F010B5DF6
S113359012401093D9020093D8020E943C030FB644
S11335A0F894DEBF0FBECDBF0C94C4241092DD038B
S11335B01092C7021092C8028FB7F8941092DE03DB
S11335C08FBF89E0FE01BA96DE01119601900D923B
S11335D08A95E1F7E980FA800B811C812D813E8177
S11335E04F81588569858FEF0E941B070C94C42472
S11335F08091BA0281110C94C4248091BB028F5F24
S113360081708093BB02EDE0E89FD0011124A95999
S1133610B34F9C91913009F42CC78F5F81708093D4
S1133620BB02E89FF0011124E959F34F80818130F6
S113363011F00C94C4241DC78091AF0C811141C0BA
S113364040917C1250917D1260917E1270917F1294
S11336502FB7F894C0900312D0900412E090051292
S1133660F09006128091A90C9091AA0CA091AB0C39
S1133670B091AC0C8C0D9D1DAE1DBF1D2FBF409392
S11336807C1250937D1260937E1270937F1210927D
S1133690AF0C2FB7F89431E03093EF078093A90C67
S11336A09093AA0CA093AB0CB093AC0C4093031270
S11336B05093041260930512709306122FBF0E9458
S11336C073040E9472030E94AF0E0C94C4240E94DF
S11336D072032FB7F8941092EF072FBF40EC51E11B
S11336E0A0E0CC24CA94DC2CEC2CEFE7FE2E20E0E6
S11336F030E0B9E0B29FF001B39FF00D1124E05423
S1133700FE4EE085E1FF1BC0FA0180809180A2801B
S1133710B3802B013C01481859086A087B0884804F
S11337209580A680B78084189508A608B7088C14DD
S11337309D04AE04BF041CF475016401A1E02F5F75
S11337403F4F475F5F4F27303105A1F6AA2311F49D
S11337500C94C4241C141D041E041F0424F00E9491
S1133760AF0E0C94C424C0927C12D0927D12E092CD
S11337707E12F0927F1221E02093AF0C3FB7F894B1
S11337802093EF076093A90C7093AA0C8093AB0C61
S11337909093AC0CC0920312D0920412E0920512E2
S11337A0F09206123FBF0E9473040C94C4248091CB
S11337B0B40281110C94C4248091B50290E0019666
S11337C0817099278093B5022DE1289FF001299FEC
S11337D0F00D1124E15CFD4E3081313009F4A1C6B5
S11337E00196817099278093B502289FF001299F43
S11337F0F00D1124E15CFD4E8081813011F00C94B8
S1133800C4248FC68091B20281110C94C424E09127
S1133810B302EF5FE170E093B302AE2FB0E053E088
S1133820AA0FBB1F5A95E1F7AF52B14F8C9181306B
S113383009F4B9C6EF5FE170E093B302F0E043E04E
S1133840EE0FFF1F4A95E1F7EF52F14F808181306F
S113385011F00C94C424A7C68091B00281110C9479
S1133860C4248091B1028F5F81708093B102EBE038
S1133870E89FD0011124A95FBD4E9C91913009F4B9
S1133880A5C78F5F81708093B102E89FF001112476
S1133890E95FFD4E8081813011F00C94C42496C7F9
S11338A081E08093AC020E9478090C94C4248FB701
S11338B0F8941092F1071092F0071092AE0C109247
S11338C0AD0C1092E0121092DF121092EB0E1092D7
S11338D0EA0E8FBF0C94C4240E94080B0C94C424D9
S11338E08091A90281110C94C4241092AA02F09030
S11338F0AA0F41E0F4120C94C4240C9466249FB7DC
S1133900F894809184129FBF811110C05A9A48EE96
S113391053E060E070E082E00E947E038FB7F89489
S113392091E0909384128FBF0C94C424813051F49D
S11339308FB7F89492E0909384128FBF0E944B0348
S11339400C94C4248230D1F42FB7F89480912B0ABC
S113395090912C0A906890932C0A80932B0A1092D1
S11339603C0A10923B0A8FE080937A1283E08093A2
S113397084122FBF0E943F030C94C424833079F433
S11339808FB7F89494E0909384128FBF4EEE52E078
S113399060E070E082E00E947E030C94C4248430D2
S11339A099F48FB7F89421E030E43093220A2093FD
S11339B0210A92E090937A1295E0909384128FBF3B
S11339C00E943F030C94C424853079F48FB7F89493
S11339D096E0909384128FBF46E950E060E070E077
S11339E082E00E947E030C94C424863051F48FB785
S11339F0F89497E0909384128FBF0E944B030C9429
S1133A00C424873009F041C02FB7F89480911F0A6D
S1133A109091200A2FBF8335924171F08FB7F894AB
S1133A20109282128FBF8FB7F8941092DF038FBF6A
S1133A308AE00E941703A8C72FB7F8948091250A3B
S1133A409091260A83739772846098649093260AEF
S1133A508093250A80E199E19093280A8093270AAC
S1133A608091290A90912A0A88279E7F8F649093D7
S1133A702A0A8093290A86E080937A1288E0809348
S1133A8084122FBF0E943F037FC7883009F07CC790
S1133A908FB7F894109282128FBF0E948F080E94F1
S1133AA072036093E4117093E5118093E61190938F
S1133AB0E71184E690E0A0E0B0E08093E8119093F1
S1133AC0E911A093EA11B093EB118091EC118E7F70
S1133AD082608093EC1182E10E9417039FB7F894EF
S1133AE08091DE039FBF811136C08FB7F89493E0B5
S1133AF09093DE038FBF1092DC0345E050E06CE747
S1133B0074E0FE0131967F01CF010E94392D0AED48
S1133B1012E080E8D8011D928A95E9F7FF92EF92AE
S1133B208CE592E09F938F931F930F930E94F02D47
S1133B30F80101900020E9F78F010B5D124010930A
S1133B40D9020093D8020E943C030F900F900F906B
S1133B500F900F900F901092E50E2FB7F89480916C
S1133B6088129091821231E0309388122FBF911104
S1133B700BC7813009F408C78FB7F89494E0909389
S1133B8082128FBF81E00E94D108FEC69FB7F894CD
S1133B90809185129FBF811122C02FB7F894809124
S1133BA0E2129091E3128B56934093709068909335
S1133BB0240A8093230A8091250A9091260A9F76ED
S1133BC090649093260A8093250A84E080937A1265
S1133BD081E0809385122FBF0E943F03D5C68130B8
S1133BE051F48FB7F89492E0909385128FBF88E0D8
S1133BF08CBBEB9AC9C6823049F48FB7F89493E032
S1133C00909385128FBF0E944B03BEC6833041F54B
S1133C102FB7F8948091330A9091340A93708559A0
S1133C209C4F9093EA128093E9128091230A909119
S1133C30240A9F779093240A8093230A8091250A6B
S1133C409091260A9F7B9093260A8093250A84E00C
S1133C5080937A12809385122FBF0E943F0394C6EB
S1133C60843049F48FB7F89495E0909385128FBF10
S1133C700E944B0389C6853009F086C62FB7F89495
S1133C808091310A9091320A88279074892F99275C
S1133C902FBF892B89F52091E9123091EA129FB741
S1133CA0F8943093EB072093EA078091ED079FBFC8
S1133CB0833031F0853021F487E00E94170308C077
S1133CC08FB7F89491E09093ED078FBF0E9448035B
S1133CD080918812882351F08FB7F89494E09093E0
S1133CE082128FBF81E00E94D1084EC68FB7F8942C
S1133CF0109282128FBF48C68FB7F89494E09093C5
S1133D0085128FBF0E9445033FC69FB7F894209148
S1133D10E90E809186129FBF811140C0223069F460
S1133D202FB7F8948091210A9091220A956090937C
S1133D30220A8093210A2FBF0FC03FB7F8948091C5
S1133D40210A9091220A9A7F91609093220A80938B
S1133D50210A3FBF211110C62FB7F8948091210A80
S1133D609091220A92609093220A8093210A2FBF95
S1133D702FB7F8948091250A9091260A9F76906433
S1133D809093260A8093250A84E080937A1281E036
S1133D90809386122FBF0E943F03F6C5813051F4F1
S1133DA08FB7F89492E0909386128FBF88E08CBB13
S1133DB0EB9AEAC5823049F48FB7F89493E0909374
S1133DC086128FBF0E944B03DFC5833081F52FB766
S1133DD0F8948091310A9091320A882790729093D6
S1133DE0C1028091330A9091340A937085599C4F93
S1133DF09093EA128093E9128091210A9091220A09
S1133E009E7F9093220A8093210A8091250A9091A3
S1133E10260A9F7B9093260A8093250A84E0809348
S1133E207A12809386122FBF0E943F03ADC584305F
S1133E3049F48FB7F89495E0909386128FBF0E944F
S1133E404B03A2C5853009F09FC52FB7F894809124
S1133E50310A9091320A88279074892F99272FBFAD
S1133E60892BB1F58091C10281111AC08091E912A8
S1133E709091EA120E943A0580918812882351F0A9
S1133E808FB7F89494E0909382128FBF81E00E94E0
S1133E90D1087AC58FB7F894109282128FBF74C577
S1133EA08FEF9FEF0E943A0580918812882351F08A
S1133EB08FB7F89494E0909382128FBF81E00E94B0
S1133EC0D10862C58FB7F894109282128FBF5CC577
S1133ED08FB7F89494E0909386128FBF0E944203A8
S1133EE053C58091BF029091C0029C012F5F3F4F48
S1133EF03093C0022093BF029F938F9389E692E090
S1133F009F938F938E010F5F1F4F1F930F930E94F8
S1133F10F02D4CE36CE3C8010E946C119FB7F89438
S1133F20809187129FBF0F900F900F900F900F906A
S1133F300F90811109C08FB7F89491E09093871284
S1133F408FBF0E944B0320C5813009F01DC54FB7B8
S1133F50F8943091350A7091360AE091370AF0915D
S1133F60380A2091390A60913A0A80913B0A90916B
S1133F703C0A4FBF4F2F46954695469550E0443036
S1133F805105E1F124F44230510530F082C048304B
S1133F90510509F447C07DC02FB7F8947093961269
S1133FA030939712E370AE2FB0E0AA0FBB1FA35754
S1133FB0BD4E11969C93119712968C9381E090E0DC
S1133FC00E2E01C0880F0A94EAF790918D12892B66
S1133FD080938D122FBF8F3009F05BC06EE872E1C1
S1133FE080E00E948F1148E050E060E270E08EE8CB
S1133FF092E10E946B2D10928D124BC03FB7F89442
S1134000EF70B4E0EB9FF0011124E357FD4E63879A
S11340102487958786873FBF68E972E181E00E9423
S11340208F1137C022952071392F32953F70232B81
S1134030AC01E6E056954795EA95E1F74F73982F62
S11340409F71969585FF03C0822F891B02C0822F22
S1134050890F1FB7F894E8EDF2E196E0DF011D92B5
S11340609A95E9F71F924F931F928F9384E892E0F9
S11340709F938F93FF93EF930E94F02D1FBF68EDE2
S113408072E182E00E948F110FB6F894DEBF0FBE7A
S1134090CDBF8091881281110CC08FB7F89494E041
S11340A090938212109287128FBF80E00E94D108F1
S11340B06BC48FB7F89410928212109287128FBF3C
S11340C063C49FB7F894809183129FBF882319F02B
S11340D00E944B0359C48FB7F89491E090938312D4
S11340E08FBF0E94270850C48FB7F89490910D0297
S11340F0911135C08FBF8FB7F8949091A70291307A
S113410071F522E02093A7028FBF8FB7F89420E1C6
S113411030E03093E80E2093E70E2FE132E1309344
S1134120B10C2093B00C20E22093EE0723E02093FF
S1134130131310927B129093A6028FBF0E946A03FE
S11341401FB7F8948091FF118F7A816A8093FF11D1
S113415084E08093A7020E94F6021FBF15C48FBF9C
S11341608FE10E94170310C49FB7F89480918312C3
S11341709FBF882319F00E943F0306C49FB7F89499
S113418082E08093831280917A12880F82509FBFBD
S113419020E092E02817B0F43FB7F894422F50E0A3
S11341A0E92FF0E0EE0FFF1FE35EF54F60817181B0
S11341B0FA01E15EFD4E708361833FBF9F5F9F7094
S11341C02E5FE8CF0E942708DFC39FB7F894809141
S11341D07A129FBF9FB7F89420910D02211136C027
S11341E09FBF9FB7F8942091A702213079F522E070
S11341F02093A7029FBF9FB7F89420E130E030934B
S1134200E80E2093E70E2FE132E13093B10C2093B6
S1134210B00C880F82508093EE0783E080931313D1
S113422010927B121092A6029FBF0E946A031FB7CE
S1134230F8948091FF118F7E816E8093FF1184E04A
S11342408093A7020E94F6021FBF9EC39FBF81E214
S11342500E94170399C340E050E02AE0DA01A15E0E
S1134260BD4EE22FF0E0EE0FFF1FE35EF54F8C91A1
S113427090E0982F882711963C91832B918380831B
S11342802F5F2F704E5F5F4F4032510539F77CC36B
S11342908FB7F8949091791290930E0293E09093D3
S11342A0A8028FBF80910E029FB7F89480930D02ED
S11342B09FBF811169C39FB7F894809183129FBFF8
S11342C0813031F0823041F481E20E9417035CC3F3
S11342D08FE10E94170358C30E94160A55C31FB7E3
S11342E0F8948091A602882321F081E00E949D0F1A
S11342F002C00E940A101FBF47C38FB7F894909161
S1134300E60E90930C0293E09093A4028FBF8091E9
S11343100C02811101C0809880910C02811134C378
S113432081E08093890F1092DE120E94CA092CC387
S11343301092890F00910112109102128091DE12E5
S1134340811122C3FFB6F8948091A402833009F04E
S11343503FC080910C0281113BC08091BF11882322
S113436009F4FFC26091A50270E0CB010196A1E0BF
S1134370B0E08130910511F480E090E0282F26957B
S11343802695269530E0F901E154FE4E2081382F20
S11343903770AD0101C0440F3A95EAF7322F342348
S11343A031F04095242320838093A50206C086170C
S11343B0970711F00196DDCF8FEF8093E60E8FEF14
S11343C080930C0281E08093A40285E20E9417038B
S11343D0FFBE96E0169507959A95E1F70093E003E2
S11343E084E00E941703D0C28091EC0E8130E1F486
S11343F060E080E80E945C0988E290E00E94E007A7
S113440000E010E0F801E657F04F61E080810E947F
S11344105C0988E290E00E94E0070F5F1F4F0031C3
S1134420110581F71092EC0E8091ED0E813009F0A8
S1134430ABC260E080EC0E945C0988E290E00E94DC
S1134440E00700E010E0F801E656F04F61E08081FB
S11344500E945C0988E290E00E94E0070F5F1F4F12
S11344600031110581F71092ED0E8EC20E943903BE
S11344708BC2E091BB02FDE0EF9FC0011124FC015F
S1134480E859F34F26E0ADE3BAE001900D922A9586
S1134490E1F726E0E6E1F2E0A3E4BAE001900D9250
S11344A02A95E1F7FC01E959F34F978180859093B0
S11344B04A0A8093490A0385148561857285A80197
S11344C08BE49AE00E94622D8091AE0281111AC0A1
S11344D08091AF028230B1F40E947809811114C036
S11344E08DE39AE090931E1280931D12025F1F4F7A
S11344F01093B30C0093B20C81E08093AE028093CE
S1134500BA0242C265E001C067E08091BB022DE0BF
S1134510829FF0011124E959F34F10820E94A60AE8
S113452033C28091B502282F30E04DE1849FF00121
S11345301124AF01405C5D4E9091740C911126C022
S113454065E77CE06115710509F1EE5AFD4E86E0E0
S1134550DB0101900D928A95E1F786E098E0909353
S11345607C0C80937B0C50937E0C40937D0C8CE1EF
S113457090E09093800C80937F0C11E01093740C66
S113458080E10E9417031093B402FEC19DE1929F43
S1134590F001939FF00D1124E15CFD4E108265E063
S11345A00E94930AF1C1F090B30285E48093B50CA4
S11345B01092B60C86E68093BA0C8093B90C1092D4
S11345C0BC0C1092BB0C8FEF8093BD0C88E0F89E5E
S11345D080011124D801AF52B14F6D0116964D914F
S11345E05C911797CA0144968093B80C9093B70CCA
S11345F01196ED91FC91129780819181A281B381F2
S11346008093C50C9093C60CA093C70CB093C80CB0
S11346108091240290912502A0912602B091270254
S11346208093C10C9093C20CA093C30CB093C40CA0
S1134630F6016481758189EC9CE00E94622DD601AB
S113464013968C918093BE0C1092C00C1092BF0CE8
S1134650E5EBFCE080E090E0DC0121913191820FF8
S1134660931FA11DB11D2CE0E93CF207B1F7AD0188
S113467066277727411551056105710539F0AA2789
S1134680BB27840F951FA61FB71FF1CF8095909568
S1134690A095B0959093C00C8093BF0C80911C02A0
S11346A090911D02A0911E02B0911F028090C50C32
S11346B09090C60CA090C70CB090C80C4091C10C4F
S11346C05091C20C6091C30C7091C40C48255925BB
S11346D06A257B25482359236A237B23452B462BB4
S11346E0472B19F4E5ECFCE002C0E0E2F2E0808044
S11346F09180A280B38080959095A095B095AC01EF
S1134700BD01482159216A217B21481759076A07AD
S11347107B0719F480E092E02DC05091B90244E087
S11347206AE0252F30E0629FC001639F900D112441
S1134730DC01A551BD4E4D905D906D907C90481468
S113474059046A047B0429F45093B90281519D4EA3
S11347500BC0C901019683709927582F415009F75E
S11347608093B90280E090E09093C3028093C202E8
S1134770009719F00E94D50A25C08091B6028111D4
S113478011C080819181A281B3818093E4129093BE
S1134790E512A093E612B093E7121092B7020E94BA
S11347A0170810C0F801EF52F14F1082F11003C046
S11347B00E946A09E9C0B1E0FB12E6C085E00E94EC
S11347C0690AE2C081E08093B202DEC0E091B102E6
S11347D0EE2EF12C2BE0E29FF0011124E95FFD4E57
S11347E0418552858A010C5F1F4F85818093EF0EAE
S11347F086818093F00E6781708583EF9EE00E942E
S1134800622D1092F20E1092F10EA8015695479562
S1134810EFEEFEE020E030E080E090E0DC012417E1
S1134820350749F061917191860F971FA11DB11D44
S11348302F5F3F4FF4CFAD01662777274115510510
S11348406105710539F0AA27BB27840F951FA61FA0
S1134850B71FF1CF80959095A095B0959093F20EE7
S11348608093F10E8091D10E811126C082ED9EE0DD
S1134870892B11F12BE02E9DC0012F9D900D112449
S1134880885F9D4E9093D30E8093D20EFF24F394B1
S1134890F092D40E8FEE9EE09093D60E8093D50EB8
S11348A01093D80E0093D70EF092D10E84E10E949B
S11348B01703F092B00268C08BE08E9DF0018F9DCB
S11348C0F00D1124E95FFD4E10825EC09091AF0F90
S11348D08091B00F9093B80F8093B70F9091B10F60
S11348E08091B20F9093BA0F8093B90F4091B50F96
S11348F05091B60F8A01085F1F4F0093BC0F1093AD
S1134900BB0F6091B30F7091B40F8FEB9FE00E94C7
S1134910622D8091D90E81111FC08AED9EE0892BF2
S1134920D9F08BEA9FE09093DB0E8093DA0E81E15D
S11349308093DC0E87EB9FE09093DE0E8093DD0E78
S11349401093E00E0093DF0EF092D90E84E10E94E2
S11349501703F092A90218C01092AA0F0E943C03F8
S113496013C081E080930C021092A40280917A001B
S11349708F7780937A002CCD2FB7F8948091210AF9
S11349809091220A9D7FEFC9C05BDF4F0FB6F89468
S1134990DEBF0FBECDBFDF91CF911F910F91FF906E
S11349A0EF90DF90CF90BF90AF909F908F907F90CB
S11349B06F905F904F903F902F9008958FB7F89429
S11349C008958FBF08951F920F920FB60F9211246E
S11349D00BB60F922F933F934F935F936F937F93F5
S11349E08F939F93AF93BF93EF93FF932FB7F89455
S11349F08091E10E9091E20EA091E30EB091E40E4D
S1134A000196A11DB11D8093E10E9093E20EA09337
S1134A10E30EB093E40E2FBF78940E947304FF91C9
S1134A20EF91BF91AF919F918F917F916F915F9122
S1134A304F913F912F910F900BBE0F900FBE0F908F
S1134A401F9018951F920F920FB60F9211240F907A
S1134A500FBE0F901F9018951F920F920FB60F92D2
S1134A6011240BB60F92CF92DF92EF92FF920F9325
S1134A701F932F933F934F935F936F937F938F93E2
S1134A809F93AF93BF93CF93DF93EF93FF932EB591
S1134A90E091F007F091F107309739F08091EA0E38
S1134AA09091EB0EE80FF91F20838091EA0E90910C
S1134AB0EB0E01969093EB0E8093EA0E8CB58F77F4
S1134AC08CBDC091EA0ED091EB0E2091DF12309193
S1134AD0E012C217D307D8F50091AD0C1091AE0CBB
S1134AE0C090F007D090F107CE010A962817390735
S1134AF008F4C9017C0121E0E21AF108CE15DF05B2
S1134B00A0F40115110529F0F801EC0FFD1F8081B7
S1134B1001C080E00E94A803C114D10421F0F60171
S1134B20EC0FFD1F80832196E9CF8CB580688CBD86
S1134B300115110531F0F801EC0FFD1F80818EBDC8
S1134B4001C01EBCD093EB0EC093EA0E11C01092AC
S1134B50F1071092F0071092AE0C1092AD0C109267
S1134B60E0121092DF121092EB0E1092EA0E8EB544
S1134B70FF91EF91DF91CF91BF91AF919F918F9171
S1134B807F916F915F914F913F912F911F910F9161
S1134B90FF90EF90DF90CF900F900BBE0F900FBE61
S1134BA00F901F9018951F920F920FB60F92112419
S1134BB00F900FBE0F901F9018951F920F920FB673
S1134BC00F9211240F900FBE0F901F9018951F92F3
S1134BD00F920FB60F9211240BB60F922F933F939F
S1134BE04F935F936F937F938F939F93AF93BF93F1
S1134BF0EF93FF9386E10E941703FF91EF91BF911A
S1134C00AF919F918F917F916F915F914F913F9160
S1134C102F910F900BBE0F900FBE0F901F90189501
S1134C201F920F920FB60F9211240BB60F922F936F
S1134C303F934F935F936F937F938F939F93AF9320
S1134C40BF93EF93FF9380918212823029F08330D7
S1134C5041F0811116C00AC00E9415030E94450349
S1134C6012C00E9415030E9442030DC08091881255
S1134C70882349F086E0809382128DE10E94170315
S1134C8002C00E941503FF91EF91BF91AF919F91D4
S1134C908F917F916F915F914F913F912F910F90E1
S1134CA00BBE0F900FBE0F901F9018951F920F927E
S1134CB00FB60F9211240F900FBE0F901F901895EE
S1134CC01F920F920FB60F9211240F900FBE0F90E8
S1134CD01F9018951F920F920FB60F9211240F90E8
S1134CE00FBE0F901F9018951F920F920FB60F9240
S1134CF011240F900FBE0F901F9018951F920F92C2
S1134D000FB60F9211240BB60F922F933F934F932C
S1134D105F936F937F938F939F93AF93BF93EF931F
S1134D20FF930E946A038091B900982F987F209185
S1134D30A702243079F1263021F0233009F04DC048
S1134D4013C08091A602813049F4903429F483E0A1
S1134D508093A70281E010C084E016C09831E1F787
S1134D6083E08093A70213C02091A602213039F476
S1134D70807F803541F480E00E949D0F2EC09832E0
S1134D8031F0903321F081E00E943D1026C00E9452
S1134D900A1023C0809113138E7F80931313809184
S1134DA0FF118F7D983029F0903119F08093FF1115
S1134DB0EACF80648093FF1191E08091A602813054
S1134DC009F090E08091E70E880F892B8093BB0057
S1134DD086E08093A7020E94F602FF91EF91BF91B3
S1134DE0AF919F918F917F916F915F914F913F917F
S1134DF02F910F900BBE0F900FBE0F901F90189520
S1134E001F920F920FB60F9211240BB60F922F938D
S1134E103F934F935F936F937F938F939F93AF933E
S1134E20BF93EF93FF93909106018091C60297FD83
S1134E3011C08350883008F07BC08091BC028695F5
S1134E408093BC029091060196FF72C080688093A3
S1134E50BC026EC081508093C602811169C09091DA
S1134E60BC02903E09F461C08091C402811155C016
S1134E70993549F0903F19F0923149F404C081E02A
S1134E808093C40252C081E08093C5024EC08091D9
S1134E90C50260E081111FC081E4262F30E0280F95
S1134EA0311D35952795A901440F551FFA01EC5280
S1134EB0FE4FE491E91718F461E0620F09C09E17F0
S1134EC018F48FEF820F04C0FA01EB52FE4F1EC09C
S1134ED0861718F72AC081E4262F30E0280F311DE9
S1134EE035952795A901440F551FFA01E45BFE4F40
S1134EF0E491E91718F461E0620F0CC09E1718F4EE
S1134F008FEF820F07C0FA01E35BFE4F84910E948A
S1134F1009050BC0861700F708C01092C40292312D
S1134F2011F0993511F41092C5028BE08093C602FA
S1134F30FF91EF91BF91AF919F918F917F916F916D
S1134F405F914F913F912F910F900BBE0F900FBE29
S1134F500F901F9018951F920F920FB60F92112465
S1134F600BB60F922F933F934F935F936F937F935F
S1134F708F939F93AF93BF93CF93EF93FF9320911E
S1134F8078003091790078944FB7F8948091E112C9
S1134F9081FB992790F981704FBF811122C08091C4
S1134FA07A00877F80937A008091890F813019F08D
S1134FB0823091F036C0911107C08DE790E00E94D5
S1134FC0E0070E94CA092DC03093021220930112F7
S1134FD086E20E94170325C0992379F31092890F62
S1134FE020C0CFB7F8940E944E03CFBF2FB7F894D8
S1134FF080917A0086FB992790F9877F806190FBE6
S113500086F98F7780937A00877F80618F7B8F7793
S113501080937A00877F80618F7B806880937A0099
S11350202FBFFF91EF91CF91BF91AF919F918F913E
S11350307F916F915F914F913F912F910F900BBE94
S11350400F900FBE0F901F901895CF93DF93CDB79D
S1135050DEB76B970FB6F894DEBF0FBECDBF0FB7A8
S1135060F89448E250E06FEF70E081E89CE00E9421
S11350706B2D8FEF809389128093E81288EE91E074
S113508090938B1280938A12089A099A0A9A10981C
S11350901198129880E0877F8F7E8F7D8F7B8F772A
S11350A080937A0081E083BF0E9403038F3F19F04D
S11350B00E944F12F9CF87B18C6F87B918E288EE3E
S11350C093E00E94E0071150D1F760E088E20E946B
S11350D05C0988E290E00E94E00760E088E20E94B8
S11350E05C0988E290E00E94E00760E08CE00E94A6
S11350F05C0988E290E00E94E00760E081E00E94A1
S11351005C0988EE93E00E94E00788EE93E00E9439
S1135110E00760E086E00E945C0988E290E00E947B
S1135120E00740E250E060E270E08AE89FE00E941D
S11351306B2D81E08093EC0E8093ED0E10928C1217
S1135140109200121092BF111FEF1093EE0E1093E5
S1135150B40C729A739A7498759A0E940103779AA0
S11351606A9A6B9A6C9A6D9A6E9A6F9A82B112B817
S113517081B111B96FE380E00E948D106FE381E08B
S11351800E948D1060EC80E00E948D1060EC81E044
S11351900E948D108091B60080728093B600809139
S11351A0B60081FDFCCF82E08093B0008091B60010
S11351B080FDFCCF85E08093B1008CE78093B30041
S11351C0809170008260809370000E9472036093EB
S11351D0C9117093CA118093CB119093CC1180E3C1
S11351E095E7A0E0B0E08093CD119093CE11A09309
S11351F0CF11B093D0118091D1118E7F82608093B2
S1135200D11182E10E941703809128029091290212
S113521090932602809327020E9403038F3F19F084
S11352200E944F12F9CF0FBF7894ECEEF3E099E0AF
S113523089E22FB7F8942FBFAF01465F5F4F5783C2
S113524046839F012D5E3F4F31872087DA01292F46
S11352501D922A95E9F740855185DA01282F1D9280
S11352602A95E9F7FB96A7E0E136FA0711F78FB71D
S1135270F8941092ED071092EC038FBF1092E203A2
S113528049E050E06FEF70E083EE93E00E946B2DF5
S11352901092E1031092E00363E875E0CE014296B8
S11352A00E94242D198E10928C1210920012CE019D
S11352B042960E94D1040E9468050E9431129FB751
S11352C0F894809107018F77809307019FBF9FB760
S11352D0F894809107018F7B809307019FBF809191
S11352E06D00806880936D008FB7F8949BE0909375
S11352F0C6021092C5021092C4028FBF809168004A
S11353008460809368009FB7F894809182129FBF55
S1135310811131C09FB7F89481E08093821210927A
S11353208312109284121092881280E2EDE1FAE066
S1135330DF01282F1D922A95E9F7EFE1F2E1DF0161
S11353401D928A95E9F79FBF529A5A98519A599893
S113535053985B988091690080688093690080917C
S113536069008F7B8093690041E050E060E070E069
S113537082E00E947E038FB7F89451E05093DE03DD
S11353808FBF80EC8093240298EA909325022AE24E
S11353902093260242E0409327023FEF30931C0201
S11353A030931D0230931E0210921F02809320023C
S11353B09093210220932202509323021F924F9331
S11353C01F922F931F929F931F928F938EE892E0C8
S11353D09F938F938E010F5F1F4F1F930F930E9414
S11353E0F02D4CE360E0C8010E946C111092DD03C3
S11353F00FB6F894DEBF0FBECDBF8091AF0281110E
S113540036C0209A0E94FD02249A2C981B8E1A8E74
S11354108A8D9B8D80329E4430F48A8D9B8D0196BB
S11354209B8F8A8FF5CF2C9A1B8E1A8E8A8D9B8D1B
S113543080329E4430F48A8D9B8D01969B8F8A8F97
S1135440F5CF52985A9A84E08CBB809169008062AF
S113545080936900809169008F7E80936900EA9A45
S11354600E947809811103C081E08093AF028FB755
S1135470F8941092DE038FBF1FB7F8940E940303C1
S11354808F3F09F058C080917000837089F080913B
S1135490B6008A71E1F78091B3009091B200891B44
S11354A0883040F08091B200893F20F483E003C04B
S11354B085E001C082E0E0916E00E67029F59091EC
S11354C06F009E7221F5E0917100EE72E9F4909103
S11354D072009E72E1F4E0917300EE72A9F40CB4D0
S11354E007FC15C09091C100987189F4E091C9003E
S11354F0E87151F49091BC0092FD09C090917A003A
S113550097FD04C0E5E003C0E0E001C0E1E093B72B
S11355108E1708F4E82FF0E0EA5BFE4F8491E92F40
S1135520E07FE160E82BE3BF78948895F89483B733
S11355308E7F83BFA3CF1FBF0E944F129DCFAA1B94
S1135540BB1B51E107C0AA1FBB1FA617B70710F06A
S1135550A61BB70B881F991F5A95A9F7809590959C
S1135560BC01CD010895EE0FFF1F0590F491E02DCD
S113557009942F923F924F925F926F927F928F92F3
S11355809F92AF92BF92CF92DF92EF92FF920F93CE
S11355901F93CF93DF935C016B017A016115710551
S11355A019F0FB0191838083E114F10429F0C70110
S11355B00297839708F0F1C0E5012196F501108167
S11355C0812F90E00E941C2D892B11F05E01F4CFF5
S11355D01D3229F42196F501118101E007C01B3227
S11355E021F4E5012296F501118100E0E114F104B2
S11355F059F1F0E1EF16F10461F41033E1F488811C
S11356008F7D883569F519812296026070E1E72E55
S1135610F12C88E0E816F10439F12CF4F2E0EF16ED
S1135620F104C9F12AC08AE0E816F10479F0E0E156
S1135630EE16F10411F550E1E52EF12C812C912C9C
S1135640A12C68E0B62E2CC01033C9F23AE0E32E48
S1135650F12C4CEC842E982CA82C4CE0B42E20C0B9
S113566010E3E114F104A9F698E0E92EF12C812C61
S1135670912CA12C20E1B22E13C060E070E080E0F8
S113568090E89701442737FD4095542F0E94DA3063
S113569049015A0105C0812C912CA12C80E4B82E1B
S11356A060E020E030E0A9012701662457FC609403
S11356B0762C1E01E0EDE10FEA3060F08FEB810FF4
S11356C08A3110F4E9EC05C08FE9810F8A3128F59D
S11356D0E9EAE10F8E2F90E08E159F05F4F467FD43
S11356E018C082169306A406B50690F0C301B20151
S11356F00E94CA309B01AC012E0F311D411D511D6A
S1135700213031054105F0E85F0710F461E001C084
S11357106FEF2196F1011081CCCF802F8170C114DD
S1135720D10471F0662329F02197F601D183C08357
S113573007C001FF19C02297F601D183C08314C0AA
S113574067FF12C0811105C02FEF3FEF4FEF5FE7F6
S113575004C020E030E040E050E882E290E0909322
S113576015138093141316C0882341F05095409567
S1135770309521953F4F4F4F5F4F0CC057FF0AC0E4
S113578082E290E090931513809314132FEF3FEF70
S11357904FEF5FE7B901CA0104C060E070E080E048
S11357A090E0DF91CF911F910F91FF90EF90DF90E8
S11357B0CF90BF90AF909F908F907F906F905F90AD
S11357C04F903F902F9008952F923F924F925F9267
S11357D06F927F928F929F92AF92BF92CF92DF92FD
S11357E0EF92FF920F931F93CF93DF9300D000D0DB
S11357F000D0CDB7DEB75C016B017A01611571058C
S113580019F0DB018D939C93E114F10429F0C70195
S11358100297839708F0DCC03501BFEF6B1A7B0A4F
S1135820F5011081812F90E00E941C2D892B11F02D
S11358305301F2CF1D3249F43501F2E06F0E711CB1
S1135840D50111961C9101E009C01B3231F43501D8
S1135850B2E06B0E711CF501118100E0E114F1045A
S113586009F4C4C0F0E1EF16F10489F4103399F59A
S1135870D3018C918F7D883509F0B2C011961C91AB
S1135880B2E06B0E711C026050E1E52EF12CEAE0EF
S1135890EE16F10409F4B0C0F0E1EF16F104D9F00A
S11358A028E0E216F10451F438E0E32EF12C8824C8
S11358B08A94982CA82C4FE1B42E13C06FEF7FEF7D
S11358C0CB019701442737FD4095542F0E94DA30CD
S11358D049015A0106C088248A94982CA82C2FE0E8
S11358E0B22E7E826D8260E020E030E0A9012701C3
S11358F0662457FC6094762C2D803E80E0EDE10F09
S1135900EA3060F08FEB810F8A3110F4E9EC05C0C6
S11359108FE9810F8A3190F5E9EAE10F8E2F90E04B
S11359208E159F055CF56F3F09F182169306A40658
S1135930B506D8F0C301B2010E94CA302E2F30E060
S113594040E050E029833A834B835C83260F371F62
S1135950481F591F89819A81AB81BC812817390757
S11359604A075B0710F061E001C06FEFED81FE8133
S11359703196FE83ED83D1011C91BECFC114D104B5
S113598089F0662339F08D819E810197F601918318
S1135990808308C001FF06C08D819E810297D601D5
S11359A08D939C9300FF07C05095409530952195A9
S11359B03F4F4F4F5F4F67FF10C082E290E09093DC
S11359C01513809314136FEF7FEF8FEF9FEF1BC0BE
S11359D060E070E080E090E016C0B901CA0113C035
S11359E010E3E114F10409F45FCF51CF103309F44B
S11359F03FCF9AE0E92EF12C89E9882E982CA82C27
S1135A0089E1B82E6ECF26960FB6F894DEBF0FBE8E
S1135A10CDBFDF91CF911F910F91FF90EF90DF9059
S1135A20CF90BF90AF909F908F907F906F905F903A
S1135A304F903F902F9008959111FDC2803219F03C
S1135A4089508550D0F70895FB01DC0105900D9233
S1135A500020E1F70895FB01DC014150504030F093
S1135A608D910590801919F40020B9F7881B990BC2
S1135A700895FB01DC014150504048F005900D921F
S1135A800020C9F701C01D9241505040E0F708952D
S1135A90FB0155915523A9F0BF01DC014D91451738
S1135AA04111E1F759F4CD010590002049F04D91E1
S1135AB040154111C9F3FB014111EFCF81E090E0A2
S1135AC001970895FB01DC0102C001900D92415041
S1135AD05040D8F70895DC0101C06D934150504007
S1135AE0E0F70895FC018191861721F08823D9F706
S1135AF0992708953197CF010895FB01DC014150A6
S1135B00504048F001900D920020C9F701C01D9249
S1135B1041505040E0F70895FA01A191B0810097F7
S1135B2019F41097E1F0CD01DC01CD010D900020B6
S1135B3011F4C00113C0FB012191222319F0201597
S1135B40D9F7F3CFFB012191201519F41E92119678
S1135B5006C02223C1F70D900020A1F7D001FA015D
S1135B60A193B08308950F931F93CF93DF93CDB781
S1135B70DEB72E970FB6F894DEBF0FBECDBF0D89EA
S1135B801E898F89988D26E02C831A83098397FFB9
S1135B9002C080E090E801979E838D83AE01455E4C
S1135BA05F4F698D7A8DCE0101960E94202E4D8122
S1135BB05E8157FD0AC02F813885421753070CF4C4
S1135BC09A01F801E20FF31F10822E960FB6F89493
S1135BD0DEBF0FBECDBFDF91CF911F910F9108950E
S1135BE00F931F93CF93DF93CDB7DEB72E970FB6E6
S1135BF0F894DEBF0FBECDBF0D891E8986E08C836D
S1135C001A8309838FEF9FE79E838D83AE01475EDE
S1135C105F4F6F89788DCE0101960E94202E2F81CF
S1135C203885F801E20FF31F10822E960FB6F89410
S1135C30DEBF0FBECDBFDF91CF911F910F910895AD
S1135C402F923F924F925F926F927F928F929F9288
S1135C50AF92BF92CF92DF92EF92FF920F931F9376
S1135C60CF93DF93CDB7DEB72C970FB6F894DEBF92
S1135C700FBECDBF7C016B018A01FC011782168225
S1135C80838181FFBDC1CE0101964C01F70193814F
S1135C90F60193FD859193FF81916F01882309F4A7
S1135CA0ABC1853239F493FD859193FF81916F01E6
S1135CB0853229F4B70190E00E943430E7CF512CAB
S1135CC0312C20E02032A0F48B3269F030F48032A1
S1135CD059F0833269F420612CC08D3239F080335D
