:100000000C94CF020C94E7240C94F1240C94FB2460
:100010000C9424250C946A250C9474250C947E254C
:100020000C9488250C94EE020C94EE020C94142689
:100030000C94EE020C94F7230C94EE020C943624EC
:100040000C94EE020C94EE020C94EE020C94EE0270
:100050000C94EE020C94EE020C94EE020C94EE0260
:100060000C9440240C94EE020C94EE020C94EE02DC
:100070000C94EE020C94BF260C94EE020C94EE024B
:100080000C94EE020C94EE020C94EE020C94EE0230
:100090000C94EE020C94EE020C94EE020C94922559
:1000A0000C94EE020C94EE020C94EE020C94EE0210
:1000B0000C94EE020C94EE020C94EE020C94EE0200
:1000C0000C94EE020C94EE020C94EE020C94EE02F0
:1000D0000C94EE020C94EE020C94EE020C94EE02E0
:1000E0000C94EE029511F1117D128E130A1437143F
:1000F00043144F145B1482145A157A15C1158517D1
:10010000BC17C01742186818B318231950197C1966
:10011000A219A919BE19641C701C5E1D1D1E091FA1
:100120002F2042208220B320F92016213D214B218F
:100130006621C22197159A159D15A015A315A61520
:10014000A915AC15AF1500020E060C040D090E78AA
:10015000155116211A591B531C411D571E222143AC
:100160002258234424452578262329202A562B4625
:100170002C542D522E25314E324233483447355AB5
:100180003626394C3A4D3B4A3C553D2F3E28413BA3
:10019000424B4349444F453D4629493A4A5F4B4CFF
:1001A0004C784D504E3F5278547855605A0A5B5EF9
:1001B0005D2A613E660869316B346C377030712C92
:1001C0007232733574367538792B7A337B2D7C2AED
:1001D0007D3900000D090E7C157116311A791B73DB
:1001E0001C611D771E322163227823642465253427
:1001F000263329202A762B662C742D722E35316EEB
:10020000326233683467357A3636392C3A6D3B6A58
:100210003C753D373E38412C426B4369446F453055
:100220004639492E4A2D4B6C4C6F4D704E2B526FF8
:10023000546F555C5A0A5B785D27613C66086931EA
:100240006B346C377030712C72327335743675388C
:10025000792B7A337B2D7C2A7D3900000000000049
:100260000000005F00000007000700147F147F14E7
:10027000242A7F2A1223130864623649552250002B
:1002800005030000001C2241000041221C00082A36
:100290001C2A0808083E080800503000000808081A
:1002A0000808006060000020100804023E51494523
:1002B0003E00427F400042615149462141454B3159
:1002C0001814127F1027454545393C4A49493001E9
:1002D000710905033649494936064949291E003640
:1002E0003600000056360000000814224114141491
:1002F00014144122140800020151090632497941BF
:100300003E7E1111117E7F494949363E41414122CD
:100310007F4141221C7F494949417F090901013E32
:10032000414151327F0808087F00417F4100204051
:10033000413F017F081422417F404040407F02043A
:10034000027F7F0408107F3E4141413E7F09090939
:10035000063E4151215E7F091929464649494931E6
:1003600001017F01013F4040403F1F2040201F7F8F
:100370002018207F63140814630304780403615178
:1003800049454300007F4141020408102041417F5C
:100390000000040201020440404040400001020409
:1003A0000020545454787F4844443838444444200E
:1003B000384444487F3854545418087E09010208D0
:1003C0001454543C7F0804047800447D40002040CD
:1003D000443D00007F10284400417F40007C041809
:1003E00004787C0804047838444444387C14141499
:1003F00008081414187C7C08040408485454542039
:10040000043F4440203C4040207C1C2040201C3CB9
:100410004030403C44281028440C5050503C446428
:10042000544C44000836410000007F000000413673
:10043000080008082A1C08081C2A08086E6F746542
:10044000006E616D6500716469616C007069636F55
:1004500064650066726571006964004368616E6E70
:10046000656C2044422046756C6C00676574006DB5
:100470007367007075726765616C6C006C6973748A
:100480000075706461746500616464006F6B0041A5
:100490006C7265616479206661766F7572697465E6
:1004A00021004368616E6E656C206E6F7420696E0A
:1004B000206C69737421004661766F75726974658A
:1004C000206E6F7420736574210042616E64206C2D
:1004D000696D6974207265616368656421004442D6
:1004E000206572726F72210044422066756C6C2127
:1004F000004661766F7572697465732066756C6C01
:1005000021004368616E6E656C206C6973742066AF
:10051000756C6C2100496E76616C6964206368615A
:100520006E6E656C2100464D436C69636B20696E8D
:100530006974206661696C65642100556E6B6E6F2D
:10054000776E206572726F7221004572726F723A17
:1005500000202020202020202020202020202020BB
:1005600020202020202000202020202000202020CB
:10057000202020202000566F6C756D653A004D4894
:100580007A00456E746572204E6F74653A00456E50
:10059000746572204368616E6E656C3A00001124C8
:1005A0001FBECFEFD1E2DEBFCDBF12E0A0E0B2E0D0
:1005B000EAE8F0E600E00BBF02C007900D92AA3C0B
:1005C000B107D9F713E1AAECB2E001C01D92A7333D
:1005D000B107E1F70E9452270C9443300C940000BD
:1005E00080911F128093BC000895289A089528983E
:1005F000089576980895769A08958091A9128F3F6C
:1006000069F0E82FF0E0E056F34F90819093A91243
:100610009F3F11F4909309139FEF90830895EB98F7
:1006200008959FB7F894E82FF0E0E056F34F20814B
:100630002F3F99F4E0910913E81779F02091A9125E
:100640002F3F19F48093A91204C0F0E0E056F34F55
:1006500080838093091380E001C085E09FBF0895E7
:100660008BE00C94110388E00C9411038DE00C9442
:10067000110380E20C9411038CE10C9411038BE1C3
:100680000C94110382E00C9411038EE10C9411037D
:10069000ECE7F0E0208180917B00308190818870D0
:1006A000880F880F2F71822B35FB222720F920FB22
:1006B00086F99295969596959370292F27952227DE
:1006C0002795822B969508958FB7F8949091BC004A
:1006D00090931F128FBF08952FB7F8946091020F67
:1006E0007091030F8091040F9091050F2FBF089513
:1006F000CF92DF92EF92FF92CF93C82F6A017B01D6
:100700000E946C0329E0C29FF0011124DF01A05276
:10071000BE4E6D937D938D939C9313971496CD92BB
:10072000DD92ED92FC921797E851FE4E8081816038
:100730008260808382E1CF91FF90EF90DF90CF9035
:100740000C9411038EBD0DB407FEFDCF8EB5089538
:100750000C94A203CF93DF9300D0CDB7DEB76A83AA
:1007600089830E94F70289810E94A8036A81862FEB
:100770000E94A8030F900F90DF91CF910C94F50287
:10078000CF93DF931F92CDB7DEB789830E94F70224
:1007900089810E94A80380E00E94A20389830E94AD
:1007A000F50289810F90DF91CF910895CF93DF9368
:1007B00000D0CDB7DEB76A8389830E94F7028981B2
:1007C00080680E94A8036A81862F0E94A8030F9068
:1007D0000F90DF91CF910C94F5028F929F92AF9280
:1007E000BF92CF92DF92EF92FF920F931F93CF931E
:1007F000DF932FEF280F9DE1299F9001112489019C
:10080000015A1D4EF8019081911140C0E901C05A72
:10081000DD4E2097D9F17A0151E0598318821B826D
:1008200098E09A8396E09C8344E04D838090240274
:1008300090902502A0902602B09027028786908A89
:10084000A18AB28AD901A859BD4EE6E1F2E0492F4A
:1008500001900D924A95E1F7D901AE58BD4EFB01CA
:1008600001900D929A95E1F7F701C080D180E28066
:10087000F380F801C18ED28EE38EF48E8F831E82B8
:10088000508383E10E94110380E001C085E0DF9185
:10089000CF911F910F91FF90EF90DF90CF90BF907D
:1008A000AF909F908F9008952FB7F89480910E0885
:1008B000882309F14091231250912412609125124E
:1008C000709126128091C90C9091CA0CA091CB0C0A
:1008D000B091CC0C840F951FA61FB71F4091020F3B
:1008E0005091030F6091040F7091050F481759073D
:1008F0006A077B0711F02FBF089510920E082FBFD3
:1009000081E10C941103BC0140910B042BE034E015
:1009100090E0941761F0255C3F4FF901F997019041
:10092000F081E02DE617F70721F09F5FF2CF8FEF00
:100930000895892F08952FB7F8949091A2122FBF90
:1009400091110EC09FB7F89423E02093A212109249
:10095000A6128093090F9FBF0E943C0380E0089578
:1009600081E00895DC0181E04D91442311F1209153
:10097000AD1230E090912012F90154E0EE0FFF1F0C
:100980005A95E1F7E90FF11DE655F04F40839F5F5F
:1009900090932012F901E45FF04F8083903121F7AA
:1009A000109220122F5F3F4F217033272093AD12FA
:1009B000DBCF089590910C0880930B08923031F0B2
:1009C000983031F0913039F48CE003C080E001C000
:1009D00081E00C94110308958FB7F894EBEAF7E0E7
:1009E00010821182128213828FBF89E0E1EBF7E05F
:1009F000DF011D928A95E9F781E4EAEBF7E0DF0178
:100A00001D928A95E9F786E0EBEFF7E0DF011D9292
:100A10008A95E9F708953FB7F89490930A08809370
:100A2000090820910C083FBF2430D9F02530C9F4C3
:100A300089339440E0F080910B04882391F00E9468
:100A4000EC048FB7F89420910D0430910E0430938C
:100A500008082093070893E090930C088FBF0C942C
:100A600033038FB7F89491E090930C088FBF0C94E8
:100A700042030F931F93CF93DF9300D01F92CDB704
:100A8000DEB7809100041F928F9382E992E09F93DA
:100A90008F938E010F5F1F4F1F930F930E941D2D89
:100AA0001B821092AD1288E080932012C8010E9430
:100AB000B20487E20E9411030F900F900F900F90E5
:100AC0000F900F900F900F900F90DF91CF911F918B
:100AD0000F9108952F923F924F925F926F927F9263
:100AE0008F929F92AF92BF92CF92DF92EF92FF923E
:100AF0000F931F93CF93DF93CDB7DEB7AD970FB6AC
:100B0000F894DEBF0FBECDBF2FB7F8949091FD03D0
:100B10002FBF9111F3C08B018BA78FB7F89492E090
:100B20009093FD038FBF44E050E068E874E0CE018D
:100B300001961C010E94662C9E012B5F3F4F47E0EF
:100B400050E061E874E0C9012CA73DA70E94662C23
:100B50002E019CE0490E511C43E050E068E574E032
:100B6000C2010E94662C5E01AFE0AA0EB11C45E0F6
:100B700050E063E574E0C5010E94662C4E01BAE1C5
:100B80008B0E911C47E050E06CE474E0C4010E94BD
:100B9000662C6E0184E1C80ED11C46E050E066E48C
:100BA00074E0C6010E94662C7E0191E2E90EF11C00
:100BB00045E050E061E474E0C7010E94662C3E010C
:100BC000A6E26A0E711C45E050E06CE374E0C301DC
:100BD0000E94662CE9EFF2E080E8DF011D928A9521
:100BE000E9F72CA53DA5BBA5BF3FA1F5D8011896F7
:100BF0008C9118978F9317968C9117978F937F925C
:100C00006F9214968C9114978F9313968C911397DF
:100C10008F939F928F9212968C9112978F93119629
:100C20008C9111978F93BF92AF928C911F928F935B
:100C3000DF92CF9216968C9116978F9315968C9182
:100C40008F93FF92EF921F921F925F924F923F926B
:100C50002F9237C09BA59F3008F040C0D80118964E
:100C60008C9118978F9317968C9117978F937F92EB
:100C70006F9214968C9114978F9313968C9113976F
:100C80008F939F928F9212968C9112978F931196B9
:100C90008C9111978F93BF92AF928C911F928F93EB
:100CA000DF92CF9216968C9116978F9315968C9112
:100CB0008F93FF92EF921F929F935F924F923F9379
:100CC0002F938BE392E09F938F93FF93EF930E9478
:100CD0001D2D0FB6F894DEBF0FBECDBF1092780366
:100CE000E9EFF2E001900020E9F7CF018A5F92403E
:100CF0009093F8028093F7020E943603AD960FB6E8
:100D0000F894DEBF0FBECDBFDF91CF911F910F9141
:100D1000FF90EF90DF90CF90BF90AF909F908F901B
:100D20007F906F905F904F903F902F900895EF923B
:100D3000FF920F931F93CF93DF93CDB7DEB7299721
:100D40000FB6F894DEBF0FBECDBF9FB7F894809169
:100D5000FD039FBF811133C08FB7F89495E0909346
:100D6000FD038FBF49E050E063E774E0CE010196D8
:100D70007C010E94662C09EF12E080E8F8011192D4
:100D80008A95E9F7FF92EF9285E692E09F938F9321
:100D90001F930F930E941D2DF80101900020E9F789
:100DA0008F010A5F12401093F8020093F7020E942D
:100DB00036030F900F900F900F900F900F90299681
:100DC0000FB6F894DEBF0FBECDBFDF91CF911F915C
:100DD0000F91FF90EF900895EF92FF920F931F9362
:100DE000CF93DF93CDB7DEB729970FB6F894DEBF68
:100DF0000FBECDBFE982FA820B831C832D833E8315
:100E00004F83588769872FB7F89490910C082FBFAC
:100E1000911195C08F3F09F03EC080910B0488234B
:100E200081F00E94EC048FB7F89420910D0430916A
:100E30000E04309308082093070893E090930C0861
:100E40001BC00E94EC040E9497061092010449E026
:100E500050E06FEF70E082E094E00E94982C8FB732
:100E6000F89410920B0495E090930C082BE633E075
:100E700030930808209307088FBF29960FB6F8947F
:100E8000DEBF0FBECDBFDF91CF911F910F91FF90BD
:100E9000EF900C9433038FB7F89420910B0491E0FA
:100EA000920F90930B0430E08FBF4BE3429FC00141
:100EB000439F900D1124DC01A45FBB4F29E0FE018C
:100EC000319601900D922A95E1F79C012B5E3B4FE4
:100ED0008C01055F1B4FD80117963C932E931697F4
:100EE000825E9B4F19969C938E9318978F818F9358
:100EF0008E818F938AE692E09F938F931F9288E072
:100F00008F933F932F930E94E02C6885798548E268
:100F100050E0F801808591850E94AA2CD801119695
:100F2000EC910FB6F894DEBF0FBECDBFEE2339F0C3
:100F3000F0E0EF5FFB4F80910B0481508083299696
:100F40000FB6F894DEBF0FBECDBFDF91CF911F91DA
:100F50000F91FF90EF9008950197019601970196E8
:100F6000019701960197C1F708951092D602E0917A
:100F7000D7028BE0E89FF0011124E95DFD4E10825D
:100F800085E10C9411030F931F93CF93DF9300918E
:100F9000790310917A03F801E658FC4F20812A303A
:100FA000D1F4EC0110826DE070E08BE793E00E94D9
:100FB0009F2C99838883009741F0FC0110828881DF
:100FC000998101969983888304C005581C4F198321
:100FD000088381E001C080E0DF91CF911F910F91E4
:100FE000089581E08093DC0245E053E166E072E021
:100FF0000E94ED0344E650E060E070E080E00C9475
:101000007803EF92FF920F931F93CF93DF9300D05B
:1010100000D01F92CDB7DEB79FB7F8948091FD0343
:101020009FBF811135C08FB7F89493E09093FD0373
:101030008FBF1092FB0345E050E06CE774E0CE01F7
:1010400001967C010E94662C09EF12E080E8F8010D
:1010500011928A95E9F7FF92EF9285E692E09F93CD
:101060008F931F930F930E941D2DF8010190002074
:10107000E9F78F010A5F12401093F8020093F7021C
:101080000E9436030F900F900F900F900F900F90CB
:101090000F900F900F900F900F90DF91CF911F91B5
:1010A0000F91FF90EF9008951F93CF93DF938FB729
:1010B000F894C091CE02C1113DC011E01093CE0250
:1010C000109299128FBFDFB7F8948091CD028111F1
:1010D00017C0509851981092B90081E48093B800DD
:1010E0001092BA001092BC000E94640380911F12FB
:1010F0008E7F846080931F120E94F0021093CD02B5
:10110000DFBFDFB7F89480910E02813089F48091BF
:10111000CE02813021F483E20E94110309C08230A3
:1011200039F48091991280930E0283E08093CE026D
:10113000DFBF1DC0C0919912CC23C1F090910E0F5A
:101140009F3F99F4E0910F02EE2379F09091100205
:101150009F3F19F41092100204C0F0E0E25FF04FDC
:10116000108210920F02C0E001C0C5E08FBF8C2F2B
:10117000DF91CF911F910895CF93DF939FB7F8949C
:10118000C091CA02C11127C081E08093CA021092A7
:10119000060F9FBF9FB7F89480917A008068809374
:1011A0007A009FBFDFB7F89480910C02813089F4F8
:1011B0008091CA02813021F485E20E94110309C0A6
:1011C000823039F48091060F80930C0283E0809383
:1011D000CA02DFBF0FC0C091060FCC2351F080912F
:1011E000DF1180FD05C081608093DF11C0E001C088
:1011F000C5E09FBF8C2FDF91CF910895882369F1BF
:101200002FB7F8948091440A9091450A9069909381
:10121000450A8093440A1092AE1284E080939A1299
:101220002FBF48E050E060E270E08FEA92E10E9458
:10123000982C40E450E060E270E089EB92E10E947B
:10124000982C46E050E060E270E089EF92E10E9465
:10125000982C88E08CBBEB9A11C00E940F032FB72B
:10126000F8948091440A9091450A9F769093450A9C
:101270008093440A84E080939A122FBF0C94390320
:101280003FB7F8949091A8122091A2128093A812CF
:101290003FBF21110AC0891741F09FB7F89424E09D
:1012A0002093A2129FBF0E94FE0880E008952FB7EE
:1012B000F89490910C082FBF811113C0963049F01B
:1012C000973039F0953029F40E94EC0487E00C94B3
:1012D00011038FB7F89491E090930C088FBF0C9492
:1012E0004203813021F48FB7F89494E003C08FB7A4
:1012F000F89495E09093FE038FBF0C9430032F92E7
:101300003F924F925F926F927F928F929F92AF9295
:10131000BF92CF92DF92EF92FF920F931F93CF93E2
:10132000DF93CDB7DEB7C055D1090FB6F894DEBF55
:101330000FBECDBF9FB7F8948091FD039FBF833050
:1013400009F443C0843009F493C0823009F0C8C165
:10135000CE018A960E94C307882309F4C1C142E0E6
:1013600050E06CE874E08BE793E00E94582C2AA5CB
:101370003BA5892BA1F4AE014F5F5F4F6FE672E092
:10138000C9010E94B92C4AE050E060E070E0898118
:101390009A810E94112B6F3048F480E008C06FE6FC
:1013A00074E0C9010E94752C009721F482E00E942C
:1013B000570996C14FE050E06BE574E004960E9437
:1013C000582C892B99F781E0F2CF80917D038A30E8
:1013D000B1F489E0FE01BA96DE01119601900D92FA
:1013E0008A95E1F7E980FA800B811C812D813E818D
:1013F0004F81588569858FEF0E94EC0671C1CE013F
:101400008A960E94C307882309F46AC11092E602F3
:101410001092E702AE014F5F5F4F61E772E08AA56D
:101420009BA50E94B92C0097D1F04AE050E060E003
:1014300070E00E94E6296F3050F4E091E60281E00E
:101440008E0F8093E602F0E0EA51FD4F6283AE0119
:101450004F5F5F4F61E772E080E090E0E2CF809104
:10146000E602882309F43CC181E08093FC0335C186
:10147000CE01825B9F4F0E94C307882309F429C1D4
:101480008E010B5B1F4F89E0F80111928A95E9F7F5
:10149000CE0101964C0189E2F40111928A95E9F797
:1014A000AE01465D5F4F6FE672E060968EAD9FAD18
:1014B00060970E94B92C6C01009709F4F5C08AE688
:1014C000682E82E0782E98E0F92EAAA4BBA442E010
:1014D00050E068E574E0C6010E94582C892B61F445
:1014E0004AE050E060E070E0C5010E94112B6F30CF
:1014F00008F0DAC0562E86C044E050E063E574E0A0
:10150000C6010E94582C892B99F44AE050E060E013
:1015100070E0C5010E94112B9B012B5633402E3CDD
:10152000310508F0C1C0362E61967FAF61976AC061
:1015300046E050E06CE474E0C6010E94582C892B10
:1015400051F44AE050E060E070E0C5010E94112BC8
:10155000462E272E57C045E050E066E474E0C601F1
:101560000E94582C892B61F44AE050E060E070E062
:10157000C5010E94112B6A3008F096C0E62E42C0C9
:1015800044E050E061E474E0C6010E94582C892BCD
:10159000F9F4BF92AF927F926F921F92FF921F93C6
:1015A0000F930E94E02CF8011086EAA5FBA5CF015D
:1015B00008969BA78AA70FB6F894DEBF0FBECDBFD3
:1015C00080858C3209F070C03996FBA7EAA726C047
:1015D00044E050E06CE374E0C6010E94582C892B73
:1015E00089F4F5018081882331F048E250E0B501AB
:1015F000C4010E94AA2CF80110A68091FB0381115E
:101600001BC032C06CE270E08AA59BA50E949F2C93
:10161000009709F449C001969BA78AA7AE01465DD1
:101620005F4F6FE672E080E090E00E94B92C6C01A1
:10163000009709F04ACF38C0EE2009F44AC0EBAA5F
:10164000F32C3CAA6196FFAD6197FDAB4EAA2FAA81
:10165000302F19AF08AF582D9BAE8AAE0F2F142D27
:10166000222D49AD6BAD1EC0ECAEF32C3DAE6196A4
:101670008FAD61978EAF4FAE21962FAE2197302F51
:1016800023961FAF0EAF2397582D25969FAE8EAE93
:1016900025970EAD142D222D23964FAD2397259619
:1016A0006FAD2597852D13C089E0FE01F396DE010D
:1016B0009A9601900D928A95E1F7EAA4FBA40CA5F5
:1016C0001DA52EA53FA548A959A96AA98EEF0E947C
:1016D000EC068091FC03882319F08FE00E9411032F
:1016E0008FB7F8941092FD038FBFC05BDF4F0FB62A
:1016F000F894DEBF0FBECDBFDF91CF911F910F9148
:10170000FF90EF90DF90CF90BF90AF909F908F9021
:101710007F906F905F904F903F902F9008951F9310
:10172000CF93DF931F92CDB7DEB7182F80647983F4
:101730000E94AA0381E0810F7981672F80640F9056
:10174000DF91CF911F910C94AA03660F660F68B9C1
:10175000439A98B18295807F982B98B943980895C1
:10176000CF93DF93C82FD62F82958F700E94A50B41
:101770006D2F8C2FDF91CF910C94A50BCF93DF931E
:101780009FB7F8948091D102882369F19FBFDFB79A
:10179000F894C091D102C11109C081E08093D102B7
:1017A0001092110288E10E94110318C08091D40C9C
:1017B0008F3F99F4E0911202EE2379F080911302A9
:1017C0008F3F19F41092130204C0F0E0EC52F34F73
:1017D000108210921202C0E001C0C5E0DFBF8C2F62
:1017E000DF91CF9108958CB58F7B8CBD229A239881
:1017F000219A209A8CB580618CBD8CB58F778CBD79
:101800008DB58E7F8DBD8CB5877F8CBD8CB58B7F64
:101810008CBD8CB58C7F8CBD8CB580648CBDB6CFF7
:101820000F931F93CF93DF938091FF12882309F4C6
:101830003FC010E0C0E0DFE10FB7F89480910213E1
:101840008E7F809302130E944803282F2F73881FD6
:101850008827881F9170990F892B181302C091E077
:10186000D21390E08091021390FB81F99D2F9F731A
:10187000990F990F8370892B809302131111D064F3
:10188000D0937C0080917B00877F80937B00909138
:1018900002138C2F8860806190FB85F980648068DA
:1018A00080937A000FBFDF91CF911F910F91089520
:1018B000C7E011E0D0E0C0CFCF93DF93CFB7F8946B
:1018C0000E94640380911F128E7F806980931F1293
:1018D0000E94F002CFBFDFB7F8948091CE02833030
:1018E000C1F5C0910E02C11134C0809110028F3F2A
:1018F000C1F0E82FF0E0E25FF04F9081909310028A
:101900009F3F11F490930F029FEF90838093991261
:1019100090930E0281E08093CE0283E20E94110335
:1019200016C081E080930E021092CE028091CD020B
:10193000813069F40E94640380911F128A7680933B
:101940001F120E94F002589859981092CD02DFBFE2
:1019500002C0DFBFC1E08C2FDF91CF9108951092BC
:10196000CF029091D0022DE0929FF0011124E65316
:10197000F04F1082911103C081110E94360389E15A
:101980000C9411031092D8029091D90228E0929FF2
:10199000F0011124EE50F14F1082992329F091307B
:1019A00029F40E94AF0C02C00E94B50784E10C9498
:1019B0001103811110C0662371F08091DC02813027
:1019C00051F41092DC028091E8118D7F8093E81130
:1019D00081E00C94C20C0895882319F0813021F025
:1019E0000895862F0C94C20C1092DA028091DB02CB
:1019F0009DE1899FF0011124E15AFD4E10820E9461
:101A0000D90C83E10C941103CF93DF931F92CDB7D0
:101A1000DEB789830E94F7028FEB0E94A80383E060
:101A20000E94A8030E94F50269818FE10F90DF9167
:101A3000CF910C94D603FC01009719F481E00C942B
:101A4000C20C3091D80C9091D90C8091860C8111E8
:101A500024C047E85CE041155105F9F026E0DA01C1
:101A600001900D922A95E1F740E058E050938E0CDA
:101A700040938D0C46ED5CE05093900C40938F0C9E
:101A8000892F90E0932B9093920C8093910C81E09E
:101A90008093860C80E10C94110308958F929F929D
:101AA000AF92BF92CF92DF92EF92FF92CF93DF93EC
:101AB000EC0185E48093D60C1092D70C86E68093D7
:101AC000DB0C8093DA0C1092DD0C1092DC0C8FEFA3
:101AD0008093DE0C8D819E8144968093D90C9093E7
:101AE000D80CE881F98180819181A281B3818093B2
:101AF000E60C9093E70CA093E80CB093E90C80916E
:101B0000240290912502A0912602B0912702809391
:101B1000E20C9093E30CA093E40CB093E50C6B8182
:101B20007C814D815E818AEE9CE00E948F2C8A81AF
:101B30008093DF0C1092E10C1092E00CE6EDFCE0DB
:101B400080E090E0DC0121913191820F931FA11D73
:101B5000B11D2CE0EA3EF207B1F7AD016627772709
:101B6000411551056105710539F0AA27BB27840F7E
:101B7000951FA61FB71FF1CF80959095A095B095A2
:101B80009093E10C8093E00C80911C0290911D02D7
:101B9000A0911E02B0911F02C090E60CD090E70CFD
:101BA000E090E80CF090E90C4091E20C5091E30CCD
:101BB0006091E40C7091E50C4C255D256E257F2528
:101BC000482359236A237B23452B462B472B19F4A3
:101BD000E6EEFCE002C0E0E2F2E0C080D180E2800C
:101BE000F38080959095A095B095AC01BD014C21F6
:101BF0005D216E217F21481759076A077B0719F479
:101C000080E092E02DC05091DF0244E06AE0252F91
:101C100030E0629FC001639F900D1124DC01A45F3E
:101C2000BC4E8D909D90AD90BC908C149D04AE04E4
:101C3000BF0429F45093DF02805F9C4E0BC0C901A2
:101C4000019683709927582F415009F78093DF023E
:101C500080E090E09093E5028093E402009719F011
:101C60000E941B0D14C08091DC02811112C0808182
:101C70009181A281B3818093051390930613A09361
:101C80000713B09308131092DD020E94F10780E061
:101C900001C085E0DF91CF91FF90EF90DF90CF9072
:101CA000BF90AF909F908F900895882329F0813046
:101CB00029F47298739A02C07398729A82B182B9A9
:101CC00081B111B87498759A0E94FB0282E090E08D
:101CD0000E94AC0780B1079B0DC00E94F90282E010
:101CE00090E00E94AC070E94FB0282E090E00E941C
:101CF000AC07F1CF0E94F902759881B18FEF81B9DD
:101D00000895CF93DF931F92CDB7DEB70E94550E93
:101D100081B111B8749A759A0E94FB0282E090E03A
:101D20000E94AC0780B10E94F90282E090E00E941C
:101D3000AC070E94FB0282E090E00E94AC0780B1F9
:101D400089830E94F90289810F90DF91CF910895D4
:101D5000CF93DF931F92CDB7DEB769830E94550EF4
:101D6000698162B981B18FEF81B9749A75980E94C7
:101D7000FB0282E090E00E94AC070E94F90280E042
:101D80000F90DF91CF910895CF93DF931F92CDB73E
:101D9000DEB769830E94550E749875980E94FB0205
:101DA00081B18FEF81B9698162B982E090E00E94D0
:101DB000AC070E94F90280E00F90DF91CF91089567
:101DC000CF93DF93982FC62FD82FD295D695D6953F
:101DD000D37081E0D8279F73692F60648D2F0E9494
:101DE000C40E6C2F6770686B8D2FDF91CF910C94B0
:101DF000C40E5F926F927F928F929F92AF92BF922A
:101E0000CF92DF92EF92FF920F931F93CF93DF93C6
:101E100090EE980F903608F054C06B0190E08097D8
:101E200025E0289F8001299F100D1124045A1D4F81
:101E3000912C89EF682E6D0C55245394AA24A394F9
:101E4000B12CF92CFC0CD62DF8017490F6FACC27A5
:101E5000C0F9C5258D2E869486948694FD2FF77043
:101E6000EF2E682D8F2D70FE0DC00E94E00E8C2F7E
:101E70000E94810EB50101C0660FEA94EAF7E82ED0
:101E8000E62A0DC00E94E00E8C2F0E94810E950163
:101E900001C0220FEA94EAF72095E82EE222682D8D
:101EA0008F2D0E94E00E6E2D8C2F0E94A80E76942E
:101EB000DF5FDD11CFCF0F5F1F4F939485E0981246
:101EC000C0CFDF91CF911F910F91FF90EF90DF90E6
:101ED000CF90BF90AF909F908F907F906F905F90CA
:101EE0000895FF920F931F93CF93DF93F62E8C01EB
:101EF000D42FCF2DF80181918F01882379F08A307A
:101F000011F08D3011F4D85FF4CF893011F4C65F31
:101F1000F1CFCA5FBE010E94F90EECCFDF91CF91E5
:101F20001F910F91FF900895EF92FF920F931F93CF
:101F3000CF93DF9300D0CDB7DEB77C01162F962F5D
:101F400000E0F701E00FF11D84918823B1F08A30A1
:101F500011F08D3019F4485F912F0DC0893011F4C4
:101F6000965F09C09A5F692F742F49839A830E94F4
:101F7000F90E9A8149810F5FE4CF0F900F90DF91A6
:101F8000CF911F910F91FF90EF900895CF93DF9322
:101F9000C0E06C2F80E00E94E00E6C2F80E40E9475
:101FA000E00ED0E060E080E00E94A80E60E081E0FA
:101FB0000E94A80EDF5FD038A9F7CF5FC83049F77D
:101FC00080E0DF91CF9108954F925F926F927F9260
:101FD0008F929F92AF92BF92CF92DF92FF920F9318
:101FE0001F93CF93DF93A0EEB1E1C12CD12C49E038
:101FF0004C9DF0014D9DF00D1124EF01C052DE4EBD
:10200000F884F1FE8EC00D911D912D913C91139796
:1020100014968D909D90AD90BC9017972B013C012C
:10202000401A510A620A730A481459046A047B046C
:1020300008F477C0F0FE06C0E851FE4E20812D7FE7
:1020400020830AC0B901A801480D591D6A1D7B1DD6
:10205000488359836A837B8323E0C21609F44FC007
:102060002C1538F081E0C81681F022E0C216F1F19B
:102070002DC085E0C81609F447C0C81608F441C051
:1020800026E0C21609F449C021C010920C13109228
:102090000D1310920E1310920F131092161310922C
:1020A00017131092181310921913109220131092F4
:1020B0002113109222131092231310922A131092BC
:1020C0002B1310922C1310922D1334C01092DC029B
:1020D0008091DD028F5F8093DD02833018F40E94CF
:1020E000F10728C081E00E94C20C24C09FB7F89479
:1020F0008091A2129FBF8130E9F48AE10FC087E28C
:102100000DC00E94BC0816C08FB7F89491E0909360
:102110000C088FBF0E9442030DC089E00E9411038A
:1021200009C02FEFC21AD20A199627E0C216D104AD
:1021300009F05ECF82E1DF91CF911F910F91FF9067
:10214000DF90CF90BF90AF909F908F907F906F90D7
:102150005F904F900C941103CF93C091A2128130E5
:1021600011F48FE11AC00E945C0C1092A31282E25B
:102170000E941103C23059F020F4C13089F48AE181
:102180000CC0C33039F0C63059F48DE106C0CF9190
:102190000C943F03CF910C943C03CF910C9411030A
:1021A000CF910895811110C08091BB0090919B1236
:1021B000E091D00CF091D10CE90FF11D808380915A
:1021C0009B128F5F80939B1220919B1280910D0830
:1021D000281788F430E090E001972817390749F470
:1021E0008091341382FD05C080911F128F7B8093F4
:1021F0001F120C94F00280911F12282F2E7F9091B5
:10220000341391FF0AC09D7F90933413822F806115
:1022100080931F128091B90003C08E7780931F12A4
:102220000E94F00281E08093CD0280910D02811125
:1022300002C00C94AC100895CF93C091A2128130CB
:1022400011F481E214C00E945C0C1092A312C330FE
:1022500089F038F4C13051F0C23079F4CF910C9448
:102260003F03C63050F41092A21207C08AE1CF910A
:102270000C941103CF910C943C03CF91089580915D
:102280009B1290910D08891780F4E091D00CF09189
:10229000D10CE80FF11D80818093BB0080919B12CF
:1022A0008F5F80939B120C94F00280911F12282F55
:1022B0002E7F9091341391FF06C09D7F909334132D
:1022C000822F806101C08E7780931F120E94F002DE
:1022D00081E08093CD0280910D02811102C00C94A7
:1022E0001C1108954F925F926F927F928F929F92EE
:1022F000AF92BF92CF92DF92EF92FF920F931F9314
:10230000CF93DF93CDB7DEB7A3970FB6F894DEBFB8
:102310000FBECDBF90E08832910510F00C94A7233A
:10232000FC01EE58FF4F0C94E0298FB7F894109100
:102330000B088FBF812F90E0C0970A9760F4E0915F
:102340000108E43040F481E08E0F80930108F0E052
:10235000EF5FF74F1183183059F4E0910108EE2335
:1023600039F0E150E0930108F0E0EF5FF74F1182A0
:1023700044E160E087E695E00E94940F44E160E06C
:1023800082E098E00E94710F1A3011F00C94A7239C
:102390004AE050E060E070E082E098E00E94112B9B
:1023A0002FB7F89433E030930C082FBF9B012B56C6
:1023B00033402E3C310550F08FB7F89491E0909364
:1023C000FE038FBF0E9430030C94A7232FB7F8940D
:1023D00070930808609307082FBF0E9433030C9482
:1023E000A7238FB7F89410910B088FBF183061F4B2
:1023F000E0918107EE23D1F0E150E0938107F0E016
:10240000EF57F84F118212C01A3081F01D3071F071
:10241000112361F0E0918107E83240F481E08E0FF2
:1024200080938107F0E0EF57F84F118385E1E2E8F0
:10243000F7E0DE01119601900D928A95E1F71E8A70
:1024400044E16AE781E595E00E94940F44E16AE780
:10245000CE0101960E94710F83E1E7E9F7E0DE010A
:10246000119601900D928A95E1F71C8A4EE16AE778
:1024700081E595E00E94940F4EE16AE7CE01019656
:102480000E94710F1A3011F00C94A7232FB7F89403
:1024900086E080930C088091090890910A082FBF6C
:1024A0000E948304F82E2FB7F89490E02FBFE0919C
:1024B0008107F0E0EF57F84F11822BE3289F80014E
:1024C000299F100D1124F801E55FFB4F2085318510
:1024D00089E2D9011D928A95E9F748E250E062E865
:1024E00077E0808591850E94AA2CB801645F7B4FBC
:1024F0008F2D0E946A050C94A7238FB7F894D09073
:102500000C08E0900908F0900A088FBFC7010E94EC
:102510008304182FC7016AE070E00E94CC299F93C2
:102520008F937F936F9383E792E09F938F937E01C6
:10253000B7E1EB0EF11CFF92EF920E941D2D0E945D
:10254000C60F47E060E0C7010E94710F47E064E2F8
:102550008EE795E00E94940F0FB6F894DEBF0FBE91
:10256000CDBF1F3008F070C0E12EF12C1F921F93D9
:1025700089E792E09F938F938E01005E1F4F1F9318
:102580000F930E941D2D1BA247E06CE3C8010E941F
:10259000710F8BE38E9DF0018F9DF00D1124E55F8F
:1025A000FB4F81810F900F900F900F900F900F9025
:1025B0008823B1F01F928F938FE792E09F938F93C0
:1025C0001F930F930E941D2D1AA247E064E5C801D6
:1025D0000E94710F0F900F900F900F900F900F901F
:1025E0008BE38E9D80018F9D100D1124F801E25E1A
:1025F000FB4F85E1DE01119601900D928A95E1F77E
:102600001E8A4FE26AE781E595E00E94940F4FE24F
:102610006AE7CE0101960E94710FF801ED5CFB4F55
:1026200083E1DE01119601900D928A95E1F71C8AF3
:1026300047E36AE781E595E00E94940F47E36AE784
:10264000CE0101960E94710F4FE060E08DE695E0AB
:102650000E94940F4FE060E081EB97E00E94710FC1
:102660004FE060E087E695E00E94940F4FE066E35C
:102670008BEF97E00E94710F85E1EAEBF7E0DE0156
:10268000119601900D928A95E1F71E8A47E16AE75B
:1026900081E595E00E94940F47E16AE7CE0101963B
:1026A0000E94710F85E1EFECF7E0DE0111960190D9
:1026B0000D928A95E1F71E8A4FE16AE781E595E080
:1026C0000E94940F4FE16AE7CE0101960E94710FBC
:1026D00085E1E4EEF7E0DE01119601900D928A9516
:1026E000E1F71E8A47E26AE781E595E00E94940FD0
:1026F00047E26AE7CE0101960E94710F81E00E94D5
:102700004009F5E0DF120C94A72348E853E160E0AC
:1027100070E086E00E9478030C94A7239FB7F8949A
:102720008091AC071091AD070091AE079FBF882341
:1027300089F04FE060E08DE695E00E94940F4FE055
:1027400060E081EB97E00E94710F8FB7F8941092D0
:10275000AC078FBF002389F04FE060E087E695E08B
:102760000E94940F4FE066E38BEF97E00E94710F99
:102770008FB7F8941092AE078FBF112311F40C9409
:10278000A72385E1EAEBF7E0DE01119601900D92B7
:102790008A95E1F71E8A47E16AE781E595E00E94A4
:1027A000940F47E16AE7CE0101960E94710F85E11F
:1027B000EFECF7E0DE01119601900D928A95E1F7BA
:1027C0001E8A4FE16AE781E595E00E94940F4FE190
:1027D0006AE7CE0101960E94710F85E1E4EEF7E011
:1027E000DE01119601900D928A95E1F71E8A47E26B
:1027F0006AE781E595E00E94940F47E26AE7CE011F
:1028000001960E94710F8FB7F8941092AD078FBF99
:102810000C94A7238091FF0390910004891711F471
:102820000C94A7232FB7F8949091A2122FBF911167
:1028300016C04FB7F89435E03093A212282F2F70AE
:102840008091460A9091470A807F822B9093470A95
:102850008093460A30939A124FBF0E9439038091A9
:10286000FF03809300040E9439050C94A72380E0A5
:102870000E949B04882311F40C94A72385E00E94F6
:1028800011030C94A72381E00E949B04882311F478
:102890000C94A72386E00E9411030C94A72382E0E6
:1028A0000E949B04882311F40C94A72387E00E94C4
:1028B00011030C94A7232FB7F894809107089091E7
:1028C00008082FBF3FB7F8942091A2123FBF2111F3
:1028D0000C9404229C012B5633402E3C310510F001
:1028E0000C9404222FB7F89432E03093A212109285
:1028F000A51290930413809303132FBF0E943F03EC
:102900000C94A7238FB7F894C0900908D0900A08B8
:102910008FBF80E00E944009C6010E948304F82E08
:102920002EE0281708F454C09FB7F8948091AB07A5
:1029300000910B0421E0200F20930B049FBF8823FC
:10294000E9F15BE3059F80011124C801855F9B4F7E
:102950006C01DC011696ED91FC91179789E0DF017F
:102960001D928A95E9F781EB97E09F938F938AE612
:1029700092E09F938F931F9288E08F93F601878157
:102980008F9386818F930E94E02C8FB7F8942091CB
:10299000AF073091B007D60115963C932E9314974C
:1029A0008FBFB801645F7B4F8F2D0E946A050FB601
:1029B000F894DEBF0FBECDBF0C94A7238FB7F89459
:1029C00091E090930C088FBF0E9442030C94A723C0
:1029D00080910B048F3050F08FB7F89492E0909371
:1029E000FE038FBF0E9430030C94A7239FB7F89477
:1029F0008091AB0700910B0421E0200F20930B0482
:102A000010E09FBF9BE3909F9001919F300D112498
:102A1000F901E55FFB4F1182D382C28241E050E0B1
:102A200055834483B9016B5E7B4FAF014A5F5F4FB3
:102A300077836683225E3B4F3187208799E0DB01F5
:102A40001D929A95E9F72085318599E2D9011D9269
:102A50009A95E9F7882309F18FB7F8942091AF0789
:102A60003091B007358324838FBF81EB97E09F932C
:102A70008F938AE692E09F938F931F9288E08F93C3
:102A8000DA0111968C918F9386818F930E94E02CAE
:102A90000FB6F894DEBF0FBECDBF8BE3809FB001B1
:102AA000819F700D1124645F7B4F8FEF0E946A0538
:102AB0000C94A7238FB7F8941091FE038FBF80E08A
:102AC0000E9440090E94C60F4AE060E08AE495E057
:102AD0000E94940F44E160E0111106C086E295E087
:102AE0000E94940F0C94A7238BE395E00E94940F0F
:102AF0000C94A7238FB7F8941091FE038FBF80E04A
:102B00000E9440090E94C60F4AE060E08AE495E016
:102B10000E94940F812F90E0FC013197E930F1057C
:102B200008F5E656FF4F44E160E00C94E02985E1AA
:102B300095E01CC082E095E019C081EF94E016C0DA
:102B400088EE94E013C08EED94E010C08AEC94E01F
:102B50000DC087EB94E00AC082EA94E007C08FE8DA
:102B600094E004C044E160E08BE395E00E94940FA0
:102B70004CEB52E060E070E085E00E9478030C943A
:102B8000A72389E0EAE2F2E0DE01119601900D92BE
:102B90008A95E1F78FB7F894E0910B088FBFEC3678
:102BA00009F4CFC020F5E13609F45AC0B0F4EC3294
:102BB00009F465C1EE3209F076C180E00E94400957
:102BC0000E94EC048FB7F89494E090930C088FBFA8
:102BD00085E00E9411030C94A723E63609F44BC04C
:102BE000E93609F060C10E9401080C94A723E03780
:102BF00009F455C170F4EE3609F4E6C0EF3609F079
:102C000052C1BE016F5F7F4F8FEF0E946A050C9427
:102C1000A723E33709F410C1E43709F044C180E089
:102C20000E9440090E94EC048FB7F89410920108AA
:102C300095E0E2E0F8E0DF011D929A95E9F792E075
:102C400090930C088FBF0E94C60F4AE060E08EE8A8
:102C500095E00E94940F80E00E9411030C94A7233A
:102C60008FB7F89496E090930C088FBF89E00E948C
:102C700011030C94A7238FB7F89497E090930C0856
:102C80008FBF80910104893008F051C02FB7F894AC
:102C90008091090890910A082FBF0E9483048F3009
:102CA000E0F5482F50E02BE3829FF0011124E55F0F
:102CB000FB4F9181992351F08FB7F89499E090934D
:102CC000FE038FBF0E9430030C94A723E2E0F4E0E0
:102CD00090E021912F3F19F09F5F9930D1F7E92FB4
:102CE000F0E0EF5FFB4F8183209101042F5F209381
:102CF00001042FB7F8943BE3349FB001359F700D6A
:102D00001124FB01E55FFB4F9F5F91832FBF645F41
:102D10007B4F0E946A050C94A7238FB7F89498E024
:102D20009093FE038FBF0E9430030C94A7238FB7AC
:102D3000F89493E09093FE038FBF0E9430030C94AD
:102D4000A72380910B04882311F40C94A7238FB739
:102D5000F8946091090870910A088FBF30910B04B4
:102D6000EBE0F4E04FEF5FEF1FEF20E0231769F097
:102D700082819381861B970B29F08417950710F4A5
:102D8000AC01122F2F5FFB96F1CF1F3010F00C9487
:102D9000A72380E00E9440090E94EC048FB7F894BA
:102DA00093E090930C085BE3159FF0011124E55F1D
:102DB000FB4F2281338130930808209307088FBF8F
:102DC0000E9433030C94A7238FB7F89418E0109354
:102DD0000C088FBF2FB7F8948091090890910A08CA
:102DE0002FBF0E9483048F30F0F480E00E944009DE
:102DF0008FB7F89410920B088FBF1092810789E269
:102E0000E2E8F7E0DF011D928A95E9F70E94C60F1C
:102E10004AE060E082E895E00E94940F81E00E9421
:102E200011030C94A7238FB7F8941093FE038FBF60
:102E30000E9430030C94A72380E00E9440090E9466
:102E4000EC040E9497061092010449E050E06FEFF5
:102E500070E082E094E00E94982C8FB7F894109272
:102E60000B0495E090930C082BE633E030930808B0
:102E7000209307088FBF0E9433030C94A72380E0A0
:102E80000E9440090E94EC048FB7F89494E090935C
:102E90000C088FBF86E00E9411030C94A7230E94A8
:102EA00097060C94A7238FEC8E0F893010F00C94AA
:102EB000A723E053F0E0EF5FFB4F10811F30D8F401
:102EC00080E00E9440090E94EC048FB7F89493E0E0
:102ED00090930C08BBE31B9FF0011124E55FFB4FAF
:102EE0002281338130930808209307088FBF0E9406
:102EF00033030C94A7238FB7F89497E09093FE03C5
:102F00008FBF0E9430030C94A7234091F702509189
:102F1000F8028091CA0F81112BC08BEC9FE0892BA6
:102F200039F189EF92E09093D40F8093D30F80EC26
:102F30008093CB0F88EA8093CC0F8AE28093CD0FE9
:102F400081E08093CE0F20E533EC3093D00F2093B7
:102F5000CF0F3093D20F2093D10F5093D60F4093C1
:102F6000D50F8093CA0F89E10E9411030C94A72307
:102F70000E9436030C94A7230E947F090C94A72378
:102F80004091E702242F30E08091E60290E0821B1E
:102F9000930B181619060CF053C04F5F4093E702CD
:102FA000F901EA51FD4FB2809FB7F8948091FD037B
:102FB0009FBF81110C94A7238FB7F89494E090934E
:102FC000FD038FBF44E050E06BE674E0FE013196F4
:102FD0007F01CF010E94662C6E01F7E1CF0ED11C5C
:102FE00043E050E068E574E0C6010E94662C09EFFA
:102FF00012E080E8D8011D928A95E9F71F92BF92EE
:10300000DF92CF92FF92EF9283E892E09F938F93AB
:103010001F930F930E941D2DF80101900020E9F7E6
:103020008F010A5F12401093F8020093F7020E948A
:1030300036030FB6F894DEBF0FBECDBF0C94A723A6
:103040001092FC031092E6021092E7028FB7F894F8
:103050001092FD038FBF89E0FE017796DE01119685
:1030600001900D928A95E1F7E980FA800B811C812D
:103070002D813E814F81588569858FEF0E94EC0636
:103080000C94A7238091E00281110C94A7238091D6
:10309000E1028F5F81708093E102EDE0E89FD00153
:1030A0001124AA57B34F9C91913011F40C9407222C
:1030B0008F5F81708093E102E89FF0011124EA574D
:1030C000F34F8081813011F00C94A7230C940722D8
:1030D0008091CF0C811141C040919C1250919D1262
:1030E00060919E1270919F122FB7F894C090231296
:1030F000D0902412E0902512F09026128091C90CF5
:103100009091CA0CA091CB0CB091CC0C8C0D9D1D54
:10311000AE1DBF1D2FBF40939C1250939D12609314
:103120009E1270939F121092CF0C2FB7F89431E03B
:1031300030930E088093C90C9093CA0CA093CB0CCB
:10314000B093CC0C40932312509324126093251219
:10315000709326122FBF0E9454040E946C030E9499
:10316000E40F0C94A7230E946C032FB7F8941092DD
:103170000E082FBF40EE51E1A0E0CC24CA94DC2C15
:10318000EC2C0FE7F02E20E030E0B9E0B29FF00128
:10319000B39FF00D1124E052FE4EE085E1FF1BC00D
:1031A000FA0180809180A280B3802B013C014818F5
:1031B00059086A087B0884809580A680B7808418A7
:1031C0009508A608B7088C149D04AE04BF041CF42F
:1031D00075016401A1E02F5F3F4F475F5F4F2730CC
:1031E0003105A1F6AA2311F40C94A7231C141D0485
:1031F0001E041F0424F00E94E40F0C94A723C09225
:103200009C12D0929D12E0929E12F0929F1221E0A9
:103210002093CF0C3FB7F89420930E086093C90C0D
:103220007093CA0C8093CB0C9093CC0CC092231259
:10323000D0922412E0922512F09226123FBF0E94F3
:1032400054040C94A7238091DA0281110C94A723D3
:103250008091DB0290E00196817099278093DB02D8
:103260002DE1289FF001299FF00D1124E15AFD4E18
:103270003081313011F40C945F22019681709927CE
:103280008093DB02289FF001299FF00D1124E15A61
:10329000FD4E8081813011F00C94A7230C945F22A5
:1032A0008091D80281110C94A723E091D902EF5F9D
:1032B000E170E093D902AE2FB0E013E0AA0FBB1F7C
:1032C0001A95E1F7AE50B14F8C91813011F40C9406
:1032D000A122EF5FE170E093D902F0E0A3E0EE0FEE
:1032E000FF1FAA95E1F7EE50F14F8081813011F078
:1032F0000C94A7230C94A1228091D60281110C94E6
:10330000A7238091D7028F5F81708093D702EBE073
:10331000E89FD0011124A95DBD4E9C91913011F41C
:103320000C94C5228F5F81708093D702E89FF001D3
:103330001124E95DFD4E8081813011F00C94A723AA
:103340000C94C52281E08093D2020E94BE0B0C94A3
:10335000A7238FB7F8941092100810920F081092BC
:10336000CE0C1092CD0C10920113109200131092FB
:103370000B0F10920A0F8FBF0C94A7238FB7F894EE
:1033800092E09093D1028FBF8091110281110C9431
:10339000A7230E94F5028091D502813021F082306E
:1033A00009F498C057C26FEF8FEF0E94AA038DE116
:1033B0000E94C00380FFFBCF80E00E94040D60E00C
:1033C00076E088E00E948F0B80E096E090931502F3
:1033D0008093140260E076E08CE00E948F0B6FEF28
:1033E0007FE18AE00E948F0B60E070E084E00E9441
:1033F0008F0B60E88EE50E94AA0381E00E94040D15
:1034000061EA88E50E94AA0382E00E94040D60E060
:1034100081E40E94AA0361E080E40E94AA0363E3BE
:1034200082E40E94AA0360E083E40E94AA036AE2A5
:1034300072E08AE00E948F0B65E184E40E94AA0397
:10344000909128028091290290931B0280931A0286
:1034500083E00E94040D60911B0281E40E94AA0394
:1034600060911A0280E40E94AA036091190283E429
:103470000E94AA036091180282E40E94AA0360914C
:10348000170285E40E94AA036091160284E40E9458
:10349000AA0382E00E94040D64E184E50E94AA036D
:1034A00060E471E086E10E948F0B62E184E50E9496
:1034B000AA0362E170E086E10E948F0B60ED8BE56C
:1034C0000E94AA0364E08FE10E94D60382E0809309
:1034D000D502C0C18091D202882309F43FC0109266
:1034E000D2028CE10E94C003182F84FF20C082E02A
:1034F0000E94040D63E184E50E94AA0361E082E575
:103500000E94AA0383E00E94040D8AE00E943927EA
:1035100080FDFBCF82E00E94040D60E082E50E9406
:10352000AA0388E10E94392789E10E94392781E0B6
:103530000E94040D89E10E94C003882319F081E0F4
:103540008093D30210FF0AC00E94F7028CEB0E9406
:10355000A80381E00E94A8030E94F5028091D40292
:103560008130E1F580E00E94040D60E070E082E0CF
:103570000E948F0B60E08AE70E94AA0300E010E03F
:103580006091D20C7091D30C0617170768F4E09184
:103590003D12F0913E12E00FF11F60818AE70E9418
:1035A000AA030F5F1F4FECCF86E00E948F0B68E0ED
:1035B0008FE10E94D6031092D4021092E002809113
:1035C000E1025DE0859FF0011124EA57F34F10827C
:1035D00060E00E94EC0C80E10E9411038091D30214
:1035E000813009F037C180E00E94040D609114021F
:1035F0007091150280E00E948F0B8AE30E94C00345
:1036000090E090931502809314028AE30E94C00315
:103610002091140230911502382B3093150220931B
:1036200014028AE30E94C003082F10E08AE30E947C
:10363000C003182B8AE30E94C0038AE30E94C003E0
:10364000C8010F978B31924090F4E1E1EE2EE8E053
:10365000FE2E8AE30E94C003F70181937F01CF0110
:103660008151984080179107A0F310E001C011E04C
:1036700060911402709115028CE00E948F0B60E43F
:103680008EE10E94D6031092D3021111E3C0809103
:103690001D0890E0982F882720911E08822B811505
:1036A000F8E09F0729F08630984009F472C0D2C034
:1036B0008FE198E09093A1128093A01280912F083F
:1036C00090913008A0913108B09132080091240205
:1036D0001091250220912602309127028017910730
:1036E000A207B30739F140911C0250911D0260916D
:1036F0001E0270911F026A017B01C094D094E09475
:10370000F0944601570188229922AA22BB228C14E8
:103710009D04AE04BF0409F09DC080279127A22715
:10372000B32784239523A623B723892B8A2B8B2B9E
:1037300009F090C080912808813109F08BC0009178
:10374000370810E0102F002780913808082B085008
:1037500011098091350890E0982F8827209136082C
:10376000822B8035934C09F075C00138110510F09B
:1037700000E810E0A8016BE378E08BE793E00E949B
:103780008F2C10937A03009379038EE00E9411032B
:1037900061C08091250890E0982F88272091260805
:1037A000822B8130910519F00297F1F053C04091BE
:1037B0002402509125026091260270912702809187
:1037C000370890913808A0913908B0913A08481705
:1037D00059076A077B07F1F54DE258E067E278E0A8
:1037E00082E00E94ED0336C08091DC02813091F5C9
:1037F0008091DE02AAE08A9FC0011124FC01E45FEF
:10380000FC4E40912D0850912E0860912F08709128
:1038100030084083518362837383DC01A05FBC4E18
:1038200026E0E7E2F8E001900D922A95E1F7209179
:10383000E8112D7F2093E8111092DC02805F9C4EEE
:103840000E941B0D8091DE0290E001968370992703
:103850008093DE021FB7F8948091D102823011F577
:103860008091110281111EC0809113028F3FB1F02F
:10387000E82FF0E0EC52F34F9081909313029F3FBA
:1038800011F4909312029FEF90838093110281E0D4
:103890008093D10288E10E94110304C08093110239
:1038A0001092D1021FBF9FB7F8948091D102882354
:1038B00009F4EBC69FBF1FB7F8944A9903C086E18D
:1038C0000E9411031FBF43C78091CF0281113FC7E0
:1038D0001092D002F090CA0FB1E0FB1238C7D9C6DF
:1038E0009FB7F8948091A4129FBF81110FC05A9A7C
:1038F00048EE53E060E070E082E00E9478038FB70A
:10390000F89491E09093A4128FBF21C7813049F4BD
:103910008FB7F89492E09093A4128FBF0E94450352
:1039200016C78230C9F42FB7F89480914A0A909153
:103930004B0A906890934B0A80934A0A10925B0A54
:1039400010925A0A8FE080939A1283E08093A41217
:103950002FBF0E943903FBC6833071F48FB7F894F0
:1039600094E09093A4128FBF4EEE52E060E070E0BE
:1039700082E00E947803EBC6843091F48FB7F8940C
:1039800021E030E43093410A2093400A92E0909382
:103990009A1295E09093A4128FBF0E943903D7C664
:1039A000853071F48FB7F89496E09093A4128FBF8E
:1039B00046E950E060E070E082E00E947803C7C60C
:1039C000863049F48FB7F89497E09093A4128FBF94
:1039D0000E944503BCC6873009F041C02FB7F89458
:1039E00080913E0A90913F0A2FBF8335924171F03A
:1039F0008FB7F8941092A2128FBF8FB7F8941092DD
:103A0000FE038FBF8AE00E941103A1C62FB7F8946E
:103A10008091440A9091450A8373977284609864F8
:103A20009093450A8093440A80E199E19093470A74
:103A30008093460A8091480A9091490A88279E7F80
:103A40008F649093490A8093480A86E080939A1283
:103A500088E08093A4122FBF0E94390378C6883073
:103A600009F075C68FB7F8941092A2128FBF80E04C
:103A70000E9440090E94BC080E946C0360930412DB
:103A800070930512809306129093071284E690E0DB
:103A9000A0E0B0E08093081290930912A0930A125C
:103AA000B0930B1280910C128E7F826080930C1267
:103AB00082E10E9411030E94010849C69FB7F89451
:103AC0008091A5129FBF811122C02FB7F8948091D9
:103AD0000313909104138B569340937090689093C6
:103AE000430A8093420A8091440A9091450A9F7646
:103AF00090649093450A8093440A84E080939A12DC
:103B000081E08093A5122FBF0E94390320C6813027
:103B100051F48FB7F89492E09093A5128FBF88E08C
:103B20008CBBEB9A14C6823049F48FB7F89493E0BB
:103B30009093A5128FBF0E94450309C6833041F5BB
:103B40002FB7F8948091520A9091530A9370855937
:103B50009C4F90930B1380930A138091420A90918B
:103B6000430A9F779093430A8093420A8091440AC4
:103B70009091450A9F7B9093450A8093440A84E084
:103B800080939A128093A5122FBF0E943903DFC53C
:103B9000843049F48FB7F89495E09093A5128FBFC5
:103BA0000E944503D4C5853009F0D1C52FB7F894DC
:103BB0008091500A9091510A88279074892F9927F3
:103BC0002FBF892B89F520910A1330910B139FB7D2
:103BD000F89430930A082093090880910C089FBF3D
:103BE000833031F0853021F487E00E94110308C052
:103BF0008FB7F89491E090930C088FBF0E94420316
:103C00008091A812882351F08FB7F89494E0909394
:103C1000A2128FBF81E00E94FE0899C58FB7F89469
:103C20001092A2128FBF93C58FB7F89494E090932F
:103C3000A5128FBF0E943F038AC59FB7F8942091B9
:103C4000090F8091A6129FBF811140C0223069F4F4
:103C50002FB7F8948091400A9091410A9560909313
:103C6000410A8093400A2FBF0FC03FB7F89480915C
:103C7000400A9091410A9A7F91609093410A809303
:103C8000400A3FBF21115BC52FB7F8948091400ACD
:103C90009091410A92609093410A8093400A2FBF0D
:103CA0002FB7F8948091440A9091450A9F769064CA
:103CB0009093450A8093440A84E080939A1281E0AD
:103CC0008093A6122FBF0E94390341C5813051F461
:103CD0008FB7F89492E09093A6128FBF88E08CBBC8
:103CE000EB9A35C5823049F48FB7F89493E09093FE
:103CF000A6128FBF0E9445032AC5833081F52FB7D6
:103D0000F8948091500A9091510A8827907290936C
:103D1000E3028091520A9091530A937085599C4F07
:103D200090930B1380930A138091400A9091410A5B
:103D30009E7F9093410A8093400A8091440A90911B
:103D4000450A9F7B9093450A8093440A84E08093C0
:103D50009A128093A6122FBF0E943903F8C48430B0
:103D600049F48FB7F89495E09093A6128FBF0E9404
:103D70004503EDC4853009F0EAC42FB7F89480916B
:103D8000500A9091510A88279074892F99272FBF44
:103D9000892BB1F58091E30281111AC080910A1339
:103DA00090910B130E940B058091A812882351F06B
:103DB0008FB7F89494E09093A2128FBF81E00E9495
:103DC000FE08C5C48FB7F8941092A2128FBFBFC46B
:103DD0008FEF9FEF0E940B058091A812882351F06E
:103DE0008FB7F89494E09093A2128FBF81E00E9465
:103DF000FE08ADC48FB7F8941092A2128FBFA7C46B
:103E00008FB7F89494E09093A6128FBF0E943C0362
:103E10009EC48FB7F8943091A7128FBF311109C09B
:103E20008FB7F89491E09093A7128FBF0E9445033B
:103E30008EC4313009F08BC44FB7F8947091540A96
:103E4000F091550AE091560AA091570A2091580A1C
:103E50006091590A80915A0A90915B0A4FBF4A2F8C
:103E600046954695469550E04430510509F467C0A3
:103E700024F44230510530F0DAC04830510509F4DD
:103E800088C0D5C02FB7F894F093B7127093B812CA
:103E9000E370AE2FB0E0AA0FBB1FA255BD4E119626
:103EA0009C93119712968C9381E090E00E2E01C0A6
:103EB000880F0A94EAF79091AE12892B8093AE1284
:103EC0002FBF8F3009F0B3C08FB7F89420910C0842
:103ED0008FBF89E0E1EBF7E0DF011D928A95E9F7FA
:103EE00088E0EFEAF2E1A1EBB7E001900D928A954C
:103EF000E1F74FB7F8943093AB073093AC0780915C
:103F0000B71290E0982F88273091B812832B9093A6
:103F1000B0078093AF074FBF253019F489E00E94A6
:103F2000110383E00E94110348E050E060E270E07A
:103F30008FEA92E10E94982C1092AE1278C04FB78F
:103F4000F894EF70B4E0EB9FF0011124E255FD4EC0
:103F500063872487958786874FBF8FB7F8948FBF75
:103F60008FB7F8943093AD078FBF81E4EAEBF7E0A9
:103F7000DF011D928A95E9F780E4E9EBF2E1AAEB13
:103F8000B7E001900D928A95E1F783E00E9411035A
:103F90004EC022952071392F32953F70232BAC01F2
:103FA000E6E056954795EA95E1F74F73982F9F7194
:103FB000969585FF03C0822F891B02C0822F890F2F
:103FC0000FB7F894E9EFF2E116E0DF01212F1D921F
:103FD0002A95E9F71F924F931F928F938DE892E0F5
:103FE0009F938F93FF93EF930E941D2D0FBF8FB769
:103FF000F8948FBF8FB7F89491E09093AE078FBF7E
:10400000EBEFF7E0DF01212F1D922A95E9F7E9EFA9
:10401000F2E1ABEFB7E001900D921A95E1F783E082
:104020000E9411030FB6F894DEBF0FBECDBF809182
:10403000A81281110CC08FB7F89494E09093A2124B
:104040001092A7128FBF80E00E94FE0880C38FB736
:10405000F8941092A2121092A7128FBF78C39FB744
:10406000F8948091A3129FBF882319F00E94450302
:104070006EC38FB7F89491E09093A3128FBF0E9404
:10408000540865C38FB7F89490910D02911135C013
:104090008FBF8FB7F8949091CD02913071F522E0E7
:1040A0002093CD028FBF8FB7F89420E130E030939A
:1040B000080F2093070F2FE332E13093D10C2093A8
:1040C000D00C20E220930D0823E0209334131092AB
:1040D0009B129093CC028FBF0E9464031FB7F89489
:1040E00080911F128F7A816A80931F1284E08093DF
:1040F000CD020E94F0021FBF2AC38FBF8FE10E9432
:10410000110325C39FB7F8948091A3129FBF882302
:1041100019F00E9439031BC39FB7F89482E0809383
:10412000A31280919A12880F82509FBF20E092E0E4
:104130002817B0F43FB7F894422F50E0E92FF0E091
:10414000EE0FFF1FE45CF54F60817181FA01E15CC5
:10415000FD4E708361833FBF9F5F9F702E5FE8CFEE
:104160000E945408F4C29FB7F89480919A129FBF9E
:104170009FB7F89420910D02211136C09FBF9FB7C1
:10418000F8942091CD02213079F522E02093CD02E0
:104190009FBF9FB7F89420E130E03093080F209341
:1041A000070F2FE332E13093D10C2093D00C880F0E
:1041B000825080930D0883E08093341310929B12F9
:1041C0001092CC029FBF0E9464031FB7F8948091A5
:1041D0001F128F7E816E80931F1284E08093CD0228
:1041E0000E94F0021FBFB3C29FBF81E20E94110371
:1041F000AEC240E050E02AE0DA01A15CBD4EE22F01
:10420000F0E0EE0FFF1FE45CF54F8C9190E0982FEB
:10421000882711963C91832B918380832F5F2F7089
:104220004E5F5F4F4032510539F791C28FB7F89416
:104230009091991290930E0293E09093CE028FBFCB
:1042400080910E029FB7F89480930D029FBF811159
:104250007EC29FB7F8948091A3129FBF813031F046
:10426000823041F481E20E94110371C28FE10E9409
:1042700011036DC20E945C0C6AC21FB7F894809152
:10428000CC02882321F081E00E94D21002C00E945B
:104290003F111FBF5CC28FB7F8949091060F9093A7
:1042A0000C0293E09093CA028FBF80910C0281119F
:1042B00001C0809880910C02811149C281E08093F5
:1042C000A90F1092FF120E94100C41C21092A90F68
:1042D00000912112109122128091FF12811137C298
:1042E000FFB6F8948091CA02833009F03FC08091F4
:1042F0000C0281113BC08091DF11882309F414C2A4
:104300006091CB0270E0CB010196A1E0B0E081307A
:10431000910511F480E090E0282F269526952695AA
:1043200030E0F901E152FE4E2081382F3770AD01A7
:1043300001C0440F3A95EAF7322F342331F040950B
:10434000242320838093CB0206C08617970711F0A1
:104350000196DDCF8FEF8093060F8FEF80930C02D5
:1043600081E08093CA0285E20E941103FFBE96E0BD
:10437000169507959A95E1F70093FF0384E00E9454
:104380001103E5C180910C0F8130E1F460E080E819
:104390000E94B00B88E290E00E94AC0700E010E0C1
:1043A000F801E655F04F61E080810E94B00B88E291
:1043B00090E00E94AC070F5F1F4F0031110581F79D
:1043C00010920C0F80910D0F813009F0C0C160E098
:1043D00080EC0E94B00B88E290E00E94AC0700E005
:1043E00010E0F801E654F04F61E080810E94B00BCC
:1043F00088E290E00E94AC070F5F1F4F003111056B
:1044000081F710920D0FA3C10E943303A0C1E09168
:10441000E102ADE0EA9FC0011124FC01E957F34F2E
:1044200026E0ACE5BAE001900D922A95E1F726E08E
:10443000E6E1F2E0A2E6BAE001900D922A95E1F7FA
:10444000FC01EA57F34F978180859093690A809326
:10445000680A0385148561857285A8018AE69AE059
:104460000E948F2C8091D40281111AC08091D502B4
:104470008230B1F40E94BE0B811114C08CE59AE029
:1044800090933E1280933D12025F1F4F1093D30C06
:104490000093D20C81E08093D4028093E00257C154
:1044A00065E001C067E08091E102BDE08B9FF00113
:1044B0001124EA57F34F10820E94EC0C48C18091FE
:1044C000DB02282F30E05DE1859FF0011124AF0170
:1044D000405A5D4E9091930C911126C064E97CE0A6
:1044E0006115710509F1EE58FD4E86E0DB01019082
:1044F0000D928A95E1F786E098E090939B0C80936B
:104500009A0C50939D0C40939C0C8CE190E09093FE
:104510009F0C80939E0C11E01093930C80E10E94FD
:1045200011031093DA0213C19DE1929FF001939F52
:10453000F00D1124E15AFD4E108265E00E94D90C65
:1045400006C18091D902A8E08A9FC00111248D5034
:10455000914F0E944E0D8823A1F09091D90228E03E
:10456000929FF0011124EE50F14F1082992331F007
:10457000913009F0ECC00E94AF0CE9C00E94B50771
:10458000E6C081E08093D802E2C0E091D702EE2E2F
:10459000F12CBBE0EB9FF0011124E95DFD4E41855C
:1045A00052858A010C5F1F4F858180930F0F868192
:1045B0008093100F6781708583E19FE00E948F2CAC
:1045C0001092120F1092110FA80156954795EFE027
:1045D000FFE020E030E080E090E0DC0124173507C8
:1045E00049F061917191860F971FA11DB11D2F5F39
:1045F0003F4FF4CFAD01662777274115510561057F
:10460000710539F0AA27BB27840F951FA61FB71F76
:10461000F1CF80959095A095B0959093120F8093CF
:10462000110F8091F20E811126C083EF9EE0892B3D
:1046300011F12BE02E9DC0012F9D900D1124885D5E
:104640009D4E9093F40E8093F30EFF24F394F0921A
:10465000F50E8FE09FE09093F70E8093F60E109387
:10466000F90E0093F80EF092F20E84E10E9411030D
:10467000F092D6026CC08BE08E9DF0018F9DF00D04
:104680001124E95DFD4E108262C08CB58F7B8CBD1C
:1046900011C99091CF0F8091D00F9093D80F809334
:1046A000D70F9091D10F8091D20F9093DA0F809312
:1046B000D90F4091D50F5091D60F8A01085F1F4F37
:1046C0000093DC0F1093DB0F6091D30F7091D40F28
:1046D0008FED9FE00E948F2C8091FA0E81111FC0F8
:1046E0008BEF9EE0892BD9F08BEC9FE09093FC0E32
:1046F0008093FB0E81E18093FD0E87ED9FE0909308
:10470000FF0E8093FE0E1093010F0093000FF092A6
:10471000FA0E84E10E941103F092CF0218C01092A9
:10472000CA0F0E94360313C081E080930C021092DE
:10473000CA0280917A008F7780937A0017CE2FB7C4
:10474000F8948091400A9091410A9D7FA4CAA39653
:104750000FB6F894DEBF0FBECDBFDF91CF911F9192
:104760000F91FF90EF90DF90CF90BF90AF909F9010
:104770008F907F906F905F904F900895CF93DF93CD
:104780001F92CDB7DEB789830E94640390911F12F8
:104790009A7F90931F120E94F0020E9464039091EE
:1047A0001F12946090931F120E94F00291E0909368
:1047B000CD022091CC0290910D028981222339F003
:1047C00091110CC00F90DF91CF910C94AC1091110E
:1047D00005C00F90DF91CF910C941C110F90DF91C9
:1047E000CF9108958FB7F89408958FBF08951F92C1
:1047F0000F920FB60F9211240BB60F922F933F9387
:104800004F935F936F937F938F939F93AF93BF93D8
:10481000EF93FF932FB7F8948091020F9091030FBD
:10482000A091040FB091050F0196A11DB11D8093B9
:10483000020F9093030FA093040FB093050F2FBFA7
:1048400078940E945404FF91EF91BF91AF919F9192
:104850008F917F916F915F914F913F912F910F9029
:104860000BBE0F900FBE0F901F9018951F920F92C6
:104870000FB60F9211240F900FBE0F901F90189536
:104880001F920F920FB60F9211240BB60F92CF9278
:10489000DF92EF92FF920F931F932F933F934F93CB
:1048A0005F936F937F938F939F93AF93BF93CF93B8
:1048B000DF93EF93FF932EB5E0910F08F09110086E
:1048C000309739F080910A0F90910B0FE80FF91F84
:1048D000208380910A0F90910B0F019690930B0FFC
:1048E00080930A0F8CB58F778CBDC0910A0FD09141
:1048F0000B0F2091001330910113C217D307D8F585
:104900000091CD0C1091CE0CC0900F08D0901008E3
:10491000CE010A962817390708F4C9017C0121E065
:10492000E21AF108CE15DF05A0F40115110529F0F2
:10493000F801EC0FFD1F808101C080E00E94A203FE
:10494000C114D10421F0F601EC0FFD1F80832196E4
:10495000E9CF8CB580688CBD0115110531F0F801E7
:10496000EC0FFD1F80818EBD01C01EBCD0930B0FCC
:10497000C0930A0F11C01092100810920F081092E5
:10498000CE0C1092CD0C10920113109200131092C5
:104990000B0F10920A0F8EB5FF91EF91DF91CF911F
:1049A000BF91AF919F918F917F916F915F914F9147
:1049B0003F912F911F910F91FF90EF90DF90CF903B
:1049C0000F900BBE0F900FBE0F901F9018951F9267
:1049D0000F920FB60F9211240F900FBE0F901F90E1
:1049E00018951F920F920FB60F9211240F900FBEC1
:1049F0000F901F9018951F920F920FB60F921124CF
:104A00000BB60F922F933F934F935F936F937F93C8
:104A10008F939F93AF93BF93EF93FF9386E10E9491
:104A20001103FF91EF91BF91AF919F918F917F9172
:104A30006F915F914F913F912F910F900BBE0F900F
:104A40000FBE0F901F9018951F920F920FB60F92E6
:104A500011240BB60F922F933F934F935F936F9355
:104A60007F938F939F93AF93BF93EF93FF93809127
:104A7000A212823029F0833041F0811116C00AC0A1
:104A80000E940F030E943F0312C00E940F030E9466
:104A90003C030DC08091A812882349F086E08093E2
:104AA000A2128DE10E94110302C00E940F03FF9128
:104AB000EF91BF91AF919F918F917F916F915F9196
:104AC0004F913F912F910F900BBE0F900FBE0F9003
:104AD0001F9018951F920F920FB60F9211240F90EE
:104AE0000FBE0F901F9018951F920F920FB60F9246
:104AF00011240F900FBE0F901F9018951F920F92C8
:104B00000FB60F9211240F900FBE0F901F901895A3
:104B10001F920F920FB60F9211240F900FBE0F909D
:104B20001F9018951F920F920FB60F9211240BB67B
:104B30000F922F933F934F935F936F937F938F9336
:104B40009F93AF93BF93EF93FF930E946403809171
:104B5000B900982F987F2091CD02243079F126302A
:104B600021F0233009F04DC013C08091CC02813078
:104B700049F4903429F483E08093CD0281E010C0A1
:104B800084E016C09831E1F783E08093CD0213C032
:104B90002091CC02213039F4807F803541F480E0CF
:104BA0000E94D2102EC0983231F0903321F081E073
:104BB0000E94BE2326C00E943F1123C0809134135F
:104BC0008E7F8093341380911F128F7D983029F04F
:104BD000903119F080931F12EACF806480931F12E6
:104BE00091E08091CC02813009F090E08091070F34
:104BF000880F892B8093BB0086E08093CD020E94B2
:104C0000F002FF91EF91BF91AF919F918F917F91B2
:104C10006F915F914F913F912F910F900BBE0F902D
:104C20000FBE0F901F9018951F920F920FB60F9204
:104C300011240BB60F922F933F934F935F936F9373
:104C40007F938F939F93AF93BF93EF93FF93909135
:104C500006018091D50C97FD11C08350883008F073
:104C60007BC08091E20286958093E20290910601DA
:104C700096FF72C080688093E2026EC0815080937C
:104C8000D50C811169C09091E202903E09F461C097
:104C90008091AC12811155C0993549F0903F19F0BF
:104CA000923149F404C081E08093AC1252C081E09B
:104CB0008093C80C4EC08091C80C60E081111FC069
:104CC00081E4262F30E0280F311D35952795A90165
:104CD000440F551FFA01EC52FE4FE491E91718F406
:104CE00061E0620F09C09E1718F48FEF820F04C0B5
:104CF000FA01EB52FE4F1EC0861718F72AC081E456
:104D0000262F30E0280F311D35952795A901440F36
:104D1000551FFA01E45BFE4FE491E91718F461E0D6
:104D2000620F0CC09E1718F48FEF820F07C0FA01B4
:104D3000E35BFE4F84910E94DA040BC0861700F7F4
:104D400008C01092AC12923111F0993511F4109202
:104D5000C80C8BE08093D50CFF91EF91BF91AF9180
:104D60009F918F917F916F915F914F913F912F9183
:104D70000F900BBE0F900FBE0F901F9018951F92B3
:104D80000F920FB60F9211240BB60F922F933F93F1
:104D90004F935F936F937F938F939F93AF93BF9343
:104DA000CF93EF93FF93209178003091790078941E
:104DB0004FB7F8948091021381FB992790F9817085
:104DC0004FBF811122C080917A00877F80937A0043
:104DD0008091A90F813019F0823091F036C0911185
:104DE00007C08DE790E00E94AC070E94100C2DC018
:104DF000309322122093211286E20E94110325C0D3
:104E0000992379F31092A90F20C0CFB7F8940E948C
:104E10004803CFBF2FB7F89480917A0086FB99277B
:104E200090F9877F806190FB86F98F7780937A0075
:104E3000877F80618F7B8F7780937A00877F806107
:104E40008F7B806880937A002FBFFF91EF91CF9185
:104E5000BF91AF919F918F917F916F915F914F9192
:104E60003F912F910F900BBE0F900FBE0F901F9090
:104E70001895CF93DF931F92CDB7DEB789830E9439
:104E8000F70289810E94A8038FEF0E94A8038FEF89
:104E90000E94A20389830E94F50289810F90DF910D
:104EA000CF910895CF93DF93CDB7DEB76B970FB651
:104EB000F894DEBF0FBECDBF0FB7F89448E250E0C4
:104EC0006FEF70E080EA9CE00E94982C8FEF809357
:104ED000A9128093091388EE91E09093AB1280930E
:104EE000AA12089A099A0A9A10981198129880E0C2
:104EF000877F8F7E8F7D8F7B8F7780937A0081E095
:104F000083BF0E94FD028F3F19F00E947211F9CFFA
:104F100087B18C6F87B918E288EE93E00E94AC07E6
:104F20001150D1F760E088E20E94B00B88E290E077
:104F30000E94AC0760E088E20E94B00B88E290E03B
:104F40000E94AC0760E08CE00E94B00B88E290E029
:104F50000E94AC0760E081E00E94B00B88EE93E015
:104F60000E94AC0788EE93E00E94AC0760E086E008
:104F70000E94B00B88E290E00E94AC0740E250E053
:104F800060E270E08AEA9FE00E94982C81E08093C2
:104F90000C0F80930D0F1092AD12109220121092F0
:104FA000DF111FEF10930E0F1093D40C729A739AA7
:104FB0007498759A0E94FB02779A6A9A6B9A6C9A17
:104FC0006D9A6E9A6F9A82B112B881B111B96FE37E
:104FD00080E00E94C40E6FE381E00E94C40E60EC8A
:104FE00080E00E94C40E60EC81E00E94C40E8091BB
:104FF000B60080728093B6008091B60081FDFCCF30
:1050000082E08093B0008091B60080FDFCCF85E007
:105010008093B1008CE78093B30080917000826030
:10502000809370000E946C036093E9117093EA1101
:105030008093EB119093EC1180E395E7A0E0B0E052
:105040008093ED119093EE11A093EF11B093F011B6
:105050008091F1118E7F82608093F11182E10E9434
:105060001103809128029091290290932602809347
:1050700027020E94FD028F3F19F00E947211F9CFA2
:105080000FBF7894EBE0F4E099E089E22FB7F89451
:105090002FBFAF01465F5F4F578346839F012D5E51
:1050A0003F4F31872087DA01292F1D922A95E9F792
:1050B00040855185DA01282F1D922A95E9F7FB9644
:1050C000A7E0E038FA0711F78FB7F89410920C08B0
:1050D00010920B048FBF1092010449E050E06FEF73
:1050E00070E082E094E00E94982C109200041092EC
:1050F000FF0366E775E0CE0142960E94512C198E9F
:105100001092AD1210922012CE0142960E94B2046B
:105110000E9439050E94C60F9FB7F894809107013D
:105120008F77809307019FBF9FB7F8948091070105
:105130008F7B809307019FBF80916D008068809373
:105140006D008FB7F8949BE09093D50C1092C80C2B
:105150001092AC128FBF80916800846080936800C9
:105160009FB7F8948091A2129FBF811131C09FB761
:10517000F89481E08093A2121092A3121092A412CC
:105180001092A81280E2ECE3FAE0DF01282F1D92D2
:105190002A95E9F7EFE3F2E1DF011D928A95E9F73D
:1051A0009FBF529A5A98519A599853985B988091F8
:1051B0006900806880936900809169008F7B80938B
:1051C000690041E050E060E070E082E00E94780316
:1051D0008FB7F89451E05093FD038FBF80EC80931C
:1051E000240298EA909325022AE22093260242E0C4
:1051F000409327023FEF30931C0230931D023093FF
:105200001E0210921F02809320029093210220938D
:105210002202509323021F924F931F922F931F92AB
:105220009F931F928F9384EB92E09F938F938E01B5
:105230000F5F1F4F1F930F930E941D2D4CE360E0E3
:10524000C8010E94710F1092FC030FB6F894DEBFE4
:105250000FBECDBF8091D502811136C0209A0E9429
:10526000F502249A2C981B8E1A8E8A8D9B8D803283
:105270009E4430F48A8D9B8D01969B8F8A8FF5CF4B
:105280002C9A1B8E1A8E8A8D9B8D80329E4430F410
:105290008A8D9B8D01969B8F8A8FF5CF52985A9A53
:1052A00084E08CBB8091690080628093690080916A
:1052B00069008F7E80936900EA9A0E94BE0B81117B
:1052C00003C081E08093D5028FB7F8941092FD035C
:1052D0008FBF1FB7F8940E94FD028F3F09F058C09E
:1052E00080917000837089F08091B6008A71E1F737
:1052F0008091B3009091B200891B883040F080917A
:10530000B200893F20F483E003C085E001C082E061
:10531000E0916E00E67029F590916F009E7221F584
:10532000E0917100EE72E9F4909172009E72E1F4E6
:10533000E0917300EE72A9F40CB407FC15C09091D3
:10534000C100987189F4E091C900E87151F490911D
:10535000BC0092FD09C090917A0097FD04C0E5E081
:1053600003C0E0E001C0E1E093B78E1708F4E82F36
:10537000F0E0EA5BFE4F8491E92FE07FE160E82BEB
:10538000E3BF78948895F89483B78E7F83BFA3CFCB
:105390001FBF0E9472119DCFAA1BBB1B51E107C00A
:1053A000AA1FBB1FA617B70710F0A61BB70B881FB5
:1053B000991F5A95A9F780959095BC01CD01089544
:1053C000EE0FFF1F0590F491E02D09942F923F926C
:1053D0004F925F926F927F928F929F92AF92BF9205
:1053E000CF92DF92EF92FF920F931F93CF93DF93B1
:1053F0005C016B017A016115710519F0FB01918364
:105400008083E114F10429F0C7010297839708F023
:10541000F1C0E5012196F5011081812F90E00E94F5
:10542000492C892B11F05E01F4CF1D3229F421960D
:10543000F501118101E007C01B3221F4E50122963C
:10544000F501118100E0E114F10459F1F0E1EF16EA
:10545000F10461F41033E1F488818F7D883569F5BA
:1054600019812296026070E1E72EF12C88E0E8169F
:10547000F10439F12CF4F2E0EF16F104C9F12AC07D
:105480008AE0E816F10479F0E0E1EE16F10411F596
:1054900050E1E52EF12C812C912CA12C68E0B62E48
:1054A0002CC01033C9F23AE0E32EF12C4CEC842EE0
:1054B000982CA82C4CE0B42E20C010E3E114F10489
:1054C000A9F698E0E92EF12C812C912CA12C20E159
:1054D000B22E13C060E070E080E090E897014427AE
:1054E00037FD4095542F0E94073049015A0105C0ED
:1054F000812C912CA12C80E4B82E60E020E030E0DB
:10550000A9012701662457FC6094762C1E01E0ED6A
:10551000E10FEA3060F08FEB810F8A3110F4E9EC93
:1055200005C08FE9810F8A3128F5E9EAE10F8E2F56
:1055300090E08E159F05F4F467FD18C0821693065F
:10554000A406B50690F0C301B2010E94F72F9B019B
:10555000AC012E0F311D411D511D2130310541057A
:10556000F0E85F0710F461E001C06FEF2196F101F0
:105570001081CCCF802F8170C114D10471F06623CB
:1055800029F02197F601D183C08307C001FF19C01C
:105590002297F601D183C08314C067FF12C0811126
:1055A00005C02FEF3FEF4FEF5FE704C020E030E092
:1055B00040E050E882E290E09093361380933513F8
:1055C00016C0882341F050954095309521953F4F66
:1055D0004F4F5F4F0CC057FF0AC082E290E090939C
:1055E0003613809335132FEF3FEF4FEF5FE7B9018D
:1055F000CA0104C060E070E080E090E0DF91CF91EC
:105600001F910F91FF90EF90DF90CF90BF90AF90E0
:105610009F908F907F906F905F904F903F902F90D2
:1056200008952F923F924F925F926F927F928F9246
:105630009F92AF92BF92CF92DF92EF92FF920F9321
:105640001F93CF93DF9300D000D000D0CDB7DEB74B
:105650005C016B017A016115710519F0DB018D9315
:105660009C93E114F10429F0C7010297839708F095
:10567000DCC03501BFEF6B1A7B0AF5011081812F69
:1056800090E00E94492C892B11F05301F2CF1D327A
:1056900049F43501F2E06F0E711CD50111961C9191
:1056A00001E009C01B3231F43501B2E06B0E711C10
:1056B000F501118100E0E114F10409F4C4C0F0E146
:1056C000EF16F10489F4103399F5D3018C918F7D95
:1056D000883509F0B2C011961C91B2E06B0E711CB6
:1056E000026050E1E52EF12CEAE0EE16F10409F437
:1056F000B0C0F0E1EF16F104D9F028E0E216F104B1
:1057000051F438E0E32EF12C88248A94982CA82CAC
:105710004FE1B42E13C06FEF7FEFCB019701442709
:1057200037FD4095542F0E94073049015A0106C0A9
:1057300088248A94982CA82C2FE0B22E7E826D8229
:1057400060E020E030E0A9012701662457FC609466
:10575000762C2D803E80E0EDE10FEA3060F08FEB9B
:10576000810F8A3110F4E9EC05C08FE9810F8A318D
:1057700090F5E9EAE10F8E2F90E08E159F055CF51C
:105780006F3F09F182169306A406B506D8F0C3014F
:10579000B2010E94F72F2E2F30E040E050E0298325
:1057A0003A834B835C83260F371F481F591F89811B
:1057B0009A81AB81BC81281739074A075B0710F033
:1057C00061E001C06FEFED81FE813196FE83ED83D4
:1057D000D1011C91BECFC114D10489F0662339F0E8
:1057E0008D819E810197F6019183808308C001FF1E
:1057F00006C08D819E810297D6018D939C9300FFF8
:1058000007C050954095309521953F4F4F4F5F4FC2
:1058100067FF10C082E290E09093361380933513B7
:105820006FEF7FEF8FEF9FEF1BC060E070E080E0D5
:1058300090E016C0B901CA0113C010E3E114F104ED
:1058400009F45FCF51CF103309F43FCF9AE0E92E2E
:10585000F12C89E9882E982CA82C89E1B82E6ECFDE
:1058600026960FB6F894DEBF0FBECDBFDF91CF9165
:105870001F910F91FF90EF90DF90CF90BF90AF906E
:105880009F908F907F906F905F904F903F902F9060
:1058900008959111FDC2803219F089508550D0F7DA
:1058A0000895FB01DC0105900D920020E1F70895B9
:1058B000FB01DC014150504030F08D910590801982
:1058C00019F40020B9F7881B990B0895FB01DC013E
:1058D0004150504048F005900D920020C9F701C09A
:1058E0001D9241505040E0F70895FB01559155231A
:1058F000A9F0BF01DC014D9145174111E1F759F4C1
:10590000CD010590002049F04D9140154111C9F39A
:10591000FB014111EFCF81E090E001970895FB0179
:10592000DC0102C001900D9241505040D8F708951B
:10593000DC0101C06D9341505040E0F70895FC0137
:105940008191861721F08823D9F7992708953197F7
:10595000CF010895FB01DC014150504048F0019017
:105960000D920020C9F701C01D9241505040E0F750
:105970000895FA01A191B081009719F41097E1F010
:10598000CD01DC01CD010D90002011F4C00113C048
:10599000FB012191222319F02015D9F7F3CFFB0148
:1059A0002191201519F41E92119606C02223C1F7E9
:1059B0000D900020A1F7D001FA01A193B0830895C2
:1059C0000F931F93CF93DF93CDB7DEB72E970FB60C
:1059D000F894DEBF0FBECDBF0D891E898F89988DCB
:1059E00026E02C831A83098397FF02C080E090E8A9
:1059F00001979E838D83AE01455E5F4F698D7A8DE1
:105A0000CE0101960E944D2D4D815E8157FD0AC049
:105A10002F813885421753070CF49A01F801E20FE1
:105A2000F31F10822E960FB6F894DEBF0FBECDBFC7
:105A3000DF91CF911F910F9108950F931F93CF93F3
:105A4000DF93CDB7DEB72E970FB6F894DEBF0FBE4B
:105A5000CDBF0D891E8986E08C831A8309838FEF61
:105A60009FE79E838D83AE01475E5F4F6F89788D80
:105A7000CE0101960E944D2D2F813885F801E20F4D
:105A8000F31F10822E960FB6F894DEBF0FBECDBF67
:105A9000DF91CF911F910F9108952F923F924F92D6
:105AA0005F926F927F928F929F92AF92BF92CF92AE
:105AB000DF92EF92FF920F931F93CF93DF93CDB7B7
:105AC000DEB72C970FB6F894DEBF0FBECDBF7C01BA
:105AD0006B018A01FC0117821682838181FFBDC19F
