S01F00006275696C642F626967415652365F313238302F6D61696E2E7372656377
S11300000C9485020C94A1200C9497200C9400204D
S11300100C9429200C948D200C9483200C9479202A
S11300200C946F200C94A4020C94A4020C94382118
S11300300C94A4020C94191F0C94A4020C94AB20ED
S11300400C94A4020C94A4020C94A4020C94A40294
S11300500C94A4020C94A4020C94A4020C94A40284
S11300600C94581F0C94A4020C94A4020C94A402A3
S11300700C94A4020C94E6210C94A4020C94A40203
S11300800C94A4020C94A4020C94A4020C94A40254
S11300900C94A4020C94A4020C94A4020C94B52015
S11300A00C94A4020C94A4020C94A4020C94A40234
S11300B00C94A4020C94A4020C94A4020C94A40224
S11300C00C94A4020C94A4020C94A4020C94A40214
S11300D00C94A4020C94A4020C94A4020C94A40204
S11300E00C94A402C10E300FAF0FDB0FE70FE90F22
S11300F0BE0EC310DD102511CF12D412DE12F01281
S1130100D31433155715AB15281653167D16A1169F
S1130110A816BD16CC16DB16B8176B1863199E1AF1
S1130120B11AF11A221B681B821BA91BB71BD21B15
S1130130301C00020E060C040D090E781551162110
S11301401A591B531C411D571E2221432258234474
S113015024452578262329202A562B462C542D5213
S11301602E25314E324233483447355A3626394CDF
S11301703A4D3B4A3C553D2F3E28413B424B434977
S1130180444F453D4629493A4A5F4B4C4C784D50C3
S11301904E3F5278547855605A0A5B5E5D2A613E40
S11301A0660869316B346C377030712C7232733578
S11301B074367538792B7A337B2D7C2A7D3900008F
S11301C00D090E7C157116311A791B731C611D778C
S11301D01E322163227823642465253426332920A2
S11301E02A762B662C742D722E35316E326233686A
S11301F03467357A3636392C3A6D3B6A3C753D376F
S11302003E38412C426B4369446F45304639492E90
S11302104A2D4B6C4C6F4D704E2B526F546F555C86
S11302205A0A5B785D27613C660869316B346C3728
S11302307030712C7232733574367538792B7A3389
S11302407B2D7C2A7D390000000000000000005F47
S113025000000007000700147F147F14242A7F2A5B
S11302601223130864623649552250000503000026
S1130270001C2241000041221C00082A1C2A0808F4
S1130280083E08080050300000080808080800600C
S113029060000020100804023E5149453E00427FA0
S11302A0400042615149462141454B311814127FA7
S11302B01027454545393C4A494930017109050330
S11302C03649494936064949291E00363600000098
S11302D05636000000081422411414141414412248
S11302E01408000201510906324979413E7E111178
S11302F0117E7F494949363E414141227F41412295
S11303001C7F494949417F090901013E414151325C
S11303107F0808087F00417F41002040413F017F62
S1130320081422417F404040407F0204027F7F0442
S113033008107F3E4141413E7F090909063E415173
S1130340215E7F09192946464949493101017F0146
S1130350013F4040403F1F2040201F7F2018207F46
S1130360631408146303047804036151494543008A
S1130370007F4141020408102041417F0000040233
S11303800102044040404040000102040020545453
S113039054787F48444438384444442038444448DA
S11303A07F3854545418087E090102081454543CEC
S11303B07F0804047800447D40002040443D000050
S11303C07F10284400417F40007C041804787C0896
S11303D004047838444444387C141414080814146D
S11303E0187C7C080404084854545420043F4440B6
S11303F0203C4040207C1C2040201C3C4030403CA1
S113040044281028440C5050503C4464544C44003C
S11304100836410000007F0000004136080008084B
S11304202A1C08081C2A08086E6F7465006E616D2A
S11304306500716469616C007069636F646500666E
S1130440726571006964004368616E6E656C204476
S1130450422046756C6C006D7367006F6B004261DF
S11304606E64206C696D697420726561636865648B
S113047021004442206572726F722100444220665A
S1130480756C6C21004661766F75726974657320B2
S113049066756C6C21004368616E6E656C206C69D6
S11304A073742066756C6C2100496E76616C6964A6
S11304B0206368616E6E656C2100464D436C696310
S11304C06B20696E6974206661696C6564210055EE
S11304D06E6B6E6F776E206572726F72210045725B
S11304E0726F723A00566F6C756D653A004D487ABA
S11304F0004368616E6E656C3A2000456E746572E7
S1130500204368616E6E656C3A0011241FBECFEF04
S1130510D1E2DEBFCDBF13E0A0E0B2E0E0E4F6E557
S113052000E00BBF02C007900D92A637B107D9F7C0
S113053023E1A6E7B3E001C01D92A83BB207E1F7AF
S11305400E9460220C941E2B0C94000080919B123C
S11305508093BC000895289A089528980895769861
S11305600895769A0895809127138F3F69F0E82FB4
S1130570F0E0E35EF24F9081909327139F3F11F4D4
S113058090938A139FEF90830895EB9808959FB7F3
S1130590F894E82FF0E0E35EF24F20812F3FC9F496
S11305A021E030E0E0918A13E81711F020E030E018
S11305B0232B79F4209127132F3F19F480932713C9
S11305C004C0F0E0E35EF24F808380938A1380E0FE
S11305D001C085E09FBF089588E00C94C70285E0C0
S11305E00C94C7028FE10C94C7028BE10C94C702F0
S11305F08AE10C94C7028CE00C94C7028DE10C9440
S1130600C702ECE7F0E0208180917B00308190818B
S11306108870880F880F2F71822B35FB222720F9D1
S113062020FB86F99295969596959370292F279598
S113063022272795822B969508958FB7F894909149
S1130640BC0090939B128FBF08958EBD0DB407FE1E
S1130650FDCF8EB508950C942503CF93DF93D82F47
S1130660C62F0E94AD028D2F0E942B038C2F0E9457
S11306702B03DF91CF910C94AB02CF93C82F0E9430
S1130680AD028C2F0E942B0380E00E942503C82F0B
S11306900E94AB028C2FCF910895CF93DF93D82F74
S11306A0C62F0E94AD028D2F80680E942B038C2FD1
S11306B00E942B03DF91CF910C94AB02CF93C82FF0
S11306C00E94AD028C2F0E942B038FEF0E942B03FC
S11306D08FEF0E942503C82F0E94AB028C2FCF916D
S11306E008950F931F93CF93DF939DE0899FD001CB
S11306F01124ED01CD5FD24F8881811115C0FB011A
S1130700AC5FB24F86E001900D928A95E1F758876D
S11307104F833A8729871C870B8781E088838FE082
S11307200E94C70280E001C085E0DF91CF911F9154
S11307300F9108958F929F92AF92BF92CF92DF92C2
S1130740EF92FF920F931F93CF93DF932FEF280F16
S11307509DE1299F90011124890105521D4EF80144
S1130760908191113EC07A01E901C452DD4E51E0FD
S1130770598318821B8298E09A8396E09C8344E014
S11307804D838090240290902502A0902602B09080
S113079027028786908AA18AB28AD901AC51BD4EBC
S11307A0E6E1F2E0492F01900D924A95E1F7D90173
S11307B0A251BD4EFB0101900D929A95E1F7F7010C
S11307C0C080D180E280F380F801C18ED28EE38EA6
S11307D0F48E8F831E82508382E10E94C70280E0E0
S11307E001C085E0DF91CF911F910F91FF90EF90B1
S11307F0DF90CF90BF90AF909F908F9008952FB7C8
S1130800F89480918B08882309F14091450D50910B
S1130810460D6091470D7091480D80919F12909103
S1130820A012A091A112B091A212840F951FA61F2D
S1130830B71F40917E0F50917F0F6091800F709190
S1130840810F84179507A607B70711F02FBF0895E6
S113085010928B082FBF80E10C94C7022FB7F89435
S113086090911E132FBF91110EC09FB7F89423E0EF
S113087020931E13109224138093850F9FBF0E9410
S1130880F50280E0089581E00895DC0181E04D9156
S1130890442311F120912B1330E090919C12F90123
S11308A054E0EE0FFF1F5A95E1F7EA5DFF4EE90FA2
S11308B0F11D40839F5F90939C12F901E857F04F1C
S11308C08083903121F710929C122F5F3F4F21704B
S11308D0332720932B13DBCF08958FB7F89410920E
S11308E02B088FBF89E0EEE2F8E0DF011D928A95C4
S11308F0E9F781E4E7E3F8E0DF011D928A95E9F77F
S113090086E0E8E7F8E0DF011D928A95E9F70895AB
S1130910CF93DF932FB7F8949091A6042FBF911132
S11309206FC0FB019FB7F89422E02093A6049FBFF9
S1130930A3EAB3E090E8ED0119929A95E9F78F3FA5
S113094031F580858F9387818F9384818F93838101
S11309508F9382818F9381818F9380811F928F9354
S113096086818F9385818F931F921F9287E492E0F3
S11309709F938F93BF93AF930E94E6278DB79EB743
S113098040960FB6F8949EBF0FBE8DBF27C080312E
S113099028F590859F9397819F9394819F9393814A
S11309A09F9392819F9391819F9390811F929F9394
S11309B096819F9395819F931F928F938DE792E0E9
S11309C09F938F93BF93AF930E94E627CDB7DEB773
S11309D060960FB6F894DEBF0FBECDBF109222040E
S11309E0E3EAF3E001900020E9F7CF01845A934051
S11309F09093A2038093A103DF91CF910C94FB0207
S1130A00DF91CF910895019701960197019601977F
S1130A1001960197C1F7089510928203E091830330
S1130A208BE0E89FF0011124ED55FD4E108284E126
S1130A300C94C7020F931F93CF93DF930091230469
S1130A4010912404F801EE5DFB4F22812A30D1F489
S1130A50EC0112826DE070E085E294E00E9461276F
S1130A6099838883009741F0FC01108288819981E1
S1130A7001969983888304C00B5D1B4F19830883F7
S1130A8081E001C080E0DF91CF911F910F91089523
S1130A90882329F0813029F47298739A02C07398DC
S1130AA0729A82B182B981B111B87498759A0E9410
S1130AB0B10282E090E00E94030580B1079B0DC063
S1130AC00E94AF0282E090E00E9403050E94B102FE
S1130AD082E090E00E940305F1CF0E94AF02759876
S1130AE081B18FEF81B90895CF93DF93C82FD72FAA
S1130AF080640E942D0381E08C0F6D2F8064DF9150
S1130B00CF910C942D03660F660F68B9439A98B180
S1130B108295807F982B98B943980895CF93DF935B
S1130B20C82FD62F82958F700E9483056D2F8C2F2E
S1130B30DF91CF910C948305CF93C62F0E94480573
S1130B40C2B981B18FEF81B9749A75980E94B102CC
S1130B5082E090E00E9403050E94AF0280E0CF9102
S1130B600895CF93C62F0E944805749875980E94E3
S1130B70B10281B18FEF81B9C2B982E090E00E94E5
S1130B8003050E94AF0280E0CF910895CF93DF93D5
S1130B90C62FD82FD295D695D695D37091E0D92764
S1130BA08F73682F60648D2F0E94B1056C2F67705E
S1130BB0686B8D2FDF91CF910C94B105CF93DF93A8
S1130BC0C0E06C2F80E00E94C6056C2F80E40E9478
S1130BD0C605D0E060E080E00E949C0560E081E012
S1130BE00E949C05DF5FD038A9F7CF5FC83049F772
S1130BF080E0DF91CF9108950F931F93CF93DF93FC
S1130C0000D01F92CDB7DEB78091A9041F928F93B5
S1130C1086E393E09F938F938E010F5F1F4F1F9383
S1130C200F930E94E6271B8210922B1388E0809377
S1130C309C12C8010E94450486E20E94C7020F90DC
S1130C400F900F900F900F900F900F900F900F90A8
S1130C50DF91CF911F910F910895CF930E94480582
S1130C6081B111B8749A759A0E94B10282E090E041
S1130C700E94030580B10E94AF0282E090E00E94CE
S1130C8003050E94B10282E090E00E940305C0B116
S1130C900E94AF028C2FCF9108956F927F928F9212
S1130CA09F92AF92BF92CF92DF92EF92FF920F93F7
S1130CB01F93CF93DF9390EE980F903608F052C0B5
S1130CC05B0190E0809725E0289F8001299F100D0B
S1130CD01124085B1D4F912C66246394CC24C39487
S1130CE0D12CFA2CF90CD9EFDB0DF8017490F6FA3B
S1130CF0CC27C0F9C6258D2E869486948694FD2F24
S1130D00F770EF2E682D8F2D70FE0DC00E94C60562
S1130D108C2F0E942D06B60101C0660FEA94EAF7F3
S1130D20E82EE62A0DC00E94C6058C2F0E942D06CF
S1130D30960101C0220FEA94EAF72095E22EE822F8
S1130D40682D8F2D0E94C6056E2D8C2F0E949C0548
S1130D507694DF5FBD12CFCF0F5F1F4F939485E072
S1130D609812BFCFDF91CF911F910F91FF90EF9019
S1130D70DF90CF90BF90AF909F908F907F906F90B7
S1130D800895EF92FF920F931F93CF93DF937C010B
S1130D90062F142FC62FD0E0F701ED0FF11D84911B
S1130DA0882391F08A3011F08D3019F4185FC02F28
S1130DB009C0893011F4C65F05C0CA5F6C2F712F5A
S1130DC00E944D06DF5FE8CFDF91CF911F910F9115
S1130DD0FF90EF900895FF920F931F93CF93DF93AB
S1130DE0F62E8C01D42FCF2DF80181918F01882309
S1130DF079F08A3011F08D3011F4D85FF4CF893056
S1130E0011F4C65FF1CFCA5FBE010E944D06ECCF5C
S1130E10DF91CF911F910F91FF90089510927B0362
S1130E2090917C032DE0929FF0011124EA5BFF4E28
S1130E301082911103C081110E94FB0288E10C947D
S1130E40C7020F931F93CF93DF938091801388235E
S1130E5009F43FC010E0D0E0CFE10FB7F8948091DF
S1130E6083138E7F809383130E940103282F2F7393
S1130E70881F8827881F9170990F892B811302C0BE
S1130E8091E02C1390E08091831390FB81F99C2FC7
S1130E909F73990F990F8370892B8093831311117A
S1130EA0C064C0937C0080917B00877F80937B002B
S1130EB0909183138D2F8860806190FB85F9806405
S1130EC0806880937A000FBFDF91CF911F910F91BB
S1130ED00895D7E011E0C0E0C0CFCF93DF93CFB740
S1130EE0F8940E941D0380919B128E7F80698093E9
S1130EF09B120E94A602CFBFDFB7F89480917A03B9
S1130F008330C1F5C0910E02C11134C0809110022A
S1130F108F3FC1F0E82FF0E0E657F04F90819093B7
S1130F2010029F3F11F490930F029FEF90838093E0
S1130F30151390930E0281E080937A0382E20E945B
S1130F40C70216C081E080930E0210927A0380914A
S1130F507903813069F40E941D0380919B128A7683
S1130F6080939B120E94A602589859981092790374
S1130F70DFBF02C0DFBFC1E08C2FDF91CF910895A6
S1130F80109284039091850328E0929FF00111242C
S1130F90E259F04F1082992329F0913029F40E94EC
S1130FA00E0702C00E940C0583E10C94C7020F9344
S1130FB01F93009729F481E01F910F910C94C007AF
S1130FC0BC010091540D1091550D102701271027D5
S1130FD022E53DE040E058E080E00E9471031F916B
S1130FE00F910895811110C0662371F080918803D8
S1130FF0813051F410928803809164128D7F809324
S1131000641281E00C94C0070895882319F081309C
S113101021F00895862F0C94C007109286038091C6
S113102087039DE1899FF0011124E552FD4E108252
S11310300E94F20782E10C94C702CF93DF939FB71B
S1131040F89480917D03882399F19FBFDFB7F894CA
S1131050C0917D03C11109C081E080937D0310928A
S1131060110287E10E94C7021EC08091500D8F3F7C
S1131070C9F481E090E0E0911202EE2311F080E0E7
S113108090E0892B79F4809113028F3F19F4109228
S1131090130204C0F0E0E05BF24F108210921202DF
S11310A0C0E001C0C5E0DFBF8C2FDF91CF91089570
S11310B08CB58F7B8CBD229A2398219A209A8CB56B
S11310C080618CBD8CB58F778CBD8DB58E7F8DBDC9
S11310D08CB5877F8CBD8CB58B7F8CBD8CB58C7F9C
S11310E08CBD8CB580648CBDB0CF882389F12FB7BB
S11310F0F8948091C10A9091C20A90699093C20AAF
S11311008093C10A10922C1310922D1310922E1357
S113111084E0809316132FBF48E050E060E270E053
S113112080E393E10E945A2740E450E060E270E0DB
S11311308AE393E10E945A2746E050E060E270E0BF
S11311408AE793E10E945A2788E08CBBEB9A11C08E
S11311500E94C5022FB7F8948091C10A9091C20AE7
S11311609F769093C20A8093C10A84E080931613F9
S11311702FBF0C94F2023FB7F8949091261320915C
S11311801E13809326133FBF21110AC0981741F004
S11311909FB7F89424E020931E139FBF0E94750804
S11311A080E008950F931F939FB7F89400917E0FEA
S11311B010917F0F2091800F3091810F9FBF99E094
S11311C0899FF0011124DF01A45ABD4E0D931D9394
S11311D02D933C93139714964D935D936D937C9349
S11311E01797EC59FD4E80818E7F8260808381E168
S11311F01F910F910C94C70248EE53E060E070E039
S113120085E00C94D2080F931F939FB7F894009134
S11312107E0F10917F0F2091800F3091810F9FBF1F
S113122099E0899FF0011124DF01A45ABD4E0D936A
S11312301D932D933C93139714964D935D936D9347
S11312407C931797EC59FD4E808181608260808386
S113125081E11F910F910C94C70281E08093880370
S113126046E853E166E072E00E949A0344E650E0E7
S113127060E070E080E00C940309CF93C82F0E94D3
S1131280AD028FEB0E942B0383E00E942B030E948C
S1131290AB026C2F8FE1CF910C944D038F929F92F0
S11312A0AF92BF92CF92DF92EF92FF920F931F9370
S11312B0CF93DF930E94AB0280918103813021F0B0
S11312C0823009F498C04CC26FEF8FEF0E942D0357
S11312D08DE10E943D0380FFFBCF80E00E943D0929
S11312E060E076E088E00E94740580E096E09093E8
S11312F015028093140260E076E08CE00E9474058D
S11313006FEF7FE18AE00E94740560E070E084E0A2
S11313100E94740560E88EE50E942D0381E00E941E
S11313203D0961EA88E50E942D0382E00E943D099F
S113133060E081E40E942D0361E080E40E942D03BB
S113134063E382E40E942D0360E083E40E942D03A2
S11313506AE272E08AE00E94740565E184E40E9416
S11313602D03909128028091290290931B0280936F
S11313701A0283E00E943D0960911B0281E40E94ED
S11313802D0360911A0280E40E942D0360911902DA
S113139083E40E942D036091180282E40E942D03CD
S11313A06091170285E40E942D036091160284E483
S11313B00E942D0382E00E943D0964E184E50E94BD
S11313C02D0360E471E086E10E94740562E184E526
S11313D00E942D0362E170E086E10E94740560EDD5
S11313E08BE50E942D0364E08FE10E944D0382E0AF
S11313F080938103B5C180917E03882309F43FC0A3
S113140010927E038CE10E943D03C82F84FF20C00C
S113141082E00E943D0963E184E50E942D0361E0BE
S113142082E50E942D0383E00E943D098AE00E9428
S11314305E0380FDFBCF82E00E943D0960E082E50F
S11314400E942D0388E10E945E0389E10E945E03ED
S113145081E00E943D0989E10E943D03882319F03F
S113146081E080937F03C0FF0AC00E94AD028CEB31
S11314700E942B0381E00E942B030E94AB02809107
S113148080038130D9F580E00E943D0960E070E07E
S113149082E00E94740560E08AE70E942D03C0E0A8
S11314A0D0E060914E0D70914F0DC617D70760F4D0
S11314B0E091B912F091BA12EC0FFD1F60818AE736
S11314C00E942D032196EDCF86E00E94740568E00A
S11314D08FE10E944D031092800310928C0380913F
S11314E08D032DE0829FF0011124ED5FF24F1082F5
S11314F060E00E9405088FE00E94C70280917F038C
S1131500813009F02DC180E00E943D0960911402F0
S11315107091150280E00E9474058AE30E943D03E5
S113152090E090931502809314028AE30E943D0395
S11315302091140230911502382B30931502209318
S113154014028AE30E943D03C82FD0E08AE30E947C
S11315503D03D82B8AE30E943D038AE30E943D03A6
S1131560CE010F978B31924080F40EE818E08AE3A5
S11315700E943D03F80181938F01CF018E5898405A
S11315808C179D07A0F3C0E001C0C1E06091140274
S1131590709115028CE00E94740560E48EE10E9453
S11315A04D0310927F03C111DBC080919A08909182
S11315B09B089827892798278115F8E09F0729F029
S11315C08630984009F46CC0CBC08CE998E09093C5
S11315D01D1380931C130091AC081091AD08209149
S11315E0AE083091AF0840912402509125026091D9
S11315F0260270912702041715072607370739F1C9
S113160080911C0290911D02A0911E02B0911F02B4
S11316106C017D01C094D094E094F0944801590188
S11316208C209D20AE20BF20C814D904EA04FB04FA
S113163009F096C0402751276227732784239523F6
S1131640A623B723892B8A2B8B2B09F089C0809181
S1131650A508813109F084C08091B2089091B30843
S1131660833C904509F07CC0C091B408D091B50882
S1131670DC27CD27DC272897C138D10510F0C0E836
S1131680D0E0AE0168EB78E085E294E00E94512757
S1131690D0932404C09323048DE00E94C70260C049
S11316A08091A2089091A3089827892798278130D0
S11316B0910519F00297F1F053C040912402509122
S11316C0250260912602709127028091B4089091BE
S11316D0B508A091B608B091B708481759076A072A
S11316E07B07F1F54AEA58E064EA78E082E00E9478
S11316F09A0336C080918803813091F580918A03E2
S1131700FAE08F9FC0011124FC01E357FC4E409185
S1131710AA085091AB086091AC087091AD08408361
S1131720518362837383DC01AF56BC4E26E0E4EA46
S1131730F8E001900D922A95E1F7209164122D7F33
S113174020936412109288038F569C4E0E94D707F0
S113175080918A0390E001968370992780938A038D
S1131760CFB7F89480917D03823011F580911102F6
S113177081111EC0809113028F3FB1F0E82FF0E079
S1131780E05BF24F9081909313029F3F11F490938A
S113179012029FEF90838093110281E080937D0376
S11317A087E10E94C70204C08093110210927D0356
S11317B0CFBF9FB7F89480917D038823B1F09FBF7A
S11317C0CFB7F8944A9903C085E10E94C702CFBFFE
S11317D0DF91CF911F910F91FF90EF90DF90CF9009
S11317E0BF90AF909F908F9008958CB58F7B8CBDE8
S11317F0E6CFCF93813011F480E216C0C0911E135E
S11318000E946D0710922113C33089F038F4C1305F
S113181051F0C23079F4CF910C94F802C63050F4F0
S113182010921E1307C089E1CF910C94C702CF9187
S11318300C94F502CF9108958091171390918A0822
S1131840891780F4E0914C0DF0914D0DE80FF11DD6
S113185080818093BB00809117138F5F809317134F
S11318600C94A60280919B12282F2E7F9091B51381
S113187091FF06C09D7F9093B513822F806101C0B4
S11318808E7780939B120E94A60281E08093790355
S113189080910D02811102C00C94F90B0895CF932D
S11318A0813011F48EE11CC0C0911E130E946D079B
S11318B01092211381E20E94C702C23059F020F431
S11318C0C13089F489E10CC0C33039F0C63059F411
S11318D08CE106C0CF910C94F802CF910C94F502E0
S11318E0CF910C94C702CF910895CF93C82F0E9433
S11318F01D0380919B128A7F80939B120E94A602F3
S11319000E941D0380919B12846080939B120E940D
S1131910A60281E0809379039091780380910D026F
S1131920992331F081110AC08C2FCF910C944F0C64
S1131930811104C08C2FCF910C94F90BCF91089591
S1131940811110C08091BB0090911713E0914C0D50
S1131950F0914D0DE90FF11D8083809117138F5F76
S1131960809317132091171380918A08281788F4FD
S113197030E090E001972817390749F48091B513B6
S113198082FD05C080919B128F7B80939B120C94E7
S1131990A60280919B12282F2E7F9091B51391FF60
S11319A00AC09D7F9093B513822F806180939B1210
S11319B08091B90003C08E7780939B120E94A60287
S11319C081E08093790380910D02811102C00C940F
S11319D04F0C08953FB7F894909387088093860836
S11319E0209189083FBF243081F0253071F4883379
S11319F0944030F481E00E94C70286E00C94C70250
S1131A0086E08093A7040C94EC020C94FC081F93CA
S1131A10CF93DF938FB7F894C0917A03C1113DC07F
S1131A2011E010937A03109215138FBFDFB7F89467
S1131A3080917903811117C0509851981092B90080
S1131A4081E48093B8001092BA001092BC000E9406
S1131A501D0380919B128E7F846080939B120E9451
S1131A60A60210937903DFBFDFB7F89480910E02CA
S1131A70813089F480917A03813021F482E20E94DA
S1131A80C70209C0823039F48091151380930E0285
S1131A9083E080937A03DFBF23C0C0911513CC2366
S1131AA0F1F090918A0F9F3FC9F421E030E0E0917A
S1131AB00F02EE2311F020E030E0232B79F4909113
S1131AC010029F3F19F41092100204C0F0E0E65790
S1131AD0F04F108210920F02C0E001C0C5E08FBF2A
S1131AE08C2FDF91CF911F9108954F925F926F9247
S1131AF07F928F929F92AF92BF92CF92DF92FF928A
S1131B000F931F93CF93DF93ACE5B2E1C12CD12C9B
S1131B1049E04C9DF0014D9DF00D1124EF01C45A94
S1131B20DD4EF884F1FEC5C00D911D912D913C91BF
S1131B30139714968D909D90AD90BC9017972B01A0
S1131B403C01401A510A620A730A481459046A048F
S1131B507B0408F4AEC0F0FE06C0EC59FD4E2081B3
S1131B602D7F20830AC0B901A801480D591D6A1DA3
S1131B707B1D488359836A837B8323E0C21609F45F
S1131B804FC02C1538F081E0C816F9F022E0C216D7
S1131B90E9F10BC085E0C81609F47EC0C81608F444
S1131BA041C026E0C21609F47BC0109288038091DC
S1131BB089038F5F80938903833018F40E942D0971
S1131BC081C081E00E94C0077DC010928D131092E5
S1131BD08E1310928F1310929013109297131092E9
S1131BE098131092991310929A131092A1131092B1
S1131BF0A2131092A3131092A4131092AB13109279
S1131C00AC131092AD131092AE135CC09FB7F8944E
S1131C1080911E139FBF813009F054C089E13DC0FB
S1131C2086E23BC09FB7F89480917603811127C068
S1131C3081E0809376031092820F9FBF9FB7F89440
S1131C4080917A00806880937A009FBFCFB7F89420
S1131C5080910C02813089F480917603813021F4E3
S1131C6084E20E94C70209C0823039F48091820F55
S1131C7080930C0283E080937603CFBF23C08091CE
S1131C80820F882339F080915B1280FD03C081604C
S1131C9080935B129FBF16C081E00E94C70212C0EE
S1131CA08FB7F89491E0909389088FBF0E94FC0845
S1131CB009C02FEFC21AD20A199627E0C216D1041E
S1131CC009F027CF81E1DF91CF911F910F91FF9010
S1131CD0DF90CF90BF90AF909F908F907F906F9048
S1131CE05F904F900C94C702CF939FB7F894C09124
S1131CF089089FBF811112C048E260E086EB92E040
S1131D000E94EB06C53031F08FB7F8948FBFCF91A6
S1131D100C94FC0883E0CF910C94C702813011F439
S1131D2084E001C085E08093A704CF910C94EC0279
S1131D302F923F924F925F926F927F928F929F92D7
S1131D40AF92BF92CF92DF92EF92FF920F931F93C5
S1131D50CF93DF93CDB7DEB7C35DD1090FB6F89447
S1131D60DEBF0FBECDBF90E08732910510F00C941A
S1131D70FA1EFC01EE58FF4F0C94D52480E04BE38F
S1131D8063C18FB7F8941091880800917E088FBFC3
S1131D900E94DE054AE060E08BEF94E00E94C106F9
S1131DA0812F90E0C0970A9778F4043068F48FB7D5
S1131DB0F894E0917E0891E09E0F90937E08F0E005
S1131DC0E258F74F11838FBF183071F4002361F08C
S1131DD08FB7F894E0917E08E150E0937E08F0E03C
S1131DE0E258F74F11828FBF9FB7F89485E0EFE771
S1131DF0F8E0DE01119601900D928A95E1F79FBFFC
S1131E0044E160E0CE0101960E94EB06173611F022
S1131E100C94FA1E4AE050E060E070E0CE010196B6
S1131E200E940C262FB7F89433E0309389082FBF13
S1131E309B012B5633402E3C310538F081E08093D2
S1131E40A7040E94EC020C94FA1E2FB7F894709326
S1131E508508609384082FBF0E94EF020C94FA1E39
S1131E602FB7F894809186089091870831E03093D9
S1131E7089082FBF6AE070E00E94C1249F938F936A
S1131E807F936F9389EB92E09F938F938E0100541D
S1131E901F4F1F930F930E94E6270E94DE0547E021
S1131EA060E081EF94E00E94C10647E066E3C80168
S1131EB00E94EB0647E06EE58DEE94E00E94C106B9
S1131EC085E1E7E3F8E0DE01A655BF4F01900D92EE
S1131ED08A95E1F785E1ECE4F8E0DE01AF57BF4F06
S1131EE001900D928A95E1F786E1E1E6F8E0DE01E2
S1131EF0119601900D928A95E1F7C154DF4F188233
S1131F00CF5BD040CA56DF4F1882C659D0401F8AD3
S1131F104FE060E08EE298E00E94EB064FE066E35B
S1131F2088E798E00E94EB0647E16AE7CE01865510
S1131F309F4F0E94EB064FE16AE7CE018F579F4FF8
S1131F400E94EB0647E26AE7CE0101960E94EB0687
S1131F500FB6F894DEBF0FBECDBF0C94FA1E2091CD
S1131F60A8048091A904281711F40C94FA1E9FB7B1
S1131F70F89480911E139FBF811115C04FB7F89438
S1131F8035E030931E138091C30A9091C40A807F78
S1131F902F70822B9093C40A8093C30A3093161334
S1131FA04FBF0E94F2028091A8048093A9040E946A
S1131FB0FC050C94FA1E80E00E942E04882311F480
S1131FC00C94FA1E84E00E94C7020C94FA1E81E06D
S1131FD0F3CF2FB7F89480918408909185082FBF90
S1131FE03FB7F89420911E133FBF21110C94721C2B
S1131FF09C012B5633402E3C310510F00C94721C7E
S11320002FB7F89432E030931E1310922313909359
S11320108513809384132FBF0E94F8020C94FA1E38
S11320209FB7F894A0918608B09187089FBF489FF6
S1132030B00111249B012C543B4FF90103811481FD
S1132040A017B10731F08F5F9091B404891740F362
S113205037C08F30A8F54FB7F89490912B084FBF35
S113206047815085452B11F5992301F19FB7F894C9
S113207040912C0850912D089FBFF9015683458348
S1132080AB0141545B4F98E0EEE2F8E0DA010190D5
S11320900D929A95E1F7D90118965C934E93179790
S11320A06A547B4F0E9488040C94FA1E8FB7F894EC
S11320B091E0909389088FBF0E94FC080C94FA1E4B
S11320C08091B4048F3038F082E08093A7040E949A
S11320D0EC020C94FA1E8FB7F89490912B0820917F
S11320E08608309187088FBFE091B4048BE38E9FFC
S11320F0F0011124EA54FB4F1082328321831482AD
S1132100138216821582108617822091B4042093BC
S1132110B504992331F19FB7F89420912C0830919C
S11321202D089FBFA091B4048A9FD0011124FD0102
S1132130EC54FB4F36832583A154BB4F98E0EEE269
S1132140F8E001900D929A95E1F79091B404899F7B
S1132150C0011124FC01EC54FB4F81549B4F908728
S113216087836091B404BBE36B9FB00111246A546C
S11321707B4F8FEF0E9488048091B4048F5F80931B
S1132180B4040C94FA1E0E94DE054AE060E08EED71
S113219094E00E94C1068091A70444E160E08111AB
S11321A006C08AEB94E00E94C1060C94FA1E8FECE0
S11321B094E00E94C1060C94FA1E809191128D7FC6
S11321C0809391120E94DE054AE060E08EED94E077
S11321D00E94C1068091A7048330C9F048F481307D
S11321E089F0823019F544E160E086E994E022C088
S11321F08530B9F088F08630C9F444E160E08EE5BA
S113220094E018C044E160E089EA94E013C044E13A
S113221060E085E894E00EC044E160E08CE794E07F
S113222009C044E160E082E794E004C044E160E076
S11322308FEC94E00E94C10648EE53E060E070E049
S113224086E00E9403090C94FA1E89E0EAE2F2E0B7
S1132250DE01119601900D928A95E1F79FB7F894EB
S1132260E0918808809189089FBF909189089130F6
S113227009F08CC1E93609F436C118F5E13609F4E0
S113228053C0C0F4EC3209F4F3C0EE3209F054C187
S11322900E946D04809191128D7F809391128FB76B
S11322A0F89494E0909389088FBF83E00E94C7025A
S11322B00C94FA1EE63609F445C0E83609F47CC0ED
S11322C03BC1E03709F4E6C070F4EC3609F495C07C
S11322D0EF3609F031C1BE016F5F7F4F8FEF0E946F
S11322E088040C94FA1EE33709F4B0C0E43709F00B
S11322F023C10E946D04809191128D7F809391126D
S11323008FB7F89410927E0895E0EFE7F8E0DF01CC
S11323101D929A95E9F792E0909389088FBF80E027
S11323200E94C7020C94FA1E80E00E94BB088FB77B
S1132330F89496E0909389088FBF86E00E94C702C4
S11323400C94FA1E8FB7F89496E0909389088FBF87
S11323509091AA04993048F52091B5048BE3829FAB
S1132360F0011124EC54FB4F638174814091860881
S1132370509187086417750711F00C94FA1EE92F21
S1132380F0E0E655FB4F2183E091B40421E0290FEE
S11323902093AA048E9FF0011124EC54FB4F9283E6
S11323A086E00E94C7020C94FA1E83E08093A7047F
S11323B00E94EC020C94FA1E8091B504811102C0B3
S11323C08091B40481508093B5048FB7F89493E05E
S11323D090938908E091B5042BE3E29FF001112466
S11323E0EC54FB4F23813481309385082093840877
S11323F08FBF0E94EF020C94FA1E2091B504422F65
S113240050E08091B40490E001974817590719F4FB
S11324101092B50403C02F5F2093B5048FB7F894CE
S113242093E090938908E091B5044BE3E49FF001B5
S11324301124EC54FB4F238134813093850820937D
S113244084088FBF0E94EF020C94FA1E0E946D0450
S11324508FB7F89495E0909389082BE633E0309396
S11324608508209384088FBF0E94EF020C94FA1E03
S11324700E946D04809191128D7F809391128FB789
S1132480F89494E0909389088FBF84E00E94C70277
S11324900C94FA1E9FB7F8948091A6049FBF8111F3
S11324A00C94FA1E8FB7F89495E09093A6048FBF0E
S11324B003EA13E080E8F80111928A95E9F76FEBDB
S11324C072E0C8010E946C27F80101900020E9F72E
S11324D08F01045A13401093A2030093A1030E9496
S11324E0FB020C94FA1E9FB7F8948091A6049FBF38
S11324F081110C94FA1E8FB7F89493E09093A6047C
S11325008FBF03EA13E080E8D8011D928A95E9F7AA
S11325106AEC72E0C8010E946C27F8010190002067
S1132520E9F78F01045A13401093A2030093A10307
S11325300E94FB020C94FA1E8E2F90E0C0970A971B
S113254010F00C94FA1EE05311F40C94FA1E8FB799
S1132550F89493E090938908F0E0E655FB4FE1810D
S1132560BBE3EB9FF0011124EC54FB4F2381348136
S113257030938508209384088FBF809191128D7FBA
S1132580809391120E94EF020C94FA1E823011F093
S11325900C94FA1E80E00E94C7020C94FA1E82E09A
S11325A00E942E040C94FA1E0E94DE054AE060E0AC
S11325B081ED92E00E94EB060C94FA1E80913302A6
S11325C090913402A0913502B091360220914610C8
S11325D0222311F40C94751C0E94FB020C94FA1E25
S11325E09FB7F8948091A6049FBF833009F448C034
S11325F0843009F48EC0823009F0CEC1CE018F57E9
S11326009F4F0E941A05882309F4C6C142E050E096
S11326106BE574E085E294E00E942927CF57DF4FF1
S113262028813981C158D040892BA1F4AE014F5F74
S11326305F4F64EE72E0C9010E9482274AE050E0D5
S113264060E070E089819A810E940C266F3048F422
S113265080E008C067E574E0C9010E94372700974D
S113266021F482E00E94740E97C14FE050E067E4C9
S113267074E004960E942927892B99F781E0F2CF10
S1132680809127048A3039F442E360E086EE92E0D8
S11326900E94EB0681C1CE018F579F4F0E941A05FD
S11326A0882309F479C11092900310929103AE012A
S11326B04F5F5F4F6FEE72E0CF57DF4F8881998194
S11326C0C158D0400E9482270097D1F04AE050E0E0
S11326D060E070E00E94DE246F3050F4E0919003DB
S11326E081E08E0F80939003F0E0E057FC4F62830B
S11326F0AE014F5F5F4F6FEE72E080E090E0E2CF9B
S113270080919003882309F447C181E08093A50454
S113271040C1CE018E529F4F0E941A05882309F4AE
S11327202EC14CE360E081EF92E00E94EB06FE01D3
S113273031967F01AF0164EE72E0CE52DF4F8881A3
S11327409981C25DD0400E9482278C01892B09F4B3
S1132750C2C075EF872E72E0972EE8E02E2E5E0140
S1132760F9ECAF0EB11CC980DA8042E050E064E4B9
S113277074E0C8010E942927892B59F44AE050E0EB
S113278060E070E0C6010E940C266F3008F498C027
S1132790A2C044E050E06FE374E0C8010E9429271E
S11327A0892B89F44AE050E060E070E0C6010E94A1
S11327B00C269B012B5633402E3C310508F08BC070
S11327C0562E472E7DC046E050E068E374E0C80111
S11327D00E942927892B51F44AE050E060E070E020
S11327E0C6010E940C26762E672E6AC045E050E092
S11327F062E374E0C8010E942927892B71F44AE03E
S113280050E060E070E0C6010E940C268FEF860F56
S1132810893008F060C0362E53C044E050E06DE2C9
S113282074E0C8010E942927892B49F5DF92CF92D1
S11328309F928F921F922F92BF92AF920E94A927CC
S1132840D50119961C92E981FA81CF0108969A83E1
S113285089830FB6F894DEBF0FBECDBF80858C325E
S1132860D1F5CF0109969A8389836CE270E00E94C6
S11328706127009781F101969A83898321C044E0FE
S113288050E068E274E0C8010E942927892BC1F452
S11328908E010F571F4F48E250E0B601C8010E9455
S11328A07327FE01E753FF4F11A61F930F93FF9366
S11328B0EF936F927F924F925F921F923F924DC01F
S11328C0A70164EE72E080E090E00E9482278C0110
S11328D0892B09F048CF89E0FE01E054FF4FDE0167
S11328E0A655BF4F01900D928A95E1F7CE54DF4F64
S11328F08881C25BD0408F93CF54DF4F8881C15B06
S1132900D0408F93C055DF4F8881C05BD0408F93F8
S1132910C155DF4F8881CF5AD0408F93C255DF4FC6
S11329208881CE5AD0408F93C355DF4F8881CD5ACA
S1132930D0408F93C455DF4F8881CC5AD0408F93B9
S1132940C555DF4F8881CB5AD0408F93C655DF4F92
S11329508881CA5AD0401F928F938AEF92E09F9346
S11329608F93FF92EF920E94E62748E260E0C7014E
S11329700E94EB060FB6F894DEBF0FBECDBF4CE34A
S113298060E084E193E00E94EB068091A504882333
S113299019F08EE00E94C7028FB7F8941092A60433
S11329A08FBF0C94FA1E4CE360E08CE193E00E942C
S11329B0EB0640919103242F30E08091900390E046
S11329C0821B930B18161906DCF54F5F4093910395
S11329D0F901E057FC4F82812FB7F8949091A60437
S11329E02FBF91110C94FA1E9FB7F89424E0209302
S11329F0A6049FBF03EA13E090E8D8011D929A95BC
S1132A00E9F71F928F9386E293E09F938F931F932E
S1132A100F930E94E627F80101900020E9F78F0147
S1132A20045A13401093A2030093A1030E94FB02D3
S1132A300F900F900F900F900F900F900C94FA1E20
S1132A401092A50410929003109291038FB7F894FA
S1132A501092A6048FBF42E360E086EE92E00E94EB
S1132A60EB060C94FA1E80918C0381110C94FA1ECF
S1132A7080918D038F5F817080938D03EDE0E89FDB
S1132A80D0011124AD5FB24F9C91913009F454C729
S1132A908F5F817080938D03E89FF0011124ED5FB7
S1132AA0F24F8081813011F00C94FA1E45C7809159
S1132AB04B0D811141C0409118135091191360912D
S1132AC01A1370911B132FB7F894C090450DD09032
S1132AD0460DE090470DF090480D80919F12909123
S1132AE0A012A091A112B091A2128C0D9D1DAE1D39
S1132AF0BF1D2FBF409318135093191360931A13DB
S1132B0070931B1310924B0D2FB7F89431E0309350
S1132B108B088093450D9093460DA093470DB09379
S1132B20480D40939F125093A0126093A11270938A
S1132B30A2122FBF0E94FF032FB7F89460917E0F5B
S1132B4070917F0F8091800F9091810F2FBF0E9411
S1132B50750D0C94FA1E8FB7F894C0907E0FD09028
S1132B607F0FE090800FF090810F8FBF8FB7F894A4
S1132B7010928B088FBF6CE5662E62E1762E10E012
S1132B808FEF9FEFAFEFBFE720E030E009E0029F57
S1132B90A001039F500D1124445A5D4EFA01408553
S1132BA041FF1BC0F3014081518162817381460161
S1132BB05701841A950AA60AB70A44815581668189
S1132BC07781481959096A097B09481759076A071F
S1132BD07B071CF4DB01CA0111E02F5F3F4FF9E0D2
S1132BE06F0E711C2730310591F6112311F40C94EA
S1132BF0FA1E181619061A061B0634F0C701B60188
S1132C000E94750D0C94FA1E809318139093191357
S1132C10A0931A13B0931B1321E020934B0D3FB7DD
S1132C20F89420938B08C092450DD092460DE09203
S1132C30470DF092480D80939F129093A012A09399
S1132C40A112B093A2123FBF0E94FF030C94FA1E7C
S1132C508091860381110C94FA1E8091870390E081
S1132C60019681709927809387032DE1289FF001B5
S1132C70299FF00D1124E552FD4E3081313009F4C5
S1132C80B3C601968170992780938703289FF0012A
S1132C90299FF00D1124E552FD4E8081813011F001
S1132CA00C94FA1EA1C68091840381110C94FA1E1F
S1132CB0E0918503EF5FE170E0938503AE2FB0E010
S1132CC053E0AA0FBB1F5A95E1F7A259B04F8C915C
S1132CD0813009F4AEC6EF5FE170E0938503F0E064
S1132CE043E0EE0FFF1F4A95E1F7E259F04F808170
S1132CF0813011F00C94FA1E9CC6809182038111DC
S1132D000C94FA1E809183038F5F817080938303F8
S1132D10EBE0E89FD0011124AD55BD4E9C9191305C
S1132D2009F491C78F5F817080938303E89FF0015A
S1132D301124ED55FD4E8081813011F00C94FA1E62
S1132D4082C781E080937E030E941D080C94FA1EC2
S1132D508FB7F89410928D0810928C0810924A0D37
S1132D601092490D10928213109281131092870FC2
S1132D701092860F8FBF0C94FA1E8FB7F89492E0CE
S1132D8090937D038FBF8091110281110C94FA1EE0
S1132D900E944E090C94FA1E80917B0381110C94BD
S1132DA0FA1E10927C0310914610113011F00C940D
S1132DB0FA1E0C949F1E9FB7F894809122139FBF14
S1132DC0811110C05A9A48EE53E060E070E082E04E
S1132DD00E9403098FB7F89491E0909322138FBF58
S1132DE00C94FA1E813051F48FB7F89492E09093CA
S1132DF022138FBF0E94FE020C94FA1E8230D1F47B
S1132E002FB7F8948091C70A9091C80A906890935C
S1132E10C80A8093C70A1092D80A1092D70A8FE082
S1132E208093161383E0809322132FBF0E94F20233
S1132E300C94FA1E833079F48FB7F89494E090934D
S1132E4022138FBF4EEE52E060E070E082E00E94F9
S1132E5003090C94FA1E843099F48FB7F89421E096
S1132E6030E43093BE0A2093BD0A92E09093161387
S1132E7095E0909322138FBF0E94F2020C94FA1EE5
S1132E80853071F48FB7F89496E0909322138FBF36
S1132E9046E950E060E070E082E00E940309AAC7BE
S1132EA0863049F48FB7F89497E0909322138FBF3C
S1132EB00E94FE029FC7873009F03EC02FB7F894E6
S1132EC08091BB0A9091BC0A2FBF8335924159F07F
S1132ED08FB7F89410921E138FBF1092A70487E047
S1132EE00E94C70287C72FB7F8948091C10A9091B6
S1132EF0C20A83739772846098649093C20A809321
S1132F00C10A80E199E19093C40A8093C30A809135
S1132F10C50A9091C60A88279E7F8F649093C60A3B
S1132F208093C50A86E08093161388E08093221369
S1132F302FBF0E94F2025EC7883009F05BC78FB7CB
S1132F40F89410921E138FBF44E650E060E070E0E6
S1132F5084E00E94D2088FB7F89491E09093890896
S1132F608FBF81E00E94BB088BE00E94C70242C76A
S1132F709FB7F894809123139FBF811121C02FB76D
S1132F80F89480918413909185138B569340937099
S1132F9090689093C00A8093BF0A8091C10A90916F
S1132FA0C20A9F769093C20A8093C10A84E08093F8
S1132FB0161381E0809323132FBF0E94F2021AC7D5
S1132FC0813051F48FB7F89492E0909323138FBF1C
S1132FD088E08CBBEB9A0EC7823049F48FB7F89423
S1132FE093E0909323138FBF0E94FE0203C78330A4
S1132FF0F9F49FB7F8942091CF0A3091D00A337036
S113300025593C4F30938C1320938B132091BF0A86
S11330103091C00A3F773093C00A2093BF0A80934F
S1133020161384E0809323139FBF0E94F202E2C62A
S1133030843049F48FB7F89495E0909323138FBFAD
S11330400E94FE02D7C6853009F0D4C62FB7F89483
S11330508091CD0A9091CE0A882790742FBF911148
S113306031C020918B1330918C139FB7F894309317
S1133070870820938608809189089FBF833031F0A8
S1133080853021F483E00E94C70202C00E94FC083C
S11330908FB7F8949FE090932F138FBF80912613DE
S11330A0882351F08FB7F89494E090931E138FBF48
S11330B081E00E9475089EC68FB7F89410921E1383
S11330C08FBF98C68FB7F89494E0909323138FBF63
S11330D00E94F8028FC69FB7F8941091850F8091D3
S11330E024139FBF81113FC02FB7123061F4F894AD
S11330F08091BD0A9091BE0A95609093BE0A809318
S1133100BD0A2FBF0EC0F8948091BD0A9091BE0AEB
S11331109A7F91609093BE0A8093BD0A2FBF1111CC
S113312061C62FB7F8948091BD0A9091BE0A92604F
S11331309093BE0A8093BD0A2FBF2FB7F894809155
S1133140C10A9091C20A9F7690649093C20A8093B8
S1133150C10A84E08093161381E0809324132FBF67
S11331600E94F20247C6813051F48FB7F89492E07E
S1133170909324138FBF88E08CBBEB9A3BC68230BC
S113318049F48FB7F89493E0909324138FBF0E946F
S1133190FE0230C6833081F52FB7F8948091CD0AB2
S11331A09091CE0A8827907290938F038091CF0AD2
S11331B09091D00A937085599C4F90938C1380936F
S11331C08B138091BD0A9091BE0A9E7F9093BE0A94
S11331D08093BD0A8091C10A9091C20A9F7B90930B
S11331E0C20A8093C10A84E0809316138093241347
S11331F02FBF0E94F202FEC5843049F48FB7F894C1
S113320095E0909324138FBF0E94FE02F3C585308E
S113321009F0F0C52FB7F8948091CD0A9091CE0AA9
S1133220882790742FBF911145C080918F0381111D
S113323029C080918B1390918C130E94EA0C8FB754
S1133240123039F4F894109224138FBF0E94F502BF
S1133250D1C5F8949FE090932F138FBF80912613CC
S1133260882351F08FB7F89494E090931E138FBF86
S113327081E00E947508BEC58FB7F89410921E13A2
S11332808FBFB8C58FEF9FEF0E94EA0C8091261381
S1133290882351F08FB7F89494E090931E138FBF56
S11332A081E00E947508A6C58FB7F89410921E138A
S11332B08FBFA0C58FB7F89494E0909324138FBF69
S11332C00E94F50297C58FB7F894609125138FBFBC
S11332D0611109C08FB7F89491E0909325138FBFC3
S11332E00E94FE0287C5613009F084C54FB7F89487
S11332F0E091D10AF091D20A8091D30AA091D40A24
S11333009091D50A7091D60A2091D70A3091D80AA3
S11333104FBF4A2F46954695469550E04430510597
S113332009F45AC020F44230510550F0EFC0453042
S1133330510509F47EC04830510509F4ADC0E6C01A
S11333404FB7F894F0933813E09339138370E82F50
S1133350F0E0EE0FFF1FE45DFC4E3483258321E093
S113336030E0D90102C0AA0FBB1F8A95E2F7CD0154
S113337090912C13892B80932C134FBF8F3009F01D
S1133380C5C089E0EEE2F8E0DF011D928A95E9F715
S113339088E0E0E3F3E1AEE2B8E001900D928A95B3
S11333A0E1F72FB7F89460932B088091381390912C
S11333B0391398278927982790932D0880932C08F0
S11333C02FBF48E050E060E270E080E393E10E94A8
S11333D05A2710922C139AC08F70FFB6F894B4E059
S11333E08B9FA00111248A01045D1C4EF80176878D
S11333F0BA01635D7C4EDB011E969C93DA01A25DEB
S1133400BC4E1E963C931E97415D5C4EFA01268786
S1133410FFBEF80196859D3021F1FB0196859D3014
S113342001F11E969C919D30E1F0DA011E969C916B
S113343016C08F709FB7F894E82FF0E0EE0FFF1FCF
S1133440DF01A45DBC4E1E963C931E97E35DFC4ECB
S113345026879FBF1E969C919D3019F096859D30BE
S113346011F480932F139FB7F89480912D138F5FDD
S113347080932D139FBF81E4E7E3F8E0DF011D9201
S11334808A95E9F780E4EAE3F3E1A7E3B8E0019081
S11334900D928A95E1F73AC0892F82958071932F16
S11334A092959F70892BA901E6E056954795EA9578
S11334B0E1F74F73922F9F71969525FF02C0891BE8
S11334C001C0890F0FB7F894EAE7F3E116E0DF01D2
S11334D0212F1D922A95E9F71F924F931F928F93E4
S11334E081E393E09F938F93FF93EF930E94E627EA
S11334F00FBFEAE7F3E1A8E7B8E001900D921A954F
S1133500E1F70FB6F894DEBF0FBECDBF809126134E
S113351081110CC08FB7F89494E090931E1310920D
S113352025138FBF80E00E94750864C48FB7F89498
S113353010921E13109225138FBF5CC49FB7F8948A
S1133540809121139FBF882319F00E94FE0252C468
S11335508FB7F89491E0909321138FBF0E94070DC9
S113356049C48FB7F89490910D02911135C08FBF63
S11335708FB7F89490917903913071F522E02093FC
S113358079038FBF8FB7F89420E130E03093840F34
S11335902093830F2BEB32E130934D0D20934C0D90
S11335A020E220938A0823E02093B5131092171386
S11335B0909378038FBF0E941D031FB7F8948091E6
S11335C09B128F7A816A80939B1284E080937903A3
S11335D00E94A6021FBF0EC48FBF8EE10E94C702C5
S11335E009C49FB7F894809121139FBF882319F0D1
S11335F00E94F202FFC39FB7F89482E080932113E4
S113360080911613880F82509FBF20E092E0281704
S1133610B0F43FB7F894422F50E0E92FF0E0EE0FFA
S1133620FF1FE754F54F60817181FA01E554FD4EA7
S1133630708361833FBF9F5F9F702E5FE8CF0E94BE
S1133640070DD8C39FB7F894809116139FBF9FB7F7
S1133650F89420910D02211136C09FBF9FB7F894B2
S113366020917903213079F522E0209379039FBFDB
S11336709FB7F89420E130E03093840F2093830FB8
S11336802BEB32E130934D0D20934C0D880F82507B
S113369080938A0883E08093B513109217131092D5
S11336A078039FBF0E941D031FB7F89480919B125B
S11336B08F7E816E80939B1284E0809379030E94B5
S11336C0A6021FBF97C39FBF80E20E94C70292C396
S11336D0EBEBF2E14BED52E12AE0A22FB0E0AA0FAE
S11336E0BB1FA754B54F808190E0982F8827318164
S11336F0832B8D939C932F5F2F7032964E175F0709
S113370061F778C38FB7F8949091151390930E02D4
S113371093E090937A038FBF80910E029FB7F89441
S113372080930D029FBF811165C39FB7F894809168
S113373021139FBF813031F0823041F480E20E9436
S1133740C70258C38EE10E94C70254C30E946D078A
S113375051C31FB7F89480917803882321F081E046
S11337600E94A00C02C00E941C0C1FBF43C38FB751
S1133770F8949091820F90930C0293E090937603C7
S11337808FBF80910C02811101C0809880910C023E
S1133790811130C381E080932510109280130E9420
S11337A0210728C31092251000919D1210919E129A
S11337B08091801381111EC3FFB6F8948091760323
S11337C0833009F041C080910C0281113DC0809189
S11337D05B12882309F4FBC22091770330E0C9010E
S11337E00196A1E0B0E08130910511F480E090E011
S11337F0E82EE82FE695E695E695F0E0E55AFD4ECD
S11338004081582F5770BD0101C0660F5A95EAF7E1
S1133810562F642339F0952F909549234083809344
S1133820770307C02817390711F00196DCCFEE247F
S1133830EA94E092820F8FEF80930C0281E08093F0
S1133840760384E20E94C702FFBE26E01695079520
S11338502A95E1F70093A80482E00E94C702CAC235
S11338608091880F8130E1F460E080E80E948E0549
S113387088E290E00E94030500E010E0F801EA5DB0
S1133880FF4E61E080810E948E0588E290E00E94F4
S113389003050F5F1F4F0031110581F71092880F48
S11338A08091890F813009F0A5C260E080EC0E940C
S11338B08E0588E290E00E94030500E010E0F80124
S11338C0EA5CFF4E61E080810E948E0588E290E010
S11338D00E9403050F5F1F4F0031110581F71092FD
S11338E0890F88C20E94EF0285C22091A103309102
S11338F0A20343EA53E05093501040934F10809337
S1133900471090934810A0934910B0934A1080E553
S113391093EC90934C1080934B1090934E108093A3
S11339204D10309352102093511081E08093461033
S113393088E10E94C7025EC2E0918D03ADE0EA9F78
S1133940C0011124FC01EC5FF24F26E0A9EDBAE0BE
S113395001900D922A95E1F726E0E6E1F2E0AFED61
S1133960BAE001900D922A95E1F7FC01ED5FF24F68
S1133970978180859093E60A8093E50A03851485F0
S113398061857285A80187EE9AE00E945127025F43
S11339901F4F80918003811118C080918103823070
S11339A0A1F40E941D08811112C089ED9AE0909340
S11339B0BA128093B91210934F0D00934E0D81E00B
S11339C08093800380938C0315C265E001C067E097
S11339D080918D03BDE08B9FF0011124ED5FF24FC8
S11339E010820E94050806C2609187039DE1F92EAA
S11339F0F69EB00111249B0124523D4E62517D4E2E
S1133A000CE110E046E058E081E00E947103682F69
S1133A10882359F080918703F89EF0011124E55220
S1133A20FD4E10820E94F207E5C181E08093860377
S1133A30E1C1F090850385E48093520D1092530DFB
S1133A4086E68093570D8093560D1092590D10926F
S1133A50580D8FEF80935A0DE8E0FE9E80011124EB
S1133A60C8018259904F6C01DC0116964D915C910E
S1133A701797CA0144968093550D9093540D11964F
S1133A80ED91FC91129780819181A281B381809301
S1133A90620D9093630DA093640DB093650D8091B6
S1133AA0240290912502A0912602B09127028093CE
S1133AB05E0D90935F0DA093600DB093610DF601C0
S1133AC06481758186E69DE00E945127D601139694
S1133AD08C9180935B0D10925D0D10925C0DE2E56C
S1133AE0FDE080E090E0DC0121913191820F931F91
S1133AF0A11DB11D2DE0E636F207B1F7AD01662731
S1133B007727411551056105710539F0AA27BB27AF
S1133B10840F951FA61FB71FF1CF80959095A09590
S1133B20B09590935D0D80935C0D80911C029091F3
S1133B301D02A0911E02B0911F0280905E0D909014
S1133B405F0DA090600DB090610D4091620D509199
S1133B50630D6091640D7091650D482559256A25A2
S1133B607B25482359236A237B23452B462B472B4C
S1133B7019F4E2E6FDE002C0E0E2F2E08080918028
S1133B80A280B38080959095A095B095B501A401CD
S1133B90482359236A237B2384179507A607B7076D
S1133BA019F480E092E01BC050918B0344E06AE07A
S1133BB0252F30E0629FC001639F900D1124DC012A
S1133BC0A357BC4E4D905D906D907C9084149504E9
S1133BD0A604B70439F450938B038F569C4E0E946D
S1133BE0D7071DC0C901019683709927582F4150EA
S1133BF0F9F680938B0380918803811114C080812E
S1133C009181A281B3818093861390938713A093AB
S1133C108813B0938913109289030E942D0981E0BF
S1133C2080938403E7C0F801E259F04F1082F11049
S1133C3003C00E940C05DEC0B1E0FB12DBC085E0CE
S1133C400E940E07D7C0E0918303EE2EF12C2BE0E7
S1133C50E29FF0011124ED55FD4E418552858A0104
S1133C600C5F1F4F858180938B0F868180938C0F0F
S1133C70678170858FE89FE00E94512710928E0F14
S1133C8010928D0FA80156954795EBE8FFE020E0D0
S1133C9030E080E090E0DC012417350749F06191C1
S1133CA07191860F971FA11DB11D2F5F3F4FF4CF58
S1133CB0AD0166277727411551056105710539F076
S1133CC0AA27BB27840F951FA61FB71FF1CF809586
S1133CD09095A095B09590938E0F80938D0F8091C1
S1133CE06E0F882351F08BE08E9DF0018F9DF00DB7
S1133CF01124ED55FD4E10827DC02BE02E9DC00198
S1133D002F9D900D11248C559D4E9093700F809390
S1133D106F0FFF24F394F092710F8BE89FE0909360
S1133D20730F8093720F1093750F0093740FF092BA
S1133D306E0F83E10E94C702F09282035BC09091F0
S1133D404B1080914C109093541080935310909189
S1133D504D1080914E1090935610809355104091C1
S1133D605110509152107A0168E0E60EF11CE09275
S1133D705810F092571060914F10709150108BE5CD
S1133D8090E10E9451278091760F882329F01092A8
S1133D9046100E94FB022EC087E490E19093780FB6
S1133DA08093770F81E18093790F83E590E190937D
S1133DB07B0F80937A0FF0927D0FE0927C0F10932B
S1133DC0760F83E10E94C70210937B0313C081E046
S1133DD080930C021092760380917A008F778093FF
S1133DE07A0032CD2FB7F8948091BD0A9091BE0A23
S1133DF09D7F9EC9CD52DF4F0FB6F894DEBF0FBE34
S1133E00CDBFDF91CF911F910F91FF90EF90DF9085
S1133E10CF90BF90AF909F908F907F906F905F9066
S1133E204F903F902F9008958FB7F89408958FBFC7
S1133E3008951F920F920FB60F9211240BB60F9292
S1133E402F933F934F935F936F937F938F939F939E
S1133E50AF93BF93EF93FF932FB7F89480917E0FA6
S1133E6090917F0FA091800FB091810F0196A11DB9
S1133E70B11D80937E0F90937F0FA093800FB0931A
S1133E80810F2FBF78940E94FF03FF91EF91BF91A0
S1133E90AF919F918F917F916F915F914F913F91DE
S1133EA02F910F900BBE0F900FBE0F901F9018957F
S1133EB01F920F920FB60F9211240BB60F92CF924E
S1133EC0DF92EF92FF920F931F932F933F934F93A1
S1133ED05F936F937F938F939F93AF93BF93CF938E
S1133EE0DF93EF93FF932EB5E0918C08F0918D084A
S1133EF0309739F08091860F9091870FE80FF91F62
S1133F0020838091860F9091870F01969093870F5D
S1133F108093860F8CB58F778CBDC091860FD0911E
S1133F20870F8091811390918213C817D907E0F508
S1133F300091490D10914A0DE0908C08F0908D0885
S1133F409E01265F3F4F2817390708F4C9016C0109
S1133F5021E0C21AD108CC15DD05A0F40115110524
S1133F6029F0F801EC0FFD1F808101C080E00E9460
S1133F702503E114F10421F0F701EC0FFD1F808308
S1133F802196E9CF8CB580688CBD0115110531F0FF
S1133F90F801EC0FFD1F80818EBD01C01EBCD093C3
S1133FA0870FC093860F11C010928D0810928C0851
S1133FB010924A0D1092490D10928213109281139F
S1133FC01092870F1092860F8EB5FF91EF91DF91BB
S1133FD0CF91BF91AF919F918F917F916F915F919D
S1133FE04F913F912F911F910F91FF90EF90DF9090
S1133FF0CF900F900BBE0F900FBE0F901F9018958F
S11340001F920F920FB60F9211240BB60F922F939B
S11340103F934F935F936F937F938F939F93AF934C
S1134020BF93EF93FF9385E10E94C702FF91EF9145
S1134030BF91AF919F918F917F916F915F914F91BC
S11340403F912F910F900BBE0F900FBE0F901F90BA
S113405018951F920F920FB60F9211240BB60F9260
S11340602F933F934F935F936F937F938F939F937C
S1134070AF93BF93EF93FF9380911E13823029F087
S1134080833041F0811116C00AC00E94C5020E940B
S1134090F80212C00E94C5020E94F5020DC0809170
S11340A02613882349F086E080931E138CE10E9436
S11340B0C70202C00E94C502FF91EF91BF91AF9168
S11340C09F918F917F916F915F914F913F912F912C
S11340D00F900BBE0F900FBE0F901F9018951F925C
S11340E00F920FB60F9211240F900FBE0F901F90D6
S11340F018951F920F920FB60F9211240F900FBEB6
S11341000F901F9018951F920F920FB60F921124C3
S11341100F900FBE0F901F9018951F920F920FB61D
S11341200F9211240F900FBE0F901F9018951F929D
S11341300F920FB60F9211240F900FBE0F901F9085
S113414018951F920F920FB60F9211240F900FBE65
S11341500F901F9018951F920F920FB60F92112473
S11341600F900FBE0F901F9018951F920F920FB6CD
S11341700F9211240BB60F922F933F934F935F939B
S11341806F937F938F939F93AF93BF93EF93FF931B
S11341900E941D038091B900982F987F2091790384
S11341A0243079F1263021F0233009F04EC013C0B9
S11341B080917803813049F4903429F483E080932A
S11341C0790381E010C084E016C09831E1F783E000
S11341D08093790313C020917803213039F4807FD0
S11341E0803541F480E00E94A00C2FC0983231F059
S11341F0903321F081E00E94750C27C00E941C0CB2
S113420024C08091B5138E7F8093B51380919B1247
S11342108F7D983029F0903119F080939B12EACF6A
S1134220806480939B128091830F982F990F81E073
S113423020917803213009F080E0892B8093BB0022
S113424086E0809379030E94A602FF91EF91BF91CB
S1134250AF919F918F917F916F915F914F913F911A
S11342602F910F900BBE0F900FBE0F901F901895BB
S11342701F920F920FB60F9211240BB60F922F9329
S11342803F934F935F936F937F938F939F93AF93DA
S1134290BF93EF93FF93909106018091510D97FD89
S11342A011C08350883008F07EC080918E038695BB
S11342B080938E039091060196FF75C08068809369
S11342C08E0371C081508093510D81116CC0809117
S11342D08E03803E09F464C090912A13911158C052
S11342E0893549F0803F19F0823149F404C081E0F6
S11342F080932A1355C081E08093440D51C090915E
S1134300440D91111FC061E4292F30E0260F311DA7
S113431035952795A901440F551FFA01E054FE4F26
S1134320E491E81718F491E0920F09C08E1718F47D
S11343306FEF620F04C0FA01EF53FE4F1FC06917FD
S113434018F72EC090E061E4292F30E0260F311DCC
S113435035952795A901440F551FFA01E85CFE4FD6
S1134360E491E81718F491E0920F0FC08E1718F437
S11343706FEF620F0AC0FA01E75CFE4FE491E0932D
S1134380880889E00E94C7020BC06917E8F608C0D4
S113439010922A13823111F0893511F41092440DD0
S11343A08BE08093510DFF91EF91BF91AF919F915D
S11343B08F917F916F915F914F913F912F910F90CA
S11343C00BBE0F900FBE0F901F9018951F920F9267
S11343D00FB60F9211240BB60F922F933F934F9366
S11343E05F936F937F938F939F93AF93BF93CF9379
S11343F0EF93FF93209178003091790078944FB730
S1134400F8948091831381FB992790F981704FBFB1
S1134410811122C080917A00877F80937A008091F5
S11344202510813019F0823091F036C0911107C007
S11344308DE790E00E9403050E9421072DC0309370
S11344409E1220939D1285E20E94C70225C09923E3
S113445079F31092251020C0CFB7F8940E9401037D
S1134460CFBF2FB7F89480917A0086FB992790F9F3
S1134470877F806190FB86F98F7780937A00877FAE
S113448080618F7B8F7780937A00877F80618F7BB9
S1134490806880937A002FBFFF91EF91CF91BF91F5
S11344A0AF919F918F917F916F915F914F913F91C8
S11344B02F910F900BBE0F900FBE0F901F90189569
S11344C0CF93DF93CDB7DEB76B970FB6F894DEBF0B
S11344D00FBECDBF0FB7F89447E250E06FEF70E026
S11344E08DE19DE00E945A278FEF809327138093DC
S11344F08A1388EE91E09093291380932813089AE5
S1134500099A0A9A10981198129880E0877F8F7EF2
S11345108F7D8F7B8F7780937A0081E083BF0E94A9
S1134520B3028F3F19F00E94980EF9CF87B18C6FB8
S113453087B918E288EE93E00E9403051150D1F781
S113454060E088E20E948E0588E290E00E94030504
S113455060E088E20E948E0588E290E00E940305F4
S113456060E08CE00E948E0588E290E00E940305E2
S113457060E081E00E948E0588EE93E00E940305CE
S113458088EE93E00E94030560E086E00E948E05B9
S113459088E290E00E94030540E250E060E270E0AF
S11345A086E290E10E945A2781E08093880F8093ED
S11345B0890F10922B1310929C1210925B121FEF12
S11345C010938A0F1093500D729A739A7498759A77
S11345D00E94B102779A6A9A6B9A6C9A6D9A6E9A53
S11345E06F9A82B112B881B111B96FE380E00E9471
S11345F0B1056FE381E00E94B10560EC80E00E94A8
S1134600B10560EC81E00E94B1058091B600807232
S11346108093B6008091B60081FDFCCF82E0809348
S1134620B0008091B60080FDFCCF85E08093B1009E
S11346308CE78093B3008091700082608093700057
S113464040E355E760E070E081E00E94D208809189
S113465028029091290290932602809327020E94B7
S1134660B3028F3F19F00E94980EF9CF0FBF7894D0
S11346708FB7F894109289088FBF1092B4041092E7
S1134680B5041092AA041092A9041092A80465EE2D
S113469074E0CE0142960E942227198E10922B13A9
S11346A010929C12CE0142960E9445040E94FC0581
S11346B00E94DE059FB7F894809107018F7780935D
S11346C007019FBF9FB7F894809107018F7B809368
S11346D007019FBF80916D00806880936D008FB744
S11346E0F8949BE09093510D1092440D10922A136C
S11346F08FBF809168008460809368009FB7F894AE
S113470080911E139FBF811135C09FB7F89481E03B
S113471080931E1310921F131092201310922113D2
S1134720109222131092261380E2E9EBFAE0DF01E3
S1134730282F1D922A95E9F7EBEBF2E1DF011D9298
S11347408A95E9F79FBF529A5A98519A5998539863
S11347505B9880916900806880936900809169000A
S11347608F7B8093690041E050E060E070E082E07C
S11347700E940309009137021091380220913902F6
S113478030913A0240913B0250913C0260913D02CB
S113479070913E028091330290913402A0913502CF
S11347A0B0913602EFB7F894F1E0F093A604EFBFAE
S11347B000932402109325022093260230932702AB
S11347C040931C0250931D0260931E0270931F02BB
S11347D08093200290932102A0932202B09323029B
S11347E0809127021F928F93809126021F928F93AC
S11347F0809125021F928F93809124021F928F93A0
S113480088E593E09F938F938E010F5F1F4F1F9353
S11348100F930E94E6274CE360E0C8010E94EB0678
S11348201092A5040FB6F894DEBF0FBECDBF8091E1
S11348308103811136C0209A0E94AB02249A2C98DD
S11348401B8E1A8E8A8D9B8D80329E4430F48A8D05
S11348509B8D01969B8F8A8FF5CF2C9A1B8E1A8E77
S11348608A8D9B8D80329E4430F48A8D9B8D019677
S11348709B8F8A8FF5CF52985A9A84E08CBB809193
S11348806900806280936900809169008F7E8093C3
S11348906900EA9A0E941D08811103C081E0809397
S11348A081038FB7F8941092A6048FBF4AE060E0AA
S11348B08DE693E00E94EB060E946D041FB7F89406
S11348C00E94B3028F3F09F058C08091700083703A
S11348D089F08091B6008A71E1F78091B3009091DC
S11348E0B200891B883040F08091B200893F20F4E7
S11348F083E003C085E001C082E0E0916E00E670D1
S113490029F590916F009E7221F5E0917100EE728D
S1134910E9F4909172009E72E1F4E0917300EE72FA
S1134920A9F40CB407FC15C09091C100987189F4E6
S1134930E091C900E87151F49091BC0092FD09C066
S113494090917A0097FD04C0E5E003C0E0E001C067
S1134950E1E093B78E1708F4E82FF0E0EE5CFE4F29
S11349608491E92FE07FE160E82BE3BF7894889598
S1134970F89483B78E7F83BFA3CF1FBF0E94980E86
S11349809DCFAA1BBB1B51E107C0AA1FBB1FA617C3
S1134990B70710F0A61BB70B881F991F5A95A9F7E4
S11349A080959095BC01CD010895EE0FFF1F002462
S11349B0001C0BBE0790F691E02D09943F924F9294
S11349C05F926F927F928F929F92AF92BF92CF929B
S11349D0DF92EF92FF920F931F93CF93DF935C01CB
S11349E06B017A016115710519F0FB0191838083D4
S11349F0E114F10429F0C7010297839708F0E5C098
S1134A00E5012196F5011081812F90E00E9419277C
S1134A10892B11F05E01F4CF1D3229F42196F501A2
S1134A20118101E007C01B3221F4E5012296F50152
S1134A30118100E0E114F10409F1F0E1EF16F10451
S1134A4029F43FC010E3E114F10421F128E0E21657
S1134A50F10401F154F4E2E0EE16F10421F5812CA5
S1134A60912CA12CB0E4BB2E3EC0FAE0EF16F10469
S1134A7039F020E1E216F104B1F430C0103319F139
S1134A80FAE0EF2EF12CACEC8A2E982CA82CACE09A
S1134A90BA2E29C078E0E72EF12C812C912CA12C80
S1134AA0E0E1BE2E20C060E070E080E090E8970175
S1134AB00F2C000C440B550B0E94E22A49015A01A9
S1134AC012C0103359F488818F7D883509F0BACF2C
S1134AD019812296026080E1E82EF12C812C912C20
S1134AE0A12C68E0B62E40E060E070E0CB01270125
S1134AF00F2C000C66087708FE0150ED352E310EA0
S1134B0029E0231570F42FEB210F2A3118F439EC26
S1134B10332E06C02FE9210F2A3118F529EA322E47
S1134B20310E232D30E02E153F05DCF447FD16C071
S1134B3086169706A806B90670F0A30192010E9492
S1134B40D22A630D711D811D911D6130710581058E
S1134B5020E8920710F04FEF01C041E02196108148
S1134B60CBCF202F2170C114D10471F0442329F03C
S1134B702197F601D183C08307C001FF19C0229792
S1134B80F601D183C08314C047FF12C0222329F049
S1134B9060E070E080E090E804C06FEF7FEF8FEF9B
S1134BA09FE722E230E03093B7132093B61309C095
S1134BB0222381F090958095709561957F4F8F4F5A
S1134BC09F4F462F372F282F12C040E030E020E0BF
S1134BD090E00DC097FFF5CF82E290E09093B71379
S1134BE08093B6136FEF7FEF8FEF9FE7EACF642FC9
S1134BF0732F822FDF91CF911F910F91FF90EF9030
S1134C00DF90CF90BF90AF909F908F907F906F90E8
S1134C105F904F903F9008953F924F925F926F92B2
S1134C207F928F929F92AF92BF92CF92DF92EF9238
S1134C30FF920F931F93CF93DF935C016B017A0173
S1134C406115710519F0FB0191838083E114F1046E
S1134C5029F0C7010297839708F0C9C0E50121969E
S1134C60F5011081812F90E00E941927892B11F002
S1134C705E01F4CF1D3229F42196F501118101E082
S1134C8007C01B3221F4E5012296F501118100E0F1
S1134C90E114F104B1F0F0E1EF16F10429F4B0C02D
S1134CA010E3E114F10401F12AE0E216F104B1F198
S1134CB080E1E816F10471F0E8E0EE16F104F1F495
S1134CC013C0103341F588818F7D883549F71981E8
S1134CD022960260F0E1EF2EF12C88248A94982C1D
S1134CE0A82CAFE0BA2E20C078E0E72EF12C88245F
S1134CF08A94982CA82CEFE1BE2E16C06FEF7FEF9C
S1134D00CB0197010F2C000C440B550B0E94E22A97
S1134D1049015A0109C08AE0E82EF12C69E9862E7E
S1134D20982CA82C69E1B62E40E060E070E0CB013D
S1134D3027010F2C000C66087708FE0150ED352E74
S1134D40310E29E0231570F42FEB210F2A3118F4CA
S1134D5039EC332E06C02FE9210F2A3130F529EA28
S1134D60322E310E232D30E02E153F05F4F44F3F43
S1134D70C9F086169706A806B90688F0A301920121
S1134D800E94D22A232D30E040E050E0620F731FCE
S1134D90841F951F621773078407950710F44FEF5C
S1134DA001C041E021961081C8CFC114D10451F053
S1134DB0442311F0219703C001FF04C02297F60198
S1134DC0D183C08300FF07C090958095709561954D
S1134DD07F4F8F4F9F4F4F3F79F482E290E0909343
S1134DE0B7138093B6133FEF2FEF9FEF0DC040E052
S1134DF030E020E090E008C0462F372F282F04C071
S1134E00103309F067CF5FCF642F732F822FDF91A8
S1134E10CF911F910F91FF90EF90DF90CF90BF90B3
S1134E20AF909F908F907F906F905F904F903F9046
S1134E30089591110C941F2A803219F089508550DD
S1134E40C8F70895FB01DC0105900D920020E1F7FD
S1134E500895FB01DC014150504030F08D910590E4
S1134E60801919F40020B9F7881B990B0895FB01E8
S1134E7055915523A9F0BF01DC014D91451741110E
S1134E80E1F759F4CD010590002049F04D9140150A
S1134E904111C9F3FB014111EFCF81E090E001978B
S1134EA00895FB01DC0102C001900D924150504075
S1134EB0D8F70895DC0101C06D9341505040E0F7EC
S1134EC00895FC018191861721F08823D9F7992749
S1134ED008953197CF010895FB01DC0101900D92F3
S1134EE00020E1F70895FB01DC014150504048F0F7
S1134EF001900D920020C9F701C01D92415050400D
S1134F00E0F70895FA01A191B081009719F4109780
S1134F10E1F0CD01DC01CD010D90002011F4C001C0
S1134F2013C0FB012191222319F02015D9F7F3CFE7
S1134F30FB012191201519F41E92119606C022231B
S1134F40C1F70D900020A1F7D001FA01A193B0831D
S1134F5008950F931F93CF93DF93CDB7DEB72E97AA
S1134F600FB6F894DEBF0FBECDBF0D891E898F89A1
S1134F70988D26E02C831A83098397FF02C080E072
S1134F8090E801979E838D83AE01455E5F4F698DE6
S1134F907A8DCE0101960E9415284D815E8157FDC0
S1134FA00AC02F813885421753070CF49A01F8017F
S1134FB0E20FF31F10822E960FB6F894DEBF0FBED9
S1134FC0CDBFDF91CF911F910F9108950F931F9340
S1134FD0CF93DF93CDB7DEB72E970FB6F894DEBF2D
S1134FE00FBECDBF0D891E8986E08C831A83098389
S1134FF08FEF9FE79E838D83AE01475E5F4F6F897E
S1135000788DCE0101960E941528EF81F885E00F76
S1135010F11F10822E960FB6F894DEBF0FBECDBFDF
S1135020DF91CF911F910F9108952F923F924F924C
S11350305F926F927F928F929F92AF92BF92CF9224
S1135040DF92EF92FF920F931F93CF93DF93CDB72D
S1135050DEB72B970FB6F894DEBF0FBECDBF6C0141
S11350607B018A01FC0117821682838181FFCCC1F6
S1135070CE0101963C01F6019381F70193FD8591E0
S113508093FF81917F01882309F4BAC1853239F4F1
S113509093FD859193FF81917F01853229F4B601B7
S11350A090E00E94382AE7CF912C212C312CFFE18B
S11350B0F315D8F08B3279F038F4803279F08332FA
S11350C0A1F4232D20611DC08D3261F0803369F479
S11350D0232D216016C0832D8260382EE32DE460D9
S11350E03E2E2AC0F32DF8601DC037FC2DC020EDE4
S11350F0280F2A3040F08E32B9F436FC81C1232DBA
S11351002064322E19C036FE06C08AE0989E200D17
S11351101124922E11C0EAE02E9E200D1124222E7D
S1135120F32DF0623F2E08C08C3621F4832D806865
S1135130382E02C0883641F4F70193FD859193FF20
S113514081917F018111B3CF982F9F7D9554933026
S113515028F40C5F1F4F9FE399830DC0833631F011
S1135160833771F0833509F059C021C0F80180817B
S113517089830E5F1F4F88248394912C530113C09D
S11351802801F2E04F0E511CF801A080B18036FED8
S113519003C0692D70E002C06FEF7FEFC5010E946C
S11351A02D2A4C018201F32DFF773F2E16C02801D2
S11351B022E0420E511CF801A080B18036FE03C0EB
S11351C0692D70E002C06FEF7FEFC5010E94222AB3
S11351D04C01F32DF0683F2E820133FC1BC0822D5D
S11351E090E088169906B0F4B60180E290E00E943F
S11351F0382A2A94F4CFF50137FC859137FE819142
S11352005F01B60190E00E94382A21102A9421E01F
S1135210821A91088114910471F7E8C0843611F060
S1135220893641F5F80137FE07C0608171818281BA
S113523093810C5F1F4F08C060817181072E000CA1
S1135240880B990B0E5F1F4FF32DFF763F2E97FFB0
S113525009C090958095709561957F4F8F4F9F4FB2
S1135260F0683F2E2AE030E0A3010E94742A882EC1
S1135270861845C0853731F4232D2F7EB22E2AE0BF
S113528030E025C0932D997FB92E8F36C1F018F4E4
S1135290883579F0B5C0803719F0883721F0B0C06F
S11352A0E92FE061BE2EB4FE0DC0FB2DF460BF2ECD
S11352B009C034FE0AC0292F2660B22E06C028E099
S11352C030E005C020E130E002C020E132E0F80126
S11352D0B7FE07C060817181828193810C5F1F4F8B
S11352E006C06081718180E090E00E5F1F4FA301D2
S11352F00E94742A882E8618FB2DFF773F2E36FED7
S11353000DC0232D2E7FA22E891458F434FE0BC019
S113531032FC09C0832D8E7EA82E05C0B82CA32C88
S113532003C0B82C01C0B92CA4FE0FC0FE01E80DC7
S1135330F11D8081803321F49A2D997EA92E09C014
S1135340A2FE06C0B394B39404C08A2D867809F0F3
S1135350B394A3FC11C0A0FE06C0B21488F4280CB8
S1135360922C9B180EC0B21460F4B60180E290E057
S11353700E94382AB394F7CFB21418F42B1802C041
S1135380982C212CA4FE10C0B60180E390E00E946A
S1135390382AA2FE17C0A1FC03C088E790E002C02F
S11353A088E590E0B6010CC08A2D867859F0A1FEFC
S11353B002C08BE201C080E2A7FC8DE2B60190E05E
S11353C00E94382A891438F4B60180E390E00E94E0
S11353D0382A9A94F7CF8A94F301E80DF11D80815D
S11353E0B60190E00E94382A8110F5CF222009F4FA
S11353F042CEB60180E290E00E94382A2A94F6CF89
S1135400F6018681978102C08FEF9FEF2B960FB62E
S1135410F894DEBF0FBECDBFDF91CF911F910F91E6
S1135420FF90EF90DF90CF90BF90AF909F908F90C0
S11354307F906F905F904F903F902F9008959927A1
S113544088270895FC010590615070400110D8F739
S1135450809590958E0F9F1F0895FC0161507040B8
S113546001900110D8F7809590958E0F9F1F089595
S11354700F931F93CF93DF93FB01238121FD03C07F
S11354808FEF9FEF2CC022FF16C0468157812481E5
S113549035814217530744F4A081B1819D012F5FE8
S11354A03F4F318320838C93268137812F5F3F4F79
S11354B03783268314C08B01EC01FB010084F18542
S11354C0E02D0995892BE1F6D80116968D919C91D2
S11354D01797019617969C938E931697CE01DF919A
S11354E0CF911F910F910895FA01AA27283051F105
S11354F0203181F1E8946F936E7F6E5F7F4F8F4F01
S11355009F4FAF4FB1E03ED0B4E03CD0670F781F5F
S1135510891F9A1FA11D680F791F8A1F911DA11D44
S11355206A0F711D811D911DA11D20D009F468947D
S11355303F912AE0269F11243019305D3193DEF625
S1135540CF010895462F4770405D4193B3E00FD0DB
S1135550C9F7F6CF462F4F70405D4A3318F0495DC6
S113556031FD4052419302D0A9F7EACFB4E0A695A9
S11355709795879577956795BA95C9F700976105CB
S1135580710508959B01AC010A2E06945795479521
S113559037952795BA95C9F7620F731F841F951F16
S11355A0A01D0895DB018F939F930E94042BBF914C
S11355B0AF91A29F800D911DA39F900DB29F900D5E
S11355C011240895A1E21A2EAA1BBB1BFD010DC0D4
S11355D0AA1FBB1FEE1FFF1FA217B307E407F5079F
S11355E020F0A21BB30BE40BF50B661F771F881F7B
S11355F0991F1A9469F760957095809590959B0111
S1135600AC01BD01CF0108950E940F2BA59F900D01
S1135610B49F900DA49F800D911D11240895A29F05
S1135620B001B39FC001A39F700D811D1124911D72
S1135630B29F700D811D1124911D0895F894FFCF20
S1135640FFFFFFFFFFFFFFFFFFFFFFFF01FF01FF62
S1135650FFFFFFFF0006010203040506FFFF000031
S11356600A3C00010A3C000A0100010E0439303BE7
S1135670034403C0A82A01C0A82A02FFFFFF002098
S11356807F0507060848026164640D69643D25646A
S11356902C6E616D653D25732C716469616C3D25CB
S11356A0642C667265713D25642C7069636F646552
S11356B03D25642C6E6F74653D25730A0075706416
S11356C06174650D69643D25642C6E616D653D25CD
S11356D0732C716469616C3D25642C667265713D3F
S11356E025642C7069636F64653D25642C6E6F744A
S11356F0653D25730A0073630025642E25640070DC
S113570075726765616C6C0D0A006C6973740D0ABF
S113571000526164696F20696E697469616C697AA9
S113572065642E003D006C69737420656E64002C02
S11357300067657400252D387300713D25642C665F
S11357403D25642C703D25642C6E3D25732C6E3DE7
S113575025730A006765742066696E006665746364
S11357606861626364006765740D69643D25640A59
S113577000253032643A253032640020204F453110
S113578020202000796F2073657276617320686130
S113579062652064657265003E253033642E2530D1
S11357A033642E253033642E2530336400696E69EA
S10957B07420666D000088
S9030000FC
