S01F00006275696C642F626967415652365F313238302F6D61696E2E7372656377
S11300000C94CF020C94CB240C94D5240C94DF24B0
S11300100C9408250C944E250C9458250C946225B8
S11300200C946C250C94EE020C94EE020C94F825BE
S11300300C94EE020C94DB230C94EE020C941A2420
S11300400C94EE020C94EE020C94EE020C94EE026C
S11300500C94EE020C94EE020C94EE020C94EE025C
S11300600C9424240C94EE020C94EE020C94EE02F4
S11300700C94EE020C94A3260C94EE020C94EE0263
S11300800C94EE020C94EE020C94EE020C94EE022C
S11300900C94EE020C94EE020C94EE020C94762571
S11300A00C94EE020C94EE020C94EE020C94EE020C
S11300B00C94EE020C94EE020C94EE020C94EE02FC
S11300C00C94EE020C94EE020C94EE020C94EE02EC
S11300D00C94EE020C94EE020C94EE020C94EE02DC
S11300E00C94EE02A111FD1172128313FF132C1450
S11300F038144414501477143D155D15A415431792
S11301007A174A19CD19F1193C1AAC1AD71A011BDE
S1130110251B2C1B411B451B541B461C0B1DFE1D84
S11301200F1F221F621F931FD91FF61F1D202B2094
S11301304620A1207A157D1580158315861589150D
S11301408C158F15921500020E060C040D090E78FD
S1130150155116211A591B531C411D571E222143A8
S11301602258234424452578262329202A562B4621
S11301702C542D522E25314E324233483447355AB1
S11301803626394C3A4D3B4A3C553D2F3E28413B9F
S1130190424B4349444F453D4629493A4A5F4B4CFB
S11301A04C784D504E3F5278547855605A0A5B5EF5
S11301B05D2A613E660869316B346C377030712C8E
S11301C07232733574367538792B7A337B2D7C2AE9
S11301D07D3900000D090E7C157116311A791B73D7
S11301E01C611D771E322163227823642465253423
S11301F0263329202A762B662C742D722E35316EE7
S1130200326233683467357A3636392C3A6D3B6A54
S11302103C753D373E38412C426B4369446F453051
S11302204639492E4A2D4B6C4C6F4D704E2B526FF4
S1130230546F555C5A0A5B785D27613C66086931E6
S11302406B346C377030712C723273357436753888
S1130250792B7A337B2D7C2A7D3900000000000045
S11302600000005F00000007000700147F147F14E3
S1130270242A7F2A12231308646236495522500027
S113028005030000001C2241000041221C00082A32
S11302901C2A0808083E0808005030000008080816
S11302A00808006060000020100804023E5149451F
S11302B03E00427F400042615149462141454B3155
S11302C01814127F1027454545393C4A49493001E5
S11302D0710905033649494936064949291E00363C
S11302E0360000005636000000081422411414148D
S11302F014144122140800020151090632497941BB
S11303003E7E1111117E7F494949363E41414122C9
S11303107F4141221C7F494949417F090901013E2E
S1130320414151327F0808087F00417F410020404D
S1130330413F017F081422417F404040407F020436
S1130340027F7F0408107F3E4141413E7F09090935
S1130350063E4151215E7F091929464649494931E2
S113036001017F01013F4040403F1F2040201F7F8B
S11303702018207F63140814630304780403615174
S113038049454300007F4141020408102041417F58
S11303900000040201020440404040400001020405
S11303A00020545454787F4844443838444444200A
S11303B0384444487F3854545418087E09010208CC
S11303C01454543C7F0804047800447D40002040C9
S11303D0443D00007F10284400417F40007C041805
S11303E004787C0804047838444444387C14141495
S11303F008081414187C7C08040408485454542035
S1130400043F4440203C4040207C1C2040201C3CB5
S11304104030403C44281028440C5050503C446424
S1130420544C44000836410000007F00000041366F
S1130430080008082A1C08081C2A08086E6F74653E
S1130440006E616D6500716469616C007069636F51
S113045064650066726571006964004368616E6E6C
S1130460656C2044422046756C6C00676574006DB1
S11304707367007075726765616C6C006C69737486
S11304800075706461746500616464006F6B0041A1
S11304906C7265616479206661766F7572697465E2
S11304A021004368616E6E656C206E6F7420696E06
S11304B0206C69737421004661766F757269746586
S11304C0206E6F7420736574210042616E64206C29
S11304D0696D6974207265616368656421004442D2
S11304E0206572726F72210044422066756C6C2123
S11304F0004661766F7572697465732066756C6CFD
S113050021004368616E6E656C206C6973742066AB
S1130510756C6C2100496E76616C69642063686156
S11305206E6E656C2100464D436C69636B20696E89
S11305306974206661696C65642100556E6B6E6F29
S1130540776E206572726F7221004572726F723A13
S113055000202020202020202020202020202020B7
S113056020202020202000202020202000202020C7
S1130570202020202000566F6C756D653A004D4890
S11305807A00456E746572204E6F74653A00456E4C
S1130590746572204368616E6E656C3A00001124C4
S11305A01FBECFEFD1E2DEBFCDBF12E0A0E0B2E0CC
S11305B0EEE5FFE500E00BBF02C007900D92A63CFC
S11305C0B107D9F713E1A6ECB2E001C01D92A8333C
S11305D0B107E1F70E941D270C94AD2F0C94000085
S11305E080911B128093BC000895289A089528983E
S11305F0089576980895769A08958091A7128F3F6A
S113060069F0E82FF0E0E456F34F90819093A7123D
S11306109F3F11F490930A139FEF90830895EB98F2
S113062008959FB7F894E82FF0E0E456F34F208143
S11306302F3F99F4E0910A13E81779F02091A7125B
S11306402F3F19F48093A71204C0F0E0E456F34F4F
S1130650808380930A1380E001C085E09FBF0895E2
S11306608BE00C94110388E00C9411038DE00C943E
S1130670110380E20C9411038CE10C9411038BE1BF
S11306800C94110382E00C9411038EE10C94110379
S1130690ECE7F0E0208180917B00308190818870CC
S11306A0880F880F2F71822B35FB222720F920FB1E
S11306B086F99295969596959370292F27952227DA
S11306C02795822B969508958FB7F8949091BC0046
S11306D090931B128FBF08953FB7F8949093060828
S11306E080930508209108083FBF2430C9F02530C5
S11306F0B9F489339440D0F080910704882381F0C1
S11307008FB7F8942091090430910A0430930408B7
S11307102093030893E0909308088FBF0C9433034D
S11307208FB7F89491E0909308088FBF0C9442031C
S11307302FB7F8946091FE0E7091FF0E8091000F18
S11307409091010F2FBF0895CF92DF92EF92FF9205
S1130750CF93C82F6A017B010E94980329E0C29FAE
S1130760F0011124DF01A452BE4E6D937D938D934D
S11307709C9313971496CD92DD92ED92FC92179769
S1130780EC51FE4E808181608260808382E1CF9152
S1130790FF90EF90DF90CF900C9411038EBD0DB4B9
S11307A007FEFDCF8EB508950C94CE03CF93DF934F
S11307B000D0CDB7DEB76A8389830E94F7028981AE
S11307C00E94D4036A81862F0E94D4030F900F9055
S11307D0DF91CF910C94F502CF93DF931F92CDB7A5
S11307E0DEB789830E94F70289810E94D40380E0E6
S11307F00E94CE0389830E94F50289810F90DF91C4
S1130800CF910895CF93DF9300D0CDB7DEB76A833D
S113081089830E94F702898180680E94D4036A81D7
S1130820862F0E94D4030F900F90DF91CF910C94E8
S1130830F502CF93DF931F92CDB7DEB789830E9471
S1130840F70289810E94D4038FEF0E94D4038FEFB3
S11308500E94CE0389830E94F50289810F90DF9163
S1130860CF9108958F929F92AF92BF92CF92DF92D1
S1130870EF92FF920F931F93CF93DF932FEF280FE5
S11308809DE1299F900111248901055A1D4EF8010B
S11308909081911140C0E901C45ADD4E2097D9F1ED
S11308A07A0151E0598318821B8298E09A8396E07A
S11308B09C8344E04D838090240290902502A09074
S11308C02602B09027028786908AA18AB28AD9012B
S11308D0AC59BD4EE6E1F2E0492F01900D924A95E4
S11308E0E1F7D901A259BD4EFB0101900D929A95F1
S11308F0E1F7F701C080D180E280F380F801C18E76
S1130900D28EE38EF48E8F831E82508383E10E9405
S1130910110380E001C085E0DF91CF911F910F9119
S1130920FF90EF90DF90CF90BF90AF909F908F900B
S113093008952FB7F89480910A08882309F140910B
S11309401F125091201260912112709122128091F5
S1130950C50C9091C60CA091C70CB091C80C840F23
S1130960951FA61FB71F4091FE0E5091FF0E609178
S1130970000F7091010F481759076A077B0711F0A0
S11309802FBF089510920A082FBF81E10C94110320
S1130990BC014091070427E034E090E0941761F033
S11309A0255C3F4FF901F9970190F081E02DE6179E
S11309B0F70721F09F5FF2CF8FEF0895892F0895F5
S11309C02FB7F89490919E122FBF91110EC09FB72C
S11309D0F89423E020939E121092A4128093050FA2
S11309E09FBF0E943C0380E0089581E00895DC01EC
S11309F081E04D91442311F12091AB1230E09091AC
S1130A001C12F90154E0EE0FFF1F5A95E1F7E90FAC
S1130A10F11DEA55F04F40839F5F90931C12F9013A
S1130A20E85FF04F8083903121F710921C122F5F02
S1130A303F4F217033272093AB12DBCF0895909161
S1130A40080880930708923031F0983031F09130E3
S1130A5039F48CE003C080E001C081E00C94110300
S1130A6008958FB7F894E7EAF7E0108211821282B2
S1130A7013828FBF89E0EDEAF7E0DF011D928A95CA
S1130A80E9F781E4E6EBF7E0DF011D928A95E9F7E7
S1130A9086E0E7EFF7E0DF011D928A95E9F7089514
S1130AA00F931F93CF93DF9300D01F92CDB7DEB780
S1130AB08091FC031F928F938FE892E09F938F9312
S1130AC08E010F5F1F4F1F930F930E94872C1B8271
S1130AD01092AB1288E080931C12C8010E94F704A4
S1130AE087E20E9411030F900F900F900F900F90C8
S1130AF00F900F900F900F90DF91CF911F910F9156
S1130B0008952F923F924F925F926F927F928F92AD
S1130B109F92AF92BF92CF92DF92EF92FF920F9388
S1130B201F93CF93DF93CDB7DEB7AD970FB6F8948D
S1130B30DEBF0FBECDBF2FB7F8949091F9032FBF3E
S1130B409111F3C08B018BA78FB7F89492E0909327
S1130B50F9038FBF44E050E068E874E0CE010196E9
S1130B601C010E941C2C9E012B5F3F4F47E050E06C
S1130B7061E874E0C9012CA73DA70E941C2C2E013A
S1130B809CE0490E511C43E050E068E574E0C2016A
S1130B900E941C2C5E01AFE0AA0EB11C45E050E09F
S1130BA063E574E0C5010E941C2C4E01BAE18B0E72
S1130BB0911C47E050E06CE474E0C4010E941C2CDA
S1130BC06E0184E1C80ED11C46E050E066E474E096
S1130BD0C6010E941C2C7E0191E2E90EF11C45E045
S1130BE050E061E474E0C7010E941C2C3E01A6E2BF
S1130BF06A0E711C45E050E06CE374E0C3010E948E
S1130C001C2CE5EFF2E080E8DF011D928A95E9F7FC
S1130C102CA53DA5BBA5BF3FA1F5D80118968C9185
S1130C2018978F9317968C9117978F937F926F9243
S1130C3014968C9114978F9313968C9113978F938A
S1130C409F928F9212968C9112978F9311968C91FA
S1130C5011978F93BF92AF928C911F928F93DF92D3
S1130C60CF9216968C9116978F9315968C918F939D
S1130C70FF92EF921F921F925F924F923F922F9298
S1130C8037C09BA59F3008F040C0D80118968C91BE
S1130C9018978F9317968C9117978F937F926F92D3
S1130CA014968C9114978F9313968C9113978F931A
S1130CB09F928F9212968C9112978F9311968C918A
S1130CC011978F93BF92AF928C911F928F93DF9263
S1130CD0CF9216968C9116978F9315968C918F932D
S1130CE0FF92EF921F929F935F924F923F932F93A5
S1130CF08BE392E09F938F93FF93EF930E94872C53
S1130D000FB6F894DEBF0FBECDBF10927403E5EFAB
S1130D10F2E001900020E9F7CF01865F92409093C2
S1130D20F4028093F3020E943603AD960FB6F89452
S1130D30DEBF0FBECDBFDF91CF911F910F91FF900A
S1130D40EF90DF90CF90BF90AF909F908F907F9067
S1130D506F905F904F903F902F900895EF92FF9285
S1130D600F931F93CF93DF93CDB7DEB729970FB6B9
S1130D70F894DEBF0FBECDBF9FB7F8948091F903FE
S1130D809FBF811133C08FB7F89495E09093F90316
S1130D908FBF49E050E063E774E0CE0101967C0127
S1130DA00E941C2C05EF12E080E8F80111928A954C
S1130DB0E9F7FF92EF9283E692E09F938F931F935C
S1130DC00F930E94872CF80101900020E9F78F010E
S1130DD0065F12401093F4020093F3020E9436035C
S1130DE00F900F900F900F900F900F9029960FB6C1
S1130DF0F894DEBF0FBECDBFDF91CF911F910F914D
S1130E00FF90EF900895019701960197019601973D
S1130E1001960197C1F708951092D202E091D3028E
S1130E208BE0E89FF0011124ED5DFD4E108285E119
S1130E300C9411030F931F93CF93DF9300917503C9
S1130E4010917603F801EA58FC4F20812A30D1F43E
S1130E50EC0110826DE070E087E793E00E94552C6E
S1130E6099838883009741F0FC01108288819981DD
S1130E7001969983888304C009581C4F19830883F9
S1130E8081E001C080E0DF91CF911F910F9108951F
S1130E9081E08093D80246E053E166E072E00E946C
S1130EA0320444E650E060E070E080E00C94A40377
S1130EB0EF92FF920F931F93CF93DF9300D000D054
S1130EC01F92CDB7DEB79FB7F8948091F9039FBF07
S1130ED0811135C08FB7F89493E09093F9038FBFD5
S1130EE01092F70345E050E06CE774E0CE01019600
S1130EF07C010E941C2C05EF12E080E8F80111929D
S1130F008A95E9F7FF92EF9283E692E09F938F939D
S1130F101F930F930E94872CF80101900020E9F79A
S1130F208F01065F12401093F4020093F3020E94B3
S1130F3036030F900F900F900F900F900F900F901B
S1130F400F900F900F900F90DF91CF911F910F9101
S1130F50FF90EF9008951F93CF93DF938FB7F8948A
S1130F60C091CA02C1113DC011E01093CA0210928F
S1130F7095128FBFDFB7F8948091C902811117C011
S1130F80509851981092B90081E48093B80010925F
S1130F90BA001092BC000E94640380911B128E7FE1
S1130FA0846080931B120E94F0021093C902DFBF79
S1130FB0DFB7F89480910E02813089F48091CA02DF
S1130FC0813021F483E20E94110309C0823039F494
S1130FD08091951280930E0283E08093CA02DFBF52
S1130FE01DC0C0919512CC23C1F090910A0F9F3F70
S1130FF099F4E0910F02EE2379F0909110029F3F53
S113100019F41092100204C0F0E0E65FF04F108271
S113101010920F02C0E001C0C5E08FBF8C2FDF919A
S1131020CF911F910895882389F12FB7F894809167
S1131030400A9091410A90699093410A8093400A32
S11310401092AC121092AD121092AE1284E0809302
S113105096122FBF48E050E060E270E080EB92E12E
S11310600E944E2C40E450E060E270E08AEB92E192
S11310700E944E2C46E050E060E270E08AEF92E17C
S11310800E944E2C88E08CBBEB9A11C00E940F0387
S11310902FB7F8948091400A9091410A9F769093DB
S11310A0410A8093400A84E0809396122FBF0C94E7
S11310B039033FB7F8949091A61220919E12809321
S11310C0A6123FBF21110AC0891741F09FB7F894B7
S11310D024E020939E129FBF0E94130880E008958D
S11310E02FB7F894909108082FBF811110C0963043
S11310F049F0973039F0953029F40E94310585E0A4
S11311000C9411038FB7F8948FBF0C944203813071
S113111021F48FB7F89494E003C08FB7F89495E066
S11311209093FA038FBF0C9430031F93CF93DF93F4
S11311301F92CDB7DEB7182F806479830E94D6033F
S113114081E0810F7981672F80640F90DF91CF91C7
S11311501F910C94D603660F660F68B9439A98B131
S11311608295807F982B98B943980895CF93DF9305
S1131170C82FD62F82958F700E94AB086D2F8C2FAD
S1131180DF91CF910C94AB08CF93DF939FB7F89482
S11311908091CD02882369F19FBFDFB7F894C09195
S11311A0CD02C11109C081E08093CD0210921102D9
S11311B088E10E94110318C08091D00C8F3F99F4EC
S11311C0E0911202EE2379F0809113028F3F19F41B
S11311D01092130204C0F0E0E053F34F1082109217
S11311E01202C0E001C0C5E0DFBF8C2FDF91CF91B8
S11311F008958CB58F7B8CBD229A2398219A209ACE
S11312008CB580618CBD8CB58F778CBD8DB58E7F90
S11312108DBD8CB5877F8CBD8CB58B7F8CBD8CB51B
S11312208C7F8CBD8CB580648CBDB6CF0F931F931F
S1131230CF93DF9380910013882309F43FC010E01B
S1131240C0E0DFE10FB7F894809103138E7F8093A1
S113125003130E944803282F2F73881F8827881F91
S11312609170990F892B181302C091E0D21390E06A
S11312708091031390FB81F99D2F9F73990F990F10
S11312808370892B809303131111D064D0937C0055
S113129080917B00877F80937B00909103138C2F38
S11312A08860806190FB85F98064806880937A000F
S11312B00FBFDF91CF911F910F910895C7E011E007
S11312C0D0E0C0CFCF93DF93CFB7F8940E946403EC
S11312D080911B128E7F806980931B120E94F00202
S11312E0CFBFDFB7F8948091CA028330C1F5C091B3
S11312F00E02C11134C0809110028F3FC1F0E82F5B
S1131300F0E0E65FF04F9081909310029F3F11F45C
S113131090930F029FEF90838093951290930E0207
S113132081E08093CA0283E20E94110316C081E027
S113133080930E021092CA028091C902813069F42E
S11313400E94640380911B128A7680931B120E9470
S1131350F002589859981092C902DFBF02C0DFBF4B
S1131360C1E08C2FDF91CF9108951092CB02909120
S1131370CC022DE0929FF0011124EA53F04F108229
S1131380911103C081110E94360389E10C94110369
S11313901092D4029091D50228E0929FF00111247A
S11313A0E251F14F1082992329F0913029F40E94DF
S11313B0B50902C00E940C0784E10C941103811149
S11313C010C0662371F08091D802813051F41092DC
S11313D0D8028091E4118D7F8093E41181E00C9414
S11313E0C8090895882319F0813021F00895862FC3
S11313F00C94C8091092D6028091D7029DE1899F6E
S1131400F0011124E55AFD4E10820E94DF0983E1A8
S11314100C941103CF93DF931F92CDB7DEB789836A
S11314200E94F7028FEB0E94D40383E00E94D4034E
S11314300E94F50269818FE10F90DF91CF910C94A6
S11314400204FC01009719F481E00C94C80930915E
S1131450D40C9091D50C8091820C811124C043E866
S11314605CE041155105F9F026E0DA0101900D9296
S11314702A95E1F740E058E050938A0C4093890C98
S113148042ED5CE050938C0C40938B0C892F90E0E0
S1131490932B90938E0C80938D0C81E08093820C1F
S11314A080E10C94110308958F929F92AF92BF92A2
S11314B0CF92DF92EF92FF920F931F93CF93DF931C
S11314C08FB7F89492E09093CD028FBF8091110270
S11314D0811198C20E94F5028091D102813021F0DD
S11314E0823009F498C051C26FEF8FEF0E94D60387
S11314F08DE10E94EC0380FFFBCF80E00E940A0A8A
S113150060E076E088E00E94950880E096E09093A1
S113151015028093140260E076E08CE00E94950846
S11315206FEF7FE18AE00E94950860E070E084E05C
S11315300E94950860E88EE50E94D60381E00E942F
S11315400A0A61EA88E50E94D60382E00E940A0A38
S113155060E081E40E94D60361E080E40E94D60347
S113156063E382E40E94D60360E083E40E94D6032E
S11315706AE272E08AE00E94950865E184E40E94D0
S1131580D603909128028091290290931B028093A4
S11315901A0283E00E940A0A60911B0281E40E94FD
S11315A0D60360911A0280E40E94D6036091190266
S11315B083E40E94D6036091180282E40E94D60359
S11315C06091170285E40E94D6036091160284E4B8
S11315D00E94D60382E00E940A0A64E184E50E9424
S11315E0D60360E471E086E10E94950862E184E537
S11315F00E94D60362E170E086E10E94950860EDE6
S11316008BE50E94D60364E08FE10E94020482E02D
S11316108093D102BAC18091CE02882309F43FC0DD
S11316201092CE028CE10E94EC03C82F84FF20C0EC
S113163082E00E940A0A63E184E50E94D60361E025
S113164082E50E94D60383E00E940A0A8AE00E948F
S1131650190480FDFBCF82E00E940A0A60E082E563
S11316600E94D60388E10E94190489E10E941904AA
S113167081E00E940A0A89E10E94EC03882319F0A0
S113168081E08093CF02C0FF0AC00E94F7028CEB76
S11316900E94D40381E00E94D4030E94F502809149
S11316A0D0028130D9F580E00E940A0A60E070E03F
S11316B082E00E94950860E08AE70E94D603C0E0B9
S11316C0D0E06091CE0C7091CF0CC617D70760F4B0
S11316D0E0913912F0913A12EC0FFD1F60818AE714
S11316E00E94D6032196EDCF86E00E94950868E01B
S11316F08FE10E9402041092D0021092DC028091C9
S1131700DD022DE0829FF0011124EE57F34F108289
S113171060E00E94F20980E10E9411038091CF02EF
S1131720813009F032C180E00E940A0A60911402FB
S11317307091150280E00E9495088AE30E94EC03F0
S113174090E090931502809314028AE30E94EC03C4
S11317502091140230911502382B309315022093F6
S113176014028AE30E94EC03C82FD0E08AE30E94AB
S1131770EC03D82B8AE30E94EC038AE30E94EC0377
S1131780CE010F978B31924080F40DE018E08AE38C
S11317900E94EC03F80181938F01CF018D50984092
S11317A08C179D07A0F3C0E001C0C1E06091140252
S11317B0709115028CE00E94950860E48EE10E940D
S11317C002041092CF02C111E0C08091190890E088
S11317D0982F882720911A08822B8115F8E09F07FB
S11317E029F08630984009F46FC0CFC08BE198E0AF
S11317F090939D1280939C1280912B0890912C08B9
S1131800A0912D08B0912E08009124021091250278
S1131810209126023091270280179107A207B3076F
S113182039F140911C0250911D0260911E02709189
S11318301F026A017B01C094D094E094F0944601A5
S1131840570188229922AA22BB228C149D04AE043B
S1131850BF0409F09AC080279127A227B3278423C5
S11318609523A623B723892B8A2B8B2B09F08DC0B4
S113187080912408813109F088C020913308C091F7
S113188034088091310890E0982F882730913208ED
S1131890832B8035934C09F078C0D0E0D22B289765
S11318A0C138D10510F0C0E8D0E0AE0167E378E0BC
S11318B087E793E00E94452CD0937603C093750389
S11318C08EE00E94110361C08091210890E0982F5E
S11318D0882720912208822B8130910519F00297E4
S11318E0F1F053C0409124025091250260912602E8
S11318F0709127028091330890913408A0913508A3
S1131900B0913608481759076A077B07F1F549E291
S113191058E063E278E082E00E94320436C08091AD
S1131920D802813091F58091DA02EAE08E9FC001FD
S11319301124FC01E35FFC4E4091290850912A08D0
S113194060912B0870912C084083518362837383C8
S1131950DC01AF5EBC4E26E0E3E2F8E001900D92BC
S11319602A95E1F72091E4112D7F2093E411109240
S1131970D8028F5E9C4E0E94210A8091DA0290E088
S11319800196837099278093DA02CFB7F8948091F7
S1131990CD02823011F58091110281111EC0809117
S11319A013028F3FB1F0E82FF0E0E053F34F908142
S11319B0909313029F3F11F4909312029FEF908330
S11319C08093110281E08093CD0288E10E9411038B
S11319D004C0809311021092CD02CFBF9FB7F89438
S11319E08091CD02882351F09FBFCFB7F8944A99D4
S11319F003C086E10E941103CFBF04C08CB58F7B66
S1131A008CBDF2CFDF91CF911F910F91FF90EF909A
S1131A10DF90CF90BF90AF909F908F9008958823D0
S1131A2029F0813029F47298739A02C07398729ADB
S1131A3082B182B981B111B87498759A0E94FB027F
S1131A4082E090E00E94030780B1079B0DC00E94D2
S1131A50F90282E090E00E9403070E94FB0282E008
S1131A6090E00E940307F1CF0E94F902759881B1BA
S1131A708FEF81B90895CF93DF931F92CDB7DEB76F
S1131A800E940F0D81B111B8749A759A0E94FB02DD
S1131A9082E090E00E94030780B10E94F90282E094
S1131AA090E00E9403070E94FB0282E090E00E9403
S1131AB0030780B189830E94F90289810F90DF9125
S1131AC0CF910895CF93DF931F92CDB7DEB769838B
S1131AD00E940F0D698162B981B18FEF81B9749A47
S1131AE075980E94FB0282E090E00E9403070E9426
S1131AF0F90280E00F90DF91CF910895CF93DF93A7
S1131B001F92CDB7DEB769830E940F0D7498759844
S1131B100E94FB0281B18FEF81B9698162B982E0D1
S1131B2090E00E9403070E94F90280E00F90DF9189
S1131B30CF910895CF93DF93982FC62FD82FD295A6
S1131B40D695D695D37081E0D8279F73692F6064AA
S1131B508D2F0E947E0D6C2F6770686B8D2FDF9127
S1131B60CF910C947E0D5F926F927F928F929F9291
S1131B70AF92BF92CF92DF92EF92FF920F931F9397
S1131B80CF93DF9390EE980F903608F054C06B011A
S1131B9090E0809725E0289F8001299F100D112453
S1131BA0045A1D4F912C89EF682E6D0C55245394C3
S1131BB0AA24A394B12CF92CFC0CD62DF801749012
S1131BC0F6FACC27C0F9C5258D2E86948694869482
S1131BD0FD2FF770EF2E682D8F2D70FE0DC00E9423
S1131BE09A0D8C2F0E943B0DB50101C0660FEA943B
S1131BF0EAF7E82EE62A0DC00E949A0D8C2F0E9467
S1131C003B0D950101C0220FEA94EAF72095E82ED6
S1131C10E222682D8F2D0E949A0D6E2D8C2F0E942A
S1131C20620D7694DF5FDD11CFCF0F5F1F4F93946A
S1131C3085E09812C0CFDF91CF911F910F91FF9053
S1131C40EF90DF90CF90BF90AF909F908F907F9058
S1131C506F905F900895EF92FF920F931F93CF932D
S1131C60DF9300D0CDB7DEB77C01162F962F00E0AE
S1131C70F701E00FF11D84918823B1F08A3011F04F
S1131C808D3019F4485F912F0DC0893011F4965F9F
S1131C9009C09A5F692F742F49839A830E94B30DF8
S1131CA09A8149810F5FE4CF0F900F90DF91CF911C
S1131CB01F910F91FF90EF900895FF920F931F9340
S1131CC0CF93DF93F62E8C01D42FCF2DF801819181
S1131CD08F01882379F08A3011F08D3011F4D85FA8
S1131CE0F4CF893011F4C65FF1CFCA5FBE010E9400
S1131CF0B30DECCFDF91CF911F910F91FF90089519
S1131D00EF92FF920F931F93CF93DF93CDB7DEB77C
S1131D1029970FB6F894DEBF0FBECDBFE982FA82D1
S1131D200B831C832D833E834F83588769872FB78A
S1131D30F894909108082FBF911190C08F3FA1F59E
S1131D4080910704882371F08FB7F89420910904D7
S1131D5030910A04309304082093030893E090938D
S1131D60080813C00E9431050E94AE061092FD03BC
S1131D708FB7F8941092070495E0909308082BE627
S1131D8033E030930408209303088FBF29960FB6DD
S1131D90F894DEBF0FBECDBFDF91CF911F910F919D
S1131DA0FF90EF900C943303209107048BE3829F00
S1131DB090011124D901A85FBB4F99E0FE0131962F
S1131DC001900D929A95E1F7D901AF5EBB4FEE8178
S1131DD0FF8198E001900D929A95E1F7A091070494
S1131DE08A9FD0011124A65EBB4FE885F98588E25D
S1131DF001900D928A95E1F78981882391F04EE153
S1131E0062E388E692E00E945D0EE091FD0381E0CA
S1131E108E0F8093FD03F0E0E350FC4F80910704A4
S1131E2081834FB7F89480910704282F30E09BE317
S1131E30929FF001939FF00D1124E95FFB4F128AEA
S1131E402F5F3F4F929FF001939FF00D1124E95FA4
S1131E50FB4F10828F5F809307044FBF29960FB604
S1131E60F894DEBF0FBECDBFDF91CF911F910F91CC
S1131E70FF90EF900895CF93DF93C0E06C2F80E044
S1131E800E949A0D6C2F80E40E949A0DD0E060E0CD
S1131E9080E00E94620D60E081E00E94620DDF5FDD
S1131EA0D038A9F7CF5FC83049F780E0DF91CF91F0
S1131EB008959FB7F894209108089FBF813009F4D2
S1131EC03EC0A8F0823009F04EC08FB7F89491E07C
S1131ED09093AA078FBF86E0E7EFF7E0DF01982F22
S1131EE01D929A95E9F7FB01A7EFB7E038C089E0A6
S1131EF0EDEAF7E0DF011D928A95E9F788E0FB013E
S1131F00ADEAB7E001900D928A95E1F73FB7F894F6
S1131F1081E08093A7078093A807FB01808590E068
S1131F20982F88274185842B9093AC078093AB0727
S1131F303FBF2530C1F489E00E94110314C09FB74C
S1131F40F8948093A9079FBF81E4E6EBF7E0DF01F3
S1131F501D928A95E9F780E4FB01A6EBB7E00190B6
S1131F600D928A95E1F783E00C9411034F925F92EE
S1131F706F927F928F929F92AF92BF92CF92DF9295
S1131F80FF920F931F93CF93DF93ACEDB1E1C12C7C
S1131F90D12C49E04C9DF0014D9DF00D1124EF0131
S1131FA0C452DE4EF884F1FEC6C00D911D912D91F0
S1131FB03C91139714968D909D90AD90BC9017977B
S1131FC02B013C01401A510A620A730A481459044D
S1131FD06A047B0408F4AFC0F0FE06C0EC51FE4E68
S1131FE020812D7F20830AC0B901A801480D591D05
S1131FF06A1D7B1D488359836A837B8323E0C21651
S113200009F450C02C1538F081E0C81681F022E0A4
S1132010C216F1F12DC085E0C81609F47FC0C816B8
S113202008F442C026E0C21609F481C021C010920F
S11320300D1310920E1310920F131092101310928E
S11320401713109218131092191310921A13109256
S1132050211310922213109223131092241310921E
S11320602B1310922C1310922D1310922E136CC05C
S11320701092D8028091D9028F5F8093D902833065
S113208018F40E94480760C081E00E94C8095CC03F
S11320909FB7F89480919E129FBF813009F054C07D
S11320A08AE146C087E244C09FB7F8948091C60293
S11320B0811127C081E08093C6021092020F9FBF56
S11320C09FB7F89480917A00806880937A009FBFCC
S11320D0CFB7F89480910C02813089F48091C602C4
S11320E0813021F485E20E94110309C0823039F461
S11320F08091020F80930C0283E08093C602CFBFCD
S113210023C08091020F882339F08091DB1180FD78
S113211003C081608093DB119FBF16C08FB7F89412
S113212091E0909308088FBF0E9442030DC089E09C
S11321300E94110309C02FEFC21AD20A199627E090
S1132140C216D10409F026CF82E1DF91CF911F910D
S11321500F91FF90DF90CF90BF90AF909F908F90A2
S11321607F906F905F904F900C941103CF93C09128
S11321709E12813011F48FE11AC00E9462091092FC
S1132180A11282E20E941103C23059F020F4C1303E
S113219089F48AE10CC0C33039F0C63059F48DE1BA
S11321A006C0CF910C943F03CF910C943C03CF9184
S11321B00C941103CF910895811110C08091BB003C
S11321C090919712E091CC0CF091CD0CE90FF11D98
S11321D08083809197128F5F80939712209197123A
S11321E080910908281788F430E090E001972817B7
S11321F0390749F48091351382FD05C080911B1283
S11322008F7B80931B120C94F00280911B12282F59
S11322102E7F9091351391FF0AC09D7F90933513C3
S1132220822F806180931B128091B90003C08E7746
S113223080931B120E94F00281E08093C902809176
S11322400D02811102C00C94B6100895CF93C09171
S11322509E12813011F481E214C00E94620910922E
S1132260A112C33089F038F4C13051F0C23079F48E
S1132270CF910C943F03C63050F410929E1207C0C5
S11322808AE1CF910C941103CF910C943C03CF912C
S113229008958091971290910908891780F4E0912C
S11322A0CC0CF091CD0CE80FF11D80818093BB0024
S11322B0809197128F5F809397120C94F002809113
S11322C01B12282F2E7F9091351391FF06C09D7FFE
S11322D090933513822F806101C08E7780931B12F7
S11322E00E94F00281E08093C90280910D02811165
S11322F002C00C94261108954F925F926F927F92C0
S11323008F929F92AF92BF92CF92DF92EF92FF9201
S11323100F931F93CF93DF93CDB7DEB7CF54D1097B
S11323200FB6F894DEBF0FBECDBF482F50E0483241
S1132330510510F00C948A23FA01EE58FF4F0C94C7
S11323408D298FB7F894109107088FBF812F90E0E3
S1132350C0970A9760F4E091FD07E43040F481E00F
S11323608E0F8093FD07F0E0E350F84F118318308F
S113237059F4E091FD07EE2339F0E150E093FD07B5
S1132380F0E0E350F84F118244E160E087E695E025
S11323900E942B0E44E160E08EEF97E00E945D0EF8
S11323A01A3011F00C948A234AE050E060E070E0A7
S11323B08EEF97E00E94BE2A2FB7F89433E0309353
S11323C008082FBF9B012B5633402E3C310550F09B
S11323D08FB7F89491E09093FA038FBF0E94300373
S11323E00C948A232FB7F89470930408609303081D
S11323F02FBF0E9433030C948A238FB7F894109153
S113240007088FBF183061F4E0917D07EE23D1F007
S1132410E150E0937D07F0E0E358F84F118212C0D9
S11324201A3081F01D3071F0112361F0E0917D07C5
S1132430E83240F481E08E0F80937D07F0E0E358AA
S1132440F84F118385E1EEE7F7E0DE011196019084
S11324500D928A95E1F71E8A44E16AE781E595E0E9
S11324600E942B0E44E16AE7CE0101960E945D0EA4
S113247083E1E3E9F7E0DE01119601900D928A957C
S1132480E1F71C8A4EE16AE781E595E00E942B0E94
S11324904EE16AE7CE0101960E945D0E1A3011F0FA
S11324A00C948A232FB7F89486E0809308088091CF
S11324B00508909106082FBF0E94C8042BE3829F51
S11324C0B0011124DB01A65EBB4F99E2EEE7F7E011
S11324D001900D929A95E1F7685F7B4F0E94810508
S11324E00C948A238FB7F894D0900808E0900508DC
S11324F0F09006088FBFC7010E94C804182FC701B7
S11325006AE070E00E9479299F938F937F936F9381
S11325108CE692E09F938F937E013AE2E30EF11CE6
S1132520FF92EF920E94872C0E943B0F47E060E0ED
S1132530C7010E945D0E47E064E28EE795E00E94C9
S11325402B0E0FB6F894DEBF0FBECDBF1F3008F0C0
S113255070C0E12EF12C1F921F9382E792E09F93AB
S11325608F938E010D5C1F4F1F930F930E94872C36
S11325701EAA47E06CE3C8010E945D0E8BE38E9DAA
S1132580F0018F9DF00D1124E95FFB4F81810F90C5
S11325900F900F900F900F900F908823B1F01F921F
S11325A08F9388E792E09F938F931F930F930E94DA
S11325B0872C1DAA47E064E5C8010E945D0E0F90B8
S11325C00F900F900F900F900F908BE38E9D8001D2
S11325D08F9D100D1124F801E65EFB4F85E1DE01AD
S11325E0119601900D928A95E1F71E8A4FE26AE7EF
S11325F081E595E00E942B0E4FE26AE7CE01019639
S11326000E945D0EF801E15DFB4F83E1DE0111964E
S113261001900D928A95E1F71C8A47E36AE781E508
S113262095E00E942B0E47E36AE7CE0101960E94D3
S11326305D0E4FE060E08DE695E00E942B0E4FE0CA
S113264060E08DEA97E00E945D0E4FE060E087E66F
S113265095E00E942B0E4FE066E387EF97E00E941F
S11326605D0E85E1E6EBF7E0DE01119601900D9237
S11326708A95E1F71E8A47E16AE781E595E00E94C1
S11326802B0E47E16AE7CE0101960E945D0E85E1BB
S1132690EBECF7E0DE01119601900D928A95E1F7DB
S11326A01E8A4FE16AE781E595E00E942B0E4FE117
S11326B06AE7CE0101960E945D0E85E1E0EEF7E047
S11326C0DE01119601900D928A95E1F71E8A47E288
S11326D06AE781E595E00E942B0E47E26AE7CE01A6
S11326E001960E945D0E81E00E94590875E0D712A0
S11326F00C948A2348E853E160E070E086E00E948D
S1132700A4030C948A239FB7F8948091A80710918E
S1132710A9070091AA079FBF882389F04FE060E0D2
S11327208DE695E00E942B0E4FE060E08DEA97E085
S11327300E945D0E8FB7F8941092A8078FBF0023F4
S113274089F04FE060E087E695E00E942B0E4FE0B1
S113275066E387EF97E00E945D0E8FB7F8941092BE
S1132760AA078FBF112311F40C948A2385E1E6EBA9
S1132770F7E0DE01119601900D928A95E1F71E8A29
S113278047E16AE781E595E00E942B0E47E16AE79D
S1132790CE0101960E945D0E85E1EBECF7E0DE01CF
S11327A0119601900D928A95E1F71E8A4FE16AE72E
S11327B081E595E00E942B0E4FE16AE7CE01019678
S11327C00E945D0E85E1E0EEF7E0DE0111960190D6
S11327D00D928A95E1F71E8A47E26AE781E595E062
S11327E00E942B0E47E26AE7CE0101960E945D0E1D
S11327F08FB7F8941092A9078FBF0C948A23809105
S1132800FB039091FC03891711F40C948A232FB7CE
S1132810F89490919E122FBF911116C04FB7F8945F
S113282035E030939E12282F2F708091420A9091A8
S1132830430A807F822B9093430A8093420A309309
S113284096124FBF0E9439038091FB038093FC03CF
S11328500E9450050C948A2380E00E94E00488239F
S113286011F40C948A2385E00E9411030C948A23AA
S113287081E00E94E004882311F40C948A2386E00A
S11328800E9411030C948A2382E00E94E0048823AE
S113289011F40C948A2387E00E9411030C948A2378
S11328A02FB7F89480910308909104082FBF3FB785
S11328B0F89420919E123FBF21110C94E3209C01B7
S11328C02B5633402E3C310510F00C94E3202FB7E7
S11328D0F89432E030939E121092A3129093051351
S11328E0809304132FBF0E943F030C948A238FB755
S11328F0F89400910508109106088FBF80E00E94AB
S11329005908C8010E94C8048F3098F52FB7F8946D
S11329109091A7072FBF992311F19FB7F894ABE3C8
S11329208A9FB0011124FB01E95FFB4F2091AB07A3
S11329303091AC0735832483DB01AF5EBB4FB78393
S1132940A6839FBF98E0EDEAF7E001900D929A9577
S1132950E1F7685F7B4F0E9481050C948A238FB74F
S1132960F89491E0909308088FBF0E9442030C945E
S11329708A23809107048F3050F08FB7F89492E047
S11329809093FA038FBF0E9430030C948A239FB75D
S1132990F8948091A7079FBFE09107049BE39E9F53
S11329A0F0011124E85FFB4F10821283018321E0C0
S11329B030E03483238316821582108617824FB742
S11329C0F89420910704929F90011124F901E95F82
S11329D0FB4FB9016F5E7B4F77836683265E3B4F67
S11329E0318720871286138A4FBF882321F18FB73E
S11329F0F89420910704929F90011124F901E95F52
S1132A00FB4F4091AB075091AC07558344832F5E35
S1132A103B4F378326838FBFA09107049A9FD00131
S1132A201124AF5EBB4F88E0EDEAF7E001900D9210
S1132A308A95E1F70DC080910704989FC001112485
S1132A4048E050E06DE675E08F5E9B4F0E94FE2BE0
S1132A5060910704BBE36B9FB0011124685F7B4F57
S1132A608FEF0E9481059FB7F894809107048F5FD0
S1132A70809307049FBF0C948A238FB7F894109116
S1132A80FA038FBF80E00E9459080E943B0F4AE07E
S1132A9060E08AE495E00E942B0E44E160E01111AD
S1132AA006C086E295E00E942B0E0C948A238BE3E9
S1132AB095E00E942B0E0C948A238FB7F894109102
S1132AC0FA038FBF80E00E9459080E943B0F4AE03E
S1132AD060E08AE495E00E942B0E812F90E0FC01D7
S1132AE03197E930F10508F5E656FF4F44E160E01F
S1132AF00C948D2985E195E01CC082E095E019C015
S1132B0081EF94E016C088EE94E013C08EED94E05B
S1132B1010C08AEC94E00DC087EB94E00AC082EA0E
S1132B2094E007C08FE894E004C044E160E08BE3E4
S1132B3095E00E942B0E4CEB52E060E070E085E0E3
S1132B400E94A4030C948A2389E0EAE2F2E0DE0105
S1132B50119601900D928A95E1F78FB7F894E09160
S1132B6007088FBFEC3609F4AAC020F5E13609F452
S1132B705AC0B0F4EC3209F440C1EE3209F051C14C
S1132B8080E00E9459080E9431058FB7F89494E0C0
S1132B90909308088FBF85E00E9411030C948A2348
S1132BA0E63609F44BC0E93609F03BC10E945807E8
S1132BB00C948A23E03709F430C170F4EE3609F43A
S1132BC0C1C0EF3609F02DC1BE016F5F7F4F8FEF9B
S1132BD00E9481050C948A23E33709F4EBC0E4379F
S1132BE009F01FC180E00E9459080E9431058FB787
S1132BF0F8941092FD0795E0EEEFF7E0DF011D92E7
S1132C009A95E9F792E0909308088FBF0E943B0FD2
S1132C104AE060E08EE895E00E942B0E80E00E947E
S1132C2011030C948A238FB7F89496E090930808C4
S1132C308FBF89E00E9411030C948A238FB7F89404
S1132C4097E0909308088FBF8091FD03893068F561
S1132C502FB7F89480910508909106082FBF0E9421
S1132C60C8048F30C0F4E091FD032EEF33E0D901A6
S1132C709A2F921B9E1710F00C94E6209D919813A6
S1132C80F7CF8FB7F89499E09093FA038FBF0E941F
S1132C9030030C948A238FB7F89498E09093FA0346
S1132CA08FBF0E9430030C948A238FB7F89493E06B
S1132CB09093FA038FBF0E9430030C948A2380916F
S1132CC00704882311F40C948A238FB7F894609135
S1132CD00508709106088FBF30910704E7E0F4E01F
S1132CE04FEF5FEF1FEF20E0231769F0828193819C
S1132CF0861B970B29F08417950710F4AC01122F4B
S1132D002F5FFB96F1CF1F3010F00C948A2380E0E4
S1132D100E9459080E9431058FB7F89493E090936C
S1132D2008082BE3129FF0011124E95FFB4F228175
S1132D30338130930408209303088FBF0E94330328
S1132D400C948A238FB7F89418E0109308088FBF67
S1132D502FB7F89480910508909106082FBF0E9420
S1132D60C8048F30F0F480E00E9459088FB7F894BB
S1132D70109207088FBF10927D0789E2EEE7F7E013
S1132D80DF011D928A95E9F70E943B0F4AE060E05B
S1132D9082E895E00E942B0E81E00E9411030C94BE
S1132DA08A238FB7F8941093FA038FBF0E943003DD
S1132DB00C948A2380E00E9459080E9431050E94E5
S1132DC0AE061092FD0349E050E06FEF70E08EEF25
S1132DD093E00E944E2C8FB7F8941092070495E06C
S1132DE0909308082BE633E03093040820930308FB
S1132DF08FBF0E9433030C948A2380E00E945908F9
S1132E000E9431058FB7F89494E0909308088FBF1F
S1132E1086E00E9411030C948A230E94AE060C944F
S1132E208A238FEC8E0F893010F00C948A23E053A0
S1132E30F0E0E350FC4F10811F30D8F480E00E9492
S1132E4059080E9431058FB7F89493E090930808CD
S1132E50BBE31B9FF0011124E95FFB4F2281338107
S1132E6030930408209303088FBF0E9433030C940B
S1132E708A238FB7F89497E09093FA038FBF0E9448
S1132E8030030C948A234091F3025091F402809110
S1132E90C60F81112BC087EC9FE0892B39F185EF98
S1132EA092E09093D00F8093CF0F80EC8093C70F64
S1132EB088EA8093C80F8AE28093C90F81E08093E7
S1132EC0CA0F20E533EC3093CC0F2093CB0F309313
S1132ED0CE0F2093CD0F5093D20F4093D10F8093F8
S1132EE0C60F89E10E9411030C948A230E943603C1
S1132EF00C948A239FB7F8948091F9039FBF833081
S1132F0009F443C0843009F4A6C0823009F0BBC17F
S1132F10CE018A960E941A07882309F4B4C142E0BC
S1132F2050E06CE874E087E793E00E940E2C2AA539
S1132F303BA5892BA1F4AE014F5F5F4F6CE772E0B4
S1132F40C9010E94602C4AE050E060E070E0898191
S1132F509A810E94BE2A6F3048F480E008C06FE670
S1132F6074E0C9010E942B2C009721F482E00E9496
S1132F70700889C14FE050E06BE574E004960E944C
S1132F800E2C892B99F781E0F2CF809179038A3056
S1132F9049F589E0FE013196DE01AB5BBF4F01903C
S1132FA00D928A95E1F72696EFAC26972796FFAC0B
S1132FB0279728960FAD289729961FAD29972A960B
S1132FC02FAD2A972B963FAD2B972C964FAD2C9770
S1132FD02D965FAD2D972E966FAD2E978FEF0E9495
S1132FE0800E51C1CE018A960E941A07882309F4E3
S1132FF04AC11092E2021092E302AE014F5F5F4FAA
S11330006EE772E08AA59BA50E94602C0097D1F020
S11330104AE050E060E070E00E9493296F3050F481
S1133020E091E20281E08E0F8093E202F0E0EE5143
S1133030FD4F6283AE014F5F5F4F6EE772E080E049
S113304090E0E2CF8091E202882309F41CC181E080
S11330508093F80315C1CE01825B9F4F0E941A072B
S1133060882309F409C1AE01465D5F4F6CE772E045
S113307060968EAD9FAD60970E94602C6C010097A6
S113308009F4E5C0B8E0FB2E0AA51BA542E050E018
S113309068E574E0C6010E940E2C892B61F44AE0B5
S11330A050E060E070E0C8010E94BE2A6F3008F072
S11330B0CEC0B62E80C044E050E063E574E0C601A3
S11330C00E940E2C892B89F44AE050E060E070E005
S11330D0C8010E94BE2A9B012B5633402E3C310569
S11330E008F0B5C0962E772E66C046E050E06CE43A
S11330F074E0C6010E940E2C892B51F44AE050E082
S113310060E070E0C8010E94BE2AA62E872E53C03C
S113311045E050E066E474E0C6010E940E2C892B61
S113312061F44AE050E060E070E0C8010E94BE2A09
S11331306A3008F08CC0E62E3EC044E050E061E402
S113314074E0C6010E940E2C892BD1F4F801DE0133
S1133150AB5BBF4F8F2D01900D928A95E1F72E96B0
S11331601FAE2E97C80108969BA78AA7F8018085F1
S11331708C3209F06CC0075F1F4F1BA70AA727C03A
S113318044E050E06CE374E0C6010E940E2C892BED
S113319091F428E2F801CE010196DC0101900D9230
S11331A02A95E1F7FE01EB5BFF4F10A62091F70390
S11331B021111BC02FC06CE270E08AA59BA50E9460
S11331C0552C009709F443C001969BA78AA7AE012A
S11331D0465D5F4F6CE772E080E090E00E94602CF7
S11331E06C01009709F050CF32C0EE2009F444C0BE
S11331F0EBAAF92C9CAA7DAA1A2DAEAA8FAA3E2F5F
S1133200F9AFE8AF582F9BAF8AAF072D282D49ADF2
S11332106BAD1BC0ECAEF92C9DAE7EAE1A2DAFAEDD
S113322021968FAE21973E2F2396FFAFEEAF2397C3
S1133230582F25969FAF8EAF2597072D282D2396BF
S11332404FAD239725966FAD25978B2D13C089E03D
S1133250FE01F396DE019A9601900D928A95E1F7AC
S1133260EAA4FBA40CA51DA52EA53FA548A959A910
S11332706AA98EEF0E94800E8091F803882319F0CA
S11332808FE00E9411038FB7F8941092F9038FBF57
S11332900C948A234091E302242F30E08091E202CF
S11332A090E0821B930B181619060CF054C04F5F64
S11332B04093E302F901EE51FD4FB2809FB7F894B9
S11332C08091F9039FBF81110C948A238FB7F894DE
S11332D094E09093F9038FBF44E050E06BE674E010
S11332E09E012F5F3F4F7901C9010E941C2C6E0182
S11332F03AE2C30ED11C43E050E068E574E0C60135
S11333000E941C2C05EF12E080E8D8011D928A95DA
S1133310E9F71F92BF92DF92CF92FF92EF9280E87B
S113332092E09F938F931F930F930E94872CF80131
S113333001900020E9F78F01065F12401093F40218
S11333400093F3020E9436030FB6F894DEBF0FBE5B
S1133350CDBF0C948A231092F8031092E2021092CB
S1133360E3028FB7F8941092F9038FBF89E0FE014E
S1133370BA96DE01119601900D928A95E1F7E980E3
S1133380FA800B811C812D813E814F81588569858E
S11333908FEF0E94800E0C948A238091DC028111AD
S11333A00C948A238091DD028F5F81708093DD020B
S11333B0EDE0E89FD0011124AE57B34F9C919130BA
S11333C009F41DC78F5F81708093DD02E89FF001CF
S11333D01124EE57F34F8081813011F00C948A232D
S11333E00EC78091CB0C811141C04091981250912D
S11333F0991260919A1270919B122FB7F894C09011
S11334001F12D0902012E0902112F090221280918D
S1133410C50C9091C60CA091C70CB091C80C8C0D32
S11334209D1DAE1DBF1D2FBF40939812509399123E
S113343060939A1270939B121092CB0C2FB7F8944E
S113344031E030930A088093C50C9093C60CA09386
S1133450C70CB093C80C40931F1250932012609372
S11334602112709322122FBF0E9499040E94980384
S11334700E94B60F0C948A230E9498032FB7F894E5
S113348010920A082FBFECEDF1E110E044244A94B5
S1133490542C642CAFE77A2E20E030E009E0029F40
S11334A0A001039F500D1124DA01A452BE4E1896B8
S11334B04C9141FF1AC0C080D180E280F3804B015F
S11334C05C018C189D08AE08BF08C480D580E680D6
S11334D0F780C818D908EA08FB08C414D504E60420
S11334E0F7041CF42601370111E02F5F3F4F399692
S11334F027303105A1F6112311F40C948A231414F6
S113350015041604170424F00E94B60F0C948A23A1
S1133510409298125092991260929A1270929B1251
S113352021E02093CB0C3FB7F89420930A086093D2
S1133530C50C7093C60C8093C70C9093C80C409232
S11335401F125092201260922112709222123FBFD9
S11335500E9499040C948A238091D60281110C94C0
S11335608A238091D70290E00196817099278093F5
S1133570D7022DE1289FF001299FF00D1124E55A6F
S1133580FD4E3081313009F492C60196817099273D
S11335908093D702289FF001299FF00D1124E55A4A
S11335A0FD4E8081813011F00C948A2380C6809175
S11335B0D40281110C948A23E091D502EF5FE1706B
S11335C0E093D502AE2FB0E053E0AA0FBB1F5A958B
S11335D0E1F7A251B14F8C91813009F4AAC6EF5F93
S11335E0E170E093D502F0E043E0EE0FFF1F4A954F
S11335F0E1F7E251F14F8081813011F00C948A237C
S113360098C68091D20281110C948A238091D302AE
S11336108F5F81708093D302EBE0E89FD001112487
S1133620AD5DBD4E9C91913009F496C78F5F81705A
S11336308093D302E89FF0011124ED5DFD4E80815B
S1133640813011F00C948A2387C781E08093CE02E5
S11336500E94C4080C948A238FB7F89410920C0823
S113366010920B081092CA0C1092C90C10920213FB
S1133670109201131092070F1092060F8FBF0C9433
S11336808A230E94540A0C948A238091CB028111CC
S11336900C948A231092CC02F090C60F31E0F312FE
S11336A00C948A230C942C239FB7F8948091A21233
S11336B09FBF811110C05A9A48EE53E060E070E059
S11336C082E00E94A4038FB7F89491E09093A21231
S11336D08FBF0C948A23813051F48FB7F89492E011
S11336E09093A2128FBF0E9445030C948A238230C8
S11336F0D1F42FB7F8948091460A9091470A9068C4
S11337009093470A8093460A1092570A1092560AD9
S11337108FE08093961283E08093A2122FBF0E94C1
S113372039030C948A23833079F48FB7F89494E0A6
S11337309093A2128FBF4EEE52E060E070E082E000
S11337400E94A4030C948A23843099F48FB7F894CC
S113375021E030E430933D0A20933C0A92E09093B8
S1133760961295E09093A2128FBF0E9439030C9495
S11337708A23853079F48FB7F89496E09093A21257
S11337808FBF46E950E060E070E082E00E94A4034D
S11337900C948A23863049F48FB7F89497E0909379
S11337A0A2128FBF0E944503B5C7873009F041C0FC
S11337B02FB7F89480913A0A90913B0A2FBF833532
S11337C0924171F08FB7F89410929E128FBF8FB709
S11337D0F8941092FA038FBF8AE00E9411039AC7EB
S11337E02FB7F8948091400A9091410A837397729D
S11337F0846098649093410A8093400A80E199E13F
S11338009093430A8093420A8091440A9091450A16
S113381088279E7F8F649093450A8093440A86E0AC
S11338208093961288E08093A2122FBF0E943903DE
S113383071C7883009F06EC78FB7F89410929E1242
S11338408FBF80E00E9459080E9498036093001281
S113385070930112809302129093031284E690E015
S1133860A0E0B0E08093041290930512A093061296
S1133870B0930712809108128E7F826080930812A1
S113388082E10E9411030E94580744C79FB7F8942D
S11338908091A3129FBF811122C02FB7F894809109
S11338A00413909105138B569340937090689093F2
S11338B03F0A80933E0A8091400A9091410A9F7684
S11338C090649093410A8093400A84E08093961216
S11338D081E08093A3122FBF0E9439031BC781305C
S11338E051F48FB7F89492E09093A3128FBF88E0BD
S11338F08CBBEB9A0FC7823049F48FB7F89493E0EE
S11339009093A3128FBF0E94450304C7833041F5EF
S11339102FB7F89480914E0A90914F0A937085596D
S11339209C4F90930C1380930B1380913E0A9091BB
S11339303F0A9F7790933F0A80933E0A8091400A02
S11339409091410A9F7B9093410A8093400A84E0BE
S1133950809396128093A3122FBF0E943903DAC674
S1133960843049F48FB7F89495E09093A3128FBFF5
S11339700E944503CFC6853009F0CCC62FB7F89412
S113398080914C0A90914D0A88279074892F992729
S11339902FBF892BB9F520910B1330910C139FB7CE
S11339A0F8943093060820930508809108089FBF77
S11339B0833031F0853021F487E00E94110308C080
S11339C08FB7F89491E0909308088FBF0E94420348
S11339D08FB7F8949FE09093AF128FBF8091A61297
S11339E0882351F08FB7F89494E090939E128FBF80
S11339F081E00E9413088EC68FB7F89410929E122D
S1133A008FBF88C68FB7F89494E09093A3128FBFAA
S1133A100E943F037FC69FB7F8942091050F8091C1
S1133A20A4129FBF811140C0223069F42FB7F894CB
S1133A3080913C0A90913D0A956090933D0A809351
S1133A403C0A2FBF0FC03FB7F89480913C0A909175
S1133A503D0A9A7F916090933D0A80933C0A3FBF50
S1133A60211150C62FB7F89480913C0A90913D0AD9
S1133A70926090933D0A80933C0A2FBF2FB7F8942D
S1133A808091400A9091410A9F7690649093410AF4
S1133A908093400A84E08093961281E08093A4127C
S1133AA02FBF0E94390336C6813051F48FB7F89482
S1133AB092E09093A4128FBF88E08CBBEB9A2AC645
S1133AC0823049F48FB7F89493E09093A4128FBF97
S1133AD00E9445031FC6833081F52FB7F894809167
S1133AE04C0A90914D0A882790729093DF0280913E
S1133AF04E0A90914F0A937085599C4F90930C13E2
S1133B0080930B1380913C0A90913D0A9E7F909381
S1133B103D0A80933C0A8091400A9091410A9F7B20
S1133B209093410A8093400A84E080939612809394
S1133B30A4122FBF0E943903EDC5843049F48FB716
S1133B40F89495E09093A4128FBF0E944503E2C5B8
S1133B50853009F0DFC52FB7F89480914C0A909115
S1133B604D0A88279074892F99272FBF892B09F034
S1133B703CC08091DF02811120C080910B13909191
S1133B800C130E946C038FB7F8949FE09093AF12CC
S1133B908FBF8091A612882351F08FB7F89494E0D8
S1133BA090939E128FBF81E00E941308B3C58FB714
S1133BB0F89410929E128FBFADC58FEF9FEF0E94B5
S1133BC06C038091A612882351F08FB7F89494E087
S1133BD090939E128FBF81E00E9413089BC58FB7FC
S1133BE0F89410929E128FBF95C58FB7F89494E005
S1133BF09093A4128FBF0E943C038CC59FB7F89486
S1133C008091A5129FBF811109C08FB7F89491E0EC
S1133C109093A5128FBF0E9445037CC5813009F0A3
S1133C2079C54FB7F8947091500AE091510A809188
S1133C30520AF091530A9091540A6091550A2091C6
S1133C40560A3091570A4FBF4F2F469546954695D1
S1133C5050E04430510509F43FC024F4423051058A
S1133C6050F0C5C04530510509F463C048305105D2
S1133C7009F487C0BCC04FB7F894E093B8127093AE
S1133C80B9128370E82FF0E0EE0FFF1FE455FD4EEC
S1133C903483258321E030E0D90102C0AA0FBB1F81
S1133CA08A95E2F7CD019091AC12892B8093AC12E6
S1133CB04FBF8F3009F09BC060EB72E180E00E943F
S1133CC0590F48E050E060E270E080EB92E10E941E
S1133CD04E2C1092AC128BC08F70FFB6F894B4E0E7
S1133CE08B9FA00111248A0104551D4EF80166879B
S1133CF0BA0163557D4EDB011E969C93DA01A255F1
S1133D00BD4E1E963C931E9741555D4EFA01268783
S1133D10FFBEF80196859D3021F1FB0196859D300B
S1133D2001F11E969C919D30E1F0DA011E969C9162
S1133D3016C08F709FB7F894E82FF0E0EE0FFF1FC6
S1133D40DF01A455BD4E1E963C931E97E355FD4ED0
S1133D5026879FBF1E969C919D3019F096859D30B5
S1133D6011F48093AF129FB7F8948091AD128F5FD6
S1133D708093AD129FBF6AEB72E181E00E94590FFC
S1133D8036C0892F82958071932F92959F70892BCD
S1133D90A901E6E056954795EA95E1F74F73922F0E
S1133DA09F71969525FF02C0891B01C0890F1FB71B
S1133DB0F894EAEFF2E196E0DF011D929A95E9F7B3
S1133DC01F924F931F928F938AE892E09F938F9351
S1133DD0FF93EF930E94872C1FBF6AEF72E182E08A
S1133DE00E94590F0FB6F894DEBF0FBECDBF80916D
S1133DF0A61281110CC08FB7F89494E090939E1290
S1133E001092A5128FBF80E00E94130883C48FB75D
S1133E10F89410929E121092A5128FBF7BC49FB784
S1133E20F8948091A1129FBF882319F00E94450342
S1133E3071C48FB7F89491E09093A1128FBF0E9440
S1133E40AB0768C48FB7F89490910D02911135C0F7
S1133E508FBF8FB7F8949091C902913071F522E029
S1133E602093C9028FBF8FB7F89420E130E03093DC
S1133E70040F2093030F2BE332E13093CD0C2093F6
S1133E80CC0C20E22093090823E0209335131092F0
S1133E9097129093C8028FBF0E9464031FB7F894CF
S1133EA080911B128F7A816A80931B1284E0809325
S1133EB0C9020E94F0021FBF2DC48FBF8FE10E9470
S1133EC0110328C49FB7F8948091A1129FBF88233F
S1133ED019F00E9439031EC49FB7F89482E08093BE
S1133EE0A11280919612880F82509FBF20E092E029
S1133EF02817B0F43FB7F894422F50E0E92FF0E0D0
S1133F00EE0FFF1FE85CF54F60817181FA01E55CFB
S1133F10FD4E708361833FBF9F5F9F702E5FE8CF2C
S1133F200E94AB07F7C39FB7F894809196129FBF86
S1133F309FB7F89420910D02211136C09FBF9FB7FF
S1133F40F8942091C902213079F522E02093C90226
S1133F509FBF9FB7F89420E130E03093040F209383
S1133F60030F2BE332E13093CD0C2093CC0C880F5C
S1133F7082508093090883E080933513109297123E
S1133F801092C8029FBF0E9464031FB7F8948091E7
S1133F901B128F7E816E80931B1284E08093C90272
S1133FA00E94F0021FBFB6C39FBF81E20E941103AB
S1133FB0B1C340E050E02AE0DA01A55CBD4EE22F37
S1133FC0F0E0EE0FFF1FE85CF54F8C9190E0982F26
S1133FD0882711963C91832B918380832F5F2F70C8
S1133FE04E5F5F4F4032510539F794C38FB7F89451
S1133FF09091951290930E0293E09093CA028FBF12
S113400080910E029FB7F89480930D029FBF811197
S113401081C39FB7F8948091A1129FBF813031F082
S1134020823041F481E20E94110374C38FE10E9443
S1134030110370C30E9462096DC31FB7F894809185
S1134040C802882321F081E00E94DC1002C00E9493
S113405049111FBF5FC38FB7F8949091020F9093DB
S11340600C0293E09093C6028FBF80910C028111E1
S113407001C0809880910C0281114CC381E080932F
S1134080A50F109200130E94160944C31092A50FA5
S113409000911D1210911E128091001381113AC3D8
S11340A0FFB6F8948091C602833009F03EC0809137
S11340B00C0281113AC08091DB11882309F417C3E3
S11340C06091C70270E0CB010196A1E0B0E08130BD
S11340D0910511F480E090E0E82FE695E695E695E9
S11340E0F0E0E552FE4E2081382F3770AD0101C05B
S11340F0440F3A95EAF7322F342331F040952423C4
S113410020838093C70206C08617970711F0019693
S1134110DECF8FEF8093020F8FEF80930C0281E04C
S11341208093C60285E20E941103FFBE96E01695B5
S113413007959A95E1F70093FB0384E00E9411032D
S1134140E9C28091080F8130E1F460E080E80E94C8
S1134150B60888E290E00E94030700E010E0F8014E
S1134160EA55F04F61E080810E94B60888E290E051
S11341700E9403070F5F1F4F0031110581F7109252
S1134180080F8091090F813009F0C4C260E080EC0F
S11341900E94B60888E290E00E94030700E010E065
S11341A0F801EA54F04F61E080810E94B60888E289
S11341B090E00E9403070F5F1F4F0031110581F744
S11341C01092090FA7C20E943303A4C2F0E0E35087
S11341D0FC4F81832FB7F8949091FD039F5F9093D8
S11341E0FD03FBE38F9FB0011124FB01E95FFB4F4B
S11341F091832FBF685F7B4F0E9481058BC2E09142
S1134200DD022DE0E29FC0011124FC01ED57F34FC4
S113421026E0A8E5BAE001900D922A95E1F726E0A0
S1134220E6E1F2E0AEE5BAE001900D922A95E1F7FD
S1134230FC01EE57F34F978180859093650A809334
S1134240640A0385148561857285A80186E69AE06F
S11342500E94452C8091D00281111AC08091D10214
S11342608230B1F40E94C408811114C088E59AE038
S113427090933A1280933912025F1F4F1093CF0C20
S11342800093CE0C81E08093D0028093DC0242C282
S113429065E001C067E08091DD023DE0839FF001AD
S11342A01124EE57F34F10820E94F20933C2809119
S11342B0D702282F30E06DE1869FF0011124AF0171
S11342C0445A5D4E90918F0C911126C060E97CE0B8
S11342D06115710509F1E259FD4E86E0DB0101909B
S11342E00D928A95E1F786E098E09093970C80937D
S11342F0960C5093990C4093980C8CE190E0909319
S11343009B0C80939A0C11E010938F0C80E10E9417
S113431011031093D602FEC19DE1929FF001939F79
S1134320F00D1124E55AFD4E108265E00E94DF096C
S1134330F1C1F090D50285E48093D20C1092D30C95
S113434086E68093D70C8093D60C1092D90C1092E9
S1134350D80C8FEF8093DA0C78E0F79E800111245B
S1134360C8018251914F6C01DC0116964D915C910C
S11343701797CA0144968093D50C9093D40C119648
S1134380ED91FC91129780819181A281B3818093F8
S1134390E20C9093E30CA093E40CB093E50C8091B1
S11343A0240290912502A0912602B09127028093C5
S11343B0DE0C9093DF0CA093E00CB093E10CF601BB
S11343C06481758186EE9CE00E94452CD60113968B
S11343D08C918093DB0C1092DD0C1092DC0CE2EDDE
S11343E0FCE080E090E0DC0121913191820F931F89
S11343F0A11DB11D2CE0E63EF207B1F7AD01662721
S11344007727411551056105710539F0AA27BB27A6
S1134410840F951FA61FB71FF1CF80959095A09587
S1134420B0959093DD0C8093DC0C80911C029091EC
S11344301D02A0911E02B0911F028090E20C909088
S1134440E30CA090E40CB090E50C4091DE0C50918C
S1134450DF0C6091E00C7091E10C482559256A2528
S11344607B25482359236A237B23452B462B472B43
S113447019F4E2EEFCE002C0E0E2F2E08080918018
S1134480A280B38080959095A095B095AC01BD01B4
S1134490482159216A217B21481759076A077B075C
S11344A019F480E092E02DC05091DB0244E06AE010
S11344B0252F30E0629FC001639F900D1124DC0121
S11344C0A35FBC4E4D905D906D907C904814590450
S11344D06A047B0429F45093DB028F5E9C4E0BC06C
S11344E0C901019683709927582F415009F7809389
S11344F0DB0280E090E09093E1028093E002009779
S113450019F00E94210A14C08091D802811114C0AC
S113451080819181A281B3818093061390930713C4
S1134520A0930813B09309131092D9020E9448076C
S113453081E08093D402EEC0F801E251F14F108281
S1134540F11003C00E940C07E5C0B1E0FB12E2C009
S113455085E00E94B509DEC0E091D302EE2EF12C75
S11345602BE0E29FF0011124ED5DFD4E4185528563
S11345708A010C5F1F4F858180930B0F8681809386
S11345800C0F678170858FE09FE00E94452C10928C
S11345900E0F10920D0FA80156954795EBE0FFE022
S11345A020E030E080E090E0DC012417350749F09A
S11345B061917191860F971FA11DB11D2F5F3F4F10
S11345C0F4CFAD01662777274115510561057105C3
S11345D039F0AA27BB27840F951FA61FB71FF1CF59
S11345E080959095A095B09590930E0F80930D0FA4
S11345F08091EE0E811126C08FEE9EE0892B11F181
S11346002BE02E9DC0012F9D900D11248C5D9D4E9D
S11346109093F00E8093EF0EFF24F394F092F10E3A
S11346208BE09FE09093F30E8093F20E1093F50EBF
S11346300093F40EF092EE0E84E10E941103F092C6
S1134640D20268C08BE08E9DF0018F9DF00D112485
S1134650ED5DFD4E10825EC09091CB0F8091CC0F2A
S11346609093D40F8093D30F9091CD0F8091CE0F60
S11346709093D60F8093D50F4091D10F5091D20FC4
S11346808A01085F1F4F0093D80F1093D70F6091D2
S1134690CF0F7091D00F8BED9FE00E94452C80913D
S11346A0F60E81111FC087EF9EE0892BD9F087ECAD
S11346B09FE09093F80E8093F70E81E18093F90EBA
S11346C083ED9FE09093FB0E8093FA0E1093FD0E02
S11346D00093FC0EF092F60E84E10E941103F09216
S11346E0CB0218C01092C60F0E94360313C081E09B
S11346F080930C021092C60280917A008F77809387
S11347007A0013CD2FB7F89480913C0A90913D0A1A
S11347109D7FAFC9C15BDF4F0FB6F894DEBF0FBEFC
S1134720CDBFDF91CF911F910F91FF90EF90DF905C
S1134730CF90BF90AF909F908F907F906F905F903D
S11347404F900895CF93DF931F92CDB7DEB789833F
S11347500E94640390911B129A7F90931B120E94F3
S1134760F0020E94640390911B12946090931B12B8
S11347700E94F00291E09093C9022091C8029091A6
S11347800D028981222339F091110CC00F90DF9121
S1134790CF910C94B610911105C00F90DF91CF9179
S11347A00C9426110F90DF91CF9108958FB7F89450
S11347B008958FBF08951F920F920FB60F92112480
S11347C00BB60F922F933F934F935F936F937F9307
S11347D08F939F93AF93BF93EF93FF932FB7F89467
S11347E08091FE0E9091FF0EA091000FB091010FE9
S11347F00196A11DB11D8093FE0E9093FF0EA09310
S1134800000FB093010F2FBF78940E949904FF9179
S1134810EF91BF91AF919F918F917F916F915F9134
S11348204F913F912F910F900BBE0F900FBE0F90A1
S11348301F9018951F920F920FB60F9211240F908C
S11348400FBE0F901F9018951F920F920FB60F92E4
S113485011240BB60F92CF92DF92EF92FF920F9337
S11348601F932F933F934F935F936F937F938F93F4
S11348709F93AF93BF93CF93DF93EF93FF932EB5A3
S1134880E0910B08F0910C08309739F08091060FF5
S11348909091070FE80FF91F20838091060F9091E4
S11348A0070F01969093070F8093060F8CB58F77AF
S11348B08CBDC091060FD091070F20910113309148
S11348C00213C217D307D8F50091C90C1091CA0C72
S11348D0C0900B08D0900C08CE010A96281739070F
S11348E008F4C9017C0121E0E21AF108CE15DF05C4
S11348F0A0F40115110529F0F801EC0FFD1F8081CA
S113490001C080E00E94CE03C114D10421F0F6015D
S1134910EC0FFD1F80832196E9CF8CB580688CBD98
S11349200115110531F0F801EC0FFD1F80818EBDDA
S113493001C01EBCD093070FC093060F11C0109284
S11349400C0810920B081092CA0C1092C90C109209
S11349500213109201131092070F1092060F8EB5D6
S1134960FF91EF91DF91CF91BF91AF919F918F9183
S11349707F916F915F914F913F912F911F910F9173
S1134980FF90EF90DF90CF900F900BBE0F900FBE73
S11349900F901F9018951F920F920FB60F9211242B
S11349A00F900FBE0F901F9018951F920F920FB685
S11349B00F9211240F900FBE0F901F9018951F9205
S11349C00F920FB60F9211240BB60F922F933F93B1
S11349D04F935F936F937F938F939F93AF93BF9303
S11349E0EF93FF9386E10E941103FF91EF91BF9132
S11349F0AF919F918F917F916F915F914F913F9173
S1134A002F910F900BBE0F900FBE0F901F90189513
S1134A101F920F920FB60F9211240BB60F922F9381
S1134A203F934F935F936F937F938F939F93AF9332
S1134A30BF93EF93FF9380919E12823029F08330CD
S1134A4041F0811116C00AC00E940F030E943F0367
S1134A5012C00E940F030E943C030DC08091A61255
S1134A60882349F086E080939E128DE10E94110311
S1134A7002C00E940F03FF91EF91BF91AF919F91EC
S1134A808F917F916F915F914F913F912F910F90F3
S1134A900BBE0F900FBE0F901F9018951F920F9290
S1134AA00FB60F9211240F900FBE0F901F90189500
S1134AB01F920F920FB60F9211240F900FBE0F90FA
S1134AC01F9018951F920F920FB60F9211240F90FA
S1134AD00FBE0F901F9018951F920F920FB60F9252
S1134AE011240F900FBE0F901F9018951F920F92D4
S1134AF00FB60F9211240BB60F922F933F934F933F
S1134B005F936F937F938F939F93AF93BF93EF9331
S1134B10FF930E9464038091B900982F987F20919D
S1134B20C902243079F1263021F0233009F04DC038
S1134B3013C08091C802813049F4903429F483E091
S1134B408093C90281E010C084E016C09831E1F777
S1134B5083E08093C90213C02091C802213039F444
S1134B60807F803541F480E00E94DC102EC09832B2
S1134B7031F0903321F081E00E94A22326C00E94EC
S1134B80491123C0809135138E7F80933513809112
S1134B901B128F7D983029F0903119F080931B12ED
S1134BA0EACF806480931B1291E08091C802813027
S1134BB009F090E08091030F880F892B8093BB004C
S1134BC086E08093C9020E94F002FF91EF91BF91A9
S1134BD0AF919F918F917F916F915F914F913F9191
S1134BE02F910F900BBE0F900FBE0F901F90189532
S1134BF01F920F920FB60F9211240BB60F922F93A0
S1134C003F934F935F936F937F938F939F93AF9350
S1134C10BF93EF93FF93909106018091D10C97FD80
S1134C2011C08350883008F07BC08091DE028695E5
S1134C308093DE029091060196FF72C08068809393
S1134C40DE026EC081508093D10C811169C09091B5
S1134C50DE02903E09F461C08091AA12811155C010
S1134C60993549F0903F19F0923149F404C081E03C
S1134C708093AA1252C081E08093C40C4EC08091EC
S1134C80C40C60E081111FC081E4262F30E0280F9E
S1134C90311D35952795A901440F551FFA01EC5292
S1134CA0FE4FE491E91718F461E0620F09C09E1702
S1134CB018F48FEF820F04C0FA01EB52FE4F1EC0AE
S1134CC0861718F72AC081E4262F30E0280F311DFB
S1134CD035952795A901440F551FFA01E45BFE4F52
S1134CE0E491E91718F461E0620F0CC09E1718F400
S1134CF08FEF820F07C0FA01E35BFE4F84910E949D
S1134D001F050BC0861700F708C01092AA12923133
S1134D1011F0993511F41092C40C8BE08093D10CEE
S1134D20FF91EF91BF91AF919F918F917F916F917F
S1134D305F914F913F912F910F900BBE0F900FBE3B
S1134D400F901F9018951F920F920FB60F92112477
S1134D500BB60F922F933F934F935F936F937F9371
S1134D608F939F93AF93BF93CF93EF93FF93209130
S1134D7078003091790078944FB7F89480910313B8
S1134D8081FB992790F981704FBF811122C08091D6
S1134D907A00877F80937A008091A50F813019F083
S1134DA0823091F036C0911107C08DE790E00E94E7
S1134DB003070E9416092DC030931E1220931D1262
S1134DC086E20E94110325C0992379F31092A50F5E
S1134DD020C0CFB7F8940E944803CFBF2FB7F894F0
S1134DE080917A0086FB992790F9877F806190FBF8
S1134DF086F98F7780937A00877F80618F7B8F77A6
S1134E0080937A00877F80618F7B806880937A00AB
S1134E102FBFFF91EF91CF91BF91AF919F918F9150
S1134E207F916F915F914F913F912F910F900BBEA6
S1134E300F900FBE0F901F901895CF93DF93CDB7AF
S1134E40DEB76B970FB6F894DEBF0FBECDBF0FB7BA
S1134E50F89448E250E06FEF70E08CE99CE00E9427
S1134E604E2C8FEF8093A71280930A1388EE91E063
S1134E709093A9128093A812089A099A0A9A1098F2
S1134E801198129880E0877F8F7E8F7D8F7B8F773C
S1134E9080937A0081E083BF0E94FD028F3F19F066
S1134EA00E947C11F9CF87B18C6F87B918E288EE24
S1134EB093E00E9403071150D1F760E088E20E945A
S1134EC0B60888E290E00E94030760E088E20E944E
S1134ED0B60888E290E00E94030760E08CE00E943C
S1134EE0B60888E290E00E94030760E081E00E9437
S1134EF0B60888EE93E00E94030788EE93E00E94D0
S1134F00030760E086E00E94B60888E290E00E9411
S1134F10030740E250E060E270E086EA9FE00E940E
S1134F204E2C81E08093080F8093090F1092AB12EE
S1134F3010921C121092DB111FEF10930A0F1093A2
S1134F40D00C729A739A7498759A0E94FB02779A9D
S1134F506A9A6B9A6C9A6D9A6E9A6F9A82B112B829
S1134F6081B111B96FE380E00E947E0D6FE381E0AF
S1134F700E947E0D60EC80E00E947E0D60EC81E07A
S1134F800E947E0D8091B60080728093B60080915D
S1134F90B60081FDFCCF82E08093B0008091B60022
S1134FA080FDFCCF85E08093B1008CE78093B30053
S1134FB0809170008260809370000E9498036093D7
S1134FC0E5117093E6118093E7119093E81180E363
S1134FD095E7A0E0B0E08093E9119093EA11A093E3
S1134FE0EB11B093EC118091ED118E7F8260809370
S1134FF0ED1182E10E94110380912802909129020F
S113500090932602809327020E94FD028F3F19F09D
S11350100E947C11F9CF0FBF78948FB7F894109247
S11350200808109207048FBF1092FD0349E050E076
S11350306FEF70E08EEF93E00E944E2C1092FC0311
S11350401092FB0366E775E0CE0142960E94072C9E
S1135050198E1092AB1210921C12CE0142960E942D
S1135060F7040E9450050E943B0F9FB7F89480916B
S113507007018F77809307019FBF9FB7F8948091B2
S113508007018F7B809307019FBF80916D0080682B
S113509080936D008FB7F8949BE09093D10C10929D
S11350A0C40C1092AA128FBF809168008460809310
S11350B068009FB7F89480919E129FBF811135C0FC
S11350C09FB7F89481E080939E1210929F121092E1
S11350D0A0121092A1121092A2121092A61280E2B3
S11350E0E8E3FAE0DF01282F1D922A95E9F7EBE3C4
S11350F0F2E1DF011D928A95E9F79FBF529A5A980F
S1135100519A599853985B9880916900806880936C
S11351106900809169008F7B8093690041E050E0D1
S113512060E070E082E00E94A4038FB7F89451E03D
S11351305093F9038FBF80EC8093240298EA9093F4
S113514025022AE22093260242E0409327023FEF01
S113515030931C0230931D0230931E0210921F02E2
S113516080932002909321022093220250932302E1
S11351701F924F931F922F931F929F931F928F936F
S113518081EB92E09F938F938E010F5F1F4F1F93CC
S11351900F930E94872C4CE360E0C8010E945D0ECF
S11351A01092F8030FB6F894DEBF0FBECDBF809106
S11351B0D102811136C0209A0E94F502249A2C98BB
S11351C01B8E1A8E8A8D9B8D80329E4430F48A8D7C
S11351D09B8D01969B8F8A8FF5CF2C9A1B8E1A8EEE
S11351E08A8D9B8D80329E4430F48A8D9B8D0196EE
S11351F09B8F8A8FF5CF52985A9A84E08CBB80910A
S11352006900806280936900809169008F7E809339
S11352106900EA9A0E94C408811103C081E0809366
S1135220D1028FB7F8941092F9038FBF1FB7F89487
S11352300E94FD028F3F09F058C080917000837076
S113524089F08091B6008A71E1F78091B300909162
S1135250B200891B883040F08091B200893F20F46D
S113526083E003C085E001C082E0E0916E00E67057
S113527029F590916F009E7221F5E0917100EE7214
S1135280E9F4909172009E72E1F4E0917300EE7281
S1135290A9F40CB407FC15C09091C100987189F46D
S11352A0E091C900E87151F49091BC0092FD09C0ED
S11352B090917A0097FD04C0E5E003C0E0E001C0EE
S11352C0E1E093B78E1708F4E82FF0E0EA5BFE4FB5
S11352D08491E92FE07FE160E82BE3BF789488951F
S11352E0F89483B78E7F83BFA3CF1FBF0E947C1126
S11352F09DCFAA1BBB1B51E107C0AA1FBB1FA6174A
S1135300B70710F0A61BB70B881F991F5A95A9F76A
S113531080959095BC01CD010895EE0FFF1F059077
S1135320F491E02D09942F923F924F925F926F92E5
S11353307F928F929F92AF92BF92CF92DF92EF9221
S1135340FF920F931F93CF93DF935C016B017A015C
S11353506115710519F0FB0191838083E114F10457
S113536029F0C7010297839708F0F1C0E50121965F
S1135370F5011081812F90E00E94F62B892B11F00A
S11353805E01F4CF1D3229F42196F501118101E06B
S113539007C01B3221F4E5012296F501118100E0DA
S11353A0E114F10459F1F0E1EF16F10461F4103362
S11353B0E1F488818F7D883569F519812296026030
S11353C070E1E72EF12C88E0E816F10439F12CF4B1
S11353D0F2E0EF16F104C9F12AC08AE0E816F104FC
S11353E079F0E0E1EE16F10411F550E1E52EF12C2F
S11353F0812C912CA12C68E0B62E2CC01033C9F25C
S11354003AE0E32EF12C4CEC842E982CA82C4CE0A2
S1135410B42E20C010E3E114F104A9F698E0E92EBB
S1135420F12C812C912CA12C20E1B22E13C060E030
S113543070E080E090E89701442737FD4095542FB1
S11354400E94712F49015A0105C0812C912CA12C75
S113545080E4B82E60E020E030E0A9012701662452
S113546057FC6094762C1E01E0EDE10FEA3060F009
S11354708FEB810F8A3110F4E9EC05C08FE9810FBD
S11354808A3128F5E9EAE10F8E2F90E08E159F0509
S1135490F4F467FD18C082169306A406B50690F0CE
S11354A0C301B2010E94612F9B01AC012E0F311D7B
S11354B0411D511D213031054105F0E85F0710F40D
S11354C061E001C06FEF2196F1011081CCCF802FF4
S11354D08170C114D10471F0662329F02197F6017B
S11354E0D183C08307C001FF19C02297F601D1837D
S11354F0C08314C067FF12C0811105C02FEF3FEFB6
S11355004FEF5FE704C020E030E040E050E882E283
S113551090E0909337138093361316C0882341F09C
S113552050954095309521953F4F4F4F5F4F0CC09C
S113553057FF0AC082E290E09093371380933613AA
S11355402FEF3FEF4FEF5FE7B901CA0104C060E0FE
S113555070E080E090E0DF91CF911F910F91FF9078
S1135560EF90DF90CF90BF90AF909F908F907F90FF
S11355706F905F904F903F902F9008952F923F929D
S11355804F925F926F927F928F929F92AF92BF924F
S1135590CF92DF92EF92FF920F931F93CF93DF93FB
S11355A000D000D000D0CDB7DEB75C016B017A012A
S11355B06115710519F0DB018D939C93E114F104DD
S11355C029F0C7010297839708F0DCC03501BFEFCB
S11355D06B1A7B0AF5011081812F90E00E94F62B53
S11355E0892B11F05301F2CF1D3249F43501F2E059
S11355F06F0E711CD50111961C9101E009C01B327C
S113560031F43501B2E06B0E711CF501118100E03B
S1135610E114F10409F4C4C0F0E1EF16F10489F4D3
S1135620103399F5D3018C918F7D883509F0B2C080
S113563011961C91B2E06B0E711C026050E1E52ED4
S1135640F12CEAE0EE16F10409F4B0C0F0E1EF1633
S1135650F104D9F028E0E216F10451F438E0E32E25
S1135660F12C88248A94982CA82C4FE1B42E13C0D2
S11356706FEF7FEFCB019701442737FD4095542FFF
S11356800E94712F49015A0106C088248A94982CDB
S1135690A82C2FE0B22E7E826D8260E020E030E004
S11356A0A9012701662457FC6094762C2D803E8046
S11356B0E0EDE10FEA3060F08FEB810F8A3110F4F6
S11356C0E9EC05C08FE9810F8A3190F5E9EAE10F31
S11356D08E2F90E08E159F055CF56F3F09F18216C1
S11356E09306A406B506D8F0C301B2010E94612F47
S11356F02E2F30E040E050E029833A834B835C83D3
S1135700260F371F481F591F89819A81AB81BC819D
S1135710281739074A075B0710F061E001C06FEFF3
S1135720ED81FE813196FE83ED83D1011C91BECFC4
S1135730C114D10489F0662339F08D819E810197CB
S1135740F6019183808308C001FF06C08D819E818C
S11357500297D6018D939C9300FF07C05095409506
S1135760309521953F4F4F4F5F4F67FF10C082E246
S113577090E090933713809336136FEF7FEF8FEFA2
S11357809FEF1BC060E070E080E090E016C0B901BC
S1135790CA0113C010E3E114F10409F45FCF51CF3F
S11357A0103309F43FCF9AE0E92EF12C89E9882ED1
S11357B0982CA82C89E1B82E6ECF26960FB6F894B3
S11357C0DEBF0FBECDBFDF91CF911F910F91FF9030
S11357D0EF90DF90CF90BF90AF909F908F907F908D
S11357E06F905F904F903F902F9008959111BAC29F
S11357F0803219F089508550D0F70895FB01DC01FF
S113580002C005900D9241505040D8F70895FB0115
S1135810DC0105900D920020E1F70895FB01DC0105
S11358204150504030F08D910590801919F40020BA
S1135830B9F7881B990B0895FB01DC0141505040D6
S113584048F005900D920020C9F701C01D92415007
S11358505040E0F70895FB0155915523A9F0BF018D
S1135860DC014D9145174111E1F759F4CD01059043
S1135870002049F04D9140154111C9F3FB0141113C
S1135880EFCF81E090E001970895FB01DC0102C0B5
S113589001900D9241505040D8F70895DC0101C0A9
S11358A06D9341505040E0F70895FC0181918617B3
S11358B021F08823D9F7992708953197CF010895C6
S11358C0FA01A191B081009719F41097E1F0CD018C
S11358D0DC01CD010D90002011F4C00113C0FB01C7
S11358E02191222319F02015D9F7F3CFFB0121913F
S11358F0201519F41E92119606C02223C1F70D90AB
S11359000020A1F7D001FA01A193B08308950F9369
S11359101F93CF93DF93CDB7DEB72E970FB6F894CE
S1135920DEBF0FBECDBF0D891E8986E08C831A832E
S113593009838FEF9FE79E838D83AE01475E5F4FA0
S11359406F89788DCE0101960E94B72C2F813885FE
S1135950F801E20FF31F10822E960FB6F894DEBF03
S11359600FBECDBFDF91CF911F910F9108952F925C
S11359703F924F925F926F927F928F929F92AF92DB
S1135980BF92CF92DF92EF92FF920F931F93CF9328
S1135990DF93CDB7DEB72C970FB6F894DEBF0FBEFA
S11359A0CDBF7C016B018A01FC01178216828381C1
S11359B081FFBDC1CE0101964C01F7019381F6012F
S11359C093FD859193FF81916F01882309F4ABC105
S11359D0853239F493FD859193FF81916F0185326E
S11359E029F4B70190E00E94CB2EE7CF512C312C43
S11359F020E02032A0F48B3269F030F4803259F088
S1135A00833269F420612CC08D3239F0803339F44B
S1135A10216026C02260246023C0286021C027FDA5
S1135A2027C030ED380F3A3078F426FF06C0FAE08C
S1135A305F9E300D1124532E13C08AE0389E300D22
S1135A401124332E20620CC08E3221F426FD6BC14A
S1135A50206406C08C3611F4206802C0883641F4F4
S1135A60F60193FD859193FF81916F018111C1CF5F
S1135A70982F9F7D9554933028F40C5F1F4FFFE3BC
S1135A80F9830DC0833631F0833771F0833509F023
S1135A905BC022C0F801808189830E5F1F4F4424BC
S1135AA04394512C540115C03801F2E06F0E711C5F
S1135AB0F801A080B18026FF03C0652D70E002C00C
S1135AC06FEF7FEFC5012C870E94C02E2C0183014C
S1135AD02C852F77222E17C03801F2E06F0E711C2F
S1135AE0F801A080B18026FF03C0652D70E002C0DC
S1135AF06FEF7FEFC5012C870E94B52E2C012C85FA
S1135B002068222E830123FC1BC0832D90E04816BD
S1135B105906B0F4B70180E290E00E94CB2E3A948B
S1135B20F4CFF50127FC859127FE81915F01B70130
S1135B3090E00E94CB2E31103A94F1E04F1A5108B4
S1135B404114510471F7E5C0843611F0893639F5F2
S1135B50F80127FF07C060817181828193810C5F06
S1135B601F4F08C060817181882777FD8095982F29
S1135B700E5F1F4F2F76722E97FF09C09095809568
S1135B80709561957F4F8F4F9F4F2068722E2AE04A
S1135B9030E0A4010E94032FA82EA81844C0853722
S1135BA029F42F7EB22E2AE030E025C0F22FF97FAF
S1135BB0BF2E8F36C1F018F4883579F0B4C0803721
S1135BC019F0883721F0AFC02F2F2061B22EB4FE18
S1135BD00DC08B2D8460B82E09C024FF0AC09F2FEE
S1135BE09660B92E06C028E030E005C020E130E020
S1135BF002C020E132E0F801B7FE07C06081718184
S1135C00828193810C5F1F4F06C06081718180E0A7
S1135C1090E00E5F1F4FA4010E94032FA82EA81826
S1135C20FB2DFF777F2E76FE0BC0372D3E7FA5140C
S1135C3050F474FE0AC072FC08C0372D3E7E05C0C5
S1135C40BA2C372D03C0BA2C01C0B52C34FF0DC0BB
S1135C50FE01EA0DF11D8081803311F4397E09C003
S1135C6032FF06C0B394B39404C0832F867809F03E
S1135C70B39433FD13C030FF06C05A2CB31418F488
S1135C80530C5B18B32CB31468F4B70180E290E0B2
S1135C903C870E94CB2EB3943C85F5CFB31410F40B
S1135CA03B1801C0312C34FF12C0B70180E390E0EF
S1135CB03C870E94CB2E3C8532FF17C031FD03C0C8
S1135CC088E790E002C088E590E0B7010CC0832F1C
S1135CD0867859F031FF02C08BE201C080E237FDC3
