:100000000C9411020C94031D0C940D1D0C94171DDF
:100010000C94401D0C94861D0C94901D0C949A1DFC
:100020000C94A41D0C9430020C9430020C94301EDD
:100030000C9430020C94131C0C9430020C94521C3F
:100040000C9430020C9430020C9430020C94300268
:100050000C9430020C9430020C9430020C94300258
:100060000C945C1C0C9430020C9430020C94300202
:100070000C9430020C94DB1E0C9430020C94300271
:100080000C9430020C9430020C9430020C94300228
:100090000C9430020C9430020C9430020C94AE1D7F
:1000A0000C9430020C9430020C9430020C94300208
:1000B0000C9430020C9430020C9430020C943002F8
:1000C0000C9430020C9430020C9430020C943002E8
:1000D0000C9430020C9430020C9430020C943002D8
:1000E0000C943002870A040B5A0B880B940B960B66
:1000F000ED0BF20BFC0B040C4E0C970C370D5D0D49
:10010000A80D170E440E700E960E9D0EB20E88119D
:1001100097118C12411354149F15B215F215231622
:1001200069168616AD16BB16D616311700020E06D6
:100130000C040D090E78155116211A591B531C4138
:100140001D571E2221432258234424452578262367
:1001500029202A562B462C542D522E25314E324220
:1001600033483447355A3626394C3A4D3B4A3C558C
:100170003D2F3E28413B424B4349444F453D462994
:10018000493A4A5F4B4C4C784D504E3F5278547828
:1001900055605A0A5B5E5D2A613E660869316B34C0
:1001A0006C377030712C7232733574367538792B28
:1001B0007A337B2D7C2A7D3900000D090E7C157168
:1001C00016311A791B731C611D771E322163227848
:1001D000236424652534263329202A762B662C7443
:1001E0002D722E35316E326233683467357A363689
:1001F000392C3A6D3B6A3C753D373E38412C426B99
:100200004369446F45304639492E4A2D4B6C4C6F3B
:100210004D704E2B526F546F555C5A0A5B785D27B8
:10022000613C660869316B346C377030712C723206
:10023000733574367538792B7A337B2D7C2A7D396A
:100240000000000000000000005F00000007000741
:1002500000147F147F14242A7F2A12231308646257
:1002600036495522500005030000001C22410000C1
:1002700041221C00082A1C2A0808083E08080050D1
:10028000300000080808080800606000002010081E
:1002900004023E5149453E00427F400042615149BF
:1002A000462141454B311814127F102745454539E9
:1002B0003C4A494930017109050336494949360626
:1002C0004949291E00363600000056360000000855
:1002D0001422411414141414412214080002015170
:1002E0000906324979413E7E1111117E7F49494903
:1002F000363E414141227F4141221C7F49494941CB
:100300007F090901013E414151327F0808087F0001
:10031000417F41002040413F017F081422417F403E
:100320004040407F0204027F7F0408107F3E41412D
:10033000413E7F090909063E4151215E7F09192985
:1003400046464949493101017F01013F4040403F54
:100350001F2040201F7F2018207F63140814630390
:1003600004780403615149454300007F4141020480
:1003700008102041417F0000040201020440404077
:100380004040000102040020545454787F48444403
:10039000383844444420384444487F38545454182E
:1003A000087E090102081454543C7F0804047800B4
:1003B000447D40002040443D00007F10284400411F
:1003C0007F40007C041804787C0804047838444496
:1003D00044387C14141408081414187C7C08040491
:1003E000084854545420043F4440203C4040207C62
:1003F0001C2040201C3C4030403C44281028440C29
:100400005050503C4464544C4400083641000000B5
:100410007F0000004136080008082A1C08081C2A32
:10042000080811241FBECFEFD1E2DEBFCDBF13E01D
:10043000A0E0B2E0E2E5F0E500E00BBF02C007900B
:100440000D92A431B107D9F71BE1A4E1B3E001C0DB
:100450001D92A73CB107E1F70E947F1F0C9427284B
:100460000C9400008091410D8093BC000895289A5F
:1004700008952898089576980895769A0895809119
:10048000351B8F3F69F0E82FF0E0E153F84F908182
:100490009093351B9F3F11F49093991B9FEF90838E
:1004A0000895EB9808959FB7F894E82FF0E0E15392
:1004B000F84F20812F3F99F4E091991BE81779F0CC
:1004C0002091351B2F3F19F48093351B04C0F0E0B9
:1004D000E153F84F80838093991B80E001C085E051
:1004E0009FBF08958EE00C94530287E10C94530251
:1004F0008CE10C94530288E10C9453028AE10C9431
:100500005302ECE7F0E0208180917B003081908104
:100510008870880F880F2F71822B35FB222720F9D6
:1005200020FB86F99295969596959370292F27959D
:1005300022272795822B969508958FB7F89490914E
:10054000BC009093410D8FBF08952FB7F894609130
:100550002D0A70912E0A80912F0A9091300A2FBF98
:100560000895CF92DF92EF92FF92CF93C82F6A0146
:100570007B010E94A50229E0C29FF0011124DF0146
:10058000AC5EB24F6D937D938D939C9313971496AD
:10059000CD92DD92ED92FC921797E45EF24F80814E
:1005A000816082608083CF91FF90EF90DF90CF9049
:1005B0000C947202AC019091DA0A9931B8F48091EE
:1005C000390A292F30E0280F311D2931310514F067
:1005D00029513109220F331FF901EF57F24F51838F
:1005E00040839F5F9093DA0A80E0089581E0089548
:1005F0008EBD0DB407FEFDCF8EB508950C94F802A4
:10060000CF93DF9300D0CDB7DEB76A8389830E9492
:10061000390289810E94FE026A81862F0E94FE02B1
:100620000F900F90DF91CF910C943702CF93DF930F
:100630001F92CDB7DEB789830E94390289810E945B
:10064000FE0280E00E94F80289830E9437028981BD
:100650000F90DF91CF910895CF93DF9300D0CDB766
:10066000DEB76A8389830E943902898180680E948B
:10067000FE026A81862F0E94FE020F900F90DF918A
:10068000CF910C9437028F929F92AF92BF92CF92EC
:10069000DF92EF92FF920F931F93CF93DF932FEF91
:1006A000280F9DE1299F9001112489010D54124FBB
:1006B000F8019081911140C0E901CC54D24F2097AC
:1006C000D9F17A0151E0598318821B8298E09A830C
:1006D00096E09C8344E04D83809024029090250214
:1006E000A0902602B09027028786908AA18AB28ABB
:1006F000D901A454B24FE6E1F2E0492F01900D92E6
:100700004A95E1F7D901AA53B24FFB0101900D922E
:100710009A95E1F7F701C080D180E280F380F8017B
:10072000C18ED28EE38EF48E8F831E8250838FE033
:100730000E94530280E001C085E0DF91CF911F91BC
:100740000F91FF90EF90DF90CF90BF90AF909F9070
:100750008F9008953091DA0A3323C1F02091390A3D
:10076000E22FF0E0EE0FFF1FEF57F24F80819181F3
:100770001182108231503093DA0A2F5F293119F03B
:100780002093390A08951092390A089580E090E084
:1007900008952FB7F89480913703882309F1409189
:1007A000450D5091460D6091470D7091480D809117
:1007B000F4079091F507A091F607B091F707840F21
:1007C000951FA61FB71F40912D0A50912E0A6091C8
:1007D0002F0A7091300A481759076A077B0711F0F2
:1007E0002FBF0895109237032FBF8DE00C94530252
:1007F0002FB7F89490912C1B2FBF91110EC09FB76B
:10080000F89423E020932C1B1092321B8093350A1E
:100810009FBF0E947B0280E0089581E00895DC0183
:1008200081E04D91442311F12091391B30E09091EA
:10083000420DF90154E0EE0FFF1F5A95E1F7E90F61
:10084000F11DE552F54F40839F5F9093420DF901F2
:10085000E65CF54F8083903121F71092420D2F5FB7
:100860003F4F217033272093391BDBCF08959091A0
:10087000911B9150923028F480933E0A85E00C94AD
:10088000530208950F931F93CF93DF9300D01F92CD
:10089000CDB7DEB78091FB0A1F928F9389EE92E06D
:1008A0009F938F938E010F5F1F4F1F930F930E9493
:1008B00001251B821092391B88E08093420DC801EC
:1008C0000E940F0483E20E9453020F900F900F903A
:1008D0000F900F900F900F900F900F90DF91CF918E
:1008E0001F910F9108950197019601970196019725
:1008F00001960197C1F7089581E080932C0345E9A3
:100900005BE166E072E00E94430344E650E060E091
:1009100070E080E00C94B1021F93CF93DF938FB708
:10092000F894C0911803C1113DC011E01093180351
:100930001092F70D8FBFDFB7F894809117038111E4
:1009400017C0509851981092B90081E48093B80074
:100950001092BA001092BC000E949D028091410D3D
:100960008E7F84608093410D0E94320210931703A2
:10097000DFBFDFB7F89480910E02813089F4809157
:100980001803813021F48FE10E94530209C08230A4
:1009900039F48091F70D80930E0283E08093180361
:1009A000DFBF1DC0C091F70DCC23C1F090913C0A70
:1009B0009F3F99F4E0910F02EE2379F0909110029D
:1009C0009F3F19F41092100204C0F0E0E45CF54F70
:1009D000108210920F02C0E001C0C5E08FBF8C2FC3
:1009E000DF91CF911F910895882389F12FB7F89453
:1009F000809173059091740590699093740580932C
:100A0000730510923A1B10923B1B10923C1B84E022
:100A10008093D21A2FBF48E050E060E270E08EE38E
:100A20009BE10E94652440E450E060E270E088E4CD
:100A30009BE10E94652446E050E060E270E088E8B7
:100A40009BE10E94652488E08CBBEB9A11C00E9458
:100A500051022FB7F89480917305909174059F7699
:100A6000909374058093730584E08093D21A2FBF0E
:100A70000C9478021F93CF93DF931F92CDB7DEB70C
:100A8000182F806479830E94000381E0810F7981AF
:100A9000672F80640F90DF91CF911F910C9400031A
:100AA00090911E03E92FF0E0EE0FFF1FE655F54E83
:100AB0004081518120911C03222359F09F5F943182
:100AC00019F090931E0302C010921E032150209330
:100AD0001C03CA010E94DA0280911C03882319F0CA
:100AE0008AE00C94530210923D0A0895660F660F37
:100AF00068B9439A98B18295807F982B98B94398AA
:100B00000895CF93DF93C82FD62F82958F700E94C0
:100B100076056D2F8C2FDF91CF910C947605CF93B6
:100B2000DF939FB7F89480912103882369F19FBFD9
:100B3000DFB7F894C0912103C11109C081E080930F
:100B400021031092110284E10E94530218C0809187
:100B5000FF078F3F99F4E0911202EE2379F0809124
:100B600013028F3F19F41092130204C0F0E0E15019
:100B7000F84F108210921202C0E001C0C5E0DFBF42
:100B80008C2FDF91CF9108958CB58F7B8CBD229AED
:100B90002398219A209A8CB580618CBD8CB58F7773
:100BA0008CBD8DB58E7F8DBD8CB5877F8CBD8CB592
:100BB0008B7F8CBD8CB58C7F8CBD8CB580648CBDDF
:100BC000B6CF882319F0813071F008951092260372
:100BD000E09127038BE0E89FF0011124E75BF24FDF
:100BE000108281E110C010921F03809120039DE0CC
:100BF000899FF0011124E250F54F1082811102C04B
:100C00000E94500585E10C945302109228038091B4
:100C1000290398E0899FF0011124E35EF54F1082CB
:100C20000E94E10580E10C9453024F925F926F9213
:100C30007F928F929F92AF92BF92CF92DF92FF925C
:100C40000F931F93CF93DF93A4E1BDE0C12CD12C70
:100C500049E04C9DF0014D9DF00D1124EF01CC5E5B
:100C6000D24FF884F1FEAFC00D911D912D913C91B2
:100C7000139714968D909D90AD90BC9017972B0173
:100C80003C01401A510A620A730A481459046A0462
:100C90007B0408F498C0F0FE06C0E45EF24F2081A9
:100CA0002D7F20830AC0B901A801480D591D6A1D76
:100CB0007B1D488359836A837B8322E0C216D9F166
:100CC0002C1520F181E0C81227C010929C1B1092B5
:100CD0009D1B10929E1B10929F1B1092A61B1092A0
:100CE000A71B1092A81B1092A91B1092B01B109268
:100CF000B11B1092B21B1092B31B1092BA1B109230
:100D0000BB1B1092BC1B1092BD1B66C023E0C21619
:100D1000E1F084E0C816E9F010922C0380912D03D5
:100D20008F5F80932D03833018F40E947C0454C09D
:100D30000E94050651C09FB7F89480912C1B9FBF5D
:100D4000813009F049C086E101C083E20E9453026C
:100D500043C09FB7F89480911403811127C081E0AC
:100D6000809314031092310A9FBF9FB7F89480912B
:100D70007A00806880937A009FBFCFB7F894809103
:100D80000C02813089F480911403813021F481E2D6
:100D90000E94530209C0823039F48091310A809355
:100DA0000C0283E080931403CFBF16C08091310AF8
:100DB000882339F08091130D80FD03C081608093FA
:100DC000130D9FBF09C02FEFC21AD20A199625E052
:100DD000C216D10409F03DCFDF91CF911F910F9141
:100DE000FF90DF90CF90BF90AF909F908F907F90BB
:100DF0006F905F904F900C94720281110FC0662328
:100E000069F080912C03813049F410922C03809179
:100E10001C0D8D7F80931C0D0C94050608950F9377
:100E20001F93CF93DF9380918E1B882309F43FC0DB
:100E300010E0C0E0DFE10FB7F8948091921B8E7F45
:100E40008093921B0E948102282F2F73881F88276E
:100E5000881F9170990F892B181302C091E0D2134B
:100E600090E08091921B90FB81F99D2F9F73990FC9
:100E7000990F8370892B8093921B1111D064D093AA
:100E80007C0080917B00877F80937B009091921BF8
:100E90008C2F8860806190FB85F9806480688093E6
:100EA0007A000FBFDF91CF911F910F910895C7E096
:100EB00011E0D0E0C0CFCF93DF93CFB7F8940E947A
:100EC0009D028091410D8E7F80698093410D0E942B
:100ED0003202CFBFDFB7F894809118038330C1F599
:100EE000C0910E02C11134C0809110028F3FC1F039
:100EF000E82FF0E0E45CF54F9081909310029F3F63
:100F000011F490930F029FEF90838093F70D9093CD
:100F10000E0281E0809318038FE10E94530216C0F5
:100F200081E080930E0210921803809117038130A4
:100F300069F40E949D028091410D8A768093410D53
:100F40000E9432025898599810921703DFBF02C0CE
:100F5000DFBFC1E08C2FDF91CF910895CF93DF9356
:100F60001F92CDB7DEB789830E9439028FEB0E94B2
:100F7000FE0283E00E94FE020E94370269818FE137
:100F80000F90DF91CF910C942C03FC01009711F48A
:100F90000C94050630910308909104088091B507E0
:100FA000811124C046EB57E041155105F9F026E0C8
:100FB000DA0101900D922A95E1F740E058E0509354
:100FC000BD074093BC0741E058E05093BF074093F2
:100FD000BE07892F90E0932B9093C1078093C007A1
:100FE00081E08093B5078CE00C9453020895882328
:100FF00029F0813029F47298739A02C07398729A1A
:1010000082B182B981B111B87498759A0E943D027B
:1010100082E090E00E94730480B1079B0DC00E94A3
:101020003B0282E090E00E9473040E943D0282E055
:1010300090E00E947304F1CF0E943B02759881B149
:101040008FEF81B90895CF93DF931F92CDB7DEB7AD
:101050000E94F70781B111B8749A759A0E943D02F7
:1010600082E090E00E94730480B10E943B0282E023
:1010700090E00E9473040E943D0282E090E00E9492
:10108000730480B189830E943B0289810F90DF91B4
:10109000CF910895CF93C0912C1B813011F48BE137
:1010A0001AC00E945B0710922F1B8EE10E94530210
:1010B000C23059F020F4C13089F486E10CC0C3304D
:1010C00039F0C63059F489E106C0CF910C9475020D
:1010D000CF910C947B02CF910C945302CF91089541
:1010E000811110C08091BB009091D31AE091FB0751
:1010F000F091FC07E90FF11D80838091D31A8F5F77
:101100008093D31A2091D31A80913603281788F43C
:1011100030E090E001972817390749F48091C41B0B
:1011200082FD05C08091410D8F7B8093410D0C9411
:1011300032028091410D282F2E7F9091C41B91FF88
:101140000AC09D7F9093C41B822F80618093410DC4
:101150008091B90003C08E778093410D0E943202C6
:1011600081E08093170380910D02811102C00C94DD
:101170004A080895CF93C0912C1B813011F48DE162
:1011800014C00E945B0710922F1BC33089F038F403
:10119000C13051F0C23079F4CF910C947502C63051
:1011A00050F410922C1B07C086E1CF910C9453028F
:1011B000CF910C947B02CF9108958091D31A909196
:1011C0003603891780F4E091FB07F091FC07E80FE4
:1011D000F11D80818093BB008091D31A8F5F809333
:1011E000D31A0C9432028091410D282F2E7F9091BA
:1011F000C41B91FF06C09D7F9093C41B822F80610A
:1012000001C08E778093410D0E94320281E080936D
:10121000170380910D02811102C00C94BA08089541
:10122000CF93DF931F92CDB7DEB789830E949D02D3
:101230009091410D9A7F9093410D0E9432020E943D
:101240009D029091410D94609093410D0E94320255
:1012500091E0909317032091160390910D028981DC
:10126000222339F091110CC00F90DF91CF910C9493
:101270004A08911105C00F90DF91CF910C94BA08E4
:101280000F90DF91CF910895CF93DF931F92CDB749
:10129000DEB769830E94F707698162B981B18FEF78
:1012A00081B9749A75980E943D0282E090E00E9494
:1012B00073040E943B0280E00F90DF91CF9108956C
:1012C000CF93DF931F92CDB7DEB769830E94F707F4
:1012D000749875980E943D0281B18FEF81B9698140
:1012E00062B982E090E00E9473040E943B0280E0B9
:1012F0000F90DF91CF910895CF93DF93982FC62F52
:10130000D82FD295D695D695D37081E0D8279F73E4
:10131000692F60648D2F0E9460096C2F6770686B65
:101320008D2FDF91CF910C9460092F923F924F92B5
:101330005F926F927F928F929F92AF92BF92CF9265
:10134000DF92EF92FF920F931F93CF93DF9300D022
:101350001F92CDB7DEB7C62E8C014B83962F55E07A
:10136000952E88248394EE24E394F12CF8012191A6
:101370008F01222309F46FC02A3011F02D3029F497
:101380002B81285F2B835C2C64C0293021F44AE038
:10139000542E590E5EC036E0532E590E80EE820F49
:1013A000803608F056C030E020523109929EA001EC
:1013B000939E500D1124FA01EE5BFD4F5F01955F86
:1013C0009983952D89EF482E2B81420E642CF501CF
:1013D000D49096FB772470F87824262C26942694B3
:1013E0002694F62DF7703F2E622D892F9A83D0FE1A
:1013F0000DC00E947C09872D0E942308B70101C0FF
:10140000660F3A94EAF7382E362A0DC00E947C09FE
:10141000872D0E942308970101C0220F3A94EAF712
:101420002095382E3222622D9A81892F0E947C09C4
:10143000632D872D0E9444099A81D69463942B8151
:101440006212CBCF9F5F3FEFA31AB30A2981921399
:10145000BDCF952D8BCF0F900F900F90DF91CF9137
:101460001F910F91FF90EF90DF90CF90BF90AF90C2
:101470009F908F907F906F905F904F903F902F90B4
:101480000895CF93DF93C0E06C2F80E00E947C0929
:101490006C2F80E40E947C09D0E060E080E00E9434
:1014A000440960E081E00E944409DF5FD038A9F779
:1014B000CF5FC83049F780E0DF91CF9108952F9238
:1014C0003F924F925F926F927F928F929F92AF92D4
:1014D000BF92CF92DF92EF92FF920F931F93CF9321
:1014E000DF93CDB7DEB7C45CD1090FB6F894DEBF89
:1014F0000FBECDBF6DB67EB690E08432910510F080
:101500000C94EF1BFC01EE58FF4F0C94EB218FB7AE
:10151000F89410913E0A009138038FBF0E94410A4F
:101520004AE060E08BE392E00E94950948E26EE1B8
:101530008AE492E00E949509812F90E0C0970A9773
:1015400078F4043068F48FB7F894E091380391E0B0
:101550009E0F90933803F0E0E85CFC4F11838FBF3F
:10156000183071F4002361F08FB7F894E0913803DC
:10157000E150E0933803F0E0E85CFC4F11828FBF4C
:101580009FB7F89485E0E9E3F3E0DE01119601905E
:101590000D928A95E1F79FBF44E160E0CE0101968C
:1015A0000E949509173611F00C94EF1B4AE050E0A9
:1015B00060E070E0CE0101960E941C232FB7F894E2
:1015C00033E03093911B2FBF3FB7F89420912C1B31
:1015D0003FBF21110C94EF1B9B012B5633402E3C37
:1015E000310510F00C94EF1B2FB7F89432E03093D4
:1015F0002C1B1092311B7093941B6093931B2FBF75
:101600000E9475020C94EF1B2FB7F8948091FC0A8E
:101610009091FD0AFF24F394F092911B2FBF6AE092
:1016200070E00E94D7219F938F937F936F938CE4F8
:1016300092E09F938F938E010F5F1F4F1F930F9325
:101640000E94012547E060E082E592E00E94950952
:1016500047E066E3C8010E94950947E06EE58CE526
:1016600092E00E9495092FB7F8948091341B9091D5
:101670002C1BF092341B2FBF2DB73EB7285F3F4F76
:101680000FB6F8943EBF0FBE2DBF91110BC0813035
:1016900049F08FB7F89494E090932C1B8FBF81E0B2
:1016A0000E94F4044CE360E080E692E00E94950919
:1016B0000C94EF1B8091320A9091FB0A891711F468
:1016C0000C94EF1B2FB7F89490912C1B2FBF911106
:1016D0000C94EF1B4FB7F89435E030932C1B282F58
:1016E0002F708091750590917605807F822B909365
:1016F0007605809375053093D21A4FBF0E94780209
:101700008091320A8093FB0A0E9442040C94EF1BE2
:1017100080E00E94F803882311F40C94EF1B84E00E
:101720000E9453020C94EF1B81E0F3CF2FB7F89483
:1017300080913E0A9091911B2FBF2091911B2130E7
:1017400009F042C08C3651F178F4883611F00C94CF
:10175000EF1B8FB7F89494E09093911B8FBF84E0B8
:101760000E9453020C94EF1B833719F1843711F058
:101770000C94EF1B8FB7F89492E09093911B10920A
:10178000380395E0E9E3F3E0DF011D929A95E9F76C
:101790008FBF80E00E9453020C94EF1B8FB7F89428
:1017A00094E09093911B8FBF83E00E9453020C94AE
:1017B000EF1B8FB7F89495E09093911B8FBF82E059
:1017C0000E94F8030C94EF1B923011F00C94EF1B65
:1017D00080E00E9453020C94EF1B82E00E94F80309
:1017E0000C94EF1B0E94410A4AE060E082E692E01E
:1017F0000E9495090C94EF1B4AE060E085E792E0B7
:101800000E9495090C94EF1B85E1EFEDFAE1DE01F2
:10181000A755BF4F01900D928A95E1F785E1E4EF5E
:10182000FAE1DE01AF57BF4F01900D928A95E1F7C3
:1018300086E1E9E0FBE1DE01119601900D928A95C7
:10184000E1F7C254DF4F1882CE5BD040CA56DF4F5B
:101850001882C659D0401F8A4FE060E086ED9AE1B9
:101860000E9495094FE066E380E29BE10E949509A2
:1018700047E16AE7CE0187559F4F0E9495094FE1E6
:101880006AE7CE018F579F4F0E94950947E26AE7AA
:10189000CE0101960E9495090C94EF1B80911C03C8
:1018A000882309F440C0E0911E03F0E0EE0FFF1F13
:1018B000E655F54E0190F081E02D20813181809137
:1018C000FE0A81112CC08FEF9AE0892B41F13296EC
:1018D000F093080BE093070B80EC8093FF0A88EAF3
:1018E0008093000B8AE28093010B11E01093020BAE
:1018F00080E593EC9093040B8093030B9093060B7D
:101900008093050B30930A0B2093090B1093FE0A6A
:1019100085E10E94530210933D0A0C94EF1B109234
:101920003D0A0C94EF1B10923D0A0C94EF1B809122
:101930001B03E82FF0E0EE0FFF1FE351F24FE080B2
:10194000F18090911903992359F08F5F853019F038
:1019500080931B0302C010921B03915090931903B4
:10196000F701A080B180F5013197EE0DFF1D828156
:101970008A3009F06CC012826701F2E0CF0ED11CF0
:101980006DE070E0C6010E946C24009721F0DC013C
:101990001D928D0105C085010F5F1F4F0E0D1F1D8C
:1019A00043E050E06FE272E0C6010E948024892B80
:1019B00011F00C94F7188DB69EB6F7014081518155
:1019C0005A01F2E0AF1AB1082DB73EB72A193B0908
:1019D0000FB6F8943EBF0FBE2DBF6DB77EB76F5FD9
:1019E0007F4F6B0143505109B801C6010E945C242E
:1019F000F601EA0DFB1D1082AE0141545F4F68E80D
:101A000072E0C6010E949D245C01009711F40C94C1
:101A10007018BC018AE892E00E947724892B11F0AB
:101A20000C9470184AE050E060E070E0C154DF4F61
:101A300088819981CF5BD0400E94F121603110F400
:101A40000C9473170FB6F8949EBE0FBE8DBEC701DF
:101A50000E94DA0280911903882329F08BE00E940A
:101A600053020C94EF1B1092360A0C94EF1B8091DA
:101A7000300381110C94EF1B809131038F5F8170D3
:101A800080933103EDE0E89FD0011124AB54B84FAF
:101A90009C91913011F40C945B198F5F817080934D
:101AA0003103E89FF0011124EB54F84F808181301D
:101AB00011F00C94EF1B0C945B198091FA078111C3
:101AC00041C04091261B5091271B6091281B7091AB
:101AD000291B2FB7F894C090450DD090460DE0908B
:101AE000470DF090480D8091F4079091F507A09173
:101AF000F607B091F7078C0D9D1DAE1DBF1D2FBFC2
:101B00004093261B5093271B6093281B7093291B1F
:101B10001092FA072FB7F89431E03093370380938F
:101B2000F4079093F507A093F607B093F707409357
:101B3000450D5093460D6093470D7093480D2FBF90
:101B40000E94C9030E94A5020E9415060C94EF1B77
:101B50000E94A5022FB7F894109237032FBFE4E13B
:101B6000FDE010E022242A94322C422C2FE7522E42
:101B700020E030E009E0029FD001039FB00D112466
:101B8000AC5EB24F18964C9141FF1AC0C080D18014
:101B9000E280F3804B015C018C189D08AE08BF0801
:101BA000C480D580E680F780C818D908EA08FB0809
:101BB000C214D304E404F5041CF41601270111E057
:101BC0002F5F3F4F399625303105A9F6112311F4C7
:101BD0000C94EF1B121413041404150424F00E9437
:101BE00015060C94EF1B2092261B3092271B409267
:101BF000281B5092291B21E02093FA073FB7F89445
:101C0000209337036093F4077093F5078093F607EA
:101C10009093F7072092450D3092460D4092470D64
:101C20005092480D3FBF0E94C9030C94EF1B809156
:101C30002A0381110C94EF1B80912B0390E00196F5
:101C40008170992780932B032DE1289FF001299F14
:101C5000F00D1124ED54F24F3081313011F40C9419
:101C6000BB1901968170992780932B03289FF0015F
:101C7000299FF00D1124ED54F24F8081813011F035
:101C80000C94EF1B0C94BB198091280381110C94C8
:101C9000EF1BE0912903EF5FE170E0932903AE2F82
:101CA000B0E003E0AA0FBB1F0A95E1F7A35EB54FB2
:101CB0008C91813011F40C94FD19EF5FE170E09389
:101CC0002903F0E013E0EE0FFF1F1A95E1F7E35E42
:101CD000F54F8081813011F00C94EF1B0C94FD19AD
:101CE0008091260381110C94EF1B809127038F5F55
:101CF000817080932703EBE0E89FD0011124A75B5C
:101D0000B24F9C91913011F40C940B1B8F5F81703A
:101D100080932703E89FF0011124E75BF24F808155
:101D2000813011F00C94EF1B0C940B1B81E080931D
:101D300022030E948F050C94EF1B8FB7F89410922A
:101D40003F0310923E031092F9071092F807109289
:101D5000901B10928F1B1092380A1092370A8FBF77
:101D60000C94EF1B8FB7F89492E0909321038FBFF0
:101D70008091110281110C94EF1B0E943702809117
:101D80002503813021F0823009F498C085C26FEFBD
:101D90008FEF0E9400038DE10E94160380FFFBCFAE
:101DA00080E00E94AE0760E076E088E00E943A059D
:101DB00080E096E0909315028093140260E076E054
:101DC0008CE00E943A056FEF7FE18AE00E943A05BD
:101DD00060E070E084E00E943A0560E88EE50E94D1
:101DE000000381E00E94AE0761EA88E50E940003DB
:101DF00082E00E94AE0760E081E40E94000361E09F
:101E000080E40E94000363E382E40E94000360E038
:101E100083E40E9400036AE272E08AE00E943A05CD
:101E200065E184E40E9400039091280280912902D8
:101E300090931B0280931A0283E00E94AE07609188
:101E40001B0281E40E94000360911A0280E40E9458
:101E500000036091190283E40E940003609118025C
:101E600082E40E9400036091170285E40E9400034F
:101E70006091160284E40E94000382E00E94AE0793
:101E800064E184E50E94000360E471E086E10E9461
:101E90003A0562E184E50E94000362E170E086E1B8
:101EA0000E943A0560ED8BE50E94000364E08FE13B
:101EB0000E942C0382E080932503EEC180912203CF
:101EC000882309F43FC0109222038CE10E9416037C
:101ED000182F84FF20C082E00E94AE0763E184E5F2
:101EE0000E94000361E082E50E94000383E00E94FB
:101EF000AE078AE00E94551F80FDFBCF82E00E9462
:101F0000AE0760E082E50E94000388E10E94551F51
:101F100089E10E94551F81E00E94AE0789E10E947D
:101F20001603882319F081E08093230310FF0AC071
:101F30000E9439028CEB0E94FE0281E00E94FE02A8
:101F40000E94370280912403813009F043C080E071
:101F50000E94AE0760E070E082E00E943A0560E017
:101F60008AE70E94000300E010E06091FD07709195
:101F7000FE070617170768F4E0915F0DF091600DFA
:101F8000E00FF11F60818AE70E9400030F5F1F4F7F
:101F9000ECCF86E00E943A0568E08FE10E942C03B6
:101FA0001092240310923003809131039DE0899FA9
:101FB000F0011124EB54F84F1082882331F0813066
:101FC00031F480E00E946E1F02C00E9405068CE082
:101FD0000E94530280912303813009F05DC180E0AB
:101FE0000E94AE07609114027091150280E00E9479
:101FF0003A058AE30E94160390E0909315028093BD
:1020000014028AE30E9416032091140230911502F3
:10201000382B30931502209314028AE30E94160392
:10202000082F10E08AE30E941603182B8AE30E940F
:1020300016038AE30E941603C8010F978B31924062
:1020400090F4F0E4EF2EF3E0FF2E8AE30E941603F3
:10205000F70181937F01CF0180549340801791074E
:10206000A0F310E001C011E060911402709115021C
:102070008CE00E943A0560E48EE10E942C031092ED
:102080002303111109C180914C0390E0982F8827F8
:1020900020914D03822B8115F8E09F0729F08630AF
:1020A000984009F498C0F8C08EE493E090932B1BFD
:1020B00080932A1B80915E0390915F03A09160033F
:1020C000B091610300912402109125022091260213
:1020D0003091270280179107A207B30739F1409189
:1020E0001C0250911D0260911E0270911F026A0134
:1020F0007B01C094D094E094F0944601570188226B
:102100009922AA22BB228C149D04AE04BF0409F0BC
:10211000C3C080279127A227B32784239523A62312
:10212000B723892B8A2B8B2B09F0B6C080915703DC
:10213000813109F0B1C04091660350E0542F44272B
:1021400080916703482B8A0108501109809164032C
:1021500090E0982F882720916503822B8035934C3F
:1021600009F09AC00E94AA037C0142E360E08AE67B
:1021700093E00E9495090138110510F000E810E085
:10218000A8016AE673E0C70102960E945C24D701A9
:102190000D931C93209119032530A8F490911A03F4
:1021A000E92FF0E0EE0FFF1FE351F24FF182E082E2
:1021B00081E0890F80931A03853011F410921A037D
:1021C0002F5F209319038091360A811165C08BE03F
:1021D0000E94530261C08091540390E0982F882799
:1021E00020915503822B8130910519F00297F1F06F
:1021F00053C04091240250912502609126027091B3
:1022000027028091660390916703A0916803B091C3
:102210006903481759076A077B07F1F54CE553E056
:1022200066E573E082E00E94430336C080912C0390
:10223000813091F580912E03BAE08B9FC00111246B
:10224000FC01E456F44E40915C0350915D036091B3
:102250005E0370915F034083518362837383DC016B
:10226000A056B44E26E0E6E5F3E001900D922A95E3
:10227000E1F720911C0D2D7F20931C0D10922C0353
:102280008056944E0E94C50780912E0390E00196DF
:102290008370992780932E031FB7F89480912103B0
:1022A000823011F58091110281111EC080911302BC
:1022B0008F3FB1F0E82FF0E0E150F84F908190931C
:1022C00013029F3F11F4909312029FEF908380932B
:1022D000110281E08093210384E10E94530204C033
:1022E00080931102109221031FBF9FB7F894809131
:1022F0002103882311F40C948B1B9FBF1FB7F89404
:102300004A9903C082E10E9453021FBF0C94EF1B45
:1023100080911F0381110C94EF1B10922003F09009
:10232000FE0AE1E0FE120C94EF1B0C94901B9FB789
:10233000F8948091301B9FBF811110C05A9A48EECB
:1023400053E060E070E082E00E94B1028FB7F89441
:1023500091E09093301B8FBF0C94EF1B813051F4B0
:102360008FB7F89492E09093301B8FBF0E947E024B
:102370000C94EF1B8230D1F42FB7F894809179053B
:1023800090917A05906890937A05809379051092E0
:102390008A05109289058FE08093D21A83E080939A
:1023A000301B2FBF0E9478020C94EF1B833079F40E
:1023B0008FB7F89494E09093301B8FBF4EEE52E0AD
:1023C00060E070E082E00E94B1020C94EF1B843068
:1023D00099F48FB7F89421E030E43093700520939E
:1023E0006F0592E09093D21A95E09093301B8FBFC7
:1023F0000E9478020C94EF1B853079F48FB7F89423
:1024000096E09093301B8FBF46E950E060E070E0AB
:1024100082E00E94B1020C94EF1B863051F48FB71A
:10242000F89497E09093301B8FBF0E947E020C942B
:10243000EF1B873009F03EC02FB7F89480916D05EF
:1024400090916E052FBF8335924151F08FB7F8946C
:1024500010922C1B8FBF88E00E9453020C94EF1B3C
:102460002FB7F894809173059091740583739772D8
:1024700084609864909374058093730580E199E17A
:1024800090937605809375058091770590917805F6
:1024900088279E7F8F64909378058093770586E0E8
:1024A0008093D21A88E08093301B2FBF0E9478025D
:1024B0000C94EF1B883011F00C94EF1B8FB7F8943D
:1024C00010922C1B8FBF0E94A5026093380D709351
:1024D000390D80933A0D90933B0D8CE291E0A0E092
:1024E000B0E080933C0D90933D0DA0933E0DB093D2
:1024F0003F0D8091400D8E7F82608093400D0E9441
:1025000072028FB7F89491E09093911B8FBF87E090
:102510000E9453020C94EF1B9FB7F8948091311BDB
:102520009FBF811122C02FB7F8948091931B909187
:10253000941B8B5693409370906890937205809390
:10254000710580917305909174059F769093740541
:102550008093730584E08093D21A81E08093311BCD
:102560002FBF0E9478020C94EF1B813059F48FB773
:10257000F89492E09093311B8FBF88E08CBBEB9A6C
:102580000C94EF1B823051F48FB7F89493E0909342
:10259000311B8FBF0E947E020C94EF1B833001F52C
:1025A0009FB7F894209181053091820533702559A9
:1025B0003C4F30939B1B20939A1B209171053091C7
:1025C00072053F7730937205209371058093D21A7C
:1025D00084E08093311B9FBF0E9478020C94EF1B14
:1025E000843051F48FB7F89495E09093311B8FBFEE
:1025F0000E947E020C94EF1B853011F00C94EF1BAF
:102600002FB7F89480917F0590918005882790746A
:10261000892F99272FBF892B51F520919A1B309133
:102620009B1B8FB7F8943093FD0A2093FC0A8FBF51
:1026300081E00E9453028FB7F8949FE090933D1B76
:102640008FBF8091341B882359F08FB7F89494E0A2
:1026500090932C1B8FBF81E00E94F4040C94EF1B1D
:102660008FB7F89410922C1B8FBF0C94EF1B8FB771
:10267000F89494E09093311B8FBF0E9475020C94E4
:10268000EF1B9FB7F8941091350A8091321B9FBFC2
:10269000811141C02FB7123061F4F89480916F0519
:1026A0009091700595609093700580936F052FBF92
:1026B0000FC0F89480916F05909170059A7F91609A
:1026C0009093700580936F052FBF11110C94E61B3A
:1026D0002FB7F89480916F05909170059260909358
:1026E000700580936F052FBF2FB7F8948091730505
:1026F000909174059F769064909374058093730510
:1027000084E08093D21A81E08093321B2FBF0E9415
:1027100078020C94EF1B813059F48FB7F89492E053
:102720009093321B8FBF88E08CBBEB9A0C94EF1B0D
:10273000823051F48FB7F89493E09093321B8FBF9F
:102740000E947E020C94EF1B833089F52FB7F8941A
:1027500080917F0590918005882790729093330334
:102760008091810590918205937085599C4F90933B
:102770009B1B80939A1B80916F05909170059E7FA3
:102780009093700580936F05809173059091740507
:102790009F7B909374058093730584E08093D21A95
:1027A0008093321B2FBF0E9478020C94EF1B843061
:1027B00051F48FB7F89495E09093321B8FBF0E942D
:1027C0007E020C94EF1B853011F00C94EF1B2FB799
:1027D000F89480917F059091800588279074892FC7
:1027E00099272FBF892B09F056C08091330381119F
:1027F00032C020919A1B30919B1B8FB7F894309375
:10280000FD0A2093FC0A8FBF81E00E9453028FB71C
:10281000123041F4F8941092321B8FBF0E947B0259
:102820000C94EF1BF8949FE090933D1B8FBF809119
:10283000341B882351F08FB7F89494E090932C1BAD
:102840008FBF81E00E94F404CAC78FB7F89410923A
:102850002C1B8FBFC4C78FB7F8942FEF3FEF309377
:10286000FD0A2093FC0A8FBF81E00E9453028091F1
:10287000341B882351F08FB7F89494E090932C1B6D
:102880008FBF81E00E94F404AAC78FB7F89410921A
:102890002C1B8FBFA4C78FB7F89494E09093321B82
:1028A0008FBF0E947B029BC79FB7F8948091331B18
:1028B0009FBF811109C08FB7F89491E09093331BAB
:1028C0008FBF0E947E028BC7813009F088C74FB747
:1028D000F89470918305E091840580918505F091CD
:1028E0008605909187056091880520918905309132
:1028F0008A054FBF4F2F46954695469550E0443088
:10290000510509F459C024F44230510550F0FFC07C
:102910004530510509F47DC04830510509F4AFC078
:10292000F6C04FB7F894E093461B7093471B837033
:10293000E82FF0E0EE0FFF1FE65CF44E34832583B2
:1029400021E030E0B90102C0660F771F8A95E2F7F7
:10295000CB0190913A1B892B80933A1B4FBF8F304C
:1029600009F0D5C089E0E6EDFAE1DF011D928A9514
:10297000E9F788E0EEE3FBE1A6EDBAE101900D9204
:102980008A95E1F78091461B90E0982F8827209147
:10299000471B822B9093D51A8093D41A89E00E940A
:1029A000530248E050E060E270E08EE39BE10E9459
:1029B000652410923A1BABC08F70FFB6F894B4E058
:1029C0008B9FA00111248A01065C144EF8016687D2
:1029D000BA01655C744EDB011E969C93DA01A45C1F
:1029E000B44E1E963C931E97435C544EFA012687C4
:1029F000FFBEF80196859D3021F1FB0196859D3043
:102A000001F11E969C919D30E1F0DA011E969C9199
:102A100016C08F709FB7F894E82FF0E0EE0FFF1FFD
:102A2000DF01A65CB44E1E963C931E97E55CF44E07
:102A300026879FBF1E969C919D3019F096859D30EC
:102A400011F480933D1B9FB7F89480913B1B8F5FDF
:102A500080933B1B9FBF81E4EFEDFAE1DF011D9204
:102A60008A95E9F780E4E8E4FBE1AFEDBAE1019093
:102A70000D928A95E1F789E00E94530248C0892FA0
:102A800082958071932F92959F70892BA901E6E022
:102A900056954795EA95E1F74F73922F9F7196955A
:102AA00025FF02C0891B01C0890F0FB7F894E8E821
:102AB000FBE116E0DF01212F1D922A95E9F71F9215
:102AC0004F931F928F9384EE92E09F938F93FF9387
:102AD000EF930E9401250FBFE0E2FBE1DF01212F10
:102AE0001D922A95E9F7E8E8FBE1A0E2BBE101903D
:102AF0000D921A95E1F789E00E9453026DB77EB7F7
:102B0000685F7F4F0FB6F8947EBF0FBE6DBF809198
:102B1000341B81110CC08FB7F89494E090932C1B58
:102B20001092331B8FBF80E00E94F40458C68FB709
:102B3000F89410922C1B1092331B8FBF50C69FB776
:102B4000F89480912F1B9FBF882319F00E947E026A
:102B500046C68FB7F89491E090932F1B8FBF0E94C9
:102B60008C043DC68FB7F89490910D02911135C039
:102B70008FBF8FB7F89490911703913071F522E0D1
:102B8000209317038FBF8FB7F89420E130E0309384
:102B9000340A2093330A21E63DE03093FC0720936A
:102BA000FB0720E22093360323E02093C41B1092FE
:102BB000D31A909316038FBF0E949D021FB7F894FB
:102BC0008091410D8F7A816A8093410D84E08093DA
:102BD00017030E9432021FBF02C68FBF8BE10E9403
:102BE0005302FDC59FB7F89480912F1B9FBF882388
:102BF00019F00E947802F3C59FB7F89482E08093A1
:102C00002F1B8091D21A880F82509FBF20E092E044
:102C10002817B0F43FB7F894422F50E0E92FF0E0C6
:102C2000EE0FFF1FE559FA4F60817181FA01EF59EC
:102C3000F24F708361833FBF9F5F9F702E5FE8CF2D
:102C40000E948C04CCC59FB7F8948091D21A9FBF84
:102C50009FB7F89420910D02211136C09FBF9FB7F6
:102C6000F89420911703213079F522E0209317037F
:102C70009FBF9FB7F89420E130E03093340A20934F
:102C8000330A21E63DE03093FC072093FB07880FD1
:102C900082508093360383E08093C41B1092D31A32
:102CA000109216039FBF0E949D021FB7F894809157
:102CB000410D8F7E816E8093410D84E080931703D8
:102CC0000E9432021FBF8BC59FBF8DE10E9453023D
:102CD00086C540E050E02AE0DA01AF59B24FE22F5A
:102CE000F0E0EE0FFF1FE559FA4F8C9190E0982F1E
:102CF000882711963C91832B918380832F5F2F70BF
:102D00004E5F5F4F4032510539F769C58FB7F89470
:102D10009091F70D90930E0293E0909318038FBF5C
:102D200080910E029FB7F89480930D029FBF81118E
:102D300056C59FB7F89480912F1B9FBF813031F00B
:102D4000823041F48DE10E94530249C58BE10E941B
:102D5000530245C50E945B0742C51FB7F894809196
:102D60001603882321F081E00E94700802C00E94AF
:102D7000DD081FBF34C58FB7F8949091310A909346
:102D80000C0293E0909314038FBF80910C02811189
:102D900001C0809880910C02811121C581E080934F
:102DA000D90A10928E1B0E940F0719C51092D90ADA
:102DB0000091430D1091440D80918E1B81110FC520
:102DC000FFB6F89480911403833009F03EC08091DF
:102DD0000C0281113AC08091130D882309F4EBC4D1
:102DE0006091150370E0CB010196A1E0B0E0813065
:102DF000910511F480E090E0E82FE695E695E695E0
:102E0000F0E0ED5EF24F2081382F3770AD0101C048
:102E1000440F3A95EAF7322F342331F040952423BA
:102E200020838093150306C08617970711F001963B
:102E3000DECF8FEF8093310A8FEF80930C0281E019
:102E40008093140381E20E945302FFBE96E0169520
:102E500007959A95E1F70093320A82E00E945302A7
:102E6000BEC480913A0A8130E1F460E080E80E94BB
:102E7000810588E290E00E94730400E010E0F80110
:102E8000E552F54F61E080810E94810588E290E083
:102E90000E9473040F5F1F4F0031110581F71092DC
:102EA0003A0A80913B0A813009F099C460E080ECD5
:102EB0000E94810588E290E00E94730400E010E027
:102EC000F801E551F54F61E080810E94810588E2BB
:102ED00090E00E9473040F5F1F4F0031110581F7CE
:102EE00010923B0A7CC46CE270E0C154DF4F8881D1
:102EF0009981CF5BD0400E946C24892B11F40C94F3
:102F0000220D8E010F5F1F4FA80168E872E0C50116
:102F10000E949D245C01009711F40C94220D6E0117
:102F200079EAC70ED11C49805A80B5018DE892E03C
:102F30000E947724892BD1F44AE050E060E070E0F1
:102F4000C2010E94F1219B012B5633402E3C3105DA
:102F500010F00C94220DCF53DF4F6883C15CD0403A
:102F6000CE53DF4F7883C25CD040ADC0B50182E95B
:102F700092E00E947724892B71F44AE050E060E0EF
:102F800070E0C2010E94F121CD53DF4F6883C35C22
:102F9000D040372E98C0B50189E992E00E9477248D
:102FA000892B79F44AE050E060E070E0C2010E94B1
:102FB000F1218FEF860F893010F00C94220D262E10
:102FC00082C0B5018FE992E00E947724892BA1F598
:102FD0005F924F92A4EAB2E0BF93AF931F92F9E0E1
:102FE000FF93DF92CF920E94C424D60118961C92C0
:102FF000E981FA81CF0108969A8389832DB73EB77C
:10300000285F3F4F0FB6F8943EBF0FBE2DBF80859F
:103010008C3211F00C94220DCF0109969A8389838A
:103020006CE270E00E946C24009711F40C94220D65
:1030300001969A83898347C0B50189EA92E00E948C
:103040007724892B09F03FC06E0131E8C30ED11CF3
:1030500048E250E0B201C6010E948E24FE01E7550D
:10306000FF4F10A6DF92CF92FF93EF933F92CD5385
:10307000DF4F2881C35CD0402F93CE53DF4F388180
:10308000C25CD0403F93CF53DF4F2881C15CD0401A
:103090002F931F922F928EEA92E09F938F931F930C
:1030A0000F930E94012548E260E0C8010E94950943
:1030B0006DB77EB7625F7F4F0FB6F8947EBF0FBECD
:1030C0006DBF0C94220DA80168E872E080E090E0EA
:1030D0000E949D245C01009709F025CF0C94220DDD
:1030E000C154DF4F19821882CF5BD040D701AD9019
:1030F000BC90A50143505109B801C6010E945C244F
:10310000AC0CBD1CF50132971082AE0141545F4FEB
:1031100068EC72E0C6010E949D2440E8B42E0AECDF
:1031200012E0009711F40C94220D4AE050E060E0A8
:1031300070E00E94F121603108F04FC0CC53DF4FA6
:103140006883C45CD0400E94AA036C012C01B2E0E9
:103150004B0E511CF2012B2D11922A95E9F71F926B
:10316000CC53DF4F6881C45CD0406F931F930F93A3
:103170005F924F920E940125F20101900020E9F731
:103180003197E419F509D601ED93FC9320911C03C6
:103190000F900F900F900F900F900F902431B0F47C
:1031A00090911D03E92FF0E0EE0FFF1FE655F54E5D
:1031B000D182C08281E0890F843119F080931D0390
:1031C00002C010921D032F5F20931C0380913D0AC3
:1031D000811103C08AE00E945302AE0141545F4F47
:1031E00068EC72E080E090E00E949D249ACF44E079
:1031F00050E06AE272E0C6010E948024892B11F03F
:103200000C94270DCDB6DEB6F701408151815A01ED
:10321000F3E0AF1AB1082DB73EB72A193B090FB634
:10322000F8943EBF0FBE2DBF6DB77EB76F5F7F4F67
:103230004B0144505109B801C4010E945C24F401BF
:10324000EA0DFB1D1082AE014F5F5F4F68E872E030
:10325000C4010E949D24009739F109811A81BC01A3
:1032600085ED92E00E947724892B71F4B80189EDF5
:1032700092E00E947724892B39F0B8018DED92E01D
:103280000E947724892B81F46CE270E0C8010E94CF
:103290006C2401969A838983AE014F5F5F4F68E883
:1032A00072E080E090E0D5CF0FB6F894DEBE0FBE9E
:1032B000CDBE0C94270DE09131037DE0E79FC00166
:1032C0001124FC01EA54F84F26E0ABE8B5E0019088
:1032D0000D922A95E1F726E0E6E1F2E0A1E9B5E0FA
:1032E00001900D922A95E1F7FC01EB54F84F97817C
:1032F0008085909398058093970503851485618553
:103300007285A80189E995E00E945C2480912403DC
:1033100081111AC0809125038230B1F40E948F057B
:10332000811114C08BE895E09093600D80935F0D40
:10333000025F1F4F1093FE070093FD0781E080930B
:103340002403809330034BC285E001C087E0909155
:103350003103ADE09A9FF0011124EB54F84F108235
:10336000911103C00E9405063AC2913009F037C29C
:103370000E946E1F34C280912B03282F30E0BDE1E4
:103380008B9FF0011124AF014C54524F9091C20712
:10339000911126C063EC77E06115710509F1EA53DC
:1033A000F24F86E0DB0101900D928A95E1F786E00D
:1033B00098E09093CA078093C9075093CC07409335
:1033C000CB078CE190E09093CE078093CD0711E07E
:1033D0001093C2078CE00E94530210932A03FFC18E
:1033E0009DE1929FF001939FF00D1124ED54F24F57
:1033F000108265E00E94FD06F2C1F090290385E489
:10340000809301081092020886E680930608809354
:10341000050810920808109207088FEF809309089A
:10342000E8E0FE9E800111249801235E354F69017A
:10343000D90116964D915C911797CA0144968093D5
:103440000408909303081196ED91FC9112978081E6
:103450009181A281B3818093110890931208A09367
:103460001308B09314088091240290912502A09132
:103470002602B091270280930D0890930E08A09326
:103480000F08B0931008F9016481758185E198E017
:103490000E945C24D60113968C9180930A081092A6
:1034A0000C0810920B08E1E0F8E040E050E0BA01AF
:1034B00081919191480F591F611D711D88E0E5317F
:1034C000F807B1F7CB01AA27BB270097A105B105E3
:1034D00039F066277727480F591F6A1F7B1FF2CFE5
:1034E000409550956095709550930C0840930B084B
:1034F00080911C0290911D02A0911E02B0911F02AA
:103500008090110890901208A0901308B0901408B1
:1035100040910D0850910E0860910F0870911008AD
:10352000482559256A257B25482359236A237B236F
:10353000452B462B472B19F4E1E1F8E002C0E0E20D
:10354000F2E0408151816281738180959095A095D0
:10355000B0954C015D0184229522A622B7228816DF
:103560009906AA06BB0619F480E092E030C0D0901C
:103570002F0334E0E32EAAE0CA2E8D2D90E0C89EE2
:103580009001C99E300D1124D901A456B44E8D90DE
:103590009D90AD90BC9084169506A606B70631F4B2
:1035A000D0922F03C9018056944E0BC001968370B0
:1035B0009927D82EEA94E110E0CF80932F0380E082
:1035C00090E09093350380933403009719F00E94A4
:1035D000C5071DC080912C03811111C0808191818C
:1035E000A281B3818093951B9093961BA093971B08
:1035F000B093981B10922D030E947C0408C0F80120
:10360000E35EF54F10828F2D0E94E105E8C081E056
:1036100080932803E4C0E0912703EE2EF12CBBE059
:10362000EB9FF0011124E75BF24F418552858A013F
:103630000C5F1F4F858180933F0A86818093400AEB
:103640006781708583E49AE00E945C241092420AAC
:103650001092410AA80156954795EFE3FAE020E061
:1036600030E080E090E0DC012417350749F06191FB
:103670007191860F971FA11DB11D2F5F3F4FF4CF92
:10368000AD0166277727411551056105710539F0B0
:10369000AA27BB27840F951FA61FB71FF1CF8095C0
:1036A0009095A095B0959093420A8093410A80919D
:1036B0001D0A811126C08EE19AE0892B11F12BE0C1
:1036C0002E9DC0012F9D900D1124865B924F9093EB
:1036D0001F0A80931E0AFF24F394F092200A8FE3BE
:1036E0009AE09093220A8093210A1093240A00936F
:1036F000230AF0921D0A80E10E945302F0922603F1
:103700006EC08BE08E9DF0018F9DF00D1124E75B64
:10371000F24F108264C08CB58F7B8CBD0C947D11F0
:103720009091030B8091040B90930C0B80930B0BE7
:103730009091050B8091060B90930E0B80930D0BCF
:103740004091090B50910A0B8A01085F1F4F0093AB
:10375000100B10930F0B6091070B7091080B83E116
:103760009BE00E945C248091250A81111FC086E2A3
:103770009AE0892BD9F08FEF9AE09093270A8093F3
:10378000260A81E18093280A8BE09BE090932A0A25
:103790008093290A10932C0A00932B0AF092250A91
:1037A00080E10E945302F0921F0319C01092FE0A9A
:1037B0000E94500514C081E080930C021092140303
:1037C00080917A008F7780937A003FCB2FB7F8945F
:1037D00080916F05909170059D7F0C946F130FB6CB
:1037E000F8947EBE0FBE6DBECC53DF4F0FB6F8947B
:1037F000DEBF0FBECDBFDF91CF911F910F91FF9024
:10380000EF90DF90CF90BF90AF909F908F907F9080
:103810006F905F904F903F902F9008958FB7F894DE
:1038200008958FBF08951F920F920FB60F92112423
:103830000BB60F922F933F934F935F936F937F93AA
:103840008F939F93AF93BF93EF93FF932FB7F8940A
:1038500080912D0A90912E0AA0912F0AB091300AE2
:103860000196A11DB11D80932D0A90932E0AA0935D
:103870002F0AB093300A2FBF78940E94C903FF919A
:10388000EF91BF91AF919F918F917F916F915F91D8
:103890004F913F912F910F900BBE0F900FBE0F9045
:1038A0001F9018951F920F920FB60F9211240F9030
:1038B0000FBE0F901F9018951F920F920FB60F9288
:1038C00011240BB60F92CF92DF92EF92FF920F93DB
:1038D0001F932F933F934F935F936F937F938F9398
:1038E0009F93AF93BF93CF93DF93EF93FF932EB547
:1038F000E0913E03F0913F03309739F08091370A11
:103900009091380AE80FF91F20838091370A90912F
:10391000380A01969093380A8093370A8CB58F77CE
:103920008CBDC091370AD091380A20918F1B3091FD
:10393000901BC217D307D8F50091F8071091F9072B
:10394000C0903E03D0903F03CE010A962817390756
:1039500008F4C9017C0121E0E21AF108CE15DF0567
:10396000A0F40115110529F0F801EC0FFD1F80816D
:1039700001C080E00E94F802C114D10421F0F601D8
:10398000EC0FFD1F80832196E9CF8CB580688CBD3C
:103990000115110531F0F801EC0FFD1F80818EBD7E
:1039A00001C01EBCD093380AC093370A11C01092D0
:1039B0003F0310923E031092F9071092F8071092FD
:1039C000901B10928F1B1092380A1092370A8EB5F6
:1039D000FF91EF91DF91CF91BF91AF919F918F9127
:1039E0007F916F915F914F913F912F911F910F9117
:1039F000FF90EF90DF90CF900F900BBE0F900FBE17
:103A00000F901F9018951F920F920FB60F921124CE
:103A10000F900FBE0F901F9018951F920F920FB628
:103A20000F9211240F900FBE0F901F9018951F92A8
:103A30000F920FB60F9211240BB60F922F933F9354
:103A40004F935F936F937F938F939F93AF93BF93A6
:103A5000EF93FF9382E10E945302FF91EF91BF9198
:103A6000AF919F918F917F916F915F914F913F9116
:103A70002F910F900BBE0F900FBE0F901F901895B7
:103A80001F920F920FB60F9211240BB60F922F9325
:103A90003F934F935F936F937F938F939F93AF93D6
:103AA000BF93EF93FF9380912C1B823029F08330DA
:103AB00041F0811116C00AC00E9451020E94750295
:103AC00012C00E9451020E947B020DC08091341BE3
:103AD000882349F086E080932C1B89E10E945302E1
:103AE00002C00E945102FF91EF91BF91AF919F914F
:103AF0008F917F916F915F914F913F912F910F9097
:103B00000BBE0F900FBE0F901F9018951F920F9233
:103B10000FB60F9211240F900FBE0F901F901895A3
:103B20001F920F920FB60F9211240F900FBE0F909D
:103B30001F9018951F920F920FB60F9211240F909D
:103B40000FBE0F901F9018951F920F920FB60F92F5
:103B500011240F900FBE0F901F9018951F920F9277
:103B60000FB60F9211240BB60F922F933F934F93E2
:103B70005F936F937F938F939F93AF93BF93EF93D5
:103B8000FF930E949D028091B900982F987F209109
:103B90001703243079F1263021F0233009F04DC08D
:103BA00013C080911603813049F4903429F483E0E6
:103BB0008093170381E010C084E016C09831E1F7CC
:103BC00083E08093170313C020911603213039F44A
:103BD000807F803541F480E00E9470082EC09832CA
:103BE00031F0903321F081E00E94100926C00E943C
:103BF000DD0823C08091C41B8E7F8093C41B8091FD
:103C0000410D8F7D983029F0903119F08093410D4E
:103C1000EACF80648093410D91E08091160381305A
:103C200009F090E08091330A880F892B8093BB00C4
:103C300086E0809317030E943202FF91EF91BF91BB
:103C4000AF919F918F917F916F915F914F913F9134
:103C50002F910F900BBE0F900FBE0F901F901895D5
:103C60001F920F920FB60F9211240BB60F922F9343
:103C70003F934F935F936F937F938F939F93AF93F4
:103C8000BF93EF93FF93909106018091000897FDF9
:103C900011C08350883008F07BC080913203869534
:103CA000809332039091060196FF72C080688093E2
:103CB00032036EC0815080930008811169C09091D9
:103CC0003203903E09F461C08091381B811155C0C8
:103CD000993549F0903F19F0923149F404C081E0E0
:103CE0008093381B52C081E08093F3074EC08091CF
:103CF000F30760E081111FC081E4262F30E0280F18
:103D0000311D35952795A901440F551FFA01E65439
:103D1000FE4FE491E91718F461E0620F09C09E17A5
:103D200018F48FEF820F04C0FA01E554FE4F1EC055
:103D3000861718F72AC081E4262F30E0280F311D9E
:103D400035952795A901440F551FFA01EE5CFE4FEA
:103D5000E491E91718F461E0620F0CC09E1718F4A3
:103D60008FEF820F07C0FA01ED5CFE4F84910E9435
:103D700037040BC0861700F708C01092381B923129
:103D800011F0993511F41092F3078BE0809300083D
:103D9000FF91EF91BF91AF919F918F917F916F9123
:103DA0005F914F913F912F910F900BBE0F900FBEDF
:103DB0000F901F9018951F920F920FB60F9211241B
:103DC0000BB60F922F933F934F935F936F937F9315
:103DD0008F939F93AF93BF93CF93EF93FF932091D4
:103DE00078003091790078944FB7F8948091921BC5
:103DF00081FB992790F981704FBF811122C080917A
:103E00007A00877F80937A008091D90A813019F0F7
:103E1000823091F036C0911107C08DE790E00E948A
:103E200073040E940F072DC03093440D2093430D5F
:103E300082E20E94530225C0992379F31092D90A95
:103E400020C0CFB7F8940E948102CFBF2FB7F8945B
:103E500080917A0086FB992790F9877F806190FB9B
:103E600086F98F7780937A00877F80618F7B8F7749
:103E700080937A00877F80618F7B806880937A004F
:103E80002FBFFF91EF91CF91BF91AF919F918F91F4
:103E90007F916F915F914F913F912F910F900BBE4A
:103EA0000F900FBE0F901F901895CF93DF931F9226
:103EB000CDB7DEB789830E94390289810E94FE0254
:103EC0008FEF0E94FE028FEF0E94F80289830E940A
:103ED000370289810F90DF91CF910895682F10925A
:103EE0002A0380912B039DE1899FF0011124ED5459
:103EF000F24F10820E94FD068FE00C945302CF9384
:103F0000DF93CDB7DEB763970FB6F894DEBF0FBE71
:103F1000CDBF0FB7F89444E250E06FEF70E08FEC44
:103F200097E00E9465248FEF8093351B8093991B47
:103F300088EE91E09093371B8093361B089A099A7C
:103F40000A9A10981198129880E0877F8F7E8F7D53
:103F50008F7B8F7780937A0081E083BF0E943F023E
:103F60008F3F19F00E945F0AF9CF87B18C6F87B934
:103F700018E288EE93E00E9473041150D1F760E0DC
:103F800088E20E94810588E290E00E94730460E06C
:103F900088E20E94810588E290E00E94730460E05C
:103FA0008CE00E94810588E290E00E94730460E04A
:103FB00081E00E94810588EE93E00E94730488EE00
:103FC00093E00E94730460E086E00E94810588E22D
:103FD00090E00E94730440E250E060E270E08BEDFC
:103FE0009AE00E94652481E080933A0A80933B0A1C
:103FF0001092391B1092420D1092130D8FEF809387
:104000003C0A88EF9DE0E1E8FDE0819391938E57B3
:104010009F4F2DE0E33BF207C1F789E18093DA0A75
:104020001092390A1FEF1093FF07729A739A7498CF
:10403000759A0E943D02779A6A9A6B9A6C9A6D9A69
:104040006E9A6F9A82B112B881B111B96FE380E0B4
:104050000E9460096FE381E00E94600960EC80E0EB
:104060000E94600960EC81E00E9460098091B600C6
:1040700080728093B6008091B60081FDFCCF82E013
:104080008093B0008091B60080FDFCCF85E08093E6
:10409000B1008CE78093B3008091700082608093C0
:1040A00070000E94A50260931D0D70931E0D8093F9
:1040B0001F0D9093200D80E395E7A0E0B0E0809382
:1040C000210D9093220DA093230DB093240D809188
:1040D000250D8E7F82608093250D0E947202809153
:1040E00028029091290290932602809327020E9431
:1040F0003F028F3F19F00E945F0AF9CF0FBF7894FB
:104100008FB7F8941092911B8FBF1092FB0A1092F8
:10411000320A1092391B1092420D8BE093E00E94FC
:104120000F040E9442040E94410A9FB7F8948091B4
:1041300007018F77809307019FBF9FB7F894809105
:1041400007018F7B809307019FBF80916D0080687E
:1041500080936D008FB7F8949BE0909300081092C5
:10416000F3071092381B8FBF8091680084608093A2
:1041700068009FB7F89480912C1B9FBF811135C0B8
:104180009FB7F89481E080932C1B10922D1B109206
:104190002E1B10922F1B1092301B1092341B80E2AA
:1041A000EBE6F5E0DF01282F1D922A95E9F7E1E61D
:1041B000FDE0DF011D928A95E9F79FBF529A5A9858
:1041C000519A599853985B988091690080688093C0
:1041D0006900809169008F7B8093690041E050E025
:1041E00060E070E082E00E94B10280EC80932402E3
:1041F00098EA909325022AE22093260242E0409317
:1042000027023FEF30931C0230931D0230931E02B1
:1042100010921F0280932002909321022093220289
:1042200031E0309323021F924F931F922F931F92DE
:104230009F931F928F938EEE92E09F938F938E01A8
:104240000F5F1F4F1F930F930E9401254CE360E007
:10425000C8010E94950910923D0A1092360A0FB6C5
:10426000F894DEBF0FBECDBF80912503811136C00B
:10427000209A0E943702249A2C981B8A1A8A8A89CB
:104280009B8980329E4430F48A899B8901969B8B5E
:104290008A8BF5CF2C9A1B8A1A8A8A899B8980324D
:1042A0009E4430F48A899B8901969B8B8A8BF5CF3B
:1042B00052985A9A84E08CBB809169008062809306
:1042C0006900809169008F7E80936900EA9A0E945C
:1042D0008F05811103C081E0809325034AE060E0EF
:1042E00083E093E00E9495091FB7F8940E943F0273
:1042F0008F3F09F058C080917000837089F08091E1
:10430000B6008A71E1F78091B3009091B200891BE9
:10431000883040F08091B200893F20F483E003C0F0
:1043200085E001C082E0E0916E00E67029F5909191
:104330006F009E7221F5E0917100EE72E9F49091A8
:1043400072009E72E1F4E0917300EE72A9F40CB475
:1043500007FC15C09091C100987189F4E091C900E3
:10436000E87151F49091BC0092FD09C090917A00DF
:1043700097FD04C0E5E003C0E0E001C0E1E093B7D1
:104380008E1708F4E82FF0E0E45DFE4F8491E92FEA
:10439000E07FE160E82BE3BF78948895F89483B7D9
:1043A0008E7F83BFA3CF1FBF0E945F0A9DCFAA1B32
:1043B000BB1B51E107C0AA1FBB1FA617B70710F010
:1043C000A61BB70B881F991F5A95A9F78095909542
:1043D000BC01CD010895EE0FFF1F0590F491E02D73
:1043E00009942F923F924F925F926F927F928F9299
:1043F0009F92AF92BF92CF92DF92EF92FF920F9374
:104400001F93CF93DF935C016B017A0161157105F6
:1044100019F0FB0191838083E114F10429F0C701B5
:104420000297839708F0F1C0E5012196F50110810C
:10443000812F90E00E945424892B11F05E01F4CF6B
:104440001D3229F42196F501118101E007C01B32CC
:1044500021F4E5012296F501118100E0E114F10457
:1044600059F1F0E1EF16F10461F41033E1F48881C1
:104470008F7D883569F519812296026070E1E72EFB
:10448000F12C88E0E816F10439F12CF4F2E0EF1693
:10449000F104C9F12AC08AE0E816F10479F0E0E1FC
:1044A000EE16F10411F550E1E52EF12C812C912C42
:1044B000A12C68E0B62E2CC01033C9F23AE0E32EEE
:1044C000F12C4CEC842E982CA82C4CE0B42E20C05F
:1044D00010E3E114F104A9F698E0E92EF12C812C07
:1044E000912CA12C20E1B22E13C060E070E080E09E
:1044F00090E89701442737FD4095542F0E94EB2701
:1045000049015A0105C0812C912CA12C80E4B82EC0
:1045100060E020E030E0A9012701662457FC6094A8
:10452000762C1E01E0EDE10FEA3060F08FEB810F99
:104530008A3110F4E9EC05C08FE9810F8A3128F542
:10454000E9EAE10F8E2F90E08E159F05F4F467FDE8
:1045500018C082169306A406B50690F0C301B201F6
:104560000E94DB279B01AC012E0F311D411D511D07
:10457000213031054105F0E85F0710F461E001C02A
:104580006FEF2196F1011081CCCF802F8170C11483
:10459000D10471F0662329F02197F601D183C083FD
:1045A00007C001FF19C02297F601D183C08314C050
:1045B00067FF12C0811105C02FEF3FEF4FEF5FE79C
:1045C00004C020E030E040E050E882E290E09093C8
:1045D000C61B8093C51B16C0882341F0509540959B
:1045E000309521953F4F4F4F5F4F0CC057FF0AC08A
:1045F00082E290E09093C61B8093C51B2FEF3FEFA4
:104600004FEF5FE7B901CA0104C060E070E080E0ED
:1046100090E0DF91CF911F910F91FF90EF90DF908D
:10462000CF90BF90AF909F908F907F906F905F9052
:104630004F903F902F9008952F923F924F925F920C
:104640006F927F928F929F92AF92BF92CF92DF92A2
:10465000EF92FF920F931F93CF93DF9300D000D080
:1046600000D0CDB7DEB75C016B017A016115710531
:1046700019F0DB018D939C93E114F10429F0C7013B
:104680000297839708F0DCC03501BFEF6B1A7B0AF5
:10469000F5011081812F90E00E945424892B11F0A4
:1046A0005301F2CF1D3249F43501F2E06F0E711C57
:1046B000D50111961C9101E009C01B3231F435017E
:1046C000B2E06B0E711CF501118100E0E114F10400
:1046D00009F4C4C0F0E1EF16F10489F4103399F540
:1046E000D3018C918F7D883509F0B2C011961C9151
:1046F000B2E06B0E711C026050E1E52EF12CEAE095
:10470000EE16F10409F4B0C0F0E1EF16F104D9F0AF
:1047100028E0E216F10451F438E0E32EF12C88246D
:104720008A94982CA82C4FE1B42E13C06FEF7FEF22
:10473000CB019701442737FD4095542F0E94EB276A
:1047400049015A0106C088248A94982CA82C2FE08D
:10475000B22E7E826D8260E020E030E0A901270168
:10476000662457FC6094762C2D803E80E0EDE10FAE
:10477000EA3060F08FEB810F8A3110F4E9EC05C06C
:104780008FE9810F8A3190F5E9EAE10F8E2F90E0F1
:104790008E159F055CF56F3F09F182169306A406FE
:1047A000B506D8F0C301B2010E94DB272E2F30E0FE
:1047B00040E050E029833A834B835C83260F371F08
:1047C000481F591F89819A81AB81BC8128173907FD
:1047D0004A075B0710F061E001C06FEFED81FE81D9
:1047E0003196FE83ED83D1011C91BECFC114D1045B
:1047F00089F0662339F08D819E810197F6019183BE
:10480000808308C001FF06C08D819E810297D6017A
:104810008D939C9300FF07C050954095309521954E
:104820003F4F4F4F5F4F67FF10C082E290E0909381
:10483000C61B8093C51B6FEF7FEF8FEF9FEF1BC0F1
:1048400060E070E080E090E016C0B901CA0113C0DA
:1048500010E3E114F10409F45FCF51CF103309F4F0
:104860003FCF9AE0E92EF12C89E9882E982CA82CCC
:1048700089E1B82E6ECF26960FB6F894DEBF0FBE34
:10488000CDBFDF91CF911F910F91FF90EF90DF90FF
:10489000CF90BF90AF909F908F907F906F905F90E0
:1048A0004F903F902F9008959111D6C2803219F009
:1048B00089508550D0F70895FB01DC0102C00190BA
:1048C0000D9241505040D8F70895DC0101C06D931E
:1048D00041505040E0F70895FC018191861721F086
:1048E0008823D9F7992708953197CF010895FB01BF
:1048F000DC018D91019080190110D9F3990B089575
:10490000FB01DC014150504030F08D910190801945
:1049100019F40020B9F7881B990B0895FB01DC01FD
:104920004150504048F001900D920020C9F701C05D
:104930001D9241505040E0F70895FA01A191B081D5
:10494000009719F41097E1F0CD01DC01CD010D9035
:10495000002011F4C00113C0FB012191222319F0A2
:104960002015D9F7F3CFFB012191201519F41E92E0
:10497000119606C02223C1F70D900020A1F7D001A7
:10498000FA01A193B08308950F931F93CF93DF9300
:10499000CDB7DEB72E970FB6F894DEBF0FBECDBFF2
:1049A0000D891E898F89988D26E02C831A830983AF
:1049B00097FF02C080E090E801979E838D83AE014F
:1049C000455E5F4F698D7A8DCE0101960E9431253B
:1049D0004D815E8157FD0AC02F81388542175307EC
:1049E0000CF49A01F801E20FF31F10822E960FB615
:1049F000F894DEBF0FBECDBFDF91CF911F910F9115
:104A000008950F931F93CF93DF93CDB7DEB72E9703
:104A10000FB6F894DEBF0FBECDBF0D891E8986E0AC
:104A20008C831A8309838FEF9FE79E838D83AE016A
:104A3000475E5F4F6F89788DCE0101960E943125C8
:104A40002F813885F801E20FF31F10822E960FB6E2
:104A5000F894DEBF0FBECDBFDF91CF911F910F91B4
:104A600008952F923F924F925F926F927F928F9212
:104A70009F92AF92BF92CF92DF92EF92FF920F93ED
:104A80001F93CF93DF93CDB7DEB72C970FB6F89473
:104A9000DEBF0FBECDBF7C016B018A01FC01178216
:104AA0001682838181FFBDC1CE0101964C01F701C1
:104AB0009381F60193FD859193FF81916F01882386
:104AC00009F4ABC1853239F493FD859193FF81914F
:104AD0006F01853229F4B70190E00E944527E7CFA6
:104AE000512C312C20E02032A0F48B3269F030F4CC
:104AF000803259F0833269F420612CC08D3239F054
:104B0000803339F4216026C02260246023C02860ED
:104B100021C027FD27C030ED380F3A3078F426FF4A
:104B200006C0FAE05F9E300D1124532E13C08AE0B8
:104B3000389E300D1124332E20620CC08E3221F4A9
:104B400026FD6BC1206406C08C3611F4206802C0BB
:104B5000883641F4F60193FD859193FF81916F01B1
:104B60008111C1CF982F9F7D9554933028F40C5F0D
:104B70001F4FFFE3F9830DC0833631F0833771F0A7
:104B8000833509F05BC022C0F801808189830E5F04
:104B90001F4F44244394512C540115C03801F2E0B6
:104BA0006F0E711CF801A080B18026FF03C0652D37
:104BB00070E002C06FEF7FEFC5012C870E943A279B
:104BC0002C0183012C852F77222E17C03801F2E0AB
:104BD0006F0E711CF801A080B18026FF03C0652D07
:104BE00070E002C06FEF7FEFC5012C870E942F2776
:104BF0002C012C852068222E830123FC1BC0832DD1
:104C000090E048165906B0F4B70180E290E00E94A7
:104C100045273A94F4CFF50127FC859127FE819131
:104C20005F01B70190E00E94452731103A94F1E00E
:104C30004F1A51084114510471F7E5C0843611F040
:104C4000893639F5F80127FF07C0608171818281BB
:104C500093810C5F1F4F08C060817181882777FDA9
:104C60008095982F0E5F1F4F2F76722E97FF09C0E9
:104C700090958095709561957F4F8F4F9F4F2068DD
:104C8000722E2AE030E0A4010E947D27A82EA818E9
:104C900044C0853729F42F7EB22E2AE030E025C0AB
:104CA000F22FF97FBF2E8F36C1F018F4883579F0D6
:104CB000B4C0803719F0883721F0AFC02F2F2061A2
:104CC000B22EB4FE0DC08B2D8460B82E09C024FF17
:104CD0000AC09F2F9660B92E06C028E030E005C0BC
:104CE00020E130E002C020E132E0F801B7FE07C069
:104CF00060817181828193810C5F1F4F06C060814A
:104D0000718180E090E00E5F1F4FA4010E947D271B
:104D1000A82EA818FB2DFF777F2E76FE0BC0372D0F
:104D20003E7FA51450F474FE0AC072FC08C0372DF3
:104D30003E7E05C0BA2C372D03C0BA2C01C0B52C5D
:104D400034FF0DC0FE01EA0DF11D8081803311F4A6
:104D5000397E09C032FF06C0B394B39404C0832FD8
:104D6000867809F0B39433FD13C030FF06C05A2C87
:104D7000B31418F4530C5B18B32CB31468F4B701D4
:104D800080E290E03C870E944527B3943C85F5CFB4
:104D9000B31410F43B1801C0312C34FF12C0B7011A
:104DA00080E390E03C870E9445273C8532FF17C096
:104DB00031FD03C088E790E002C088E590E0B701CC
:104DC0000CC0832F867859F031FF02C08BE201C0FE
:104DD00080E237FD8DE2B70190E00E944527A514DF
:104DE00038F4B70180E390E00E9445275A94F7CF4A
:104DF000AA94F401EA0DF11D8081B70190E00E94B0
:104E00004527A110F5CF332009F451CEB70180E238
:104E100090E00E9445273A94F6CFF701868197816A
:104E200002C08FEF9FEF2C960FB6F894DEBF0FBE37
:104E3000CDBFDF91CF911F910F91FF90EF90DF9049
:104E4000CF90BF90AF909F908F907F906F905F902A
:104E50004F903F902F900895992788270895FC013F
:104E60000590615070400110D8F7809590958E0F95
:104E70009F1F0895FC016150704001900110D8F708
:104E8000809590958E0F9F1F08950F931F93CF933A
:104E9000DF93FB01238121FD03C08FEF9FEF28C02B
:104EA00022FF16C04681578124813581421753075E
:104EB00044F4A081B1819D012F5F3F4F3183208356
:104EC0008C93268137812F5F3F4F3783268310C015
:104ED000EB01092F182F0084F185E02D0995892B0E
:104EE000E1F68E819F8101969F838E83812F902F83
:104EF000DF91CF911F910F910895FA01AA272830D1
:104F000051F1203181F1E8946F936E7F6E5F7F4F96
:104F10008F4F9F4FAF4FB1E03ED0B4E03CD0670F12
:104F2000781F891F9A1FA11D680F791F8A1F911D65
:104F3000A11D6A0F711D811D911DA11D20D009F4B5
:104F400068943F912AE0269F11243019305D3193F7
:104F5000DEF6CF010895462F4770405D4193B3E0E0
:104F60000FD0C9F7F6CF462F4F70405D4A3318F087
:104F7000495D31FD4052419302D0A9F7EACFB4E038
:104F8000A6959795879577956795BA95C9F70097F0
:104F90006105710508959B01AC010A2E0694579591
:104FA000479537952795BA95C9F7620F731F841FE8
:104FB000951FA01D0895DB018F939F930E940D28DC
:104FC000BF91AF91A29F800D911DA39F900DB29FA5
:104FD000900D11240895A1E21A2EAA1BBB1BFD01FE
:104FE0000DC0AA1FBB1FEE1FFF1FA217B307E407C8
:104FF000F50720F0A21BB30BE40BF50B661F771F20
:10500000881F991F1A9469F76095709580959095FF
:105010009B01AC01BD01CF0108950E941828A59FF6
:10502000900DB49F900DA49F800D911D11240895A3
:10503000A29FB001B39FC001A39F700D811D1124D9
:10504000911DB29F700D811D1124911D0895F8943A
:10505000FFCFFFFFFFFFFFFFFFFFFFFFFFFF01FF8E
:1050600001FFFFFFFFFF0006010203040506FFFF2B
:1050700000000A3C00010A3C000A0100657272004F
:10508000006F6B0000207F050706084202456E7422
:105090006572206368616E6E656C3A00700025640D
:1050A0002E2564004368616E6E656C3A20004D48A1
:1050B0007A006700526164696F20696E6974696182
:1050C0006C697A65642E00526164696F20696E694B
:1050D00074206661696C656421003D006964006646
:1050E000726571007069636F646500716469616CF9
:1050F000006E616D6500252D3873006E6F7465005C
:10510000713D25642C663D25642C703D25642C6E14
:105110003D25732C6E3D25730A002C006765740DC8
:1051200069643D25640A00636D6400616464007510
:10513000706461746500253032643A253032640051
:105140003E253033642E253033642E253033642ED3
:105150002530336400696E697420666D00566F6C8B
:06516000756D653A0000C8
:00000001FF
