S01F00006275696C642F626967415652365F313238302F6D61696E2E7372656377
S11300000C94D5020C9494240C949E240C94A8244F
S11300100C94D1240C9417250C9421250C942B2595
S11300200C9435250C94F4020C94F4020C94C12520
S11300300C94F4020C94A4230C94F4020C94E32383
S11300400C94F4020C94F4020C94F4020C94F40254
S11300500C94F4020C94F4020C94F4020C94F40244
S11300600C94ED230C94F4020C94F4020C94F4021A
S11300700C94F4020C946C260C94F4020C94F40288
S11300800C94F4020C94F4020C94F4020C94F40214
S11300900C94F4020C94F4020C94F4020C943F2596
S11300A00C94F4020C94F4020C94F4020C94F402F4
S11300B00C94F4020C94F4020C94F4020C94F402E4
S11300C00C94F4020C94F4020C94F4020C94F402D4
S11300D00C94F4020C94F4020C94F4020C94F402C4
S11300E00C94F40238113C11C811CC115812851229
S11300F091129D12A912D012AE13CD131314AE1582
S1130100E515D51756187C18C718CB18F8182419F4
S11301104A19511966192D1B3C1B821C411D2D1EA9
S11301201D1F301F701FA11FE71F04202B20392023
S11301305420B020E913EC13EF13F213F513F81362
S1130140FB13FE13011400020E060C040D090E78B5
S1130150155116211A591B531C411D571E222143A8
S11301602258234424452578262329202A562B4621
S11301702C542D522E25314E324233483447355AB1
S11301803626394C3A4D3B4A3C553D2F3E28413B9F
S1130190424B4349444F453D4629493A4A5F4B4CFB
S11301A04C784D504E3F5278547855605A0A5B5EF5
S11301B05D2A613E660869316B346C377030712C8E
S11301C07232733574367538792B7A337B2D7C2AE9
S11301D07D3900000D090E7C157116311A791B73D7
S11301E01C611D771E322163227823642465253423
S11301F0263329202A762B662C742D722E35316EE7
S1130200326233683467357A3636392C3A6D3B6A54
S11302103C753D373E38412C426B4369446F453051
S11302204639492E4A2D4B6C4C6F4D704E2B526FF4
S1130230546F555C5A0A5B785D27613C66086931E6
S11302406B346C377030712C723273357436753888
S1130250792B7A337B2D7C2A7D3900000000000045
S11302600000005F00000007000700147F147F14E3
S1130270242A7F2A12231308646236495522500027
S113028005030000001C2241000041221C00082A32
S11302901C2A0808083E0808005030000008080816
S11302A00808006060000020100804023E5149451F
S11302B03E00427F400042615149462141454B3155
S11302C01814127F1027454545393C4A49493001E5
S11302D0710905033649494936064949291E00363C
S11302E0360000005636000000081422411414148D
S11302F014144122140800020151090632497941BB
S11303003E7E1111117E7F494949363E41414122C9
S11303107F4141221C7F494949417F090901013E2E
S1130320414151327F0808087F00417F410020404D
S1130330413F017F081422417F404040407F020436
S1130340027F7F0408107F3E4141413E7F09090935
S1130350063E4151215E7F091929464649494931E2
S113036001017F01013F4040403F1F2040201F7F8B
S11303702018207F63140814630304780403615174
S113038049454300007F4141020408102041417F58
S11303900000040201020440404040400001020405
S11303A00020545454787F4844443838444444200A
S11303B0384444487F3854545418087E09010208CC
S11303C01454543C7F0804047800447D40002040C9
S11303D0443D00007F10284400417F40007C041805
S11303E004787C0804047838444444387C14141495
S11303F008081414187C7C08040408485454542035
S1130400043F4440203C4040207C1C2040201C3CB5
S11304104030403C44281028440C5050503C446424
S1130420544C44000836410000007F00000041366F
S1130430080008082A1C08081C2A08086E6F74653E
S1130440006E616D6500716469616C007069636F51
S113045064650066726571006964004368616E6E6C
S1130460656C2044422046756C6C00676574006DB1
S11304707367007075726765616C6C006C69737486
S11304800075706461746500616464006F6B0041A1
S11304906C7265616479206661766F7572697465E2
S11304A021004368616E6E656C206E6F7420696E06
S11304B0206C69737421004661766F757269746586
S11304C0206E6F7420736574210042616E64206C29
S11304D0696D6974207265616368656421004442D2
S11304E0206572726F72210044422066756C6C2123
S11304F0004661766F7572697465732066756C6CFD
S113050021004368616E6E656C206C6973742066AB
S1130510756C6C2100496E76616C69642063686156
S11305206E6E656C2100464D436C69636B20696E89
S11305306974206661696C65642100556E6B6E6F29
S1130540776E206572726F7221004572726F723A13
S1130550004E6F20524453206461746121002020B6
S11305602020202020202020202020202020202087
S113057020202000202020202000202020202020B7
S1130580202000566F6C756D653A004D487A004521
S11305906E746572204E6F74653A00456E746572B0
S11305A0204368616E6E656C3A0011241FBECFEF64
S11305B0D1E2DEBFCDBF12E0A0E0B2E0E8ECF2E6AB
S11305C000E00BBF02C007900D92AE38B107D9F717
S11305D013E1AEE8B2E001C01D92A030B107E1F72B
S11305E00E948E280C9462310C9400008091E911D1
S11305F08093BC00089576980895289A08952898C1
S11306000895769A0895809173128F3F69F0E82FC8
S1130610F0E0E559F34F9081909373129F3F11F4EA
S11306209093D2129FEF90830895EB9808959FB70B
S1130630F894E82FF0E0E559F34F20812F3F99F427
S1130640E091D212E81779F0209173122F3F19F438
S11306508093731204C0F0E0E559F34F80838093D4
S1130660D21280E001C085E09FBF08958BE00C9416
S1130670170388E00C9417038DE00C94170380E2B1
S11306800C9417038CE10C9417038BE10C9417035F
S113069082E00C9417038EE10C941703ECE7F0E06E
S11306A0208180917B00308190818870880F880F31
S11306B02F71822B35FB222720F920FB86F9929596
S11306C0969596959370292F279522272795822B07
S11306D0969508958FB7F8949091BC009093E91182
S11306E08FBF08952FB7F8946091CB0E7091CC0E04
S11306F08091CD0E9091CE0E2FBF0895CF92DF92B0
S1130700EF92FF92CF93C82F6A017B010E9472037C
S113071029E0C29FF0011124DF01A655BE4E6D935E
S11307207D938D939C9313971496CD92DD92ED92C5
S1130730FC921797EE54FE4E808181608260808324
S113074082E1CF91FF90EF90DF90CF900C9417034C
S11307508EBD0DB407FEFDCF8EB508950C94A8038D
S1130760CF93DF9300D0CDB7DEB76A8389830E942D
S1130770FF0289810E94AE036A81862F0E94AE0324
S11307800F900F90DF91CF910C94FD02CF93DF93E4
S11307901F92CDB7DEB789830E94FF0289810E9430
S11307A0AE0380E00E94A80389830E94FD02898130
S11307B00F90DF91CF910895CF93DF9300D0CDB701
S11307C0DEB76A8389830E94FF02898180680E9460
S11307D0AE036A81862F0E94AE030F900F90DF91C3
S11307E0CF910C94FD028F929F92AF92BF92CF92C1
S11307F0DF92EF92FF920F931F93CF93DF932FEF2C
S1130800280F9DE1299F900111248901075D1D4E48
S1130810F8019081911140C0E901C65DDD4E209739
S1130820D9F17A0151E0598318821B8298E09A83A6
S113083096E09C8344E04D838090240290902502AE
S1130840A0902602B09027028786908AA18AB28A55
S1130850D901AE5CBD4EE6E1F2E0492F01900D9264
S11308604A95E1F7D901A45CBD4EFB0101900D92BC
S11308709A95E1F7F701C080D180E280F380F80116
S1130880C18ED28EE38EF48E8F831E82508383E1D9
S11308900E94170380E001C085E0DF91CF911F9192
S11308A00F91FF90EF90DF90CF90BF90AF909F900B
S11308B08F9008952FB7F8948091D907882309F170
S11308C04091ED115091EE116091EF117091F01182
S11308D08091930C9091940CA091950CB091960CEE
S11308E0840F951FA61FB71F4091CB0E5091CC0EBD
S11308F06091CD0E7091CE0E481759076A077B0799
S113090011F02FBF08951092D9072FBF81E10C94E5
S11309101703BC014091D60326ED33E090E0941711
S113092061F0255C3F4FF901F9970190F081E02DCA
S1130930E617F70721F09F5FF2CF8FEF0895892F15
S113094008952FB7F89490916C122FBF91110EC097
S11309509FB7F89423E020936C1210927012809346
S1130960D30E9FBF0E94420380E0089581E0089562
S1130970DC0181E04D91442311F12091761230E0A5
S11309809091EA11F90154E0EE0FFF1F5A95E1F737
S1130990E90FF11DEC58F04F40839F5F9093EA11EB
S11309A0F901EA52F14F8083903121F71092EA1154
S11309B02F5F3F4F2170332720937612DBCF0895AA
S11309C0282FFC0190E28E2F821B861740F4808131
S11309D08A3011F08D3009F490833196F4CF089564
S11309E09091D7078093D607923031F0983031F048
S11309F0913039F48CE003C080E001C081E00C94B4
S1130A00170308958FB7F894E6E7F7E01082118290
S1130A10128213828FBF89E0ECE7F7E0DF011D92B9
S1130A208A95E9F781E4E5E8F7E0DF011D928A950C
S1130A30E9F786E0E6ECF7E0DF011D928A95E9F735
S1130A4008953FB7F8949093D5078093D4072091E5
S1130A50D7073FBF2430D9F02530C9F489339440F7
S1130A60E0F08091D603882391F00E9402058FB7AD
S1130A70F8942091D8033091D9033093D30720936D
S1130A80D20793E09093D7078FBF0C9439038FB7A5
S1130A90F89491E09093D7078FBF0C9448030F9379
S1130AA01F93CF93DF9300D01F92CDB7DEB7809111
S1130AB0CB031F928F9389E892E09F938F938E01CB
S1130AC00F5F1F4F1F930F930E943C2E1B821092A7
S1130AD0761288E08093EA11C8010E94B80487E284
S1130AE00E9417030F900F900F900F900F900F908C
S1130AF00F900F900F90DF91CF911F910F91089558
S1130B002F923F924F925F926F927F928F929F9219
S1130B10AF92BF92CF92DF92EF92FF920F931F9307
S1130B20CF93DF93CDB7DEB7AD970FB6F894DEBFA2
S1130B300FBECDBF2FB7F8949091C8032FBF91116A
S1130B40F3C08B018BA78FB7F89492E09093C803FE
S1130B508FBF44E050E068E874E0CE0101961C01C8
S1130B600E94852D9E012B5F3F4F47E050E061E8D6
S1130B7074E0C9012CA73DA70E94852D2E019CE09D
S1130B80490E511C43E050E068E574E0C2010E9444
S1130B90852D5E01AFE0AA0EB11C45E050E063E58F
S1130BA074E0C5010E94852D4E01BAE18B0E911CA3
S1130BB047E050E06CE474E0C4010E94852D6E01AE
S1130BC084E1C80ED11C46E050E066E474E0C6013E
S1130BD00E94852D7E0191E2E90EF11C45E050E072
S1130BE061E474E0C7010E94852D3E01A6E26A0E0D
S1130BF0711C45E050E06CE374E0C3010E94852D54
S1130C00E4ECF2E080E8DF011D928A95E9F72CA577
S1130C103DA5BBA5BF3FA1F5D80118968C911897A7
S1130C208F9317968C9117978F937F926F92149648
S1130C308C9114978F9313968C9113978F939F9203
S1130C408F9212968C9112978F9311968C91119783
S1130C508F93BF92AF928C911F928F93DF92CF921A
S1130C6016968C9116978F9315968C918F93FF926D
S1130C70EF921F921F925F924F923F922F9237C032
S1130C809BA59F3008F040C0D80118968C91189706
S1130C908F9317968C9117978F937F926F921496D8
S1130CA08C9114978F9313968C9113978F939F9293
S1130CB08F9212968C9112978F9311968C91119713
S1130CC08F93BF92AF928C911F928F93DF92CF92AA
S1130CD016968C9116978F9315968C918F93FF92FD
S1130CE0EF921F929F935F924F923F932F9382E3D1
S1130CF092E09F938F93FF93EF930E943C2E0FB645
S1130D00F894DEBF0FBECDBF10924303E4ECF2E0D3
S1130D1001900020E9F7CF01855C92409093C302D3
S1130D208093C2020E943C03AD960FB6F894DEBFD6
S1130D300FBECDBFDF91CF911F910F91FF90EF9028
S1130D40DF90CF90BF90AF909F908F907F906F90E7
S1130D505F904F903F902F900895EF92FF920F93E2
S1130D601F93CF93DF93CDB7DEB729970FB6F894CF
S1130D70DEBF0FBECDBF9FB7F8948091C8039FBF5D
S1130D80811133C08FB7F89495E09093C8038FBF57
S1130D9049E050E063E774E0CE0101967C010E94D3
S1130DA0852D04EC12E080E8F80111928A95E9F7A8
S1130DB0FF92EF928CE592E09F938F931F930F9392
S1130DC00E943C2EF80101900020E9F78F01055C98
S1130DD012401093C3020093C2020E943C030F907E
S1130DE00F900F900F900F900F9029960FB6F894D4
S1130DF0DEBF0FBECDBFDF91CF911F910F91FF904A
S1130E00EF900895EF92FF920F931F93CF93DF9388
S1130E10CDB7DEB729970FB6F894DEBF0FBECDBFAE
S1130E20E982FA820B831C832D833E834F83588788
S1130E3069872FB7F8949091D7072FBF91119AC063
S1130E408F3F09F03EC08091D603882381F00E9431
S1130E5002058FB7F8942091D8033091D9033093C9
S1130E60D3072093D20793E09093D7071BC00E9427
S1130E7002050E94AD061092CC0349E050E06FEFEA
S1130E8070E08DEC93E00E94B72D8FB7F894109228
S1130E90D60395E09093D7072BE633E03093D3073E
S1130EA02093D2078FBF29960FB6F894DEBF0FBEEA
S1130EB0CDBFDF91CF911F910F91FF90EF900C94D4
S1130EC039038FB7F8942091D60391E0920F909351
S1130ED0D60330E08FBF4BE3429FC001439F900D88
S1130EE01124DC01A952BC4F29E0FE013196019086
S1130EF00D922A95E1F79C0120523C4F8C010A5235
S1130F001C4FD80117963C932E93169787519C4FEC
S1130F1019969C938E9318978F818F938E818F93BC
S1130F2081E692E09F938F931F9288E08F933F9383
S1130F302F930E94FF2D6885798548E250E0F801DF
S1130F40808591850E94C92DD8011196EC910FB628
S1130F50F894DEBF0FBECDBFEE2361F0F0E0E453A2
S1130F60FC4F8091D603815080838091CC038F5FA6
S1130F708093CC0329960FB6F894DEBF0FBECDBF85
S1130F80DF91CF911F910F91FF90EF9008950197FA
S1130F90019601970196019701960197C1F708956B
S1130FA00F931F93CF93DF93009144031091450354
S1130FB0F801EB5BFC4F20812A30D1F4EC01108264
S1130FC06DE070E086E493E00E94BE2D99838883EF
S1130FD0009741F0FC0110828881998101969983E0
S1130FE0888304C00A5B1C4F1983088381E001C015
S1130FF080E0DF91CF911F910F91089581E080935C
S1131000A0024EEC52E166E072E00E94F30344E673
S113101050E060E070E080E00C947E031F93CF9377
S1131020DF938FB7F894C0919202C1113DC011E0D3
S113103010939202109263128FBFDFB7F8948091DD
S11310409102811117C0509851981092B90081E40F
S11310508093B8001092BA001092BC000E946A03F8
S11310608091E9118E7F84608093E9110E94F602D9
S113107010939102DFBFDFB7F89480910E028130A4
S113108089F480919202813021F483E20E94170353
S113109009C0823039F48091631280930E0283E098
S11310A080939202DFBF1DC0C0916312CC23C1F0B4
S11310B09091D80E9F3F99F4E0910F02EE2379F0BE
S11310C0909110029F3F19F41092100204C0F0E0B6
S11310D0E852F14F108210920F02C0E001C0C5E047
S11310E08FBF8C2FDF91CF911F910895CF93DF9302
S11310F09FB7F894C0918E02C11127C081E08093FC
S11311008E021092D00E9FBF9FB7F89480917A0000
S1131110806880937A009FBFDFB7F89480910C02B7
S1131120813089F480918E02813021F485E20E941D
S1131130170309C0823039F48091D00E80930C02D9
S113114083E080938E02DFBF0FC0C091D00ECC230A
S113115051F08091A91180FD05C081608093A9118F
S1131160C0E001C0C5E09FBF8C2FDF91CF910895EF
S1131170882369F12FB7F89480910F0A9091100A8F
S113118090699093100A80930F0A1092771284E06A
S1131190809364122FBF48E050E060E270E088E77B
S11311A092E10E94B72D40E450E060E270E082E8F2
S11311B092E10E94B72D46E050E060E270E082ECDC
S11311C092E10E94B72D88E08CBBEB9A11C00E947B
S11311D015032FB7F89480910F0A9091100A9F7607
S11311E09093100A80930F0A84E0809364122FBFB7
S11311F00C943F032FB7F8949091D7072FBF811118
S113120013C0963049F0973039F0953029F40E9494
S1131210020587E00C9417038FB7F89491E090933C
S1131220D7078FBF0C944803813021F48FB7F8940B
S113123094E003C08FB7F89495E09093C9038FBFEF
S11312400C9436031F93CF93DF931F92CDB7DEB771
S1131250182F806479830E94B00381E0810F798123
S1131260672F80640F90DF91CF911F910C94B0038E
S1131270660F660F68B9439A98B18295807F982B60
S113128098B943980895CF93DF93C82FD62F8295AA
S11312908F700E9438096D2F8C2FDF91CF910C94A1
S11312A0380910929A02E0919B028BE0E89FF001CA
S11312B01124EF50FE4E108285E10C941703CF9356
S11312C0DF939FB7F89480919502882369F19FBFBB
S11312D0DFB7F894C0919502C11109C081E08093F1
S11312E095021092110288E10E94170318C08091A0
S11312F09E0C8F3F99F4E0911202EE2379F08091D5
S113130013028F3F19F41092130204C0F0E0E25666
S1131310F34F108210921202C0E001C0C5E0DFBF9B
S11313208C2FDF91CF9108958CB58F7B8CBD229A41
S11313302398219A209A8CB580618CBD8CB58F77C7
S11313408CBD8DB58E7F8DBD8CB5877F8CBD8CB5E6
S11313508B7F8CBD8CB58C7F8CBD8CB580648CBD33
S1131360B6CF0F931F93CF93DF938091C812882336
S113137009F43FC010E0C0E0DFE10FB7F8948091BA
S1131380CB128E7F8093CB120E944E03282F2F7393
S1131390881F8827881F9170990F892B181302C002
S11313A091E0D21390E08091CB1290FB81F99D2FB4
S11313B09F73990F990F8370892B8093CB1211110E
S11313C0D064D0937C0080917B00877F80937B00E6
S11313D09091CB128C2F8860806190FB85F980649A
S11313E0806880937A000FBFDF91CF911F910F9196
S11313F00895C7E011E0D0E0C0CFCF93DF93CFB71B
S1131400F8940E946A038091E9118E7F8069809329
S1131410E9110E94F602CFBFDFB7F89480919202DF
S11314208330C1F5C0910E02C11134C08091100205
S11314308F3FC1F0E82FF0E0E852F14F9081909394
S113144010029F3F11F490930F029FEF90838093BB
S1131450631290930E0281E08093920283E20E94D1
S1131460170316C081E080930E02109292028091BD
S11314709102813069F40E946A038091E9118A76AD
S11314808093E9110E94F60258985998109291029B
S1131490DFBF02C0DFBFC1E08C2FDF91CF91089581
S11314A010929302909194022DE0929FF0011124E6
S11314B0EC56F04F1082911103C081110E943C033D
S11314C089E10C94170310929C0290919D0228E0EC
S11314D0929FF0011124E554F14F1082992329F0D1
S11314E0913029F40E94500A02C00E94510984E1FB
S11314F00C941703811110C0662371F08091A0022F
S1131500813051F41092A0028091B2118D7F8093AA
S1131510B21181E00C94630A0895882319F0813094
S113152021F00895862F0C94630A10929E028091F4
S11315309F029DE1899FF0011124E75DFD4E108219
S11315400E947A0A83E10C941703CF93DF931F92CE
S1131550CDB7DEB789830E94FF028FEB0E94AE03F2
S113156083E00E94AE030E94FD0269818FE10F9027
S1131570DF91CF910C94DC03FC01009719F481E016
S11315800C94630A3091A10C9091A20C8091510C9F
S1131590811124C042E55CE041155105F9F026E0D3
S11315A0DA0101900D922A95E1F740E058E050935A
S11315B0590C4093580C4FE95CE050935B0C4093FA
S11315C05A0C892F90E0932B90935D0C80935C0CC4
S11315D081E08093510C80E10C94170308958823D3
S11315E029F0813029F47298739A02C07398729A20
S11315F082B182B981B111B87498759A0E940103BD
S113160082E090E00E94C70780B1079B0DC00E9452
S1131610FB0282E090E00E94C7070E94010382E07F
S113162090E00E94C707F1CF0E94FB02759881B138
S11316308FEF81B90895CF93DF931F92CDB7DEB7B3
S11316400E94EF0A81B111B8749A759A0E9401033D
S113165082E090E00E94C70780B10E94FB0282E012
S113166090E00E94C7070E94010382E090E00E947C
S1131670C70780B189830E94FB0289810F90DF91A3
S1131680CF9108954F925F926F927F928F929F9223
S1131690AF92BF92CF92DF92FF920F931F93CF939B
S11316A0DF93AAEAB1E1C12CD12C49E04C9DF001B1
S11316B04D9DF00D1124EF01C655DE4EF884F1FE68
S11316C08EC00D911D912D913C91139714968D9080
S11316D09D90AD90BC9017972B013C01401A510A84
S11316E0620A730A481459046A047B0408F477C034
S11316F0F0FE06C0EE54FE4E20812D7F20830AC0EA
S1131700B901A801480D591D6A1D7B1D48835983E1
S11317106A837B8323E0C21609F44FC02C1538F08A
S113172081E0C81681F022E0C216F1F12DC085E0F7
S1131730C81609F447C0C81608F441C026E0C2160A
S113174009F449C021C01092D5121092D6121092F9
S1131750D7121092D8121092DF121092E012109247
S1131760E1121092E2121092E9121092EA1210920F
S1131770EB121092EC121092F3121092F4121092D7
S1131780F5121092F61234C01092A0028091A102B8
S11317908F5F8093A102833018F40E94FE0728C053
S11317A081E00E94630A24C09FB7F89480916C1270
S11317B09FBF8130E9F48AE10FC087E20DC00E9427
S11317C0760816C08FB7F89491E09093D7078FBF2F
S11317D00E9448030DC089E00E94170309C02FEF3F
S11317E0C21AD20A199627E0C216D10409F05ECFB4
S11317F082E1DF91CF911F910F91FF90DF90CF9005
S1131800BF90AF909F908F907F906F905F904F901C
S11318100C9417034F925F926F927F928F929F92D4
S1131820AF92BF92CF92DF92EF92FF920F931F93EA
S1131830CF93DF930E9472032FB7F8941092D907C5
S11318402FBFEAEAF1E120E030E010E044244A94BA
S1131850542C642C4FE7742E09E0029FE001039F8F
S1131860D00D1124C655DE4E488541FF1AC0C080F4
S1131870D180E280F3804B015C018C189D08AE0896
S1131880BF08C480D580E680F780C818D908EA0864
S1131890FB08C414D504E604F7041CF4260137013C
S11318A011E02F5F3F4F399627303105B1F61123F0
S11318B009F449C0141415041604170494F0DF91B4
S11318C0CF911F910F91FF90EF90DF90CF90BF9039
S11318D0AF909F908F907F906F905F904F900C94FB
S11318E0420B409266125092671260926812709294
S11318F0691221E02093990C3FB7F8942093D907FB
S11319006093930C7093940C8093950C9093960C25
S11319104092ED115092EE116092EF117092F0111D
S11319203FBFDF91CF911F910F91FF90EF90DF9018
S1131930CF90BF90AF909F908F907F906F905F906B
S11319404F900C945A04DF91CF911F910F91FF9007
S1131950EF90DF90CF90BF90AF909F908F907F904B
S11319606F905F904F900895CF93C0916C12813027
S113197011F48FE11AC00E94FD0910926D1282E2E7
S11319800E941703C23059F020F4C13089F48AE16F
S11319900CC0C33039F0C63059F48DE106C0CF9184
S11319A00C944503CF910C944203CF910C941703EC
S11319B0CF910895811110C08091BB009091651260
S11319C0E0919A0CF0919B0CE90FF11D80838091BA
S11319D065128F5F80936512209165128091D807FC
S11319E0281788F430E090E001972817390749F464
S11319F08091FD1282FD05C08091E9118F7B809357
S1131A00E9110C94F6028091E911282F2E7F909110
S1131A10FD1291FF0AC09D7F9093FD12822F806179
S1131A208093E9118091B90003C08E778093E91106
S1131A300E94F60281E08093910280910D0281114F
S1131A4002C00C94B40C0895CF93C0916C128130F1
S1131A5011F481E214C00E94FD0910926D12C3308A
S1131A6089F038F4C13051F0C23079F4CF910C943C
S1131A704503C63050F410926C1207C08AE1CF912E
S1131A800C941703CF910C944203CF910895809145
S1131A9065129091D807891780F4E0919A0CF0911F
S1131AA09B0CE80FF11D80818093BB00809165122F
S1131AB08F5F809365120C94F6028091E911282FB0
S1131AC02E7F9091FD1291FF06C09D7F9093FD1291
S1131AD0822F806101C08E778093E9110E94F60203
S1131AE081E08093910280910D02811102C00C94D7
S1131AF0240D0895CF93DF931F92CDB7DEB789836A
S1131B000E946A039091E9119A7F9093E9110E94CF
S1131B10F6020E946A039091E91194609093E9118E
S1131B200E94F60291E0909391022091900290918C
S1131B300D028981222339F091110CC00F90DF919D
S1131B40CF910C94B40C911105C00F90DF91CF91FB
S1131B500C94240D0F90DF91CF910895CF93DF93D0
S1131B601F92CDB7DEB769830E94EF0A698162B91B
S1131B7081B18FEF81B9749A75980E94010382E054
S1131B8090E00E94C7070E94FB0280E00F90DF9163
S1131B90CF910895CF93DF931F92CDB7DEB76983BA
S1131BA00E94EF0A749875980E94010381B18FEF27
S1131BB081B9698162B982E090E00E94C7070E94FE
S1131BC0FB0280E00F90DF91CF910895CF93DF93D4
S1131BD0982FC62FD82FD295D695D695D37081E05D
S1131BE0D8279F73692F60648D2F0E94CA0D6C2FB4
S1131BF06770686B8D2FDF91CF910C94CA0D5F9243
S1131C006F927F928F929F92AF92BF92CF92DF9208
S1131C10EF92FF920F931F93CF93DF9390EE980F61
S1131C20903608F054C06B0190E0809725E0289F1F
S1131C308001299F100D1124045A1D4F912C89EF06
S1131C40682E6D0C55245394AA24A394B12CF92C1A
S1131C50FC0CD62DF8017490F6FACC27C0F9C525F2
S1131C608D2E869486948694FD2FF770EF2E682D22
S1131C708F2D70FE0DC00E94E60D8C2F0E941B0B51
S1131C80B50101C0660FEA94EAF7E82EE62A0DC012
S1131C900E94E60D8C2F0E941B0B950101C0220FA0
S1131CA0EA94EAF72095E82EE222682D8F2D0E940F
S1131CB0E60D6E2D8C2F0E94AE0D7694DF5FDD1144
S1131CC0CFCF0F5F1F4F939485E09812C0CFDF9161
S1131CD0CF911F910F91FF90EF90DF90CF90BF9025
S1131CE0AF909F908F907F906F905F900895EF9248
S1131CF0FF920F931F93CF93DF9300D0CDB7DEB73E
S1131D007C01162F962F00E0F701E00FF11D84915E
S1131D108823B1F08A3011F08D3019F4485F912F87
S1131D200DC0893011F4965F09C09A5F692F742F32
S1131D3049839A830E94FF0D9A8149810F5FE4CF02
S1131D400F900F90DF91CF911F910F91FF90EF9023
S1131D500895FF920F931F93CF93DF93F62E8C0178
S1131D60D42FCF2DF80181918F01882379F08A3007
S1131D7011F08D3011F4D85FF4CF893011F4C65FBF
S1131D80F1CFCA5FBE010E94FF0DECCFDF91CF916E
S1131D901F910F91FF900895CF938FB7F894C0913E
S1131DA0D6078FBF8C2F90E0C0970A9760F4E0911C
S1131DB0CC07E43040F481E08E0F8093CC07F0E050
S1131DC0E453F84FC183C83059F4E091CC07EE23B3
S1131DD039F0E150E093CC07F0E0E453F84F11827E
S1131DE044E160E084E795E00E94770E44E160E01E
S1131DF08DEC97E00E94A90ECA3039F54AE050E014
S1131E0060E070E08DEC97E00E94302C2FB7F894DE
S1131E1033E03093D7072FBF9B012B5633402E3C22
S1131E20310548F08FB7F89491E09093C9038FBFC0
S1131E30CF910C9436032FB7F8947093D307609323
S1131E40D2072FBFCF910C943903CF910895DF921D
S1131E50EF92FF920F931F93CF93DF93CDB7DEB72B
S1131E6027970FB6F894DEBF0FBECDBF282F8B0186
S1131E708FB7F894D090D7078FBF8091A702909125
S1131E80A802AC014F5F5F4F5093A8024093A70292
S1131E909F938F9389E692E09F938F93CE0101964F
S1131EA07C01FF928F932F830E943C2E4CE364E1CC
S1131EB0C7010E94A90E0F900F900F900F900F90E2
S1131EC00F902F81213009F43FC0A8F0223009F08F
S1131ED04FC08FB7F89491E0909379078FBF86E055
S1131EE0E6ECF7E0DF01982F1D929A95E9F7F801E7
S1131EF0A6ECB7E039C089E0ECE7F7E0DF011D921A
S1131F008A95E9F788E0F801ACE7B7E001900D9213
S1131F108A95E1F72FB7F89481E080937607809350
S1131F207707F801808590E0982F88273185832BE7
S1131F3090937B0780937A072FBFF5E0DF1218C0D8
S1131F4089E00E94170314C08FB7F8942093780790
S1131F508FBF81E4E5E8F7E0DF011D928A95E9F798
S1131F6080E4F801A5E8B7E001900D928A95E1F7C5
S1131F7083E00E94170327960FB6F894DEBF0FBEC6
S1131F80CDBFDF91CF911F910F91FF90EF90DF9024
S1131F900895CF93DF93C0E06C2F80E00E94E60D9C
S1131FA06C2F80E40E94E60DD0E060E080E00E94A7
S1131FB0AE0D60E081E00E94AE0DDF5FD038A9F77E
S1131FC0CF5FC83049F780E0DF91CF910895DF9269
S1131FD0EF92FF920F931F93CF93DF93CDB7DEB7AA
S1131FE06F970FB6F894DEBF0FBECDBF8FB7F894CE
S1131FF0D090D707E090D407F090D5078FBFC701E2
S11320000E948904182FC7016AE070E00E94EB2A3D
S11320109F938F937F936F9386E692E09F938F9322
S11320207E0187E1E80EF11CFF92EF920E943C2EA4
S11320300E94C90F47E060E0C7010E94A90E47E073
S113204064E28BE895E00E94770E0FB6F894DEBF49
S11320500FBECDBF1F3008F070C0E12EF12C1F92CF
S11320601F938CE692E09F938F938E01045E1F4F23
S11320701F930F930E943C2E1F8E47E06CE3C80110
S11320800E94A90E8BE38E9DF0018F9DF00D11240B
S1132090EA52FC4F81810F900F900F900F900F9098
S11320A00F908823B1F01F928F9382E792E09F9361
S11320B08F931F930F930E943C2E1E8E47E064E57E
S11320C0C8010E94A90E0F900F900F900F900F90CF
S11320D00F908BE38E9D80018F9D100D1124F801CC
S11320E0E751FC4F85E1DE01119601900D928A952E
S11320F0E1F71E8A4FE26AE78EE595E00E94770ECB
S11321004FE26AE7CE0101960E94A90EF801E2505F
S1132110FC4F83E1DE01119601900D928A95E1F75F
S11321201C8A47E36AE78EE595E00E94770E47E351
S11321306AE7CE0101960E94A90E4FE060E08AE7AB
S113214095E00E94770E4FE060E08CE797E00E94F4
S1132150A90E4FE060E084E795E00E94770E4FE01F
S113216066E386EC97E00E94A90E85E1E5E8F7E0D6
S1132170DE01119601900D928A95E1F71E8A47E1DE
S11321806AE78EE595E00E94770E47E16AE7CE01A3
S113219001960E94A90E85E1EAE9F7E0DE011196B5
S11321A001900D928A95E1F71E8A4FE16AE78EE568
S11321B095E00E94770E4FE16AE7CE0101960E94F6
S11321C0A90E85E1EFEAF7E0DE01119601900D9288
S11321D08A95E1F71E8A47E26AE78EE595E00E9458
S11321E0770E47E26AE7CE0101960E94A90E81E0CC
S11321F08093CF0E95E0D91207C048E853E160E020
S113220070E086E00E947E036F960FB6F894DEBFFE
S11322100FBECDBFDF91CF911F910F91FF90EF9033
S1132220DF9008952F923F924F925F926F927F9228
S11322308F929F92AF92BF92CF92DF92EF92FF92D2
S11322400F931F93CF93DF93CDB7DEB7C055D1095A
S11322500FB6F894DEBF0FBECDBF90E08832910573
S113226010F00C948523FC01EE58FF4F0C94FF2AC8
S11322700E94CC0E0C9485238FB7F8941091D60746
S11322808FBF183061F4E0914C07EE23D1F0E15098
S1132290E0934C07F0E0E45BF84F118212C01A306F
S11322A081F01D3071F0112361F0E0914C07E832A8
S11322B040F481E08E0F80934C07F0E0E45BF84F2C
S11322C0118385E1EDE4F7E0DE01119601900D92B2
S11322D08A95E1F71E8A44E16AE78EE595E00E945B
S11322E0770E44E16AE7CE0101960E94A90E83E1CC
S11322F0E2E6F7E0DE01119601900D928A95E1F78E
S11323001C8A4EE16AE78EE595E00E94770E4EE165
S11323106AE7CE0101960E94A90E1A3011F00C94BE
S113232085232FB7F89486E08093D7078091D4074C
S11323309091D5072FBF0E948904F82E2FB7F894E7
S113234090E02FBFE0914C07F0E0E45BF84F11827E
S11323502BE3289F8001299F100D1124F801EA52D4
S1132360FC4F2085318589E2D9011D928A95E9F7D0
S113237048E250E06DE477E0808591850E94C92DA4
S1132380B80169527C4F8F2D0E9480050C948523DF
S11323900E94E70F0C9485238091CF0E882311F4BB
S11323A00C9485239FB7F894809177071091780750
S11323B0009179079FBF8823B1F068E08CE797E02C
S11323C00E94E0044FE060E08AE795E00E94770E07
S11323D04FE060E08CE797E00E94A90E8FB7F89475
S11323E0109277078FBF002389F04FE060E084E705
S11323F095E00E94770E4FE066E386EC97E00E943A
S1132400A90E8FB7F894109279078FBF112311F496
S11324100C94852360E485E897E00E94E00485E15C
S1132420E5E8F7E0DE01119601900D928A95E1F757
S11324301E8A47E16AE78EE595E00E94770E47E140
S11324406AE7CE0101960E94A90E85E1EAE9F7E068
S1132450DE01119601900D928A95E1F71E8A4FE1F3
S11324606AE78EE595E00E94770E4FE16AE7CE01B8
S113247001960E94A90E85E1EFEAF7E0DE011196CC
S113248001900D928A95E1F71E8A47E26AE78EE58C
S113249095E00E94770E47E26AE7CE0101960E941A
S11324A0A90E8FB7F894109278078FBF0C948523E8
S11324B08091CA039091CB03891711F40C9485235E
S11324C02FB7F89490916C122FBF911116C04FB78B
S11324D0F89435E030936C12282F2F708091110AF4
S11324E09091120A807F822B9093120A8093110A92
S11324F0309364124FBF0E943F038091CA038093BC
S1132500CB030E944F050C94852380E00E94A10414
S1132510882311F40C94852385E00E9417030C94FE
S1132520852381E00E94A104882311F40C9485235F
S113253086E00E9417030C94852382E00E94A10484
S1132540882311F40C94852387E00E9417030C94CC
S113255085232FB7F8948091D2079091D3072FBF8A
S11325603FB7F89420916C123FBF21110C94F220D4
S11325709C012B5633402E3C310510F00C94F22074
S11325802FB7F89432E030936C1210926F1290933C
S1132590CD128093CC122FBF0E9445030C94852347
S11325A08FB7F894C090D407D090D5078FBF1092FE
S11325B0CF0EC6010E948904F82EBEE0B81708F4B5
S11325C054C09FB7F894809176070091D60321E018
S11325D0200F2093D6039FBF8823E9F1EBE30E9FDE
S11325E080011124C8018A529C4F6C01DC011696AB
S11325F0ED91FC91179789E0DF011D928A95E9F727
S11326008CE797E09F938F9381E692E09F938F935B
S11326101F9288E08F93F60187818F9386818F9331
S11326200E94FF2D8FB7F89420917A0730917B0791
S1132630D60115963C932E9314978FBFB801695217
S11326407C4F8F2D0E9480050FB6F894DEBF0FBE1D
S1132650CDBF0C9485238FB7F89491E09093D7075E
S11326608FBF0E9448030C9485238091D6038F303A
S113267050F08FB7F89492E09093C9038FBF0E94F3
S113268036030C9485239FB7F894809176070091C4
S1132690D60321E0200F2093D60310E09FBF9BE3D5
S11326A0909F9001919F300D1124F901EA52FC4F43
S11326B01182D382C28241E050E055834483B90140
S11326C060527C4FAF014A5F5F4F77836683275127
S11326D03C4F3187208799E0DB011D929A95E9F7F9
S11326E02085318599E2D9011D929A95E9F78823CD
S11326F011F18FB7F89420917A0730917B073583D5
S113270024838FBF8CE797E09F938F9381E692E0B9
S11327109F938F931F9288E08F93DA0111968C9187
S11327208F9386818F930E94FF2D0FB6F894DEBF9E
S11327300FBECDBF06C061E575E0808591850E941E
S1132740702D8BE3809FB001819F700D112469521D
S11327507C4F8FEF0E9480050C9485238FB7F894EB
S11327601091C9038FBF1092CF0E0E94C90F4AE087
S113277060E08AE495E00E94770E44E160E0111184
S113278006C086E295E00E94770E0C9485238BE3C5
S113279095E00E94770E0C9485238FB7F8941091DE
S11327A0C9038FBF1092CF0E0E94C90F4AE060E0A8
S11327B08AE495E00E94770E812F90E0FC01319726
S11327C0E930F10508F5E656FF4F44E160E00C946A
S11327D0FF2A85E195E01CC082E095E019C081EFF5
S11327E094E016C088EE94E013C08EED94E010C01F
S11327F08AEC94E00DC087EB94E00AC082EA94E08E
S113280007C08FE894E004C044E160E08BE395E006
S11328100E94770E4CEB52E060E070E085E00E948D
S11328207E030C9485238FB7F894E091D6078FBF6D
S1132830E63609F452C0C0F4EE3209F44FC1E13671
S113284009F440C0EC3209F058C11092CF0E0E9436
S113285002058FB7F89494E09093D7078FBF86E072
S11328600E9417030C948523EE3609F4DEC020F48D
S1132870EC3609F498C041C1E33709F40DC1E437DB
S113288009F03BC11092CF0E0E9402058FB7F89455
S11328901092CC0795E0EDECF7E0DF011D929A95DC
S11328A0E9F792E09093D7078FBF0E94C90F4AE0DF
S11328B060E08BE995E00E94770E80E00E941703A8
S11328C00C9485238FB7F89496E09093D7078FBF25
S11328D089E00E9417030C9485238FB7F89497E03E
S11328E09093D7078FBF8091CC03893008F051C0F3
S11328F02FB7F8948091D4079091D5072FBF0E94E9
S113290089048F30E0F5482F50E02BE3829FF001DB
S11329101124EA52FC4F9181992351F08FB7F89416
S113292099E09093C9038FBF0E9436030C948523CA
S1132930EDECF3E090E021912F3F19F09F5F993087
S1132940D1F7E92FF0E0E453FC4F81832091CC03CD
S11329502F5F2093CC032FB7F8943BE3349FB0014F
S1132960359F700D1124FB01EA52FC4F9F5F918348
S11329702FBF69527C4F0E9480050C9485238FB72A
S1132980F89498E09093C9038FBF0E9436030C9487
S113299085238FB7F89493E09093C9038FBF0E9467
S11329A036030C9485238091D603882311F40C9468
S11329B085238FB7F8946091D4077091D5078FBFA2
S11329C03091D603E6EDF3E04FEF5FEF1FEF20E029
S11329D0231769F082819381861B970B29F0841752
S11329E0950710F4AC01122F2F5FFB96F1CF1F3027
S11329F010F00C9485231092CF0E0E9402058FB71D
S1132A00F89493E09093D7074BE3149FF0011124BB
S1132A10EA52FC4F228133813093D3072093D207AB
S1132A208FBF0E9439030C9485238FB7F89418E064
S1132A301093D7078FBF2FB7F8948091D407909144
S1132A40D5072FBF0E9489048F30E8F41092CF0E6F
S1132A508FB7F8941092D6078FBF10924C0789E273
S1132A60EDE4F7E0DF011D928A95E9F70E94C90FB2
S1132A704AE060E08FE895E00E94770E81E00E94D2
S1132A8017030C9485238FB7F8941093C9038FBF51
S1132A900E9436030C9485231092CF0E0E940205E7
S1132AA00E94AD061092CC0349E050E06FEF70E055
S1132AB08DEC93E00E94B72D8FB7F8941092D60353
S1132AC095E09093D7072BE633E03093D307209318
S1132AD0D2078FBF0E9439030C9485231092CF0E26
S1132AE00E9402058FB7F89494E09093D7078FBFA4
S1132AF085E00E9417030C9485238FEC8E0F893098
S1132B0010F00C948523E053F0E0E453FC4F108163
S1132B101F30D0F41092CF0E0E9402058FB7F894A4
S1132B2093E09093D707BBE31B9FF0011124EA5273
S1132B30FC4F228133813093D3072093D2078FBF78
S1132B400E9439030C9485238FB7F89497E09093EF
S1132B50C9038FBF0E9436030C9485234091C2029F
S1132B605091C3028091940F81112BC085E99FE09D
S1132B70892B39F184EC92E090939E0F80939D0F02
S1132B8080EC8093950F88EA8093960F8AE2809375
S1132B90970F81E08093980F20E533EC30939A0FE0
S1132BA02093990F30939C0F20939B0F5093A00F69
S1132BB040939F0F8093940F89E10E9417030C9414
S1132BC085230E943C030C9485239FB7F89480913D
S1132BD0C8039FBF833009F443C0843009F4A6C0FE
S1132BE0823009F0DBC1CE018A960E94D007882387
S1132BF009F4D4C142E050E06CE874E086E493E068
S1132C000E94772D2AA53BA5892BA1F4AE014F5F25
S1132C105F4F66E772E0C9010E94D82D4AE050E098
S1132C2060E070E089819A810E94302C6F3048F412
S1132C3080E008C06FE674E0C9010E94942D0097FB
S1132C4021F482E00E94FA08A9C14FE050E06BE54C
S1132C5074E004960E94772D892B99F781E0F2CFD6
S1132C60809148038A3049F589E0FE013196DE01FE
S1132C70AB5BBF4F01900D928A95E1F72696EFACBE
S1132C8026972796FFAC279728960FAD2897299665
S1132C901FAD29972A962FAD2A972B963FAD2B97D8
S1132CA02C964FAD2C972D965FAD2D972E966FAD2C
S1132CB02E978FEF0E94020771C1CE018A960E945F
S1132CC0D007882309F46AC11092B1021092B202AB
S1132CD0AE014F5F5F4F68E772E08AA59BA50E9433
S1132CE0D82D0097D1F04AE050E060E070E00E94F7
S1132CF0052B6F3050F4E091B10281E08E0F809388
S1132D00B102F0E0EF54FD4F6283AE014F5F5F4FBD
S1132D1068E772E080E090E0E2CF8091B10288231E
S1132D2009F43CC181E08093C70335C1CE01825BC5
S1132D309F4F0E94D007882309F429C18E010B5BA1
S1132D401F4F89E0F80111928A95E9F7CE010196A7
S1132D504C0189E2D4011D928A95E9F7AE01465DE2
S1132D605F4F66E772E060968EAD9FAD60970E94FC
S1132D70D82D6C01009709F4F5C061E6662E62E077
S1132D80762E78E0F72EAAA4BBA442E050E068E5D2
S1132D9074E0C6010E94772D892B61F44AE050E06B
S1132DA060E070E0C5010E94302C6F3008F0DAC09A
S1132DB0562E86C044E050E063E574E0C6010E94EC
S1132DC0772D892B99F44AE050E060E070E0C5016A
S1132DD00E94302C9B012B5633402E3C310508F0C9
S1132DE0C1C0362E61967FAF61976AC046E050E05D
S1132DF06CE474E0C6010E94772D892B51F44AE0FB
S1132E0050E060E070E0C5010E94302C462E272E71
S1132E1057C045E050E066E474E0C6010E94772D97
S1132E20892B61F44AE050E060E070E0C5010E9443
S1132E30302C6A3008F096C0E62E42C044E050E0E0
S1132E4061E474E0C6010E94772D892BF9F4BF92E6
S1132E50AF927F926F921F92FF921F930F930E94E3
S1132E60FF2DF8011086EAA5FBA5CF0108969BA7C4
S1132E708AA70FB6F894DEBF0FBECDBF80858C3213
S1132E8009F070C03996FBA7EAA726C044E050E0D9
S1132E906CE374E0C6010E94772D892B89F4D50177
S1132EA08C91882331F048E250E0B501C4010E94BE
S1132EB0C92DF80110A68091C60381111BC032C030
S1132EC06CE270E08AA59BA50E94BE2D009709F4D0
S1132ED049C001969BA78AA7AE01465D5F4F66E78E
S1132EE072E080E090E00E94D82D6C01009709F018
S1132EF04ACF38C0EE2009F44AC0EBAAF32C3CAA0E
S1132F0061962FAD61972DAB4EAA2FAA302F19AF22
S1132F1008AF582D9BAE8AAE022F142D222D49AD39
S1132F206BAD1EC0ECAEF32C3DAE61962FAD619738
S1132F302EAF4FAE21962FAE2197302F23961FAF81
S1132F400EAF2397582D25969FAE8EAE2597022F50
S1132F50142D222D23964FAD239725966FAD2597DB
S1132F60852D13C089E0FE01F396DE019A96019047
S1132F700D928A95E1F7EAA4FBA40CA51DA52EA544
S1132F803FA548A959A96AA98EEF0E94020780911A
S1132F90C703882319F08FE00E9417038FB7F894B2
S1132FA01092C8038FBF0C9485234091B202242F42
S1132FB030E08091B10290E0821B930B1816190641
S1132FC00CF052C04F5F4093B202F901EF54FD4F31
S1132FD0B2809FB7F8948091C8039FBF81110C946D
S1132FE085238FB7F89494E09093C8038FBF44E08F
S1132FF050E06BE674E0CE0101967C010E94852DC1
S11330006E019AE2C90ED11C43E050E068E574E019
S1133010C6010E94852D04EC12E080E8D8011D92BF
S11330208A95E9F71F92BF92DF92CF92FF92EF92B7
S11330308AE792E09F938F931F930F930E943C2EF5
S1133040F80101900020E9F78F01055C124010930C
S1133050C3020093C2020E943C030FB6F894DEBF81
S11330600FBECDBF0C9485231092C7031092B102FA
S11330701092B2028FB7F8941092C8038FBF89E000
S1133080FE01BA96DE01119601900D928A95E1F740
S1133090E980FA800B811C812D813E814F81588506
S11330A069858FEF0E9402070C9485238091A40206
S11330B081110C9485238091A5028F5F8170809388
S11330C0A502EDE0E89FD0011124AF5AB34F9C91C3
S11330D0913011F40C94F5208F5F81708093A502D8
S11330E0E89FF0011124EF5AF34F8081813011F0F1
S11330F00C9485230C94F5208091990C811141C086
S11331004091661250916712609168127091691231
S11331102FB7F894C090ED11D090EE11E090EF111C
S1133120F090F0118091930C9091940CA091950CD7
S1133130B091960C8C0D9D1DAE1DBF1D2FBF4093ED
S1133140661250936712609368127093691210921A
S1133150990C2FB7F89431E03093D9078093930CEE
S11331609093940CA093950CB093960C4093ED110E
S11331705093EE116093EF117093F0112FBF0E94E2
S11331805A040E9472030E94420B0C9485230E94ED
S11331900A0C0C94852380919E0281110C94852342
S11331A080919F0290E001968170992780939F02FD
S11331B02DE1289FF001299FF00D1124E75DFD4EBC
S11331C03081313011F40C944D210196817099278E
S11331D080939F02289FF001299FF00D1124E75D41
S11331E0FD4E8081813011F00C9485230C944D2187
S11331F080919C0281110C948523E0919D02EF5FE4
S1133200E170E0939D02AE2FB0E053E0AA0FBB1F24
S11332105A95E1F7A554B14F8C91813011F40C9477
S11332208F21EF5FE170E0939D02F0E043E0EE0F49
S1133230FF1F4A95E1F7E554F14F8081813011F089
S11332400C9485230C948F2180919A0281110C9403
S1133250852380919B028F5F817080939B02EBE0BA
S1133260E89FD0011124AF50BE4E9C91913011F4CF
S11332700C94A2228F5F817080939B02E89FF001DF
S11332801124EF50FE4E8081813011F00C9485237F
S11332900C94A22281E0809396020E945F090C9410
S11332A085238FB7F8941092DB071092DA071092F7
S11332B0980C1092970C1092CA121092C912109284
S11332C0D50E1092D40E8FBF0C9485238FB7F8942B
S11332D092E0909395028FBF8091110281110C941A
S11332E085230E94FD0280919902813021F0823071
S11332F009F498C076C16FEF8FEF0E94B0038DE19F
S11333000E94C60380FFFBCF80E00E94A50A60E014
S113331076E088E00E94220980E096E0909315020E
S11333208093140260E076E08CE00E9422096FEF43
S11333307FE18AE00E94220960E070E084E00E945C
S1133340220960E88EE50E94B00381E00E94A50A8C
S113335061EA88E50E94B00382E00E94A50A60E069
S113336081E40E94B00361E080E40E94B00363E35F
S113337082E40E94B00360E083E40E94B0036AE246
S113338072E08AE00E94220965E184E40E94B003AD
S1133390909128028091290290931B0280931A0233
S11333A083E00E94A50A60911B0281E40E94B0039D
S11333B060911A0280E40E94B0036091190283E4D0
S11333C00E94B0036091180282E40E94B0036091ED
S11333D0170285E40E94B0036091160284E40E94FF
S11333E0B00382E00E94A50A64E184E50E94B00370
S11333F060E471E086E10E94220962E184E50E94B2
S1133400B00362E170E086E10E94220960ED8BE581
S11334100E94B00364E08FE10E94DC0382E08093A9
S11334209902DFC080919602882309F43FC010926C
S113343096028CE10E94C603182F84FF20C082E00C
S11334400E94A50A63E184E50E94B00361E082E57D
S11334500E94B00383E00E94A50A8AE00E94E62647
S113346080FDFBCF82E00E94A50A60E082E50E9415
S1133470B00388E10E94E62689E10E94E62681E005
S11334800E94A50A89E10E94C603882319F081E0FD
S11334908093970210FF0AC00E94FF028CEB0E94E7
S11334A0AE0381E00E94AE030E94FD028091980267
S11334B08130E1F580E00E94A50A60E070E082E0DE
S11334C00E94220960E08AE70E94B00300E010E055
S11334D060919C0C70919D0C0617170768F4E0919D
S11334E00712F0910812E00FF11F60818AE70E9431
S11334F0B0030F5F1F4FECCF86E00E94220968E003
S11335008FE10E94DC03109298021092A402809131
S1133510A5024DE0849FF0011124EF5AF34F10826D
S113352060E00E948D0A80E10E9417038091970257
S1133530813009F056C080E00E94A50A609114020F
S11335407091150280E00E9422098AE30E94C6035A
S113355090E090931502809314028AE30E94C603BC
S11335602091140230911502382B309315022093C8
S113357014028AE30E94C603082F10E08AE30E9423
S1133580C603182B8AE30E94C6038AE30E94C6037B
S1133590C8010F978B31924090F48CEDE82E87E0B0
S11335A0F82E8AE30E94C603F70181937F01CF01BD
S11335B08C5D974080179107A0F310E001C011E0E3
S11335C060911402709115028CE00E94220960E45B
S11335D08EE10E94DC0310929702111102C00E9436
S11335E0FF261FB7F89480919502823011F58091DF
S11335F0110281111EC0809113028F3FB1F0E82F98
S1133600F0E0E256F34F9081909313029F3F11F440
S1133610909312029FEF90838093110281E0809334
S1133620950288E10E94170304C08093110210924E
S113363095021FBF9FB7F89480919502882311F4D7
S11336400C9422239FBF1FB7F8944A9903C086E1C4
S11336500E9417031FBF0C9485238091930281114C
S11336600C94852310929402F090940FF1E0FF12D1
S11336700C9485230C9427239FB7F89480916E12A1
S11336809FBF811110C05A9A48EE53E060E070E089
S113369082E00E947E038FB7F89491E090936E12BB
S11336A08FBF0C948523813051F48FB7F89492E046
S11336B090936E128FBF0E944B030C94852382302B
S11336C0D1F42FB7F8948091150A9091160A906856
S11336D09093160A8093150A1092260A1092250ACE
S11336E08FE08093641283E080936E122FBF0E9458
S11336F03F030C948523833079F48FB7F89494E0D6
S113370090936E128FBF4EEE52E060E070E082E064
S11337100E947E030C948523843099F48FB7F89427
S113372021E030E430930C0A20930B0A92E090934A
S1133730641295E090936E128FBF0E943F030C9425
S11337408523853079F48FB7F89496E090936E12C0
S11337508FBF46E950E060E070E082E00E947E03A3
S11337600C948523863051F48FB7F89497E09093A6
S11337706E128FBF0E944B030C948523873009F08F
S113378041C02FB7F8948091090A90910A0A2FBF7B
S11337908335924171F08FB7F89410926C128FBFF9
S11337A08FB7F8941092C9038FBF8AE00E94170361
S11337B0ACC72FB7F89480910F0A9091100A8373C5
S11337C09772846098649093100A80930F0A80E142
S11337D099E19093120A8093110A8091130A9091AF
S11337E0140A88279E7F8F649093140A8093130A87
S11337F086E08093641288E080936E122FBF0E944B
S11338003F0383C7883009F080C78FB7F8941092BC
S11338106C128FBF0E9476080E9472036093CE11CF
S11338207093CF118093D0119093D11184E690E0DE
S1133830A0E0B0E08093D2119093D311A093D4115F
S1133840B093D5118091D6118E7F82608093D6116A
S113385082E10E9417039FB7F8948091C8039FBF29
S1133860811135C08FB7F89493E09093C8038FBF4C
S11338701092C60345E050E06CE774E0CE01019677
S11338807C010E94852D04EC12E080E8D8011D9291
S11338908A95E9F7FF92EF928CE592E09F938F93DC
S11338A01F930F930E943C2EF80101900020E9F72A
S11338B08F01055C12401093C3020093C2020E9460
S11338C03C030F900F900F900F900F900F90109259
S11338D0CF0E2FB7F8948091721290916C1231E050
S11338E0309372122FBF911110C7813009F40DC7A4
S11338F08FB7F89494E090936C128FBF81E00E948C
S1133900B80803C79FB7F89480916F129FBF8111C5
S113391022C02FB7F8948091CC129091CD128B567F
S113392093409370906890930E0A80930D0A80914F
S11339300F0A9091100A9F7690649093100A8093D6
S11339400F0A84E08093641281E080936F122FBF8A
S11339500E943F03DAC6813051F48FB7F89492E0A5
S113396090936F128FBF88E08CBBEB9ACEC68230E7
S113397049F48FB7F89493E090936F128FBF0E942D
S11339804B03C3C6833041F52FB7F89480911D0AC9
S113399090911E0A937085599C4F9093D4128093F2
S11339A0D31280910D0A90910E0A9F7790930E0A7C
S11339B080930D0A80910F0A9091100A9F7B909337
S11339C0100A80930F0A84E08093641280936F122C
S11339D02FBF0E943F0399C6843049F48FB7F894EF
S11339E095E090936F128FBF0E944B038EC6853073
S11339F009F08BC62FB7F89480911B0A90911C0A8A
S1133A0088279074892F99272FBF892B89F52091B6
S1133A10D3123091D4129FB7F8943093D5072093E2
S1133A20D4078091D7079FBF833031F0853021F4CC
S1133A3087E00E94170308C08FB7F89491E0909331
S1133A40D7078FBF0E94480380917212882351F0D8
S1133A508FB7F89494E090936C128FBF81E00E942A
S1133A60B80853C68FB7F89410926C128FBF4DC626
S1133A708FB7F89494E090936F128FBF0E94450320
S1133A8044C69FB7F8942091D30E809170129FBFC3
S1133A90811140C0223069F42FB7F89480910B0A49
S1133AA090910C0A956090930C0A80930B0A2FBF97
S1133AB00FC03FB7F89480910B0A90910C0A9A7F3B
S1133AC0916090930C0A80930B0A3FBF211115C695
S1133AD02FB7F89480910B0A90910C0A92609093FE
S1133AE00C0A80930B0A2FBF2FB7F89480910F0A0A
S1133AF09091100A9F7690649093100A80930F0A15
S1133B0084E08093641281E0809370122FBF0E943E
S1133B103F03FBC5813051F48FB7F89492E0909342
S1133B2070128FBF88E08CBBEB9AEFC5823049F4EA
S1133B308FB7F89493E0909370128FBF0E944B0359
S1133B40E4C5833081F52FB7F89480911B0A9091D6
S1133B501C0A882790729093AB0280911D0A909161
S1133B601E0A937085599C4F9093D4128093D3125C
S1133B7080910B0A90910C0A9E7F90930C0A80937B
S1133B800B0A80910F0A9091100A9F7B9093100A60
S1133B9080930F0A84E080936412809370122FBF85
S1133BA00E943F03B2C5843049F48FB7F89495E07E
S1133BB0909370128FBF0E944B03A7C5853009F004
S1133BC0A4C52FB7F89480911B0A90911C0A8827EA
S1133BD09074892F99272FBF892BB1F58091AB025F
S1133BE081111AC08091D3129091D4120E942105A0
S1133BF080917212882351F08FB7F89494E09093D7
S1133C006C128FBF81E00E94B8087FC58FB7F8940B
S1133C1010926C128FBF79C58FEF9FEF0E94210520
S1133C2080917212882351F08FB7F89494E09093A6
S1133C306C128FBF81E00E94B80867C58FB7F894F3
S1133C4010926C128FBF61C58FB7F89494E0909373
S1133C5070128FBF0E94420358C58091A9029091AF
S1133C60AA029C012F5F3F4F3093AA022093A9021E
S1133C709F938F9389E692E09F938F938E010F5FBA
S1133C801F4F1F930F930E943C2E4CE36CE3C8011B
S1133C900E94A90E9FB7F894809171129FBF0F9054
S1133CA00F900F900F900F900F90811109C08FB754
S1133CB0F89491E0909371128FBF0E944B0325C535
S1133CC0813009F022C54FB7F89430911F0A7091E2
S1133CD0200AE091210AF091220A2091230A60919E
S1133CE0240A8091250A9091260A4FBF4F2F4695AA
S1133CF04695469550E044305105E1F124F44230B4
S1133D00510530F082C04830510509F447C07DC0E8
S1133D102FB7F8947093801230938112E370AE2F12
S1133D20B0E0AA0FBB1FA958BD4E11969C931197E2
S1133D3012968C9381E090E00E2E01C0880F0A94B5
S1133D40EAF790917712892B809377122FBF8F30E7
S1133D5009F05BC068E772E180E00E94270F48E049
S1133D6050E060E270E088E792E10E94B72D109283
S1133D7077124BC03FB7F894EF70B4E0EB9FF001BB
S1133D801124E958FD4E63872487958786873FBFB2
S1133D9062E872E181E00E94270F37C0229520710A
S1133DA0392F32953F70232BAC01E6E056954795A9
S1133DB0EA95E1F74F73982F9F71969585FF03C09D
S1133DC0822F891B02C0822F890F1FB7F894E2EC5F
S1133DD0F2E196E0DF011D929A95E9F71F924F9365
S1133DE01F928F9384E892E09F938F93FF93EF93B6
S1133DF00E943C2E1FBF62EC72E182E00E94270FFA
S1133E000FB6F894DEBF0FBECDBF80917212811140
S1133E100CC08FB7F89494E090936C1210927112C6
S1133E208FBF80E00E94B80870C48FB7F8941092D6
S1133E306C12109271128FBF68C49FB7F89480916E
S1133E406D129FBF882319F00E944B035EC48FB785
S1133E50F89491E090936D128FBF0E940E0855C4A0
S1133E608FB7F89490910D02911135C08FBF8FB721
S1133E70F89490919102913071F522E0209391028F
S1133E808FBF8FB7F89420E130E03093D20E2093A7
S1133E90D10E29E032E130939B0C20939A0C20E25E
S1133EA02093D80723E02093FD121092651290937B
S1133EB090028FBF0E946A031FB7F8948091E911A2
S1133EC08F7A816A8093E91184E0809391020E9441
S1133ED0F6021FBF1AC48FBF8FE10E94170315C4D7
S1133EE09FB7F89480916D129FBF882319F00E94A8
S1133EF03F030BC49FB7F89482E080936D128091C6
S1133F006412880F82509FBF20E092E02817B0F41B
S1133F103FB7F894422F50E0E92FF0E0EE0FFF1F77
S1133F20E95FF54F60817181FA01E75FFD4E7083AF
S1133F3061833FBF9F5F9F702E5FE8CF0E940E0892
S1133F40E4C39FB7F894809164129FBF9FB7F8941D
S1133F5020910D02211136C09FBF9FB7F894209184
S1133F609102213079F522E0209391029FBF9FB7FF
S1133F70F89420E130E03093D20E2093D10E29E062
S1133F8032E130939B0C20939A0C880F82508093DB
S1133F90D80783E08093FD1210926512109290026C
S1133FA09FBF0E946A031FB7F8948091E9118F7E26
S1133FB0816E8093E91184E0809391020E94F6025D
S1133FC01FBFA3C39FBF81E20E9417039EC340E0AB
S1133FD050E02AE0DA01A75FBD4EE22FF0E0EE0FD9
S1133FE0FF1FE95FF54F8C9190E0982F8827119679
S1133FF03C91832B918380832F5F2F704E5F5F4FA3
S11340004032510539F781C38FB7F8949091631208
S113401090930E0293E0909392028FBF80910E02D0
S11340209FB7F89480930D029FBF81116EC39FB711
S1134030F89480916D129FBF813031F0823041F449
S113404081E20E94170361C38FE10E9417035DC3DD
S11340500E94FD095AC31FB7F894809190028823E7
S113406021F081E00E94DA0C02C00E94470D1FBFBC
S11340704CC38FB7F8949091D00E90930C0293E0B8
S113408090938E028FBF80910C02811101C08098A1
S113409080910C02811139C381E08093730F1092D7
S11340A0C8120E94B10931C31092730F0091EB1131
S11340B01091EC118091C812811127C3FFB6F894B6
S11340C080918E02833009F03FC080910C028111EF
S11340D03BC08091A911882309F404C360918F0225
S11340E070E0CB010196A1E0B0E08130910511F4BC
S11340F080E090E0282F26952695269530E0F9015A
S1134100E755FE4E2081382F3770AD0101C0440FB2
S11341103A95EAF7322F342331F040952423208353
S113412080938F0206C08617970711F00196DDCFA2
S11341308FEF8093D00E8FEF80930C0281E08093F9
S11341408E0285E20E941703FFBE96E0169507953E
S11341509A95E1F70093CA0384E00E941703D5C23D
S11341608091D60E8130E1F460E080E80E9443093A
S113417088E290E00E94C70700E010E0F801EC58E4
S1134180F04F61E080810E94430988E290E00E9440
S1134190C7070F5F1F4F0031110581F71092D60E2C
S11341A08091D70E813009F0B0C260E080EC0E94AB
S11341B0430988E290E00E94C70700E010E0F8019C
S11341C0EC57F04F61E080810E94430988E290E05F
S11341D00E94C7070F5F1F4F0031110581F710922E
S11341E0D70E93C20E94390390C2E091A502FDE06C
S11341F0EF9FC0011124FC01EE5AF34F26E0A7E221
S1134200BAE001900D922A95E1F726E0E6E1F2E0AA
S1134210ADE2BAE001900D922A95E1F7FC01EF5A64
S1134220F34F978180859093340A8093330A0385F2
S1134230148561857285A80185E39AE00E94AE2DFC
S11342408091980281111AC0809199028230B1F450
S11342500E945F09811114C087E29AE090930812CA
S113426080930712025F1F4F10939D0C00939C0CC8
S113427081E0809398028093A40247C265E001C064
S113428067E08091A5022DE0829FF0011124EF5A8E
S1134290F34F10820E948D0A38C280919F02282F0A
S11342A030E04DE1849FF0011124AF01465D5D4E85
S11342B090915E0C911126C06FE57CE0611571054B
S11342C009F1E45CFD4E86E0DB0101900D928A95D4
S11342D0E1F786E098E09093660C8093650C509328
S11342E0680C4093670C8CE190E090936A0C809387
S11342F0690C11E010935E0C80E10E941703109387
S11343009E0203C29DE1929FF001939FF00D112440
S1134310E75DFD4E108265E00E947A0AF6C1F090D6
S11343209D0285E480939F0C1092A00C86E68093F6
S1134330A40C8093A30C1092A60C1092A50C8FEFE2
S11343408093A70C88E0F89E80011124D801A5541D
S1134350B14F6D0116964D915C911797CA01449621
S11343608093A20C9093A10C1196ED91FC9112975D
S113437080819181A281B3818093AF0C9093B00C22
S1134380A093B10CB093B20C8091240290912502B9
S1134390A0912602B09127028093AB0C9093AC0CB1
S11343A0A093AD0CB093AE0CF6016481758183EBE0
S11343B09CE00E94AE2DD60113968C918093A80C9C
S11343C01092AA0C1092A90CEFE9FCE080E090E0B6
S11343D0DC0121913191820F931FA11DB11D2CE0AD
S11343E0E33BF207B1F7AD01662777274115510585
S11343F06105710539F0AA27BB27840F951FA61FF5
S1134400B71FF1CF80959095A095B0959093AA0C85
S11344108093A90C80911C0290911D02A0911E0210
S1134420B0911F028090AF0C9090B00CA090B10C92
S1134430B090B20C4091AB0C5091AC0C6091AD0CAF
S11344407091AE0C482559256A257B2548235923AC
S11344506A237B23452B462B472B19F4EFEAFCE018
S113446002C0E0E2F2E080809180A280B380809577
S11344709095A095B095AC01BD01482159216A21C0
S11344807B21481759076A077B0719F480E092E0FB
S11344902DC05091A30244E06AE0252F30E0629FD2
S11344A0C001639F900D1124DC01AB52BD4E4D90B1
S11344B05D906D907C90481459046A047B0429F43F
S11344C05093A30287529D4E0BC0C901019683707D
S11344D09927582F415009F78093A30280E090E078
S11344E09093AD028093AC02009719F00E94BC0A2D
S11344F025C08091A002811111C080819181A28187
S1134500B3818093CE129093CF12A093D012B09324
S1134510D1121092A1020E94FE0710C0F801E554C6
S1134520F14F1082F11003C00E945109EEC0B1E0B6
S1134530FB12EBC085E00E94500AE7C081E0809343
S11345409C02E3C0E0919B02EE2EF12C2BE0E29F53
S1134550F0011124EF50FE4E418552858A010C5F13
S11345601F4F85818093D90E86818093DA0E6781EF
S113457070858DED9EE00E94AE2D1092DC0E10929F
S1134580DB0EA80156954795E9EDFEE020E030E00A
S113459080E090E0DC012417350749F061917191C6
S11345A0860F971FA11DB11D2F5F3F4FF4CFAD01A3
S11345B066277727411551056105710539F0AA274A
S11345C0BB27840F951FA61FB71FF1CF8095909529
S11345D0A095B0959093DC0E8093DB0E8091BB0E7A
S11345E0811126C08CEB9EE0892B11F12BE02E9DCE
S11345F0C0012F9D900D11248E509E4E9093BD0EA0
S11346008093BC0EFF24F394F092BE0E89ED9EE0DD
S11346109093C00E8093BF0E1093C20E0093C10EF0
S1134620F092BB0E84E10E941703F0929A026DC0CF
S11346308BE08E9DF0018F9DF00D1124EF50FE4E06
S1134640108263C08CB58F7B8CBD0C94221B90911F
S1134650990F80919A0F9093A20F8093A10F90913C
S11346609B0F80919C0F9093A40F8093A30F409174
S11346709F0F5091A00F8A01085F1F4F0093A60F50
S11346801093A50F60919D0F70919E0F89EA9FE092
S11346900E94AE2D8091C30E81111FC084EC9EE058
S11346A0892BD9F085E99FE09093C50E8093C40EC1
S11346B081E18093C60E81EA9FE09093C80E8093B7
S11346C0C70E1093CA0E0093C90EF092C30E84E174
S11346D00E941703F092930218C01092940F0E9444
S11346E03C0313C081E080930C0210928E028091EF
S11346F07A008F7780937A0027CD2FB7F894809132
S11347000B0A90910C0A9D7FEAC9C05BDF4F0FB67C
S1134710F894DEBF0FBECDBFDF91CF911F910F91F3
S1134720FF90EF90DF90CF90BF90AF909F908F90CD
S11347307F906F905F904F903F902F9008958FB728
S1134740F89408958FBF08951F920F920FB60F9299
S113475011240BB60F922F933F934F935F936F9354
S11347607F938F939F93AF93BF93EF93FF932FB751
S1134770F8948091CB0E9091CC0EA091CD0EB09177
S1134780CE0E0196A11DB11D8093CB0E9093CC0E3D
S1134790A093CD0EB093CE0E2FBF78940E945A04EE
S11347A0FF91EF91BF91AF919F918F917F916F9105
S11347B05F914F913F912F910F900BBE0F900FBEC1
S11347C00F901F9018951F920F920FB60F921124FD
S11347D00F900FBE0F901F9018951F920F920FB657
S11347E00F9211240BB60F92CF92DF92EF92FF92A9
S11347F00F931F932F933F934F935F936F937F93E5
S11348008F939F93AF93BF93CF93DF93EF93FF93D4
S11348102EB5E091DA07F091DB07309739F08091FB
S1134820D40E9091D50EE80FF91F20838091D40EF9
S11348309091D50E01969093D50E8093D40E8CB59D
S11348408F778CBDC091D40ED091D50E2091C91212
S11348503091CA12C217D307D8F50091970C109162
S1134860980CC090DA07D090DB07CE010A9628177F
S1134870390708F4C9017C0121E0E21AF108CE15D8
S1134880DF05A0F40115110529F0F801EC0FFD1F57
S1134890808101C080E00E94A803C114D10421F0EA
S11348A0F601EC0FFD1F80832196E9CF8CB580685B
S11348B08CBD0115110531F0F801EC0FFD1F80814D
S11348C08EBD01C01EBCD093D50EC093D40E11C0B2
S11348D01092DB071092DA071092980C1092970C42
S11348E01092CA121092C9121092D50E1092D40EC0
S11348F08EB5FF91EF91DF91CF91BF91AF919F91D1
S11349008F917F916F915F914F913F912F911F9163
S11349100F91FF90EF90DF90CF900F900BBE0F9010
S11349200FBE0F901F9018951F920F920FB60F9203
S113493011240F900FBE0F901F9018951F920F9285
S11349400FB60F9211240F900FBE0F901F90189561
S11349501F920F920FB60F9211240BB60F922F9342
S11349603F934F935F936F937F938F939F93AF93F3
S1134970BF93EF93FF9386E10E941703FF91EF919A
S1134980BF91AF919F918F917F916F915F914F9163
S11349903F912F910F900BBE0F900FBE0F901F9061
S11349A018951F920F920FB60F9211240BB60F9207
S11349B02F933F934F935F936F937F938F939F9323
S11349C0AF93BF93EF93FF9380916C12823029F0E1
S11349D0833041F0811116C00AC00E9415030E9461
S11349E0450312C00E9415030E9442030DC080912A
S11349F07212882349F086E080936C128DE10E9444
S1134A00170302C00E941503FF91EF91BF91AF916C
S1134A109F918F917F916F915F914F913F912F91D2
S1134A200F900BBE0F900FBE0F901F9018951F9202
S1134A300F920FB60F9211240F900FBE0F901F907C
S1134A4018951F920F920FB60F9211240F900FBE5C
S1134A500F901F9018951F920F920FB60F9211246A
S1134A600F900FBE0F901F9018951F920F920FB6C4
S1134A700F9211240F900FBE0F901F9018951F9244
S1134A800F920FB60F9211240BB60F922F933F93F0
S1134A904F935F936F937F938F939F93AF93BF9342
S1134AA0EF93FF930E946A038091B900982F987F37
S1134AB020919102243079F1263021F0233009F03D
S1134AC04DC013C080919002813049F4903429F490
S1134AD083E08093910281E010C084E016C0983195
S1134AE0E1F783E08093910213C02091900221307A
S1134AF039F4807F803541F480E00E94DA0C2EC0C6
S1134B00983231F0903321F081E00E947A0D26C072
S1134B100E94470D23C08091FD128E7F8093FD1269
S1134B208091E9118F7D983029F0903119F08093AC
S1134B30E911EACF80648093E91191E080919002B9
S1134B40813009F090E08091D10E880F892B8093F9
S1134B50BB0086E0809391020E94F602FF91EF91E0
S1134B60BF91AF919F918F917F916F915F914F9181
S1134B703F912F910F900BBE0F900FBE0F901F907F
S1134B8018951F920F920FB60F9211240BB60F9225
S1134B902F933F934F935F936F937F938F939F9341
S1134BA0AF93BF93EF93FF93909106018091B0026E
S1134BB097FD11C08350883008F07BC08091A60215
S1134BC086958093A6029091060196FF72C0806834
S1134BD08093A6026EC081508093B002811169C097
S1134BE09091A602903E09F461C08091AE028111B9
S1134BF055C0993549F0903F19F0923149F404C0F9
S1134C0081E08093AE0252C081E08093AF024EC037
S1134C108091AF0260E081111FC081E4262F30E053
S1134C20280F311D35952795A901440F551FFA0109
S1134C30EC52FE4FE491E91718F461E0620F09C0E9
S1134C409E1718F48FEF820F04C0FA01EB52FE4F47
S1134C501EC0861718F72AC081E4262F30E0280FDB
S1134C60311D35952795A901440F551FFA01E45BC1
S1134C70FE4FE491E91718F461E0620F0CC09E172F
S1134C8018F48FEF820F07C0FA01E35BFE4F8491A3
S1134C900E94F0040BC0861700F708C01092AE0201
S1134CA0923111F0993511F41092AF028BE0809398
S1134CB0B002FF91EF91BF91AF919F918F917F913E
S1134CC06F915F914F913F912F910F900BBE0F9079
S1134CD00FBE0F901F9018951F920F920FB60F9250
S1134CE011240BB60F922F933F934F935F936F93BF
S1134CF07F938F939F93AF93BF93CF93EF93FF9340
S1134D00209178003091790078944FB7F89480918D
S1134D10CB1281FB992790F981704FBF811122C07A
S1134D2080917A00877F80937A008091730F81301D
S1134D3019F0823091F036C0911107C08DE790E0F0
S1134D400E94C7070E94B1092DC03093EC11209333
S1134D50EB1186E20E94170325C0992379F3109280
S1134D60730F20C0CFB7F8940E944E03CFBF2FB764
S1134D70F89480917A0086FB992790F9877F806167
S1134D8090FB86F98F7780937A00877F80618F7B91
S1134D908F7780937A00877F80618F7B8068809390
S1134DA07A002FBFFF91EF91CF91BF91AF919F9167
S1134DB08F917F916F915F914F913F912F910F90C0
S1134DC00BBE0F900FBE0F901F901895CF93DF93DB
S1134DD01F92CDB7DEB789830E94FF0289810E94AA
S1134DE0AE038FEF0E94AE038FEF0E94A803898366
S1134DF00E94FD0289810F90DF91CF9108958F92D7
S1134E009F92AF92BF92CF92DF92EF92FF920F9355
S1134E101F93CF93DF93CDB7DEB7C456D1090FB636
S1134E20F894DEBF0FBECDBF8091E80790E0982FC5
S1134E3088272091E907822B811528E0920729F021
S1134E408630984009F4F5C055C18AEE97E09093F6
S1134E506B1280936A128091FA079091FB07A091DC
S1134E60FC07B091FD0700912402109125022091C6
S1134E7026023091270280179107A207B30739F160
S1134E8040911C0250911D0260911E0270911F02FC
S1134E906A017B01C094D094E094F09446015701D8
S1134EA088229922AA22BB228C149D04AE04BF043A
S1134EB009F020C180279127A227B32784239523B3
S1134EC0A623B723892B8A2B8B2B09F013C130918E
S1134ED0EC078091ED072091F307213021F0213177
S1134EE009F443C007C16091FF079091FE07983011
S1134EF009F000C1C090F607D090F707E090F807DA
S1134F00F090F90794E6AE014F5F5F4FFA01792FF5
S1134F1011927A95E9F7E2E0F8E0DA0101900D9256
S1134F209A95E1F79091F1119111E4C0E2EFF1E16A
S1134F30EF2B09F4DFC05093F9114093F811C0929C
S1134F40F211D092F311E092F411F092F511109253
S1134F50F6116093F71190E0932B48979093FB110F
S1134F608093FA112093F11162C04091020850E03D
S1134F70542F442780910308482B485051098091AD
S1134F80000890E0982F882720910108822B803513
S1134F90934CA9F48A014138510510F000E810E05F
S1134FA0A80166E078E086E493E00E94AE2D1093B9
S1134FB04503009344038EE00E9417039BC0C090F6
S1134FC0F607D090F707E090F807F090F90724E689
S1134FD0CE010196FC01322F11923A95E9F7E6E0F1
S1134FE0F8E0DC0101900D922A95E1F72091FC1183
S1134FF0211180C02DEF31E1232B09F47BC0909364
S1135000041280930312C092FD11D092FE11E0921B
S1135010FF11F092001283E0809301128093021238
S1135020509306124093051281E08093FC1185E1B0
S1135030C3CF8091F00790E0982F88272091F10743
S1135040822B8130910519F00297F1F053C0409101
S113505024025091250260912602709127028091CA
S1135060020890910308A0910408B091050848171C
S113507059076A077B07F1F548EF57E062EF77E0DD
S113508082E00E94F30336C08091A002813091F542
S11350908091A2027AE0879FC0011124FC01EB52A7
S11350A0FD4E4091F8075091F9076091FA0770910D
S11350B0FB074083518362837383DC01A752BD4E97
S11350C026E0E2EFF7E001900D922A95E1F72091B6
S11350D0B2112D7F2093B2111092A00287529D4EDF
S11350E00E94BC0A8091A20290E0019683709927E5
S11350F08093A202CC59DF4F0FB6F894DEBF0FBEE7
S1135100CDBFDF91CF911F910F91FF90EF90DF9072
S1135110CF90BF90AF909F908F900895CF93DF93DF
S1135120CDB7DEB72A970FB6F894DEBF0FBECDBF5A
S11351300FB7F89448E250E06FEF70E08BE69CE024
S11351400E94B72D8FEF809373128093D21288EE52
S113515091E09093751280937412089A099A0A9AAE
S113516010981198129880E0877F8F7E8F7D8F7BB7
S11351708F7780937A0081E083BF0E9403038F3F7F
S113518019F00E941211F9CF87B18C6F87B918E218
S113519088EE93E00E94C7071150D1F760E088E2DF
S11351A00E94430988E290E00E94C70760E088E219
S11351B00E94430988E290E00E94C70760E08CE007
S11351C00E94430988E290E00E94C70760E081E002
S11351D00E94430988EE93E00E94C70788EE93E09B
S11351E00E94C70760E086E00E94430988E290E0DD
S11351F00E94C70740E250E060E270E084E79FE06D
S11352000E94B72D81E08093D60E8093D70E109222
S113521076121092EA111092A9111FEF1093D80E72
S1135220729A739A7498759A0E940103779A6A9A8B
S11352306B9A6C9A6D9A6E9A6F9A82B112B881B118
S113524011B96FE380E00E94CA0D6FE381E00E9410
S1135250CA0D60EC80E00E94CA0D60EC81E00E94FF
S1135260CA0D10939E0C8091B60080728093B60094
S11352708091B60081FDFCCF82E08093B0008091E4
S1135280B60080FDFCCF85E08093B1008CE780936D
S1135290B300809170008260809370000E9472035A
S11352A06093B3117093B4118093B5119093B611B8
S11352B080E395E7A0E0B0E08093B7119093B81134
S11352C0A093B911B093BA118091BB118E7F826003
S11352D08093BB1182E10E94170380912802909170
S11352E0290290932602809327020E9403038F3F92
S11352F019F00E941211F9CF0FBF7894E6EDF3E094
S113530099E089E22FB7F8942FBFAF01465F5F4F52
S1135310578346839F012D5E3F4F31872087DA01F3
S1135320292F1D922A95E9F740855185DA01282F06
S11353301D922A95E9F7FB96A7E0EB34FA0711F7DB
S11353408FB7F8941092D7071092D6038FBF10929C
S1135350CC0349E050E06FEF70E08DEC93E00E94E5
S1135360B72D1092CB031092CA0363E875E0CE0107
S113537001960E94702D1886109276121092EA11EE
S1135380CE0101960E94B8040E944F050E94C90FE5
S11353909FB7F894809107018F77809307019FBF8F
S11353A09FB7F894809107018F7B809307019FBF7B
S11353B080916D00806880936D008FB7F8949BE0B6
S11353C09093B0021092AF021092AE028FBF809100
S11353D068008460809368009FB7F89480916C1291
S11353E09FBF811131C09FB7F89481E080936C1204
S11353F010926D1210926E121092721280E2E7E017
S1135400FAE0DF01282F1D922A95E9F7E9E0F2E19D
S1135410DF011D928A95E9F79FBF529A5A98519AD3
S1135420599853985B9880916900806880936900CB
S1135430809169008F7B8093690041E050E060E0D7
S113544070E082E00E947E038FB7F89491E090931D
S1135450C8038FBF40EC4093240238EA30932502FE
S11354602AE22093260282E0809327028FEF809322
S11354701C0280931D0280931E0210921F0240930F
S1135480200230932102209322029093230210924F
S1135490C70380919902811136C0209A0E94FD02AF
S11354A0249A2C981A86198689859A8580329E4476
S11354B030F489859A8501969A878987F5CF2C9A45
S11354C01A86198689859A8580329E4430F48985A6
S11354D09A8501969A878987F5CF52985A9A84E0DB
S11354E08CBB80916900806280936900809169001F
S11354F08F7E80936900EA9A0E945F09811103C03C
S113550081E0809399028FB7F8941092C8038FBFFB
S11355101FB7F8940E9403038F3F09F058C080918D
S11355207000837089F08091B6008A71E1F78091F0
S1135530B3009091B200891B883040F08091B20092
S1135540893F20F483E003C085E001C082E0E0915C
S11355506E00E67029F590916F009E7221F5E0913E
S11355607100EE72E9F4909172009E72E1F4E091A0
S11355707300EE72A9F40CB407FC15C09091C1003D
S1135580987189F4E091C900E87151F49091BC00DC
S113559092FD09C090917A0097FD04C0E5E003C034
S11355A0E0E001C0E1E093B78E1708F4E82FF0E0E3
S11355B0EA5BFE4F8491E92FE07FE160E82BE3BFD3
S11355C078948895F89483B78E7F83BFA3CF1FBF49
S11355D00E9412119DCFAA1BBB1B51E107C0AA1F39
S11355E0BB1FA617B70710F0A61BB70B881F991F80
S11355F05A95A9F780959095BC01CD010895EE0FB9
S1135600FF1F0590F491E02D09942F923F924F9241
S11356105F926F927F928F929F92AF92BF92CF923E
S1135620DF92EF92FF920F931F93CF93DF935C016E
S11356306B017A016115710519F0FB019183808377
S1135640E114F10429F0C7010297839708F0F1C02F
S1135650E5012196F5011081812F90E00E94682DCB
S1135660892B11F05E01F4CF1D3229F42196F50146
S1135670118101E007C01B3221F4E5012296F501F6
S1135680118100E0E114F10459F1F0E1EF16F104A5
S113569061F41033E1F488818F7D883569F51981CF
S11356A02296026070E1E72EF12C88E0E816F104FE
S11356B039F12CF4F2E0EF16F104C9F12AC08AE0C2
S11356C0E816F10479F0E0E1EE16F10411F550E189
S11356D0E52EF12C812C912CA12C68E0B62E2CC047
S11356E01033C9F23AE0E32EF12C4CEC842E982CC2
S11356F0A82C4CE0B42E20C010E3E114F104A9F668
S113570098E0E92EF12C812C912CA12C20E1B22ED1
S113571013C060E070E080E090E89701442737FD13
S11357204095542F0E94263149015A0105C0812C0D
S1135730912CA12C80E4B82E60E020E030E0A90197
S11357402701662457FC6094762C1E01E0EDE10FDE
S1135750EA3060F08FEB810F8A3110F4E9EC05C078
S11357608FE9810F8A3128F5E9EAE10F8E2F90E065
S11357708E159F05F4F467FD18C082169306A406DF
S1135780B50690F0C301B2010E9416319B01AC0131
S11357902E0F311D411D511D213031054105F0E809
S11357A05F0710F461E001C06FEF2196F1011081F1
S11357B0CCCF802F8170C114D10471F0662329F0FD
S11357C02197F601D183C08307C001FF19C0229736
S11357D0F601D183C08314C067FF12C0811105C0D4
S11357E02FEF3FEF4FEF5FE704C020E030E040E0F1
S11357F050E882E290E09093FF128093FE1216C06C
S1135800882341F050954095309521953F4F4F4F57
S11358105F4F0CC057FF0AC082E290E09093FF12E2
S11358208093FE122FEF3FEF4FEF5FE7B901CA01FC
S113583004C060E070E080E090E0DF91CF911F91C0
S11358400F91FF90EF90DF90CF90BF90AF909F901B
S11358508F907F906F905F904F903F902F9008951E
S11358602F923F924F925F926F927F928F929F926C
S1135870AF92BF92CF92DF92EF92FF920F931F935A
S1135880CF93DF9300D000D000D0CDB7DEB75C015A
S11358906B017A016115710519F0DB018D939C93FD
S11358A0E114F10429F0C7010297839708F0DCC0E2
S11358B03501BFEF6B1A7B0AF5011081812F90E04F
S11358C00E94682D892B11F05301F2CF1D3249F447
S11358D03501F2E06F0E711CD50111961C9101E0A7
S11358E009C01B3231F43501B2E06B0E711CF501B5
S11358F0118100E0E114F10409F4C4C0F0E1EF16F1
S1135900F10489F4103399F5D3018C918F7D883596
S113591009F0B2C011961C91B2E06B0E711C0260CA
S113592050E1E52EF12CEAE0EE16F10409F4B0C0E2
S1135930F0E1EF16F104D9F028E0E216F10451F495
S113594038E0E32EF12C88248A94982CA82C4FE17B
S1135950B42E13C06FEF7FEFCB019701442737FDBF
S11359604095542F0E94263149015A0106C08824CB
S11359708A94982CA82C2FE0B22E7E826D8260E04F
S113598020E030E0A9012701662457FC6094762CBE
S11359902D803E80E0EDE10FEA3060F08FEB810F67
S11359A08A3110F4E9EC05C08FE9810F8A3190F552
S11359B0E9EAE10F8E2F90E08E159F055CF56F3FAD
S11359C009F182169306A406B506D8F0C301B20104
S11359D00E9416312E2F30E040E050E029833A83B4
S11359E04B835C83260F371F481F591F89819A8177
S11359F0AB81BC81281739074A075B0710F061E0C7
S1135A0001C06FEFED81FE813196FE83ED83D101FC
S1135A101C91BECFC114D10489F0662339F08D8165
S1135A209E810197F6019183808308C001FF06C01F
S1135A308D819E810297D6018D939C9300FF07C0B0
S1135A4050954095309521953F4F4F4F5F4F67FFDD
S1135A5010C082E290E09093FF128093FE126FEFE9
S1135A607FEF8FEF9FEF1BC060E070E080E090E07D
S1135A7016C0B901CA0113C010E3E114F10409F41A
S1135A805FCF51CF103309F43FCF9AE0E92EF12CC8
S1135A9089E9882E982CA82C89E1B82E6ECF2696F9
S1135AA00FB6F894DEBF0FBECDBFDF91CF911F912B
S1135AB00F91FF90EF90DF90CF90BF90AF909F90A9
S1135AC08F907F906F905F904F903F902F900895AC
S1135AD09111FDC2803219F089508550D0F7089594
S1135AE0FB01DC0105900D920020E1F70895FB0114
S1135AF0DC014150504030F08D910590801919F42B
S1135B000020B9F7881B990B0895FB01DC01415073
S1135B10504048F005900D920020C9F701C01D9235
S1135B2041505040E0F70895FB0155915523A9F0E9
S1135B30BF01DC014D9145174111E1F759F4CD0145
S1135B400590002049F04D9140154111C9F3FB0126
S1135B504111EFCF81E090E001970895FB01DC0152
S1135B6002C001900D9241505040D8F70895DC01D5
S1135B7001C06D9341505040E0F70895FC018191BC
S1135B80861721F08823D9F7992708953197CF01F3
S1135B900895FB01DC014150504048F001900D9202
S1135BA00020C9F701C01D9241505040E0F708950C
S1135BB0FA01A191B081009719F41097E1F0CD0199
S1135BC0DC01CD010D90002011F4C00113C0FB01D4
S1135BD02191222319F02015D9F7F3CFFB0121914C
S1135BE0201519F41E92119606C02223C1F70D90B8
S1135BF00020A1F7D001FA01A193B08308950F9377
S1135C001F93CF93DF93CDB7DEB72E970FB6F894DB
S1135C10DEBF0FBECDBF0D891E898F89988D26E00A
S1135C202C831A83098397FF02C080E090E80197D0
S1135C309E838D83AE01455E5F4F698D7A8DCE0163
S1135C4001960E946C2E4D815E8157FD0AC02F8102
S1135C503885421753070CF49A01F801E20FF31F39
S1135C6010822E960FB6F894DEBF0FBECDBFDF9123
S1135C70CF911F910F9108950F931F93CF93DF93AB
S1135C80CDB7DEB72E970FB6F894DEBF0FBECDBFEB
S1135C900D891E8986E08C831A8309838FEF9FE721
S1135CA09E838D83AE01475E5F4F6F89788DCE01F1
S1135CB001960E946C2E2F813885F801E20FF31FA4
S1135CC010822E960FB6F894DEBF0FBECDBFDF91C3
S1135CD0CF911F910F9108952F923F924F925F920F
