S01F00006275696C642F626967415652365F313238302F6D61696E2E7372656377
S11300000C94AB020C946C200C9476200C948020FD
S11300100C94A9200C94EF200C94F9200C94032147
S11300200C940D210C94CA020C94CA020C949921CC
S11300300C94CA020C947C1F0C94CA020C94BB1F2F
S11300400C94CA020C94CA020C94CA020C94CA02FC
S11300500C94CA020C94CA020C94CA020C94CA02EC
S11300600C94C51F0C94CA020C94CA020C94CA02C4
S11300700C94CA020C9447220C94CA020C94CA022F
S11300800C94CA020C94CA020C94CA020C94CA02BC
S11300900C94CA020C94CA020C94CA020C94172140
S11300A00C94CA020C94CA020C94CA020C94CA029C
S11300B00C94CA020C94CA020C94CA020C94CA028C
S11300C00C94CA020C94CA020C94CA020C94CA027C
S11300D00C94CA020C94CA020C94CA020C94CA026C
S11300E00C94CA02F60C650D2F0E5C0E680E6A0E97
S11300F0910E4E0F680FAB0F821187119111C81129
S11301004313B613DC1327149714C414F0141615F0
S11301101D153215F9160817FB17BA18B519F81A70
S11301200B1B4B1B7C1BC21BDF1B061C141C2F1C34
S11301308A1C840F870F8A0F8D0F900F930F960FD1
S1130140990F00020E060C040D090E7815511621A4
S11301501A591B531C411D571E2221432258234464
S113016024452578262329202A562B462C542D5203
S11301702E25314E324233483447355A3626394CCF
S11301803A4D3B4A3C553D2F3E28413B424B434967
S1130190444F453D4629493A4A5F4B4C4C784D50B3
S11301A04E3F5278547855605A0A5B5E5D2A613E30
S11301B0660869316B346C377030712C7232733568
S11301C074367538792B7A337B2D7C2A7D3900007F
S11301D00D090E7C157116311A791B731C611D777C
S11301E01E32216322782364246525342633292092
S11301F02A762B662C742D722E35316E326233685A
S11302003467357A3636392C3A6D3B6A3C753D375E
S11302103E38412C426B4369446F45304639492E80
S11302204A2D4B6C4C6F4D704E2B526F546F555C76
S11302305A0A5B785D27613C660869316B346C3718
S11302407030712C7232733574367538792B7A3379
S11302507B2D7C2A7D390000000000000000005F37
S113026000000007000700147F147F14242A7F2A4B
S11302701223130864623649552250000503000016
S1130280001C2241000041221C00082A1C2A0808E4
S1130290083E0808005030000008080808080060FC
S11302A060000020100804023E5149453E00427F90
S11302B0400042615149462141454B311814127F97
S11302C01027454545393C4A494930017109050320
S11302D03649494936064949291E00363600000088
S11302E05636000000081422411414141414412238
S11302F01408000201510906324979413E7E111168
S1130300117E7F494949363E414141227F41412284
S11303101C7F494949417F090901013E414151324C
S11303207F0808087F00417F41002040413F017F52
S1130330081422417F404040407F0204027F7F0432
S113034008107F3E4141413E7F090909063E415163
S1130350215E7F09192946464949493101017F0136
S1130360013F4040403F1F2040201F7F2018207F36
S1130370631408146303047804036151494543007A
S1130380007F4141020408102041417F0000040223
S11303900102044040404040000102040020545443
S11303A054787F48444438384444442038444448CA
S11303B07F3854545418087E090102081454543CDC
S11303C07F0804047800447D40002040443D000040
S11303D07F10284400417F40007C041804787C0886
S11303E004047838444444387C141414080814145D
S11303F0187C7C080404084854545420043F4440A6
S1130400203C4040207C1C2040201C3C4030403C90
S113041044281028440C5050503C4464544C44002C
S11304200836410000007F0000004136080008083B
S11304302A1C08081C2A08086E6F7465006E616D1A
S11304406500716469616C007069636F646500665E
S1130450726571006964004368616E6E656C204466
S1130460422046756C6C00676574006D736700709C
S113047075726765616C6C006C6973740075706487
S113048061746500616464006F6B004368616E6E43
S1130490656C206E6F7420696E206C697374210022
S11304A04661766F7572697465206E6F742073652A
S11304B074210042616E64206C696D6974207265F8
S11304C0616368656421004442206572726F722121
S11304D00044422066756C6C21004661766F75722B
S11304E0697465732066756C6C21004368616E6E77
S11304F0656C206C6973742066756C6C2100496EA0
S113050076616C6964206368616E6E656C21004677
S11305104D436C69636B20696E6974206661696C14
S113052065642100556E6B6E6F776E206572726F15
S11305307221004572726F723A00566F6C756D6568
S11305403A004D487A00456E746572204368616EC6
S11305506E656C3A000011241FBECFEFD1E2DEBFFE
S1130560CDBF13E0A0E0B2E0EEE1FAE500E00BBF9E
S113057002C007900D92A630B107D9F713E1A6E0A7
S1130580B3E001C01D92AB34B107E1F70E944824E7
S11305900C940D2D0C94000080912E128093BC00BD
S11305A00895289A08952898089576980895769A33
S11305B008958091BA128F3F69F0E82FF0E0E0557A
S11305C0F34F90819093BA129F3F11F490931D13AF
S11305D09FEF90830895EB9808959FB7F894E82FC0
S11305E0F0E0E055F34F20812F3F99F4E0911D1383
S11305F0E81779F02091BA122F3F19F48093BA12B8
S113060004C0F0E0E055F34F808380931D1380E035
S113061001C085E09FBF089588E00C94ED0285E059
S11306200C94ED028FE10C94ED028BE10C94ED023D
S11306308AE10C94ED028CE00C94ED028DE10C94B3
S1130640ED02ECE7F0E0208180917B003081908125
S11306508870880F880F2F71822B35FB222720F991
S113066020FB86F99295969596959370292F279558
S113067022272795822B969508958FB7F894909109
S1130680BC0090932E128FBF08952FB7F8946091F9
S1130690110F7091120F8091130F9091140F2FBFAF
S11306A00895CF92DF92EF92FF92CF93C82F6A0101
S11306B07B010E94450329E0C29FF0011124DF0160
S11306C0A151BE4E6D937D938D939C931397149675
S11306D0CD92DD92ED92FC921797E950FE4E808107
S11306E08E7F8260808381E1CF91FF90EF90DF90D5
S11306F0CF900C94ED028EBD0DB407FEFDCF8EB5E8
S113070008950C947B03CF93DF9300D0CDB7DEB76D
S11307106A8389830E94D30289810E9481036A814A
S1130720862F0E9481030F900F90DF91CF910C943C
S1130730D102CF93DF931F92CDB7DEB789830E9496
S1130740D30289810E94810380E00E947B03898314
S11307500E94D10289810F90DF91CF910895CF93A8
S1130760DF9300D0CDB7DEB76A8389830E94D302BA
S1130770898180680E9481036A81862F0E94810397
S11307800F900F90DF91CF910C94D1028F929F9292
S1130790AF92BF92CF92DF92EF92FF920F931F938B
S11307A0CF93DF932FEF280F9DE1299F9001112410
S11307B0890102591D4EF8019081911140C0E9014F
S11307C0C159DD4E2097D9F17A0151E0598318823D
S11307D01B8298E09A8396E09C8344E04D8380904A
S11307E0240290902502A0902602B09027028786CA
S11307F0908AA18AB28AD901A958BD4EE6E1F2E0F5
S1130800492F01900D924A95E1F7D901AF57BD4E9A
S1130810FB0101900D929A95E1F7F701C080D18018
S1130820E280F380F801C18ED28EE38EF48E8F8342
S11308301E82508382E10E94ED0280E001C085E0C7
S1130840DF91CF911F910F91FF90EF90DF90CF90A8
S1130850BF90AF909F908F9008952FB7F894809198
S11308601E08882309F1409132125091331260918D
S11308703412709135128091D80C9091D90CA091BA
S1130880DA0CB091DB0C840F951FA61FB71F4091A3
S1130890110F5091120F6091130F7091140F48179C
S11308A059076A077B0711F02FBF089510921E089D
S11308B02FBF80E10C94ED022FB7F8949091B11200
S11308C02FBF91110EC09FB7F89423E02093B1126B
S11308D01092B7128093180F9FBF0E94150380E0F7
S11308E0089581E00895DC0181E04D91442311F1E4
S11308F02091BE1230E090912F12F90154E0EE0FD6
S1130900FF1F5A95E1F7E90FF11DE754F04F4083BB
S11309109F5F90932F12F901E55EF04F8083903131
S113092021F710922F122F5F3F4F2170332720930E
S1130930BE12DBCF08958FB7F8941092BE078FBF15
S113094089E0E1ECF7E0DF011D928A95E9F781E4A3
S1130950EAECF7E0DF011D928A95E9F786E0EBE027
S1130960F8E0DF011D928A95E9F708950F931F932C
S1130970CF93DF9300D01F92CDB7DEB780913C04B4
S11309801F928F9387EC92E09F938F938E010F5F5A
S11309901F4F1F930F930E94E7291B821092BE12D0
S11309A088E080932F12C8010E94730486E20E949B
S11309B0ED020F900F900F900F900F900F900F90EB
S11309C00F900F90DF91CF911F910F9108952F9267
S11309D03F924F925F926F927F928F929F92AF92CB
S11309E0BF92CF92DF92EF92FF920F931F93CF9318
S11309F0DF93CDB7DEB7AD970FB6F894DEBF0FBE69
S1130A00CDBF2FB7F894909139042FBF9111F3C043
S1130A108B018BA78FB7F89492E0909339048FBF22
S1130A2044E050E064E874E0CE0101961C010E94A9
S1130A3030299E012B5F3F4F47E050E06DE774E0A3
S1130A40C9012CA73DA70E9430292E019CE0490E24
S1130A50511C43E050E064E574E0C2010E94302977
S1130A605E01AFE0AA0EB11C45E050E06FE474E013
S1130A70C5010E9430294E01BAE18B0E911C47E05A
S1130A8050E068E474E0C4010E9430296E0184E1FE
S1130A90C80ED11C46E050E062E474E0C6010E9436
S1130AA030297E0191E2E90EF11C45E050E06DE34E
S1130AB074E0C7010E9430293E01A6E26A0E711C4F
S1130AC045E050E068E374E0C3010E943029E5E3A7
S1130AD0F3E080E8DF011D928A95E9F72CA53DA596
S1130AE0BBA5BF3FA1F5D80118968C9118978F9399
S1130AF017968C9117978F937F926F9214968C917F
S1130B0014978F9313968C9113978F939F928F9230
S1130B1012968C9112978F9311968C9111978F93B3
S1130B20BF92AF928C911F928F93DF92CF921696C1
S1130B308C9116978F9315968C918F93FF92EF92C9
S1130B401F921F925F924F923F922F9237C09BA5A4
S1130B509F3008F040C0D80118968C9118978F9355
S1130B6017968C9117978F937F926F9214968C910E
S1130B7014978F9313968C9113978F939F928F92C0
S1130B8012968C9112978F9311968C9111978F9343
S1130B90BF92AF928C911F928F93DF92CF92169651
S1130BA08C9116978F9315968C918F93FF92EF9259
S1130BB01F929F935F924F923F932F938BE392E008
S1130BC09F938F93FF93EF930E94E7290FB6F894B6
S1130BD0DEBF0FBECDBF1092B403E5E3F3E0019096
S1130BE00020E9F7CF018653934090933403809318
S1130BF033030E941B03AD960FB6F894DEBF0FBEFD
S1130C00CDBFDF91CF911F910F91FF90EF90DF90B7
S1130C10CF90BF90AF909F908F907F906F905F9098
S1130C204F903F902F900895019701960197019658
S1130C30019701960197C1F7089510921203E0916C
S1130C4013038BE0E89FF0011124EA5CFD4E10824F
S1130C5084E10C94ED020F931F93CF93DF930091E3
S1130C60B5031091B603F801EA54FC4F20812A30F1
S1130C70D1F4EC0110826DE070E087EB93E00E9408
S1130C80692999838883009741F0FC011082888147
S1130C90998101969983888304C009541C4F198350
S1130CA0088381E001C080E0DF91CF911F910F9113
S1130CB0089548EE53E060E070E085E00C94510341
S1130CC01F93CF93DF938FB7F894C0910A03C11198
S1130CD03DC011E010930A031092A8128FBFDFB732
S1130CE0F89480910903811117C05098519810927B
S1130CF0B90081E48093B8001092BA001092BC004D
S1130D000E943D0380912E128E7F846080932E1268
S1130D100E94CC0210930903DFBFDFB7F8948091DF
S1130D200E02813089F480910A03813021F482E239
S1130D300E94ED0209C0823039F48091A812809398
S1130D400E0283E080930A03DFBF1DC0C091A81286
S1130D50CC23C1F090911D0F9F3F99F4E0910F02B5
S1130D60EE2379F0909110029F3F19F41092100233
S1130D7004C0F0E0E35EF04F108210920F02C0E076
S1130D8001C0C5E08FBF8C2FDF91CF911F910895D3
S1130D90882389F12FB7F8948091540A9091550AC9
S1130DA090699093550A8093540A1092BF1210923E
S1130DB0C0121092C11284E08093A9122FBF48E0A0
S1130DC050E060E270E083EC92E10E94622940E42A
S1130DD050E060E270E08DEC92E10E94622946E00E
S1130DE050E060E270E08DE093E10E94622988E0C7
S1130DF08CBBEB9A11C00E94EB022FB7F894809140
S1130E00540A9091550A9F769093550A8093540AF8
S1130E1084E08093A9122FBF0C9412031F93CF93E5
S1130E20DF931F92CDB7DEB7182F806479830E94B9
S1130E30830381E0810F7981672F80640F90DF91B4
S1130E40CF911F910C948303660F660F68B9439A80
S1130E5098B18295807F982B98B943980895CF9341
S1130E60DF93C82FD62F82958F700E9424076D2F91
S1130E708C2FDF91CF910C942407CF93DF939FB7EE
S1130E80F89480910D03882369F19FBFDFB7F8942C
S1130E90C0910D03C11109C081E080930D0310922C
S1130EA0110287E10E94ED0218C08091E30C8F3F8C
S1130EB099F4E0911202EE2379F0809113028F3FAE
S1130EC019F41092130204C0F0E0ED51F34F1082B4
S1130ED010921202C0E001C0C5E0DFBF8C2FDF9189
S1130EE0CF9108958CB58F7B8CBD229A2398219A3B
S1130EF0209A8CB580618CBD8CB58F778CBD8DB5F7
S1130F008E7F8DBD8CB5877F8CBD8CB58B7F8CBD62
S1130F108CB58C7F8CBD8CB580648CBDB6CF0F93A3
S1130F201F93CF93DF9380911313882309F43FC059
S1130F3010E0C0E0DFE10FB7F894809116138E7FC4
S1130F40809316130E942103282F2F73881F88274C
S1130F50881F9170990F892B181302C091E0D21346
S1130F6090E08091161390FB81F99D2F9F73990F48
S1130F70990F8370892B809316131111D064D09329
S1130F807C0080917B00877F80937B009091161377
S1130F908C2F8860806190FB85F9806480688093E1
S1130FA07A000FBFDF91CF911F910F910895C7E091
S1130FB011E0D0E0C0CFCF93DF93CFB7F8940E9475
S1130FC03D0380912E128E7F806980932E120E94A1
S1130FD0CC02CFBFDFB7F89480910A038330C1F508
S1130FE0C0910E02C11134C0809110028F3FC1F034
S1130FF0E82FF0E0E35EF04F9081909310029F3F62
S113100011F490930F029FEF90838093A812909312
S11310100E0281E080930A0382E20E94ED0216C070
S113102081E080930E0210920A03809109038130BB
S113103069F40E943D0380912E128A7680932E12C9
S11310400E94CC025898599810920903DFBF02C03D
S1131050DFBFC1E08C2FDF91CF91089510920B0375
S113106090910C032DE0929FF0011124E752F04F70
S11310701082911103C081110E941B0388E10C941A
S1131080ED02109214039091150328E0929FF00151
S11310901124EF5FF04F1082992329F0913029F445
S11310A00E942E0802C00E941D0683E10C94ED02EA
S11310B0811110C0662371F080911803813051F4BE
S11310C0109218038091F7118D7F8093F71181E0BE
S11310D00C9441080895882319F0813021F0089573
S11310E0862F0C94410810921603809117039DE1FA
S11310F0899FF0011124E259FD4E10820E94580884
S113110082E10C94ED02CF93DF931F92CDB7DEB74B
S113111089830E94D3028FEB0E94810383E00E94A3
S113112081030E94D10269818FE10F90DF91CF91F9
S11311300C94AF03FC01009719F481E00C9441086E
S11311403091E70C9091E80C8091960C811124C0A9
S113115047E95CE041155105F9F026E0DA01019018
S11311600D922A95E1F740E058E050939E0C40938D
S11311709D0C45EE5CE05093A00C40939F0C892F8E
S113118090E0932B9093A20C8093A10C81E0809328
S1131190960C8FE00C94ED020895882329F0813099
S11311A029F47298739A02C07398729A82B182B9C0
S11311B081B111B87498759A0E94D70282E090E0C8
S11311C00E94140680B1079B0DC00E94D50282E0E4
S11311D090E00E9414060E94D70282E090E00E94F0
S11311E01406F1CF0E94D502759881B18FEF81B9B1
S11311F00895CF93DF931F92CDB7DEB70E94CD0839
S113120081B111B8749A759A0E94D70282E090E075
S11312100E94140680B10E94D50282E090E00E94F0
S113122014060E94D70282E090E00E94140680B166
S113123089830E94D50289810F90DF91CF9108950F
S11312403FB7F89490931A088093190820911C08CA
S11312503FBF243081F0253071F48833944030F45A
S113126081E00E94ED0286E00C94ED0286E080931A
S11312703A040C940C030C945906CF93DF931F92F9
S1131280CDB7DEB769830E94CD08698162B981B1A7
S11312908FEF81B9749A75980E94D70282E090E02A
S11312A00E9414060E94D50280E00F90DF91CF9136
S11312B00895CF93DF931F92CDB7DEB769830E9461
S11312C0CD08749875980E94D70281B18FEF81B9C7
S11312D0698162B982E090E00E9414060E94D502FE
S11312E080E00F90DF91CF910895CF93DF93982FF3
S11312F0C62FD82FD295D695D695D37081E0D8270E
S11313009F73692F60648D2F0E9459096C2F677039
S1131310686B8D2FDF91CF910C9459095F926F9276
S11313207F928F929F92AF92BF92CF92DF92EF9271
S1131330FF920F931F93CF93DF9390EE980F903605
S113134008F054C06B0190E0809725E0289F80014D
S1131350299F100D1124085A1D4F912C89EF682ED6
S11313606D0C55245394AA24A394B12CF92CFC0C91
S1131370D62DF8017490F6FACC27C0F9C5258D2E28
S1131380869486948694FD2FF770EF2E682D8F2D0A
S113139070FE0DC00E9475098C2F0E94F908B501DA
S11313A001C0660FEA94EAF7E82EE62A0DC00E940F
S11313B075098C2F0E94F908950101C0220FEA9447
S11313C0EAF72095E82EE222682D8F2D0E947509F8
S11313D06E2D8C2F0E943D097694DF5FDD11CFCFF7
S11313E00F5F1F4F939485E09812C0CFDF91CF9188
S11313F01F910F91FF90EF90DF90CF90BF90AF902F
S11314009F908F907F906F905F900895EF92FF92DE
S11314100F931F93CF93DF9300D0CDB7DEB77C013A
S1131420162F962F00E0F701E00FF11D8491882319
S1131430B1F08A3011F08D3019F4485F912F0DC04E
S1131440893011F4965F09C09A5F692F742F49831C
S11314509A830E948E099A8149810F5FE4CF0F908D
S11314600F90DF91CF911F910F91FF90EF9008950E
S1131470FF920F931F93CF93DF93F62E8C01D42FFB
S1131480CF2DF80181918F01882379F08A3011F0F2
S11314908D3011F4D85FF4CF893011F4C65FF1CFE9
S11314A0CA5FBE010E948E09ECCFDF91CF911F91DC
S11314B00F91FF900895CF939FB7F894C0911C08A3
S11314C09FBF811112C048E260E086E892E00E946A
S11314D0380AC53031F08FB7F8948FBFCF910C9490
S11314E0590683E0CF910C94ED02813011F484E02D
S11314F001C085E080933A04CF910C940C03CF9300
S1131500DF93C0E06C2F80E00E9475096C2F80E4AB
S11315100E947509D0E060E080E00E943D0960E02F
S113152081E00E943D09DF5FD038A9F7CF5FC83062
S113153049F780E0DF91CF910895CF93C091B11224
S1131540813011F48EE11AC00E94DB071092B412AC
S113155081E20E94ED02C23059F020F4C13089F4D6
S113156089E10CC0C33039F0C63059F48CE106C0AF
S1131570CF910C941803CF910C941503CF910C9434
S1131580ED02CF910895811110C08091BB0090911C
S1131590AA12E091DF0CF091E00CE90FF11D8083B9
S11315A08091AA128F5F8093AA122091AA1280912F
S11315B01D08281788F430E090E0019728173907B0
S11315C049F48091481382FD05C080912E128F7BCF
S11315D080932E120C94CC0280912E12282F2E7FF1
S11315E09091481391FF0AC09D7F90934813822FD6
S11315F0806180932E128091B90003C08E7780930E
S11316002E120E94CC0281E08093090380910D0286
S1131610811102C00C949D0A0895CF93C091B11218
S1131620813011F480E214C00E94DB071092B412DE
S1131630C33089F038F4C13051F0C23079F4CF911D
S11316400C941803C63050F41092B11207C089E10B
S1131650CF910C94ED02CF910C941503CF91089582
S11316608091AA1290911D08891780F4E091DF0CF3
S1131670F091E00CE80FF11D80818093BB00809114
S1131680AA128F5F8093AA120C94CC0280912E121E
S1131690282F2E7F9091481391FF06C09D7F909331
S11316A04813822F806101C08E7780932E120E948E
S11316B0CC0281E08093090380910D02811102C064
S11316C00C940D0B0895CF93DF931F92CDB7DEB723
S11316D089830E943D0390912E129A7F90932E123B
S11316E00E94CC020E943D0390912E12946090932C
S11316F02E120E94CC0291E09093090320910803DA
S113170090910D028981222339F091110CC00F9020
S1131710DF91CF910C949D0A911105C00F90DF9138
S1131720CF910C940D0B0F90DF91CF910895CF9230
S1131730DF92EF92FF92CF93C82F6A017B010E9440
S1131740450329E0C29FF0011124DF01A151BE4EDF
S11317506D937D938D939C9313971496CD92DD9204
S1131760ED92FC921797E950FE4E80818160826071
S1131770808381E1CF91FF90EF90DF90CF900C9424
S1131780ED0281E08093180349E153E166E072E0E1
S11317900E94C60344E650E060E070E080E00C94F0
S11317A0970B4F925F926F927F928F929F92AF921C
S11317B0BF92CF92DF92FF920F931F93CF93DF9349
S11317C0AFEEB1E1C12CD12C49E04C9DF0014D9D0F
S11317D0F00D1124EF01C151DE4EF884F1FEC6C0B4
S11317E00D911D912D913C91139714968D909D9080
S11317F0AD90BC9017972B013C01401A510A620A24
S1131800730A481459046A047B0408F4AFC0F0FE58
S113181006C0E950FE4E20812D7F20830AC0B90105
S1131820A801480D591D6A1D7B1D488359836A838D
S11318307B8323E0C21609F450C02C1538F081E0F4
S1131840C81681F022E0C216F1F12DC085E0C81659
S113185009F47FC0C81608F442C026E0C21609F491
S11318607CC021C0109220131092211310922213D5
S11318701092231310922A1310922B1310922C13EC
S113188010922D13109234131092351310923613B4
S11318901092371310923E1310923F13109240137C
S11318A0109241136CC010921803809119038F5F3A
S11318B080931903833018F40E94C10B60C081E047
S11318C00E9441085CC09FB7F8948091B1129FBFF9
S11318D0813009F054C089E13DC086E23BC09FB726
S11318E0F89480910603811127C081E08093060358
S11318F01092150F9FBF9FB7F89480917A0080686B
S113190080937A009FBFCFB7F89480910C02813006
S113191089F480910603813021F484E20E94ED026F
S113192009C0823039F48091150F80930C0283E052
S113193080930603CFBF23C08091150F882339F00D
S11319408091EE1180FD03C081608093EE119FBFF2
S113195016C081E00E94ED0212C08FB7F89491E0A6
S113196090931C088FBF0E94590609C02FEFC21A1A
S1131970D20A199627E0C216D10409F026CF81E1D4
S1131980DF91CF911F910F91FF90DF90CF90BF9087
S1131990AF909F908F907F906F905F904F900C943A
S11319A0ED023F924F925F926F927F928F929F923D
S11319B0AF92BF92CF92DF92EF92FF920F931F9359
S11319C0CF93DF93CDB7DEB7CD55D1090FB6F894D9
S11319D0DEBF0FBECDBF90E08732910510F00C94AE
S11319E05E1FFC01EE58FF4F0C94AA268FB7F894A3
S11319F010911B08009111088FBF0E947F0A4AE0D2
S1131A0060E086E495E00E94060A812F90E0C0978A
S1131A100A9778F4043068F48FB7F894E0911108C9
S1131A2091E09E0F90931108F0E0EF5EF74F118361
S1131A308FBF183071F4002361F08FB7F894E091F0
S1131A401108E150E0931108F0E0EF5EF74F1182C6
S1131A508FBF9FB7F89485E0E2E1F8E0DE011196CC
S1131A6001900D928A95E1F79FBF44E160E0CE01B9
S1131A7001960E94380A173611F00C945E1F4AE052
S1131A8050E060E070E0CE0101960E94DB272FB7A2
S1131A90F89433E030931C082FBF9B012B5633403E
S1131AA02E3C310538F081E080933A040E940C0307
S1131AB00C945E1F2FB7F89470931808609317085E
S1131AC02FBF0E940F030C945E1F2FB7F8948091D0
S1131AD0190890911A0831E030931C082FBF4091E7
S1131AE0470427E434E010E0141759F0255C3F4F15
S1131AF0F901F897608171816817790719F01F5F00
S1131B00F3CF1FEF6AE070E00E9496269F938F93B5
S1131B107F936F9389E892E09F938F937E0126E5EC
S1131B20E20EF11CFF92EF920E94E7290E947F0AC5
S1131B3047E060E0C7010E94380A47E064E282E4BB
S1131B4095E00E94060A0FB6F894DEBF0FBECDBF23
S1131B501F3008F042C0E12EF12C1F921F938FE832
S1131B6092E09F938F938E01055A1F4F1F930F93FB
S1131B700E94E729D80112961C9247E06CE3C80141
S1131B800E94380A8BE38E9DF0018F9DF00D112485
S1131B90E95BFB4F0F900F900F900F900F900F90F9
S1131BA082818823D1F0BFEFEB1AFB0AFF92EF92F8
S1131BB083E992E09F938F931F930F930E94E729E9
S1131BC0F801128247E06EE4C8010E94380A0F90BF
S1131BD00F900F900F900F900F9085E1EAECF7E0D3
S1131BE0DE01A05CBF4F01900D928A95E1F785E17B
S1131BF0EFEDF7E0DE019A9601900D928A95E1F7F8
S1131C0086E1E4EFF7E0DE01119601900D928A95EA
S1131C10E1F766961FAE66971FAE1F8A4FE060E03D
S1131C2081EC97E00E94380A4FE066E38BE098E08D
S1131C300E94380A47E16AE7CE01805C9F4F0E9408
S1131C40380A4FE16AE7CE018A960E94380A47E2D1
S1131C506AE7CE0101960E94380A0C945E1F8091B7
S1131C603B0490913C04891711F40C945E1F2FB728
S1131C70F8949091B1122FBF911116C04FB7F894F8
S1131C8035E03093B112282F2F708091560A90912D
S1131C90570A807F822B9093570A8093560A309379
S1131CA0A9124FBF0E94120380913B0480933C040D
S1131CB00E94B6040C945E1F80E00E945C0488239A
S1131CC011F40C945E1F84E00E94ED020C945E1FDC
S1131CD081E0F3CF2FB7F8948091170890911808FA
S1131CE02FBF3FB7F8942091B1123FBF21110C943C
S1131CF0CC1C9C012B5633402E3C310510F00C9427
S1131D00CC1C2FB7F89432E03093B1121092B61273
S1131D1090931813809317132FBF0E9418030C94E9
S1131D205E1F8FB7F8944091190850911A088FBF1D
S1131D3090914704E7E4F4E020E030E0822F291793
S1131D4008F04DC0D901638174812F5F3F4FFB962A
S1131D506417750799F78F3008F041C02FB7F894CE
S1131D609091BE072FBF2BE32A9FB0012B9F700DCC
S1131D7011249B01295B3B4FD90117964D915C912E
S1131D801897452B11F5992301F19FB7F8944091C9
S1131D90BF075091C0079FBFF90156834583AB012C
S1131DA04E5A5B4F98E0E1ECF7E0DA0101900D92B6
S1131DB09A95E1F7D90118965C934E931797675B50
S1131DC07B4F0E94E7040C945E1F8FB7F89491E058
S1131DD090931C088FBF0E9459060C945E1F9F307D
S1131DE038F082E080933A040E940C030C945E1F46
S1131DF08FB7F8949091BE078FBFE09147048BE3AF
S1131E008E9FF0011124E75BFB4F108252834183C4
S1131E1021E030E0348323831682158210861782F2
S1131E202091470420934804992331F19FB7F894F3
S1131E302091BF073091C0079FBFA09147048A9F9C
S1131E40D0011124FD01E95BFB4F36832583AE5A93
S1131E50BB4F98E0E1ECF7E001900D929A95E1F721
S1131E6090914704899FC0011124FC01E95BFB4F59
S1131E708E5A9B4F9087878360914704BBE36B9F87
S1131E80B0011124675B7B4F8FEF0E94E7048091C0
S1131E9047048F5F809347040C945E1F0E947F0A5F
S1131EA04AE060E083E395E00E94060A80913A04E8
S1131EB044E160E0811106C08FE095E00E94060ACB
S1131EC00C945E1F84E295E00E94060A0C945E1F47
S1131ED0809124128D7F809324120E947F0A4AE00D
S1131EE060E083E395E00E94060AE0913A048E2FB5
S1131EF090E0FC013197E830F105F0F4E756FF4F2C
S1131F0044E160E00C94AA268EEF94E019C08BEEB5
S1131F1094E016C08AED94E013C081ED94E010C003
S1131F2087EC94E00DC083EB94E00AC080EA94E06F
S1131F3007C08BE894E004C044E160E084E295E0EB
S1131F400E94060A48EE53E060E070E086E00E94DA
S1131F50970B0C945E1F89E0EAE2F2E0DE019A96A8
S1131F6001900D928A95E1F79FB7F894E0911B08D0
S1131F7080911C089FBF90911C08913009F0B9C151
S1131F80E93609F447C118F5E13609F453C0C0F441
S1131F90EC3209F4EFC0EE3209F07CC10E949B04DC
S1131FA0809124128D7F809324128FB7F89494E04B
S1131FB090931C088FBF83E00E94ED020C945E1F77
S1131FC0E63609F442C0E83609F478C063C1E03764
S1131FD009F4E2C070F4EC3609F491C0EF3609F06C
S1131FE059C1BE01665D7F4F8FEF0E94E7040C94D8
S1131FF05E1FE33709F4ACC0E43709F04BC10E941B
S11320009B04809124128D7F809324128FB7F894BF
S11320101092110895E0E2E1F8E0DF011D929A9533
S1132020E9F792E090931C088FBF80E00E94ED02D4
S11320300C945E1F8FB7F89496E090931C088FBFA2
S113204086E00E94ED020C945E1F8FB7F89496E030
S113205090931C088FBF80913D04893040F5909186
S113206048042BE3929FF0011124E95BFB4F40915C
S1132070190850911A08238134814217530739F003
S113208088E080933A040E940C030C945E1FA82FEE
S1132090B0E0A35CBB4F11969C9391E0980F909392
S11320A03D04828386E00E94ED020C945E1F83E06F
S11320B080933A040E940C030C945E1F80914804A0
S11320C0811102C0809147048150809348048FB7E6
S11320D0F89493E090931C08E09148046BE3E69F26
S11320E0F0011124E95BFB4F2381348130931808FC
S11320F0209317088FBF0E940F030C945E1F20913A
S11321004804422F50E08091470490E0019748171B
S1132110590719F41092480403C02F5F2093480410
S11321208FB7F89493E090931C08E09148049BE3E4
S1132130E99FF0011124E95BFB4F23813481309343
S11321401808209317088FBF0E940F030C945E1F7A
S11321500E949B048FB7F89495E090931C082BE69B
S113216033E030931808209317088FBF0E940F03A1
S11321700C945E1F0E949B04809124128D7F809397
S113218024128FB7F89494E090931C088FBF84E0D6
S11321900E94ED020C945E1F9FB7F894809139045D
S11321A09FBF81110C945E1F8FB7F89495E09093B4
S11321B039048FBF49E050E06FE674E0FE013196C8
S11321C07F01CF010E94302905E313E080E8D801A4
S11321D01D928A95E9F7FF92EF9287E992E09F9327
S11321E08F931F930F930E94E729F8010190002019
S11321F0E9F78F010653134010933403009333031C
S11322000E941B030F900F900F900F900F900F9050
S11322100C945E1F9FB7F894809139049FBF81117D
S11322200C945E1F8FB7F89493E0909339048FBF9A
S11322301092370445E050E068E774E0FE013196FF
S11322407F01CF010E94302905E313E080E8D80123
S11322501D928A95E9F7FF92EF9287E992E09F93A6
S11322608F931F930F930E94E729F8010190002098
S1132270E9F78F010653134010933403009333039B
S11322800E941B030F900F900F900F900F900F90D0
S11322900C945E1F8FEC8E0F893010F00C945E1F2F
S11322A0E053F0E0E35CFB4FE181EF30D8F48FB70B
S11322B0F89493E090931C08BBE3EB9FF001112486
S11322C0E95BFB4F2381348130931808209317086E
S11322D08FBF809124128D7F809324120E940F035C
S11322E00C945E1F87E080933A040E940C030C94C4
S11322F05E1F823011F00C945E1F80E00E94ED029C
S11323000C945E1F82E00E945C040C945E1F0E9489
S11323107F0A4AE060E08CE992E00E94380A0C945B
S11323205E1F40913303509134038091D90F811182
S11323302BC08AED9FE0892B39F185E393E09093DC
S1132340E30F8093E20F80EC8093DA0F88EA8093A6
S1132350DB0F8AE28093DC0F81E08093DD0F20E5C0
S113236033EC3093DF0F2093DE0F3093E10F209393
S1132370E00F5093E50F4093E40F8093D90F88E169
S11323800E94ED020C945E1F0E941B030C945E1FBE
S11323909FB7F894809139049FBF833009F443C0F8
S11323A0843009F484C0823009F066C1CE018A9673
S11323B00E942B06882309F45FC142E050E068E8DC
S11323C074E087EB93E00E9422292AA53BA5892B80
S11323D0A1F4AE014F5F5F4F6FEA72E0C9010E9442
S11323E083294AE050E060E070E089819A810E948C
S11323F0DB276F3048F480E008C06BE674E0C90165
S11324000E943F29009721F482E00E945B0A34C1B4
S11324104FE050E067E574E004960E942229892B7E
S113242099F781E0F2CF8091B9038A3039F44CE313
S113243060E083E692E00E94380A1EC1CE018A96CB
S11324400E942B06882309F417C1109222031092CC
S11324502303AE014F5F5F4F61EB72E08AA59BA53A
S11324600E9483290097D1F04AE050E060E070E0D8
S11324700E94B0266F3050F4E091220381E08E0F69
S113248080932203F0E0EE5DFC4F6283AE014F5F68
S11324905F4F61EB72E080E090E0E2CF8091220335
S11324A0882309F4E9C081E080933804E2C0CE01B6
S11324B08A5A9F4F0E942B06882309F4D6C0AE0186
S11324C0465D5F4F6FEA72E068968EAD9FAD689788
S11324D00E9483298C01009709F4BDC0B3EB8B2EB5
S11324E0B2E09B2E88E0382E3E01E0E46E0E711CB3
S11324F04AA45BA442E050E064E574E0C8010E9491
S11325002229892B61F44AE050E060E070E0C201C6
S11325100E94DB276F3008F09EC0F62E8FC044E087
S113252050E06FE474E0C8010E942229892B81F4F1
S11325304AE050E060E070E0C2010E94DB279B01AA
S11325402B5633402E3C310508F085C06B0176C014
S113255046E050E068E474E0C8010E942229892B17
S113256049F44AE050E060E070E0C2010E94DB27D9
S11325705B0164C045E050E062E474E0C8010E947D
S11325802229892B71F44AE050E060E070E0C20136
S11325900E94DB278FEF860F893008F05CC0E62E9F
S11325A04DC044E050E06DE374E0C8010E9422296C
S11325B0892B49F55F924F929F928F921F923F927F
S11325C07F926F920E94AA292A961FAE2A97EAA5A3
S11325D0FBA5CF0108969BA78AA70FB6F894DEBF88
S11325E00FBECDBF80858C32B1F5CF0109969BA774
S11325F08AA76CE270E00E946929009761F1019654
S11326009BA78AA71BC044E050E068E374E0C801BC
S11326100E942229892B91F448E250E0B201CE01B4
S113262001960E947429AA961FAEAA978E01005C97
S11326301F4F9501A6016E2D8F2D15C0AE01465D6D
S11326405F4F6FEA72E080E090E00E9483298C0182
S1132650009709F04DCF0FA518A92DA53EA54BA5B0
S11326605CA56AA58EEF0E94EA2380913804882332
S113267019F08EE00E94ED028FB7F894109239049D
S11326808FBF0C945E1F40912303242F30E0809170
S1132690220390E0821B930B181619060CF053C00A
S11326A04F5F40932303F901EE5DFC4FB2809FB767
S11326B0F894809139049FBF81110C945E1F8FB7E9
S11326C0F89494E0909339048FBF44E050E067E6B7
S11326D074E0DE0111967D01CD010E9430296E0166
S11326E0BAE2CB0ED11C43E050E064E574E0C601CD
S11326F00E94302905E313E080E8F80111928A95DD
S1132700E9F71F92BF92DF92CF92FF92EF9288EB8C
S113271092E09F938F931F930F930E94E729F801F0
S113272001900020E9F78F010653134010933403FE
S1132730009333030E941B030FB6F894DEBF0FBE51
S1132740CDBF0C945E1F1092380410922203109295
S113275023038FB7F894109239048FBF4CE360E0E1
S113276083E692E00E94380A0C945E1F80911C0359
S113277081110C945E1F80911D038F5F8170809383
S11327801D03EDE0E89FD0011124AA56B34F9C919C
S1132790913011F40C94CF1C8F5F817080931D03D2
S11327A0E89FF0011124EA56F34F8081813011F043
S11327B00C945E1F0C94CF1C8091DE0C811141C0DF
S11327C04091AB125091AC126091AD127091AE1267
S11327D02FB7F894C0903212D0903312E090341294
S11327E0F09035128091D80C9091D90CA091DA0C0C
S11327F0B091DB0C8C0D9D1DAE1DBF1D2FBF4093F2
S1132800AB125093AC126093AD127093AE1210924F
S1132810DE0C2FB7F89431E030931E088093D80C67
S11328209093D90CA093DA0CB093DB0C4093321242
S11328305093331260933412709335122FBF0E9459
S11328402D040E9445030E94D10B0C945E1F0E942C
S113285045032FB7F89410921E082FBFEFEEF1E155
S113286010E044244A94542C642CAFE77A2E20E0E0
S113287030E009E0029FA001039F500D1124DA010A
S1132880A151BE4E18964C9141FF1AC0C080D18010
S1132890E280F3804B015C018C189D08AE08BF08F0
S11328A0C480D580E680F780C818D908EA08FB08F8
S11328B0C414D504E604F7041CF42601370111E01E
S11328C02F5F3F4F399627303105A1F6112311F4BC
S11328D00C945E1F141415041604170424F00E94AB
S11328E0D10B0C945E1F4092AB125092AC126092CA
S11328F0AD127092AE1221E02093DE0C3FB7F89433
S113290020931E086093D80C7093D90C8093DA0C32
S11329109093DB0C40923212509233126092341234
S1132920709235123FBF0E942D040C945E1F80915B
S1132930160381110C945E1F8091170390E0019699
S113294081709927809317032DE1289FF001299F17
S1132950F00D1124E259FD4E3081313011F40C9404
S1132960271D01968170992780931703289FF001F2
S1132970299FF00D1124E259FD4E8081813011F020
S11329800C945E1F0C94271D8091140381110C94E8
S11329905E1FE0911503EF5FE170E0931503AE2F26
S11329A0B0E0F3E0AA0FBB1FFA95E1F7AF5FB04FB9
S11329B08C91813011F40C94691DEF5FE170E09308
S11329C01503F0E073E0EE0FFF1F7A95E1F7EF5F78
S11329D0F04F8081813011F00C945E1F0C94691DBE
S11329E08091120381110C945E1F809113038F5FF9
S11329F0817080931303EBE0E89FD0011124AA5C5B
S1132A00BD4E9C91913011F40C947B1E8F5F8170AC
S1132A1080931303E89FF0011124EA5CFD4E80814A
S1132A20813011F00C945E1F0C947B1E81E0809326
S1132A300E030E943D070C945E1F8FB7F89410920A
S1132A40200810921F081092DD0C1092DC0C1092DA
S1132A5015131092141310921A0F1092190F8FBF9E
S1132A600C945E1F8FB7F89492E090930D038FBF80
S1132A708091110281110C945E1F0E94D1028091F9
S1132A801103813021F0823009F498C076C16FEFD0
S1132A908FEF0E9483038DE10E94990380FFFBCF97
S1132AA080E00E94830860E076E088E00E940E07E0
S1132AB080E096E0909315028093140260E076E043
S1132AC08CE00E940E076FEF7FE18AE00E940E0700
S1132AD060E070E084E00E940E0760E88EE50E94EA
S1132AE0830381E00E94830861EA88E50E948303EE
S1132AF082E00E94830860E081E40E94830361E035
S1132B0080E40E94830363E382E40E94830360E021
S1132B1083E40E9483036AE272E08AE00E940E0763
S1132B2065E184E40E948303909128028091290244
S1132B3090931B0280931A0283E00E9483086091A1
S1132B401B0281E40E94830360911A0280E40E94C4
S1132B5083036091190283E40E9483036091180245
S1132B6082E40E9483036091170285E40E94830338
S1132B706091160284E40E94830382E00E94830829
S1132B8064E184E50E94830360E471E086E10E94CD
S1132B900E0762E184E50E94830362E170E086E14E
S1132BA00E940E0760ED8BE50E94830364E08FE1D1
S1132BB00E94AF0382E080931103DFC080910E0373
S1132BC0882309F43FC010920E038CE10E949903FC
S1132BD0182F84FF20C082E00E94830863E184E50B
S1132BE00E94830361E082E50E94830383E00E94E4
S1132BF083088AE00E94C12280FDFBCF82E00E940C
S1132C00830860E082E50E94830388E10E94C12278
S1132C1089E10E94C12281E00E94830889E10E9427
S1132C209903882319F081E080930F0310FF0AC0F1
S1132C300E94D3028CEB0E94810381E00E948103F5
S1132C400E94D102809110038130E1F580E00E945E
S1132C50830860E070E082E00E940E0760E08AE78B
S1132C600E94830300E010E06091E10C7091E20C9B
S1132C700617170768F4E0914C12F0914D12E00F1B
S1132C80F11F60818AE70E9483030F5F1F4FECCF1F
S1132C9086E00E940E0768E08FE10E94AF03109265
S1132CA0100310921C0380911D036DE0869FF001B8
S1132CB01124EA56F34F108260E00E946B088FE003
S1132CC00E94ED0280910F03813009F056C080E02C
S1132CD00E948308609114027091150280E00E94A2
S1132CE00E078AE30E94990390E090931502809363
S1132CF014028AE30E949903209114023091150270
S1132D00382B30931502209314028AE30E9499030E
S1132D10082F10E08AE30E949903182B8AE30E948B
S1132D2099038AE30E949903C8010F978B3192405B
S1132D3090F441E2E42E48E0F42E8AE30E949903E1
S1132D40F70181937F01CF01815298408017910749
S1132D50A0F310E001C011E060911402709115021B
S1132D608CE00E940E0760E48EE10E94AF03109293
S1132D700F03111102C00E94DA221FB7F894809148
S1132D800D03823011F58091110281111EC08091D2
S1132D9013028F3FB1F0E82FF0E0ED51F34F908133
S1132DA0909313029F3F11F4909312029FEF90832C
S1132DB08093110281E080930D0387E10E94ED026C
S1132DC004C08093110210920D031FBF9FB7F894A3
S1132DD080910D03882311F40C94FB1E9FBF1FB731
S1132DE0F8944A9903C085E10E94ED021FBF0C9438
S1132DF05E1F80910B0381110C945E1F10920C03D3
S1132E00F090D90FF1E0FF120C945E1F0C94001F98
S1132E109FB7F8948091B5129FBF811110C05A9A40
S1132E2048EE53E060E070E082E00E94970B8FB7B9
S1132E30F89491E09093B5128FBF0C945E1F81308B
S1132E4051F48FB7F89492E09093B5128FBF0E941B
S1132E501E030C945E1F8230D1F42FB7F894809136
S1132E605A0A90915B0A906890935B0A80935A0A7D
S1132E7010926B0A10926A0A8FE08093A91283E081
S1132E808093B5122FBF0E9412030C945E1F8330EF
S1132E9079F48FB7F89494E09093B5128FBF4EEE07
S1132EA052E060E070E082E00E94970B0C945E1F99
S1132EB0843099F48FB7F89421E030E43093510AC8
S1132EC02093500A92E09093A91295E09093B51242
S1132ED08FBF0E9412030C945E1F853079F48FB764
S1132EE0F89496E09093B5128FBF46E950E060E005
S1132EF070E082E00E94970B0C945E1F863051F4C0
S1132F008FB7F89497E09093B5128FBF0E941E0379
S1132F100C945E1F873009F03FC02FB7F89480915E
S1132F204E0A90914F0A2FBF8335924161F08FB7BB
S1132F30F8941092B1128FBF10923A0487E00E9465
S1132F40ED020C945E1F2FB7F8948091540A90916F
S1132F50550A83739772846098649093550A80939A
S1132F60540A80E199E19093570A8093560A80911C
S1132F70580A9091590A88279E7F8F649093590A22
S1132F808093580A86E08093A91288E08093B51252
S1132F902FBF0E94120392C7883009F08FC78FB7E2
S1132FA0F8941092B1128FBF44E650E060E070E0F4
S1132FB084E00E9451039FB7F89481E080931C0839
S1132FC09FBF3FB7F8949091B9122091B1128093AA
S1132FD0B9123FBF21110BC0913049F08FB7F8945B
S1132FE094E09093B1128FBF81E00E94C8068BE0F9
S1132FF00E94ED0263C79FB7F8948091B6129FBFF9
S1133000811122C02FB7F89480911713909118134F
S11330108B569340937090689093530A8093520A0E
S11330208091540A9091550A9F7690649093550A22
S11330308093540A84E08093A91281E08093B612AD
S11330402FBF0E9412033AC7813051F48FB7F8940E
S113305092E09093B6128FBF88E08CBBEB9A2EC798
S1133060823049F48FB7F89493E09093B6128FBFEF
S11330700E941E0323C7833041F52FB7F894809133
S1133080620A9091630A937085599C4F90931F1321
S113309080931E138091520A9091530A9F779093C4
S11330A0530A8093520A8091540A9091550A9F7B47
S11330B09093550A8093540A84E08093A9128093D4
S11330C0B6122FBF0E941203F9C6843049F48FB799
S11330D0F89495E09093B6128FBF0E941E03EEC63B
S11330E0853009F0EBC62FB7F8948091600A90916F
S11330F0610A88279074892F99272FBF892B89F516
S113310020911E1330911F139FB7F89430931A081F
S11331102093190880911C089FBF833031F08530BB
S113312021F483E00E94ED0202C00E9459068FB789
S1133130F8949FE09093C2128FBF8091B9128823B4
S113314051F08FB7F89494E09093B1128FBF81E05F
S11331500E94C806B3C68FB7F8941092B1128FBFFD
S1133160ADC68FB7F89494E09093B6128FBF0E94C7
S11331701803A4C69FB7F8941091180F8091B71242
S11331809FBF81113FC02FB7123061F4F894809132
S1133190500A9091510A95609093510A8093500A75
S11331A02FBF0EC0F8948091500A9091510A9A7FD3
S11331B091609093510A8093500A2FBF111176C6E3
S11331C02FB7F8948091500A9091510A926090938D
S11331D0510A8093500A2FBF2FB7F8948091540A54
S11331E09091550A9F7690649093550A8093540A5F
S11331F084E08093A91281E08093B7122FBF0E94CC
S113320012035CC6813051F48FB7F89492E0909326
S1133210B7128FBF88E08CBBEB9A50C6823049F45A
S11332208FB7F89493E09093B7128FBF0E941E0358
S113323045C6833081F52FB7F8948091600A909148
S1133240610A8827907290931F038091620A90917B
S1133250630A937085599C4F90931F1380931E1398
S11332608091500A9091510A9E7F9093510A8093C5
S1133270500A8091540A9091550A9F7B9093550A65
S11332808093540A84E08093A9128093B7122FBFCD
S11332900E94120313C6843049F48FB7F89495E062
S11332A09093B7128FBF0E941E0308C6853009F0A1
S11332B005C62FB7F8948091600A9091610A882717
S11332C09074892F99272FBF892B09F045C08091CD
S11332D01F03811129C080911E1390911F130E9416
S11332E020098FB7123039F4F8941092B7128FBFB7
S11332F00E941503E3C5F8949FE09093C2128FBF18
S11333008091B912882351F08FB7F89494E0909388
S1133310B1128FBF81E00E94C806D0C58FB7F89460
S11333201092B1128FBFCAC58FEF9FEF0E94200980
S11333308091B912882351F08FB7F89494E0909358
S1133340B1128FBF81E00E94C806B8C58FB7F89448
S11333501092B1128FBFB2C58FB7F89494E09093D6
S1133360B7128FBF0E941503A9C58FB7F894609157
S1133370B8128FBF611109C08FB7F89491E0909390
S1133380B8128FBF0E941E0399C5613009F096C51B
S11333904FB7F894E091640AF091650A8091660A47
S11333A0A091670A9091680A7091690A20916A0A4B
S11333B030916B0A4FBF4A2F46954695469550E08B
S11333C04430510509F45BC024F44230510550F0F7
S11333D0F7C04530510509F47FC04830510509F460
S11333E0AEC0EEC04FB7F894F093CB12E093CC127A
S11333F08370E82FF0E0EE0FFF1FE154FD4E34839D
S1133400258321E030E0D90102C0AA0FBB1F8A95B1
S1133410E2F7CD019091BF12892B8093BF124FBF69
S11334208F3009F0CDC089E0E1ECF7E0DF011D92B7
S11334308A95E9F788E0E3ECF2E1A1ECB7E00190CA
S11334400D928A95E1F72FB7F8946093BE078091A7
S1133450CB1290E0982F88273091CC12832B909335
S1133460C0078093BF072FBF48E050E060E270E0E0
S113347083EC92E10E9462291092BF12A1C08F7066
S1133480FFB6F894B4E08B9FA00111248A01015483
S11334901D4EF8017687BA0160547D4EDB011E96FD
S11334A09C93DA01AF53BD4E1E963C931E974E5328
S11334B05D4EFA012687FFBEF80196859D3021F105
S11334C0FB0196859D3001F11E969C919D30E1F0A3
S11334D0DA011E969C9116C08F709FB7F894E82F5E
S11334E0F0E0EE0FFF1FDF01A154BD4E1E963C938A
S11334F01E97E054FD4E26879FBF1E969C919D30DB
S113350019F096859D3011F48093C2129FB7F894F8
S11335108091C0128F5F8093C0129FBF81E4EAEC58
S1133520F7E0DF011D928A95E9F780E4EDECF2E122
S1133530AAECB7E001900D928A95E1F741C0892F7A
S113354082958071932F92959F70892BA901E6E053
S113355056954795EA95E1F74F73922F9F7196958B
S113356025FF02C0891B01C0890F0FB7F894EDE055
S1133570F3E116E0DF01212F1D922A95E9F71F924E
S11335804F931F928F9382EC92E09F938F93FF93BC
S1133590EF930E94E7290FBFEBE0F8E0DF01212F52
S11335A01D922A95E9F7EDE0F3E1ABE0B8E0019074
S11335B00D921A95E1F70FB6F894DEBF0FBECDBF9A
S11335C08091B91281110CC08FB7F89494E0909354
S11335D0B1121092B8128FBF80E00E94C8066EC468
S11335E08FB7F8941092B1121092B8128FBF66C4BC
S11335F09FB7F8948091B4129FBF882319F00E945A
S11336001E035CC48FB7F89491E09093B4128FBFFB
S11336100E94600653C48FB7F89490910D029111E3
S113362035C08FBF8FB7F89490910903913071F52D
S113363022E0209309038FBF8FB7F89420E130E094
S11336403093170F2093160F2EE432E13093E00CE1
S11336502093DF0C20E220931D0823E020934813DD
S11336601092AA12909308038FBF0E943D031FB7C4
S1133670F89480912E128F7A816A80932E1284E0BE
S1133680809309030E94CC021FBF18C48FBF8EE130
S11336900E94ED0213C49FB7F8948091B4129FBFA7
S11336A0882319F00E94120309C49FB7F89482E09A
S11336B08093B4128091A912880F82509FBF20E09A
S11336C092E02817B0F43FB7F894422F50E0E92F66
S11336D0F0E0EE0FFF1FE45BF54F60817181FA01AA
S11336E0E25BFD4E708361833FBF9F5F9F702E5FDF
S11336F0E8CF0E946006E2C39FB7F8948091A912B4
S11337009FBF9FB7F89420910D02211136C09FBF2F
S11337109FB7F89420910903213079F522E0209392
S113372009039FBF9FB7F89420E130E03093170F4F
S11337302093160F2EE432E13093E00C2093DF0C3B
S1133740880F825080931D0883E080934813109261
S1133750AA12109208039FBF0E943D031FB7F8945A
S113376080912E128F7E816E80932E1284E080933E
S113377009030E94CC021FBFA1C39FBF80E20E9425
S1133780ED029CC340E050E02AE0DA01A25BBD4EAA
S1133790E22FF0E0EE0FFF1FE45BF54F8C9190E019
S11337A0982F882711963C91832B918380832F5FD8
S11337B02F704E5F5F4F4032510539F77FC38FB78B
S11337C0F8949091A81290930E0293E090930A03B8
S11337D08FBF80910E029FB7F89480930D029FBF14
S11337E081116CC39FB7F8948091B4129FBF81304C
S11337F031F0823041F480E20E94ED025FC38EE139
S11338000E94ED025BC30E94DB0758C31FB7F89404
S113381080910803882321F081E00E94C30A02C03A
S11338200E94300B1FBF4AC38FB7F8949091150FB5
S113383090930C0293E0909306038FBF80910C0247
S1133840811101C0809880910C02811137C381E0FD
S11338508093B80F109213130E948F072FC31092F6
S1133860B80F00913012109131128091131381110D
S113387025C3FFB6F89480910603833009F03EC057
S113388080910C0281113AC08091EE11882309F4D1
S113389002C36091070370E0CB010196A1E0B0E0A0
S11338A08130910511F480E090E0E82FE695E695EB
S11338B0E695F0E0E251FE4E2081382F3770AD01DD
S11338C001C0440F3A95EAF7322F342331F0409582
S11338D0242320838093070306C08617970711F0DB
S11338E00196DECF8FEF8093150F8FEF80930C023C
S11338F081E08093060384E20E94ED02FFBE96E01D
S1133900169507959A95E1F700933B0482E00E948F
S1133910ED02D4C280911B0F8130E1F460E080E8B5
S11339200E942F0788E290E00E94140600E010E055
S1133930F801E754F04F61E080810E942F0788E28C
S113394090E00E9414060F5F1F4F0031110581F7AC
S113395010921B0F80911C0F813009F0AFC260E000
S113396080EC0E942F0788E290E00E94140600E099
S113397010E0F801E753F04F61E080810E942F07C7
S113398088E290E00E9414060F5F1F4F003111057A
S113399081F710921C0F92C20E940F038FC2E09114
S11339A01D03ADE0EA9FC0011124FC01E956F34F69
S11339B026E0ACE6BAE001900D922A95E1F726E004
S11339C0E6E1F2E0A2E7BAE001900D922A95E1F770
S11339D0FC01EA56F34F978180859093790A80938E
S11339E0780A0385148561857285A8018AE79AE0BF
S11339F00E9459298091100381111AC080911103EA
S1133A008230B1F40E943D07811114C08CE69AE023
S1133A1090934D1280934C12025F1F4F1093E20C4F
S1133A200093E10C81E08093100380931C0346C251
S1133A3065E001C067E080911D03BDE08B9FF0014C
S1133A401124EA56F34F10820E946B0837C280910A
S1133A501703282F30E06DE1869FF0011124AF0198
S1133A6041595D4E9091A30C911126C064EA7CE00B
S1133A706115710509F1EF57FD4E86E0DB010190F8
S1133A800D928A95E1F786E098E09093AB0C8093D1
S1133A90AA0C5093AD0C4093AC0C8CE190E0909345
S1133AA0AF0C8093AE0C11E01093A30C8FE00E9436
S1133AB0ED021093160302C29DE1929FF001939FC1
S1133AC0F00D1124E259FD4E108265E00E94580861
S1133AD0F5C1F090150385E48093E50C1092E60C93
S1133AE086E68093EA0C8093E90C1092EC0C109219
S1133AF0EB0C8FEF8093ED0C88E0F89E800111248D
S1133B00D801AF5FB04F6D0116964D915C91179738
S1133B10CA0144968093E80C9093E70C1196ED91BA
S1133B20FC91129780819181A281B3818093F50CDD
S1133B309093F60CA093F70CB093F80C80912402A8
S1133B4090912502A0912602B09127028093F10C56
S1133B509093F20CA093F30CB093F40CF6016481EF
S1133B60758189EF9CE00E945929D60113968C91A6
S1133B708093EE0C1092F00C1092EF0CE5EEFCE04A
S1133B8080E090E0DC0121913191820F931FA11D0F
S1133B90B11D2CE0E93FF207B1F7AD0166277727A5
S1133BA0411551056105710539F0AA27BB27840F1A
S1133BB0951FA61FB71FF1CF80959095A095B0953E
S1133BC09093F00C8093EF0C80911C0290911D0255
S1133BD0A0911E02B0911F028090F50C9090F60CFB
S1133BE0A090F70CB090F80C4091F10C5091F20CAD
S1133BF06091F30C7091F40C482559256A257B25B6
S1133C00482359236A237B23452B462B472B19F43E
S1133C10E5EFFCE002C0E0E2F2E080809180A28067
S1133C20B38080959095A095B095AC01BD014821D5
S1133C3059216A217B21481759076A077B0719F420
S1133C4080E092E02DC050911B0344E06AE0252FF0
S1133C5030E0629FC001639F900D1124DC01A05EDF
S1133C60BC4E4D905D906D907C90481459046A044C
S1133C707B0429F450931B038C5D9C4E0BC0C9013B
S1133C80019683709927582F415009F780931B039D
S1133C9080E090E09093210380932003009719F033
S1133CA00E949A0814C080911803811114C0808165
S1133CB09181A281B3818093191390931A13A093D5
S1133CC01B13B0931C13109219030E94C10B81E0C3
S1133CD080931403F3C0F801EF5FF04F1082F110EA
S1133CE003C00E941D06EAC0B1E0FB12E7C085E0F4
S1133CF00E942E08E3C0E0911303EE2EF12C2BE07A
S1133D00E29FF0011124EA5CFD4E418552858A014F
S1133D100C5F1F4F858180931E0F868180931F0F38
S1133D206781708582E29FE00E9459291092210FD9
S1133D301092200FA80156954795EEE1FFE020E090
S1133D4030E080E090E0DC012417350749F0619110
S1133D507191860F971FA11DB11D2F5F3F4FF4CFA7
S1133D60AD0166277727411551056105710539F0C5
S1133D70AA27BB27840F951FA61FB71FF1CF8095D5
S1133D809095A095B0959093210F8093200F8091EA
S1133D90010F811126C082E09FE0892B11F12BE0F5
S1133DA02E9DC0012F9D900D1124895C9D4E9093F2
S1133DB0030F8093020FFF24F394F092040F8EE11B
S1133DC09FE09093060F8093050F1093080F0093C4
S1133DD0070FF092010F83E10E94ED02F0921203AB
S1133DE06DC08BE08E9DF0018F9DF00D1124EA5C77
S1133DF0FD4E108263C08CB58F7B8CBD0C94EE1687
S1133E009091DE0F8091DF0F9093E70F8093E60F80
S1133E109091E00F8091E10F9093E90F8093E80F68
S1133E204091E40F5091E50F8A01085F1F4F009302
S1133E30EB0F1093EA0F6091E20F7091E30F8EEE97
S1133E409FE00E9459298091090F81111FC08AE0C7
S1133E509FE0892BD9F08AED9FE090930B0F80931C
S1133E600A0F81E180930C0F86EE9FE090930E0F72
S1133E7080930D0F1093100F00930F0FF092090F02
S1133E8083E10E94ED02F0920B0318C01092D90F47
S1133E900E941B0313C081E080930C02109206035E
S1133EA080917A008F7780937A0028CD2FB7F89489
S1133EB08091500A9091510A9D7F89C9C35ADF4F5E
S1133EC00FB6F894DEBF0FBECDBFDF91CF911F9127
S1133ED00F91FF90EF90DF90CF90BF90AF909F90A5
S1133EE08F907F906F905F904F903F9008958FB721
S1133EF0F89408958FBF08951F920F920FB60F92F2
S1133F0011240BB60F922F933F934F935F936F93AC
S1133F107F938F939F93AF93BF93EF93FF932FB7A9
S1133F20F8948091110F9091120FA091130FB091FA
S1133F30140F0196A11DB11D8093110F9093120FC0
S1133F40A093130FB093140F2FBF78940E942D04E5
S1133F50FF91EF91BF91AF919F918F917F916F915D
S1133F605F914F913F912F910F900BBE0F900FBE19
S1133F700F901F9018951F920F920FB60F92112455
S1133F800F900FBE0F901F9018951F920F920FB6AF
S1133F900F9211240BB60F92CF92DF92EF92FF9201
S1133FA00F931F932F933F934F935F936F937F933D
S1133FB08F939F93AF93BF93CF93DF93EF93FF932D
S1133FC02EB5E0911F08F0912008309739F08091C8
S1133FD0190F90911A0FE80FF91F20838091190F80
S1133FE090911A0F019690931A0F8093190F8CB524
S1133FF08F778CBDC091190FD0911A0F2091141393
S113400030911513C217D307D8F50091DC0C109129
S1134010DD0CC0901F08D0902008CE010A96281706
S1134020390708F4C9017C0121E0E21AF108CE1530
S1134030DF05A0F40115110529F0F801EC0FFD1FAF
S1134040808101C080E00E947B03C114D10421F06F
S1134050F601EC0FFD1F80832196E9CF8CB58068B3
S11340608CBD0115110531F0F801EC0FFD1F8081A5
S11340708EBD01C01EBCD0931A0FC093190F11C07E
S11340801092200810921F081092DD0C1092DC0C84
S1134090109215131092141310921A0F1092190FF4
S11340A08EB5FF91EF91DF91CF91BF91AF919F9129
S11340B08F917F916F915F914F913F912F911F91BC
S11340C00F91FF90EF90DF90CF900F900BBE0F9069
S11340D00FBE0F901F9018951F920F920FB60F925C
S11340E011240F900FBE0F901F9018951F920F92DE
S11340F00FB60F9211240F900FBE0F901F901895BA
S11341001F920F920FB60F9211240BB60F922F939A
S11341103F934F935F936F937F938F939F93AF934B
S1134120BF93EF93FF9385E10E94ED02FF91EF911E
S1134130BF91AF919F918F917F916F915F914F91BB
S11341403F912F910F900BBE0F900FBE0F901F90B9
S113415018951F920F920FB60F9211240BB60F925F
S11341602F933F934F935F936F937F938F939F937B
S1134170AF93BF93EF93FF938091B112823029F0F4
S1134180833041F0811116C00AC00E94EB020E94E4
S1134190180312C00E94EB020E9415030DC0809107
S11341A0B912882349F086E08093B1128CE10E9411
S11341B0ED0202C00E94EB02FF91EF91BF91AF911B
S11341C09F918F917F916F915F914F913F912F912B
S11341D00F900BBE0F900FBE0F901F9018951F925B
S11341E00F920FB60F9211240F900FBE0F901F90D5
S11341F018951F920F920FB60F9211240F900FBEB5
S11342000F901F9018951F920F920FB60F921124C2
S11342100F900FBE0F901F9018951F920F920FB61C
S11342200F9211240F900FBE0F901F9018951F929C
S11342300F920FB60F9211240BB60F922F933F9348
S11342404F935F936F937F938F939F93AF93BF939A
S1134250EF93FF930E943D038091B900982F987FBC
S113426020910903243079F1263021F0233009F01C
S11342704DC013C080910803813049F4903429F46F
S113428083E08093090381E010C084E016C0983174
S1134290E1F783E08093090313C0209108032130E0
S11342A039F4807F803541F480E00E94C30A2EC037
S11342B0983231F0903321F081E00E94630B26C0E4
S11342C00E94300B23C0809148138E7F8093481343
S11342D080912E128F7D983029F0903119F08093BF
S11342E02E12EACF806480932E1291E0809108030D
S11342F0813009F090E08091160F880F892B80930C
S1134300BB0086E0809309030E94CC02FF91EF91E9
S1134310BF91AF919F918F917F916F915F914F91D9
S11343203F912F910F900BBE0F900FBE0F901F90D7
S113433018951F920F920FB60F9211240BB60F927D
S11343402F933F934F935F936F937F938F939F9399
S1134350AF93BF93EF93FF93909106018091E40C88
S113436097FD11C08350883008F07EC080911E03F1
S1134370869580931E039091060196FF75C0806810
S113438080931E0371C081508093E40C81116CC032
S113439080911E03803E09F464C09091BD12911176
S11343A058C0893549F0803F19F0823149F404C07E
S11343B081E08093BD1255C081E08093D70C51C039
S11343C09091D70C60E091111FC091E4262F30E04A
S11343D0290F311D35952795A901440F551FFA0161
S11343E0E053FE4FE491E81718F461E0620F09C04E
S11343F08E1718F49FEF920F04C0FA01EF52FE4F8C
S11344001EC0961718F72DC091E4262F30E0290F0F
S1134410311D35952795A901440F551FFA01E85B15
S1134420FE4FE491E81718F461E0620F0FC08E1795
S113443018F49FEF920F0AC0FA01E75BFE4FE49174
S1134440E0931B0889E00E94ED020BC09617E8F682
S113445008C01092BD12823111F0893511F4109206
S1134460D70C8BE08093E40CFF91EF91BF91AF9157
S11344709F918F917F916F915F914F913F912F9178
S11344800F900BBE0F900FBE0F901F9018951F92A8
S11344900F920FB60F9211240BB60F922F933F93E6
S11344A04F935F936F937F938F939F93AF93BF9338
S11344B0CF93EF93FF932091780030917900789413
S11344C04FB7F8948091161381FB992790F9817066
S11344D04FBF811122C080917A00877F80937A0038
S11344E08091B80F813019F0823091F036C091116B
S11344F007C08DE790E00E9414060E948F072DC02C
S1134500309331122093301285E20E94ED0225C0CF
S1134510992379F31092B80F20C0CFB7F8940E9472
S11345202103CFBF2FB7F89480917A0086FB992797
S113453090F9877F806190FB86F98F7780937A006A
S1134540877F80618F7B8F7780937A00877F8061FC
S11345508F7B806880937A002FBFFF91EF91CF917A
S1134560BF91AF919F918F917F916F915F914F9187
S11345703F912F910F900BBE0F900FBE0F901F9085
S11345801895CF93DF931F92CDB7DEB789830E942E
S1134590D30289810E9481038FEF0E9481038FEFF0
S11345A00E947B0389830E94D10289810F90DF914D
S11345B0CF9108958F929F92AF92BF92CF92DF9244
S11345C0EF92FF920F931F93CF93DF9380912D0867
S11345D090E0982F882720912E08822B811528E0BF
S11345E0920729F08630984009F47AC0E6C08FE239
S11345F098E09093B0128093AF1280913F0890910D
S11346004008A0914108B091420800912402109101
S11346102502209126023091270280179107A207D4
S1134620B30739F140911C0250911D0260911E02A2
S113463070911F026A017B01C094D094E094F094BD
S11346404601570188229922AA22BB228C149D0478
S1134650AE04BF0409F0B1C080279127A227B32775
S113466084239523A623B723892B8A2B8B2B09F02C
S1134670A4C080913808813109F09FC02091470877
S1134680C09148088091450890E0982F8827309180
S11346904608832B8035934C09F08FC0D0E0D22B91
S11346A02897C138D10510F0C0E8D0E0AE016BE422
S11346B078E087EB93E00E945929D093B603C09326
S11346C0B5038DE0DF91CF911F910F91FF90EF9093
S11346D0DF90CF90BF90AF909F908F900C94ED029D
S11346E08091350890E0982F882720913608822BF6
S11346F08130910519F0029751F15FC04091240275
S113470050912502609126027091270280914708FA
S113471090914808A0914908B0914A084817590750
S11347206A077B0709F049C04DE358E067E378E086
S113473082E0DF91CF911F910F91FF90EF90DF9076
S1134740CF90BF90AF909F908F900C94C6038091B0
S11347501803813091F580911A032AE0829FC001E9
S11347601124FC01E05EFC4E40913D0850913E084E
S113477060913F0870914008408351836283738342
S1134780DC01AC5DBC4E26E0E7E3F8E001900D925D
S11347902A95E1F72091F7112D7F2093F7111092BC
S11347A018038C5D9C4E0E949A0880911A0390E035
S11347B001968370992780931A03DF91CF911F91FB
S11347C00F91FF90EF90DF90CF90BF90AF909F90AC
S11347D08F900895EF92FF920F931F93CF93DF93DF
S11347E0CDB7DEB7C25BD1090FB6F894DEBF0FBEFA
S11347F0CDBF8F3F39F44CE360E083E692E00E9442
S1134800380A38C0CE0186559F4F78E0F801DC01A4
S113481001900D927A95E1F7FC0110867E01F1E892
S1134820EF0EF11C78E2F801D70101900D927A9510
S1134830E1F7F70110A6FF92EF929F938F933F93B6
S11348402F935F934F931F926F938CE692E09F9305
S11348508F938E010F5F1F4F1F930F930E94E729C1
S113486048E260E0C8010E94380A0FB6F894DEBF3F
S11348700FBECDBFCE54DF4F0FB6F894DEBF0FBED0
S1134880CDBFDF91CF911F910F91FF90EF900895CD
S1134890CF93DF93CDB7DEB76B970FB6F894DEBF37
S11348A00FBECDBF0FB7F89447E250E06FEF70E052
S11348B080EB9CE00E9462298FEF8093BA12809370
S11348C01D1388EE91E09093BC128093BB12089A5A
S11348D0099A0A9A10981198129880E0877F8F7E1F
S11348E08F7D8F7B8F7780937A0081E083BF0E94D6
S11348F0D9028F3F19F00E94D10CF9CF87B18C6F88
S113490087B918E288EE93E00E9414061150D1F79B
S113491060E088E20E942F0788E290E00E9414067B
S113492060E088E20E942F0788E290E00E9414066B
S113493060E08CE00E942F0788E290E00E94140659
S113494060E081E00E942F0788EE93E00E94140645
S113495088EE93E00E94140660E086E00E942F0730
S113496088E290E00E94140640E250E060E270E0C9
S113497089EB9FE00E94622981E080931B0F809362
S11349801C0F1092BE1210922F121092EE111FEFF4
S113499010931D0F1093E30C729A739A7498759A7E
S11349A00E94D702779A6A9A6B9A6C9A6D9A6E9A59
S11349B06F9A82B112B881B111B96FE380E00E949D
S11349C059096FE381E00E94590960EC80E00E947C
S11349D0590960EC81E00E9459098091B600807207
S11349E08093B6008091B60081FDFCCF82E0809375
S11349F0B0008091B60080FDFCCF85E08093B100CB
S1134A008CE78093B3008091700082608093700083
S1134A1040E355E760E070E081E00E94510380913B
S1134A2028029091290290932602809327020E94E3
S1134A30D9028F3F19F00E94D10CF9CF0FBF78949F
S1134A408FB7F89410921C088FBF109247041092ED
S1134A50480410923D0449E050E06FEF70E08EE3AB
S1134A6094E00E94622910923C0410923B046AE391
S1134A7075E0CE0142960E941B29198E1092BE1237
S1134A8010922F12CE0142960E9473040E94B60423
S1134A900E947F0A9FB7F894809107018F778093D3
S1134AA007019FBF9FB7F894809107018F7B809384
S1134AB007019FBF80916D00806880936D008FB760
S1134AC0F8949BE09093E40C1092D70C1092BD12D2
S1134AD08FBF809168008460809368009FB7F894CA
S1134AE08091B1129FBF811135C09FB7F89481E0C6
S1134AF08093B1121092B2121092B3121092B412A7
S1134B001092B5121092B91280E2ECE4FAE0DF01DF
S1134B10282F1D922A95E9F7EEE4F2E1DF011D92B8
S1134B208A95E9F79FBF529A5A98519A599853987F
S1134B305B98809169008068809369008091690026
S1134B408F7B8093690041E050E060E070E082E098
S1134B500E94970B8FB7F89451E0509339048FBF9C
S1134B6080EC8093240298EA909325022AE2209311
S1134B70260242E0409327023FEF30931C02309319
S1134B801D0230931E0210921F0280932002909304
S1134B90210220932202509323021F924F931F92CB
S1134BA02F931F929F931F928F9389EE92E09F936E
S1134BB08F938E010F5F1F4F1F930F930E94E7295E
S1134BC04CE360E0C8010E94380A109238040FB622
S1134BD0F894DEBF0FBECDBF80911103811136C0A2
S1134BE0209A0E94D102249A2C981B8E1A8E8A8DA8
S1134BF09B8D80329E4430F48A8D9B8D01969B8FD1
S1134C008A8FF5CF2C9A1B8E1A8E8A8D9B8D8032BB
S1134C109E4430F48A8D9B8D01969B8F8A8FF5CFAD
S1134C2052985A9A84E08CBB809169008062809388
S1134C306900809169008F7E80936900EA9A0E94DE
S1134C403D07811103C081E0809311038FB7F8946D
S1134C50109239048FBF4AE060E08EEF92E00E9428
S1134C60380A0E949B041FB7F8940E94D9028F3F10
S1134C7009F058C080917000837089F08091B6006B
S1134C808A71E1F78091B3009091B200891B88305A
S1134C9040F08091B200893F20F483E003C085E0B6
S1134CA001C082E0E0916E00E67029F590916F00FA
S1134CB09E7221F5E0917100EE72E9F49091720018
S1134CC09E72E1F4E0917300EE72A9F40CB407FC57
S1134CD015C09091C100987189F4E091C900E87100
S1134CE051F49091BC0092FD09C090917A0097FD17
S1134CF004C0E5E003C0E0E001C0E1E093B78E1733
S1134D0008F4E82FF0E0EE5BFE4F8491E92FE07F9A
S1134D10E160E82BE3BF78948895F89483B78E7F9D
S1134D2083BFA3CF1FBF0E94D10C9DCFAA1BBB1B67
S1134D3051E107C0AA1FBB1FA617B70710F0A61B97
S1134D40B70B881F991F5A95A9F780959095BC01B8
S1134D50CD010895EE0FFF1F0590F491E02D099405
S1134D602F923F924F925F926F927F928F929F9277
S1134D70AF92BF92CF92DF92EF92FF920F931F9365
S1134D80CF93DF935C016B017A016115710519F012
S1134D90FB0191838083E114F10429F0C701029798
S1134DA0839708F0F1C0E5012196F5011081812F68
S1134DB090E00E941329892B11F05E01F4CF1D327B
S1134DC029F42196F501118101E007C01B3221F479
S1134DD0E5012296F501118100E0E114F10459F195
S1134DE0F0E1EF16F10461F41033E1F488818F7D72
S1134DF0883569F519812296026070E1E72EF12C5D
S1134E0088E0E816F10439F12CF4F2E0EF16F1042D
S1134E10C9F12AC08AE0E816F10479F0E0E1EE165F
S1134E20F10411F550E1E52EF12C812C912CA12CEB
S1134E3068E0B62E2CC01033C9F23AE0E32EF12C10
S1134E404CEC842E982CA82C4CE0B42E20C010E3FB
S1134E50E114F104A9F698E0E92EF12C812C912CAF
S1134E60A12C20E1B22E13C060E070E080E090E855
S1134E709701442737FD4095542F0E94D12C4901B6
S1134E805A0105C0812C912CA12C80E4B82E60E03D
S1134E9020E030E0A9012701662457FC6094762CB9
S1134EA01E01E0EDE10FEA3060F08FEB810F8A31F3
S1134EB010F4E9EC05C08FE9810F8A3128F5E9EA9D
S1134EC0E10F8E2F90E08E159F05F4F467FD18C056
S1134ED082169306A406B50690F0C301B2010E949F
S1134EE0C12C9B01AC012E0F311D411D511D2130E0
S1134EF031054105F0E85F0710F461E001C06FEF90
S1134F002196F1011081CCCF802F8170C114D1047E
S1134F1071F0662329F02197F601D183C08307C07D
S1134F2001FF19C02297F601D183C08314C067FF23
S1134F3012C0811105C02FEF3FEF4FEF5FE704C0B0
S1134F4020E030E040E050E882E290E090934A13A1
S1134F508093491316C0882341F0509540953095AD
S1134F6021953F4F4F4F5F4F0CC057FF0AC082E25D
S1134F7090E090934A13809349132FEF3FEF4FEF44
S1134F805FE7B901CA0104C060E070E080E090E02E
S1134F90DF91CF911F910F91FF90EF90DF90CF9011
S1134FA0BF90AF909F908F907F906F905F904F9045
S1134FB03F902F9008952F923F924F925F926F925D
S1134FC07F928F929F92AF92BF92CF92DF92EF9295
S1134FD0FF920F931F93CF93DF9300D000D000D0A4
S1134FE0CDB7DEB75C016B017A016115710519F06B
S1134FF0DB018D939C93E114F10429F0C70102971E
S1135000839708F0DCC03501BFEF6B1A7B0AF5010A
S11350101081812F90E00E941329892B11F05301F4
S1135020F2CF1D3249F43501F2E06F0E711CD50147
S113503011961C9101E009C01B3231F43501B2E034
S11350406B0E711CF501118100E0E114F10409F407
S1135050C4C0F0E1EF16F10489F4103399F5D301DB
S11350608C918F7D883509F0B2C011961C91B2E005
S11350706B0E711C026050E1E52EF12CEAE0EE1695
S1135080F10409F4B0C0F0E1EF16F104D9F028E01E
S1135090E216F10451F438E0E32EF12C88248A94CA
S11350A0982CA82C4FE1B42E13C06FEF7FEFCB01E7
S11350B09701442737FD4095542F0E94D12C490174
S11350C05A0106C088248A94982CA82C2FE0B22E6A
S11350D07E826D8260E020E030E0A9012701662431
S11350E057FC6094762C2D803E80E0EDE10FEA3091
S11350F060F08FEB810F8A3110F4E9EC05C08FE981
S1135100810F8A3190F5E9EAE10F8E2F90E08E1538
S11351109F055CF56F3F09F182169306A406B50658
S1135120D8F0C301B2010E94C12C2E2F30E040E020
S113513050E029833A834B835C83260F371F481F33
S1135140591F89819A81AB81BC81281739074A0785
S11351505B0710F061E001C06FEFED81FE813196D5
S1135160FE83ED83D1011C91BECFC114D10489F01B
S1135170662339F08D819E810197F60191838083A6
S113518008C001FF06C08D819E810297D6018D93D0
S11351909C9300FF07C050954095309521953F4F53
S11351A04F4F5F4F67FF10C082E290E090934A1325
S11351B0809349136FEF7FEF8FEF9FEF1BC060E089
S11351C070E080E090E016C0B901CA0113C010E39A
S11351D0E114F10409F45FCF51CF103309F43FCF48
S11351E09AE0E92EF12C89E9882E982CA82C89E1E3
S11351F0B82E6ECF26960FB6F894DEBF0FBECDBF85
S1135200DF91CF911F910F91FF90EF90DF90CF909E
S1135210BF90AF909F908F907F906F905F904F90D2
S11352203F902F9008959111FDC2803219F089505A
S11352308550D0F70895FB01DC0105900D92002004
S1135240E1F70895FB01DC014150504030F08D91AD
S11352500590801919F40020B9F7881B990B08955B
S1135260FB01DC014150504048F005900D920020B4
S1135270C9F701C01D9241505040E0F70895FB0169
S113528055915523A9F0BF01DC014D9145174111FA
S1135290E1F759F4CD010590002049F04D914015F6
S11352A04111C9F3FB014111EFCF81E090E0019777
S11352B00895FB01DC0102C001900D924150504061
S11352C0D8F70895DC0101C06D9341505040E0F7D8
S11352D00895FC018191861721F08823D9F7992735
S11352E008953197CF010895FB01DC0141505040EE
S11352F048F001900D920020C9F701C01D92415061
S11353005040E0F70895FA01A191B081009719F493
S11353101097E1F0CD01DC01CD010D90002011F4D6
S1135320C00113C0FB012191222319F02015D9F7E4
S1135330F3CFFB012191201519F41E92119606C09A
S11353402223C1F70D900020A1F7D001FA01A19307
S1135350B08308950F931F93CF93DF93CDB7DEB738
S11353602E970FB6F894DEBF0FBECDBF0D891E89F0
S11353708F89988D26E02C831A83098397FF02C0B6
S113538080E090E801979E838D83AE01455E5F4F78
S1135390698D7A8DCE0101960E94172A4D815E8116
S11353A057FD0AC02F813885421753070CF49A0120
S11353B0F801E20FF31F10822E960FB6F894DEBFA9
S11353C00FBECDBFDF91CF911F910F9108950F9321
S11353D01F93CF93DF93CDB7DEB72E970FB6F89414
S11353E0DEBF0FBECDBF0D891E8986E08C831A8374
S11353F009838FEF9FE79E838D83AE01475E5F4FE6
S11354006F89788DCE0101960E94172A2F813885E5
S1135410F801E20FF31F10822E960FB6F894DEBF48
S11354200FBECDBFDF91CF911F910F9108952F92A1
S11354303F924F925F926F927F928F929F92AF9220
S1135440BF92CF92DF92EF92FF920F931F93CF936D
S1135450DF93CDB7DEB72C970FB6F894DEBF0FBE3F
S1135460CDBF7C016B018A01FC0117821682838106
S113547081FFBDC1CE0101964C01F7019381F60174
S113548093FD859193FF81916F01882309F4ABC14A
S1135490853239F493FD859193FF81916F018532B3
S11354A029F4B70190E00E942B2CE7CF512C312C2A
S11354B020E02032A0F48B3269F030F4803259F0CD
S11354C0833269F420612CC08D3239F0803339F491
S11354D0216026C02260246023C0286021C027FDEB
S11354E027C030ED380F3A3078F426FF06C0FAE0D2
S11354F05F9E300D1124532E13C08AE0389E300D68
S11355001124332E20620CC08E3221F426FD6BC18F
S1135510206406C08C3611F4206802C0883641F439
S1135520F60193FD859193FF81916F018111C1CFA4
S1135530982F9F7D9554933028F40C5F1F4FFFE301
S1135540F9830DC0833631F0833771F0833509F068
S11355505BC022C0F801808189830E5F1F4F442401
S11355604394512C540115C03801F2E06F0E711CA4
S1135570F801A080B18026FF03C0652D70E002C051
S11355806FEF7FEFC5012C870E94202C2C01830133
S11355902C852F77222E17C03801F2E06F0E711C74
S11355A0F801A080B18026FF03C0652D70E002C021
S11355B06FEF7FEFC5012C870E94152C2C012C85E1
S11355C02068222E830123FC1BC0832D90E0481603
S11355D05906B0F4B70180E290E00E942B2C3A9473
S11355E0F4CFF50127FC859127FE81915F01B70176
S11355F090E00E942B2C31103A94F1E04F1A51089C
S11356004114510471F7E5C0843611F0893639F537
S1135610F80127FF07C060817181828193810C5F4B
S11356201F4F08C060817181882777FD8095982F6E
S11356300E5F1F4F2F76722E97FF09C090958095AD
S1135640709561957F4F8F4F9F4F2068722E2AE08F
S113565030E0A4010E94632CA82EA81844C085370A
S113566029F42F7EB22E2AE030E025C0F22FF97FF4
S1135670BF2E8F36C1F018F4883579F0B4C0803766
S113568019F0883721F0AFC02F2F2061B22EB4FE5D
S11356900DC08B2D8460B82E09C024FF0AC09F2F33
S11356A09660B92E06C028E030E005C020E130E065
S11356B002C020E132E0F801B7FE07C060817181C9
S11356C0828193810C5F1F4F06C06081718180E0ED
S11356D090E00E5F1F4FA4010E94632CA82EA8180F
S11356E0FB2DFF777F2E76FE0BC0372D3E7FA51452
S11356F050F474FE0AC072FC08C0372D3E7E05C00B
S1135700BA2C372D03C0BA2C01C0B52C34FF0DC000
S1135710FE01EA0DF11D8081803311F4397E09C048
S113572032FF06C0B394B39404C0832F867809F083
S1135730B39433FD13C030FF06C05A2CB31418F4CD
S1135740530C5B18B32CB31468F4B70180E290E0F7
S11357503C870E942B2CB3943C85F5CFB31410F4F2
S11357603B1801C0312C34FF12C0B70180E390E034
S11357703C870E942B2C3C8532FF17C031FD03C0AF
S113578088E790E002C088E590E0B7010CC0832F61
S1135790867859F031FF02C08BE201C080E237FD08
S11357A08DE2B70190E00E942B2CA51438F4B701C8
S11357B080E390E00E942B2C5A94F7CFAA94F40132
S11357C0EA0DF11D8081B70190E00E942B2CA110FD
S11357D0F5CF332009F451CEB70180E290E00E9466
S11357E02B2C3A94F6CFF7018681978102C08FEF74
S11357F09FEF2C960FB6F894DEBF0FBECDBFDF919E
S1135800CF911F910F91FF90EF90DF90CF90BF90B9
S1135810AF909F908F907F906F905F904F903F904C
S11358202F900895992788270895FC0105906150C9
S113583070400110D8F7809590958E0F9F1F0895A2
S1135840FC016150704001900110D8F7809590954B
S11358508E0F9F1F08950F931F93CF93DF93FB0128
S1135860238121FD03C08FEF9FEF28C022FF16C0C4
S113587046815781248135814217530744F4A0811E
S1135880B1819D012F5F3F4F318320838C9326810B
S113589037812F5F3F4F3783268310C0EB01092FD9
S11358A0182F0084F185E02D0995892BE1F68E816E
S11358B09F8101969F838E83812F902FDF91CF91BB
S11358C01F910F910895FA01AA27283051F1203130
S11358D081F1E8946F936E7F6E5F7F4F8F4F9F4F80
S11358E0AF4FB1E03ED0B4E03CD0670F781F891FC2
S11358F09A1FA11D680F791F8A1F911DA11D6A0F90
S1135900711D811D911DA11D20D009F468943F9142
S11359102AE0269F11243019305D3193DEF6CF0141
S11359200895462F4770405D4193B3E00FD0C9F707
S1135930F6CF462F4F70405D4A3318F0495D31FD74
S11359404052419302D0A9F7EACFB4E0A6959795C7
S1135950879577956795BA95C9F70097610571059D
S113596008959B01AC010A2E0694579547953795E7
S11359702795BA95C9F7620F731F841F951FA01D41
S11359800895DB018F939F930E94F32CBF91AF91F5
S1135990A29F800D911DA39F900DB29F900D112485
S11359A00895A1E21A2EAA1BBB1BFD010DC0AA1F5C
S11359B0BB1FEE1FFF1FA217B307E407F50720F074
S11359C0A21BB30BE40BF50B661F771F881F991FEF
S11359D01A9469F760957095809590959B01AC0138
S11359E0BD01CF0108950E94FE2CA59F900DB49F88
S11359F0900DA49F800D911D11240895A29FB001C4
S1135A00B39FC001A39F700D811D1124911DB29FEE
S1115A10700D811D1124911D0895F894FFCF8F
S1135A1EFFFFFFFFFFFFFFFFFFFFFFFF01FF01FF80
S1135A2EFFFFFFFF0006010203040506FFFF00004F
S1135A3E0A3C00010A3C000A0100010E043930CC74
S1135A4E02D502207F05070608580225730D25731B
S1135A5E3D25642C25733D25732C25733D25642C1F
S1135A6E25733D25642C25733D25642C25733D2516
S1135A7E730A006C69737420656E6400713D25644D
S1135A8E2C663D25642C703D25642C6E3D25732CAF
S1135A9E6E3D25730A0073630025642E256400632E
S1135AAE2564006625640025730D0A00526164693D
S1135ABE6F20696E697469616C697A65642E003D44
S1135ACE002C00252D38730025730D25733D256498
S1135ADE0A00253032643A253032640020204F45C6
S1135AEE3120202000796F207365727661732068EF
S1135AFE6162652064657265003E253033642E252F
S1135B0E3033642E253033642E2530336400696EB1
S1095B1E697420666D00AD
S9030000FC
