:100000000C9409020C94051A0C940F1A0C94191AEA
:100010000C94421A0C947E1A0C94881A0C94921A1E
:100020000C949C1A0C9428020C9428020C94281B03
:100030000C9428020C9415190C9428020C94541951
:100040000C9428020C9428020C9428020C94280288
:100050000C9428020C9428020C9428020C94280278
:100060000C945E190C9428020C9428020C9428021B
:100070000C9428020C94D61B0C9428020C94280291
:100080000C9428020C9428020C9428020C94280248
:100090000C9428020C9428020C9428020C94A61AA2
:1000A0000C9428020C9428020C9428020C94280228
:1000B0000C9428020C9428020C9428020C94280218
:1000C0000C9428020C9428020C9428020C94280208
:1000D0000C9428020C9428020C9428020C942802F8
:1000E0000C942802700AE50A4B0B4D0B530B5A0B6C
:1000F000A70BCF0B090C540CDA0C000D480DB70DF3
:10010000E40D100E360E3D0E500E3C1148111B1220
:10011000C112961369148C149A14B51400020E06B9
:100120000C040D090E78155116211A591B531C4148
:100130001D571E2221432258234424452578262377
:1001400029202A562B462C542D522E25314E324230
:1001500033483447355A3626394C3A4D3B4A3C559C
:100160003D2F3E28413B424B4349444F453D4629A4
:10017000493A4A5F4B4C4C784D504E3F5278547838
:1001800055605A0A5B5E5D2A613E660869316B34D0
:100190006C377030712C7232733574367538792B38
:1001A0007A337B2D7C2A7D3900000D090E7C157178
:1001B00016311A791B731C611D771E322163227858
:1001C000236424652534263329202A762B662C7453
:1001D0002D722E35316E326233683467357A363699
:1001E000392C3A6D3B6A3C753D373E38412C426BA9
:1001F0004369446F45304639492E4A2D4B6C4C6F4C
:100200004D704E2B526F546F555C5A0A5B785D27C8
:10021000613C660869316B346C377030712C723216
:10022000733574367538792B7A337B2D7C2A7D397A
:100230000000000000000000005F00000007000751
:1002400000147F147F14242A7F2A12231308646267
:1002500036495522500005030000001C22410000D1
:1002600041221C00082A1C2A0808083E08080050E1
:10027000300000080808080800606000002010082E
:1002800004023E5149453E00427F400042615149CF
:10029000462141454B311814127F102745454539F9
:1002A0003C4A494930017109050336494949360636
:1002B0004949291E00363600000056360000000865
:1002C0001422411414141414412214080002015180
:1002D0000906324979413E7E1111117E7F49494913
:1002E000363E414141227F4141221C7F49494941DB
:1002F0007F090901013E414151327F0808087F0012
:10030000417F41002040413F017F081422417F404E
:100310004040407F0204027F7F0408107F3E41413D
:10032000413E7F090909063E4151215E7F09192995
:1003300046464949493101017F01013F4040403F64
:100340001F2040201F7F2018207F631408146303A0
:1003500004780403615149454300007F4141020490
:1003600008102041417F0000040201020440404087
:100370004040000102040020545454787F48444413
:10038000383844444420384444487F38545454183E
:10039000087E090102081454543C7F0804047800C4
:1003A000447D40002040443D00007F10284400412F
:1003B0007F40007C041804787C08040478384444A6
:1003C00044387C14141408081414187C7C080404A1
:1003D000084854545420043F4440203C4040207C72
:1003E0001C2040201C3C4030403C44281028440C39
:1003F0005050503C4464544C4400083641000000C6
:100400007F0000004136080008082A1C08081C2A42
:10041000080811241FBECFEFD1E2DEBFCDBF13E02D
:10042000A0E0B2E0EAE4F9E400E00BBF02C007900C
:100430000D92A630B107D9F713E1A6E0B3E001C0F1
:100440001D92A13AB107E1F70E947A1C0C94A324F3
:100450000C9400008091FD0C8093BC000895769868
:100460000895289A089528980895769A0895809175
:1004700013138F3F69F0E82FF0E0E054F84F9081BC
:10048000909313139F3F11F4909373139FEF9083F6
:1004900008959FB7F894E82FF0E0E054F84F2081DA
:1004A0002F3F99F4E0917313E81779F0209113131B
:1004B0002F3F19F48093131304C0F0E0E054F84F79
:1004C00080838093731380E001C085E09FBF08950F
:1004D00085E10C94490286E10C9449028FB7F894A7
:1004E0009091BC009093FD0C8FBF0895ECE7F0E075
:1004F000208180917B00308190818870880F880FE7
:100500002F71822B35FB222720F920FB86F992954B
:10051000969596959370292F279522272795822BBC
:10052000969508952FB7F8946091160A7091170A5E
:100530008091180A9091190A2FBF0895AC019091EB
:10054000C00A9A30B8F48091210A292F30E0280F90
:10055000311D2A30310514F02A503109220F331F82
:10056000F901E45CF24F518340839F5F9093C00A8E
:1005700080E0089581E008958EBD0DB407FEFDCFA3
:100580008EB508950C94BC02CF93DF9300D0CDB705
:10059000DEB76A8389830E94330289810E94C20286
:1005A0006A81862F0E94C2020F900F90DF91CF9137
:1005B0000C943102CF93DF931F92CDB7DEB78983BE
:1005C0000E94330289810E94C20280E00E94BC0224
:1005D00089830E94310289810F90DF91CF91089524
:1005E000CF93DF9300D0CDB7DEB76A8389830E94B3
:1005F0003302898180680E94C2026A81862F0E942C
:10060000C2020F900F90DF91CF910C9431028F9224
:100610009F92AF92BF92CF92DF92EF92FF920F9391
:100620001F93CF93DF932FEF280F9DE1299F900118
:1006300011248901005B124FF8019081911140C093
:10064000E901CF5AD24F2097D9F17A0151E059836D
:1006500018821B8298E09A8396E09C8344E04D8345
:100660008090280290902902A0902A02B0902B023C
:100670008786908AA18AB28AD901A75AB24FEAE145
:10068000F2E0492F01900D924A95E1F7D901AD5959
:10069000B24FFB0101900D929A95E1F7F701C080EE
:1006A000D180E280F380F801C18ED28EE38EF48E89
:1006B0008F831E8250838DE00E94490280E001C03A
:1006C00085E0DF91CF911F910F91FF90EF90DF9028
:1006D000CF90BF90AF909F908F9008952FB7F894D0
:1006E00080912803882309F14091000D5091010D5C
:1006F0006091020D7091030D8091DD079091DE07EE
:10070000A091DF07B091E007840F951FA61FB71FC8
:100710004091160A5091170A6091180A7091190AAF
:10072000481759076A077B0711F02FBF08951092E9
:1007300028032FBF8BE00C9449022FB7F8949091B7
:100740000B132FBF91110EC09FB7F89423E0209395
:100750000B131092111380931D0A9FBF0E946B020E
:1007600080E0089581E00895019701960197019630
:10077000019701960197C1F708951F93CF93DF93D7
:100780008FB7F894C0910A03C1113DC011E01093D6
:100790000A031092940D8FBFDFB7F894809109037C
:1007A000811117C0509851981092B90081E480933C
:1007B000B8001092BA001092BC000E946E028091A4
:1007C000FD0C8E7F84608093FD0C0E942A021093A2
:1007D0000903DFBFDFB7F89480911202813089F4FA
:1007E00080910A03813021F488E10E94490209C006
:1007F000823039F48091940D8093120283E08093CB
:100800000A03DFBF1DC0C091940DCC23C1F09091AD
:10081000220A9F3F99F4E0911302EE2379F0909120
:1008200014029F3F19F41092140204C0F0E0EE5D30
:10083000F54F108210921302C0E001C0C5E08FBFD7
:100840008C2FDF91CF911F910895CF939FB7F8948C
:1008500080910C139FBF81110BC09FB7F89481E06A
:1008600080930E1380930C139FBFCF910C94BD0304
:10087000813009F042C08FB7F89490911102911124
:100880003AC08FBF8FB7F89490910903913099F5D2
:1008900022E0209309038FBF8FB7F89420E130E066
:1008A00030931C0A20931B0A2CE13DE03093E507AE
:1008B0002093E40720E22093270323E020939E1354
:1008C0001092B412909308038FBF0E946E02CFB7AC
:1008D000F8948091FD0C8F7A816A8093FD0C84E0FE
:1008E000809309030E942A02CFBF8FB7F894109219
:1008F0000C138FBF02C08FBFBECFCF9108951F933F
:10090000CF93DF931F92CDB7DEB7182F8064798322
:100910000E94C40281E0810F7981672F80640F906B
:10092000DF91CF911F910C94C40290910F03E92F96
:10093000F0E0EE0FFF1FE755FD4E40815181209101
:100940000E03222359F09F5F953019F090930F0307
:1009500002C010920F03215020930E03CA010E947F
:100960009E0280910E03882319F088E00C944902BE
:100970001092230A0895CF93DF939FB7F894809144
:100980001203882369F19FBFDFB7F894C091120367
:10099000C11109C081E0809312031092150282E117
:1009A0000E94490218C08091E8078F3F99F4E091B6
:1009B0001602EE2379F0809117028F3F19F41092FE
:1009C000170204C0F0E0E851F84F108210921602AE
:1009D000C0E001C0C5E0DFBF8C2FDF91CF9108954B
:1009E0008CB58F7B8CBD229A2398219A209A8CB546
:1009F00080618CBD8CB58F778CBD8DB58E7F8DBDA4
:100A00008CB5877F8CBD8CB58B7F8CBD8CB58C7F76
:100A10008CBD8CB580648CBDB6CF882319F0813035
:100A200071F0089510921703E09118038BE0E89F8E
:100A3000F0011124EC5FF24F10828FE010C0109291
:100A40001003809111039DE0899FF0011124ED5363
:100A5000F54F1082811102C00E94950483E10C942D
:100A600049021092190380911A0398E0899FF001BE
:100A70001124EA5FF54F10820E940D058EE00C9460
:100A8000490281110FC0662369F080911D038130F6
:100A900049F410921D038091E10C8D7F8093E10C4D
:100AA0000C94310508950F931F93CF93DF9380919A
:100AB0006813882309F43FC010E0C0E0DFE10FB7FE
:100AC000F89480916C138E7F80936C130E94760251
:100AD000282F2F73881F8827881F9170990F892BC3
:100AE000181302C091E0D21390E080916C1390FB38
:100AF00081F99D2F9F73990F990F8370892B809394
:100B00006C131111D064D0937C0080917B00877F9F
:100B100080937B0090916C138C2F8860806190FB98
:100B200085F98064806880937A000FBFDF91CF9150
:100B30001F910F910895C7E011E0D0E0C0CFCF938F
:100B4000DF93CFB7F8940E946E028091FD0C8E7FE8
:100B500080698093FD0C0E942A02CFBFDFB7F89412
:100B600080910A038330C1F5C0911202C11134C0D3
:100B7000809114028F3FC1F0E82FF0E0EE5DF54F59
:100B80009081909314029F3F11F4909313029FEF72
:100B900090838093940D9093120281E080930A03D6
:100BA00088E10E94490216C081E0809312021092EF
:100BB0000A0380910903813069F40E946E028091DA
:100BC000FD0C8A768093FD0C0E942A025898599851
:100BD00010920903DFBF02C0DFBFC1E08C2FDF919D
:100BE000CF910895CF93C0910B13813019F4CF9119
:100BF0000C9425040E949F0510920E1340E050E0D3
:100C00002AE0DA01A45EB24FE22FF0E0EE0FFF1F00
:100C1000E45AFA4F8C9190E0982F882711963C91D6
:100C2000832B918380832F5F2F704E5F5F4F403205
:100C3000510539F7C23059F020F4C13089F484E10C
:100C40000CC0C33039F0C53059F487E106C0CF91EC
:100C50000C946802CF910C946B02CF910C944902D2
:100C6000CF910895811110C08091BB009091B41272
:100C7000E091E407F091E507E90FF11D8083809191
:100C8000B4128F5F8093B4122091B4128091270325
:100C9000281788F430E090E001972817390749F4C5
:100CA00080919E1382FD05C08091FD0C8F7B809307
:100CB000FD0C0C942A028091FD0C282F2E7F909120
:100CC0009E1391FF0AC09D7F90939E13822F806197
:100CD0008093FD0C8091B90003C08E778093FD0C4A
:100CE0000E942A0281E08093090380911102811100
:100CF00002C00C94F2050895CF93DF931F92CDB7F5
:100D0000DEB789830E9433028FEB0E94C20283E028
:100D10000E94C2020E94310269818FE10F90DF912F
:100D2000CF910C94F002FC01009711F40C94310562
:100D30003091EC079091ED078091A607811124C0B6
:100D400047EA57E041155105F9F026E0DA01019034
:100D50000D922A95E1F740E058E05093AE0740939A
:100D6000AD074AEE57E05093B0074093AF07892F85
:100D700090E0932B9093B2078093B10781E080932A
:100D8000A6078AE00C9449020895CF939FB7F89480
:100D900080910D139FBF81112DC09FB7F894809152
:100DA000B312880F82509FBF20E092E02817B0F462
:100DB0003FB7F894422F50E0E92FF0E0EE0FFF1F0D
:100DC000E45AFA4F60817181FA01E45EF24F708358
:100DD00061833FBF9F5F9F702E5FE8CF8FB7F8940E
:100DE00092E090930E1391E090930D138FBFCF91EB
:100DF0000C94BD03813009F045C09FB7F8948091F1
:100E0000B3129FBF9FB7F894209111022111F9CF1F
:100E10009FBF9FB7F89420910903213091F722E0FA
:100E2000209309039FBF9FB7F89420E130E03093EF
:100E30001C0A20931B0A2CE13DE03093E507209328
:100E4000E407880F82508093270383E080939E13EA
:100E50001092B412109208039FBF0E946E02CFB787
:100E6000F8948091FD0C8F7E816E8093FD0C84E060
:100E7000809309030E942A02CFBF8FB7F894109283
:100E80000D138FBFCF910895CF93909111029111BF
:100E900021C0C0910B13813019F4CF910C94C50679
:100EA0000E949F0510920E13C23071F030F4C130D1
:100EB00089F484E1CF910C944902C33041F0C430ED
:100EC00049F410920B1306C0CF910C946802CF9195
:100ED0000C946B02CF9108958091B41290912703E6
:100EE000891780F4E091E407F091E507E80FF11D20
:100EF00080818093BB008091B4128F5F8093B41285
:100F00000C942A028091FD0C282F2E7F90919E1325
:100F100091FF06C09D7F90939E13822F806101C038
:100F20008E778093FD0C0E942A0281E08093090352
:100F300080E00C944407CF93DF931F92CDB7DEB7C8
:100F400089830E946E029091FD0C9A7F9093FD0C14
:100F50000E942A020E946E029091FD0C9460909370
:100F6000FD0C0E942A0291E09093090390910803DE
:100F70008981992349F09091110291110AC00F9033
:100F8000DF91CF910C94F2050F90DF91CF910C94EB
:100F900044070F90DF91CF910895882329F0813085
:100FA00029F47298739A02C07398729A82B182B9C6
:100FB00081B111B87498759A0E94350282E090E070
:100FC0000E94B40380B1079B0DC00E942F0282E0F3
:100FD00090E00E94B4030E94350282E090E00E94FB
:100FE000B403F1CF0E942F02759881B18FEF81B9C0
:100FF0000895CF93DF931F92CDB7DEB70E94CD0740
:1010000081B111B8749A759A0E94350282E090E01D
:101010000E94B40380B10E942F0282E090E00E94FF
:10102000B4030E94350282E090E00E94B40380B1D4
:1010300089830E942F0289810F90DF91CF910895BB
:10104000CF92DF92EF92FF92CF93C82F6A017B017C
:101050000E94920229E0C29FF0011124DF01A752F1
:10106000B34F6D937D938D939C9313971496CD926C
:10107000DD92ED92FC921797EF51F34F80818160E2
:10108000826080838CE0CF91FF90EF90DF90CF90D3
:101090000C94490281E080931D034FE653E166E022
:1010A00072E00E94070344E650E060E070E080E0F8
:1010B0000C9420084F925F926F927F928F929F9232
:1010C000AF92BF92CF92DF92FF920F931F93CF9375
:1010D000DF93A9EDBCE0C12CD12C49E04C9DF0017F
:1010E0004D9DF00D1124EF01C752D34FF884F1FE4E
:1010F000A9C00D911D912D913C91139714968D903F
:101100009D90AD90BC9017972B013C01401A510A5D
:10111000620A730A481459046A047B0408F492C0F2
:10112000F0FE06C0EF51F34F20812D7F20830AC0CF
:10113000B901A801480D591D6A1D7B1D48835983BB
:101140006A837B8322E0C216B9F183E0C81609F4F2
:101150003FC021E0C21221C0109276131092771383
:1011600010927813109279131092801310928113B9
:10117000109282131092831310928A1310928B1381
:1011800010928C1310928D13109294131092951349
:1011900010929613109297135EC010921D038091C7
:1011A0001E038F5F80931E03833018F40E944A0849
:1011B00052C00E9431054FC09FB7F89480910B1325
:1011C0009FBF813009F047C084E10E94490243C0BB
:1011D0009FB7F89480910603811127C081E0809326
:1011E000060310921A0A9FBF9FB7F89480917A0065
:1011F000806880937A009FBFCFB7F89480911002E7
:10120000813089F480910603813021F48AE10E94C3
:10121000490209C0823039F480911A0A8093100281
:1012200083E080930603CFBF16C080911A0A8823FB
:1012300039F08091D80C80FD03C081608093D80C78
:101240009FBF09C02FEFC21AD20A199624E0C21616
:10125000D10409F043CF8CE0DF91CF911F910F9122
:10126000FF90DF90CF90BF90AF909F908F907F9036
:101270006F905F904F900C944902CF93DF931F9231
:10128000CDB7DEB769830E94CD07698162B981B1AC
:101290008FEF81B9749A75980E94350282E090E0D0
:1012A0000E94B4030E942F0280E00F90DF91CF9143
:1012B0000895CF93DF931F92CDB7DEB769830E9465
:1012C000CD07749875980E94350281B18FEF81B96E
:1012D000698162B982E090E00E94B4030E942F020B
:1012E00080E00F90DF91CF910895CF93DF93982FF7
:1012F000C62FD82FD295D695D695D37081E0D82712
:101300009F73692F60648D2F0E9459096C2F67703D
:10131000686B8D2FDF91CF910C9459092F923F92DA
:101320004F925F926F927F928F929F92AF92BF92F5
:10133000CF92DF92EF92FF920F931F93CF93DF93A1
:101340008C01D62F90E055E0952E88248394EE24CE
:10135000E394F12CF80121918F01222309F468C054
:101360002A3011F02D3019F4D85F512C5FC029308C
:1013700021F44AE0542E590E59C036E0532E590E2E
:1013800080EE820F803608F051C030E020523109E3
:10139000929EA001939E500D11249A012E5C3D4F08
:1013A00059018BE0D82ED90EC52D99EF492E4D0E3F
:1013B000742CF5012490C6FBCC24C0F8C824372C2B
:1013C000369436943694F72DF7706F2E632D8C2F4C
:1013D00020FE0DC00E9475098C2D0E94F907B701EF
:1013E00001C0660F6A94EAF7682E662A0DC00E9453
:1013F00075098C2D0E94F907970101C0220F6A948C
:10140000EAF72095682E6222632D8C2F0E947509C1
:10141000662D8C2D0E943D09269473947D12CFCFAA
:10142000CF5F2FEFA21AB20ACD11C2CF952D92CF66
:10143000DF91CF911F910F91FF90EF90DF90CF90B0
:10144000BF90AF909F908F907F906F905F904F90E4
:101450003F902F900895CF93DF93C0E06C2F80E0F2
:101460000E9475096C2F80E40E947509D0E060E04D
:1014700080E00E943D0960E081E00E943D09DF5F5D
:10148000D038A9F7CF5FC83049F780E0DF91CF911E
:1014900008953F924F925F926F927F928F929F92A8
:1014A000AF92BF92CF92DF92EF92FF920F931F9372
:1014B000CF93DF93CDB7DEB7C555D1090FB6F894FA
:1014C000DEBF0FBECDBF0DB71EB790E08C319105CA
:1014D00010F00C94F218FC01EE58FF4F0C94671EAC
:1014E0008FB7F894F090240AE09029038FBF0E94F0
:1014F0002B0A6AE08FE392E00E948E098F2D90E024
:10150000C0970A9780F423E02E1568F08FB7F894FF
:10151000E091290391E09E0F90932903F0E0E75DAD
:10152000FC4FF1828FBF48E0F4120EC0EE2061F054
:101530008FB7F894E0912903E150E0932903F0E09C
:10154000E75DFC4F11828FBF9FB7F89485E0EAE218
:10155000F3E0DE01119601900D928A95E1F79FBFAD
:1015600064E1CE0101960E948E0987E6F8120C9480
:10157000F2184AE050E060E070E0CE0101960E946F
:10158000981F2FB7F89433E030936B132FBF3FB7FA
:10159000F89420910B133FBF21110C94F2189B017A
:1015A0002B5633402E3C310510F00C94F2182FB717
:1015B000F89432E030930B131092101370936E1363
:1015C00060936D132FBF0C94BE122FB7F8948091C7
:1015D000240A90916B132FBF20916B13213009F0D7
:1015E00054C08C3699F060F4883611F00C94F218DF
:1015F0008FB7F89494E090936B138FBF81E00DC088
:10160000833779F08437A1F00C94F2188FB7F894EF
:1016100094E090936B138FBF80E00E949D030C9425
:10162000F2188FB7F89495E090936B138FBF33C087
:101630009FB7F89480910B139FBF882311F08530DA
:10164000A1F4EB982FB7F89480916405909165050B
:101650009F76909365058093640584E08093B31230
:1016600010920B132FBF0E94C5068FB7F8941092EB
:10167000290395E0EAE2F3E0DF011D929A95E9F78C
:1016800092E090936B138FBF04C0923011F00C94D2
:10169000F21880E087C182E0C0CF0E942B0A6AE086
:1016A0008EE492E003C06AE081E692E00E948E0937
:1016B0000C94F2182FB7F8948091C10A9091C20A45
:1016C00031E030936B132FBF9F938F9384E792E0A9
:1016D0009F938F93FE0131967F01FF92EF930E94BB
:1016E0007D216AE087E792E00E948E0968E2C701E7
:1016F0000E948E099FB7F89480910B139FBF0F90A3
:101700000F900F900F900F900F90882321F085304D
:1017100011F00C94F21888E08CBBEB9A2FB7F89478
:10172000809164059091650590699093650580931B
:10173000640510921713109218131092191384E075
:101740008093B31285E080930B130C9426152FB76A
:10175000F8948091C10A9091C20A31E030936B13E2
:101760002FBF9F938F9384E792E09F938F93CE0137
:1017700001967C01FF928F930E947D216AE088E8A8
:1017800092E00E948E0968E2C7010E948E090F90C4
:101790000F900F900F900F900F900C94F21884E11F
:1017A000EEEBF2E1DE01DE9601900D928A95E1F713
:1017B00084E1E2EDF2E1DE01999601900D928A95C5
:1017C000E1F788E1E6EEF2E1DE01119601900D927B
:1017D0008A95E1F763961FAE63971DAE198E0E943E
:1017E0002B0A64E185EB92E10E948E096EE1CE0145
:1017F000CE960E948E0968E2CE0189960E948E09DB
:1018000062E3CE0101960E948E096CE38FEF92E1B4
:101810004DCF80910E03882309F442C0E0910F035D
:10182000F0E0EE0FFF1FE755FD4E0190F081E02D37
:10183000208131818091C30A811132C084EC9AE009
:10184000892B71F13296F093CD0AE093CC0A809106
:101850000C0290910D02A0910E02B0910F028093A4
:10186000C40A9093C50AA093C60AB093C70A80E53C
:1018700093EC9093C90A8093C80A9093CB0A809303
:10188000CA0A3093CF0A2093CE0AFF24F394F09231
:10189000C30A83E10E944902F092230A0C94F218D1
:1018A0001092230A0C94F21880910D03E82FF0E0B7
:1018B000EE0FFF1FE657F24FE080F18090910B038F
:1018C000992359F08F5F853019F080930D0302C082
:1018D00010920D03915090930B03D701AD90BC90E3
:1018E000F5013197EE0DFF1D82818A3009F052C05B
:1018F00012824701B2E08B0E911C6DE070E0C401D2
:101900000E94E8206C01009719F0FC01108206C0CB
:101910006501FFEFCF1ADF0ACE0CDF1C43E050E079
:1019200063E372E0C4010E94FC20892B11F00C9447
:10193000FA158DB69EB6D7014D915C915A01B2E071
:10194000AB1AB108EDB7FEB7EA19FB090FB6F89468
:10195000FEBF0FBEEDBF8DB79EB701963C01435051
:101960005109B6010E94D820F301EA0DFB1D108237
:10197000AE014D5A5F4F65E972E0C3010E94192123
:101980006C01009711F00C942A150FB6F8949EBEC6
:101990000FBE8DBEC7010E949E0280910B0388235B
:1019A00029F089E00E9449020C94F21810921E0A54
:1019B0000C94F2188091210381110C94F2188091FB
:1019C00022038F5F817080932203EDE0E89FD001B6
:1019D0001124AA55B84F9C91913011F40C945D16C6
:1019E0008F5F817080932203E89FF0011124EA55F4
:1019F000F84F8081813011F00C94F2180C945D1630
:101A00008091E307811141C0409105135091061365
:101A100060910713709108132FB7F894C090000DD0
:101A2000D090010DE090020DF090030D8091DD0744
:101A30009091DE07A091DF07B091E0078C0D9D1D0E
:101A4000AE1DBF1D2FBF4093051350930613609327
:101A50000713709308131092E3072FB7F89431E03F
:101A6000309328038093DD079093DE07A093DF0770
:101A7000B093E0074093000D5093010D6093020D69
:101A80007093030D2FBF0E946E030E94920247C005
:101A90000E9492022FB7F894109228032FBFE9ED0D
:101AA000FCE040E088248A94982CA82C3FE7B32ED1
:101AB00020E030E059E0529FD001539FB00D112437
:101AC000A752B34F1896AC91A1FF1AC0C080D18025
:101AD000E280F3802B013C014C185D086E087F0802
:101AE000C480D580E680F780C418D508E608F708DA
:101AF000C814D904EA04FB041CF44601570141E070
:101B00002F5F3F4F399624303105A9F6442311F455
:101B10000C94F218181419041A041B0424F00E94DF
:101B20005A080C94F2188092051390920613A09212
:101B30000713B092081321E02093E3073FB7F8940E
:101B4000209328036093DD077093DE078093DF07FF
:101B50009093E0078092000D9092010DA092020DEB
:101B6000B092030D3FBF0E946E030C94F218809157
:101B70001B0381110C94F21880911C0390E00196D4
:101B80008170992780931C032DE1289FF001299FE4
:101B9000F00D1124E05BF24F3081313011F40C94E0
:101BA000BE1601968170992780931C03289FF0012F
:101BB000299FF00D1124E05BF24F8081813011F0FC
:101BC0000C94F2180C94BE168091190381110C9498
:101BD000F218E0911A03EF5FE170E0931A03AE2F61
:101BE000B0E023E0AA0FBB1F2A95E1F7AA5FB54F2B
:101BF0008C91813011F40C940117EF5FE170E09348
:101C00001A03F0E093E0EE0FFF1F9A95E1F7EA5F09
:101C1000F54F8081813011F00C94F2180C9401176B
:101C20008091170381110C94F218809118038F5F33
:101C3000817080931803EBE0E89FD0011124AC5F22
:101C4000B24F9C91913011F40C940E188F5F8170FB
:101C500080931803E89FF0011124EC5FF24F80811C
:101C6000813011F00C94F2180C940E1881E08093DE
:101C700013030E94BB040C94F2188FB7F8941092CF
:101C8000300310922F031092E2071092E107109296
:101C90006A13109269131092200A10921F0A17C635
:101CA0008FB7F89492E0909312038FBF8091150242
:101CB00081110C94F2180E94310280911603813038
:101CC00021F0823009F498C09EC26FEF8FEF0E941E
:101CD000C4028DE10E94DA0280FFFBCF80E00E9407
:101CE0007C0660E076E088E00E947F0480E096E079
:101CF000909319028093180260E076E08CE00E94D5
:101D00007F046FEF7FE18AE00E947F0460E070E073
:101D100084E00E947F0460E88EE50E94C40281E0B6
:101D20000E947C0661EA88E50E94C40282E00E946B
:101D30007C0660E081E40E94C40261E080E40E94CD
:101D4000C40263E382E40E94C40260E083E40E9470
:101D5000C4026AE272E08AE00E947F0465E184E4E2
:101D60000E94C40290912C0280912D0290931F0238
:101D700080931E0283E00E947C0660911F0281E432
:101D80000E94C40260911E0280E40E94C40260911D
:101D90001D0283E40E94C40260911C0282E40E943E
:101DA000C40260911B0285E40E94C40260911A0281
:101DB00084E40E94C40282E00E947C0664E184E51F
:101DC0000E94C40260E471E086E10E947F0462E147
:101DD00084E50E94C40262E170E086E10E947F0413
:101DE00060ED8BE50E94C40264E08FE10E94F00286
:101DF00082E08093160307C280911303882309F4BD
:101E00003FC0109213038CE10E94DA02F82E84FF87
:101E100020C082E00E947C0663E184E50E94C40247
:101E200061E082E50E94C40283E00E947C068AE0B1
:101E30000E94501C80FDFBCF82E00E947C0660E087
:101E400082E50E94C40288E10E94501C89E10E9440
:101E5000501C81E00E947C0689E10E94DA028823FE
:101E600019F081E080931403F0FE0AC00E9433024F
:101E70008CEB0E94C20281E00E94C2020E943102E9
:101E800080911503813009F044C080E00E947C06F7
:101E900060E070E082E00E947F0460E08AE70E94D8
:101EA000C402E12CF12C6091E6077091E707E61679
:101EB000F70670F4E0911A0DF0911B0DEE0DFF1D69
:101EC00060818AE70E94C4024FEFE41AF40AEBCF64
:101ED00086E00E947F0468E08FE10E94F002109289
:101EE000150310922103809122039DE0899FF00148
:101EF0001124EA55F84F1082882331F0813031F4F3
:101F000080E00E94691C02C00E9431058AE00E94A4
:101F1000490280911403813009F075C180E00E946C
:101F20007C06609118027091190280E00E947F0483
:101F30008AE30E94DA0290E09093190280931802DB
:101F40008AE30E94DA022091180230911902382B9C
:101F500030931902209318028AE30E94DA02E82ED5
:101F6000F12C8AE30E94DA02F82A8AE30E94DA025C
:101F70008AE30E94DA02C7010F978B31924090F4F6
:101F8000E1E3CE2EE3E0DE2E8AE30E94DA02F601E0
:101F900081936F01CF01815393408E159F05A0F36C
:101FA000F12C02C0FF24F394609118027091190281
:101FB0008CE00E947F0460E48EE10E94F0021092A7
:101FC0001403F11020C180913D0390E0982F8827E1
:101FD00020913E03822B8115F8E09F0729F086307F
:101FE000984009F4AFC00FC18FE393E090930A13B8
:101FF0008093091380914F0390915003A091510356
:10200000B0915203C0902802D0902902E0902A0299
:10201000F0902B028C159D05AE05BF0539F140915E
:1020200020025091210260912202709123024A0104
:102030005B0180949094A094B094240135014822CF
:1020400059226A227B22481459046A047B0409F04D
:10205000DAC08C259D25AE25BF2584239523A62394
:10206000B723892B8A2B8B2B09F0CDC08091480395
:10207000813109F0C8C04091570350E0542F4427E4
:1020800080915803482B485051098091550390E0A6
:10209000982F882720915603822B8035934C09F086
:1020A000B2C09091C00A9923B9F08091210AE82F1B
:1020B000F0E0EE0FFF1FE45CF24F308121811182CE
:1020C000108291509093C00A8F5F8093210A8A30CA
:1020D00031F41092210A03C0C12CD12C02C0C32EAE
:1020E000D22E7A014138510518F080E8E82EF12C03
:1020F000A7016BE573E0C60102960E94D820F601A5
:10210000F182E08290910B039530A0F480910C0352
:10211000E82FF0E0EE0FFF1FE657F24FD182C082AA
:102120008F5F80930C03853011F410920C039F5F36
:1021300090930B0380911E0A811165C089E00E9473
:10214000490261C08091450390E0982F8827209133
:102150004603822B8130910519F00297F1F053C0AC
:10216000409128025091290260912A0270912B021D
:102170008091570390915803A0915903B0915A034D
:10218000481759076A077B07F1F54DE453E067E408
:1021900073E082E00E94070336C080911D03813006
:1021A00091F580911F03FAE08F9FC0011124FC017B
:1021B000EA58FC4E40914D0350914E0360914F03FD
:1021C000709150034083518362837383DC01A6586E
:1021D000BC4E26E0E7E4F3E001900D922A95E1F78A
:1021E0002091E10C2D7F2093E10C10921D03865865
:1021F0009C4E0E94930680911F0390E0019683708D
:10220000992780931F03FFB6F894809112038230C0
:1022100011F58091150281111EC0809117028F3F28
:10222000B1F0E82FF0E0E851F84F90819093170259
:102230009F3F11F4909316029FEF908380931502B5
:1022400081E08093120382E10E94490204C08093DE
:10225000150210921203FFBE9FB7F89480911203EB
:10226000882309F45CC79FBFFFB6F8944A9960C3FE
:1022700080E10E9449025CC3809110038111B2C7C2
:1022800010921103D090C30A21E0D212ABC74BC702
:102290009FB7F89480910F139FBF81110EC05A9A77
:1022A00048EE53E060E070E082E00E9420088FB7C3
:1022B000F89491E090930F130AC3813021F48FB703
:1022C000F89492E04FC08230A1F42FB7F894809137
:1022D0006A0590916B05906890936B0580936A05F1
:1022E00010927B0510927A058FE08093B31283E001
:1022F00021C0833059F48FB7F89494E090930F1372
:102300008FBF48E552E060E070E023C08430A9F45C
:102310002FB7F89480916005909161058E7B9F7B2B
:1023200081609064909361058093600582E0809362
:10233000B31285E080930F1389C3853071F48FB792
:10234000F89496E090930F138FBF46E950E060E059
:1023500070E082E00E94200845C7863031F48FB7D4
:10236000F89497E090930F13EDC18730A9F52FB73C
:10237000F89480915E0590915F052FBF833592415F
:1023800039F08FB7F89410920B138FBF84E00ACB0B
:102390002FB7F89480916405909165058373977BBE
:1023A00084609864909365058093640580E199E169
:1023B0009093670580936605809168059091690503
:1023C00088279E7F8F64909369058093680586E0D7
:1023D0008093B31288E0AECF883009F003C78FB77F
:1023E000F89410920B138FBF0E9492026093F40C2A
:1023F0007093F50C8093F60C9093F70C8CE291E0BF
:10240000A0E0B0E08093F80C9093F90CA093FA0C44
:10241000B093FB0C8091FC0C8E7F82608093FC0C4F
:102420008CE00E9449028FB7F89491E090936B136F
:102430008FBF83E0B7CA8FB7F894209110138FBF76
:1024400021111AC06EE18AEC92E00E948E092FB72A
:10245000F89480916D1390916E138B569340937006
:102460009068909363058093620583E08093B31234
:1024700081E080931013EAC2213059F46EE18CECB4
:1024800092E00E948E098FB7F89492E09093101317
:10249000C6C0223049F46EE18EEC92E00E948E09B3
:1024A0008FB7F89493E034C0233041F56EE180EDAE
:1024B00092E066962FAF66970E948E093FB7F89418
:1024C0008091720590917305937085599C4F9093FC
:1024D00075138093741380916205909163059F77C3
:1024E000909363058093620566962FAD669720935F
:1024F000B31284E0809310133FBFA9C2243059F473
:102500006EE182ED92E00E948E098FB7F89495E01B
:102510009093101317C1253009F064C68FB7F89453
:10252000E0907005F0907105EE2490E4F922EF2C14
:10253000FF248FBF6EE184ED92E00E948E098FB779
:10254000EF28B9F4F89410920B138FBF20917413F5
:10255000309175139FB7F8943093C20A2093C10A43
:1025600080916B139FBF853011F482E01BCA85E018
:1025700019CAF89494E0909310138FBF0E946802D8
:1025800031C69FB7F894D0901D0A809111139FBF58
:10259000811139C06EE186ED92E00E948E09A2E0C1
:1025A0002FB7DA120CC0F894809160059091610504
:1025B000956090936105809360052FBF0EC0F894DD
:1025C00080916005909161059A7F9160909361057B
:1025D000809360052FBFD110FDC52FB7F89480916F
:1025E000600590916105926090936105809360050C
:1025F0002FBF8FB7F89492E09093B31291E090932D
:1026000011138FBF24C2813079F46EE188ED92E01E
:102610000E948E098FB7F89492E0909311138FBFA8
:1026200088E08CBBEB9ADEC5823049F46EE18AED1E
:1026300092E00E948E098FB7F89493E036C0833001
:1026400051F56EE186EE92E00E948E092FB7F89464
:102650008091700590917105882790729093240362
:102660008091720590917305937085599C4F90935A
:1026700075138093741380916005909161059E7F1E
:10268000909361058093600582E08093B31284E0AB
:1026900080931113DBC1843059F46EE184EA92E037
:1026A0000E948E098FB7F89495E0909311134AC059
:1026B000853009F097C58FB7F894E0907005F090D9
:1026C0007105EE24B0E4FB22EF2CFF248FBF6EE1F6
:1026D0008CED92E00E948E09EF28F9F4809124039A
:1026E000811116C020917413309175138FB7F8942F
:1026F0003093C20A2093C10A8FBF86E00E9449022C
:10270000E2E08FB7DE1205C0F894109211130AC0F0
:102710008FB7F89410920B13DAC08FB7F89494E047
:10272000909311138FBF0E946B025CC59FB7F89402
:10273000809112139FBF811107C08FB7F89491E069
:10274000909312138FBFE5C0813009F04BC54FB78E
:10275000F894E091760530917705209178056091A5
:10276000790580917A0590917B054FBF432F46955F
:102770004695469550E04430510561F124F44230CD
:10278000510530F0A0C04830510509F44FC09BC03E
:102790002FB7F894E370F0E0EE0FFF1FE95EFC4EF8
:1027A000938384839091171381E0890F83708093C2
:1027B00017132FBF933009F086C089E0E5EBF2E1F3
:1027C000DF011D928A95E9F788E0EAE1F3E1A5EBE4
:1027D000B2E124C03FB7F894EF70B4E0EB9FF00192
:1027E0001124E95EFC4E6387248795878687909144
:1027F000181381E0890F8F70809318133FBF9F30AB
:1028000009F061C081E4EEEBF2E1DF011D928A95EF
:10281000E9F780E4E2E2F3E1AEEBB2E101900D9280
:102820008A95E1F787E00E9449024DC02295207108
:10283000392F32953F70232BAC0166E056954795B2
:102840006A95E1F74F73982F9F719695382F3170E5
:1028500085FF04C0822F891B431B03C0822F890F71
:10286000430FEFB6F894E2E6F3E156E0F52EDF0110
:102870002F2D1D922A95E9F71F924F931F928F9348
:102880008EED92E09F938F93FF93EF930E947D21B3
:10289000EFBEEFEFF2E1DF012F2D1D922A95E9F750
:1028A000E2E6F3E1AFEFB2E101900D92FA94E1F7C5
:1028B00087E00E9449028DB79EB708960FB6F8943C
:1028C0009EBF0FBE8DBF8FB7F894109212138FBFAB
:1028D00089C48FB7F8949091940D9093120293E06D
:1028E00090930A038FBF809112029FB7F894809350
:1028F00011029FBF811176C49FB7F89480910E1387
:102900009FBF813031F0823009F4A1C00E949F0541
:1029100069C40E94250466C4FFB6F8948091080338
:10292000882321F081E00E94320602C00E946C07D9
:10293000FFBE58C48FB7F89490911A0A9093100272
:1029400093E0909306038FBF80911002811101C024
:10295000809880911002811145C481E08093BF0A64
:10296000109268130E9453053DC41092BF0AE09074
:10297000FE0CF090FF0C80916813811133C4DFB618
:10298000F89480910603833009F03EC080911002D4
:1029900081113AC08091D80C882309F410C4609149
:1029A000070370E0CB010196A1E0B0E08130910512
:1029B00011F480E090E0E82FE695E695E695F0E0EA
:1029C000E852F34F2081382F3770AD0101C0440F1A
:1029D0003A95EAF7322F342331F0409524232083AF
:1029E0008093070306C08617970711F00196DECF84
:1029F0008FEF80931A0A8FEF8093100281E080930B
:102A000006038AE10E944902DFBE9FB7F8948091D5
:102A10000B139FBF8111E6C32FB7F89484E0809316
:102A20000B13C70136E0969587953A95E1F7382F55
:102A30003F708091660590916705807F832B90930E
:102A400067058093660585E08093B3122FBF0E94CF
:102A5000C506C8C3BC0187E992E00E94F320892B18
:102A600011F00C94C50C4AE050E060E070E065960F
:102A70008EAD9FAD65970E946D1E603110F00C9475
:102A8000C50C6CE270E065968EAD9FAD65970E94B7
:102A9000E820892B11F40C94C50CAE01425C5F4F09
:102AA00065E972E0C6010E9419213C01009711F40A
:102AB0000C94C50C41EBC42E42E0D42E59E0552EA7
:102AC0005E0199E2A90EB11C3EAC4FACB3018AE99C
:102AD00092E00E94F320892B81F44AE050E060E00C
:102AE00070E0832D942D0E946D1E6B5673406E3CDA
:102AF000710508F470C00C94C50CB3018FE992E025
:102B00000E94F320892B49F44AE050E060E070E035
:102B1000832D942D0E946D1E5EC0B30186EA92E063
:102B20000E94F320892B71F44AE050E060E070E0ED
:102B3000832D942D0E946D1E6150693008F44BC0A6
:102B40000C94C50CB3018CEA92E00E94F320892B0F
:102B500071F54F923F92DF92CF921F925F92BF9298
:102B6000AF920E94402119AAEEADFFADCF010896A9
:102B70009FAF8EAFADB7BEB718960FB6F894BEBF75
:102B80000FBEADBF80858C3211F00C94C50CCF0107
:102B900009969FAF8EAF6CE270E00E94E82000972C
:102BA00011F40C94C50C01969FAF8EAF14C0B30105
:102BB00086EB92E00E94F320892B69F448E250E012
:102BC000632D742DCE0101960E940A2162961FAEDC
:102BD00062970C94C50CAE01425C5F4F65E972E0F0
:102BE00080E090E00E9419213C01009709F06CCF31
:102BF0000C94C50C44E050E06EE272E0C4010E9407
:102C0000FC20892B11F00C94CA0CADB6BEB6F701AE
:102C1000408151814A01F3E08F1A91088DB79EB728
:102C2000881999090FB6F8949EBF0FBE8DBFADB736
:102C3000BEB711963D0144505109B601CD010E9425
:102C4000D820F301E80DF91D1082AE014F5F5F4FF0
:102C500065E972E0C3010E941921009739F1C9802A
:102C6000DA80BC018BEB92E00E94F320892B71F497
:102C7000B6018FEB92E00E94F320892B39F0B60168
:102C800083EC92E00E94F320892B81F46CE270E0E7
:102C9000C6010E94E82001969A838983AE014F5FA6
:102CA0005F4F65E972E080E090E0D5CF0FB6F89411
:102CB000BEBE0FBEADBE0C94CA0CE0912203ADE0C7
:102CC000EA9FC0011124FC01E955F84F26E0ACE76A
:102CD000B5E001900D922A95E1F726E0EAE1F2E0F5
:102CE000A2E8B5E001900D922A95E1F7FC01EA55C2
:102CF000F84F978180859093890580938805E384B8
:102D0000F48461857285A7018AE895E00E94D82045
:102D10008091150381111BC0809116038230B9F494
:102D20000E94BB04811115C08CE795E090931B0DA8
:102D300080931A0DBEE0EB0EF11CF092E707E092D3
:102D4000E60781E080931503809321034BC285E061
:102D500001C087E090912203BDE09B9FF001112408
:102D6000EA55F84F1082911103C00E9431053AC212
:102D7000913009F037C20E94691C34C280911C0353
:102D8000282F30E04DE1849FF0011124AF014F5A0C
:102D9000524F9091B307911127C064EB77E0611512
:102DA000710511F1ED59F24F86E0DB0101900D92B2
:102DB0008A95E1F786E098E09093BB078093BA0785
:102DC0005093BD074093BC078CE190E09093BF0700
:102DD0008093BE07FF24F394F092B3078AE00E9429
:102DE0004902F0921B03FEC19DE1929FF001939F67
:102DF000F00D1124E05BF24F108265E00E94410566
:102E0000F1C1D0901A0385E48093EA071092EB0792
:102E100086E68093EF078093EE071092F1071092F9
:102E2000F0078FEF8093F20788E0D89E700111249D
:102E3000D701AA5FB54F5D0116964D915C9117972A
:102E4000CA0144968093ED079093EC071196ED919B
:102E5000FC91129780819181A281B3818093FA07BE
:102E60009093FB07A093FC07B093FD078091280285
:102E700090912902A0912A02B0912B028093F6072B
:102E80009093F707A093F807B093F907F5016481D1
:102E900075818EEF97E00E94D820D50113968C9112
:102EA0008093F3071092F5071092F407EAEEF7E02B
:102EB00040E050E0BA0181919191480F591F611D86
:102EC000711D27E0EE3FF207B1F7CB01AA27BB2720
:102ED0000097A105B10539F066277727480F591FDC
:102EE0006A1F7B1FF2CF4095509560957095509367
:102EF000F5074093F4078091200290912102A09160
:102F00002202B09123028090FA079090FB07A090D4
:102F1000FC07B090FD074091F6075091F7076091CC
:102F2000F8077091F907482559256A257B2548231C
:102F300059236A237B23452B462B472B19F4EAEFB1
:102F4000F7E002C0E4E2F2E04081518162817381E6
:102F500080959095A095B0954C015D0184229522B5
:102F6000A622B72288169906AA06BB0619F480E0A5
:102F700092E030C0B0902003A4E0CA2EBAE0AB2E9D
:102F80002B2D30E0A29EC001A39E900D1124DC01E8
:102F9000AA58BC4E4D905D906D907C90441655069D
:102FA0006606770629F4B092200386589C4E0CC022
:102FB000C901019683709927B82ECA94C110E0CF39
:102FC0008093200380E090E0909326038093250374
:102FD000009719F00E9493061DC080911D03811176
:102FE00011C080819181A281B38180936F139093EE
:102FF0007013A0937113B093721310921E030E946A
:103000004A0808C0F701EA5FF54F10828D2D0E9433
:103010000D05E8C081E080931903E4C0E091180336
:10302000CE2ED12CBBE0EB9FF0011124EC5FF24FD0
:10303000418552857A0124E0E20EF11C858180935E
:10304000250A86818093260A6781708589E29AE045
:103050000E94D8201092280A1092270AA70156959C
:103060004795E5E2FAE020E030E080E090E0DC0126
:103070002417350749F061917191860F971FA11DA3
:10308000B11D2F5F3F4FF4CFAD0166277727411564
:1030900051056105710539F0AA27BB27840F951FDB
:1030A000A61FB71FF1CF80959095A095B0959093EE
:1030B000280A8093270A8091060A811126C087E09A
:1030C0009AE0892B11F12BE02C9DC0012D9D900DD4
:1030D00011248B5F924F9093080A8093070ADD2496
:1030E000D394D092090A85E29AE090930B0A8093D8
:1030F0000A0AF0920D0AE0920C0AD092060A8EE0BB
:103100000E944902D09217036DC08BE08C9DF001A4
:103110008D9DF00D1124EC5FF24F108263C08CB5D1
:103120008F7B8CBDA0C89091C80A8091C90A9093EA
:10313000D10A8093D00A9091CA0A8091CB0A9093C9
:10314000D30A8093D20A4091CE0A5091CF0A7A01D5
:1031500088E0E80EF11CE092D50AF092D40A609162
:10316000CC0A7091CD0A88ED9AE00E94D820809117
:103170000E0A81111FC08FE09AE0892BD9F084ECF0
:103180009AE09093100A80930F0A81E18093110ACC
:1031900080ED9AE09093130A8093120AF092150A38
:1031A000E092140AD0920E0A8EE00E944902D09258
:1031B000100318C01092C30A0E94950413C081E046
:1031C000809310021092060380917A008F7780938B
:1031D0007A001ACC2FB7F894809160059091610520
:1031E0009D7F02CA0FB6F8941EBF0FBE0DBFCB5A0B
:1031F000DF4F0FB6F894DEBF0FBECDBFDF91CF918A
:103200001F910F91FF90EF90DF90CF90BF90AF9004
:103210009F908F907F906F905F904F903F90089518
:103220008FB7F89408958FBF08951F920F920FB62D
:103230000F9211240BB60F922F933F934F935F93EE
:103240006F937F938F939F93AF93BF93EF93FF936E
:103250002FB7F8948091160A9091170AA091180A36
:10326000B091190A0196A11DB11D8093160A909381
:10327000170AA093180AB093190A2FBF78940E94D6
:103280006E03FF91EF91BF91AF919F918F917F91CD
:103290006F915F914F913F912F910F900BBE0F90C7
:1032A0000FBE0F901F9018951F920F920FB60F929E
:1032B00011240F900FBE0F901F9018951F920F9220
:1032C0000FB60F9211240BB60F92CF92DF92EF92AE
:1032D000FF920F931F932F933F934F935F936F939F
:1032E0007F938F939F93AF93BF93CF93DF93EF938E
:1032F000FF932EB5E0912F03F0913003309739F012
:1033000080911F0A9091200AE80FF91F2083809175
:103310001F0A9091200A01969093200A80931F0A19
:103320008CB58F778CBDC0911F0AD091200A209157
:10333000691330916A13C217D307D8F50091E107DA
:103340001091E207C0902F03D0903003CE010A966F
:103350002817390708F4C9017C0121E0E21AF108B5
:10336000CE15DF05A0F40115110529F0F801EC0FC9
:10337000FD1F808101C080E00E94BC02C114D10405
:1033800021F0F601EC0FFD1F80832196E9CF8CB56B
:1033900080688CBD0115110531F0F801EC0FFD1F9F
:1033A00080818EBD01C01EBCD093200AC0931F0A2D
:1033B00011C01092300310922F031092E207109266
:1033C000E10710926A13109269131092200A10926A
:1033D0001F0A8EB5FF91EF91DF91CF91BF91AF9111
:1033E0009F918F917F916F915F914F913F912F911D
:1033F0001F910F91FF90EF90DF90CF900F900BBE39
:103400000F900FBE0F901F9018951F920F920FB63E
:103410000F9211240F900FBE0F901F9018951F92BE
:103420000F920FB60F9211240F900FBE0F901F90A6
:1034300018951F920F920FB60F9211240BB60F9290
:103440002F933F934F935F936F937F938F939F93AC
:10345000AF93BF93EF93FF9380E10E944902FF91E6
:10346000EF91BF91AF919F918F917F916F915F91FC
:103470004F913F912F910F900BBE0F900FBE0F9069
:103480001F9018951F920F920FB60F9211240BB632
:103490000F922F933F934F935F936F937F938F93ED
:1034A0009F93AF93BF93EF93FF9380910B139EEF86
:1034B000980F923008F4EB98833039F0853041F062
:1034C000823049F40E94680206C00E946B0203C069
:1034D00087E10E944902FF91EF91BF91AF919F91C7
:1034E0008F917F916F915F914F913F912F910F90AD
:1034F0000BBE0F900FBE0F901F9018951F920F924A
:103500000FB60F9211240F900FBE0F901F901895B9
:103510001F920F920FB60F9211240F900FBE0F90B3
:103520001F9018951F920F920FB60F9211240F90B3
:103530000FBE0F901F9018951F920F920FB60F920B
:1035400011240F900FBE0F901F9018951F920F928D
:103550000FB60F9211240BB60F922F933F934F93F8
:103560005F936F937F938F939F93AF93BF93EF93EB
:10357000FF930E946E028091B900982F987F20914E
:103580000903243079F1263021F0233009F04DC0B1
:1035900013C080910803813049F4903429F483E00A
:1035A0008093090381E010C084E016C09831E1F7F0
:1035B00083E08093090313C020910803213039F47C
:1035C000807F803541F480E00E9432062EC0983220
:1035D00031F0903321F081E00E949B0726C00E94C9
:1035E0006C0723C080919E138E7F80939E138091E1
:1035F000FD0C8F7D983029F0903119F08093FD0CEF
:10360000EACF80648093FD0C91E0809108038130C3
:1036100009F090E080911B0A880F892B8093BB00F2
:1036200086E0809309030E942A02FF91EF91BF91E7
:10363000AF919F918F917F916F915F914F913F914A
:103640002F910F900BBE0F900FBE0F901F901895EB
:103650001F920F920FB60F9211240BB60F922F9359
:103660003F934F935F936F937F938F939F93AF930A
:10367000BF93EF93FF93909106018091E90797FD27
:1036800011C08350883008F07EC080912303869556
:10369000809323039091060196FF75C08068809304
:1036A000230371C081508093E90781116CC0809120
:1036B0002303803E09F464C090911613911158C001
:1036C000893549F0803F19F0823149F404C081E026
:1036D0008093161355C081E08093DC0751C0909110
:1036E000DC0760E091111FC091E4262F30E0290F24
:1036F000311D35952795A901440F551FFA01E6554F
:10370000FE4FE491E81718F461E0620F09C08E17CC
:1037100018F49FEF920F04C0FA01E555FE4F1EC04A
:10372000961718F72DC091E4262F30E0290F311D90
:1037300035952795A901440F551FFA01EE5DFE4FFF
:10374000E491E81718F461E0620F0FC08E1718F4C7
:103750009FEF920F0AC0FA01ED5DFE4FE491E093F6
:10376000240A81E00E9449020BC09617E8F608C0BF
:1037700010921613823111F0893511F41092DC0782
:103780008BE08093E907FF91EF91BF91AF919F91FB
:103790008F917F916F915F914F913F912F910F90FA
:1037A0000BBE0F900FBE0F901F9018951F920F9297
:1037B0000FB60F9211240BB60F922F933F934F9396
:1037C0005F936F937F938F939F93AF93BF93CF93A9
:1037D000EF93FF93209178003091790078944FB760
:1037E000F89480916C1381FB992790F981704FBFF9
:1037F000811122C080917A00877F80937A00809126
:10380000BF0A813019F0823091F036C0911107C0A3
:103810008DE790E00E94B4030E9453052DC03093C1
:10382000FF0C2093FE0C8BE10E94490225C09923D6
:1038300079F31092BF0A20C0CFB7F8940E947602A5
:10384000CFBF2FB7F89480917A0086FB992790F923
:10385000877F806190FB86F98F7780937A00877FDE
:1038600080618F7B8F7780937A00877F80618F7BE9
:10387000806880937A002FBFFF91EF91CF91BF9125
:10388000AF919F918F917F916F915F914F913F91F8
:103890002F910F900BBE0F900FBE0F901F90189599
:1038A000CF93DF931F92CDB7DEB789830E94330297
:1038B00089810E94C2028FEF0E94C2028FEF0E9494
:1038C000BC0289830E94310289810F90DF91CF91E0
:1038D0000895682F10921B0380911C039DE1899F1E
:1038E000F0011124E05BF24F10820E9441058DE04F
:1038F0000C944902CF93DF93CDB7DEB763970FB631
:10390000F894DEBF0FBECDBF0FB7F8944CE150E086
:103910006FEF70E080EC97E00E94E1208FEF8093E2
:1039200013138093731388EE91E090931513809393
:103930001413089A099A0A9A10981198129880E01C
:10394000877F8F7E8F7D8F7B8F7780937A0081E05A
:1039500083BF0E9437028F3F19F00E94490AF9CFB6
:103960001092D80C8093220A85E99DE0ECE3FDE0FB
:10397000819391938E579F4F2DE0E035F207C1F769
:103980008AE08093C00A1092210A1FEF1093E80783
:10399000729A739A7498759A0E943502779A6A9A05
:1039A0006B9A6C9A6D9A6E9A6F9A82B112B881B1C5
:1039B00011B96FE380E00E9459096FE381E00E9432
:1039C000590960EC80E00E94590960EC81E00E9496
:1039D00059098091B60080728093B6008091B6003C
:1039E00081FDFCCF82E08093B0008091B60080FD25
:1039F000FCCF85E08093B1008CE78093B300809189
:103A000070008260809370000E9492026093E20CCA
:103A10007093E30C8093E40C9093E50C80E395E7BE
:103A2000A0E0B0E08093E60C9093E70CA093E80C44
:103A3000B093E90C8091EA0C8E7F82608093EA0C4F
:103A40008CE00E94490280912C0290912D0290936B
:103A50002A0280932B020E9437028F3F19F00E94A6
:103A6000490AF9CF0FBF78948FB7F89410926B136F
:103A70008FBF0E942B0A9FB7F894809107018F7720
:103A8000809307019FBF9FB7F894809107018F7BB8
:103A9000809307019FBF80916D00806880936D00C7
:103AA0008FB7F8949BE09093E9071092DC0710928F
:103AB00016138FBF809168008460809368009FB761
:103AC000F89480910B139FBF811133C09FB7F89476
:103AD00081E080930B1310920C1310920D1310922F
:103AE0000E1310920F1380E2ECE5F5E0DF01282FB2
:103AF0001D922A95E9F7ECE1FDE0DF011D928A9520
:103B0000E9F79FBF529A5A98519A599853985B98DF
:103B100080916900806880936900809169008F7B43
:103B2000809369004AE050E060E070E082E00E942B
:103B3000200880EC8093280298EA909329022AE2D8
:103B400020932A0231E030932B021F923F931F9261
:103B50002F931F929F931F928F9388EE92E09F93D3
:103B60008F938E010F5F1F4F1F930F930E947D2134
:103B70006CE3C8010E948E091092230A10921E0A5B
:103B80000FB6F894DEBF0FBECDBF80911603811132
:103B900036C0209A0E943102249A2C981B8A1A8AD5
:103BA0008A899B8980329E4430F48A899B89019658
:103BB0009B8B8A8BF5CF2C9A1B8A1A8A8A899B89C0
:103BC00080329E4430F48A899B8901969B8B8A8B34
:103BD000F5CF52985A9A84E08CBB8091690080623C
:103BE00080936900809169008F7E80936900EA9AD2
:103BF0000E94BB04811103C081E0809316036AE038
:103C00008DEF92E00E948E091FB7F8940E94370250
:103C10008F3F09F058C080917000837089F08091C7
:103C2000B6008A71E1F78091B3009091B200891BD0
:103C3000883040F08091B200893F20F483E003C0D7
:103C400085E001C082E0E0916E00E67029F5909178
:103C50006F009E7221F5E0917100EE72E9F490918F
:103C600072009E72E1F4E0917300EE72A9F40CB45C
:103C700007FC15C09091C100987189F4E091C900CA
:103C8000E87151F49091BC0092FD09C090917A00C6
:103C900097FD04C0E5E003C0E0E001C0E1E093B7B8
:103CA0008E1708F4E82FF0E0E45EFE4F8491E92FD0
:103CB000E07FE160E82BE3BF78948895F89483B7C0
:103CC0008E7F83BFA3CF1FBF0E94490A9DCFEE0FF7
:103CD000FF1F0590F491E02D09942F923F924F928F
:103CE0005F926F927F928F929F92AF92BF92CF928C
:103CF000DF92EF92FF920F931F93CF93DF935C01BC
:103D00006B017A016115710519F0FB0191838083C4
:103D1000E114F10429F0C7010297839708F0F1C07C
:103D2000E5012196F5011081812F90E00E94D020BD
:103D3000892B11F05E01F4CF1D3229F42196F50193
:103D4000118101E007C01B3221F4E5012296F50143
:103D5000118100E0E114F10459F1F0E1EF16F104F2
:103D600061F41033E1F488818F7D883569F519811C
:103D70002296026070E1E72EF12C88E0E816F1044B
:103D800039F12CF4F2E0EF16F104C9F12AC08AE00F
:103D9000E816F10479F0E0E1EE16F10411F550E1D6
:103DA000E52EF12C812C912CA12C68E0B62E2CC094
:103DB0001033C9F23AE0E32EF12C4CEC842E982C0F
:103DC000A82C4CE0B42E20C010E3E114F104A9F6B5
:103DD00098E0E92EF12C812C912CA12C20E1B22E1F
:103DE00013C060E070E080E090E89701442737FD61
:103DF0004095542F0E94672449015A0105C0812C27
:103E0000912CA12C80E4B82E60E020E030E0A901E4
:103E10002701662457FC6094762C1E01E0EDE10F2B
:103E2000EA3060F08FEB810F8A3110F4E9EC05C0C5
:103E30008FE9810F8A3128F5E9EAE10F8E2F90E0B2
:103E40008E159F05F4F467FD18C082169306A4062C
:103E5000B50690F0C301B2010E9457249B01AC014A
:103E60002E0F311D411D511D213031054105F0E856
:103E70005F0710F461E001C06FEF2196F10110813E
:103E8000CCCF802F8170C114D10471F0662329F04A
:103E90002197F601D183C08307C001FF19C0229783
:103EA000F601D183C08314C067FF12C0811105C021
:103EB0002FEF3FEF4FEF5FE704C020E030E040E03E
:103EC00050E882E290E09093A01380939F1316C075
:103ED000882341F050954095309521953F4F4F4FA5
:103EE0005F4F0CC057FF0AC082E290E09093A0138E
:103EF00080939F132FEF3FEF4FEF5FE7B901CA01A8
:103F000004C060E070E080E090E0DF91CF911F910D
:103F10000F91FF90EF90DF90CF90BF90AF909F9068
:103F20008F907F906F905F904F903F902F9008956B
:103F30002F923F924F925F926F927F928F929F92B9
:103F4000AF92BF92CF92DF92EF92FF920F931F93A7
:103F5000CF93DF9300D000D000D0CDB7DEB75C01A7
:103F60006B017A016115710519F0DB018D939C934A
:103F7000E114F10429F0C7010297839708F0DCC02F
:103F80003501BFEF6B1A7B0AF5011081812F90E09C
:103F90000E94D020892B11F05301F2CF1D3249F439
:103FA0003501F2E06F0E711CD50111961C9101E0F4
:103FB00009C01B3231F43501B2E06B0E711CF50102
:103FC000118100E0E114F10409F4C4C0F0E1EF163E
:103FD000F10489F4103399F5D3018C918F7D8835E4
:103FE00009F0B2C011961C91B2E06B0E711C026018
:103FF00050E1E52EF12CEAE0EE16F10409F4B0C030
:10400000F0E1EF16F104D9F028E0E216F10451F4E2
:1040100038E0E32EF12C88248A94982CA82C4FE1C8
:10402000B42E13C06FEF7FEFCB019701442737FD0C
:104030004095542F0E94672449015A0106C08824E4
:104040008A94982CA82C2FE0B22E7E826D8260E09C
:1040500020E030E0A9012701662457FC6094762C0B
:104060002D803E80E0EDE10FEA3060F08FEB810FB4
:104070008A3110F4E9EC05C08FE9810F8A3190F59F
:10408000E9EAE10F8E2F90E08E159F055CF56F3FFA
:1040900009F182169306A406B506D8F0C301B20151
:1040A0000E9457242E2F30E040E050E029833A83CD
:1040B0004B835C83260F371F481F591F89819A81C4
:1040C000AB81BC81281739074A075B0710F061E014
:1040D00001C06FEFED81FE813196FE83ED83D1014A
:1040E0001C91BECFC114D10489F0662339F08D81B3
:1040F0009E810197F6019183808308C001FF06C06D
:104100008D819E810297D6018D939C9300FF07C0FD
:1041100050954095309521953F4F4F4F5F4F67FF2A
:1041200010C082E290E09093A01380939F136FEFF2
:104130007FEF8FEF9FEF1BC060E070E080E090E0CA
:1041400016C0B901CA0113C010E3E114F10409F467
:104150005FCF51CF103309F43FCF9AE0E92EF12C15
:1041600089E9882E982CA82C89E1B82E6ECF269646
:104170000FB6F894DEBF0FBECDBFDF91CF911F9178
:104180000F91FF90EF90DF90CF90BF90AF909F90F6
:104190008F907F906F905F904F903F902F900895F9
:1041A0009111D6C2803219F089508550D0F7089508
:1041B000FB01DC0102C001900D9241505040D8F744
:1041C0000895DC0101C06D9341505040E0F708951F
:1041D000FC018191861721F08823D9F7992708954A
:1041E0003197CF010895FB01DC018D910190801979
:1041F0000110D9F3990B0895FB01DC0141505040A7
:1042000030F08D910190801919F40020B9F7881BC6
:10421000990B0895FB01DC014150504048F001909A
:104220000D920020C9F701C01D9241505040E0F7A7
:104230000895FA01A191B081009719F41097E1F067
:10424000CD01DC01CD010D90002011F4C00113C09F
:10425000FB012191222319F02015D9F7F3CFFB019F
:104260002191201519F41E92119606C02223C1F740
:104270000D900020A1F7D001FA01A193B083089519
:104280000F931F93CF93DF93CDB7DEB72E970FB663
:10429000F894DEBF0FBECDBF0D891E898F89988D22
:1042A00026E02C831A83098397FF02C080E090E800
:1042B00001979E838D83AE01455E5F4F698D7A8D38
:1042C000CE0101960E94AD214D815E8157FD0AC04D
:1042D0002F813885421753070CF49A01F801E20F39
:1042E000F31F10822E960FB6F894DEBF0FBECDBF1F
:1042F000DF91CF911F910F9108950F931F93CF934B
:10430000DF93CDB7DEB72E970FB6F894DEBF0FBEA2
:10431000CDBF0D891E8986E08C831A8309838FEFB8
:104320009FE79E838D83AE01475E5F4F6F89788DD7
:10433000CE0101960E94AD212F813885F801E20F50
:10434000F31F10822E960FB6F894DEBF0FBECDBFBE
:10435000DF91CF911F910F9108952F923F924F922D
:104360005F926F927F928F929F92AF92BF92CF9205
:10437000DF92EF92FF920F931F93CF93DF93CDB70E
:10438000DEB72C970FB6F894DEBF0FBECDBF7C0111
:104390006B018A01FC0117821682838181FFBDC1F6
:1043A000CE0101964C01F7019381F60193FD8591B1
:1043B00093FF81916F01882309F4ABC1853239F4F1
:1043C00093FD859193FF81916F01853229F4B701A7
:1043D00090E00E94C123E7CF512C312C20E0203205
:1043E000A0F48B3269F030F4803259F0833269F4F2
:1043F00020612CC08D3239F0803339F4216026C021
:104400002260246023C0286021C027FD27C030ED32
:10441000380F3A3078F426FF06C0FAE05F9E300D80
:104420001124532E13C08AE0389E300D1124332EF0
:1044300020620CC08E3221F426FD6BC1206406C0C0
:104440008C3611F4206802C0883641F4F60193FDE1
:10445000859193FF81916F018111C1CF982F9F7D2D
:104460009554933028F40C5F1F4FFFE3F9830DC080
:10447000833631F0833771F0833509F05BC022C099
:10448000F801808189830E5F1F4F44244394512C8F
:10449000540115C03801F2E06F0E711CF801A080C4
:1044A000B18026FF03C0652D70E002C06FEF7FEF83
:1044B000C5012C870E94B6232C0183012C852F7700
:1044C000222E17C03801F2E06F0E711CF801A08097
:1044D000B18026FF03C0652D70E002C06FEF7FEF53
:1044E000C5012C870E94AB232C012C852068222E2D
:1044F000830123FC1BC0832D90E048165906B0F4BD
:10450000B70180E290E00E94C1233A94F4CFF50114
:1045100027FC859127FE81915F01B70190E00E9401
:10452000C12331103A94F1E04F1A5108411451045B
:1045300071F7E5C0843611F0893639F5F80127FFA7
:1045400007C060817181828193810C5F1F4F08C019
:1045500060817181882777FD8095982F0E5F1F4FAE
:104560002F76722E97FF09C0909580957095619572
:104570007F4F8F4F9F4F2068722E2AE030E0A401BA
:104580000E94F923A82EA81844C0853729F42F7E4D
:10459000B22E2AE030E025C0F22FF97FBF2E8F36F1
:1045A000C1F018F4883579F0B4C0803719F0883735
:1045B00021F0AFC02F2F2061B22EB4FE0DC08B2D85
:1045C0008460B82E09C024FF0AC09F2F9660B92EC0
:1045D00006C028E030E005C020E130E002C020E164
:1045E00032E0F801B7FE07C060817181828193815A
:1045F0000C5F1F4F06C06081718180E090E00E5F0C
:104600001F4FA4010E94F923A82EA818FB2DFF77A5
:104610007F2E76FE0BC0372D3E7FA51450F474FE1E
:104620000AC072FC08C0372D3E7E05C0BA2C372D5B
:1046300003C0BA2C01C0B52C34FF0DC0FE01EA0D39
:10464000F11D8081803311F4397E09C032FF06C02C
:10465000B394B39404C0832F867809F0B39433FDE8
:1046600013C030FF06C05A2CB31418F4530C5B1857
:10467000B32CB31468F4B70180E290E03C870E9449
:10468000C123B3943C85F5CFB31410F43B1801C09B
:10469000312C34FF12C0B70180E390E03C870E94C8
:1046A000C1233C8532FF17C031FD03C088E790E08D
:1046B00002C088E590E0B7010CC0832F867859F0DE
:1046C00031FF02C08BE201C080E237FD8DE2B7010D
:1046D00090E00E94C123A51438F4B70180E390E074
:1046E0000E94C1235A94F7CFAA94F401EA0DF11D58
:1046F0008081B70190E00E94C123A110F5CF332043
:1047000009F451CEB70180E290E00E94C1233A94AF
:10471000F6CFF7018681978102C08FEF9FEF2C962D
:104720000FB6F894DEBF0FBECDBFDF91CF911F91C2
:104730000F91FF90EF90DF90CF90BF90AF909F9040
:104740008F907F906F905F904F903F902F90089543
:10475000992788270895FC01059061507040011049
:10476000D8F7809590958E0F9F1F0895FC0161509A
:10477000704001900110D8F7809590958E0F9F1F83
:1047800008950F931F93CF93DF93FB01238121FDA6
:1047900003C08FEF9FEF28C022FF16C046815781CC
:1047A000248135814217530744F4A081B1819D01D2
:1047B0002F5F3F4F318320838C93268137812F5F7A
:1047C0003F4F3783268310C0EB01092F182F008439
:1047D000F185E02D0995892BE1F68E819F81019667
:1047E0009F838E83812F902FDF91CF911F910F9107
:1047F0000895FA01AA27283051F1203181F1E89477
:104800006F936E7F6E5F7F4F8F4F9F4FAF4FB1E0C3
:104810003ED0B4E03CD0670F781F891F9A1FA11DBE
:10482000680F791F8A1F911DA11D6A0F711D811DBF
:10483000911DA11D20D009F468943F912AE0269F84
:1048400011243019305D3193DEF6CF010895462FE3
:104850004770405D4193B3E00FD0C9F7F6CF462FC4
:104860004F70405D4A3318F0495D31FD405241932D
:1048700002D0A9F7EACFB4E0A695979587957795EA
:104880006795BA95C9F700976105710508959B0171
:10489000AC010A2E06945795479537952795BA95FA
:1048A000C9F7620F731F841F951FA01D0895DB01B8
:1048B0008F939F930E948924BF91AF91A29F800DF7
:1048C000911DA39F900DB29F900D11240895A1E218
:1048D0001A2EAA1BBB1BFD010DC0AA1FBB1FEE1F7A
:1048E000FF1FA217B307E407F50720F0A21BB30BC5
:1048F000E40BF50B661F771F881F991F1A9469F741
:1049000060957095809590959B01AC01BD01CF019C
:1049100008950E949424A59F900DB49F900DA49F8C
:10492000800D911D11240895A29FB001B39FC00175
:10493000A39F700D811D1124911DB29F700D811DCB
:104940001124911D0895F894FFCFFFFFFFFFFFFF93
:10495000FFFFFFFFFFFFC0A82A0101FF01FFFFFFCC
:10496000FFFF0006010203040506FFFF00000A3CEA
:1049700000010A3C000A010065727200006F6B00C2
:1049800000207F050706083202456E7465722063B9
:1049900068616E6E656C3A00526164696F20696E81
:1049A000697469616C697A65642E00526164696F2B
:1049B00020696E6974206661696C656421002575E3
:1049C0000074756E656420746F2073746174696F10
:1049D0006E006E6578742073746174696F6E003D4B
:1049E0000069640066726571007069636F646500D8
:1049F000716469616C006E616D6500252D3873000E
:104A00006E6F746500636D6400616464007570644A
:104A10006174650031003200330034003500360027
:104A20006100620063006600253032643A2530324E
:104A300064003E253033642E253033642E25303318
:104A4000642E2530336400696E697420666D000041
:00000001FF
