:100000000C9494020C94EC1F0C94F61F0C9400209A
:100010000C9429200C946F200C9479200C9483204C
:100020000C948D200C94B3020C94B3020C941921FF
:100030000C94B3020C94FC1E0C94B3020C943B1F62
:100040000C94B3020C94B3020C94B3020C94B3025C
:100050000C94B3020C94B3020C94B3020C94B3024C
:100060000C94451F0C94B3020C94B3020C94B3028D
:100070000C94B3020C94C7210C94B3020C94B302F9
:100080000C94B3020C94B3020C94B3020C94B3021C
:100090000C94B3020C94B3020C94B3020C9497200A
:1000A0000C94B3020C94B3020C94B3020C94B302FC
:1000B0000C94B3020C94B3020C94B3020C94B302EC
:1000C0000C94B3020C94B3020C94B3020C94B302DC
:1000D0000C94B3020C94B3020C94B3020C94B302CC
:1000E0000C94B302DF0C4E0DC50DF20DFE0D000E8B
:1000F000270EDE0EF80E400F16111B1125115C1194
:10010000D7124A137013BB132B1458148414AA1457
:10011000B114C6148D169C167B173A183519781A27
:100120008B1ACB1AFC1A421B5F1B861B941BAF1B3E
:100130000A1C00020E060C040D090E78155116213A
:100140001A591B531C411D571E2221432258234478
:1001500024452578262329202A562B462C542D5217
:100160002E25314E324233483447355A3626394CE3
:100170003A4D3B4A3C553D2F3E28413B424B43497B
:10018000444F453D4629493A4A5F4B4C4C784D50C7
:100190004E3F5278547855605A0A5B5E5D2A613E44
:1001A000660869316B346C377030712C723273357C
:1001B00074367538792B7A337B2D7C2A7D39000093
:1001C0000D090E7C157116311A791B731C611D7790
:1001D0001E322163227823642465253426332920A6
:1001E0002A762B662C742D722E35316E326233686E
:1001F0003467357A3636392C3A6D3B6A3C753D3773
:100200003E38412C426B4369446F45304639492E94
:100210004A2D4B6C4C6F4D704E2B526F546F555C8A
:100220005A0A5B785D27613C660869316B346C372C
:100230007030712C7232733574367538792B7A338D
:100240007B2D7C2A7D390000000000000000005F4B
:1002500000000007000700147F147F14242A7F2A5F
:10026000122313086462364955225000050300002A
:10027000001C2241000041221C00082A1C2A0808F8
:10028000083E080800503000000808080808006010
:1002900060000020100804023E5149453E00427FA4
:1002A000400042615149462141454B311814127FAB
:1002B0001027454545393C4A494930017109050334
:1002C0003649494936064949291E0036360000009C
:1002D000563600000008142241141414141441224C
:1002E0001408000201510906324979413E7E11117C
:1002F000117E7F494949363E414141227F41412299
:100300001C7F494949417F090901013E4141513260
:100310007F0808087F00417F41002040413F017F66
:10032000081422417F404040407F0204027F7F0446
:1003300008107F3E4141413E7F090909063E415177
:10034000215E7F09192946464949493101017F014A
:10035000013F4040403F1F2040201F7F2018207F4A
:10036000631408146303047804036151494543008E
:10037000007F4141020408102041417F0000040237
:100380000102044040404040000102040020545457
:1003900054787F48444438384444442038444448DE
:1003A0007F3854545418087E090102081454543CF0
:1003B0007F0804047800447D40002040443D000054
:1003C0007F10284400417F40007C041804787C089A
:1003D00004047838444444387C1414140808141471
:1003E000187C7C080404084854545420043F4440BA
:1003F000203C4040207C1C2040201C3C4030403CA5
:1004000044281028440C5050503C4464544C440040
:100410000836410000007F0000004136080008084F
:100420002A1C08081C2A08086E6F7465006E616D2E
:100430006500716469616C007069636F6465006672
:10044000726571006964004368616E6E656C20447A
:10045000422046756C6C00676574006D73670070B0
:1004600075726765616C6C006C697374007570649B
:1004700061746500616464006F6B0042616E6420AA
:100480006C696D69742072656163686564210044FC
:1004900042206572726F72210044422066756C6C56
:1004A00021004661766F7572697465732066756C9C
:1004B0006C21004368616E6E656C206C69737420FA
:1004C00066756C6C2100496E76616C6964206368A6
:1004D000616E6E656C2100464D436C69636B2069EB
:1004E0006E6974206661696C65642100556E6B6E7F
:1004F0006F776E206572726F7221004572726F7233
:100500003A00566F6C756D653A004D487A00436845
:10051000616E6E656C3A2000456E746572204368AA
:10052000616E6E656C3A000011241FBECFEFD1E200
:10053000DEBFCDBF12E0A0E0B2E0ECE3F9E500E001
:100540000BBF02C007900D92AE3FB107D9F713E180
:10055000AEEFB2E001C01D92A334B107E1F70E94F3
:10056000DF230C949C2C0C94000080912612809325
:10057000BC000895289A08952898089576980895BB
:10058000769A08958091B2128F3F69F0E82FF0E0DB
:10059000E855F34F90819093B2129F3F11F49093DE
:1005A00015139FEF90830895EB9808959FB7F894E3
:1005B000E82FF0E0E855F34F20812F3F99F4E091C8
:1005C0001513E81779F02091B2122F3F19F4809398
:1005D000B21204C0F0E0E855F34F80838093151306
:1005E00080E001C085E09FBF089588E00C94D602AA
:1005F00085E00C94D6028FE10C94D6028BE10C942A
:10060000D6028AE10C94D6028CE00C94D6028DE1DD
:100610000C94D602ECE7F0E0208180917B003081E1
:1006200090818870880F880F2F71822B35FB2227CD
:1006300020F920FB86F99295969596959370292F2F
:10064000279522272795822B969508958FB7F894A2
:100650009091BC00909326128FBF08952FB7F89405
:100660006091090F70910A0F80910B0F90910C0F00
:100670002FBF0895CF92DF92EF92FF92CF93C82FB2
:100680006A017B010E942E0329E0C29FF001112420
:10069000DF01A951BE4E6D937D938D939C9313976B
:1006A0001496CD92DD92ED92FC921797E151FE4E99
:1006B00080818E7F8260808381E1CF91FF90EF9077
:1006C000DF90CF900C94D6028EBD0DB407FEFDCF07
:1006D0008EB508950C946403CF93DF9300D0CDB70B
:1006E000DEB76A8389830E94BC0289810E946A0303
:1006F0006A81862F0E946A030F900F90DF91CF913D
:100700000C94BA02CF93DF931F92CDB7DEB78983E3
:100710000E94BC0289810E946A0380E00E946403F7
:1007200089830E94BA0289810F90DF91CF91089549
:10073000CF93DF9300D0CDB7DEB76A8389830E9461
:10074000BC02898180680E946A036A81862F0E94A8
:100750006A030F900F90DF91CF910C94BA028F92A1
:100760009F92AF92BF92CF92DF92EF92FF920F9340
:100770001F93CF93DF932FEF280F9DE1299F9001C7
:10078000112489010A591D4EF8019081911140C030
:10079000E901C959DD4E2097D9F17A0151E0598319
:1007A00018821B8298E09A8396E09C8344E04D83F4
:1007B0008090240290902502A0902602B0902702FB
:1007C0008786908AA18AB28AD901A159BD4EE6E1F5
:1007D000F2E0492F01900D924A95E1F7D901A7580F
:1007E000BD4EFB0101900D929A95E1F7F701C08093
:1007F000D180E280F380F801C18ED28EE38EF48E38
:100800008F831E82508382E10E94D60280E001C065
:1008100085E0DF91CF911F910F91FF90EF90DF90D6
:10082000CF90BF90AF909F908F9008952FB7F8947E
:1008300080911608882309F140912A1250912B12B9
:1008400060912C1270912D128091D00C9091D10C4E
:10085000A091D20CB091D30C840F951FA61FB71F87
:100860004091090F50910A0F60910B0F70910C0F7E
:10087000481759076A077B0711F02FBF0895109298
:1008800016082FBF80E10C94D6022FB7F8949091F0
:10089000A9122FBF91110EC09FB7F89423E02093A7
:1008A000A9121092AF128093100F9FBF0E94FE02F8
:1008B00080E0089581E00895DC0181E04D914423BA
:1008C00011F12091B61230E090912712F90154E015
:1008D000EE0FFF1F5A95E1F7E90FF11DEF54F04FAE
:1008E00040839F5F90932712F901ED5EF04F808364
:1008F000903121F7109227122F5F3F4F217033273D
:100900002093B612DBCF08958FB7F8941092B607F4
:100910008FBF89E0E9EBF7E0DF011D928A95E9F7E7
:1009200081E4E2ECF7E0DF011D928A95E9F786E0C9
:10093000E3E0F8E0DF011D928A95E9F708950F934F
:100940001F93CF93DF9300D01F92CDB7DEB7809176
:1009500034041F928F938FEB92E09F938F938E01BD
:100960000F5F1F4F1F930F930E9476291B821092D7
:10097000B61288E080932712C8010E945C0486E2C8
:100980000E94D6020F900F900F900F900F900F9033
:100990000F900F900F90DF91CF911F910F910895BD
:1009A0002F923F924F925F926F927F928F929F927F
:1009B000AF92BF92CF92DF92EF92FF920F931F936D
:1009C000CF93DF93CDB7DEB7AD970FB6F894DEBF08
:1009D0000FBECDBF2FB7F894909131042FBF911166
:1009E000F3C08B018BA78FB7F89492E090933104FA
:1009F0008FBF44E050E064E774E0CE0101961C0133
:100A00000E94BF289E012B5F3F4F47E050E06DE6FC
:100A100074E0C9012CA73DA70E94BF282E019CE0CD
:100A2000490E511C43E050E064E474E0C2010E94AE
:100A3000BF285E01AFE0AA0EB11C45E050E06FE3B5
:100A400074E0C5010E94BF284E01BAE18B0E911CD3
:100A500047E050E068E374E0C4010E94BF286E01E3
:100A600084E1C80ED11C44E050E064E774E0C601A4
:100A70000E94BF287E0191E2E90EF11C45E050E0A2
:100A80006DE274E0C7010E94BF283E01A6E26A0E33
:100A9000711C45E050E068E274E0C3010E94BF2889
:100AA000EDE2F3E080E8DF011D928A95E9F72CA5DD
:100AB0003DA5BBA5BF3FA1F5D80118968C9118970D
:100AC0008F9317968C9117978F937F926F921496AE
:100AD0008C9114978F9313968C9113978F939F9269
:100AE0008F9212968C9112978F9311968C911197E9
:100AF0008F93BF92AF928C911F928F93DF92CF9280
:100B000016968C9116978F9315968C918F93FF92D2
:100B1000EF921F921F925F924F923F922F9237C097
:100B20009BA59F3008F040C0D80118968C9118976B
:100B30008F9317968C9117978F937F926F9214963D
:100B40008C9114978F9313968C9113978F939F92F8
:100B50008F9212968C9112978F9311968C91119778
:100B60008F93BF92AF928C911F928F93DF92CF920F
:100B700016968C9116978F9315968C918F93FF9262
:100B8000EF921F929F935F924F923F932F938BE32D
:100B900092E09F938F93FF93EF930E9476290FB675
:100BA000F894DEBF0FBECDBF1092AC03EDE2F3E0D0
:100BB00001900020E9F7CF018E52934090932C03CF
:100BC00080932B030E940403AD960FB6F894DEBF0A
:100BD0000FBECDBFDF91CF911F910F91FF90EF908E
:100BE000DF90CF90BF90AF909F908F907F906F904D
:100BF0005F904F903F902F90089501970196019735
:100C00000196019701960197C1F7089510920A0382
:100C1000E0910B038BE0E89FF0011124E25DFD4EB3
:100C2000108284E10C94D6020F931F93CF93DF932D
:100C30000091AD031091AE03F801E255FC4F208105
:100C40002A30D1F4EC0110826DE070E08FEA93E07D
:100C50000E94F82899838883009741F0FC01108254
:100C60008881998101969983888304C001551C4F1E
:100C70001983088381E001C080E0DF91CF911F914B
:100C80000F91089548EE53E060E070E085E00C9429
:100C90003A031F93CF93DF938FB7F894C091020369
:100CA000C1113DC011E0109302031092A0128FBF3A
:100CB000DFB7F89480910103811117C050985198C3
:100CC0001092B90081E48093B8001092BA0010929B
:100CD000BC000E942603809126128E7F8460809340
:100CE00026120E94B50210930103DFBFDFB7F8940C
:100CF00080910E02813089F480910203813021F4C9
:100D000082E20E94D60209C0823039F48091A0129A
:100D100080930E0283E080930203DFBF1DC0C09169
:100D2000A012CC23C1F09091150F9F3F99F4E09150
:100D30000F02EE2379F0909110029F3F19F4109268
:100D4000100204C0F0E0EB5EF04F108210920F0230
:100D5000C0E001C0C5E08FBF8C2FDF91CF911F9104
:100D60000895882389F12FB7F89480914C0A9091C7
:100D70004D0A906990934D0A80934C0A1092B712D5
:100D80001092B8121092B91284E08093A1122FBF72
:100D900048E050E060E270E08BEB92E10E94F128C5
:100DA00040E450E060E270E085EC92E10E94F128BE
:100DB00046E050E060E270E085E093E10E94F128B7
:100DC00088E08CBBEB9A11C00E94D4022FB7F89434
:100DD00080914C0A90914D0A9F7690934D0A809392
:100DE0004C0A84E08093A1122FBF0C94FB021F9346
:100DF000CF93DF931F92CDB7DEB7182F806479832E
:100E00000E946C0381E0810F7981672F80640F90CD
:100E1000DF91CF911F910C946C03660F660F68B938
:100E2000439A98B18295807F982B98B943980895FA
:100E3000CF93DF93C82FD62F82958F700E940D0716
:100E40006D2F8C2FDF91CF910C940D07CF93DF93F3
:100E50009FB7F89480910503882369F19FBFDFB79E
:100E6000F894C0910503C11109C081E08093050386
:100E70001092110287E10E94D60218C08091DB0C0B
:100E80008F3F99F4E0911202EE2379F080911302E2
:100E90008F3F19F41092130204C0F0E0E552F34FB3
:100EA000108210921202C0E001C0C5E0DFBF8C2F9B
:100EB000DF91CF9108958CB58F7B8CBD229A2398BA
:100EC000219A209A8CB580618CBD8CB58F778CBDB2
:100ED0008DB58E7F8DBD8CB5877F8CBD8CB58B7F9E
:100EE0008CBD8CB58C7F8CBD8CB580648CBDB6CF31
:100EF0000F931F93CF93DF9380910B13882309F4F3
:100F00003FC010E0C0E0DFE10FB7F89480910E130E
:100F10008E7F80930E130E940A03282F2F73881F41
:100F20008827881F9170990F892B181302C091E0B0
:100F3000D21390E080910E1390FB81F99D2F9F7347
:100F4000990F990F8370892B80930E131111D06420
:100F5000D0937C0080917B00877F80937B00909171
:100F60000E138C2F8860806190FB85F98064806807
:100F700080937A000FBFDF91CF911F910F91089559
:100F8000C7E011E0D0E0C0CFCF93DF93CFB7F894A4
:100F90000E942603809126128E7F806980932612FC
:100FA0000E94B502CFBFDFB7F8948091020383306F
:100FB000C1F5C0910E02C11134C0809110028F3F63
:100FC000C1F0E82FF0E0EB5EF04F908190931002BB
:100FD0009F3F11F490930F029FEF90838093A01294
:100FE00090930E0281E08093020382E20E94D60277
:100FF00016C081E080930E021092020380910103DB
:10100000813069F40E942603809126128A768093AB
:1010100026120E94B5025898599810920103DFBF1A
:1010200002C0DFBFC1E08C2FDF91CF9108951092F5
:101030000303909104032DE0929FF0011124EF52DD
:10104000F04F1082911103C081110E94040388E1C6
:101050000C94D60210920C0390910D0328E0929FFD
:10106000F0011124E750F14F1082992329F09130BB
:1010700029F40E94170802C00E94060683E10C941E
:10108000D602811110C0662371F080911003813067
:1010900051F4109210038091EF118D7F8093EF1126
:1010A00081E00C942A080895882319F0813021F0FA
:1010B0000895862F0C942A0810920E0380910F0336
:1010C0009DE1899FF0011124EA59FD4E10820E9492
:1010D000410882E10C94D602CF93DF931F92CDB7E3
:1010E000DEB789830E94BC028FEB0E946A0383E013
:1010F0000E946A030E94BA0269818FE10F90DF911A
:10110000CF910C949803FC01009719F481E00C94A2
:101110002A083091DF0C9091E00C80918E0C8111A7
:1011200024C04FE85CE041155105F9F026E0DA01F2
:1011300001900D922A95E1F740E058E05093960C0B
:101140004093950C4DED5CE05093980C4093970CB8
:10115000892F90E0932B90939A0C8093990C81E0C7
:1011600080938E0C8FE00C94D6020895882329F08A
:10117000813029F47298739A02C07398729A82B17E
:1011800082B981B111B87498759A0E94C00282E048
:1011900090E00E94FD0580B1079B0DC00E94BE0239
:1011A00082E090E00E94FD050E94C00282E090E093
:1011B0000E94FD05F1CF0E94BE02759881B18FEFAC
:1011C00081B90895CF93DF931F92CDB7DEB70E9408
:1011D000B60881B111B8749A759A0E94C00282E073
:1011E00090E00E94FD0580B10E94BE0282E090E086
:1011F0000E94FD050E94C00282E090E00E94FD0571
:1012000080B189830E94BE0289810F90DF91CF91C6
:1012100008953FB7F8949093120880931108209195
:1012200014083FBF243081F0253071F48833944096
:1012300030F481E00E94D60286E00C94D60286E06B
:10124000809332040C94F5020C944206CF93DF9302
:101250001F92CDB7DEB769830E94B608698162B973
:1012600081B18FEF81B9749A75980E94C00282E0B3
:1012700090E00E94FD050E94BE0280E00F90DF9189
:10128000CF910895CF93DF931F92CDB7DEB76983D7
:101290000E94B608749875980E94C00281B18FEFC1
:1012A00081B9698162B982E090E00E94FD050E94E7
:1012B000BE0280E00F90DF91CF910895CF93DF932E
:1012C000982FC62FD82FD295D695D695D37081E07A
:1012D000D8279F73692F60648D2F0E9442096C2F5D
:1012E0006770686B8D2FDF91CF910C9442095F92EC
:1012F0006F927F928F929F92AF92BF92CF92DF9226
:10130000EF92FF920F931F93CF93DF9390EE980F7E
:10131000903608F054C06B0190E0809725E0289F3C
:101320008001299F100D1124085B1D4F912C89EF1E
:10133000682E6D0C55245394AA24A394B12CF92C37
:10134000FC0CD62DF8017490F6FACC27C0F9C5250F
:101350008D2E869486948694FD2FF770EF2E682D3F
:101360008F2D70FE0DC00E945E098C2F0E94E20836
:10137000B50101C0660FEA94EAF7E82EE62A0DC02F
:101380000E945E098C2F0E94E208950101C0220F85
:10139000EA94EAF72095E82EE222682D8F2D0E942C
:1013A0005E096E2D8C2F0E9426097694DF5FDD1179
:1013B000CFCF0F5F1F4F939485E09812C0CFDF917E
:1013C000CF911F910F91FF90EF90DF90CF90BF9042
:1013D000AF909F908F907F906F905F900895EF9265
:1013E000FF920F931F93CF93DF9300D0CDB7DEB75B
:1013F0007C01162F962F00E0F701E00FF11D84917C
:101400008823B1F08A3011F08D3019F4485F912FA4
:101410000DC0893011F4965F09C09A5F692F742F4F
:1014200049839A830E9477099A8149810F5FE4CFAB
:101430000F900F90DF91CF911F910F91FF90EF9040
:101440000895FF920F931F93CF93DF93F62E8C0195
:10145000D42FCF2DF80181918F01882379F08A3024
:1014600011F08D3011F4D85FF4CF893011F4C65FDC
:10147000F1CFCA5FBE010E947709ECCFDF91CF9117
:101480001F910F91FF900895CF939FB7F894C0914B
:1014900014089FBF811112C048E260E086E892E024
:1014A0000E94210AC53031F08FB7F8948FBFCF91D9
:1014B0000C94420683E0CF910C94D602813011F453
:1014C00084E001C085E080933204CF910C94F50252
:1014D000CF93DF93C0E06C2F80E00E945E096C2FF9
:1014E00080E40E945E09D0E060E080E00E9426096E
:1014F00060E081E00E942609DF5FD038A9F7CF5F66
:10150000C83049F780E0DF91CF910895CF93C09123
:10151000A912813011F48EE11AC00E94C407109202
:10152000AC1281E20E94D602C23059F020F4C130E0
:1015300089F489E10CC0C33039F0C63059F48CE12C
:1015400006C0CF910C940103CF910C94FE02CF9171
:101550000C94D602CF910895811110C08091BB00E8
:101560009091A212E091D70CF091D80CE90FF11DE7
:1015700080838091A2128F5F8093A2122091A21289
:1015800080911508281788F430E090E0019728171B
:10159000390749F48091401382FD05C080912612DD
:1015A0008F7B809326120C94B50280912612282FEF
:1015B0002E7F9091401391FF0AC09D7F909340131E
:1015C000822F8061809326128091B90003C08E77AC
:1015D000809326120E94B50281E0809301038091DE
:1015E0000D02811102C00C94860A0895CF93C09118
:1015F000A912813011F480E214C00E94C407109235
:10160000AC12C33089F038F4C13051F0C23079F4F3
:10161000CF910C940103C63050F41092A91207C068
:1016200089E1CF910C94D602CF910C94FE02CF9118
:1016300008958091A21290911508891780F4E09185
:10164000D70CF091D80CE80FF11D80818093BB007E
:101650008091A2128F5F8093A2120C94B5028091A8
:101660002612282F2E7F9091401391FF06C09D7F58
:1016700090934013822F806101C08E778093261251
:101680000E94B50281E08093010380910D028111D7
:1016900002C00C94F60A0895CF93DF931F92CDB742
:1016A000DEB789830E942603909126129A7F909339
:1016B00026120E94B5020E94260390912612946081
:1016C000909326120E94B50291E09093010320911D
:1016D000000390910D028981222339F091110CC0F1
:1016E0000F90DF91CF910C94860A911105C00F9055
:1016F000DF91CF910C94F60A0F90DF91CF9108956E
:10170000CF92DF92EF92FF92CF93C82F6A017B01B5
:101710000E942E0329E0C29FF0011124DF01A9518C
:10172000BE4E6D937D938D939C9313971496CD929B
:10173000DD92ED92FC921797E151FE4E808181601F
:101740008260808381E1CF91FF90EF90DF90CF9016
:101750000C94D60281E08093100341E153E166E0EE
:1017600072E00E94AF0344E650E060E070E080E089
:101770000C94800B4F925F926F927F928F929F9208
:10178000AF92BF92CF92DF92FF920F931F93CF93AE
:10179000DF93A7EEB1E1C12CD12C49E04C9DF001C3
:1017A0004D9DF00D1124EF01C951DE4EF884F1FE7C
:1017B000C6C00D911D912D913C91139714968D905B
:1017C0009D90AD90BC9017972B013C01401A510A97
:1017D000620A730A481459046A047B0408F4AFC00F
:1017E000F0FE06C0E151FE4E20812D7F20830AC00D
:1017F000B901A801480D591D6A1D7B1D48835983F5
:101800006A837B8323E0C21609F450C02C1538F09C
:1018100081E0C81681F022E0C216F1F12DC085E00A
:10182000C81609F47FC0C81608F442C026E0C216E4
:1018300009F47CC021C01092181310921913109251
:101840001A1310921B13109222131092231310924A
:1018500024131092251310922C1310922D13109212
:101860002E1310922F1310923613109237131092DA
:101870003813109239136CC0109210038091110329
:101880008F5F80931103833018F40E94AA0B60C00D
:1018900081E00E942A085CC09FB7F8948091A91249
:1018A0009FBF813009F054C089E13DC086E23BC052
:1018B0009FB7F8948091FE02811127C081E0809348
:1018C000FE0210920D0F9FBF9FB7F89480917A008F
:1018D000806880937A009FBFCFB7F89480910C0204
:1018E000813089F48091FE02813021F484E20E94EB
:1018F000D60209C0823039F480910D0F80930C021A
:1019000083E08093FE02CFBF23C080910D0F882318
:1019100039F08091E61180FD03C081608093E6116B
:101920009FBF16C081E00E94D60212C08FB7F89404
:1019300091E0909314088FBF0E94420609C02FEFD8
:10194000C21AD20A199627E0C216D10409F026CF8E
:1019500081E1DF91CF911F910F91FF90DF90CF90A8
:10196000BF90AF909F908F907F906F905F904F90BF
:101970000C94D6023F924F925F926F927F928F9219
:101980009F92AF92BF92CF92DF92EF92FF920F930E
:101990001F93CF93DF93CDB7DEB7CA55D1090FB6EA
:1019A000F894DEBF0FBECDBF90E08732910510F0F6
:1019B0000C94DE1EFC01EE58FF4F0C9439268FB7B5
:1019C000F89410911308009109088FBF0E94680ACB
:1019D0004AE060E088E195E00E94EF09812F90E005
:1019E000C0970A9778F4043068F48FB7F894E091C0
:1019F000090891E09E0F90930908F0E0E75FF74F28
:101A000011838FBF183071F4002361F08FB7F89401
:101A1000E0910908E150E0930908F0E0E75FF74F33
:101A200011828FBF9FB7F89485E0EAE0F8E0DE010D
:101A3000119601900D928A95E1F79FBF44E160E015
:101A4000CE0101960E94210A173611F00C94DE1E79
:101A50004AE050E060E070E0CE0101960E946A2703
:101A60002FB7F89433E0309314082FBF9B012B5607
:101A700033402E3C310538F081E0809332040E94DF
:101A8000F5020C94DE1E2FB7F89470931008609343
:101A90000F082FBF0E94F8020C94DE1E2FB7F89497
:101AA000809111089091120831E0309314082FBFF3
:101AB0006AE070E00E9425269F938F937F936F9337
:101AC00089E892E09F938F938E010A5A1F4F1F93CC
:101AD0000F930E9476290E94680A47E060E08EE03A
:101AE00095E00E94EF0947E066E3C8010E94210AE1
:101AF00047E06EE58AE095E00E94EF0985E1E2ECBF
:101B0000F7E0DE01A05CBF4F01900D928A95E1F7EE
:101B100085E1E7EDF7E0DE019A9601900D928A9556
:101B2000E1F786E1ECEEF7E0DE01119601900D920F
:101B30008A95E1F766961FAE66971FAE1F8A4FE043
:101B400060E089EB97E00E94210A4FE066E383E0C2
:101B500098E00E94210A47E16AE7CE01805C9F4F2E
:101B60000E94210A4FE16AE7CE018A960E94210A6B
:101B700047E26AE7CE0101960E94210A0FB6F89467
:101B8000DEBF0FBECDBF0C94DE1E8091330490915A
:101B90003404891711F40C94DE1E2FB7F894909139
:101BA000A9122FBF911116C04FB7F89435E03093AA
:101BB000A912282F2F7080914E0A90914F0A807F92
:101BC000822B90934F0A80934E0A3093A1124FBFFD
:101BD0000E94FB0280913304809334040E949F048E
:101BE0000C94DE1E80E00E944504882311F40C94BE
:101BF000DE1E84E00E94D6020C94DE1E81E0F3CF4C
:101C00002FB7F89480910F08909110082FBF3FB71D
:101C1000F8942091A9123FBF21110C944C1C9C01F7
:101C20002B5633402E3C310510F00C944C1C2FB732
:101C3000F89432E03093A9121092AE1290931013E0
:101C400080930F132FBF0E9401030C94DE1E80E0CF
:101C50004BE390913F04891708F04DC09FB7F8946B
:101C600000911108109112089FBF489FB0011124E4
:101C70009B01215C3B4FF901A381B481A017B107FF
:101C800019F48F3018F037C08F5FE3CF4FB7F89457
:101C90009091B6074FBF47815085452B11F5992389
:101CA00001F19FB7F8944091B7075091B8079FBFD3
:101CB000F90156834583AB01465B5B4F98E0E9EB46
:101CC000F7E0DA0101900D929A95E1F7D9011896A3
:101CD0005C934E9317976F5B7B4F0E94D0040C94DC
:101CE000DE1E8FB7F89491E0909314088FBF0E9486
:101CF00042060C94DE1E80913F048F3038F082E063
:101D0000809332040E94F5020C94DE1E8FB7F89483
:101D10009091B60720911108309112088FBFE09181
:101D20003F048BE38E9FF0011124EF5BFB4F108289
:101D300032832183148213821682158210861782C1
:101D400020913F0420934004992331F19FB7F894E8
:101D50002091B7073091B8079FBFA0913F048A9F99
:101D6000D0011124FD01E15CFB4F36832583A65B86
:101D7000BB4F98E0E9EBF7E001900D929A95E1F7FF
:101D800090913F04899FC0011124FC01E15CFB4F4D
:101D9000865B9B4F9087878360913F04BBE36B9F7B
:101DA000B00111246F5B7B4F8FEF0E94D0048091B4
:101DB0003F048F5F80933F040C94DE1E0E94680AEC
:101DC0004AE060E08BEF94E00E94EF0980913204DA
:101DD00044E160E0811106C087ED94E00E94EF09C4
:101DE0000C94DE1E8CEE94E00E94EF090C94DE1E33
:101DF00080911C128D7F80931C120E94680A4AE019
:101E000060E08BEF94E00E94EF0980913204833010
:101E1000C9F048F4813089F0823019F544E160E07E
:101E200083EB94E022C08530B9F088F08630C9F4A5
:101E300044E160E08BE794E018C044E160E086ECA8
:101E400094E013C044E160E082EA94E00EC044E113
:101E500060E089E994E009C044E160E08FE894E043
:101E600004C044E160E08CEE94E00E94EF0948EE8B
:101E700053E060E070E086E00E94800B0C94DE1E70
:101E800089E0EAE2F2E0DE019A9601900D928A95ED
:101E9000E1F79FB7F894E0911308809114089FBF71
:101EA00090911408913009F0B8C1E93609F44BC19A
:101EB00018F5E13609F453C0C0F4EC3209F4F3C06C
:101EC000EE3209F080C10E94840480911C128D7F43
:101ED00080931C128FB7F89494E0909314088FBFEE
:101EE00083E00E94D6020C94DE1EE63609F445C05B
:101EF000E83609F47CC067C1E03709F4E6C070F445
:101F0000EC3609F495C0EF3609F05DC1BE01665D9F
:101F10007F4F8FEF0E94D0040C94DE1EE33709F44C
:101F2000B0C0E43709F04FC10E94840480911C12B4
:101F30008D7F80931C128FB7F8941092090895E05A
:101F4000EAE0F8E0DF011D929A95E9F792E09093BC
:101F500014088FBF80E00E94D6020C94DE1E80E041
:101F60000E945A228FB7F89496E0909314088FBF7E
:101F700086E00E94D6020C94DE1E8FB7F89496E09D
:101F8000909314088FBF90913504993048F52091B3
:101F900040048BE3829FF0011124E15CFB4F6091D0
:101FA000110870911208438154816417750711F06C
:101FB0000C94DE1EE92FF0E0EB5CFB4F2183E091F7
:101FC0003F0421E0290F209335048E9FF001112456
:101FD000E15CFB4F928386E00E94D6020C94DE1EE9
:101FE00083E0809332040E94F5020C94DE1E8091FF
:101FF0004004811102C080913F04815080934004CD
:102000008FB7F89493E090931408E09140042BE389
:10201000E29FF0011124E15CFB4F23813481309376
:10202000100820930F088FBF0E94F8020C94DE1E48
:1020300020914004422F50E080913F0490E00197AE
:102040004817590719F41092400403C02F5F2093DA
:1020500040048FB7F89493E090931408E091400403
:102060006BE3E69FF0011124E15CFB4F2381348197
:102070003093100820930F088FBF0E94F8020C9431
:10208000DE1E0E9484048FB7F89495E090931408A4
:102090002BE633E03093100820930F088FBF0E9487
:1020A000F8020C94DE1E0E94840480911C128D7F25
:1020B00080931C128FB7F89494E0909314088FBF0C
:1020C00084E00E94D6020C94DE1E9FB7F8948091A3
:1020D00031049FBF81110C94DE1E8FB7F89495E0F8
:1020E000909331048FBF49E050E06FE574E0FE014A
:1020F00031967F01CF010E94BF280DE213E080E8F6
:10210000D8011D928A95E9F7FF92EF928FE892E04D
:102110009F938F931F930F930E947629F80101904C
:102120000020E9F78F010E52134010932C03009307
:102130002B030E9404030F900F900F900F900F90AD
:102140000F900C94DE1E9FB7F894809131049FBFCE
:1021500081110C94DE1E8FB7F89493E090933104B4
:102160008FBF10922F0445E050E068E674E0FE0156
:1021700031967F01CF010E94BF280DE213E080E875
:10218000D8011D928A95E9F7FF92EF928FE892E0CD
:102190009F938F931F930F930E947629F8010190CC
:1021A0000020E9F78F010E52134010932C03009387
:1021B0002B030E9404030F900F900F900F900F902D
:1021C0000F900C94DE1E8E2F90E0C0970A9710F0AF
:1021D0000C94DE1EE05311F40C94DE1E8FB7F894BD
:1021E00093E090931408F0E0EB5CFB4FE181BBE3DC
:1021F000EB9FF0011124E15CFB4F2381348130938C
:10220000100820930F088FBF80911C128D7F809340
:102210001C120E94F8020C94DE1E823011F00C9405
:10222000DE1E80E00E94D6020C94DE1E82E00E9438
:1022300045040C94DE1E0E94680A4AE060E084E9CE
:1022400092E00E94210A0C94DE1E40912B035091D3
:102250002C038091D10F81112BC082ED9FE0892B3F
:1022600039F18DE293E09093DB0F8093DA0F80ECED
:102270008093D20F88EA8093D30F8AE28093D40FA1
:1022800081E08093D50F20E533EC3093D70F209376
:10229000D60F3093D90F2093D80F5093DD0F409372
:1022A000DC0F8093D10F88E10E94D6020C94DE1ED1
:1022B0000E9404030C94DE1E9FB7F89480913104B1
:1022C0009FBF833009F443C0843009F484C0823056
:1022D00009F066C1CE018A960E941406882309F48B
:1022E0005FC142E050E068E774E08FEA93E00E944B
:1022F000B1282AA53BA5892BA1F4AE014F5F5F4F02
:1023000067EA72E0C9010E9412294AE050E060E0E9
:1023100070E089819A810E946A276F3048F480E0DA
:1023200008C06BE574E0C9010E94CE28009721F433
:1023300082E00E94440A34C14FE050E067E474E058
:1023400004960E94B128892B99F781E0F2CF809101
:10235000B1038A3039F44CE360E083E692E00E94F6
:10236000210A1EC1CE018A960E941406882309F410
:1023700017C110921A0310921B03AE014F5F5F4FFB
:1023800069EA72E08AA59BA50E9412290097D1F004
:102390004AE050E060E070E00E943F266F3050F469
:1023A000E0911A0381E08E0F80931A03F0E0E65E5D
:1023B000FC4F6283AE014F5F5F4F69EA72E080E0DD
:1023C00090E0E2CF80911A03882309F4E9C081E00C
:1023D00080933004E2C0CE018A5A9F4F0E941406B7
:1023E000882309F4D6C0AE01465D5F4F67EA72E00C
:1023F00068968EAD9FAD68970E9412298C01009758
:1024000009F4BDC0BBEA8B2EB2E09B2E88E0382ECB
:102410003E01E0E46E0E711C4AA45BA442E050E071
:1024200064E474E0C8010E94B128892B61F44AE099
:1024300050E060E070E0C2010E946A276F3008F04F
:102440009EC0F62E8FC044E050E06FE374E0C801F8
:102450000E94B128892B81F44AE050E060E070E0EE
:10246000C2010E946A279B012B5633402E3C310546
:1024700008F085C06B0176C046E050E068E374E088
:10248000C8010E94B128892B49F44AE050E060E07D
:1024900070E0C2010E946A275B0164C045E050E021
:1024A00062E374E0C8010E94B128892B71F44AE00C
:1024B00050E060E070E0C2010E946A278FEF860F53
:1024C000893008F05CC0E62E4DC044E050E06DE27B
:1024D00074E0C8010E94B128892B49F55F924F92A0
:1024E0009F928F921F923F927F926F920E94392902
:1024F0002A961FAE2A97EAA5FBA5CF0108969BA7AF
:102500008AA70FB6F894DEBF0FBECDBF80858C3290
:10251000B1F5CF0109969BA78AA76CE270E00E94F3
:10252000F828009761F101969BA78AA71BC044E099
:1025300050E068E274E0C8010E94B128892B91F450
:1025400048E250E0B201CE0101960E940329AA960A
:102550001FAEAA978E01005C1F4F9501A6016E2D3C
:102560008F2D15C0AE01465D5F4F67EA72E080E0D7
:1025700090E00E9412298C01009709F04DCF0FA521
:1025800018A92DA53EA54BA55CA56AA58EEF0E94B6
:10259000812380913004882319F08EE00E94D602B6
:1025A0008FB7F894109231048FBF0C94DE1E4091C7
:1025B0001B03242F30E080911A0390E0821B930BC1
:1025C000181619060CF053C04F5F40931B03F90116
:1025D000E65EFC4FB2809FB7F894809131049FBFB4
:1025E00081110C94DE1E8FB7F89494E0909331041F
:1025F0008FBF44E050E067E574E0DE0111967D0195
:10260000CD010E94BF286E01BAE2CB0ED11C43E07F
:1026100050E064E474E0C6010E94BF280DE213E0BC
:1026200080E8F80111928A95E9F71F92BF92DF9234
:10263000CF92FF92EF9280EB92E09F938F931F9344
:102640000F930E947629F80101900020E9F78F018D
:102650000E52134010932C0300932B030E9404038B
:102660000FB6F894DEBF0FBECDBF0C94DE1E1092E5
:10267000300410921A0310921B038FB7F894109233
:1026800031048FBF4CE360E083E692E00E94210AB0
:102690000C94DE1E8091140381110C94DE1E809137
:1026A00015038F5F817080931503EDE0E89FD001E3
:1026B0001124A257B34F9C91913011F40C944F1CEC
:1026C0008F5F817080931503E89FF0011124E2571A
:1026D000F34F8081813011F00C94DE1E0C944F1C5E
:1026E0008091D60C811141C04091A3125091A41247
:1026F0006091A5127091A6122FB7F894C0902A127B
:10270000D0902B12E0902C12F0902D128091D00CD2
:102710009091D10CA091D20CB091D30C8C0D9D1D39
:10272000AE1DBF1D2FBF4093A3125093A412609300
:10273000A5127093A6121092D60C2FB7F89431E020
:10274000309316088093D00C9093D10CA093D20CA8
:10275000B093D30C40932A1250932B1260932C12F7
:1027600070932D122FBF0E9416040E942E030E9408
:10277000BA0B0C94DE1E0E942E032FB7F894109211
:1027800016082FBFE7EEF1E110E044244A94542CE0
:10279000642CAFE77A2E20E030E009E0029FA00130
:1027A000039F500D1124DA01A951BE4E18964C9189
:1027B00041FF1AC0C080D180E280F3804B015C01F0
:1027C0008C189D08AE08BF08C480D580E680F780CD
:1027D000C818D908EA08FB08C414D504E604F704AD
:1027E0001CF42601370111E02F5F3F4F3996273047
:1027F0003105A1F6112311F40C94DE1E14141504F6
:102800001604170424F00E94BA0B0C94DE1E4092AA
:10281000A3125092A4126092A5127092A61221E007
:102820002093D60C3FB7F894209316086093D00CF1
:102830007093D10C8093D20C9093D30C40922A12B7
:1028400050922B1260922C1270922D123FBF0E9458
:1028500016040C94DE1E80910E0381110C94DE1E72
:1028600080910F0390E001968170992780930F0368
:102870002DE1289FF001299FF00D1124EA59FD4E0A
:102880003081313011F40C94A71C01968170992786
:1028900080930F03289FF001299FF00D1124EA591E
:1028A000FD4E8081813011F00C94DE1E0C94A71C2B
:1028B00080910C0381110C94DE1EE0910D03EF5FFB
:1028C000E170E0930D03AE2FB0E0F3E0AA0FBB1F61
:1028D000FA95E1F7A750B14F8C91813011F40C9427
:1028E000E91CEF5FE170E0930D03F0E073E0EE0FA1
:1028F000FF1F7A95E1F7E750F14F8081813011F0A9
:102900000C94DE1E0C94E91C80910A0381110C9436
:10291000DE1E80910B038F5F817080930B03EBE0D1
:10292000E89FD0011124A25DBD4E9C91913011F41D
:102930000C94FB1D8F5F817080930B03E89FF00167
:102940001124E25DFD4E8081813011F00C94DE1E79
:102950000C94FB1D81E0809306030E9426070C94D3
:10296000DE1E8FB7F8941092180810921708109274
:10297000D50C1092D40C10920D1310920C131092CF
:10298000120F1092110F8FBF0C94DE1E8FB7F894A8
:1029900092E0909305038FBF8091110281110C94F6
:1029A000DE1E0E94BA0280910903813021F082303C
:1029B00009F498C076C16FEF8FEF0E946C038DE130
:1029C0000E94820380FFFBCF80E00E946C0860E0E1
:1029D00076E088E00E94F70680E096E0909315028A
:1029E0008093140260E076E08CE00E94F7066FEFBF
:1029F0007FE18AE00E94F70660E070E084E00E94D8
:102A0000F70660E88EE50E946C0381E00E946C0886
:102A100061EA88E50E946C0382E00E946C0860E035
:102A200081E40E946C0361E080E40E946C0363E334
:102A300082E40E946C0360E083E40E946C036AE21B
:102A400072E08AE00E94F70665E184E40E946C036C
:102A5000909128028091290290931B0280931A0280
:102A600083E00E946C0860911B0281E40E946C0369
:102A700060911A0280E40E946C036091190283E461
:102A80000E946C036091180282E40E946C036091C2
:102A9000170285E40E946C036091160284E40E9490
:102AA0006C0382E00E946C0864E184E50E946C0380
:102AB00060E471E086E10E94F70662E184E50E942D
:102AC0006C0362E170E086E10E94F70660ED8BE541
:102AD0000E946C0364E08FE10E94980382E080937F
:102AE0000903DFC080910603882309F43FC01092D8
:102AF00006038CE10E948203182F84FF20C082E02D
:102B00000E946C0863E184E50E946C0361E082E549
:102B10000E946C0383E00E946C088AE00E944122BC
:102B200080FDFBCF82E00E946C0860E082E50E949D
:102B30006C0388E10E94412289E10E94412281E0E8
:102B40000E946C0889E10E948203882319F081E0C9
:102B50008093070310FF0AC00E94BC028CEB0E9406
:102B60006A0381E00E946A030E94BA02809108030E
:102B70008130E1F580E00E946C0860E070E082E066
:102B80000E94F70660E08AE70E946C0300E010E014
:102B90006091D90C7091DA0C0617170768F4E09170
:102BA0004412F0914512E00FF11F60818AE70E9404
:102BB0006C030F5F1F4FECCF86E00E94F70668E0C2
:102BC0008FE10E94980310920803109214038091E1
:102BD00015036DE0869FF0011124E257F34F108238
:102BE00060E00E9454088FE00E94D60280910703A3
:102BF000813009F056C080E00E946C086091140298
:102C00007091150280E00E94F7068AE30E94820319
:102C100090E090931502809314028AE30E9482034D
:102C20002091140230911502382B30931502209315
:102C300014028AE30E948203082F10E08AE30E94B4
:102C40008203182B8AE30E9482038AE30E94820394
:102C5000C8010F978B31924090F449E1E42E48E08F
:102C6000F42E8AE30E948203F70181937F01CF0152
:102C70008951984080179107A0F310E001C011E03E
:102C800060911402709115028CE00E94F70660E4D6
:102C90008EE10E94980310920703111102C00E9456
:102CA00071221FB7F89480910503823011F580914D
:102CB000110281111EC0809113028F3FB1F0E82FE5
:102CC000F0E0E552F34F9081909313029F3F11F48F
:102CD000909312029FEF90838093110281E0809382
:102CE000050387E10E94D60204C08093110210926E
:102CF00005031FBF9FB7F89480910503882311F443
:102D00000C947B1E9FBF1FB7F8944A9903C085E1BE
:102D10000E94D6021FBF0C94DE1E80910303811116
:102D20000C94DE1E10920403F090D10FF1E0FF121C
:102D30000C94DE1E0C94801E9FB7F8948091AD1207
:102D40009FBF811110C05A9A48EE53E060E070E0D6
:102D500082E00E94800B8FB7F89491E09093AD12BF
:102D60008FBF0C94DE1E813051F48FB7F89492E03F
:102D70009093AD128FBF0E9407030C94DE1E823029
:102D8000D1F42FB7F8948091520A9091530A906829
:102D90009093530A8093520A1092630A1092620A27
:102DA0008FE08093A11283E08093AD122FBF0E9429
:102DB000FB020C94DE1E833079F48FB7F89494E014
:102DC0009093AD128FBF4EEE52E060E070E082E073
:102DD0000E94800B0C94DE1E843099F48FB7F89417
:102DE00021E030E43093490A2093480A92E090931E
:102DF000A11295E09093AD128FBF0E94FB020C943C
:102E0000DE1E853079F48FB7F89496E09093AD127A
:102E10008FBF46E950E060E070E082E00E94800BE6
:102E20000C94DE1E863051F48FB7F89497E090939F
:102E3000AD128FBF0E9407030C94DE1E873009F08D
:102E40003EC02FB7F8948091460A9091470A2FBF51
:102E50008335924159F08FB7F8941092A9128FBF21
:102E60001092320487E00E94D602A8C72FB7F894C8
:102E700080914C0A90914D0A837397728460986494
:102E800090934D0A80934C0A80E199E190934F0A08
:102E900080934E0A8091500A9091510A88279E7F14
:102EA0008F649093510A8093500A86E08093A11218
:102EB00088E08093AD122FBF0E94FB027FC788304D
:102EC00009F07CC78FB7F8941092A9128FBF44E61F
:102ED00050E060E070E084E00E943A038FB7F8941D
:102EE00091E0909314088FBF81E00E945A228BE0FA
:102EF0000E94D60263C79FB7F8948091AE129FBF1D
:102F0000811122C02FB7F89480910F139091101364
:102F10008B5693409370906890934B0A80934A0A23
:102F200080914C0A90914D0A9F76906490934D0A3F
:102F300080934C0A84E08093A11281E08093AE12CA
:102F40002FBF0E94FB023AC7813051F48FB7F8942B
:102F500092E09093AE128FBF88E08CBBEB9A2EC7A5
:102F6000823049F48FB7F89493E09093AE128FBFFC
:102F70000E94070323C7833041F52FB7F89480914F
:102F80005A0A90915B0A937085599C4F909317133E
:102F90008093161380914A0A90914B0A9F779093E1
:102FA0004B0A80934A0A80914C0A90914D0A9F7B6C
:102FB00090934D0A80934C0A84E08093A1128093F1
:102FC000AE122FBF0E94FB02F9C6843049F48FB7BE
:102FD000F89495E09093AE128FBF0E940703EEC65F
:102FE000853009F0EBC62FB7F8948091580A90917C
:102FF000590A88279074892F99272FBF892B89F523
:1030000020911613309117139FB7F894309312083C
:1030100020931108809114089FBF833031F08530D0
:1030200021F483E00E94D60202C00E9442068FB7BC
:10303000F8949FE09093BA128FBF8091B1128823C9
:1030400051F08FB7F89494E09093A9128FBF81E06C
:103050000E94B106B3C68FB7F8941092A9128FBF21
:10306000ADC68FB7F89494E09093AE128FBF0E94D4
:103070000103A4C69FB7F8941091100F8091AF126E
:103080009FBF81113FC02FB7123061F4F894809137
:10309000480A9091490A95609093490A8093480A9A
:1030A0002FBF0EC0F8948091480A9091490A9A7FE8
:1030B00091609093490A8093480A2FBF111176C6F8
:1030C0002FB7F8948091480A9091490A92609093A2
:1030D000490A8093480A2FBF2FB7F89480914C0A71
:1030E00090914D0A9F76906490934D0A80934C0A7C
:1030F00084E08093A11281E08093AF122FBF0E94E1
:10310000FB025CC6813051F48FB7F89492E0909343
:10311000AF128FBF88E08CBBEB9A50C6823049F467
:103120008FB7F89493E09093AF128FBF0E9407037C
:1031300045C6833081F52FB7F8948091580A909155
:10314000590A882790729093170380915A0A909198
:103150005B0A937085599C4F9093171380931613B5
:103160008091480A9091490A9E7F9093490A8093E2
:10317000480A80914C0A90914D0A9F7B90934D0A8A
:1031800080934C0A84E08093A1128093AF122FBFEA
:103190000E94FB0213C6843049F48FB7F89495E07F
:1031A0009093AF128FBF0E94070308C6853009F0C5
:1031B00005C62FB7F8948091580A9091590A88272C
:1031C0009074892F99272FBF892B09F045C08091D2
:1031D0001703811129C080911613909117130E9433
:1031E00009098FB7123039F4F8941092AF128FBFDB
:1031F0000E94FE02E3C5F8949FE09093BA128FBF3D
:103200008091B112882351F08FB7F89494E0909395
:10321000A9128FBF81E00E94B106D0C58FB7F89484
:103220001092A9128FBFCAC58FEF9FEF0E940909A4
:103230008091B112882351F08FB7F89494E0909365
:10324000A9128FBF81E00E94B106B8C58FB7F8946C
:103250001092A9128FBFB2C58FB7F89494E09093E3
:10326000AF128FBF0E94FE02A9C58FB7F89460917C
:10327000B0128FBF611109C08FB7F89491E090939D
:10328000B0128FBF0E94070399C5613009F096C53F
:103290004FB7F894E0915C0AF0915D0A80915E0A64
:1032A000A0915F0A9091600A7091610A2091620A70
:1032B0003091630A4FBF4A2F46954695469550E098
:1032C0004430510509F45BC024F44230510550F0FC
:1032D000F7C04530510509F47FC04830510509F465
:1032E000AEC0EEC04FB7F894F093C312E093C4128F
:1032F0008370E82FF0E0EE0FFF1FE954FD4E34839A
:10330000258321E030E0D90102C0AA0FBB1F8A95B6
:10331000E2F7CD019091B712892B8093B7124FBF7E
:103320008F3009F0CDC089E0E9EBF7E0DF011D92B5
:103330008A95E9F788E0EBEBF2E1A9EBB7E00190C1
:103340000D928A95E1F72FB7F8946093B6078091B4
:10335000C31290E0982F88273091C412832B90934A
:10336000B8078093B7072FBF48E050E060E270E0F5
:103370008BEB92E10E94F1281092B712A1C08F70DE
:10338000FFB6F894B4E08B9FA00111248A01095480
:103390001D4EF8017687BA0168547D4EDB011E96FA
:1033A0009C93DA01A754BD4E1E963C931E9746543B
:1033B0005D4EFA012687FFBEF80196859D3021F10A
:1033C000FB0196859D3001F11E969C919D30E1F0A8
:1033D000DA011E969C9116C08F709FB7F894E82F63
:1033E000F0E0EE0FFF1FDF01A954BD4E1E963C9387
:1033F0001E97E854FD4E26879FBF1E969C919D30D8
:1034000019F096859D3011F48093BA129FB7F89405
:103410008091B8128F5F8093B8129FBF81E4E2EC75
:10342000F7E0DF011D928A95E9F780E4E5ECF2E12F
:10343000A2ECB7E001900D928A95E1F741C0892F87
:1034400082958071932F92959F70892BA901E6E058
:1034500056954795EA95E1F74F73922F9F71969590
:1034600025FF02C0891B01C0890F0FB7F894E5E062
:10347000F3E116E0DF01212F1D922A95E9F71F9253
:103480004F931F928F938AEB92E09F938F93FF93BA
:10349000EF930E9476290FBFE3E0F8E0DF01212FD0
:1034A0001D922A95E9F7E5E0F3E1A3E0B8E0019089
:1034B0000D921A95E1F70FB6F894DEBF0FBECDBF9F
:1034C0008091B11281110CC08FB7F89494E0909361
:1034D000A9121092B0128FBF80E00E94B1066EC494
:1034E0008FB7F8941092A9121092B0128FBF66C4D1
:1034F0009FB7F8948091AC129FBF882319F00E9467
:1035000007035CC48FB7F89491E09093AC128FBF1F
:103510000E94490653C48FB7F89490910D029111FF
:1035200035C08FBF8FB7F89490910103913071F53A
:1035300022E0209301038FBF8FB7F89420E130E0A1
:1035400030930F0F20930E0F26E432E13093D80C06
:103550002093D70C20E22093150823E020934013FA
:103560001092A212909300038FBF0E9426031FB7F0
:10357000F894809126128F7A816A8093261284E0D3
:10358000809301030E94B5021FBF18C48FBF8EE154
:103590000E94D60213C49FB7F8948091AC129FBFCB
:1035A000882319F00E94FB0209C49FB7F89482E0B7
:1035B0008093AC128091A112880F82509FBF20E0AF
:1035C00092E02817B0F43FB7F894422F50E0E92F6B
:1035D000F0E0EE0FFF1FEC5BF54F60817181FA01A7
:1035E000EA5BFD4E708361833FBF9F5F9F702E5FDC
:1035F000E8CF0E944906E2C39FB7F8948091A112D8
:103600009FBF9FB7F89420910D02211136C09FBF34
:103610009FB7F89420910103213079F522E020939F
:1036200001039FBF9FB7F89420E130E030930F0F64
:1036300020930E0F26E432E13093D80C2093D70C60
:10364000880F82508093150883E080934013109276
:10365000A212109200039FBF0E9426031FB7F89486
:10366000809126128F7E816E8093261284E0809353
:1036700001030E94B5021FBFA1C39FBF80E20E9449
:10368000D6029CC340E050E02AE0DA01AA5BBD4EBE
:10369000E22FF0E0EE0FFF1FEC5BF54F8C9190E016
:1036A000982F882711963C91832B918380832F5FDD
:1036B0002F704E5F5F4F4032510539F77FC38FB790
:1036C000F8949091A01290930E0293E090930203CD
:1036D0008FBF80910E029FB7F89480930D029FBF19
:1036E00081116CC39FB7F8948091AC129FBF813059
:1036F00031F0823041F480E20E94D6025FC38EE155
:103700000E94D6025BC30E94C40758C31FB7F89437
:1037100080910003882321F081E00E94AC0A02C05E
:103720000E94190B1FBF4AC38FB7F89490910D0FD9
:1037300090930C0293E09093FE028FBF80910C0255
:10374000811101C0809880910C02811137C381E002
:103750008093B00F10920B130E9478072FC3109222
:10376000B00F009128121091291280910B13811132
:1037700025C3FFB6F8948091FE02833009F03EC065
:1037800080910C0281113AC08091E611882309F4DE
:1037900002C36091FF0270E0CB010196A1E0B0E0AE
:1037A0008130910511F480E090E0E82FE695E695F0
:1037B000E695F0E0EA51FE4E2081382F3770AD01DA
:1037C00001C0440F3A95EAF7322F342331F0409587
:1037D000242320838093FF0206C08617970711F0E9
:1037E0000196DECF8FEF80930D0F8FEF80930C0249
:1037F00081E08093FE0284E20E94D602FFBE96E042
:10380000169507959A95E1F70093330482E00E949C
:10381000D602D4C28091130F8130E1F460E080E8D9
:103820000E94180788E290E00E94FD0500E010E089
:10383000F801EF54F04F61E080810E94180788E2A0
:1038400090E00E94FD050F5F1F4F0031110581F7C9
:103850001092130F8091140F813009F0AFC260E015
:1038600080EC0E94180788E290E00E94FD0500E0CD
:1038700010E0F801EF53F04F61E080810E941807DB
:1038800088E290E00E94FD050F5F1F4F0031110597
:1038900081F71092140F92C20E94F8028FC2E09139
:1038A0001503ADE0EA9FC0011124FC01E157F34F7D
:1038B00026E0A4E6BAE001900D922A95E1F726E011
:1038C000E6E1F2E0AAE6BAE001900D922A95E1F76E
:1038D000FC01E257F34F978180859093710A8093A2
:1038E000700A0385148561857285A80182E79AE0D4
:1038F0000E94E8288091080381111AC08091090371
:103900008230B1F40E942607811114C084E69AE047
:103910009093451280934412025F1F4F1093DA0C6C
:103920000093D90C81E0809308038093140346C26E
:1039300065E001C067E080911503BDE08B9FF00159
:103940001124E257F34F10820E94540837C280912D
:103950000F03282F30E06DE1869FF0011124AF01A5
:1039600049595D4E90919B0C911126C06CE97CE009
:103970006115710509F1E758FD4E86E0DB01019004
:103980000D928A95E1F786E098E09093A30C8093DE
:10399000A20C5093A50C4093A40C8CE190E0909362
:1039A000A70C8093A60C11E010939B0C8FE00E9453
:1039B000D60210930E0302C29DE1929FF001939FE5
:1039C000F00D1124EA59FD4E108265E00E94410875
:1039D000F5C1F0900D0385E48093DD0C1092DE0CB0
:1039E00086E68093E20C8093E10C1092E40C109236
:1039F000E30C8FEF8093E50C88E0F89E80011124A2
:103A0000D801A750B14F6D0116964D915C91179753
:103A1000CA0144968093E00C9093DF0C1196ED91CF
:103A2000FC91129780819181A281B3818093ED0CEA
:103A30009093EE0CA093EF0CB093F00C80912402C5
:103A400090912502A0912602B09127028093E90C63
:103A50009093EA0CA093EB0CB093EC0CF60164810C
:103A6000758181EF9CE00E94E828D60113968C9125
:103A70008093E60C1092E80C1092E70CEDEDFCE060
:103A800080E090E0DC0121913191820F931FA11D14
:103A9000B11D2CE0E13FF207B1F7AD0166277727B2
:103AA000411551056105710539F0AA27BB27840F1F
:103AB000951FA61FB71FF1CF80959095A095B09543
:103AC0009093E80C8093E70C80911C0290911D026A
:103AD000A0911E02B0911F028090ED0C9090EE0C10
:103AE000A090EF0CB090F00C4091E90C5091EA0CD2
:103AF0006091EB0C7091EC0C482559256A257B25CB
:103B0000482359236A237B23452B462B472B19F443
:103B1000EDEEFCE002C0E0E2F2E080809180A28065
:103B2000B38080959095A095B095AC01BD014821DA
:103B300059216A217B21481759076A077B0719F425
:103B400080E092E02DC05091130344E06AE0252FFD
:103B500030E0629FC001639F900D1124DC01A85EDC
:103B6000BC4E4D905D906D907C90481459046A0451
:103B70007B0429F450931303845E9C4E0BC0C9014F
:103B8000019683709927582F415009F780931303AA
:103B900080E090E09093190380931803009719F048
:103BA0000E94830814C080911003811114C0808189
:103BB0009181A281B3818093111390931213A093EA
:103BC0001313B0931413109211030E94AA0B81E0F7
:103BD00080930C03F3C0F801E750F14F1082F1100D
:103BE00003C00E940606EAC0B1E0FB12E7C085E010
:103BF0000E941708E3C0E0910B03EE2EF12C2BE09E
:103C0000E29FF0011124E25DFD4E418552858A015B
:103C10000C5F1F4F85818093160F86818093170F4D
:103C2000678170858AE19FE00E94E8281092190F51
:103C30001092180FA80156954795E6E1FFE020E0A5
:103C400030E080E090E0DC012417350749F0619115
:103C50007191860F971FA11DB11D2F5F3F4FF4CFAC
:103C6000AD0166277727411551056105710539F0CA
:103C7000AA27BB27840F951FA61FB71FF1CF8095DA
:103C80009095A095B0959093190F8093180F8091FF
:103C9000F90E811126C08AEF9EE0892B11F12BE0ED
:103CA0002E9DC0012F9D900D1124815D9D4E9093FE
:103CB000FB0E8093FA0EFF24F394F092FC0E86E143
:103CC0009FE09093FE0E8093FD0E1093000F0093E3
:103CD000FF0EF092F90E83E10E94D602F0920A03E1
:103CE0006DC08BE08E9DF0018F9DF00D1124E25D83
:103CF000FD4E108263C08CB58F7B8CBD0C948216F8
:103D00009091D60F8091D70F9093DF0F8093DE0FA5
:103D10009091D80F8091D90F9093E10F8093E00F8D
:103D20004091DC0F5091DD0F8A01085F1F4F009317
:103D3000E30F1093E20F6091DA0F7091DB0F86EEC4
:103D40009FE00E94E8288091010F81111FC082E04E
:103D50009FE0892BD9F082ED9FE09093030F809331
:103D6000020F81E18093040F8EED9FE09093060F88
:103D70008093050F1093080F0093070FF092010F27
:103D800083E10E94D602F092030318C01092D10F73
:103D90000E94040313C081E080930C021092FE0283
:103DA00080917A008F7780937A0028CD2FB7F8948E
:103DB0008091480A9091490A9D7F89C9C65ADF4F70
:103DC0000FB6F894DEBF0FBECDBFDF91CF911F912C
:103DD0000F91FF90EF90DF90CF90BF90AF909F90AA
:103DE0008F907F906F905F904F903F9008958FB726
:103DF000F89408958FBF08951F920F920FB60F92F7
:103E000011240BB60F922F933F934F935F936F93B1
:103E10007F938F939F93AF93BF93EF93FF932FB7AE
:103E2000F8948091090F90910A0FA0910B0FB09117
:103E30000C0F0196A11DB11D8093090F90930A0FDD
:103E4000A0930B0FB0930C0F2FBF78940E94160411
:103E5000FF91EF91BF91AF919F918F917F916F9162
:103E60005F914F913F912F910F900BBE0F900FBE1E
:103E70000F901F9018951F920F920FB60F9211245A
:103E80000F900FBE0F901F9018951F920F920FB6B4
:103E90000F9211240BB60F92CF92DF92EF92FF9206
:103EA0000F931F932F933F934F935F936F937F9342
:103EB0008F939F93AF93BF93CF93DF93EF93FF9332
:103EC0002EB5E0911708F0911808309739F08091DD
:103ED000110F9091120FE80FF91F20838091110F9D
:103EE0009091120F01969093120F8093110F8CB541
:103EF0008F778CBDC091110FD091120F20910C13B0
:103F000030910D13C217D307D8F50091D40C10913E
:103F1000D50CC0901708D0901808CE010A96281723
:103F2000390708F4C9017C0121E0E21AF108CE1535
:103F3000DF05A0F40115110529F0F801EC0FFD1FB4
:103F4000808101C080E00E946403C114D10421F08B
:103F5000F601EC0FFD1F80832196E9CF8CB58068B8
:103F60008CBD0115110531F0F801EC0FFD1F8081AA
:103F70008EBD01C01EBCD093120FC093110F11C093
:103F800010921808109217081092D50C1092D40CA9
:103F900010920D1310920C131092120F1092110F19
:103FA0008EB5FF91EF91DF91CF91BF91AF919F912E
:103FB0008F917F916F915F914F913F912F911F91C1
:103FC0000F91FF90EF90DF90CF900F900BBE0F906E
:103FD0000FBE0F901F9018951F920F920FB60F9261
:103FE00011240F900FBE0F901F9018951F920F92E3
:103FF0000FB60F9211240F900FBE0F901F901895BF
:104000001F920F920FB60F9211240BB60F922F939F
:104010003F934F935F936F937F938F939F93AF9350
:10402000BF93EF93FF9385E10E94D602FF91EF913A
:10403000BF91AF919F918F917F916F915F914F91C0
:104040003F912F910F900BBE0F900FBE0F901F90BE
:1040500018951F920F920FB60F9211240BB60F9264
:104060002F933F934F935F936F937F938F939F9380
:10407000AF93BF93EF93FF938091A912823029F001
:10408000833041F0811116C00AC00E94D4020E9400
:10409000010312C00E94D4020E94FE020DC0809152
:1040A000B112882349F086E08093A9128CE10E9426
:1040B000D60202C00E94D402FF91EF91BF91AF914E
:1040C0009F918F917F916F915F914F913F912F9130
:1040D0000F900BBE0F900FBE0F901F9018951F9260
:1040E0000F920FB60F9211240F900FBE0F901F90DA
:1040F00018951F920F920FB60F9211240F900FBEBA
:104100000F901F9018951F920F920FB60F921124C7
:104110000F900FBE0F901F9018951F920F920FB621
:104120000F9211240F900FBE0F901F9018951F92A1
:104130000F920FB60F9211240BB60F922F933F934D
:104140004F935F936F937F938F939F93AF93BF939F
:10415000EF93FF930E9426038091B900982F987FD8
:1041600020910103243079F1263021F0233009F029
:104170004DC013C080910003813049F4903429F47C
:1041800083E08093010381E010C084E016C0983181
:10419000E1F783E08093010313C0209100032130F5
:1041A00039F4807F803541F480E00E94AC0A2EC053
:1041B000983231F0903321F081E00E944C0B26C000
:1041C0000E94190B23C0809140138E7F809340136F
:1041D000809126128F7D983029F0903119F08093CC
:1041E0002612EACF80648093261291E0809100032A
:1041F000813009F090E080910E0F880F892B809319
:10420000BB0086E0809301030E94B502FF91EF910D
:10421000BF91AF919F918F917F916F915F914F91DE
:104220003F912F910F900BBE0F900FBE0F901F90DC
:1042300018951F920F920FB60F9211240BB60F9282
:104240002F933F934F935F936F937F938F939F939E
:10425000AF93BF93EF93FF93909106018091DC0C95
:1042600097FD11C08350883008F07EC080911603FE
:104270008695809316039091060196FF75C080681D
:104280008093160371C081508093DC0C81116CC047
:1042900080911603803E09F464C09091B51291118B
:1042A00058C0893549F0803F19F0823149F404C083
:1042B00081E08093B51255C081E08093CF0C51C04E
:1042C0009091CF0C60E091111FC091E4262F30E057
:1042D000290F311D35952795A901440F551FFA0166
:1042E000E054FE4FE491E81718F461E0620F09C052
:1042F0008E1718F49FEF920F04C0FA01EF53FE4F90
:104300001EC0961718F72DC091E4262F30E0290F14
:10431000311D35952795A901440F551FFA01E85C19
:10432000FE4FE491E81718F461E0620F0FC08E179A
:1043300018F49FEF920F0AC0FA01E75CFE4FE49178
:10434000E093130889E00E94D6020BC09617E8F6A6
:1043500008C01092B512823111F0893511F4109213
:10436000CF0C8BE08093DC0CFF91EF91BF91AF916C
:104370009F918F917F916F915F914F913F912F917D
:104380000F900BBE0F900FBE0F901F9018951F92AD
:104390000F920FB60F9211240BB60F922F933F93EB
:1043A0004F935F936F937F938F939F93AF93BF933D
:1043B000CF93EF93FF932091780030917900789418
:1043C0004FB7F89480910E1381FB992790F9817073
:1043D0004FBF811122C080917A00877F80937A003D
:1043E0008091B00F813019F0823091F036C0911178
:1043F00007C08DE790E00E94FD050E9478072DC060
:10440000309329122093281285E20E94D60225C0FB
:10441000992379F31092B00F20C0CFB7F8940E947F
:104420000A03CFBF2FB7F89480917A0086FB9927B3
:1044300090F9877F806190FB86F98F7780937A006F
:10444000877F80618F7B8F7780937A00877F806101
:104450008F7B806880937A002FBFFF91EF91CF917F
:10446000BF91AF919F918F917F916F915F914F918C
:104470003F912F910F900BBE0F900FBE0F901F908A
:104480001895CF93DF931F92CDB7DEB789830E9433
:10449000BC0289810E946A038FEF0E946A038FEF3A
:1044A0000E94640389830E94BA0289810F90DF9180
:1044B000CF9108953FB7F8949091B1122091A9122D
:1044C0008093B1123FBF21110AC0891741F09FB7F5
:1044D000F89424E02093A9129FBF0E94B10680E0C7
:1044E00008958F929F92AF92BF92CF92DF92EF92F8
:1044F000FF920F931F93CF93DF938091250890E055
:10450000982F882720912608822B811528E0920772
:1045100029F08630984009F47AC0E6C087E298E036
:104520009093A8128093A712809137089091380831
:10453000A0913908B0913A08009124021091250207
:10454000209126023091270280179107A207B30716
:1045500039F140911C0250911D0260911E02709130
:104560001F026A017B01C094D094E094F09446014C
:10457000570188229922AA22BB228C149D04AE04E2
:10458000BF0409F0B1C080279127A227B327842355
:104590009523A623B723892B8A2B8B2B09F0A4C044
:1045A00080913008813109F09FC020913F08C0916F
:1045B000400880913D0890E0982F882730913E0870
:1045C000832B8035934C09F08FC0D0E0D22B2897F5
:1045D000C138D10510F0C0E8D0E0AE0163E478E066
:1045E0008FEA93E00E94E828D093AE03C093AD0316
:1045F0008DE0DF91CF911F910F91FF90EF90DF90B1
:10460000CF90BF90AF909F908F900C94D6028091E6
:104610002D0890E0982F882720912E08822B81303A
:10462000910519F0029751F15FC040912402509119
:104630002502609126027091270280913F08909197
:104640004008A0914108B0914208481759076A07ED
:104650007B0709F049C045E358E06FE278E082E06B
:10466000DF91CF911F910F91FF90EF90DF90CF904E
:10467000BF90AF909F908F900C94AF0380911003E8
:10468000813091F5809112032AE0829FC0011124AC
:10469000FC01E85EFC4E409135085091360860916F
:1046A0003708709138084083518362837383DC013B
:1046B000A45EBC4E26E0EFE2F8E001900D922A9550
:1046C000E1F72091EF112D7F2093EF11109210034D
:1046D000845E9C4E0E9483088091120390E00196B4
:1046E0008370992780931203DF91CF911F910F91CF
:1046F000FF90EF90DF90CF90BF90AF909F908F9002
:104700000895EF92FF920F931F93CF93DF93CDB74E
:10471000DEB7C25BD1090FB6F894DEBF0FBECDBFC6
:104720008F3F39F44CE360E083E692E00E94210A77
:1047300038C0CE0186559F4F78E0F801DC0101902A
:104740000D927A95E1F7FC0110867E01F1E8EF0EFB
:10475000F11C78E2F801D70101900D927A95E1F70A
:10476000F70110A6FF92EF929F938F933F932F93A1
:104770005F934F931F926F938CE692E09F938F937A
:104780008E010F5F1F4F1F930F930E94762948E2FF
:1047900060E0C8010E94210A0FB6F894DEBF0FBE88
:1047A000CDBFCE54DF4F0FB6F894DEBF0FBECDBFE6
:1047B000DF91CF911F910F91FF90EF900895CF93CC
:1047C000DF93CDB7DEB76B970FB6F894DEBF0FBEA1
:1047D000CDBF0FB7F89447E250E06FEF70E088EA82
:1047E0009CE00E94F1288FEF8093B2128093151302
:1047F00088EE91E09093B4128093B312089A099ACC
:104800000A9A10981198129880E0877F8F7E8F7D8A
:104810008F7B8F7780937A0081E083BF0E94C202F2
:104820008F3F19F00E94BA0CF9CF87B18C6F87B90E
:1048300018E288EE93E00E94FD051150D1F760E088
:1048400088E20E94180788E290E00E94FD0560E07F
:1048500088E20E94180788E290E00E94FD0560E06F
:104860008CE00E94180788E290E00E94FD0560E05D
:1048700081E00E94180788EE93E00E94FD0588EE13
:1048800093E00E94FD0560E086E00E94180788E240
:1048900090E00E94FD0540E250E060E270E081EBB4
:1048A0009FE00E94F12881E08093130F8093140F02
:1048B0001092B612109227121092E6111FEF109369
:1048C000150F1093DB0C729A739A7498759A0E9464
:1048D000C002779A6A9A6B9A6C9A6D9A6E9A6F9ADE
:1048E00082B112B881B111B96FE380E00E94420930
:1048F0006FE381E00E94420960EC80E00E9442097F
:1049000060EC81E00E9442098091B6008072809341
:10491000B6008091B60081FDFCCF82E08093B000AC
:104920008091B60080FDFCCF85E08093B1008CE7DC
:104930008093B3008091700082608093700040E3A8
:1049400055E760E070E081E00E943A038091280220
:104950009091290290932602809327020E94C2021E
:104960008F3F19F00E94BA0CF9CF0FBF78948FB720
:10497000F894109214088FBF10923F0410924004D4
:1049800010923504109234041092330462E075E002
:10499000CE0142960E94AA28198E1092B612109249
:1049A0002712CE0142960E945C040E949F040E943E
:1049B000680A9FB7F894809107018F778093070169
:1049C0009FBF9FB7F894809107018F7B8093070169
:1049D0009FBF80916D00806880936D008FB7F894C1
:1049E0009BE09093DC0C1092CF0C1092B5128FBF0D
:1049F000809168008460809368009FB7F8948091EC
:104A0000A9129FBF811135C09FB7F89481E08093B0
:104A1000A9121092AA121092AB121092AC1210921C
:104A2000AD121092B11280E2E4E4FAE0DF01282F27
:104A30001D922A95E9F7E6E4F2E1DF011D928A95DD
:104A4000E9F79FBF529A5A98519A599853985B9890
:104A500080916900806880936900809169008F7BF4
:104A60008093690041E050E060E070E082E00E94E5
:104A7000800B8FB7F89451E0509331048FBF80ECD6
:104A80008093240298EA909325022AE2209326023A
:104A900042E0409327023FEF30931C0230931D0207
:104AA00030931E0210921F028093200290932102E5
:104AB00020932202509323021F924F931F922F9311
:104AC0001F929F931F928F9381EE92E09F938F93FB
:104AD0008E010F5F1F4F1F930F930E9476294CE3A7
:104AE00060E0C8010E94210A109230040FB6F894C9
:104AF000DEBF0FBECDBF80910903811136C0209A61
:104B00000E94BA02249A2C981B8E1A8E8A8D9B8D35
:104B100080329E4430F48A8D9B8D01969B8F8A8FC4
:104B2000F5CF2C9A1B8E1A8E8A8D9B8D80329E44D7
:104B300030F48A8D9B8D01969B8F8A8FF5CF52988A
:104B40005A9A84E08CBB80916900806280936900EE
:104B5000809169008F7E80936900EA9A0E942607FF
:104B6000811103C081E0809309038FB7F8941092FC
:104B700031048FBF4AE060E086EF92E00E94210A94
:104B80000E9484041FB7F8940E94C2028F3F09F06C
:104B900058C080917000837089F08091B6008A714E
:104BA000E1F78091B3009091B200891B883040F00A
:104BB0008091B200893F20F483E003C085E001C00A
:104BC00082E0E0916E00E67029F590916F009E7290
:104BD00021F5E0917100EE72E9F4909172009E72FD
:104BE000E1F4E0917300EE72A9F40CB407FC15C077
:104BF0009091C100987189F4E091C900E87151F475
:104C00009091BC0092FD09C090917A0097FD04C07C
:104C1000E5E003C0E0E001C0E1E093B78E1708F4DF
:104C2000E82FF0E0EE5CFE4F8491E92FE07FE16039
:104C3000E82BE3BF78948895F89483B78E7F83BF81
:104C4000A3CF1FBF0E94BA0C9DCFAA1BBB1B51E173
:104C500007C0AA1FBB1FA617B70710F0A61BB70BEC
:104C6000881F991F5A95A9F780959095BC01CD0191
:104C70000895EE0FFF1F0590F491E02D09942F92F7
:104C80003F924F925F926F927F928F929F92AF92DC
:104C9000BF92CF92DF92EF92FF920F931F93CF9329
:104CA000DF935C016B017A016115710519F0FB015D
:104CB00091838083E114F10429F0C701029783975F
:104CC00008F0F1C0E5012196F5011081812F90E0F7
:104CD0000E94A228892B11F05E01F4CF1D3229F425
:104CE0002196F501118101E007C01B3221F4E50195
:104CF0002296F501118100E0E114F10459F1F0E18F
:104D0000EF16F10461F41033E1F488818F7D88356A
:104D100069F519812296026070E1E72EF12C88E096
:104D2000E816F10439F12CF4F2E0EF16F104C9F1C0
:104D30002AC08AE0E816F10479F0E0E1EE16F10409
:104D400011F550E1E52EF12C812C912CA12C68E07D
:104D5000B62E2CC01033C9F23AE0E32EF12C4CEC05
:104D6000842E982CA82C4CE0B42E20C010E3E11423
:104D7000F104A9F698E0E92EF12C812C912CA12CBC
:104D800020E1B22E13C060E070E080E090E897016F
:104D9000442737FD4095542F0E94602C49015A0149
:104DA00005C0812C912CA12C80E4B82E60E020E07D
:104DB00030E0A9012701662457FC6094762C1E017F
:104DC000E0EDE10FEA3060F08FEB810F8A3110F4F3
:104DD000E9EC05C08FE9810F8A3128F5E9EAE10F96
:104DE0008E2F90E08E159F05F4F467FD18C0821693
:104DF0009306A406B50690F0C301B2010E94502CA0
:104E00009B01AC012E0F311D411D511D213031057B
:104E10004105F0E85F0710F461E001C06FEF2196F3
:104E2000F1011081CCCF802F8170C114D10471F0B9
:104E3000662329F02197F601D183C08307C001FFC3
:104E400019C02297F601D183C08314C067FF12C036
:104E5000811105C02FEF3FEF4FEF5FE704C020E067
:104E600030E040E050E882E290E09093421380937B
:104E7000411316C0882341F05095409530952195F7
:104E80003F4F4F4F5F4F0CC057FF0AC082E290E088
:104E900090934213809341132FEF3FEF4FEF5FE763
:104EA000B901CA0104C060E070E080E090E0DF91E9
:104EB000CF911F910F91FF90EF90DF90CF90BF9017
:104EC000AF909F908F907F906F905F904F903F90AA
:104ED0002F9008952F923F924F925F926F927F9200
:104EE0008F929F92AF92BF92CF92DF92EF92FF92FA
:104EF0000F931F93CF93DF9300D000D000D0CDB796
:104F0000DEB75C016B017A016115710519F0DB01F7
:104F10008D939C93E114F10429F0C70102978397C4
:104F200008F0DCC03501BFEF6B1A7B0AF501108178
:104F3000812F90E00E94A228892B11F05301F2CF1B
:104F40001D3249F43501F2E06F0E711CD501119646
:104F50001C9101E009C01B3231F43501B2E06B0E47
:104F6000711CF501118100E0E114F10409F4C4C0E1
:104F7000F0E1EF16F10489F4103399F5D3018C9127
:104F80008F7D883509F0B2C011961C91B2E06B0E8E
:104F9000711C026050E1E52EF12CEAE0EE16F104FE
:104FA00009F4B0C0F0E1EF16F104D9F028E0E21600
:104FB000F10451F438E0E32EF12C88248A94982CE3
:104FC000A82C4FE1B42E13C06FEF7FEFCB019701F8
:104FD000442737FD4095542F0E94602C49015A0107
:104FE00006C088248A94982CA82C2FE0B22E7E82AA
:104FF0006D8260E020E030E0A9012701662457FCC3
:105000006094762C2D803E80E0EDE10FEA3060F078
:105010008FEB810F8A3110F4E9EC05C08FE9810F25
:105020008A3190F5E9EAE10F8E2F90E08E159F0509
:105030005CF56F3F09F182169306A406B506D8F019
:10504000C301B2010E94502C2E2F30E040E050E00E
:1050500029833A834B835C83260F371F481F591FD0
:1050600089819A81AB81BC81281739074A075B0780
:1050700010F061E001C06FEFED81FE813196FE839B
:10508000ED83D1011C91BECFC114D10489F06623F8
:1050900039F08D819E810197F6019183808308C04C
:1050A00001FF06C08D819E810297D6018D939C934E
:1050B00000FF07C050954095309521953F4F4F4FC9
:1050C0005F4F67FF10C082E290E09093421380939D
:1050D00041136FEF7FEF8FEF9FEF1BC060E070E039
:1050E00080E090E016C0B901CA0113C010E3E114DA
:1050F000F10409F45FCF51CF103309F43FCF9AE0A8
:10510000E92EF12C89E9882E982CA82C89E1B82E5B
:105110006ECF26960FB6F894DEBF0FBECDBFDF91DF
:10512000CF911F910F91FF90EF90DF90CF90BF90A4
:10513000AF909F908F907F906F905F904F903F9037
:105140002F9008959111FDC2803219F08950855039
:10515000D0F70895FB01DC0105900D920020E1F7E6
:105160000895FB01DC014150504030F08D910590D5
:10517000801919F40020B9F7881B990B0895FB01D9
:10518000DC014150504048F005900D920020C9F7D5
:1051900001C01D9241505040E0F70895FB01559128
:1051A0005523A9F0BF01DC014D9145174111E1F7ED
:1051B00059F4CD010590002049F04D914015411161
:1051C000C9F3FB014111EFCF81E090E00197089511
:1051D000FB01DC0102C001900D9241505040D8F714
:1051E0000895DC0101C06D9341505040E0F70895EF
:1051F000FC018191861721F08823D9F7992708951A
:105200003197CF010895FB01DC014150504048F037
:1052100001900D920020C9F701C01D9241505040ED
:10522000E0F70895FA01A191B081009719F4109761
:10523000E1F0CD01DC01CD010D90002011F4C001A1
:1052400013C0FB012191222319F02015D9F7F3CFC8
:10525000FB012191201519F41E92119606C02223FC
:10526000C1F70D900020A1F7D001FA01A193B083FE
:1052700008950F931F93CF93DF93CDB7DEB72E978B
:105280000FB6F894DEBF0FBECDBF0D891E898F8982
:10529000988D26E02C831A83098397FF02C080E053
:1052A00090E801979E838D83AE01455E5F4F698DC7
:1052B0007A8DCE0101960E94A6294D815E8157FD0F
:1052C0000AC02F813885421753070CF49A01F80160
:1052D000E20FF31F10822E960FB6F894DEBF0FBEBA
:1052E000CDBFDF91CF911F910F9108950F931F9321
:1052F000CF93DF93CDB7DEB72E970FB6F894DEBF0E
:105300000FBECDBF0D891E8986E08C831A83098369
:105310008FEF9FE79E838D83AE01475E5F4F6F895E
:10532000788DCE0101960E94A6292F813885F8013B
:10533000E20FF31F10822E960FB6F894DEBF0FBE59
:10534000CDBFDF91CF911F910F9108952F923F9282
:105350004F925F926F927F928F929F92AF92BF9285
:10536000CF92DF92EF92FF920F931F93CF93DF9331
:10537000CDB7DEB72C970FB6F894DEBF0FBECDBF0A
:105380007C016B018A01FC0117821682838181FFF7
:10539000BDC1CE0101964C01F7019381F60193FD49
:1053A000859193FF81916F01882309F4ABC1853208
:1053B00039F493FD859193FF81916F01853229F432
:1053C000B70190E00E94BA2BE7CF512C312C20E09E
:1053D0002032A0F48B3269F030F4803259F08332FD
:1053E00069F420612CC08D3239F0803339F42160AA
:1053F00026C02260246023C0286021C027FD27C06A
:1054000030ED380F3A3078F426FF06C0FAE05F9EA0
:10541000300D1124532E13C08AE0389E300D112414
:10542000332E20620CC08E3221F426FD6BC1206425
:1054300006C08C3611F4206802C0883641F4F601AB
:1054400093FD859193FF81916F018111C1CF982FB9
:105450009F7D9554933028F40C5F1F4FFFE3F98331
:105460000DC0833631F0833771F0833509F05BC0AE
:1054700022C0F801808189830E5F1F4F442443942A
:10548000512C540115C03801F2E06F0E711CF80167
:10549000A080B18026FF03C0652D70E002C06FEFD1
:1054A0007FEFC5012C870E94AF2B2C0183012C8537
:1054B0002F77222E17C03801F2E06F0E711CF80111
:1054C000A080B18026FF03C0652D70E002C06FEFA1
:1054D0007FEFC5012C870E94A42B2C012C8520680E
:1054E000222E830123FC1BC0832D90E04816590611
:1054F000B0F4B70180E290E00E94BA2B3A94F4CF66
:10550000F50127FC859127FE81915F01B70190E0AD
:105510000E94BA2B31103A94F1E04F1A510841140D
:10552000510471F7E5C0843611F0893639F5F80178
:1055300027FF07C060817181828193810C5F1F4FBB
:1055400008C060817181882777FD8095982F0E5F54
:105550001F4F2F76722E97FF09C0909580957095FA
:1055600061957F4F8F4F9F4F2068722E2AE030E069
:10557000A4010E94F22BA82EA81844C0853729F454
:105580002F7EB22E2AE030E025C0F22FF97FBF2E09
:105590008F36C1F018F4883579F0B4C0803719F02F
:1055A000883721F0AFC02F2F2061B22EB4FE0DC07E
:1055B0008B2D8460B82E09C024FF0AC09F2F9660EF
:1055C000B92E06C028E030E005C020E130E002C07E
:1055D00020E132E0F801B7FE07C06081718182816D
:1055E00093810C5F1F4F06C06081718180E090E065
:1055F0000E5F1F4FA4010E94F22BA82EA818FB2DAE
:10560000FF777F2E76FE0BC0372D3E7FA51450F41A
:1056100074FE0AC072FC08C0372D3E7E05C0BA2C4D
:10562000372D03C0BA2C01C0B52C34FF0DC0FE01CC
:10563000EA0DF11D8081803311F4397E09C032FFFB
:1056400006C0B394B39404C0832F867809F0B39452
:1056500033FD13C030FF06C05A2CB31418F4530C9A
:105660005B18B32CB31468F4B70180E290E03C8778
:105670000E94BA2BB3943C85F5CFB31410F43B18B9
:1056800001C0312C34FF12C0B70180E390E03C87A9
:105690000E94BA2B3C8532FF17C031FD03C088E75A
:1056A00090E002C088E590E0B7010CC0832F8678B7
:1056B00059F031FF02C08BE201C080E237FD8DE27C
:1056C000B70190E00E94BA2BA51438F4B70180E32B
:1056D00090E00E94BA2B5A94F7CFAA94F401EA0DF5
:1056E000F11D8081B70190E00E94BA2BA110F5CF87
:1056F000332009F451CEB70180E290E00E94BA2B2A
:105700003A94F6CFF7018681978102C08FEF9FEF21
:105710002C960FB6F894DEBF0FBECDBFDF91CF91B0
:105720001F910F91FF90EF90DF90CF90BF90AF90BF
:105730009F908F907F906F905F904F903F902F90B1
:105740000895992788270895FC01059061507040BD
:105750000110D8F7809590958E0F9F1F0895FC013A
:105760006150704001900110D8F7809590958E0F90
:105770009F1F08950F931F93CF93DF93FB01238106
:1057800021FD03C08FEF9FEF28C022FF16C0468186
:105790005781248135814217530744F4A081B18198
:1057A0009D012F5F3F4F318320838C93268137816A
:1057B0002F5F3F4F3783268310C0EB01092F182F2F
:1057C0000084F185E02D0995892BE1F68E819F817A
:1057D00001969F838E83812F902FDF91CF911F9110
:1057E0000F910895FA01AA27283051F1203181F153
:1057F000E8946F936E7F6E5F7F4F8F4F9F4FAF4FD9
:10580000B1E03ED0B4E03CD0670F781F891F9A1FEB
:10581000A11D680F791F8A1F911DA11D6A0F711D9F
:10582000811D911DA11D20D009F468943F912AE0AB
:10583000269F11243019305D3193DEF6CF01089593
:10584000462F4770405D4193B3E00FD0C9F7F6CFC4
:10585000462F4F70405D4A3318F0495D31FD40528C
:10586000419302D0A9F7EACFB4E0A6959795879522
:1058700077956795BA95C9F7009761057105089501
:105880009B01AC010A2E06945795479537952795AD
:10589000BA95C9F7620F731F841F951FA01D089545
:1058A000DB018F939F930E94822CBF91AF91A29FA7
:1058B000800D911DA39F900DB29F900D112408950E
:1058C000A1E21A2EAA1BBB1BFD010DC0AA1FBB1F04
:1058D000EE1FFF1FA217B307E407F50720F0A21B76
:1058E000B30BE40BF50B661F771F881F991F1A94E3
:1058F00069F760957095809590959B01AC01BD010D
:10590000CF0108950E948D2CA59F900DB49F900DFE
:10591000A49F800D911D11240895A29FB001B39FF3
:10592000C001A39F700D811D1124911DB29F700DA8
:0C593000811D1124911D0895F894FFCFF3
:10593C00FFFFFFFFFFFFFFFFFFFFFFFF01FF01FF67
:10594C00FFFFFFFF0006010203040506FFFF000036
:10595C000A3C00010A3C000A0100010E043930C463
:10596C0002CD02207F05070608480225730D25731A
:10597C003D25642C25733D25732C25733D25642C06
:10598C0025733D25642C25733D25642C25733D25FD
:10599C00730A006C69737420656E6400713D256434
:1059AC002C663D25642C703D25642C6E3D25732C96
:1059BC006E3D25730A0073630025642E2564002553
:1059CC00730D0A00526164696F20696E69746961B4
:1059DC006C697A65642E003D002C00252D3873000F
:1059EC0025730D25733D25640A00253032643A2554
:1059FC003032640020204F453120202000796F2068
:105A0C007365727661732068616265206465726586
:105A1C00003E253033642E253033642E253033641C
:0E5A2C002E2530336400696E697420666D00AB
:00000001FF
