:100000000C94D5020C9455250C945F250C9469250D
:100010000C9492250C94D8250C94E2250C94EC2594
:100020000C94F6250C94F4020C94F4020C948226A1
:100030000C94F4020C9465240C94F4020C94A42403
:100040000C94F4020C94F4020C94F4020C94F40258
:100050000C94F4020C94F4020C94F4020C94F40248
:100060000C94AE240C94F4020C94F4020C94F4025C
:100070000C94F4020C942D270C94F4020C94F402CA
:100080000C94F4020C94F4020C94F4020C94F40218
:100090000C94F4020C94F4020C94F4020C940026D8
:1000A0000C94F4020C94F4020C94F4020C94F402F8
:1000B0000C94F4020C94F4020C94F4020C94F402E8
:1000C0000C94F4020C94F4020C94F4020C94F402D8
:1000D0000C94F4020C94F4020C94F4020C94F402C8
:1000E0000C94F4023D12991225133614B814E51439
:1000F000F114FD14091530150E162D1673160D1872
:100100004418341AB51ADB1ADF1AE31A101B3C1B09
:10011000621B691B7E1B241E301E331EF21EDE1F57
:10012000CE20E120212152219821B521DC21EA2194
:100130000522612249164C164F16521655165816AE
:100140005B165E16611600020E060C040D090E7891
:10015000155116211A591B531C411D571E222143AC
:100160002258234424452578262329202A562B4625
:100170002C542D522E25314E324233483447355AB5
:100180003626394C3A4D3B4A3C553D2F3E28413BA3
:10019000424B4349444F453D4629493A4A5F4B4CFF
:1001A0004C784D504E3F5278547855605A0A5B5EF9
:1001B0005D2A613E660869316B346C377030712C92
:1001C0007232733574367538792B7A337B2D7C2AED
:1001D0007D3900000D090E7C157116311A791B73DB
:1001E0001C611D771E322163227823642465253427
:1001F000263329202A762B662C742D722E35316EEB
:10020000326233683467357A3636392C3A6D3B6A58
:100210003C753D373E38412C426B4369446F453055
:100220004639492E4A2D4B6C4C6F4D704E2B526FF8
:10023000546F555C5A0A5B785D27613C66086931EA
:100240006B346C377030712C72327335743675388C
:10025000792B7A337B2D7C2A7D3900000000000049
:100260000000005F00000007000700147F147F14E7
:10027000242A7F2A1223130864623649552250002B
:1002800005030000001C2241000041221C00082A36
:100290001C2A0808083E080800503000000808081A
:1002A0000808006060000020100804023E51494523
:1002B0003E00427F400042615149462141454B3159
:1002C0001814127F1027454545393C4A49493001E9
:1002D000710905033649494936064949291E003640
:1002E0003600000056360000000814224114141491
:1002F00014144122140800020151090632497941BF
:100300003E7E1111117E7F494949363E41414122CD
:100310007F4141221C7F494949417F090901013E32
:10032000414151327F0808087F00417F4100204051
:10033000413F017F081422417F404040407F02043A
:10034000027F7F0408107F3E4141413E7F09090939
:10035000063E4151215E7F091929464649494931E6
:1003600001017F01013F4040403F1F2040201F7F8F
:100370002018207F63140814630304780403615178
:1003800049454300007F4141020408102041417F5C
:100390000000040201020440404040400001020409
:1003A0000020545454787F4844443838444444200E
:1003B000384444487F3854545418087E09010208D0
:1003C0001454543C7F0804047800447D40002040CD
:1003D000443D00007F10284400417F40007C041809
:1003E00004787C0804047838444444387C14141499
:1003F00008081414187C7C08040408485454542039
:10040000043F4440203C4040207C1C2040201C3CB9
:100410004030403C44281028440C5050503C446428
:10042000544C44000836410000007F000000413673
:10043000080008082A1C08081C2A08086E6F746542
:10044000006E616D6500716469616C007069636F55
:1004500064650066726571006964004368616E6E70
:10046000656C2044422046756C6C00676574006DB5
:100470007367007075726765616C6C006C6973748A
:100480000075706461746500616464006F6B0041A5
:100490006C7265616479206661766F7572697465E6
:1004A00021004368616E6E656C206E6F7420696E0A
:1004B000206C69737421004661766F75726974658A
:1004C000206E6F7420736574210042616E64206C2D
:1004D000696D6974207265616368656421004442D6
:1004E000206572726F72210044422066756C6C2127
:1004F000004661766F7572697465732066756C6C01
:1005000021004368616E6E656C206C6973742066AF
:10051000756C6C2100496E76616C6964206368615A
:100520006E6E656C2100464D436C69636B20696E8D
:100530006974206661696C65642100556E6B6E6F2D
:10054000776E206572726F7221004572726F723A17
:10055000004E6F20524453206461746121002020BA
:10056000202020202020202020202020202020208B
:1005700020202000202020202000202020202020BB
:10058000202000566F6C756D653A004D487A004525
:100590006E746572204E6F74653A00456E746572B4
:1005A000204368616E6E656C3A0011241FBECFEF68
:1005B000D1E2DEBFCDBF12E0A0E0B2E0E6E6F1E6B8
:1005C00000E00BBF02C007900D92A43AB107D9F723
:1005D00013E1A4EAB2E001C01D92A631B107E1F730
:1005E0000E94C0270C94B1300C9400008091FE1141
:1005F0008093BC00089576980895289A08952898C5
:100600000895769A0895809188128F3F69F0E82FB7
:10061000F0E0E258F34F9081909388129F3F11F4DD
:100620009093E8129FEF90830895EB9808959FB7F9
:10063000F894E82FF0E0E258F34F20812F3F99F42F
:10064000E091E812E81779F0209188122F3F19F411
:100650008093881204C0F0E0E258F34F80838093C7
:10066000E81280E001C085E09FBF08958BE00C9404
:10067000170388E00C9417038DE00C94170380E2B5
:100680000C9417038CE10C9417038BE10C94170363
:1006900082E00C94170389E00C9417038EE10C940C
:1006A0001703ECE7F0E0208180917B00308190819E
:1006B0008870880F880F2F71822B35FB222720F935
:1006C00020FB86F99295969596959370292F2795FC
:1006D00022272795822B969508958FB7F8949091AD
:1006E000BC009093FE118FBF08952FB7F8946091CE
:1006F000E00E7091E10E8091E20E9091E30E2FBF1B
:100700000895CF92DF92EF92FF92CF93C82F6A01A4
:100710007B010E94750329E0C29FF0011124DF01D3
:10072000A154BE4E6D937D938D939C931397149615
:10073000CD92DD92ED92FC921797E953FE4E8081A7
:1007400081608260808382E1CF91FF90EF90DF90A3
:10075000CF900C9417038EBD0DB407FEFDCF8EB560
:1007600008950C94AB03CF93DF9300D0CDB7DEB7E1
:100770006A8389830E94FF0289810E94B1036A8192
:10078000862F0E94B1030F900F90DF91CF910C94B0
:10079000FD02CF93DF931F92CDB7DEB789830E940E
:1007A000FF0289810E94B10380E00E94AB0389832C
:1007B0000E94FD0289810F90DF91CF910895CF9320
:1007C000DF9300D0CDB7DEB76A8389830E94FF0232
:1007D000898180680E94B1036A81862F0E94B103DB
:1007E0000F900F90DF91CF910C94FD028F929F920A
:1007F000AF92BF92CF92DF92EF92FF920F931F932F
:10080000CF93DF932FEF280F9DE1299F90011124B3
:100810008901025C1D4EF8019081911140C0E901EF
:10082000C15CDD4E2097D9F17A0151E059831882DD
:100830001B8298E09A8396E09C8344E04D838090ED
:10084000240290902502A0902602B090270287866D
:10085000908AA18AB28AD901A95BBD4EE6E1F2E095
:10086000492F01900D924A95E1F7D901AF5ABD4E3B
:10087000FB0101900D929A95E1F7F701C080D180BC
:10088000E280F380F801C18ED28EE38EF48E8F83E6
:100890001E82508383E10E94170380E001C085E03F
:1008A000DF91CF911F910F91FF90EF90DF90CF904C
:1008B000BF90AF909F908F9008952FB7F89480913C
:1008C000EC07882309F140910212509103126091C4
:1008D0000412709105128091A70C9091A80CA09120
:1008E000A90CB091AA0C840F951FA61FB71F4091A9
:1008F000E00E5091E10E6091E20E7091E30E481708
:1009000059076A077B0711F02FBF08951092EC0773
:100910002FBF81E10C941703BC014091E90329EE3C
:1009200033E090E0941761F0255C3F4FF901F997AF
:100930000190F081E02DE617F70721F09F5FF2CFDD
:100940008FEF0895892F08952FB7F8949091811211
:100950002FBF91110EC09FB7F89423E0209381120E
:10096000109285128093E80E9FBF0E94420380E0A0
:10097000089581E00895DC0181E04D91442311F157
:1009800020918C1230E09091FF11F90154E0EE0FAC
:10099000FF1F5A95E1F7E90FF11DE757F04F40832C
:1009A0009F5F9093FF11F901E551F14F80839031E2
:1009B00021F71092FF112F5F3F4F217033272093B3
:1009C0008C12DBCF08959091EA078093E90792306B
:1009D00031F0983031F0913039F48CE003C080E090
:1009E00001C081E00C94170308958FB7F894E9E8EB
:1009F000F7E010821182128213828FBF89E0EFE844
:100A0000F7E0DF011D928A95E9F781E4E8E9F7E074
:100A1000DF011D928A95E9F786E0E9EDF7E0DF0155
:100A20001D928A95E9F708953FB7F8949093E807E7
:100A30008093E7072091EA073FBF2430D9F02530A3
:100A4000C9F489339440E0F08091E903882391F060
:100A50000E94F5048FB7F8942091EB033091EC03DA
:100A60003093E6072093E50793E09093EA078FBF62
:100A70000C9439038FB7F89491E09093EA078FBFF5
:100A80000C9448030F931F93CF93DF9300D01F92D2
:100A9000CDB7DEB78091DE031F928F9389E892E095
:100AA0009F938F938E010F5F1F4F1F930F930E9491
:100AB0008B2D1B8210928C1288E08093FF11C8014D
:100AC0000E94BB0487E20E9417030F900F900F90C3
:100AD0000F900F900F900F900F900F90DF91CF918C
:100AE0001F910F9108952F923F924F925F926F92B4
:100AF0007F928F929F92AF92BF92CF92DF92EF92AE
:100B0000FF920F931F93CF93DF93CDB7DEB7AD97CF
:100B10000FB6F894DEBF0FBECDBF2FB7F8949091FB
:100B2000DB032FBF9111F3C08B018BA78FB7F89414
:100B300092E09093DB038FBF44E050E068E874E0FC
:100B4000CE0101961C010E94D42C9E012B5F3F4FC9
:100B500047E050E061E874E0C9012CA73DA70E947E
:100B6000D42C2E019CE0490E511C43E050E068E576
:100B700074E0C2010E94D42C5E01AFE0AA0EB11C49
:100B800045E050E063E574E0C5010E94D42C4E01BD
:100B9000BAE18B0E911C47E050E06CE474E0C401B4
:100BA0000E94D42C6E0184E1C80ED11C46E050E0B6
:100BB00066E474E0C6010E94D42C7E0191E2E90E45
:100BC000F11C45E050E061E474E0C7010E94D42CC0
:100BD0003E01A6E26A0E711C45E050E06CE374E051
:100BE000C3010E94D42CE7EDF2E080E8DF011D9202
:100BF0008A95E9F72CA53DA5BBA5BF3FA1F5D80176
:100C000018968C9118978F9317968C9117978F93AE
:100C10007F926F9214968C9114978F9313968C9168
:100C200013978F939F928F9212968C9112978F9316
:100C300011968C9111978F93BF92AF928C911F92C6
:100C40008F93DF92CF9216968C9116978F9315966D
:100C50008C918F93FF92EF921F921F925F924F920F
:100C60003F922F9237C09BA59F3008F040C0D8011B
:100C700018968C9118978F9317968C9117978F933E
:100C80007F926F9214968C9114978F9313968C91F8
:100C900013978F939F928F9212968C9112978F93A6
:100CA00011968C9111978F93BF92AF928C911F9256
:100CB0008F93DF92CF9216968C9116978F931596FD
:100CC0008C918F93FF92EF921F929F935F924F921E
:100CD0003F932F9382E392E09F938F93FF93EF9341
:100CE0000E948B2D0FB6F894DEBF0FBECDBF1092C1
:100CF0005603E7EDF2E001900020E9F7CF01885DAF
:100D000092409093D6028093D5020E943C03AD9608
:100D10000FB6F894DEBF0FBECDBFDF91CF911F910C
:100D20000F91FF90EF90DF90CF90BF90AF909F908A
:100D30008F907F906F905F904F903F902F9008958D
:100D4000EF92FF920F931F93CF93DF93CDB7DEB750
:100D500029970FB6F894DEBF0FBECDBF9FB7F894AA
:100D60008091DB039FBF811133C08FB7F89495E06A
:100D70009093DB038FBF49E050E063E774E0CE015E
:100D800001967C010E94D42C07ED12E080E8F80166
:100D900011928A95E9F7FF92EF928CE592E09F938A
:100DA0008F931F930F930E948B2DF80101900020C9
:100DB000E9F78F01085D12401093D6020093D50227
:100DC0000E943C030F900F900F900F900F900F9088
:100DD00029960FB6F894DEBF0FBECDBFDF91CF913D
:100DE0001F910F91FF90EF900895EF92FF920F9354
:100DF0001F93CF93DF93CDB7DEB729970FB6F89443
:100E0000DEBF0FBECDBFE982FA820B831C832D8328
:100E10003E834F83588769872FB7F8949091EA07EC
:100E20002FBF911195C08F3F09F03EC08091E9031B
:100E3000882381F00E94F5048FB7F8942091EB038A
:100E40003091EC033093E6072093E50793E090930D
:100E5000EA071BC00E94F5040E94A0061092DF035F
:100E600049E050E06FEF70E080EE93E00E94062DC5
:100E70008FB7F8941092E90395E09093EA072BE678
:100E800033E03093E6072093E5078FBF29960FB62E
:100E9000F894DEBF0FBECDBFDF91CF911F910F91B0
:100EA000FF90EF900C9439038FB7F8942091E903E9
:100EB00091E0920F9093E90330E08FBF4BE3429FA4
:100EC000C001439F900D1124DC01A651BC4F29E0C5
:100ED000FE01319601900D922A95E1F79C012D506B
:100EE0003C4F8C0107511C4FD80117963C932E9311
:100EF000169784509C4F19969C938E9318978F81C8
:100F00008F938E818F9381E692E09F938F931F92B0
:100F100088E08F933F932F930E944E2D68857985AB
:100F200048E250E0F801808591850E94182DD80193
:100F30001196EC910FB6F894DEBF0FBECDBFEE2335
:100F400039F0F0E0E152FC4F8091E9038150808359
:100F500029960FB6F894DEBF0FBECDBFDF91CF91BB
:100F60001F910F91FF90EF900895019701960197BF
:100F70000196019701960197C1F708951092B0026A
:100F8000E091B1028BE0E89FF0011124EA5FFD4E91
:100F9000108285E10C9417030F931F93CF93DF9377
:100FA0000091570310915803F801E85AFC4F208133
:100FB0002A30D1F4EC0110826DE070E089E593E015
:100FC0000E940D2D99838883009741F0FC011082C7
:100FD0008881998101969983888304C0075A1C4FA0
:100FE0001983088381E001C080E0DF91CF911F91D8
:100FF0000F91089581E08093B60244EE52E166E0DD
:1010000072E00E94F60344E650E060E070E080E0A9
:101010000C9481031F93CF93DF938FB7F894C09103
:10102000A802C1113DC011E01093A80210927812DD
:101030008FBFDFB7F8948091A702811117C0509835
:1010400051981092B90081E48093B8001092BA00D0
:101050001092BC000E946D038091FE118E7F84600F
:101060008093FE110E94F6021093A702DFBFDFB744
:10107000F89480910E02813089F48091A802813029
:1010800021F483E20E94170309C0823039F4809171
:10109000781280930E0283E08093A802DFBF1DC008
:1010A000C0917812CC23C1F09091ED0E9F3F99F43E
:1010B000E0910F02EE2379F0909110029F3F19F416
:1010C0001092100204C0F0E0E351F14F1082109230
:1010D0000F02C0E001C0C5E08FBF8C2FDF91CF9120
:1010E0001F910895CF93DF939FB7F894C091A40206
:1010F000C11127C081E08093A4021092E50E9FBF2A
:101100009FB7F89480917A00806880937A009FBF9F
:10111000DFB7F89480910C02813089F48091A402A9
:10112000813021F485E20E94170309C0823039F42E
:101130008091E50E80930C0283E08093A402DFBFD0
:101140000FC0C091E50ECC2351F08091BE1180FDFF
:1011500005C081608093BE11C0E001C0C5E09FBFA3
:101160008C2FDF91CF910895882369F12FB7F894E0
:101170008091220A9091230A90699093230A809388
:10118000220A10928D1284E0809379122FBF48E0DA
:1011900050E060E270E08EE892E10E94062D40E4AB
:1011A00050E060E270E088E992E10E94062D46E09E
:1011B00050E060E270E088ED92E10E94062D88E048
:1011C0008CBBEB9A11C00E9415032FB7F894809145
:1011D000220A9091230A9F769093230A8093220AF1
:1011E00084E0809379122FBF0C943F032FB7F894BB
:1011F0009091EA072FBF811113C0963049F09730C4
:1012000039F0953029F40E94F50487E00C94170317
:101210008FB7F89491E09093EA078FBF0C9448033E
:10122000813021F48FB7F89494E003C08FB7F8941D
:1012300095E09093DC038FBF0C9436031F93CF93FC
:10124000DF931F92CDB7DEB7182F806479830E9499
:10125000B30381E0810F7981672F80640F90DF9164
:10126000CF911F910C94B303660F660F68B9439A30
:1012700098B18295807F982B98B943980895CF9321
:10128000DF93C82FD62F82958F700E9434096D2F5F
:101290008C2FDF91CF910C943409CF93DF939FB7BC
:1012A000F8948091AB02882369F19FBFDFB7F8946F
:1012B000C091AB02C11109C081E08093AB021092D2
:1012C000110288E10E94170318C08091B20C8F3F71
:1012D00099F4E0911202EE2379F0809113028F3F8E
:1012E00019F41092130204C0F0E0EE54F34F108290
:1012F00010921202C0E001C0C5E0DFBF8C2FDF9169
:10130000CF9108958CB58F7B8CBD229A2398219A1A
:10131000209A8CB580618CBD8CB58F778CBD8DB5D6
:101320008E7F8DBD8CB5877F8CBD8CB58B7F8CBD42
:101330008CB58C7F8CBD8CB580648CBDB6CF0F9383
:101340001F93CF93DF938091DE12882309F43FC06F
:1013500010E0C0E0DFE10FB7F8948091E1128E7FDA
:101360008093E1120E945103282F2F73881F882732
:10137000881F9170990F892B181302C091E0D21326
:1013800090E08091E11290FB81F99D2F9F73990F5E
:10139000990F8370892B8093E1121111D064D0933F
:1013A0007C0080917B00877F80937B009091E1128D
:1013B0008C2F8860806190FB85F9806480688093C1
:1013C0007A000FBFDF91CF911F910F910895C7E071
:1013D00011E0D0E0C0CFCF93DF93CFB7F8940E9455
:1013E0006D038091FE118E7F80698093FE110E94B3
:1013F000F602CFBFDFB7F8948091A8028330C1F521
:10140000C0910E02C11134C0809110028F3FC1F013
:10141000E82FF0E0E351F14F9081909310029F3F4D
:1014200011F490930F029FEF908380937812909322
:101430000E0281E08093A80283E20E94170316C087
:1014400081E080930E021092A8028091A702813061
:1014500069F40E946D038091FE118A768093FE11DB
:101460000E94F602589859981092A702DFBF02C056
:10147000DFBFC1E08C2FDF91CF9108951092A902B8
:101480009091AA022DE0929FF0011124E755F04FB0
:101490001082911103C081110E943C0389E10C94D8
:1014A00017031092B2029091B30228E0929FF001CC
:1014B0001124E053F14F1082992329F0913029F43F
:1014C0000E943E0A02C00E94BE0784E10C941703EA
:1014D000811110C0662371F08091B602813051F401
:1014E0001092B6028091C7118D7F8093C71181E061
:1014F0000C94510A0895882319F0813021F0089541
:10150000862F0C94510A1092B4028091B5029DE18D
:10151000899FF0011124E25CFD4E10820E94680A4E
:1015200083E10C941703CF93DF931F92CDB7DEB7FF
:1015300089830E94FF028FEB0E94B10383E00E9427
:10154000B1030E94FD0269818FE10F90DF91CF917D
:101550000C94DF034F925F926F927F928F929F92D3
:10156000AF92BF92CF92DF92FF920F931F93CF93D0
:10157000DF93AFEBB1E1C12CD12C49E04C9DF001E0
:101580004D9DF00D1124EF01C154DE4EF884F1FEA3
:101590008FC00D911D912D913C91139714968D90B4
:1015A0009D90AD90BC9017972B013C01401A510AB9
:1015B000620A730A481459046A047B0408F478C068
:1015C000F0FE06C0E953FE4E20812D7F20830AC025
:1015D000B901A801480D591D6A1D7B1D4883598317
:1015E0006A837B8323E0C21609F44FC02C1538F0C0
:1015F00081E0C81681F022E0C216F1F12DC085E02D
:10160000C81609F449C0C81608F443C026E0C2163B
:1016100009F44BC021C01092EB121092EC12109200
:10162000ED121092EE121092F5121092F612109224
:10163000F7121092F8121092FF12109200131092EB
:101640000113109202131092091310920A131092B0
:101650000B1310920C1335C01092B6028091B70292
:101660008F5F8093B702833018F40E94FA0729C075
:1016700081E00E94510A25C09FB7F89480918112A1
:101680009FBF8130F1F48AE101C087E20E94170315
:1016900018C00E94720815C08FB7F89491E090931B
:1016A000EA078FBF0E9448030CC00E944B0309C089
:1016B0002FEFC21AD20A199627E0C216D10409F0F8
:1016C0005DCF82E1DF91CF911F910F91FF90DF906D
:1016D000CF90BF90AF909F908F907F906F905F90D2
:1016E0004F900C941703CF92DF92EF92FF9280916C
:1016F000AD0C811141C040917B1250917C126091E0
:101700007D1270917E122FB7F894C0900212D09083
:101710000312E0900412F09005128091A70C9091B2
:10172000A80CA091A90CB091AA0C8C0D9D1DAE1D0A
:10173000BF1D2FBF40937B1250937C1260937D128C
:1017400070937E121092AD0C2FB7F89431E0309365
:10175000EC078093A70C9093A80CA093A90CB093CE
:10176000AA0C4093021250930312609304127093D8
:1017700005122FBF0E945D040E947503FF90EF9039
:10178000DF90CF900C94AA0A4F925F926F927F9253
:101790008F929F92AF92BF92CF92DF92EF92FF9281
:1017A0000F931F93CF93DF930E9475032FB7F89485
:1017B0001092EC072FBFEFEBF1E120E030E010E0FA
:1017C00044244A94542C642C4FE7742E09E0029F61
:1017D000E001039FD00D1124C154DE4E488541FF26
:1017E0001AC0C080D180E280F3804B015C018C186C
:1017F0009D08AE08BF08C480D580E680F780C81871
:10180000D908EA08FB08C414D504E604F7041CF45C
:101810002601370111E02F5F3F4F39962730310500
:10182000B1F6112309F449C0141415041604170461
:1018300094F0DF91CF911F910F91FF90EF90DF9087
:10184000CF90BF90AF909F908F907F906F905F9060
:101850004F900C94AA0A40927B1250927C12609294
:101860007D1270927E1221E02093AD0C3FB7F89468
:101870002093EC076093A70C7093A80C8093A90C9D
:101880009093AA0C4092021250920312609204129A
:10189000709205123FBFDF91CF911F910F91FF9082
:1018A000EF90DF90CF90BF90AF909F908F907F9000
:1018B0006F905F904F900C945D04DF91CF911F91DA
:1018C0000F91FF90EF90DF90CF90BF90AF909F90DF
:1018D0008F907F906F905F904F900895FC010097DC
:1018E00019F481E00C94510A3091B60C9091B70C28
:1018F0008091640C811124C045E65CE041155105DE
:10190000F9F026E0DA0101900D922A95E1F740E026
:1019100058E050936C0C40936B0C44EB5CE050939C
:101920006E0C40936D0C892F90E0932B9093700C6C
:1019300080936F0C81E08093640C80E10C9417031A
:1019400008958F929F92AF92BF92CF92DF92EF92C3
:10195000FF92CF93DF93EC0185E48093B40C109257
:10196000B50C86E68093B90C8093B80C1092BB0C32
:101970001092BA0C8FEF8093BC0C8D819E8144969F
:101980008093B70C9093B60CE881F98180819181A6
:10199000A281B3818093C40C9093C50CA093C60C14
:1019A000B093C70C8091240290912502A091260249
:1019B000B09127028093C00C9093C10CA093C20CED
:1019C000B093C30C6B817C814D815E8188EC9CE07F
:1019D0000E94FD2C8A818093BD0C1092BF0C109246
:1019E000BE0CE4EBFCE080E090E0DC012191319161
:1019F000820F931FA11DB11D2CE0E83CF207B1F747
:101A0000AD0166277727411551056105710539F04C
:101A1000AA27BB27840F951FA61FB71FF1CF80955C
:101A20009095A095B0959093BF0C8093BE0C80913B
:101A30001C0290911D02A0911E02B0911F02C09045
:101A4000C40CD090C50CE090C60CF090C70C40912F
:101A5000C00C5091C10C6091C20C7091C30C4C250C
:101A60005D256E257F25482359236A237B23452B3B
:101A7000462B472B19F4E4ECFCE002C0E0E2F2E074
:101A8000C080D180E280F38080959095A095B0953C
:101A9000AC01BD014C215D216E217F214817590702
:101AA0006A077B0719F480E092E02DC05091B902DB
:101AB00044E06AE0252F30E0629FC001639F900DF3
:101AC0001124DC01A551BD4E8D909D90AD90BC9030
:101AD0008C149D04AE04BF0429F45093B9028151C3
:101AE0009D4E0BC0C901019683709927582F415014
:101AF00009F78093B90280E090E09093C30280934D
:101B0000C202009719F00E946E0C14C08091B602B8
:101B1000811112C080819181A281B3818093E412EE
:101B20009093E512A093E612B093E7121092B702D9
:101B30000E94FA0780E001C085E0DF91CF91FF901D
:101B4000EF90DF90CF90BF90AF909F908F900895CF
:101B5000EF92FF920F931F93CF93DF9300D000D0AB
:101B60001F92CDB7DEB79FB7F894809183129FBFC5
:101B700081110FC05A9A48EE53E060E070E082E0B5
:101B80000E9481038FB7F89491E0909383128FBFE6
:101B900018C1813021F48FB7F89492E04AC08230A6
:101BA000A1F42FB7F8948091280A9091290A90689F
:101BB0009093290A8093280A1092390A1092380AC1
:101BC0008FE08093791283E078C0833059F48FB727
:101BD000F89494E0909383128FBF4EEE52E060E051
:101BE00070E01EC0843081F48FB7F89421E030E4B7
:101BF00030931F0A20931E0A92E09093791295E089
:101C0000909383128FBF5CC0853071F48FB7F894C6
:101C100096E0909383128FBF46E950E060E070E059
:101C200082E00E948103CDC0863049F48FB7F894DA
:101C300097E0909383128FBF0E944E03C2C08730FB
:101C400009F041C02FB7F89480911C0A90911D0AA9
:101C50002FBF8335924171F08FB7F89410928112A3
:101C60008FBF8FB7F8941092DC038FBF8AE00E9479
:101C70001703A7C02FB7F8948091220A9091230AE6
:101C800083739772846098649093230A8093220AE6
:101C900080E199E19093250A8093240A8091260A95
:101CA0009091270A88279E7F8F649093270A8093BC
:101CB000260A86E08093791288E0809383122FBFF2
:101CC0000E943F037EC0883009F07BC08FB7F89434
:101CD000109281128FBF0E9472080E947503609358
:101CE000E3117093E4118093E5119093E61184E67B
:101CF00090E0A0E0B0E08093E7119093E811A0930A
:101D0000E911B093EA118091EB118E7F826080938C
:101D1000EB1182E10E9417039FB7F8948091DB03D7
:101D20009FBF811135C08FB7F89493E09093DB0388
:101D30008FBF1092D90345E050E06CE774E0CE010C
:101D400001967C010E94D42C07ED12E080E8F80196
:101D500011928A95E9F7FF92EF928CE592E09F93BA
:101D60008F931F930F930E948B2DF80101900020F9
:101D7000E9F78F01085D12401093D6020093D50257
:101D80000E943C030F900F900F900F900F900F90B8
:101D90001092E40E2FB7F8948091871290918112DF
:101DA00031E0309387122FBF91110BC0813049F081
:101DB0008FB7F89494E0909381128FBF81E00E94D6
:101DC000B4080F900F900F900F900F90DF91CF916C
:101DD0001F910F91FF90EF900895882329F0813093
:101DE00029F47298739A02C07398729A82B182B978
:101DF00081B111B87498759A0E94010382E090E055
:101E00000E94B50780B1079B0DC00E94FB0282E0D3
:101E100090E00E94B5070E94010382E090E00E94DA
:101E2000B507F1CF0E94FB02759881B18FEF81B9A0
:101E30000895CF93DF931F92CDB7DEB70E94ED0ECA
:101E400081B111B8749A759A0E94010382E090E002
:101E50000E94B50780B10E94FB0282E090E00E94E0
:101E6000B5070E94010382E090E00E94B50780B1AF
:101E700089830E94FB0289810F90DF91CF910895A1
:101E8000CF93C0918112813011F48FE11AC00E946A
:101E9000EB091092821282E20E941703C23059F0BD
:101EA00020F4C13089F48AE10CC0C33039F0C63067
:101EB00059F48DE106C0CF910C944503CF910C9459
:101EC0004203CF910C941703CF910895811110C054
:101ED0008091BB0090917A12E091AE0CF091AF0C22
:101EE000E90FF11D808380917A128F5F80937A12BF
:101EF00020917A128091EB07281788F430E090E067
:101F000001972817390749F48091131382FD05C002
:101F10008091FE118F7B8093FE110C94F6028091CC
:101F2000FE11282F2E7F9091131391FF0AC09D7FE1
:101F300090931313822F80618093FE118091B900DA
:101F400003C08E778093FE110E94F60281E0809399
:101F5000A70280910D02811102C00C94400F0895D8
:101F6000CF93C0918112813011F481E214C00E949C
:101F7000EB0910928212C33089F038F4C13051F06D
:101F8000C23079F4CF910C944503C63050F41092CE
:101F9000811207C08AE1CF910C941703CF910C9462
:101FA0004203CF91089580917A129091EB0789179F
:101FB00080F4E091AE0CF091AF0CE80FF11D808140
:101FC0008093BB0080917A128F5F80937A120C9479
:101FD000F6028091FE11282F2E7F9091131391FF0E
:101FE00006C09D7F90931313822F806101C08E776E
:101FF0008093FE110E94F60281E08093A7028091F7
:102000000D02811102C00C94B00F0895CF93DF939D
:102010001F92CDB7DEB789830E946D039091FE11A8
:102020009A7F9093FE110E94F6020E946D03909198
:10203000FE1194609093FE110E94F60291E090933D
:10204000A7022091A60290910D028981222339F0E6
:1020500091110CC00F90DF91CF910C94400F911112
:1020600005C00F90DF91CF910C94B00F0F90DF91CE
:10207000CF910895CF93DF931F92CDB7DEB76983D9
:102080000E94ED0E698162B981B18FEF81B9749AB6
:1020900075980E94010382E090E00E94B5070E94BB
:1020A000FB0280E00F90DF91CF910895CF93DF93F3
:1020B0001F92CDB7DEB769830E94ED0E74987598B4
:1020C0000E94010381B18FEF81B9698162B982E019
:1020D00090E00E94B5070E94FB0280E00F90DF9124
:1020E000CF910895CF93DF93982FC62FD82FD295F5
:1020F000D695D695D37081E0D8279F73692F6064F9
:102100008D2F0E9456106C2F6770686B8D2FDF919A
:10211000CF910C9456105F926F927F928F929F9204
:10212000AF92BF92CF92DF92EF92FF920F931F93E5
:10213000CF93DF9390EE980F903608F054C06B0168
:1021400090E0809725E0289F8001299F100D1124A1
:10215000045A1D4F912C89EF682E6D0C5524539411
:10216000AA24A394B12CF92CFC0CD62DF801749060
:10217000F6FACC27C0F9C5258D2E869486948694D0
:10218000FD2FF770EF2E682D8F2D70FE0DC00E9471
:1021900072108C2F0E94190FB50101C0660FEA94CE
:1021A000EAF7E82EE62A0DC00E9472108C2F0E94DA
:1021B000190F950101C0220FEA94EAF72095E82E45
:1021C000E222682D8F2D0E9472106E2D8C2F0E949E
:1021D0003A107694DF5FDD11CFCF0F5F1F4F9394DE
:1021E00085E09812C0CFDF91CF911F910F91FF90A2
:1021F000EF90DF90CF90BF90AF909F908F907F90A7
:102200006F905F900895EF92FF920F931F93CF937B
:10221000DF9300D0CDB7DEB77C01162F962F00E0FC
:10222000F701E00FF11D84918823B1F08A3011F09D
:102230008D3019F4485F912F0DC0893011F4965FED
:1022400009C09A5F692F742F49839A830E948B106B
:102250009A8149810F5FE4CF0F900F90DF91CF916A
:102260001F910F91FF90EF900895FF920F931F938E
:10227000CF93DF93F62E8C01D42FCF2DF8018191CF
:102280008F01882379F08A3011F08D3011F4D85FF6
:10229000F4CF893011F4C65FF1CFCA5FBE010E944E
:1022A0008B10ECCFDF91CF911F910F91FF9008958C
:1022B000DF92EF92FF920F931F93CF93DF93CDB7EF
:1022C000DEB727970FB6F894DEBF0FBECDBF282F1D
:1022D0008B018FB7F894D090EA078FBF8091BD0231
:1022E0009091BE02AC014F5F5F4F5093BE0240938E
:1022F000BD029F938F9389E692E09F938F93CE01C7
:1023000001967C01FF928F932F830E948B2D4CE3CB
:1023100064E1C7010E9435110F900F900F900F904C
:102320000F900F902F81213009F43EC0A8F0223089
:1023300009F04EC08FB7F89491E090938C078FBF4F
:1023400086E0E9EDF7E0DF01982F1D929A95E9F715
:10235000F801A9EDB7E038C089E0EFE8F7E0DF0168
:102360001D928A95E9F788E0F801AFE8B7E001909F
:102370000D928A95E1F72FB7F89481E08093890751
:1023800080938A07F801808590E0982F882731850F
:10239000832B90938E0780938D072FBFF5E0DF127C
:1023A00017C00E944B0314C08FB7F89420938B077B
:1023B0008FBF81E4E8E9F7E0DF011D928A95E9F734
:1023C00080E4F801A8E9B7E001900D928A95E1F761
:1023D00083E00E94170327960FB6F894DEBF0FBE66
:1023E000CDBFDF91CF911F910F91FF90EF90DF90C4
:1023F0000895CF93DF93C0E06C2F80E00E947210AD
:102400006C2F80E40E947210D0E060E080E00E94B7
:102410003A1060E081E00E943A10DF5FD038A9F7FF
:10242000CF5FC83049F780E0DF91CF9108952F92B8
:102430003F924F925F926F927F928F929F92AF9254
:10244000BF92CF92DF92EF92FF920F931F93CF93A1
:10245000DF93CDB7DEB7C055D1090FB6F894DEBF14
:102460000FBECDBF90E08832910510F00C94462449
:10247000FC01EE58FF4F0C944E2A8FB7F894109140
:10248000E9078FBF812F90E0C0970A9760F4E09131
:10249000DF07E43040F481E08E0F8093DF07F0E047
:1024A000E152F84F1183183059F4E091DF07EE2321
:1024B00039F0E150E093DF07F0E0E152F84F11828C
:1024C00044E160E084E795E00E94031144E160E0AC
:1024D00080EE97E00E9435111A3011F00C944624DA
:1024E0004AE050E060E070E080EE97E00E947F2BD1
:1024F0002FB7F89433E03093EA072FBF9B012B5698
:1025000033402E3C310550F08FB7F89491E0909312
:10251000DC038FBF0E9436030C9446242FB7F89437
:102520007093E6076093E5072FBF0E9439030C9470
:1025300046248FB7F8941091E9078FBF183061F4E3
:10254000E0915F07EE23D1F0E150E0935F07F0E008
:10255000E15AF84F118212C01A3081F01D3071F02B
:10256000112361F0E0915F07E83240F481E08E0FC3
:1025700080935F07F0E0E15AF84F118385E1E0E6D0
:10258000F7E0DE01119601900D928A95E1F71E8A1F
:1025900044E16AE78EE595E00E94031144E16AE7B1
:1025A000CE0101960E94351183E1E5E7F7E0DE01F7
:1025B000119601900D928A95E1F71C8A4EE16AE727
:1025C0008EE595E00E9403114EE16AE7CE01019687
:1025D0000E9435111A3011F00C9446242FB7F8944C
:1025E00086E08093EA078091E7079091E8072FBF84
:1025F0000E948C04F82E2FB7F89490E02FBFE09142
:102600005F07F0E0E15AF84F11822BE3289F800129
:10261000299F100D1124F801E751FC4F20853185C9
:1026200089E2D9011D928A95E9F748E250E060E617
:1026300077E0808591850E94182DB80166517C4F06
:102640008F2D0E9473050C9446248FB7F894D09078
:10265000EA07E090E707F090E8078FBFC7010E9404
:102660008C04182FC7016AE070E00E943A2A9F93F9
:102670008F937F936F9386E692E09F938F937E0173
:10268000BAE2EB0EF11CFF92EF920E948B2D0E949A
:10269000F91147E060E0C7010E94351147E064E2AC
:1026A0008BE895E00E9403110FB6F894DEBF0FBED1
:1026B000CDBF1F3008F070C0E12EF12C1F921F9388
:1026C0008CE692E09F938F938E010D5C1F4F1F93BA
:1026D0000F930E948B2D1EAA47E06CE3C8010E9455
:1026E00035118BE38E9DF0018F9DF00D1124E75184
:1026F000FC4F81810F900F900F900F900F900F90D3
:102700008823B1F01F928F9382E792E09F938F937B
:102710001F930F930E948B2D1DAA47E064E5C8010B
:102720000E9435110F900F900F900F900F900F9007
:102730008BE38E9D80018F9D100D1124F801E450D4
:10274000FC4F85E1DE01119601900D928A95E1F72B
:102750001E8A4FE26AE78EE595E00E9403114FE280
:102760006AE7CE0101960E943511F801EF5EFB4F3A
:1027700083E1DE01119601900D928A95E1F71C8AA2
:1027800047E36AE78EE595E00E94031147E36AE7B5
:10279000CE0101960E9435114FE060E08AE795E096
:1027A0000E9403114FE060E08FE897E00E9435112E
:1027B0004FE060E084E795E00E9403114FE066E39C
:1027C00089ED97E00E94351185E1E8E9F7E0DE0147
:1027D000119601900D928A95E1F71E8A47E16AE70A
:1027E0008EE595E00E94031147E16AE7CE0101966C
:1027F0000E94351185E1EDEAF7E0DE0111960190C6
:102800000D928A95E1F71E8A4FE16AE78EE595E021
:102810000E9403114FE16AE7CE0101960E94351133
:1028200085E1E2ECF7E0DE01119601900D928A95C8
:10283000E1F71E8A47E26AE78EE595E00E94031100
:1028400047E26AE7CE0101960E94351181E080934C
:10285000E40EF5E0DF120C94462448E853E160E012
:1028600070E086E00E9481030C9446248091E40E7F
:10287000882311F40C9446249FB7F89480918A071A
:1028800010918B0700918C079FBF882389F04FE040
:1028900060E08AE795E00E9403114FE060E08FE876
:1028A00097E00E9435118FB7F89410928A078FBF76
:1028B000002389F04FE060E084E795E00E94031177
:1028C0004FE066E389ED97E00E9435118FB7F894E9
:1028D00010928C078FBF112311F40C94462485E1CC
:1028E000E8E9F7E0DE01119601900D928A95E1F793
:1028F0001E8A47E16AE78EE595E00E94031147E1F1
:102900006AE7CE0101960E94351185E1EDEAF7E014
:10291000DE01119601900D928A95E1F71E8A4FE132
:102920006AE78EE595E00E9403114FE16AE7CE0168
:1029300001960E94351185E1E2ECF7E0DE01119687
:1029400001900D928A95E1F71E8A47E26AE78EE5CB
:1029500095E00E94031147E26AE7CE0101960E94CA
:1029600035118FB7F89410928B078FBF0C944624C3
:102970008091DD039091DE03891711F40C944624B5
:102980002FB7F894909181122FBF911116C04FB7B5
:10299000F89435E030938112282F2F708091240A0B
:1029A0009091250A807F822B9093250A8093240A98
:1029B000309379124FBF0E943F038091DD038093D3
:1029C000DE030E9442050C94462480E00E94A40489
:1029D000882311F40C94462485E00E9417030C947C
:1029E000462481E00E94A404882311F40C94462418
:1029F00086E00E9417030C94462482E00E94A404FF
:102A0000882311F40C94462487E00E9417030C9449
:102A100046242FB7F8948091E5079091E6072FBFE1
:102A20003FB7F894209181123FBF21110C94A3224B
:102A30009C012B5633402E3C310510F00C94A32200
:102A40002FB7F89432E03093811210928412909351
:102A5000E3128093E2122FBF0E9445030C94462498
:102A60008FB7F894C090E707D090E8078FBF109217
:102A7000E40EC6010E948C04F82E2EE0281708F4FC
:102A800054C09FB7F894809189070091E90321E031
:102A9000200F2093E9039FBF8823E9F14BE3049FB4
:102AA00080011124C80187519C4F6C01DC011696EE
:102AB000ED91FC91179789E0DF011D928A95E9F766
:102AC0008FE897E09F938F9381E692E09F938F9397
:102AD0001F9288E08F93F60187818F9386818F9371
:102AE0000E944E2D8FB7F89420918D0730918E075C
:102AF000D60115963C932E9314978FBFB80166515B
:102B00007C4F8F2D0E9473050FB6F894DEBF0FBE69
:102B1000CDBF0C9446248FB7F89491E09093EA07C8
:102B20008FBF0E9448030C9446248091E9038F30A4
:102B300050F08FB7F89492E09093DC038FBF0E941F
:102B400036030C9446249FB7F8948091890700912E
:102B5000E90321E0200F2093E90310E09FBF9BE3EE
:102B6000909F9001919F300D1124F901E751FC4F86
:102B70001182D382C28241E050E055834483B9017F
:102B80006D507C4FAF014A5F5F4F7783668324505F
:102B90003C4F3187208799E0DB011D929A95E9F738
:102BA0002085318599E2D9011D929A95E9F788230C
:102BB00011F18FB7F89420918D0730918E073583EE
:102BC00024838FBF8FE897E09F938F9381E692E0F5
:102BD0009F938F931F9288E08F93DA0111968C91C7
:102BE0008F9386818F930E944E2D0FB6F894DEBF8F
:102BF0000FBECDBF06C061E575E0808591850E945E
:102C0000BF2C8BE3809FB001819F700D1124665112
:102C10007C4F8FEF0E9473050C9446248FB7F89475
:102C20001091DC038FBF1092E40E0E94F9114AE06C
:102C300060E08AE495E00E94031144E160E0111134
:102C400006C086E295E00E9403110C9446248BE3B3
:102C500095E00E9403110C9446248FB7F8941091CC
:102C6000DC038FBF1092E40E0E94F9114AE060E08D
:102C70008AE495E00E940311812F90E0FC013197D6
:102C8000E930F10508F5E656FF4F44E160E00C94A9
:102C90004E2A85E195E01CC082E095E019C081EFE5
:102CA00094E016C088EE94E013C08EED94E010C05E
:102CB0008AEC94E00DC087EB94E00AC082EA94E0CD
:102CC00007C08FE894E004C044E160E08BE395E046
:102CD0000E9403114CEB52E060E070E085E00E943E
:102CE00081030C9446248FB7F894E091E9078FBFD5
:102CF000E63609F451C0C0F4EE3209F44EC1E136B3
:102D000009F440C0EC3209F057C11092E40E0E9461
:102D1000F5048FB7F89494E09093EA078FBF86E0AC
:102D20000E9417030C944624EE3609F4DDC020F40B
:102D3000EC3609F497C040C1E33709F40CC1E4371D
:102D400009F03AC11092E40E0E94F5048FB7F8948E
:102D50001092DF0795E0E0EEF7E0DF011D929A9513
:102D6000E9F792E09093EA078FBF0E94F9114AE0D9
:102D700060E08BE995E00E94031180E00E94170358
:102D80000C9446248FB7F89496E09093EA078FBF8F
:102D90000E944B030C9446248FB7F89497E09093CD
:102DA000EA078FBF8091DF03893008F051C02FB749
:102DB000F8948091E7079091E8072FBF0E948C0458
:102DC0008F30E0F5482F50E02BE3829FF001112473
:102DD000E751FC4F9181992351F08FB7F89499E016
:102DE0009093DC038FBF0E9436030C944624E0EEE0
:102DF000F3E090E021912F3F19F09F5F9930D1F7D8
:102E0000E92FF0E0E152FC4F81832091DF032F5F37
:102E10002093DF032FB7F8943BE3349FB001359F35
:102E2000700D1124FB01E751FC4F9F5F91832FBF71
:102E300066517C4F0E9473050C9446248FB7F8941A
:102E400098E09093DC038FBF0E9436030C944624D5
:102E50008FB7F89493E09093DC038FBF0E94360302
:102E60000C9446248091E903882311F40C944624A1
:102E70008FB7F8946091E7077091E8078FBF3091A2
:102E8000E903E9EEF3E04FEF5FEF1FEF20E02317D8
:102E900069F082819381861B970B29F0841795072F
:102EA00010F4AC01122F2F5FFB96F1CF1F3010F002
:102EB0000C9446241092E40E0E94F5048FB7F89407
:102EC00093E09093EA074BE3149FF0011124E7513C
:102ED000FC4F228133813093E6072093E5078FBFB3
:102EE0000E9439030C9446248FB7F89418E010938D
:102EF000EA078FBF2FB7F8948091E7079091E80712
:102F00002FBF0E948C048F30E8F41092E40E8FB72C
:102F1000F8941092E9078FBF10925F0789E2E0E60C
:102F2000F7E0DF011D928A95E9F70E94F9114AE066
:102F300060E08FE895E00E94031181E00E94170392
:102F40000C9446248FB7F8941093DC038FBF0E9433
:102F500036030C9446241092E40E0E94F5040E945D
:102F6000A0061092DF0349E050E06FEF70E080EEC2
:102F700093E00E94062D8FB7F8941092E90395E034
:102F80009093EA072BE633E03093E6072093E507BA
:102F90008FBF0E9439030C9446241092E40E0E94C5
:102FA000F5048FB7F89494E09093EA078FBF85E01B
:102FB0000E9417030C9446248FEC8E0F893010F07A
:102FC0000C944624E053F0E0E152FC4F10811F3096
:102FD000D0F41092E40E0E94F5048FB7F89493E0B9
:102FE0009093EA07BBE31B9FF0011124E751FC4FCC
:102FF000228133813093E6072093E5078FBF0E943B
:1030000039030C9446248FB7F89497E09093DC032F
:103010008FBF0E9436030C9446244091D5025091F4
:10302000D6028091A90F81112BC08AEA9FE0892BDB
:1030300039F187ED92E09093B30F8093B20F80EC5B
:103040008093AA0F88EA8093AB0F8AE28093AC0F3B
:1030500081E08093AD0F20E533EC3093AF0F2093E8
:10306000AE0F3093B10F2093B00F5093B50F409334
:10307000B40F8093A90F89E10E9417030C94462492
:103080000E943C030C9446249FB7F8948091DB0384
:103090009FBF833009F443C0843009F4A6C0823056
:1030A00009F0DBC1CE018A960E94CC07882309F47F
:1030B000D4C142E050E06CE874E089E593E00E94FE
:1030C000C62C2AA53BA5892BA1F4AE014F5F5F4F0B
:1030D00066E772E0C9010E94272D4AE050E060E0F7
:1030E00070E089819A810E947F2B6F3048F480E0E4
:1030F00008C06FE674E0C9010E94E32C009721F438
:1031000082E00E94F608A9C14FE050E06BE574E050
:1031100004960E94C62C892B99F781E0F2CF80910A
:103120005B038A3049F589E0FE013196DE01AB5B35
:10313000BF4F01900D928A95E1F72696EFAC269746
:103140002796FFAC279728960FAD289729961FAD95
:1031500029972A962FAD2A972B963FAD2B972C9621
:103160004FAD2C972D965FAD2D972E966FAD2E9768
:103170008FEF0E94F50671C1CE018A960E94CC079E
:10318000882309F46AC11092C4021092C502AE01EC
:103190004F5F5F4F68E772E08AA59BA50E94272DCD
:1031A0000097D1F04AE050E060E070E00E94542ABD
:1031B0006F3050F4E091C40281E08E0F8093C4021E
:1031C000F0E0EC53FD4F6283AE014F5F5F4F68E765
:1031D00072E080E090E0E2CF8091C402882309F49D
:1031E0003CC181E08093DA0335C1CE01825B9F4F01
:1031F0000E94CC07882309F429C18E010B5B1F4F65
:1032000089E0F80111928A95E9F7CE0101964C0107
:1032100089E2D4011D928A95E9F7AE01465D5F4FC0
:1032200066E772E060968EAD9FAD60970E94272D95
:103230006C01009709F4F5C0E1E66E2EE2E07E2E07
:10324000F8E0FF2EAAA4BBA442E050E068E574E0D9
:10325000C6010E94C62C892B61F44AE050E060E070
:1032600070E0C5010E947F2B6F3008F0DAC0562E47
:1032700086C044E050E063E574E0C6010E94C62CBD
:10328000892B99F44AE050E060E070E0C5010E94AB
:103290007F2B9B012B5633402E3C310508F0C1C0DB
:1032A000362E61967FAF61976AC046E050E06CE4CD
:1032B00074E0C6010E94C62C892B51F44AE050E00C
:1032C00060E070E0C5010E947F2B462E272E57C07C
:1032D00045E050E066E474E0C6010E94C62C892BEC
:1032E00061F44AE050E060E070E0C5010E947F2B8D
:1032F0006A3008F096C0E62E42C044E050E061E437
:1033000074E0C6010E94C62C892BF9F4BF92AF92DB
:103310007F926F921F92FF921F930F930E944E2DE8
:10332000F8011086EAA5FBA5CF0108969BA78AA7FE
:103330000FB6F894DEBF0FBECDBF80858C3209F08A
:1033400070C03996FBA7EAA726C044E050E06CE3C2
:1033500074E0C6010E94C62C892B89F4D5018C919A
:10336000882331F048E250E0B501C4010E94182DD5
:10337000F80110A68091D90381111BC032C06CE204
:1033800070E08AA59BA50E940D2D009709F449C005
:1033900001969BA78AA7AE01465D5F4F66E772E084
:1033A00080E090E00E94272D6C01009709F04ACF41
:1033B00038C0EE2009F44AC0EBAAF32C3CAA61966F
:1033C0002FAD61972DAB4EAA2FAA302F19AF08AFA2
:1033D000582D9BAE8AAE022F142D222D49AD6BAD18
:1033E0001EC0ECAEF32C3DAE61962FAD61972EAFB3
:1033F0004FAE21962FAE2197302F23961FAF0EAFE1
:103400002397582D25969FAE8EAE2597022F142D0B
:10341000222D23964FAD239725966FAD2597852DA9
:1034200013C089E0FE01F396DE019A9601900D9299
:103430008A95E1F7EAA4FBA40CA51DA52EA53FA53E
:1034400048A959A96AA98EEF0E94F5068091DA036E
:10345000882319F08FE00E9417038FB7F894109219
:10346000DB038FBF0C9446244091C502242F30E02B
:103470008091C40290E0821B930B181619060CF081
:1034800052C04F5F4093C502F901EC53FD4FB2802B
:103490009FB7F8948091DB039FBF81110C94462461
:1034A0008FB7F89494E09093DB038FBF44E050E033
:1034B0006BE674E0CE0101967C010E94D42C6E0173
:1034C0009AE2C90ED11C43E050E068E574E0C60101
:1034D0000E94D42C07ED12E080E8D8011D928A9555
:1034E000E9F71F92BF92DF92CF92FF92EF928AE7A5
:1034F00092E09F938F931F930F930E948B2DF8015F
:1035000001900020E9F78F01085D12401093D60268
:103510000093D5020E943C030FB6F894DEBF0FBEA5
:10352000CDBF0C9446241092DA031092C40210927C
:10353000C5028FB7F8941092DB038FBF89E0FE01BC
:10354000BA96DE01119601900D928A95E1F7E98015
:10355000FA800B811C812D813E814F8158856985C0
:103560008FEF0E94F5060C9446248091BA028111D7
:103570000C9446248091BB028F5F81708093BB02C4
:10358000EDE0E89FD0011124AC59B34F9C919130EC
:1035900011F40C94A6228F5F81708093BB02E89F88
:1035A000F0011124EC59F34F8081813011F00C941B
:1035B00046240C94A6220E94730B0C9446240E946D
:1035C000C40B0C9446248091B40281110C944624BF
:1035D0008091B50290E00196817099278093B502A1
:1035E0002DE1289FF001299FF00D1124E25CFD4E92
:1035F0003081313011F40C94FE22019681709927AC
:103600008093B502289FF001299FF00D1124E25C00
:10361000FD4E8081813011F00C9446240C94FE22E2
:103620008091B20281110C944624E091B302EF5FC5
:10363000E170E093B302AE2FB0E073E0AA0FBB1FBE
:103640007A95E1F7A053B14F8C91813011F40C942D
:103650004023EF5FE170E093B302F0E063E0EE0F30
:10366000FF1F6A95E1F7E053F14F8081813011F03F
:103670000C9446240C9440238091B00281110C9448
:1036800046248091B1028F5F81708093B102EBE09C
:10369000E89FD0011124AA5FBD4E9C91913011F496
:1036A0000C9464238F5F81708093B102E89FF001D6
:1036B0001124EA5FFD4E8081813011F00C94462484
:1036C0000C94642381E08093AC020E944D090C9419
:1036D00046248FB7F8941092EE071092ED071092DF
:1036E000AC0C1092AB0C1092E0121092DF12109200
:1036F000EA0E1092E90E8FBF0C9446248FB7F8940F
:1037000092E09093AB028FBF8091110281110C94D3
:1037100046240E94FD028091AF02813021F0823068
:1037200009F498C057C26FEF8FEF0E94B3038DE189
:103730000E94C90380FFFBCF80E00E94930A60E0F3
:1037400076E088E00E941E0980E096E090931502E2
:103750008093140260E076E08CE00E941E096FEF17
:103760007FE18AE00E941E0960E070E084E00E9430
:103770001E0960E88EE50E94B30381E00E94930A6F
:1037800061EA88E50E94B30382E00E94930A60E048
:1037900081E40E94B30361E080E40E94B30363E329
:1037A00082E40E94B30360E083E40E94B3036AE210
:1037B00072E08AE00E941E0965E184E40E94B3037E
:1037C000909128028091290290931B0280931A0203
:1037D00083E00E94930A60911B0281E40E94B3037C
:1037E00060911A0280E40E94B3036091190283E49D
:1037F0000E94B3036091180282E40E94B3036091B7
:10380000170285E40E94B3036091160284E40E94CB
:10381000B30382E00E94930A64E184E50E94B3034B
:1038200060E471E086E10E941E0962E184E50E9485
:10383000B30362E170E086E10E941E0960ED8BE552
:103840000E94B30364E08FE10E94DF0382E0809373
:10385000AF02C0C18091AC02882309F43FC010922E
:10386000AC028CE10E94C903182F84FF20C082E0C3
:103870000E94930A63E184E50E94B30361E082E55C
:103880000E94B30383E00E94930A8AE00E94A72764
:1038900080FDFBCF82E00E94930A60E082E50E94F7
:1038A000B30388E10E94A72789E10E94A72781E04E
:1038B0000E94930A89E10E94C903882319F081E0DC
:1038C0008093AD0210FF0AC00E94FF028CEB0E94A1
:1038D000B10381E00E94B1030E94FD028091AE021B
:1038E0008130E1F580E00E94930A60E070E082E0C0
:1038F0000E941E0960E08AE70E94B30300E010E026
:103900006091B00C7091B10C0617170768F4E09144
:103910001C12F0911D12E00FF11F60818AE70E94D6
:10392000B3030F5F1F4FECCF86E00E941E0968E0D3
:103930008FE10E94DF031092AE021092BA028091D2
:10394000BB024DE0849FF0011124EC59F34F10822B
:1039500060E00E947B0A80E10E9417038091AD0223
:10396000813009F037C180E00E94930A609114020F
:103970007091150280E00E941E098AE30E94C9032B
:1039800090E090931502809314028AE30E94C90389
:103990002091140230911502382B30931502209398
:1039A00014028AE30E94C903082F10E08AE30E94F0
:1039B000C903182B8AE30E94C9038AE30E94C90342
:1039C000C8010F978B31924090F44FEEE42E47E000
:1039D000F42E8AE30E94C903F70181937F01CF018E
:1039E0008F5E974080179107A0F310E001C011E0AF
:1039F00060911402709115028CE00E941E0960E42F
:103A00008EE10E94DF031092AD021111E3C080919C
:103A1000FB0790E0982F88272091FC07822B8115C7
:103A2000F8E09F0729F08630984009F472C0D2C0B0
:103A30008DEF97E09093801280937F1280910D0814
:103A400090910E08A0910F08B091100800912402E7
:103A500010912502209126023091270280179107AC
:103A6000A207B30739F140911C0250911D026091E9
:103A70001E0270911F026A017B01C094D094E094F1
:103A8000F0944601570188229922AA22BB228C1465
:103A90009D04AE04BF0409F09DC080279127A22792
:103AA000B32784239523A623B723892B8A2B8B2B1B
:103AB00009F090C080910608813109F08BC0009117
:103AC000150810E0102F002780911608082B0850C9
:103AD00011098091130890E0982F882720911408ED
:103AE000822B8035934C09F075C00138110510F018
:103AF00000E810E0A80169E178E089E593E00E9420
:103B0000FD2C10935803009357038EE00E94170377
:103B100061C08091030890E0982F882720910408C5
:103B2000822B8130910519F00297F1F053C040913A
:103B30002402509125026091260270912702809103
:103B4000150890911608A0911708B0911808481709
:103B500059076A077B07F1F54BE058E065E078E02C
:103B600082E00E94F60336C08091B602813091F562
:103B70008091B802AAE08A9FC0011124FC01E5519E
:103B8000FD4E40910B0850910C0860910D0870910A
:103B90000E084083518362837383DC01A151BD4EC3
:103BA00026E0E5E0F8E001900D922A95E1F72091FA
:103BB000C7112D7F2093C7111092B60281519D4EDF
:103BC0000E946E0C8091B80290E001968370992754
:103BD0008093B8021FB7F8948091AB02823011F540
:103BE0008091110281111EC0809113028F3FB1F0AC
:103BF000E82FF0E0EE54F34F9081909313029F3F33
:103C000011F4909312029FEF90838093110281E050
:103C10008093AB0288E10E94170304C080931102D5
:103C20001092AB021FBF9FB7F8948091AB0288231C
:103C300009F4CAC59FBF1FB7F8944A9903C086E12B
:103C40000E9417031FBF22C68091A90281111EC6C0
:103C50001092AA02F090A90FB1E0FB1217C6B8C5E6
:103C60000E94A80D13C69FB7F894809184129FBF3D
:103C7000811122C02FB7F8948091E2129091E31243
:103C80008B569340937090689093210A8093200AFA
:103C90008091220A9091230A9F7690649093230A40
:103CA0008093220A84E08093791281E080938412C9
:103CB0002FBF0E943F03EAC5813051F48FB7F894BB
:103CC00092E0909384128FBF88E08CBBEB9ADEC5A4
:103CD000823049F48FB7F89493E0909384128FBFA9
:103CE0000E944E03D3C5833041F52FB7F8948091DD
:103CF000300A9091310A937085599C4F9093EA1243
:103D00008093E9128091200A9091210A9F779093E5
:103D1000210A8093200A8091220A9091230A9F7B96
:103D20009093230A8093220A84E0809379128093EF
:103D300084122FBF0E943F03A9C5843049F48FB776
:103D4000F89495E0909384128FBF0E944E039EC515
:103D5000853009F09BC52FB7F89480912E0A909179
:103D60002F0A88279074892F99272FBF892B89F5CF
:103D70002091E9123091EA129FB7F8943093E80746
:103D80002093E7078091EA079FBF833031F08530A9
:103D900021F487E00E94170308C08FB7F89491E0E0
:103DA0009093EA078FBF0E9448038091871288236F
:103DB00051F08FB7F89494E0909381128FBF81E017
:103DC0000E94B40863C58FB7F894109281128FBF18
:103DD0005DC58FB7F89494E0909384128FBF0E94D2
:103DE000450354C59FB7F8942091E80E8091851241
:103DF0009FBF811140C0223069F42FB7F8948091A1
:103E00001E0A90911F0A956090931F0A80931E0AC4
:103E10002FBF0FC03FB7F89480911E0A90911F0AE0
:103E20009A7F916090931F0A80931E0A3FBF2111D1
:103E300025C52FB7F89480911E0A90911F0A9260B1
:103E400090931F0A80931E0A2FBF2FB7F89480917A
:103E5000220A9091230A9F7690649093230A80937C
:103E6000220A84E08093791281E0809385122FBF2B
:103E70000E943F030BC5813051F48FB7F89492E054
:103E8000909385128FBF88E08CBBEB9AFFC4823081
:103E900049F48FB7F89493E0909385128FBF0E94F6
:103EA0004E03F4C4833081F52FB7F89480912E0A25
:103EB00090912F0A882790729093C1028091300AC6
:103EC0009091310A937085599C4F9093EA12809398
:103ED000E91280911E0A90911F0A9E7F90931F0AFB
:103EE00080931E0A8091220A9091230A9F7B9093CF
:103EF000230A8093220A84E08093791280938512AA
:103F00002FBF0E943F03C2C4843049F48FB7F89496
:103F100095E0909385128FBF0E944E03B7C4853001
:103F200009F0B4C42FB7F89480912E0A90912F0A0B
:103F300088279074892F99272FBF892BB1F58091FD
:103F4000C10281111AC08091E9129091EA120E9477
:103F5000140580918712882351F08FB7F89494E06C
:103F6000909381128FBF81E00E94B4088FC48FB7F5
:103F7000F894109281128FBF89C48FEF9FEF0E9437
:103F8000140580918712882351F08FB7F89494E03C
:103F9000909381128FBF81E00E94B40877C48FB7DD
:103FA000F894109281128FBF71C48FB7F89494E087
:103FB000909385128FBF0E94420368C48091BF0214
:103FC0009091C0029C012F5F3F4F3093C00220931D
:103FD000BF029F938F9389E692E09F938F938E0108
:103FE0000F5F1F4F1F930F930E948B2D4CE36CE3C9
:103FF000C8010E9435119FB7F894809186129FBF27
:104000000F900F900F900F900F900F90811109C09B
:104010008FB7F89491E0909386128FBF0E944E0361
:1040200035C4813009F032C44FB7F8943091320A68
:104030007091330AE091340AF091350A2091360AE2
:104040006091370A8091380A9091390A4FBF4F2FFB
:1040500046954695469550E044305105E1F124F4EB
:104060004230510530F082C04830510509F447C054
:104070007DC02FB7F8947093961230939712E37027
:10408000AE2FB0E0AA0FBB1FA357BD4E11969C9355
:10409000119712968C9381E090E00E2E01C0880F4C
:1040A0000A94EAF790918D12892B80938D122FBF7D
:1040B0008F3009F05BC06EE872E180E00E94581119
:1040C00048E050E060E270E08EE892E10E94062D48
:1040D00010928D124BC03FB7F894EF7044E0E49F0C
:1040E000F0011124E357FD4E638724879587868767
:1040F0003FBF68E972E181E00E94581137C0229504
:104100002071392F32953F70232BAC01E6E0569594
:104110004795EA95E1F74F73982F9F71969585FF24
:1041200003C0822F891B02C0822F890F1FB7F8940A
:10413000E8EDF2E196E0DF011D929A95E9F71F9212
:104140004F931F928F9384E892E09F938F93FF93F6
:10415000EF930E948B2D1FBF68ED72E182E00E94F9
:1041600058110FB6F894DEBF0FBECDBF80918712F5
:1041700081110CC08FB7F89494E090938112109243
:1041800086128FBF80E00E94B40880C38FB7F89476
:1041900010928112109286128FBF78C39FB7F89445
:1041A000809182129FBF882319F00E944E036EC334
:1041B0008FB7F89491E0909382128FBF0E940A0803
:1041C00065C38FB7F89490910D02911135C08FBFE0
:1041D0008FB7F8949091A702913071F522E0209367
:1041E000A7028FBF8FB7F89420E130E03093E70E3D
:1041F0002093E60E2EE132E13093AF0C2093AE0C0B
:1042000020E22093EB0723E02093131310927A12FD
:104210009093A6028FBF0E946D031FB7F894809100
:10422000FE118F7A816A8093FE1184E08093A70249
:104230000E94F6021FBF2AC38FBF8FE10E9417039F
:1042400025C39FB7F894809182129FBF882319F0ED
:104250000E943F031BC39FB7F89482E080938212B1
:1042600080917912880F82509FBF20E092E028173A
:10427000B0F43FB7F894422F50E0E92FF0E0EE0F92
:10428000FF1FE65EF54F60817181FA01E25EFD4E2F
:10429000708361833FBF9F5F9F702E5FE8CF0E9456
:1042A0000A08F4C29FB7F894809179129FBF9FB714
:1042B000F89420910D02211136C09FBF9FB7F8944A
:1042C0002091A702213079F522E02093A7029FBF19
:1042D0009FB7F89420E130E03093E70E2093E60E8C
:1042E0002EE132E13093AF0C2093AE0C880F825058
:1042F0008093EB0783E08093131310927A1210924D
:10430000A6029FBF0E946D031FB7F8948091FE1113
:104310008F7E816E8093FE1184E08093A7020E94BD
:10432000F6021FBFB3C29FBF81E20E941703AEC255
:1043300040E050E02AE0DA01A25EBD4EE22FF0E05C
:10434000EE0FFF1FE65EF54F8C9190E0982F8827C7
:1043500011963C91832B918380832F5F2F704E5F4A
:104360005F4F4032510539F791C28FB7F894909161
:10437000781290930E0293E09093A8028FBF8091E1
:104380000E029FB7F89480930D029FBF81117EC2E9
:104390009FB7F894809182129FBF813031F08230B4
:1043A00041F481E20E94170371C28FE10E9417035A
:1043B0006DC20E94EB096AC21FB7F8948091A602F1
:1043C000882321F081E00E94660F02C00E94D30F73
:1043D0001FBF5CC28FB7F8949091E50E90930C02CA
:1043E00093E09093A4028FBF80910C02811101C0D1
:1043F000809880910C02811149C281E08093880FDE
:104400001092DE120E949F0941C21092880F009103
:104410000012109101128091DE12811137C2FFB695
:10442000F8948091A402833009F03FC080910C027F
:1044300081113BC08091BE11882309F414C26091A0
:10444000A50270E0CB010196A1E0B0E081309105BA
:1044500011F480E090E0282F26952695269530E0EF
:10446000F901E254FE4E2081382F3770AD0101C0B2
:10447000440F3A95EAF7322F342331F04095242344
:1044800020838093A50206C08617970711F0019636
:10449000DDCF8FEF8093E50E8FEF80930C0281E0EC
:1044A0008093A40285E20E941703FFBE96E0169552
:1044B00007959A95E1F70093DD0384E00E941703C6
:1044C000E5C18091EB0E8130E1F460E080E80E946C
:1044D0003F0988E290E00E94B50700E010E0F80193
:1044E000E757F04F61E080810E943F0988E290E049
:1044F0000E94B5070F5F1F4F0031110581F7109221
:10450000EB0E8091EC0E813009F0C0C160E080ECD0
:104510000E943F0988E290E00E94B50700E010E0A9
:10452000F801E756F04F61E080810E943F0988E280
:1045300090E00E94B5070F5F1F4F0031110581F712
:104540001092EC0EA3C10E943903A0C1E091BB02FE
:10455000FDE0EF9FC0011124FC01EB59F34F26E071
:10456000AAE3BAE001900D922A95E1F726E0E6E190
:10457000F2E0A0E4BAE001900D922A95E1F7FC0187
:10458000EC59F34F978180859093470A8093460AB0
:104590000385148561857285A80188E49AE00E94EC
:1045A000FD2C8091AE0281111AC08091AF02823041
:1045B000B1F40E944D09811114C08AE39AE09093EE
:1045C0001D1280931C12025F1F4F1093B10C0093B9
:1045D000B00C81E08093AE028093BA0257C165E0CF
:1045E00001C067E08091BB022DE0829FF0011124A1
:1045F000EC59F34F10820E947B0A48C18091B502AA
:10460000282F30E04DE1849FF0011124AF01415C7F
:104610005D4E9091710C911126C062E77CE06115AE
:10462000710509F1EF5AFD4E86E0DB0101900D9214
:104630008A95E1F786E098E09093790C8093780C66
:1046400050937B0C40937A0C8CE190E090937D0C1E
:1046500080937C0C11E01093710C80E10E94170391
:104660001093B40213C19DE1929FF001939FF00D4E
:104670001124E25CFD4E108265E00E94680A06C1CA
:104680008091B302A8E08A9FC00111248F52914FFC
:104690000E94A10C8823A1F09091B30228E0929F80
:1046A000F0011124E053F14F1082992331F0913041
:1046B00009F0ECC00E943E0AE9C00E94BE07E6C0B5
:1046C00081E08093B202E2C0E091B102EE2EF12CC3
:1046D000BBE0EB9FF0011124EA5FFD4E418552855E
:1046E0008A010C5F1F4F85818093EE0E8681809337
:1046F000EF0E6781708582EF9EE00E94FD2C109284
:10470000F10E1092F00EA80156954795EEEEFEE0E0
:1047100020E030E080E090E0DC012417350749F02C
:1047200061917191860F971FA11DB11D2F5F3F4FA2
:10473000F4CFAD0166277727411551056105710555
:1047400039F0AA27BB27840F951FA61FB71FF1CFEB
:1047500080959095A095B0959093F10E8093F00E72
:104760008091D00E811126C081ED9EE0892B11F140
:104770002BE02E9DC0012F9D900D1124895F9D4E31
:104780009093D20E8093D10EFF24F394F092D30E27
:104790008EEE9EE09093D50E8093D40E1093D70E9C
:1047A0000093D60EF092D00E84E10E941703F0928F
:1047B000B0026CC08BE08E9DF0018F9DF00D112436
:1047C000EA5FFD4E108262C08CB58F7B8CBD32CA11
:1047D0009091AE0F8091AF0F9093B70F8093B60F6B
:1047E0009091B00F8091B10F9093B90F8093B80F53
:1047F0004091B40F5091B50F8A01085F1F4F00938D
:10480000BB0F1093BA0F6091B20F7091B30F8EEB84
:104810009FE00E94FD2C8091D80E81111FC089ED70
:104820009EE0892BD9F08AEA9FE09093DA0E80937C
:10483000D90E81E18093DB0E86EB9FE09093DD0E35
:104840008093DC0E1093DF0E0093DE0EF092D80EF4
:1048500084E10E941703F092A90218C01092A90FD8
:104860000E943C0313C081E080930C021092A402CA
:1048700080917A008F7780937A0017CE2FB7F894C3
:1048800080911E0A90911F0A9D7FDACAC05BDF4F9C
:104890000FB6F894DEBF0FBECDBFDF91CF911F9151
:1048A0000F91FF90EF90DF90CF90BF90AF909F90CF
:1048B0008F907F906F905F904F903F902F900895D2
:1048C0008FB7F89408958FBF08951F920F920FB677
:1048D0000F9211240BB60F922F933F934F935F9338
:1048E0006F937F938F939F93AF93BF93EF93FF93B8
:1048F0002FB7F8948091E00E9091E10EA091E20E16
:10490000B091E30E0196A11DB11D8093E00E90932E
:10491000E10EA093E20EB093E30E2FBF78940E94B5
:104920005D04FF91EF91BF91AF919F918F917F9126
:104930006F915F914F913F912F910F900BBE0F9010
:104940000FBE0F901F9018951F920F920FB60F92E7
:1049500011240F900FBE0F901F9018951F920F9269
:104960000FB60F9211240BB60F92CF92DF92EF92F7
:10497000FF920F931F932F933F934F935F936F93E8
:104980007F938F939F93AF93BF93CF93DF93EF93D7
:10499000FF932EB5E091ED07F091EE07309739F0D7
:1049A0008091E90E9091EA0EE80FF91F2083809123
:1049B000E90E9091EA0E01969093EA0E8093E90E2B
:1049C0008CB58F778CBDC091E90ED091EA0E209105
:1049D000DF123091E012C217D307D8F50091AB0C6B
:1049E0001091AC0CC090ED07D090EE07CE010A9666
:1049F0002817390708F4C9017C0121E0E21AF108FF
:104A0000CE15DF05A0F40115110529F0F801EC0F12
:104A1000FD1F808101C080E00E94AB03C114D1045E
:104A200021F0F601EC0FFD1F80832196E9CF8CB5B4
:104A300080688CBD0115110531F0F801EC0FFD1FE8
:104A400080818EBD01C01EBCD093EA0EC093E90EDA
:104A500011C01092EE071092ED071092AC0C10925C
:104A6000AB0C1092E0121092DF121092EA0E10922C
:104A7000E90E8EB5FF91EF91DF91CF91BF91AF918C
:104A80009F918F917F916F915F914F913F912F9166
:104A90001F910F91FF90EF90DF90CF900F900BBE82
:104AA0000F900FBE0F901F9018951F920F920FB688
:104AB0000F9211240F900FBE0F901F9018951F9208
:104AC0000F920FB60F9211240F900FBE0F901F90F0
:104AD00018951F920F920FB60F9211240BB60F92DA
:104AE0002F933F934F935F936F937F938F939F93F6
:104AF000AF93BF93EF93FF9386E10E941703FF915B
:104B0000EF91BF91AF919F918F917F916F915F9145
:104B10004F913F912F910F900BBE0F900FBE0F90B2
:104B20001F9018951F920F920FB60F9211240BB67B
:104B30000F922F933F934F935F936F937F938F9336
:104B40009F93AF93BF93EF93FF9380918112823035
:104B500029F0833041F0811116C00AC00E9415036C
:104B60000E94450312C00E9415030E9442030DC01B
:104B700080918712882349F086E0809381128DE12D
:104B80000E94170302C00E941503FF91EF91BF918D
:104B9000AF919F918F917F916F915F914F913F91D5
:104BA0002F910F900BBE0F900FBE0F901F90189576
:104BB0001F920F920FB60F9211240F900FBE0F90FD
:104BC0001F9018951F920F920FB60F9211240F90FD
:104BD0000FBE0F901F9018951F920F920FB60F9255
:104BE00011240F900FBE0F901F9018951F920F92D7
:104BF0000FB60F9211240F900FBE0F901F901895B3
:104C00001F920F920FB60F9211240BB60F922F9393
:104C10003F934F935F936F937F938F939F93AF9344
:104C2000BF93EF93FF930E946D038091B900982F7B
:104C3000987F2091A702243079F1263021F023308B
:104C400009F04DC013C08091A602813049F4903420
:104C500029F483E08093A70281E010C084E016C0AD
:104C60009831E1F783E08093A70213C02091A60258
:104C7000213039F4807F803541F480E00E94660F56
:104C80002EC0983231F0903321F081E00E9406105E
:104C900026C00E94D30F23C0809113138E7F809370
:104CA00013138091FE118F7D983029F0903119F007
:104CB0008093FE11EACF80648093FE1191E0809191
:104CC000A602813009F090E08091E60E880F892BD2
:104CD0008093BB0086E08093A7020E94F602FF91BA
:104CE000EF91BF91AF919F918F917F916F915F9164
:104CF0004F913F912F910F900BBE0F900FBE0F90D1
:104D00001F9018951F920F920FB60F9211240BB699
:104D10000F922F933F934F935F936F937F938F9354
:104D20009F93AF93BF93EF93FF9390910601809170
:104D3000B30C97FD11C08350883008F07BC0809180
:104D4000BC0286958093BC029091060196FF72C0CA
:104D500080688093BC026EC081508093B30C811137
:104D600069C09091BC02903E09F461C080918B12A1
:104D7000811155C0993549F0903F19F0923149F4AD
:104D800004C081E080938B1252C081E08093A60C16
:104D90004EC08091A60C60E081111FC081E4262FD7
:104DA00030E0280F311D35952795A901440F551F77
:104DB000FA01EC52FE4FE491E91718F461E0620F3A
:104DC00009C09E1718F48FEF820F04C0FA01EB524E
:104DD000FE4F1EC0861718F72AC081E4262F30E048
:104DE000280F311D35952795A901440F551FFA014C
:104DF000E45BFE4FE491E91718F461E0620F0CC028
:104E00009E1718F48FEF820F07C0FA01E35BFE4F85
:104E100084910E94E3040BC0861700F708C010922B
:104E20008B12923111F0993511F41092A60C8BE08F
:104E30008093B30CFF91EF91BF91AF919F918F91B0
:104E40007F916F915F914F913F912F910F900BBE8A
:104E50000F900FBE0F901F9018951F920F920FB6D4
:104E60000F9211240BB60F922F933F934F935F93A2
:104E70006F937F938F939F93AF93BF93CF93EF9352
:104E8000FF93209178003091790078944FB7F8948F
:104E90008091E11281FB992790F981704FBF8111B8
:104EA00022C080917A00877F80937A008091880F5A
:104EB000813019F0823091F036C0911107C08DE732
:104EC00090E00E94B5070E949F092DC03093011207
:104ED0002093001286E20E94170325C0992379F3DC
:104EE0001092880F20C0CFB7F8940E945103CFBF13
:104EF0002FB7F89480917A0086FB992790F9877FE5
:104F0000806190FB86F98F7780937A00877F80613C
:104F10008F7B8F7780937A00877F80618F7B80681B
:104F200080937A002FBFFF91EF91CF91BF91AF9106
:104F30009F918F917F916F915F914F913F912F91B1
:104F40000F900BBE0F900FBE0F901F901895CF9330
:104F5000DF931F92CDB7DEB789830E94FF0289815C
:104F60000E94B1038FEF0E94B1038FEF0E94AB0349
:104F700089830E94FD0289810F90DF91CF9108956E
:104F8000CF93DF93CDB7DEB76B970FB6F894DEBF44
:104F90000FBECDBF0FB7F89448E250E06FEF70E05E
:104FA0008EE79CE00E94062D8FEF809388128093FD
:104FB000E81288EE91E090938A1280938912089A01
:104FC000099A0A9A10981198129880E0877F8F7E2C
:104FD0008F7D8F7B8F7780937A0081E083BF0E94E3
:104FE00003038F3F19F00E941712F9CF87B18C6F1E
:104FF00087B918E288EE93E00E94B5071150D1F707
:1050000060E088E20E943F0988E290E00E94B507D4
:1050100060E088E20E943F0988E290E00E94B507C4
:1050200060E08CE00E943F0988E290E00E94B507B2
:1050300060E081E00E943F0988EE93E00E94B5079E
:1050400088EE93E00E94B50760E086E00E943F0989
:1050500088E290E00E94B50740E250E060E270E034
:1050600089E89FE00E94062D81E08093EB0E8093FB
:10507000EC0E10928C121092FF111092BE111FEFC5
:105080001093ED0E1093B20C729A739A7498759AED
:105090000E940103779A6A9A6B9A6C9A6D9A6E9A3B
:1050A0006F9A82B112B881B111B96FE380E00E94AA
:1050B00056106FE381E00E94561060EC80E00E9481
:1050C000561060EC81E00E9456108091B60080720C
:1050D0008093B6008091B60081FDFCCF82E0809382
:1050E000B0008091B60080FDFCCF85E08093B100D8
:1050F0008CE78093B3008091700082608093700091
:105100000E9475036093C8117093C9118093CA11EE
:105110009093CB1180E395E7A0E0B0E08093CC11B1
:105120009093CD11A093CE11B093CF118091D01157
:105130008E7F82608093D01182E10E94170380915C
:1051400028029091290290932602809327020E94C0
:1051500003038F3F19F00E941712F9CF0FBF789405
:10516000E9EEF3E099E089E22FB7F8942FBFAF01A1
:10517000465F5F4F578346839F012D5E3F4F3187C8
:105180002087DA01292F1D922A95E9F7408551855C
:10519000DA01282F1D922A95E9F7FB96A7E0EE3554
:1051A000FA0711F78FB7F8941092EA071092E90303
:1051B0008FBF1092DF0349E050E06FEF70E080EEA8
:1051C00093E00E94062D1092DE031092DD0363E847
:1051D00075E0CE0142960E94BF2C198E10928C125F
:1051E0001092FF11CE0142960E94BB040E9442051C
:1051F0000E94F9119FB7F894809107018F778093EF
:1052000007019FBF9FB7F894809107018F7B809320
:1052100007019FBF80916D00806880936D008FB7FC
:10522000F8949BE09093B30C1092A60C10928B1202
:105230008FBF809168008460809368009FB7F89466
:10524000809181129FBF811131C09FB7F89481E096
:105250008093811210928212109283121092871200
:1052600080E2EAE1FAE0DF01282F1D922A95E9F7B2
:10527000EEE1F2E1DF011D928A95E9F79FBF529AB4
:105280005A98519A599853985B9880916900806810
:1052900080936900809169008F7B8093690041E071
:1052A00050E060E070E082E00E9481038FB7F894E4
:1052B00051E05093DB038FBF80EC8093240298EA87
:1052C000909325022AE22093260242E0409327028F
:1052D0003FEF30931C0230931D0230931E02109258
:1052E0001F02809320029093210220932202509368
:1052F00023021F924F931F922F931F929F931F92EF
:105300008F938EE892E09F938F938E010F5F1F4FD4
:105310001F930F930E948B2D4CE360E0C8010E9405
:1053200035111092DA030FB6F894DEBF0FBECDBF71
:105330008091AF02811136C0209A0E94FD02249A0A
:105340002C981B8E1A8E8A8D9B8D80329E4430F451
:105350008A8D9B8D01969B8F8A8FF5CF2C9A1B8E01
:105360001A8E8A8D9B8D80329E4430F48A8D9B8D5F
:1053700001969B8F8A8FF5CF52985A9A84E08CBB06
:1053800080916900806280936900809169008F7EBE
:1053900080936900EA9A0E944D09811103C081E05F
:1053A0008093AF028FB7F8941092DB038FBF1FB7C3
:1053B000F8940E9403038F3F09F058C08091700059
:1053C000837089F08091B6008A71E1F78091B30013
:1053D0009091B200891B883040F08091B200893FE3
:1053E00020F483E003C085E001C082E0E0916E001C
:1053F000E67029F590916F009E7221F5E0917100A1
:10540000EE72E9F4909172009E72E1F4E091730003
:10541000EE72A9F40CB407FC15C09091C10098710C
:1054200089F4E091C900E87151F49091BC0092FDBB
:1054300009C090917A0097FD04C0E5E003C0E0E068
:1054400001C0E1E093B78E1708F4E82FF0E0EA5BC3
:10545000FE4F8491E92FE07FE160E82BE3BF789471
:105460008895F89483B78E7F83BFA3CF1FBF0E9418
:1054700017129DCFAA1BBB1B51E107C0AA1FBB1F60
:10548000A617B70710F0A61BB70B881F991F5A95D0
:10549000A9F780959095BC01CD010895EE0FFF1FEF
:1054A0000590F491E02D09942F923F924F925F92D4
:1054B0006F927F928F929F92AF92BF92CF92DF9224
:1054C000EF92FF920F931F93CF93DF935C016B01D9
:1054D0007A016115710519F0FB0191838083E11454
:1054E000F10429F0C7010297839708F0F1C0E501A4
:1054F0002196F5011081812F90E00E94B72C892B15
:1055000011F05E01F4CF1D3229F42196F5011181CD
:1055100001E007C01B3221F4E5012296F50111815B
:1055200000E0E114F10459F1F0E1EF16F10461F447
:105530001033E1F488818F7D883569F519812296D1
:10554000026070E1E72EF12C88E0E816F10439F1F1
:105550002CF4F2E0EF16F104C9F12AC08AE0E81653
:10556000F10479F0E0E1EE16F10411F550E1E52ED9
:10557000F12C812C912CA12C68E0B62E2CC010337C
:10558000C9F23AE0E32EF12C4CEC842E982CA82C96
:105590004CE0B42E20C010E3E114F104A9F698E029
:1055A000E92EF12C812C912CA12C20E1B22E13C0DC
:1055B00060E070E080E090E89701442737FD409577
:1055C000542F0E94753049015A0105C0812C912C3D
:1055D000A12C80E4B82E60E020E030E0A901270192
:1055E000662457FC6094762C1E01E0EDE10FEA3052
:1055F00060F08FEB810F8A3110F4E9EC05C08FE980
:10560000810F8A3128F5E9EAE10F8E2F90E08E159F
:105610009F05F4F467FD18C082169306A406B5062C
:1056200090F0C301B2010E9465309B01AC012E0FC6
:10563000311D411D511D213031054105F0E85F0745
:1056400010F461E001C06FEF2196F1011081CCCF21
:10565000802F8170C114D10471F0662329F0219745
:10566000F601D183C08307C001FF19C02297F6015C
:10567000D183C08314C067FF12C0811105C02FEF12
:105680003FEF4FEF5FE704C020E030E040E050E83C
:1056900082E290E0909315138093141316C0882330
:1056A00041F050954095309521953F4F4F4F5F4FBA
:1056B0000CC057FF0AC082E290E0909315138093CC
:1056C00014132FEF3FEF4FEF5FE7B901CA0104C09A
:1056D00060E070E080E090E0DF91CF911F910F914A
:1056E000FF90EF90DF90CF90BF90AF909F908F9002
:1056F0007F906F905F904F903F902F9008952F92E2
:105700003F924F925F926F927F928F929F92AF9251
:10571000BF92CF92DF92EF92FF920F931F93CF939E
:10572000DF9300D000D000D0CDB7DEB75C016B01B5
:105730007A016115710519F0DB018D939C93E114D9
:10574000F10429F0C7010297839708F0DCC0350106
:10575000BFEF6B1A7B0AF5011081812F90E00E9448
:10576000B72C892B11F05301F2CF1D3249F43501CA
:10577000F2E06F0E711CD50111961C9101E009C079
:105780001B3231F43501B2E06B0E711CF501118151
:1057900000E0E114F10409F4C4C0F0E1EF16F104F3
:1057A00089F4103399F5D3018C918F7D883509F0F8
:1057B000B2C011961C91B2E06B0E711C026050E1F8
:1057C000E52EF12CEAE0EE16F10409F4B0C0F0E1A8
:1057D000EF16F104D9F028E0E216F10451F438E0B4
:1057E000E32EF12C88248A94982CA82C4FE1B42E17
:1057F00013C06FEF7FEFCB019701442737FD409532
:10580000542F0E94753049015A0106C088248A9499
:10581000982CA82C2FE0B22E7E826D8260E020E0D2
:1058200030E0A9012701662457FC6094762C2D8076
:105830003E80E0EDE10FEA3060F08FEB810F8A31BE
:1058400010F4E9EC05C08FE9810F8A3190F5E9EA9F
:10585000E10F8E2F90E08E159F055CF56F3F09F1EB
:1058600082169306A406B506D8F0C301B2010E94C1
:1058700065302E2F30E040E050E029833A834B839F
:105880005C83260F371F481F591F89819A81AB817E
:10589000BC81281739074A075B0710F061E001C097
:1058A0006FEFED81FE813196FE83ED83D1011C9176
:1058B000BECFC114D10489F0662339F08D819E8159
:1058C0000197F6019183808308C001FF06C08D8196
:1058D0009E810297D6018D939C9300FF07C050953F
:1058E0004095309521953F4F4F4F5F4F67FF10C058
:1058F00082E290E090931513809314136FEF7FEF83
:105900008FEF9FEF1BC060E070E080E090E016C07A
:10591000B901CA0113C010E3E114F10409F45FCF27
:1059200051CF103309F43FCF9AE0E92EF12C89E9E9
:10593000882E982CA82C89E1B82E6ECF26960FB60B
:10594000F894DEBF0FBECDBFDF91CF911F910F91B5
:10595000FF90EF90DF90CF90BF90AF909F908F908F
:105960007F906F905F904F903F902F90089591118E
:10597000FDC2803219F089508550D0F70895FB019F
:10598000DC0105900D920020E1F70895FB01DC0198
:105990004150504030F08D910590801919F400204D
:1059A000B9F7881B990B0895FB01DC014150504069
:1059B00048F005900D920020C9F701C01D9241509A
:1059C0005040E0F70895FB0155915523A9F0BF0120
:1059D000DC014D9145174111E1F759F4CD010590D6
:1059E000002049F04D9140154111C9F3FB014111CF
:1059F000EFCF81E090E001970895FB01DC0102C048
:105A000001900D9241505040D8F70895DC0101C03B
:105A10006D9341505040E0F70895FC018191861745
:105A200021F08823D9F7992708953197CF01089558
:105A3000FB01DC014150504048F001900D920020E4
:105A4000C9F701C01D9241505040E0F70895FA0196
:105A5000A191B081009719F41097E1F0CD01DC011C
:105A6000CD010D90002011F4C00113C0FB01219164
:105A7000222319F02015D9F7F3CFFB01219120152E
:105A800019F41E92119606C02223C1F70D90002032
:105A9000A1F7D001FA01A193B08308950F931F934A
:105AA000CF93DF93CDB7DEB72E970FB6F894DEBF56
:105AB0000FBECDBF0D891E898F89988D26E02C835E
:105AC0001A83098397FF02C080E090E801979E83C4
:105AD0008D83AE01455E5F4F698D7A8DCE01019653
