:100000000C9409020C946D1B0C94771B0C94811BAF
:100010000C94AA1B0C94E61B0C94F01B0C94FA1B7A
:100020000C94041C0C9428020C9428020C94901C30
:100030000C9428020C947D1A0C9428020C94BC1A7F
:100040000C9428020C9428020C9428020C94280288
:100050000C9428020C9428020C9428020C94280278
:100060000C94C61A0C9428020C9428020C942802B2
:100070000C9428020C943E1D0C9428020C94280227
:100080000C9428020C9428020C9428020C94280248
:100090000C9428020C9428020C9428020C940E1C38
:1000A0000C9428020C9428020C9428020C94280228
:1000B0000C9428020C9428020C9428020C94280218
:1000C0000C9428020C9428020C9428020C94280208
:1000D0000C9428020C9428020C9428020C942802F8
:1000E0000C9428029F0A140B7A0B7C0B830B8B0B4E
:1000F000F30B140C7E0CC20C600D860DCE0D3D0E64
:100100006A0E960EBC0EC30ED60EAA11B9118E122F
:1001100030130B14241547155515701500020E06E3
:100120000C040D090E78155116211A591B531C4148
:100130001D571E2221432258234424452578262377
:1001400029202A562B462C542D522E25314E324230
:1001500033483447355A3626394C3A4D3B4A3C559C
:100160003D2F3E28413B424B4349444F453D4629A4
:10017000493A4A5F4B4C4C784D504E3F5278547838
:1001800055605A0A5B5E5D2A613E660869316B34D0
:100190006C377030712C7232733574367538792B38
:1001A0007A337B2D7C2A7D3900000D090E7C157178
:1001B00016311A791B731C611D771E322163227858
:1001C000236424652534263329202A762B662C7453
:1001D0002D722E35316E326233683467357A363699
:1001E000392C3A6D3B6A3C753D373E38412C426BA9
:1001F0004369446F45304639492E4A2D4B6C4C6F4C
:100200004D704E2B526F546F555C5A0A5B785D27C8
:10021000613C660869316B346C377030712C723216
:10022000733574367538792B7A337B2D7C2A7D397A
:100230000000000000000000005F00000007000751
:1002400000147F147F14242A7F2A12231308646267
:1002500036495522500005030000001C22410000D1
:1002600041221C00082A1C2A0808083E08080050E1
:10027000300000080808080800606000002010082E
:1002800004023E5149453E00427F400042615149CF
:10029000462141454B311814127F102745454539F9
:1002A0003C4A494930017109050336494949360636
:1002B0004949291E00363600000056360000000865
:1002C0001422411414141414412214080002015180
:1002D0000906324979413E7E1111117E7F49494913
:1002E000363E414141227F4141221C7F49494941DB
:1002F0007F090901013E414151327F0808087F0012
:10030000417F41002040413F017F081422417F404E
:100310004040407F0204027F7F0408107F3E41413D
:10032000413E7F090909063E4151215E7F09192995
:1003300046464949493101017F01013F4040403F64
:100340001F2040201F7F2018207F631408146303A0
:1003500004780403615149454300007F4141020490
:1003600008102041417F0000040201020440404087
:100370004040000102040020545454787F48444413
:10038000383844444420384444487F38545454183E
:10039000087E090102081454543C7F0804047800C4
:1003A000447D40002040443D00007F10284400412F
:1003B0007F40007C041804787C08040478384444A6
:1003C00044387C14141408081414187C7C080404A1
:1003D000084854545420043F4440203C4040207C72
:1003E0001C2040201C3C4030403C44281028440C39
:1003F0005050503C4464544C4400083641000000C6
:100400007F0000004136080008082A1C08081C2A42
:10041000080811241FBECFEFD1E2DEBFCDBF13E02D
:10042000A0E0B2E0E2E4FCE400E00BBF02C0079011
:100430000D92AC32B107D9F71BE1ACE2B3E001C0D9
:100440001D92A63AB107E1F70E94E21D0C941F2607
:100450000C9400008091240D8093BC000895769840
:100460000895289A089528980895769A0895809175
:10047000161B8F3F69F0E82FF0E0E951F84F9081AB
:100480009093161B9F3F11F49093781B9FEF9083DE
:1004900008959FB7F894E82FF0E0E951F84F2081D4
:1004A0002F3F99F4E091781BE81779F02091161B03
:1004B0002F3F19F48093161B04C0F0E0E951F84F68
:1004C00080838093781B80E001C085E09FBF089502
:1004D00085E10C94490286E10C9449028FB7F894A7
:1004E0009091BC009093240D8FBF0895ECE7F0E04D
:1004F000208180917B00308190818870880F880FE7
:100500002F71822B35FB222720F920FB86F992954B
:10051000969596959370292F279522272795822BBC
:10052000969508952FB7F89460913D0A70913E0A10
:1005300080913F0A9091400A2FBF0895CF92DF9299
:10054000EF92FF92CF93C82F6A017B010E94920223
:1005500029E0C29FF0011124DF01A050B34F6D9339
:100560007D938D939C9313971496CD92DD92ED928B
:10057000FC921797E85FF24F8081816082608083F0
:100580008CE0CF91FF90EF90DF90CF900C944902D8
:10059000AC019091E70A9931B8F48091480A292F6B
:1005A00030E0280F311D2931310514F0295131096E
:1005B000220F331FF901ED59F24F518340839F5FA2
:1005C0009093E70A80E0089581E008958EBD0DB410
:1005D00007FEFDCF8EB508950C94E602CF93DF930E
:1005E00000D0CDB7DEB76A8389830E943302898148
:1005F0000E94EC026A81862F0E94EC020F900F90FD
:10060000DF91CF910C943102CF93DF931F92CDB73E
:10061000DEB789830E94330289810E94EC0280E068
:100620000E94E60289830E94310289810F90DF9146
:10063000CF910895CF93DF9300D0CDB7DEB76A8313
:1006400089830E943302898180680E94EC026A815A
:10065000862F0E94EC020F900F90DF91CF910C94A7
:1006600031028F929F92AF92BF92CF92DF92EF9220
:10067000FF920F931F93CF93DF932FEF280F9DE1EE
:10068000299F9001112489010B56124FF801908186
:10069000911140C0E901CA56D24F2097D9F17A0191
:1006A00051E0598318821B8298E09A8396E09C83DC
:1006B00044E04D838090240290902502A090260271
:1006C000B09027028786908AA18AB28AD901A25661
:1006D000B24FE6E1F2E0492F01900D924A95E1F721
:1006E000D901A855B24FFB0101900D929A95E1F7FF
:1006F000F701C080D180E280F380F801C18ED28EF4
:10070000E38EF48E8F831E8250838DE00E94490217
:1007100080E001C085E0DF91CF911F910F91FF90A4
:10072000EF90DF90CF90BF90AF909F908F90089503
:100730003091E70A3323C1F02091480AE22FF0E01C
:10074000EE0FFF1FED59F24F8081918111821082CF
:1007500031503093E70A2F5F293119F02093480A6E
:1007600008951092480A089580E090E008952FB708
:10077000F89480914F03882309F14091270D5091FF
:10078000280D6091290D70912A0D80910408909197
:100790000508A0910608B0910708840F951FA61FB1
:1007A000B71F40913D0A50913E0A60913F0A7091F7
:1007B000400A481759076A077B0711F02FBF0895B1
:1007C00010924F032FBF8BE00C9449022FB7F8947F
:1007D00090910E1B2FBF91110EC09FB7F89423E08C
:1007E00020930E1B1092141B8093440A9FBF0E94FB
:1007F0006B0280E0089581E00895019701960197CA
:100800000196019701960197C1F7089581E08093C1
:10081000440344E75BE166E072E00E94310344E692
:1008200050E060E070E080E00C949E021F93CF9354
:10083000DF938FB7F894C0913003C1113DC011E030
:10084000109330031092D90D8FBFDFB7F8948091C9
:100850002F03811117C0509851981092B90081E46C
:100860008093B8001092BA001092BC000E946E02F1
:100870008091240D8E7F84608093240D0E942A0233
:1008800010932F03DFBFDFB7F89480910E02813001
:1008900089F480913003813021F488E10E9449027B
:1008A00009C0823039F48091D90D80930E0283E023
:1008B00080933003DFBF1DC0C091D90DCC23C1F0A0
:1008C0009091490A9F3F99F4E0910F02EE2379F04D
:1008D000909110029F3F19F41092100204C0F0E0B2
:1008E000E75BF54F108210920F02C0E001C0C5E037
:1008F0008FBF8C2FDF91CF911F9108951F93CF93BE
:10090000DF931F92CDB7DEB7182F806479830E94E2
:10091000EE0281E0810F7981672F80640F90DF9173
:10092000CF911F910C94EE0290913603E92FF0E0E5
:10093000EE0FFF1FE457F54E4081518120913403A3
:10094000222359F09F5F943119F09093360302C02F
:1009500010923603215020933403CA010E94C8022A
:1009600080913403882319F088E00C944902109296
:100970004A0A0895CF93DF939FB7F8948091390383
:10098000882369F19FBFDFB7F894C0913903C11183
:1009900009C081E0809339031092110282E10E9424
:1009A000490218C080910F088F3F99F4E09112021C
:1009B000EE2379F0809113028F3F19F41092130205
:1009C00004C0F0E0E15FF74F108210921202C0E025
:1009D00001C0C5E0DFBF8C2FDF91CF9108958CB5AA
:1009E0008F7B8CBD229A2398219A209A8CB58061A6
:1009F0008CBD8CB58F778CBD8DB58E7F8DBD8CB544
:100A0000877F8CBD8CB58B7F8CBD8CB58C7F8CBD6E
:100A10008CB580648CBDB6CF882319F0813071F01D
:100A2000089510923E03E0913F038BE0E89FF001B0
:100A30001124E55DF24F10828FE010C01092370351
:100A4000809138039DE0899FF0011124E651F54F14
:100A50001082811102C00E94940483E10C94490227
:100A6000109240038091410398E0899FF001112486
:100A7000E35DF54F10820E940C058EE00C94490254
:100A800081110FC0662369F080914403813049F4DD
:100A9000109244038091080D8D7F8093080D0C9473
:100AA000300508950F931F93CF93DF9380916D1BB3
:100AB000882309F43FC010E0C0E0DFE10FB7F894ED
:100AC0008091711B8E7F8093711B0E947602282F6C
:100AD0002F73881F8827881F9170990F892B1813EF
:100AE00002C091E0D21390E08091711B90FB81F9DC
:100AF0009D2F9F73990F990F8370892B8093711B82
:100B00001111D064D0937C0080917B00877F80930B
:100B10007B009091711B8C2F8860806190FB85F920
:100B20008064806880937A000FBFDF91CF911F911E
:100B30000F910895C7E011E0D0E0C0CFCF93DF93CD
:100B4000CFB7F8940E946E028091240D8E7F806949
:100B50008093240D0E942A02CFBFDFB7F8948091C2
:100B600030038330C1F5C0910E02C11134C08091B1
:100B700010028F3FC1F0E82FF0E0E75BF54F908166
:100B8000909310029F3F11F490930F029FEF908378
:100B90008093D90D90930E0281E08093300388E119
:100BA0000E94490216C081E080930E021092300329
:100BB00080912F03813069F40E946E028091240D90
:100BC0008A768093240D0E942A0258985998109290
:100BD0002F03DFBF02C0DFBFC1E08C2FDF91CF91B9
:100BE0000895CF9390910D02911121C0C0910E1BD9
:100BF000813019F4CF910C9448060E949E05109202
:100C0000111BC23071F030F4C13089F484E1CF910E
:100C10000C944902C33041F0C43049F410920E1BC9
:100C200006C0CF910C946802CF910C946B02CF91C7
:100C300008958091B51A90914E03891780F4E09140
:100C40000B08F0910C08E80FF11D80818093BB0028
:100C50008091B51A8F5F8093B51A0C942A02809107
:100C6000240D282F2E7F9091A31B91FF06C09D7FFE
:100C70009093A31B822F806101C08E778093240DF7
:100C80000E942A0281E080932F0380E00C94F105FA
:100C9000CF939FB7F8948091101B9FBF81112DC0F7
:100CA0009FB7F8948091B41A880F82509FBF20E0BC
:100CB00092E02817B0F43FB7F894422F50E0E92FA4
:100CC000F0E0EE0FFF1FED57FA4F60817181FA01DE
:100CD000ED5BF24F708361833FBF9F5F9F702E5F1C
:100CE000E8CF8FB7F89492E09093111B91E0909326
:100CF000101B8FBFCF910C941604813009F045C0B2
:100D00009FB7F8948091B41A9FBF9FB7F894209131
:100D10000D022111F9CF9FBF9FB7F89420912F03A7
:100D2000213091F722E020932F039FBF9FB7F894C3
:100D300020E130E03093430A2093420A23E43DE06F
:100D400030930C0820930B08880F825080934E0339
:100D500083E08093A31B1092B51A10922E039FBFBD
:100D60000E946E02CFB7F8948091240D8F7E816E21
:100D70008093240D84E080932F030E942A02CFBF2A
:100D80008FB7F8941092101B8FBFCF9108954F9298
:100D90005F926F927F928F929F92AF92BF92CF920B
:100DA000DF92FF920F931F93CF93DF93A0E0BDE0FC
:100DB000C12CD12C49E04C9DF0014D9DF00D11242A
:100DC000EF01C050D34FF884F1FEA9C00D911D91E1
:100DD0002D913C91139714968D909D90AD90BC9061
:100DE00017972B013C01401A510A620A730A4814F2
:100DF00059046A047B0408F492C0F0FE06C0E85F60
:100E0000F24F20812D7F20830AC0B901A801480D2F
:100E1000591D6A1D7B1D488359836A837B8322E0A9
:100E2000C216B9F183E0C81609F43FC021E0C2122E
:100E300021C010927B1B10927C1B10927D1B109284
:100E40007E1B1092851B1092861B1092871B10929E
:100E5000881B10928F1B1092901B1092911B109266
:100E6000921B1092991B10929A1B10929B1B10922E
:100E70009C1B5EC010924403809145038F5F80935A
:100E80004503833018F40E94060452C00E943005C6
:100E90004FC09FB7F89480910E1B9FBF813009F01F
:100EA00047C084E10E94490243C09FB7F8948091F3
:100EB0002C03811127C081E080932C031092410AFA
:100EC0009FBF9FB7F89480917A00806880937A00E2
:100ED0009FBFCFB7F89480910C02813089F4809144
:100EE0002C03813021F48AE10E94490209C082303A
:100EF00039F48091410A80930C0283E080932C03A3
:100F0000CFBF16C08091410A882339F08091FF0C31
:100F100080FD03C081608093FF0C9FBF09C02FEF4D
:100F2000C21AD20A199624E0C216D10409F043CF9E
:100F30008CE0DF91CF911F910F91FF90DF90CF90C8
:100F4000BF90AF909F908F907F906F905F904F90E9
:100F50000C944902CF93DF931F92CDB7DEB78983FC
:100F60000E9433028FEB0E94EC0283E00E94EC02AD
:100F70000E94310269818FE10F90DF91CF910C9433
:100F80001A03FC01009711F40C94300530911308FA
:100F9000909114088091CD07811124C04EEC57E048
:100FA00041155105F9F026E0DA0101900D922A95DC
:100FB000E1F740E058E05093D5074093D40741E172
:100FC00058E05093D7074093D607892F90E0932B92
:100FD0009093D9078093D80781E08093CD078AE06A
:100FE0000C9449020895CF939FB7F89480910F1BFA
:100FF0009FBF81110BC09FB7F89481E08093111BB4
:1010000080930F1B9FBFCF910C941604813009F081
:1010100042C08FB7F89490910D0291113AC08FBFE2
:101020008FB7F89490912F03913099F522E0209397
:101030002F038FBF8FB7F89420E130E03093430A3D
:101040002093420A23E43DE030930C0820930B08E0
:1010500020E220934E0323E02093A31B1092B51AA5
:1010600090932E038FBF0E946E02CFB7F8948091A9
:10107000240D8F7A816A8093240D84E080932F035E
:101080000E942A02CFBF8FB7F89410920F1B8FBF18
:1010900002C08FBFBECFCF910895CF93C0910E1BDA
:1010A000813019F4CF910C94F3070E949E051092A1
:1010B000111B40E050E02AE0DA01AD5BB24FE22FB5
:1010C000F0E0EE0FFF1FED57FA4F8C9190E0982F54
:1010D000882711963C91832B918380832F5F2F70FB
:1010E0004E5F5F4F4032510539F7C23059F020F45E
:1010F000C13089F484E10CC0C33039F0C53059F4F3
:1011000087E106C0CF910C946802CF910C946B02DA
:10111000CF910C944902CF910895811110C0809114
:10112000BB009091B51AE0910B08F0910C08E90F03
:10113000F11D80838091B51A8F5F8093B51A20913D
:10114000B51A80914E03281788F430E090E001979B
:101150002817390749F48091A31B82FD05C08091AF
:10116000240D8F7B8093240D0C942A028091240DF2
:10117000282F2E7F9091A31B91FF0AC09D7F9093F3
:10118000A31B822F80618093240D8091B90003C03E
:101190008E778093240D0E942A0281E080932F0392
:1011A00080910D02811102C00C944D080895CF93D7
:1011B000DF931F92CDB7DEB789830E946E029091B4
:1011C000240D9A7F9093240D0E942A020E946E02A1
:1011D0009091240D94609093240D0E942A0291E036
:1011E00090932F0390912E038981992349F0909138
:1011F0000D0291110AC00F90DF91CF910C944D0810
:101200000F90DF91CF910C94F1050F90DF91CF916A
:101210000895882329F0813029F47298739A02C0C6
:101220007398729A82B182B981B111B87498759A23
:101230000E94350282E090E00E94FD0380B1079B8E
:101240000DC00E942F0282E090E00E94FD030E94E8
:10125000350282E090E00E94FD03F1CF0E942F0250
:10126000759881B18FEF81B90895CF93DF931F9265
:10127000CDB7DEB70E94090981B111B8749A759A89
:101280000E94350282E090E00E94FD0380B10E943E
:101290002F0282E090E00E94FD030E94350282E06E
:1012A00090E00E94FD0380B189830E942F02898112
:1012B0000F90DF91CF910895CF93DF931F92CDB719
:1012C000DEB769830E940909698162B981B18FEF34
:1012D00081B9749A75980E94350282E090E00E946C
:1012E000FD030E942F0280E00F90DF91CF910895BF
:1012F000CF93DF931F92CDB7DEB769830E940909B0
:10130000749875980E94350281B18FEF81B9698117
:1013100062B982E090E00E94FD030E942F0280E00B
:101320000F90DF91CF910895CF93DF93982FC62F21
:10133000D82FD295D695D695D37081E0D8279F73B4
:10134000692F60648D2F0E9478096C2F6770686B1D
:101350008D2FDF91CF910C9478092F923F924F926D
:101360005F926F927F928F929F92AF92BF92CF9235
:10137000DF92EF92FF920F931F93CF93DF9300D0F2
:101380001F92CDB7DEB7C62E8C014B83962F55E04A
:10139000952E88248394EE24E394F12CF801219176
:1013A0008F01222309F46FC02A3011F02D3029F467
:1013B0002B81285F2B835C2C64C0293021F44AE008
:1013C000542E590E5EC036E0532E590E80EE820F19
:1013D000803608F056C030E020523109929EA001BC
:1013E000939E500D1124FA01EE5CFD4F5F01955F55
:1013F0009983952D89EF482E2B81420E642CF5019F
:10140000D49096FB772470F87824262C2694269482
:101410002694F62DF7703F2E622D892F9A83D0FEE9
:101420000DC00E949409872D0E943509B70101C0A3
:10143000660F3A94EAF7382E362A0DC00E949409B6
:10144000872D0E943509970101C0220F3A94EAF7CF
:101450002095382E3222622D9A81892F0E9494097C
:10146000632D872D0E945C099A81D69463942B8109
:101470006212CBCF9F5F3FEFA31AB30A2981921369
:10148000BDCF952D8BCF0F900F900F90DF91CF9107
:101490001F910F91FF90EF90DF90CF90BF90AF9092
:1014A0009F908F907F906F905F904F903F902F9084
:1014B0000895CF93DF93C0E06C2F80E00E949409E1
:1014C0006C2F80E40E949409D0E060E080E00E94EC
:1014D0005C0960E081E00E945C09DF5FD038A9F719
:1014E000CF5FC83049F780E0DF91CF9108952F9208
:1014F0003F924F925F926F927F928F929F92AF92A4
:10150000BF92CF92DF92EF92FF920F931F93CF93F0
:10151000DF93CDB7DEB7C75CD1090FB6F894DEBF55
:101520000FBECDBF6DB67EB690E08C31910510F048
:101530000C94591AFC01EE58FF4F0C94E31F8FB71F
:10154000F89410914B0A009150038FBF0E94590AE2
:101550004AE060E08BE392E00E94AD09812F90E0C9
:10156000C0970A9778F4043068F48FB7F894E09144
:10157000500391E09E0F90935003F0E0E05BFC4F2E
:1015800011838FBF183071F4002361F08FB7F89486
:10159000E0915003E150E0935003F0E0E05BFC4F3A
:1015A00011828FBF9FB7F89485E0E1E5F3E0DE019B
:1015B000119601900D928A95E1F79FBF44E160E09A
:1015C000CE0101960E94AD09173611F00C94591AFC
:1015D0004AE050E060E070E0CE0101960E941421E4
:1015E0002FB7F89433E03093701B2FBF3FB7F894B8
:1015F00020910E1B3FBF21110C94591A9B012B56B1
:1016000033402E3C310510F00C94591A2FB7F89442
:1016100032E030930E1B1092131B7093731B609378
:10162000721B2FBF0C942D132FB7F89480914B0A87
:101630009091701B2FBF2091701B213009F054C076
:101640008C3699F060F4883611F00C94591A8FB7E3
:10165000F89494E09093701B8FBF81E00DC08337A6
:1016600079F08437A1F00C94591A8FB7F89494E06C
:101670009093701B8FBF80E00E94E6030C94591A70
:101680008FB7F89495E09093701B8FBF33C09FB7CE
:10169000F89480910E1B9FBF882311F08530A1F430
:1016A000EB982FB7F89480918B0590918C059F76DD
:1016B00090938C0580938B0584E08093B41A1092EC
:1016C0000E1B2FBF0E9448068FB7F894109250034C
:1016D00095E0E1E5F3E0DF011D929A95E9F792E0EC
:1016E0009093701B8FBF04C0923011F00C94591A64
:1016F00080E0DEC182E0C0CF0E94590A4AE060E08B
:101700008AE492E004C04AE060E08DE592E00E9445
:10171000AD090C94591A2FB7F8948091E80A90916A
:10172000E90A31E03093701B2FBF9F938F9380E7BE
:1017300092E09F938F938E010F5F1F4F1F930F9324
:101740000E94F9224AE060E083E792E00E94AD093E
:1017500048E260E0C8010E94AD099FB7F89480910B
:101760000E1B9FBF0F900F900F900F900F900F9038
:10177000882321F0853011F00C94591A88E08CBB35
:10178000EB9A2FB7F89480918B0590918C05906916
:1017900090938C0580938B0510921A1B10921B1B43
:1017A00010921C1B84E08093B41A85E080930E1B7A
:1017B0002FBF48E050E060E270E08DE19BE10E94C5
:1017C0005D2240E450E060E270E087E29BE10E942D
:1017D0005D2246E050E060E270E087E69BE10E9417
:1017E0005D220C94E0152FB7F8948091E80A90914F
:1017F000E90A31E03093701B2FBF9F938F9380E7EE
:1018000092E09F938F938E010F5F1F4F1F930F9353
:101810000E94F9224AE060E084E892E00E94AD096B
:1018200048E260E0C80160C08091B71A8F93809150
:10183000B61A8F9381E992E09F938F938E010254A1
:101840001F4F1F930F930E94F922F801158284E124
:10185000E1ECFAE1DE01A755BF4F01900D928A95A8
:10186000E1F784E1E5EDFAE1DE01AF57BF4F01900A
:101870000D928A95E1F788E1E9EEFAE1DE01119631
:1018800001900D928A95E1F7C354DF4F1882CD5B2A
:10189000D040CB56DF4F1882C559D040198E0E94D8
:1018A000590A44E160E088EB9AE10E94AD0944E105
:1018B00062E3C8010E94AD094EE160E0CE018755A8
:1018C0009F4F0E94AD0948E260E0CE018F579F4FC5
:1018D0000E94AD0942E360E0CE0101960E94AD098D
:1018E0004CE360E082E09BE10E94AD090F900F9015
:1018F0000F900F900F900F900C94591A8091340311
:101900008823E1F1E0913603F0E0EE0FFF1FE4578A
:10191000F54E0190F081E02D208131818091EA0A1D
:1019200081112CC08BEE9AE0892B41F13296F09315
:10193000F40AE093F30A80EC8093EB0A88EA809340
:10194000EC0A8AE28093ED0A11E01093EE0A80E53A
:1019500093EC9093F00A8093EF0A9093F20A8093AD
:10196000F10A3093F60A2093F50A1093EA0A83E10C
:101970000E94490210934A0A0C94591A10924A0A7A
:101980000C94591A80913303E82FF0E0EE0FFF1FFB
:10199000E153F24FE080F18090913103992359F0A7
:1019A0008F5F853019F08093330302C010923303A8
:1019B000915090933103D701AD90BC90F5013197D0
:1019C000EE0DFF1D82818A3009F06AC01282670124
:1019D000B2E0CB0ED11C6DE070E0C6010E94642223
:1019E000009721F0FC0111928F0105C085010F5F66
:1019F0001F4F0E0D1F1D43E050E06FE272E0C60165
:101A00000E947822892B11F00C9464178DB69EB633
:101A1000D7014D915C915A01B2E0AB1AB108EDB714
:101A2000FEB7EA19FB090FB6F894FEBF0FBEEDBF73
:101A30008DB79EB701966C0143505109B8010E94C1
:101A40005422F601EA0DFB1D1082AE0142545F4F95
:101A500064E972E0C6010E9495225C01009711F4CE
:101A60000C94DD16BC0186E992E00E946F22892B5E
:101A700011F00C94DD164AE050E060E070E0C254D2
:101A8000DF4F88819981CE5BD0400E94E91F603191
:101A900010F40C94E3150FB6F8949EBE0FBE8DBEE5
:101AA000C7010E94C80280913103882329F089E090
:101AB0000E9449020C94591A1092450A0C94591A22
:101AC0008091480381110C94591A809149038F5FCA
:101AD000817080934903EDE0E89FD0011124A35366
:101AE000B84F9C91913011F40C94C7178F5F81709F
:101AF00080934903E89FF0011124E353F84F80815C
:101B0000813011F00C94591A0C94C71780910A086F
:101B1000811141C04091081B5091091B60910A1B23
:101B200070910B1B2FB7F894C090270DD090280D03
:101B3000E090290DF0902A0D8091040890910508FD
:101B4000A0910608B09107088C0D9D1DAE1DBF1D0C
:101B50002FBF4093081B5093091B60930A1B70937F
:101B60000B1B10920A082FB7F89431E030934F0303
:101B70008093040890930508A0930608B093070883
:101B80004093270D5093280D6093290D70932A0DD3
:101B90002FBF0E94B7030E94920247C00E94920288
:101BA0002FB7F89410924F032FBFE0E0FDE010E054
:101BB00022242A94322C422C3FE7532E20E030E09E
:101BC00009E0029FD001039FB00D1124A050B34F34
:101BD00018964C9141FF1AC0C080D180E280F380FA
:101BE0004B015C018C189D08AE08BF08C480D580ED
:101BF000E680F780C818D908EA08FB08C214D304A5
:101C0000E404F5041CF41601270111E02F5F3F4F97
:101C1000399624303105A9F6112311F40C94591A80
:101C2000121413041404150424F00E94C7060C9423
:101C3000591A2092081B3092091B40920A1B50929D
:101C40000B1B21E020930A083FB7F89420934F0321
:101C50006093040870930508809306089093070822
:101C60002092270D3092280D4092290D50922A0D76
:101C70003FBF0E94B7030C94591A8091420381110F
:101C80000C94591A8091430390E001968170992732
:101C9000809343032DE1289FF001299FF00D11242B
:101CA000EB56F24F3081313011F40C942718019625
:101CB0008170992780934303289FF001299FF00D9D
:101CC0001124EB56F24F8081813011F00C94591A97
:101CD0000C9427188091400381110C94591AE091BB
:101CE0004103EF5FE170E0934103AE2FB0E023E0EA
:101CF000AA0FBB1F2A95E1F7A35DB54F8C918130E8
:101D000011F40C946918EF5FE170E0934103F0E087
:101D100093E0EE0FFF1F9A95E1F7E35DF54F8081A9
:101D2000813011F00C94591A0C94691880913E037B
:101D300081110C94591A80913F038F5F81708093B9
:101D40003F03EBE0E89FD0011124A55DB24F9C91C9
:101D5000913011F40C9476198F5F817080933F035A
:101D6000E89FF0011124E55DF24F8081813011F090
:101D70000C94591A0C94761981E080933A030E94CE
:101D8000BA040C94591A8FB7F89410925703109212
:101D90005603109209081092080810926F1B1092B7
:101DA0006E1B1092470A1092460A4CC68FB7F894E1
:101DB00092E0909339038FBF8091110281110C94AE
:101DC000591A0E94310280913D03813021F0823006
:101DD00009F498C085C26FEF8FEF0E94EE028DE18B
:101DE0000E94040380FFFBCF80E00E94AA0760E00E
:101DF00076E088E00E947E0480E096E090931502F1
:101E00008093140260E076E08CE00E947E046FEF25
:101E10007FE18AE00E947E0460E070E084E00E943E
:101E20007E0460E88EE50E94EE0281E00E94AA072F
:101E300061EA88E50E94EE0282E00E94AA0760E063
:101E400081E40E94EE0261E080E40E94EE0263E31E
:101E500082E40E94EE0260E083E40E94EE026AE205
:101E600072E08AE00E947E0465E184E40E94EE0252
:101E7000909128028091290290931B0280931A026C
:101E800083E00E94AA0760911B0281E40E94EE0297
:101E900060911A0280E40E94EE026091190283E4CC
:101EA0000E94EE026091180282E40E94EE026091AC
:101EB000170285E40E94EE026091160284E40E94FB
:101EC000EE0282E00E94AA0764E184E50E94EE022D
:101ED00060E471E086E10E947E0462E184E50E9494
:101EE000EE0262E170E086E10E947E0460ED8BE527
:101EF0000E94EE0264E08FE10E941A0382E0809368
:101F00003D03EEC180913A03882309F43FC010924B
:101F10003A038CE10E940403182F84FF20C082E062
:101F20000E94AA0763E184E50E94EE0261E082E577
:101F30000E94EE0283E00E94AA078AE00E94B81D78
:101F400080FDFBCF82E00E94AA0760E082E50E944C
:101F5000EE0288E10E94B81D89E10E94B81D81E06F
:101F60000E94AA0789E10E940403882319F081E0F6
:101F700080933B0310FF0AC00E9433028CEB0E9447
:101F8000EC0281E00E94EC020E94310280913C034D
:101F9000813009F043C080E00E94AA0760E070E051
:101FA00082E00E947E0460E08AE70E94EE0200E088
:101FB00010E060910D0870910E080617170768F47D
:101FC000E091410DF091420DE00FF11F60818AE731
:101FD0000E94EE020F5F1F4FECCF86E00E947E044E
:101FE00068E08FE10E941A0310923C0310924803AC
:101FF000809149032DE0829FF0011124E353F84FB3
:102000001082882331F0813031F480E00E94D11DAC
:1020100002C00E9430058AE00E94490280913B0381
:10202000813009F05DC180E00E94AA07609114022E
:102030007091150280E00E947E048AE30E940403EE
:1020400090E090931502809314028AE30E940403A7
:102050002091140230911502382B309315022093F1
:1020600014028AE30E940403082F10E08AE30E940E
:102070000403182B8AE30E9404038AE30E940403EA
:10208000C8010F978B31924090F448E5E42E43E06D
:10209000F42E8AE30E940403D7018D937D01CD01C4
:1020A0008855934080179107A0F310E001C011E01C
:1020B00060911402709115028CE00E947E0460E42D
:1020C0008EE10E941A0310923B03111109C1809105
:1020D000640390E0982F882720916503822B811557
:1020E000B8E09B0729F08630984009F498C0F8C002
:1020F00086E693E090930D1B80930C1B80917603F2
:1021000090917703A0917803B09179030091240214
:102110001091250220912602309127028017910705
:10212000A207B30739F140911C0250911D02609142
:102130001E0270911F026A017B01C094D094E0944A
:10214000F0944601570188229922AA22BB228C14BE
:102150009D04AE04BF0409F0C3C080279127A227C5
:10216000B32784239523A623B723892B8A2B8B2B74
:1021700009F0B6C080916F03813109F0B1C0409180
:102180007E0350E0542F442780917F03482B8A011F
:102190000850110980917C0390E0982F88272091A6
:1021A0007D03822B8035934C09F09AC00E949803DE
:1021B0007C0142E360E082E893E00E94AD090138CF
:1021C000110510F000E810E0A80162E873E0C70113
:1021D00002960E945422D7010D931C932091310343
:1021E0002530A8F490913203E92FF0E0EE0FFF1FA5
:1021F000E153F24FF182E08281E0890F8093320354
:10220000853011F4109232032F5F209331038091B7
:10221000450A811165C089E00E94490261C0809130
:102220006C0390E0982F882720916D03822B8130DA
:10223000910519F00297F1F053C04091240250919A
:102240002502609126027091270280917E03909171
:102250007F03A0918003B0918103481759076A0753
:102260007B07F1F544E753E06EE673E082E00E94FD
:10227000310336C080914403813091F5809146034B
:10228000BAE08B9FC0011124FC01E558F44E409147
:1022900074035091750360917603709177034083C6
:1022A000518362837383DC01A158B44E26E0EEE6CD
:1022B000F3E001900D922A95E1F72091080D2D7F12
:1022C0002093080D109244038158944E0E94C10738
:1022D0008091460390E0019683709927809346038E
:1022E0001FB7F89480913903823011F58091110263
:1022F00081111EC0809113028F3FB1F0E82FF0E0F2
:10230000E15FF74F9081909313029F3F11F49093F8
:1023100012029FEF90838093110281E08093390332
:1023200082E10E94490204C0809311021092390395
:102330001FBF9FB7F89480913903882311F40C9440
:10234000F6199FBF1FB7F8944A99ADC380E10E9468
:102350004902A9C38091370381110C94591A109234
:102360003803F090EA0AE1E0FE120C94591A0C943A
:10237000FB199FB7F8948091121B9FBF81110EC06B
:102380005A9A48EE53E060E070E082E00E949E02BC
:102390008FB7F89491E09093121B54C3813021F4CD
:1023A0008FB7F89492E050C08230A1F42FB7F89420
:1023B00080919105909192059068909392058093F9
:1023C00091051092A2051092A1058FE08093B41A96
:1023D00083E021C0833059F48FB7F89494E0909350
:1023E000121B8FBF48E552E060E070E023C08430EC
:1023F000A9F42FB7F89480918705909188058E7B7A
:102400009F7B81609064909388058093870582E02C
:102410008093B41A85E08093121BD1C3853079F480
:102420008FB7F89496E09093121B8FBF46E950E067
:1024300060E070E082E00E949E020C94591A86309F
:1024400031F48FB7F89497E09093121BF0C1873066
:10245000A9F52FB7F89480918505909186052FBF37
:102460008335924139F08FB7F89410920E1B8FBFCD
:1024700084E01ECB2FB7F89480918B0590918C054A
:102480008373977B8460986490938C0580938B050D
:1024900080E199E190938E0580938D0580918F0561
:1024A0009091900588279E7F8F64909390058093EC
:1024B0008F0586E08093B41A88E0ADCF883011F0A4
:1024C0000C94591A8FB7F89410920E1B8FBF0E946C
:1024D000920260931B0D70931C0D80931D0D9093C1
:1024E0001E0D8CE291E0A0E0B0E080931F0D909370
:1024F000200DA093210DB093220D8091230D8E7F8E
:1025000082608093230D8CE00E9449028FB7F8947B
:1025100091E09093701B8FBF83E0CACA8FB7F89485
:102520001091131B8FBF111119C04EE160E080EFB5
:1025300092E00E94AD092FB7F8948091721B9091A0
:10254000731B8B5693409370906890938A05809389
:10255000890583E08093B41A81E03BC0113061F4B7
:102560004EE160E082EF92E00E94AD098FB7F894EF
:1025700092E09093131BC5C0123051F44EE160E01D
:1025800084EF92E00E94AD098FB7F89493E02FC0DA
:10259000133011F54EE160E086EF92E00E94AD0944
:1025A0002FB7F8948091990590919A059370855969
:1025B0009C4F90937A1B8093791B80918905909111
:1025C0008A059F7790938A05809389051093B41AA2
:1025D00084E08093131BF3C2143061F44EE160E099
:1025E00088EF92E00E94AD098FB7F89495E0909340
:1025F000131B1DC1153009F05CC78FB7F89400910B
:1026000097051091980500271074012F11278FBF8F
:102610004EE160E08AEF92E00E94AD098FB7012B96
:10262000B9F4F89410920E1B8FBF2091791B309152
:102630007A1B9FB7F8943093E90A2093E80A8091B7
:10264000701B9FBF853011F482E032CA85E030CA2A
:10265000F89494E09093131B8FBF0E94680229C7DF
:102660009FB7F894F090440A8091141B9FBF81118A
:102670003BC04EE160E08CEF92E00E94AD0922E0A9
:10268000F2120DC02FB7F8948091870590918805BC
:10269000956090938805809387052FBF0FC02FB753
:1026A000F89480918705909188059A7F9160909326
:1026B0008805809387052FBFF110F3C62FB7F894D4
:1026C000809187059091880592609093880580930A
:1026D00087052FBF8FB7F89492E09093B41A91E0DA
:1026E0009093141B8FBF6CC2813081F44EE160E087
:1026F0008EEF92E00E94AD098FB7F89492E090932C
:10270000141B8FBF88E08CBBEB9AD3C6823051F488
:102710004EE160E080E093E00E94AD098FB7F8944D
:1027200093E038C0833059F54EE160E082E992E0F1
:102730000E94AD092FB7F894809197059091980564
:102740008827907290934B038091990590919A05F8
:10275000937085599C4F90937A1B8093791B80913D
:102760008705909188059E7F9093880580938705C3
:1027700082E08093B41A84E08093141B20C28430DA
:1027800061F44EE160E083EA92E00E94AD098FB708
:10279000F89495E09093141B4AC0853009F089C6DF
:1027A0008FB7F89400919705109198050027107441
:1027B000012F11278FBF4EE160E082E093E00E947D
:1027C000AD09012BF9F480914B03811116C02091C2
:1027D000791B30917A1B8FB7F8943093E90A2093D4
:1027E000E80A8FBF86E00E94490242E08FB7F412E8
:1027F00005C0F8941092141B0AC08FB7F894109279
:102800000E1B20C18FB7F89494E09093141B8FBFD8
:102810000E946B024EC69FB7F8948091151B9FBF14
:10282000811107C08FB7F89491E09093151B8FBF6B
:102830002BC1813009F03DC64FB7F89430919B050C
:1028400070919C05E0919D05F0919E0520919F055A
:102850006091A0058091A1059091A2054FBF4F2FD7
:1028600046954695469550E04430510509F451C0CF
:1028700024F44230510550F0E1C04530510509F4CF
:102880005EC04830510509F48DC0D8C02FB7F89408
:102890007093261B3093271BE370F0E0EE0FFF1FB1
:1028A000E65EF44E9383848390911A1B81E0890F36
:1028B000837080931A1B2FBF933009F0BFC089E04B
:1028C000E8EBFAE1DF011D928A95E9F788E0EDE196
:1028D000FBE1A8EBBAE101900D928A95E1F78091B6
:1028E000261B90E0982F88272091271B822B9093FE
:1028F000B71A8093B61A87E00E94490248E050E078
:1029000060E270E08DE19BE10E945D2210921A1B53
:1029100095C03FB7F894EF70B4E0EB9FF00111243D
:10292000E65EF44E658726879787808B90911B1B08
:1029300081E0890F8F7080931B1B3FBF12C02FB7A0
:10294000F894EF70F0E0EE0FFF1FE65EF44E95870F
:10295000868790911B1B81E0890F8F7080931B1BD2
:102960002FBF9F3009F06AC081E4E1ECFAE1DF019A
:102970001D928A95E9F780E4E7E2FBE1A1ECBAE178
:1029800001900D928A95E1F787E00E94490240E4A8
:1029900050E060E270E087E29BE10E945D221092CD
:1029A0001B1B4CC022952071392F32953F70232B71
:1029B000AC0136E0569547953A95E1F74F73982F5D
:1029C0009F719695382F317085FF04C0822F891B27
:1029D000431B03C0822F890F430F0FB7F894E7E61C
:1029E000FBE116E0DF01212F1D922A95E9F71F92E6
:1029F0004F931F928F9384E093E09F938F93FF9365
:102A0000EF930E94F9220FBFE2E0FBE1DF01212FEB
:102A10001D922A95E9F7E7E6FBE1A2E0BBE1019010
:102A20000D921A95E1F787E00E9449028DB79EB793
:102A300008960FB6F8949EBF0FBE8DBF8FB7F8945F
:102A40001092151B8FBF35C58FB7F8949091D90D93
:102A500090930E0293E0909330038FBF80910E020B
:102A60009FB7F89480930D029FBF811122C59FB735
:102A7000F8948091111B9FBF813031F0823009F4AE
:102A80009FC00E949E0515C50E94F30712C51FB77F
:102A9000F89480912E03882321F081E00E948D0814
:102AA00002C00E9419061FBF04C58FB7F894909109
:102AB000410A90930C0293E090932C038FBF809176
:102AC0000C02811101C0809880910C028111F1C427
:102AD00081E08093E60A10926D1B0E945205E9C4C2
:102AE0001092E60A0091250D1091260D80916D1B24
:102AF0008111DFC4FFB6F89480912C03833009F074
:102B00003EC080910C0281113AC08091FF0C882355
:102B100009F4BCC460912D0370E0CB010196A1E0E3
:102B2000B0E08130910511F480E090E0E82FE69567
:102B3000E695E695F0E0E150F34F2081382F3770AD
:102B4000AD0101C0440F3A95EAF7322F342331F03A
:102B500040952423208380932D0306C08617970772
:102B600011F00196DECF8FEF8093410A8FEF8093B3
:102B70000C0281E080932C038AE10E944902FFBE8F
:102B80009FB7F89480910E1B9FBF811192C42FB7FD
:102B9000F89484E080930E1B96E0169507959A951D
:102BA000E1F70F7080918D0590918E05807F802BCD
:102BB00090938E0580938D0585E08093B41A2FBF86
:102BC0000E94480676C46CE270E0C254DF4F8881F0
:102BD0009981CE5BD0400E946422892B11F40C9421
:102BE0004B0D8E010F5F1F4FA80164E972E0C50114
:102BF0000E9495225C01009711F40C944B0D6E011C
:102C000099EAC90ED11C49805A80B50189E992E040
:102C10000E946F22892BD1F44AE050E060E070E01E
:102C2000C2010E94E91F9B012B5633402E3C310507
:102C300010F00C944B0DCC53DF4F6883C45CD04034
:102C4000CB53DF4F7883C55CD040AAC0B5018EE975
:102C500092E00E946F22892B71F44AE050E060E01C
:102C600070E0C2010E94E91FCA53DF4F6883C65C4F
:102C7000D040372E95C0B50185EA92E00E946F22C0
:102C8000892B79F44AE050E060E070E0C2010E94D4
:102C9000E91F8FEF860F893010F00C944B0D262E14
:102CA0007FC0B5018BEA92E00E946F22892B99F5D3
:102CB0005F924F92A0EBB2E0BF93AF931F92F9E007
:102CC000FF93DF92CF920E94BC22D60118961C92ED
:102CD000E981FA81CF0108969A8389838DB79EB7DF
:102CE00008960FB6F8949EBF0FBE8DBF80858C32BC
:102CF00011F00C944B0DCF0109969A8389836CE2F5
:102D000070E00E946422009711F40C944B0D019620
:102D10009A83898345C0B50185EB92E00E946F22BA
:102D2000892BF1F56E0191E8C90ED11C48E250E003
:102D3000B201C6010E948622FE01E755FF4F10A690
:102D4000DF92CF92FF93EF933F92CA53DF4F2881D8
:102D5000C65CD0402F93CB53DF4F2881C55CD04059
:102D60002F93CC53DF4F2881C45CD0402F931F9208
:102D70002F928AEB92E09F938F931F930F930E9461
:102D8000F92248E260E0C8010E94AD098DB79EB704
:102D90000E960FB6F8949EBF0FBE8DBF0C944B0DD0
:102DA000A80164E972E080E090E00E9495225C0155
:102DB000009709F028CF0C944B0DC254DF4F1982B5
:102DC0001882CE5BD040D701AD90BC90A501435096
:102DD0005109B801C6010E945422AC0CBD1CF5017A
:102DE00032971082AE0142545F4F64ED72E0C6012B
:102DF0000E94952250E8B52E06ED12E0009711F4DE
:102E00000C944B0D4AE050E060E070E00E94E91F36
:102E1000603108F04FC0C953DF4F6883C75CD040B2
:102E20000E9498036C012C01B2E04B0E511CF20180
:102E30002B2D11922A95E9F71F92C953DF4F688114
:102E4000C75CD0406F931F930F935F924F920E9485
:102E5000F922F20101900020E9F73197E419F50910
:102E6000D601ED93FC93209134030F900F900F90B7
:102E70000F900F900F902431B0F490913503E92F0B
:102E8000F0E0EE0FFF1FE457F54ED182C08281E0E3
:102E9000890F843119F08093350302C010923503F5
:102EA0002F5F2093340380914A0A811103C088E088
:102EB0000E944902AE0142545F4F64ED72E080E02F
:102EC00090E00E9495229ACF44E050E06AE272E0DE
:102ED000C6010E947822892B11F00C94500DCDB6BA
:102EE000DEB6F701408151815A01F3E0AF1AB10813
:102EF0008DB79EB78A199B090FB6F8949EBF0FBE77
:102F00008DBFADB7BEB711964D0144505109B80100
:102F1000CD010E945422F401EA0DFB1D1082AE0186
:102F20004F5F5F4F64E972E0C4010E9495220097F1
:102F300039F109811A81BC0181EE92E00E946F2271
:102F4000892B71F4B80185EE92E00E946F22892BE3
:102F500039F0B80189EE92E00E946F22892B81F44A
:102F60006CE270E0C8010E94642201969A83898312
:102F7000AE014F5F5F4F64E972E080E090E0D5CF33
:102F80000FB6F894DEBE0FBECDBE0C94500DE0918E
:102F90004903ADE0EA9FC0011124FC01E253F84F60
:102FA00026E0A3EAB5E001900D922A95E1F726E02C
:102FB000E6E1F2E0A9EAB5E001900D922A95E1F789
:102FC000FC01E353F84F978180859093B00580937F
:102FD000AF050385148561857285A80181EB95E0B5
:102FE0000E94542280913C0381111AC080913D03BC
:102FF0008230B1F40E94BA04811114C083EA95E0D2
:103000009093420D8093410D025F1F4F10930E0865
:1030100000930D0881E080933C038093480349C2EC
:1030200085E001C087E090914903BDE09B9FF001DE
:103030001124E353F84F1082911103C00E94300510
:1030400038C2913009F035C20E94D11D32C2809140
:103050004303282F30E04DE1849FF0011124AF019C
:103060004A56524F9091DA07911126C06BED77E0E6
:103070006115710509F1E855F24F86E0DB01019019
:103080000D928A95E1F786E098E09093E2078093AD
:10309000E1075093E4074093E3078CE190E09093BD
:1030A000E6078093E50711E01093DA078AE00E94B3
:1030B000490210934203FDC19DE1929FF001939F4D
:1030C000F00D1124EB56F24F108265E00E9440058E
:1030D000F0C1F090410385E480931108109212082A
:1030E00086E68093160880931508109218081092AF
:1030F00017088FEF8093190888E0F89E800111244B
:10310000D801A35DB54F6D0116964D915C9117974F
:10311000CA01449680931408909313081196ED9178
:10312000FC91129780819181A281B38180932108C3
:1031300090932208A0932308B0932408809124023E
:1031400090912502A0912602B091270280931D083C
:1031500090931E08A0931F08B0932008F601648185
:10316000758185E298E00E945422D60113968C91D5
:1031700080931A0810921C0810921B08E1E1F8E0F5
:1031800040E050E0BA0181919191480F591F611DB3
:10319000711DB8E0E532FB07B1F7CB01AA27BB27C9
:1031A0000097A105B10539F066277727480F591F09
:1031B0006A1F7B1FF2CF4095509560957095509394
:1031C0001C0840931B0880911C0290911D02A09145
:1031D0001E02B0911F028090210890902208A090BA
:1031E0002308B090240840911D0850911E0860915A
:1031F0001F0870912008482559256A257B254823FA
:1032000059236A237B23452B462B472B19F4E1E2F4
:10321000F8E002C0E0E2F2E0408151816281738116
:1032200080959095A095B0954C015D0184229522E2
:10323000A622B72288169906AA06BB0619F480E0D2
:1032400092E030C0D0904703A4E0EA2EBAE0CB2E43
:103250008D2D90E0C89E9001C99E300D1124D9019A
:10326000A558B44E8D909D90AD90BC908416950657
:10327000A606B70631F4D0924703C9018158944E8F
:103280000BC0019683709927D82EEA94E110E0CF05
:103290008093470380E090E090934D0380934C032C
:1032A000009719F00E94C1071DC08091440381114D
:1032B00011C080819181A281B3818093741B90930E
:1032C000751BA093761BB093771B109245030E9449
:1032D000060408C0F801E35DF54F10828F2D0E94AF
:1032E0000C05E7C081E080934003E3C0E0913F0319
:1032F000EE2EF12CBBE0EB9FF0011124E55DF24FC7
:10330000418552858A010C5F1F4F858180934C0A4D
:10331000868180934D0A6781708580E59AE00E94DE
:10332000542210924F0A10924E0AA80156954795C2
:10333000ECE4FAE020E030E080E090E0DC012417EB
:10334000350749F061917191860F971FA11DB11D3D
:103350002F5F3F4FF4CFAD01662777274115510509
:103360006105710539F0AA27BB27840F951FA61F99
:10337000B71FF1CF80959095A095B09590934F0A87
:1033800080934E0A80912D0A811126C08EE29AE028
:10339000892B11F12BE02E9DC0012F9D900D112442
:1033A000845D924F90932F0A80932E0AFF24F3940A
:1033B000F092300A8CE49AE09093320A8093310ABA
:1033C0001093340A0093330AF0922D0A8EE00E9483
:1033D0004902F0923E036DC08BE08E9DF0018F9DFF
:1033E000F00D1124E55DF24F108263C08CB58F7B28
:1033F0008CBD0C94A1119091EF0A8091F00A9093EA
:10340000F80A8093F70A9091F10A8091F20A90935A
:10341000FA0A8093F90A4091F50A5091F60A8A0156
:10342000085F1F4F0093FC0A1093FB0A6091F30A98
:103430007091F40A8FEF9AE00E9454228091350A2D
:1034400081111FC086E39AE0892BD9F08BEE9AE0B8
:103450009093370A8093360A81E18093380A87EF88
:103460009AE090933A0A8093390A10933C0A0093A9
:103470003B0AF092350A8EE00E944902F09237032F
:1034800018C01092EA0A0E94940413C081E080934D
:103490000C0210922C0380917A008F7780937A002F
:1034A0006ECB2FB7F89480918705909188059D7F0A
:1034B0000CC90FB6F8947EBE0FBE6DBEC953DF4F68
:1034C0000FB6F894DEBF0FBECDBFDF91CF911F9135
:1034D0000F91FF90EF90DF90CF90BF90AF909F90B3
:1034E0008F907F906F905F904F903F902F900895B6
:1034F0008FB7F89408958FBF08951F920F920FB65B
:103500000F9211240BB60F922F933F934F935F931B
:103510006F937F938F939F93AF93BF93EF93FF939B
:103520002FB7F89480913D0A90913E0AA0913F0AEE
:10353000B091400A0196A11DB11D80933D0A909360
:103540003E0AA0933F0AB093400A2FBF78940E948E
:10355000B703FF91EF91BF91AF919F918F917F91B1
:103560006F915F914F913F912F910F900BBE0F90F4
:103570000FBE0F901F9018951F920F920FB60F92CB
:1035800011240F900FBE0F901F9018951F920F924D
:103590000FB60F9211240BB60F92CF92DF92EF92DB
:1035A000FF920F931F932F933F934F935F936F93CC
:1035B0007F938F939F93AF93BF93CF93DF93EF93BB
:1035C000FF932EB5E0915603F0915703309739F0F1
:1035D0008091460A9091470AE80FF91F2083809155
:1035E000460A9091470A01969093470A8093460AAB
:1035F0008CB58F778CBDC091460AD091470A209137
:103600006E1B30916F1BC217D307D8F500910808C5
:1036100010910908C0905603D0905703CE010A9626
:103620002817390708F4C9017C0121E0E21AF108E2
:10363000CE15DF05A0F40115110529F0F801EC0FF6
:10364000FD1F808101C080E00E94E602C114D10408
:1036500021F0F601EC0FFD1F80832196E9CF8CB598
:1036600080688CBD0115110531F0F801EC0FFD1FCC
:1036700080818EBD01C01EBCD093470AC093460A0C
:1036800011C010925703109256031092090810921D
:10369000080810926F1B10926E1B1092470A10922E
:1036A000460A8EB5FF91EF91DF91CF91BF91AF9117
:1036B0009F918F917F916F915F914F913F912F914A
:1036C0001F910F91FF90EF90DF90CF900F900BBE66
:1036D0000F900FBE0F901F9018951F920F920FB66C
:1036E0000F9211240F900FBE0F901F9018951F92EC
:1036F0000F920FB60F9211240F900FBE0F901F90D4
:1037000018951F920F920FB60F9211240BB60F92BD
:103710002F933F934F935F936F937F938F939F93D9
:10372000AF93BF93EF93FF9380E10E944902FF9113
:10373000EF91BF91AF919F918F917F916F915F9129
:103740004F913F912F910F900BBE0F900FBE0F9096
:103750001F9018951F920F920FB60F9211240BB65F
:103760000F922F933F934F935F936F937F938F931A
:103770009F93AF93BF93EF93FF9380910E1B9EEFA8
:10378000980F923008F4EB98833039F0853041F08F
:10379000823049F40E94680206C00E946B0203C096
:1037A00087E10E944902FF91EF91BF91AF919F91F4
:1037B0008F917F916F915F914F913F912F910F90DA
:1037C0000BBE0F900FBE0F901F9018951F920F9277
:1037D0000FB60F9211240F900FBE0F901F901895E7
:1037E0001F920F920FB60F9211240F900FBE0F90E1
:1037F0001F9018951F920F920FB60F9211240F90E1
:103800000FBE0F901F9018951F920F920FB60F9238
:1038100011240F900FBE0F901F9018951F920F92BA
:103820000FB60F9211240BB60F922F933F934F9325
:103830005F936F937F938F939F93AF93BF93EF9318
:10384000FF930E946E028091B900982F987F20917B
:103850002F03243079F1263021F0233009F04DC0B8
:1038600013C080912E03813049F4903429F483E011
:1038700080932F0381E010C084E016C09831E1F7F7
:1038800083E080932F0313C020912E03213039F45D
:10389000807F803541F480E00E948D082EC09832F0
:1038A00031F0903321F081E00E94D70826C00E94B9
:1038B000190623C08091A31B8E7F8093A31B809148
:1038C000240D8F7D983029F0903119F08093240DCC
:1038D000EACF80648093240D91E080912E038130A3
:1038E00009F090E08091420A880F892B8093BB00F9
:1038F00086E080932F030E942A02FF91EF91BF91EF
:10390000AF919F918F917F916F915F914F913F9177
:103910002F910F900BBE0F900FBE0F901F90189518
:103920001F920F920FB60F9211240BB60F922F9386
:103930003F934F935F936F937F938F939F93AF9337
:10394000BF93EF93FF93909106018091100897FD2C
:1039500011C08350883008F07EC080914A0386955C
:1039600080934A039091060196FF75C0806880930A
:103970004A0371C081508093100881116CC08091FE
:103980004A03803E09F464C09091191B911158C0FC
:10399000893549F0803F19F0823149F404C081E053
:1039A0008093191B55C081E08093030851C090910A
:1039B000030860E091111FC091E4262F30E0290F29
:1039C000311D35952795A901440F551FFA01E6557C
:1039D000FE4FE491E81718F461E0620F09C08E17FA
:1039E00018F49FEF920F04C0FA01E555FE4F1EC078
:1039F000961718F72DC091E4262F30E0290F311DBE
:103A000035952795A901440F551FFA01EE5DFE4F2C
:103A1000E491E81718F461E0620F0FC08E1718F4F4
:103A20009FEF920F0AC0FA01ED5DFE4FE491E09323
:103A30004B0A81E00E9449020BC09617E8F608C0C5
:103A40001092191B823111F0893511F4109203087C
:103A50008BE080931008FF91EF91BF91AF919F9100
:103A60008F917F916F915F914F913F912F910F9027
:103A70000BBE0F900FBE0F901F9018951F920F92C4
:103A80000FB60F9211240BB60F922F933F934F93C3
:103A90005F936F937F938F939F93AF93BF93CF93D6
:103AA000EF93FF93209178003091790078944FB78D
:103AB000F8948091711B81FB992790F981704FBF19
:103AC000811122C080917A00877F80937A00809153
:103AD000E60A813019F0823091F036C0911107C0AA
:103AE0008DE790E00E94FD030E9452052DC03093A7
:103AF000260D2093250D8BE10E94490225C09923B4
:103B000079F31092E60A20C0CFB7F8940E947602AB
:103B1000CFBF2FB7F89480917A0086FB992790F950
:103B2000877F806190FB86F98F7780937A00877F0B
:103B300080618F7B8F7780937A00877F80618F7B16
:103B4000806880937A002FBFFF91EF91CF91BF9152
:103B5000AF919F918F917F916F915F914F913F9125
:103B60002F910F900BBE0F900FBE0F901F901895C6
:103B7000CF93DF931F92CDB7DEB789830E943302C4
:103B800089810E94EC028FEF0E94EC028FEF0E946D
:103B9000E60289830E94310289810F90DF91CF91E3
:103BA0000895682F10924203809143039DE1899FFD
:103BB000F0011124EB56F24F10820E9440058DE077
:103BC0000C944902CF93DF93CDB7DEB763970FB65E
:103BD000F894DEBF0FBECDBF0FB7F8944CE150E0B4
:103BE0006FEF70E087EE97E00E945D228FEF809389
:103BF000161B8093781B88EE91E09093181B80939E
:103C0000171B089A099A0A9A10981198129880E03E
:103C1000877F8F7E8F7D8F7B8F7780937A0081E087
:103C200083BF0E9437028F3F19F00E94770AF9CFB5
:103C30001092FF0C8093490A8AED9DE0E3E6FDE0D7
:103C4000819391938E579F4F2DE0E539F207C1F78D
:103C500089E18093E70A1092480A1FEF10930F083A
:103C6000729A739A7498759A0E943502779A6A9A32
:103C70006B9A6C9A6D9A6E9A6F9A82B112B881B1F2
:103C800011B96FE380E00E9478096FE381E00E9440
:103C9000780960EC80E00E94780960EC81E00E9485
:103CA00078098091B60080728093B6008091B6004A
:103CB00081FDFCCF82E08093B0008091B60080FD52
:103CC000FCCF85E08093B1008CE78093B3008091B6
:103CD00070008260809370000E9492026093090DD0
:103CE00070930A0D80930B0D90930C0D80E395E774
:103CF000A0E0B0E080930D0D90930E0DA0930F0DFA
:103D0000B093100D8091110D8E7F82608093110D04
:103D10008CE00E94490280912802909129029093A0
:103D20002602809327020E9437028F3F19F00E94DB
:103D3000770AF9CF0FBF78948FB7F8941092701B61
:103D40008FBF0E94590A9FB7F894809107018F771F
:103D5000809307019FBF9FB7F894809107018F7BE5
:103D6000809307019FBF80916D00806880936D00F4
:103D70008FB7F8949BE0909310081092030810926C
:103D8000191B8FBF809168008460809368009FB783
:103D9000F89480910E1B9FBF811133C09FB7F89498
:103DA00081E080930E1B10920F1B1092101B10923B
:103DB000111B1092121B80E2E3E8F5E0DF01282FCF
:103DC0001D922A95E9F7E3E4FDE0DF011D928A9553
:103DD000E9F79FBF529A5A98519A599853985B980D
:103DE00080916900806880936900809169008F7B71
:103DF000809369004AE050E060E070E082E00E9459
:103E00009E0280EC8093240298EA909325022AE295
:103E10002093260242E0409327023FEF30931C029A
:103E200030931D0230931E0210921F0280932002D5
:103E3000909321022093220231E0309323021F92BB
:103E40004F931F922F931F929F931F928F938EE0F9
:103E500093E09F938F938E010F5F1F4F1F930F93DC
:103E60000E94F9224CE360E0C8010E94AD09109263
:103E70004A0A1092450A0FB6F894DEBF0FBECDBFB6
:103E800080913D03811136C0209A0E943102249A0C
:103E90002C981B8A1A8A8A899B8980329E4430F426
:103EA0008A899B8901969B8B8A8BF5CF2C9A1B8ADA
:103EB0001A8A8A899B8980329E4430F48A899B8938
:103EC00001969B8B8A8BF5CF52985A9A84E08CBBD3
:103ED00080916900806280936900809169008F7E83
:103EE00080936900EA9A0E94BA04811103C081E0BC
:103EF00080933D034AE060E083E293E00E94AD09D5
:103F00001FB7F8940E9437028F3F09F058C0809184
:103F10007000837089F08091B6008A71E1F780911A
:103F2000B3009091B200891B883040F08091B200BC
:103F3000893F20F483E003C085E001C082E0E09186
:103F40006E00E67029F590916F009E7221F5E09168
:103F50007100EE72E9F4909172009E72E1F4E091CA
:103F60007300EE72A9F40CB407FC15C09091C10067
:103F7000987189F4E091C900E87151F49091BC0006
:103F800092FD09C090917A0097FD04C0E5E003C05E
:103F9000E0E001C0E1E093B78E1708F4E82FF0E00D
:103FA000E45EFE4F8491E92FE07FE160E82BE3BF00
:103FB00078948895F89483B78E7F83BFA3CF1FBF73
:103FC0000E94770A9DCFEE0FFF1F0590F491E02D20
:103FD00009942F923F924F925F926F927F928F92AD
:103FE0009F92AF92BF92CF92DF92EF92FF920F9388
:103FF0001F93CF93DF935C016B017A01611571050B
:1040000019F0FB0191838083E114F10429F0C701C9
:104010000297839708F0F1C0E5012196F501108120
:10402000812F90E00E944C22892B11F05E01F4CF89
:104030001D3229F42196F501118101E007C01B32E0
:1040400021F4E5012296F501118100E0E114F1046B
:1040500059F1F0E1EF16F10461F41033E1F48881D5
:104060008F7D883569F519812296026070E1E72E0F
:10407000F12C88E0E816F10439F12CF4F2E0EF16A7
:10408000F104C9F12AC08AE0E816F10479F0E0E110
:10409000EE16F10411F550E1E52EF12C812C912C56
:1040A000A12C68E0B62E2CC01033C9F23AE0E32E02
:1040B000F12C4CEC842E982CA82C4CE0B42E20C073
:1040C00010E3E114F104A9F698E0E92EF12C812C1B
:1040D000912CA12C20E1B22E13C060E070E080E0B2
:1040E00090E89701442737FD4095542F0E94E3251F
:1040F00049015A0105C0812C912CA12C80E4B82ED5
:1041000060E020E030E0A9012701662457FC6094BC
:10411000762C1E01E0EDE10FEA3060F08FEB810FAD
:104120008A3110F4E9EC05C08FE9810F8A3128F556
:10413000E9EAE10F8E2F90E08E159F05F4F467FDFC
:1041400018C082169306A406B50690F0C301B2010A
:104150000E94D3259B01AC012E0F311D411D511D25
:10416000213031054105F0E85F0710F461E001C03E
:104170006FEF2196F1011081CCCF802F8170C11497
:10418000D10471F0662329F02197F601D183C08311
:1041900007C001FF19C02297F601D183C08314C064
:1041A00067FF12C0811105C02FEF3FEF4FEF5FE7B0
:1041B00004C020E030E040E050E882E290E09093DC
:1041C000A51B8093A41B16C0882341F050954095F1
:1041D000309521953F4F4F4F5F4F0CC057FF0AC09E
:1041E00082E290E09093A51B8093A41B2FEF3FEFFA
:1041F0004FEF5FE7B901CA0104C060E070E080E002
:1042000090E0DF91CF911F910F91FF90EF90DF90A1
:10421000CF90BF90AF909F908F907F906F905F9066
:104220004F903F902F9008952F923F924F925F9220
:104230006F927F928F929F92AF92BF92CF92DF92B6
:10424000EF92FF920F931F93CF93DF9300D000D094
:1042500000D0CDB7DEB75C016B017A016115710545
:1042600019F0DB018D939C93E114F10429F0C7014F
:104270000297839708F0DCC03501BFEF6B1A7B0A09
:10428000F5011081812F90E00E944C22892B11F0C2
:104290005301F2CF1D3249F43501F2E06F0E711C6B
:1042A000D50111961C9101E009C01B3231F4350192
:1042B000B2E06B0E711CF501118100E0E114F10414
:1042C00009F4C4C0F0E1EF16F10489F4103399F554
:1042D000D3018C918F7D883509F0B2C011961C9165
:1042E000B2E06B0E711C026050E1E52EF12CEAE0A9
:1042F000EE16F10409F4B0C0F0E1EF16F104D9F0C4
:1043000028E0E216F10451F438E0E32EF12C882481
:104310008A94982CA82C4FE1B42E13C06FEF7FEF36
:10432000CB019701442737FD4095542F0E94E32588
:1043300049015A0106C088248A94982CA82C2FE0A1
:10434000B22E7E826D8260E020E030E0A90127017C
:10435000662457FC6094762C2D803E80E0EDE10FC2
:10436000EA3060F08FEB810F8A3110F4E9EC05C080
:104370008FE9810F8A3190F5E9EAE10F8E2F90E005
:104380008E159F055CF56F3F09F182169306A40612
:10439000B506D8F0C301B2010E94D3252E2F30E01C
:1043A00040E050E029833A834B835C83260F371F1C
:1043B000481F591F89819A81AB81BC812817390711
:1043C0004A075B0710F061E001C06FEFED81FE81ED
:1043D0003196FE83ED83D1011C91BECFC114D1046F
:1043E00089F0662339F08D819E810197F6019183D2
:1043F000808308C001FF06C08D819E810297D6018F
:104400008D939C9300FF07C0509540953095219562
:104410003F4F4F4F5F4F67FF10C082E290E0909395
:10442000A51B8093A41B6FEF7FEF8FEF9FEF1BC047
:1044300060E070E080E090E016C0B901CA0113C0EE
:1044400010E3E114F10409F45FCF51CF103309F404
:104450003FCF9AE0E92EF12C89E9882E982CA82CE0
:1044600089E1B82E6ECF26960FB6F894DEBF0FBE48
:10447000CDBFDF91CF911F910F91FF90EF90DF9013
:10448000CF90BF90AF909F908F907F906F905F90F4
:104490004F903F902F9008959111D6C2803219F01D
:1044A00089508550D0F70895FB01DC0102C00190CE
:1044B0000D9241505040D8F70895DC0101C06D9332
:1044C00041505040E0F70895FC018191861721F09A
:1044D0008823D9F7992708953197CF010895FB01D3
:1044E000DC018D91019080190110D9F3990B089589
:1044F000FB01DC014150504030F08D91019080195A
:1045000019F40020B9F7881B990B0895FB01DC0111
:104510004150504048F001900D920020C9F701C071
:104520001D9241505040E0F70895FA01A191B081E9
:10453000009719F41097E1F0CD01DC01CD010D9049
:10454000002011F4C00113C0FB012191222319F0B6
:104550002015D9F7F3CFFB012191201519F41E92F4
:10456000119606C02223C1F70D900020A1F7D001BB
:10457000FA01A193B08308950F931F93CF93DF9314
:10458000CDB7DEB72E970FB6F894DEBF0FBECDBF06
:104590000D891E898F89988D26E02C831A830983C3
:1045A00097FF02C080E090E801979E838D83AE0163
:1045B000455E5F4F698D7A8DCE0101960E94292359
:1045C0004D815E8157FD0AC02F8138854217530700
:1045D0000CF49A01F801E20FF31F10822E960FB629
:1045E000F894DEBF0FBECDBFDF91CF911F910F9129
:1045F00008950F931F93CF93DF93CDB7DEB72E9718
:104600000FB6F894DEBF0FBECDBF0D891E8986E0C0
:104610008C831A8309838FEF9FE79E838D83AE017E
:10462000475E5F4F6F89788DCE0101960E942923E6
:104630002F813885F801E20FF31F10822E960FB6F6
:10464000F894DEBF0FBECDBFDF91CF911F910F91C8
:1046500008952F923F924F925F926F927F928F9226
:104660009F92AF92BF92CF92DF92EF92FF920F9301
:104670001F93CF93DF93CDB7DEB72C970FB6F89487
:10468000DEBF0FBECDBF7C016B018A01FC0117822A
:104690001682838181FFBDC1CE0101964C01F701D5
:1046A0009381F60193FD859193FF81916F0188239A
:1046B00009F4ABC1853239F493FD859193FF819163
:1046C0006F01853229F4B70190E00E943D25E7CFC4
:1046D000512C312C20E02032A0F48B3269F030F4E0
:1046E000803259F0833269F420612CC08D3239F068
:1046F000803339F4216026C02260246023C0286002
:1047000021C027FD27C030ED380F3A3078F426FF5E
:1047100006C0FAE05F9E300D1124532E13C08AE0CC
:10472000389E300D1124332E20620CC08E3221F4BD
:1047300026FD6BC1206406C08C3611F4206802C0CF
:10474000883641F4F60193FD859193FF81916F01C5
:104750008111C1CF982F9F7D9554933028F40C5F21
:104760001F4FFFE3F9830DC0833631F0833771F0BB
:10477000833509F05BC022C0F801808189830E5F18
:104780001F4F44244394512C540115C03801F2E0CA
:104790006F0E711CF801A080B18026FF03C0652D4B
:1047A00070E002C06FEF7FEFC5012C870E943225B9
:1047B0002C0183012C852F77222E17C03801F2E0BF
:1047C0006F0E711CF801A080B18026FF03C0652D1B
:1047D00070E002C06FEF7FEFC5012C870E94272594
:1047E0002C012C852068222E830123FC1BC0832DE5
:1047F00090E048165906B0F4B70180E290E00E94BC
:104800003D253A94F4CFF50127FC859127FE81914F
:104810005F01B70190E00E943D2531103A94F1E02C
:104820004F1A51084114510471F7E5C0843611F054
:10483000893639F5F80127FF07C0608171818281CF
:1048400093810C5F1F4F08C060817181882777FDBD
:104850008095982F0E5F1F4F2F76722E97FF09C0FD
:1048600090958095709561957F4F8F4F9F4F2068F1
:10487000722E2AE030E0A4010E947525A82EA81807
:1048800044C0853729F42F7EB22E2AE030E025C0BF
:10489000F22FF97FBF2E8F36C1F018F4883579F0EA
:1048A000B4C0803719F0883721F0AFC02F2F2061B6
:1048B000B22EB4FE0DC08B2D8460B82E09C024FF2B
:1048C0000AC09F2F9660B92E06C028E030E005C0D0
:1048D00020E130E002C020E132E0F801B7FE07C07D
:1048E00060817181828193810C5F1F4F06C060815E
:1048F000718180E090E00E5F1F4FA4010E9475253A
:10490000A82EA818FB2DFF777F2E76FE0BC0372D23
:104910003E7FA51450F474FE0AC072FC08C0372D07
:104920003E7E05C0BA2C372D03C0BA2C01C0B52C71
:1049300034FF0DC0FE01EA0DF11D8081803311F4BA
:10494000397E09C032FF06C0B394B39404C0832FEC
:10495000867809F0B39433FD13C030FF06C05A2C9B
:10496000B31418F4530C5B18B32CB31468F4B701E8
:1049700080E290E03C870E943D25B3943C85F5CFD2
:10498000B31410F43B1801C0312C34FF12C0B7012E
:1049900080E390E03C870E943D253C8532FF17C0B4
:1049A00031FD03C088E790E002C088E590E0B701E0
:1049B0000CC0832F867859F031FF02C08BE201C012
:1049C00080E237FD8DE2B70190E00E943D25A514FD
:1049D00038F4B70180E390E00E943D255A94F7CF68
:1049E000AA94F401EA0DF11D8081B70190E00E94C4
:1049F0003D25A110F5CF332009F451CEB70180E257
:104A000090E00E943D253A94F6CFF7018681978188
:104A100002C08FEF9FEF2C960FB6F894DEBF0FBE4B
:104A2000CDBFDF91CF911F910F91FF90EF90DF905D
:104A3000CF90BF90AF909F908F907F906F905F903E
:104A40004F903F902F900895992788270895FC0153
:104A50000590615070400110D8F7809590958E0FA9
:104A60009F1F0895FC016150704001900110D8F71C
:104A7000809590958E0F9F1F08950F931F93CF934E
:104A8000DF93FB01238121FD03C08FEF9FEF28C03F
:104A900022FF16C046815781248135814217530772
:104AA00044F4A081B1819D012F5F3F4F318320836A
:104AB0008C93268137812F5F3F4F3783268310C029
:104AC000EB01092F182F0084F185E02D0995892B22
:104AD000E1F68E819F8101969F838E83812F902F97
:104AE000DF91CF911F910F910895FA01AA272830E5
:104AF00051F1203181F1E8946F936E7F6E5F7F4FAB
:104B00008F4F9F4FAF4FB1E03ED0B4E03CD0670F26
:104B1000781F891F9A1FA11D680F791F8A1F911D79
:104B2000A11D6A0F711D811D911DA11D20D009F4C9
:104B300068943F912AE0269F11243019305D31930B
:104B4000DEF6CF010895462F4770405D4193B3E0F4
:104B50000FD0C9F7F6CF462F4F70405D4A3318F09B
:104B6000495D31FD4052419302D0A9F7EACFB4E04C
:104B7000A6959795879577956795BA95C9F7009704
:104B80006105710508959B01AC010A2E06945795A5
:104B9000479537952795BA95C9F7620F731F841FFC
:104BA000951FA01D0895DB018F939F930E940526FA
:104BB000BF91AF91A29F800D911DA39F900DB29FB9
:104BC000900D11240895A1E21A2EAA1BBB1BFD0112
:104BD0000DC0AA1FBB1FEE1FFF1FA217B307E407DC
:104BE000F50720F0A21BB30BE40BF50B661F771F34
:104BF000881F991F1A9469F7609570958095909514
:104C00009B01AC01BD01CF0108950E941026A59F14
:104C1000900DB49F900DA49F800D911D11240895B7
:104C2000A29FB001B39FC001A39F700D811D1124ED
:104C3000911DB29F700D811D1124911D0895F8944E
:024C4000FFCFA4
:104C4200FFFFFFFFFFFFFFFFFFFFFFFF01FF01FF6E
:104C5200FFFFFFFF0006010203040506FFFF00003D
:104C62000A3C00010A3C000A010065727200006FF2
:104C72006B0000207F050706083202456E746572DC
:104C8200206368616E6E656C3A00526164696F20E0
:104C9200696E697469616C697A65642E0052616437
:104CA200696F20696E6974206661696C65642100B0
:104CB20025750074756E656420746F207374617459
:104CC200696F6E006E6578742073746174696F6EBB
:104CD200002564003D0069640066726571007069B8
:104CE200636F646500716469616C006E616D65007B
:104CF200252D3873006E6F746500713D25642C6636
:104D02003D25642C703D25642C6E3D25732C6E3D33
:104D120025730A002C006765740D69643D25640AD9
:104D220000636D64006164640075706461746500A1
:104D32003100320033003400350036006100620079
:104D420063006600253032643A25303264003E2525
:104D52003033642E253033642E253033642E2530D3
:0C4D6200336400696E697420666D000007
:00000001FF
