:100000000C94FD010C946B0D0C94750D0C947F0DEC
:100010000C94890D0C94BE0D0C94C80D0C94D20D4B
:100020000C94DC0D0C941C020C941C020C94B10E6C
:100030000C941C020C94680E0C941C020C94A70ED9
:100040000C941C020C941C020C941C020C941C02B8
:100050000C941C020C941C020C941C020C941C02A8
:100060000C941C020C941C020C941C020C941C0298
:100070000C941C020C946B0F0C941C020C941C022C
:100080000C941C020C941C020C941C020C941C0278
:100090000C941C020C941C020C941C020C94E60D93
:1000A0000C941C020C941C020C941C020C941C0258
:1000B0000C941C020C941C020C941C020C941C0248
:1000C0000C941C020C941C020C941C020C941C0238
:1000D0000C941C020C941C020C941C020C941C0228
:1000E0000C941C027B08C908FF080E0914091A09A0
:1000F00032095609500AE00AA80BCC0BDA0B220C85
:10010000B00CCB0C00020E060C040D090E78155134
:1001100016211A591B531C411D571E2221432258D8
:10012000234424452578262329202A562B462C545F
:100130002D522E25314E324233483447355A362619
:10014000394C3A4D3B4A3C553D2F3E28413B424BB2
:100150004349444F453D4629493A4A5F4B4C4C7808
:100160004D504E3F5278547855605A0A5B5E5D2A76
:10017000613E660869316B346C377030712C7232B5
:10018000733574367538792B7A337B2D7C2A7D391B
:1001900000000D090E7C157116311A791B731C6154
:1001A0001D771E322163227823642465253426338B
:1001B00029202A762B662C742D722E35316E3262F0
:1001C00033683467357A3636392C3A6D3B6A3C757C
:1001D0003D373E38412C426B4369446F45304639C8
:1001E000492E4A2D4B6C4C6F4D704E2B526F546FF5
:1001F000555C5A0A5B785D27613C660869316B344F
:100200006C377030712C7232733574367538792BC7
:100210007A337B2D7C2A7D3900000000000000002D
:10022000005F00000007000700147F147F14242AD9
:100230007F2A1223130864623649552250000503B1
:100240000000001C2241000041221C00082A1C2A38
:100250000808083E08080050300000080808080890
:10026000006060000020100804023E5149453E0035
:10027000427F400042615149462141454B311814AB
:10028000127F1027454545393C4A494930017109DB
:1002900005033649494936064949291E00363600C4
:1002A00000005636000000081422411414141414DF
:1002B00041221408000201510906324979413E7E6B
:1002C0001111117E7F494949363E414141227F410A
:1002D00041221C7F494949417F090901013E4141B1
:1002E00051327F0808087F00417F41002040413F94
:1002F000017F081422417F404040407F0204027F7A
:100300007F0408107F3E4141413E7F090909063EB6
:100310004151215E7F091929464649494931010168
:100320007F01013F4040403F1F2040201F7F201899
:10033000207F631408146303047804036151494562
:100340004300007F4141020408102041417F00002A
:100350000402010204404040404000010204002029
:10036000545454787F4844443838444444203844F2
:1003700044487F3854545418087E09010208145424
:10038000543C7F0804047800447D40002040443DF4
:1003900000007F10284400417F40007C041804784E
:1003A0007C0804047838444444387C141414080845
:1003B0001414187C7C080404084854545420043F46
:1003C0004440203C4040207C1C2040201C3C4030CD
:1003D000403C44281028440C5050503C4464544C39
:1003E00044000836410000007F000000413608004C
:1003F00008082A1C08081C2A080811241FBECFEF71
:10040000D1E2DEBFCDBF12E0A0E0B2E0EEE5FBE25C
:1004100000E00BBF02C007900D92A638B107D9F7D4
:1004200013E0A6E8B2E001C01D92AF33B107E1F7D7
:100430000E94E50F0C94AD150C9400008091F3021E
:100440008093BC00089576980895769A08958091D7
:1004500030038F3F69F0E82FF0E0E654FD4F9081C4
:10046000909330039F3F11F490933B039FEF908351
:1004700008959FB7F894E82FF0E0E654FD4F2081EF
:100480002F3F99F4E0913B03E81779F02091300376
:100490002F3F19F48093300304C0F0E0E654FD4F81
:1004A000808380933B0380E001C085E09FBF089577
:1004B00088E00C94390289E00C9439028FB7F894E3
:1004C0009091BC009093F3028FBF0895ECE7F0E0A9
:1004D000208180917B00308190818870880F880F07
:1004E0002F71822B35FB222720F920FB86F992956C
:1004F000969596959370292F279522272795822BDD
:10050000969508952FB7F8946091D5027091D60210
:100510008091D7029091D8022FBF08952FB7F894F9
:1005200080919202882309F14091F6025091F702DE
:100530006091F8027091F9028091CC029091CD0205
:10054000A091CE02B091CF02840F951FA61FB71FB6
:100550004091D5025091D6026091D7027091D80295
:10056000481759076A077B0711F02FBF08951092AB
:1005700092022FBF8CE00C9439024FB7F89420916F
:100580002203309123034FBF232BD9F49C012B5618
:1005900033402E3C3105A8F42FB7F89442E050E0E8
:1005A000509323034093220310922D0310922C03A7
:1005B00090933A03809339032FBF0E94580280E042
:1005C000089581E008959FB7F89420912203309117
:1005D00023039FBF232B99F49FB7F89423E030E0C7
:1005E000309323032093220310922F0310922E03A3
:1005F00080931C039FBF0E945B0280E0089581E00E
:100600000895019701960197019601970196019728
:10061000C1F708951F93CF93DF938FB7F894C091DC
:100620008A02C1113DC011E010938A0210921A0390
:100630008FBFDFB7F89480918902811117C050985D
:1006400051981092B90081E48093B8001092BA00DA
:100650001092BC000E945E028091F3028E7F846043
:100660008093F3020E941E0210938902DFBFDFB75E
:10067000F89480910202813089F480918A0281305D
:1006800021F48AE00E94390209C0823039F4809155
:100690001A038093020283E080938A02DFBF1DC0A9
:1006A000C0911A03CC23C1F09091D3029F3F99F4DB
:1006B000E0910302EE2379F0909104029F3F19F438
:1006C0001092040204C0F0E0ED52FD4F108210922F
:1006D0000302C0E001C0C5E08FBF8C2FDF91CF9136
:1006E0001F910895CF932FB7F89480912403909190
:1006F00025032FBF009781F42FB7F89481E090E095
:1007000090932903809328039093250380932403D7
:100710002FBFCF910C940A03019709F044C08FB703
:10072000F8949091010291113CC08FBF8FB7F8945B
:10073000909189029130A9F522E0209389028FBF20
:100740008FB7F89420E130E03093DB022093DA0297
:100750002AEF32E03093D2022093D10220E220939C
:10076000910223E020933C0310921D039093880292
:100770008FBF0E945E02CFB7F8948091F3028F7A08
:10078000816A8093F30284E0809389020E941E02B2
:10079000CFBF8FB7F89410922503109224038FBF18
:1007A00002C08FBFBCCFCF910895CF92DF92EF925E
:1007B000FF926B017C010E948202E1EEF2E0608315
:1007C000718382839383C482D582E682F782E9EEC5
:1007D000F2E080818160826080838DE0FF90EF9005
:1007E000DF90CF900C9439020F931F93CF93DF9338
:1007F00080913503882309F43FC010E0C0E0DFE1B9
:100800000FB7F894809138038E7F809338030E944D
:100810006602282F2F73881F8827881F9170990FD1
:10082000892B181302C091E0D21390E08091380315
:1008300090FB81F99D2F9F73990F990F8370892BDE
:10084000809338031111D064D0937C0080917B0099
:10085000877F80937B00909138038C2F8860806124
:1008600090FB85F98064806880937A000FBFDF91E8
:10087000CF911F910F910895C7E011E0D0E0C0CF54
:10088000CF93DF93CFB7F8940E945E028091F3027A
:100890008E7F80698093F3020E941E02CFBFDFB774
:1008A000F89480918A028330C1F5C0910202C1118F
:1008B00034C0809104028F3FC1F0E82FF0E0ED5288
:1008C000FD4F9081909304029F3F11F49093030297
:1008D0009FEF908380931A039093020281E08093AC
:1008E0008A028AE00E94390216C081E080930202E7
:1008F00010928A0280918902813069F40E945E021E
:100900008091F3028A768093F3020E941E02589827
:10091000599810928902DFBF02C0DFBFC1E08C2F5F
:10092000DF91CF910895CF93DF93C0912203D091AF
:100930002303813021F4DF91CF910C9472030E9444
:100940004004109229031092280340E050E02AE06E
:10095000DA01A650BD4FE22FF0E0EE0FFF1FE65682
:10096000FD4F8C9190E0982F882711963C91832B16
:10097000918380832F5F2F704E5F5F4F4032510510
:1009800039F7C230D10551F0C330D10559F0219764
:1009900069F487E0DF91CF910C943902DF91CF9118
:1009A0000C945802DF91CF910C945B02DF91CF91B0
:1009B0000895811110C08091BB0090911D03E091BA
:1009C000D102F091D202E90FF11D808380911D03C5
:1009D0008F5F80931D0320911D0380919102281742
:1009E00088F430E090E001972817390749F48091A6
:1009F0003C0382FD05C08091F3028F7B8093F3025C
:100A00000C941E028091F302282F2E7F90913C03BC
:100A100091FF0AC09D7F90933C03822F8061809359
:100A2000F3028091B90003C08E778093F3020E9495
:100A30001E0281E08093890280910102811102C02F
:100A40000C9493040895CF92DF92EF92FF920F934C
:100A50001F938B019C01E091E902E1FF1BC04091D3
:100A6000E1025091E2026091E3027091E402809110
:100A7000E5029091E602A091E702B091E8026801D8
:100A80007901C41AD50AE60AF70AC816D906EA0691
:100A9000FB0608F5E091F202E1FF86C04091EA0210
:100AA0005091EB026091EC027091ED028091EE02A8
:100AB0009091EF02A091F002B091F102041B150B8E
:100AC000260B370B081719072A073B0708F46CC0D9
:100AD00021E030E002C020E030E0E0FF0CC089E01F
:100AE000829FF001839FF00D1124E751FD4F80811B
:100AF0008D7F808310C019E0129FF001139FF00DCD
:100B00001124EF51FD4F840F951FA61FB71F80833F
:100B10009183A283B383213071F02FB7F894809131
:100B20002203909123032FBF019709F03DC087E076
:100B30000E94390239C09FB7F894809186028111D2
:100B400027C081E0809386021092D9029FBF9FB791
:100B5000F89480917A00806880937A009FBF1FB7D5
:100B6000F89480910002813089F48091860281306E
:100B700021F48EE00E94390209C0823039F480915C
:100B8000D9028093000283E0809386021FBF0CC0CD
:100B90008091D902882339F08091E00280FD03C062
:100BA00081608093E0029FBF8DE01F910F91FF90C5
:100BB000EF90DF90CF900C943902CF932FB7F89439
:100BC00080912603909127032FBF009799F59FB737
:100BD000F89480911B03880F82509FBF20E092E021
:100BE0002817B0F43FB7F894422F50E0E92FF0E017
:100BF000EE0FFF1FE656FD4F60817181FA01E6504E
:100C0000FD4F708361833FBF9F5F9F702E5FE8CF72
:100C10008FB7F89422E030E0309329032093280323
:100C200021E030E030932703209326038FBFCF913C
:100C30000C940A03019709F047C09FB7F89480917C
:100C40001B039FBF9FB7F894209101022111F9CF98
:100C50009FBF9FB7F89420918902213091F722E03D
:100C6000209389029FBF9FB7F89420E130E0309332
:100C7000DB022093DA022AEF32E03093D202209393
:100C8000D102880F82508093910283E080933C03CD
:100C900010921D03109288029FBF0E945E02CFB780
:100CA000F8948091F3028F7E816E8093F30284E04A
:100CB000809389020E941E02CFBF8FB7F8941092D2
:100CC0002703109226038FBFCF910895CF93DF9310
:100CD00090910102911130C0C0912203D091230361
:100CE000813021F4DF91CF910C94DD050E94400406
:100CF0001092290310922803C330D105A9F048F4BB
:100D0000C130D10561F02297B9F4DF91CF910C94F5
:100D10005802C430D10561F0259751F00DC087E02D
:100D2000DF91CF910C943902DF91CF910C945B024B
:100D30001092230310922203DF91CF9108958091A6
:100D40001D0390919102891780F4E091D102F091F6
:100D5000D202E80FF11D80818093BB0080911D03BA
:100D60008F5F80931D030C941E028091F302282F45
:100D70002E7F90913C0391FF06C09D7F90933C0392
:100D8000822F806101C08E778093F3020E941E0241
:100D900081E08093890280E00C946606CF93DF9314
:100DA0001F92CDB7DEB789830E945E029091F30255
:100DB0009A7F9093F3020E941E020E945E0290911D
:100DC000F30294609093F3020E941E0291E09093CC
:100DD0008902909188028981992349F090910102BA
:100DE00091110AC00F90DF91CF910C9493040F9052
:100DF000DF91CF910C9466060F90DF91CF9108950B
:100E0000882329F0813029F47298739A02C073986C
:100E1000729A82B182B981B111B87498759A0E94A0
:100E2000250282E090E00E94010380B1079B0DC083
:100E30000E94230282E090E00E9401030E942502AA
:100E400082E090E00E940103F1CF0E942302759896
:100E500081B18FEF81B90895CF93DF931F92CDB702
:100E6000DEB70E94000781B111B8749A759A0E948A
:100E7000250282E090E00E94010380B10E942302DB
:100E800082E090E00E9401030E94250282E090E04F
:100E90000E94010380B189830E94230289810F90FF
:100EA000DF91CF910895CF93DF931F92CDB7DEB737
:100EB00069830E940007698162B981B18FEF81B9AE
:100EC000749A75980E94250282E090E00E940103C6
:100ED0000E94230280E00F90DF91CF910895CF937D
:100EE000DF931F92CDB7DEB769830E940007749825
:100EF00075980E94250281B18FEF81B9698162B92D
:100F000082E090E00E9401030E94230280E00F90A3
:100F1000DF91CF910895CF93DF93982FC62FD82FCD
:100F2000D295D695D695D37081E0D8279F73692F37
:100F300060648D2F0E946F076C2F6770686B8D2F18
:100F4000DF91CF910C946F072F923F924F925F9257
:100F50006F927F928F929F92AF92BF92CF92DF92C9
:100F6000EF92FF920F931F93CF93DF938C01D62FB5
:100F700090E055E0952E88248394EE24E394F12CA0
:100F8000F80121918F01222309F469C02A3011F060
:100F90002D3019F4D85F512C60C0293021F44AE07B
:100FA000542E590E5AC036E0532E590E332727FDC2
:100FB0003095203231050CF450C020523109929EF8
:100FC000A001939E500D11249A01265E3D4F5901B8
:100FD0008BE0D82ED90EC52D99EF492E4D0E742CCD
:100FE000F5012490C6FBCC24C0F8C824372C3694D5
:100FF00036943694F72DF7706F2E632D8C2F20FECC
:101000000DC00E948B078C2D0E942C07B70101C0D8
:10101000660F6A94EAF7682E662A0DC00E948B0755
:101020008C2D0E942C07970101C0220F6A94EAF7C9
:101030002095682E6222632D8C2F0E948B07662DCF
:101040008C2D0E945307269473947D12CFCFCF5FCF
:101050002FEFA21AB20ACD11C2CF952D91CFDF91F9
:10106000CF911F910F91FF90EF90DF90CF90BF90A5
:10107000AF909F908F907F906F905F904F903F9038
:101080002F900895CF93DF93C0E06C2F80E00E94F3
:101090008B076C2F80E40E948B07D0E060E080E03B
:1010A0000E94530760E081E00E945307DF5FD03861
:1010B000A9F7CF5FC83049F780E0DF91CF9108955D
:1010C0008F929F92AF92BF92CF92DF92EF92FF9258
:1010D0000F931F93CF93DF9300D000D01F92CDB713
:1010E000DEB790E08031910508F0DEC4FC01EE58D7
:1010F000FF4F0C943A118FB7F8941091DC028FBF18
:101100000E9442086AE08DE092E00E94A407812FCD
:10111000992787FD9095C0970A97A0F49FB7F894F8
:10112000809193029FBF843068F49FB7F8948091B8
:101130009302E82FF0E0ED56FD4F11838F5F80930F
:1011400093029FBF9FB7F89485E0E4E9F2E0DE01E7
:10115000119601900D928A95E1F79FBF64E1CE014F
:1011600001960E94A407173609F09EC44AE050E099
:1011700060E070E0CE0101960E9440112FB7F89414
:1011800041E050E050933703409336032FBFCB012B
:1011900042C09FB7F8948091DC02209136033091D1
:1011A00037039FBF409136035091370341305105BB
:1011B00001F58C3639F0843749F0883609F074C46B
:1011C00080E001C081E00E94E3026EC48FB7F89412
:1011D0001092930295E0E4E9F2E0DF011D929A9506
:1011E000E9F722E030E030933703209336038FBFD6
:1011F00004C02230310509F057C480E0F5C06AE030
:101200008CE192E00E94A4076AE086E292E00E94EC
:10121000A40783E893E00E94BD0246C40E944208EE
:101220006AE086E392E003C06AE089E492E00E940B
:10123000A4073AC42FB7F8948091DE029091DF02A0
:101240002FBF9F938F938CE592E09F938F938E0196
:101250000F5F1F4F1F930F930E9487126AE08FE565
:1012600092E017C02FB7F8948091DE029091DF02D0
:101270002FBF9F938F938CE592E09F938F938E0166
:101280000F5F1F4F1F930F930E9487126AE080E742
:1012900092E00E94A40768E2C8010E94A4070F9090
:1012A0000F900F900F900F900F90FEC32FB7F894F0
:1012B00080912A0390912B032FBF009789F45A9AAB
:1012C00068EE73E080E090E00E94D5038FB7F89459
:1012D00021E030E030932B0320932A038FBFE4C337
:1012E0008130910529F48FB7F89422E030E05FC097
:1012F00082309105A9F42FB7F8948091A8029091BB
:10130000A90290689093A9028093A8021092B90252
:101310001092B8028FE080931B0383E090E027C017
:101320008330910571F48FB7F89424E030E0309366
:101330002B0320932A038FBF68E572E080E090E0E2
:101340002CC084309105C9F42FB7F89480919E0287
:1013500090919F028E7B9F7B8160906490939F020F
:1013600080939E0282E080931B0385E090E090933F
:101370002B0380932A032FBF89C38530910581F405
:101380008FB7F89426E030E030932B0320932A03A4
:101390008FBF66E970E080E090E00E94D50384C3CF
:1013A0008630910561F48FB7F89427E030E03093F0
:1013B0002B0320932A038FBF0E94720375C38730CB
:1013C0009105D1F52FB7F89480919C0290919D02E0
:1013D0002FBF8335924159F08FB7F89410922303B1
:1013E000109222038FBF84E00E9439025DC32FB7A1
:1013F000F8948091A2029091A3028373977B8460FA
:1014000098649093A3028093A20280E199E1909363
:10141000A5028093A4028091A6029091A70288273A
:101420009E7F8F649093A7028093A60286E08093AC
:101430001B0388E090E09BCF089709F035C38FB776
:10144000F89410922303109222038FBF0E9482020D
:101450006093EA027093EB028093EC029093ED02AA
:101460008CE291E0A0E0B0E08093EE029093EF0276
:10147000A093F002B093F1028091F2028E7F82601D
:101480008093F2028DE00E9439028FB7F89421E038
:1014900030E030933703209336038FBF83E0A4CF2F
:1014A0002FB7F89480912C0390912D032FBF0097B4
:1014B000A1F42FB7F8948091390390913A038B5699
:1014C0009340937090689093A1028093A00283E070
:1014D00080931B0381E090E032C08130910549F494
:1014E0008FB7F89422E030E030932D0320932C0343
:1014F000ABC08230910529F48FB7F89423E030E037
:101500002AC08330910501F52FB7F8948091B0027D
:101510009091B102937085599C4F90939002809363
:101520008F028091A0029091A1029F779093A102D7
:101530008093A00283E080931B0384E090E090936B
:101540002D0380932C0317CF8430910549F48FB776
:10155000F89425E030E030932D0320932C032BCF1B
:10156000059709F0A1C22FB7F8948091AE0290912F
:10157000AF0288279074892F99272FBF892BA1F458
:101580008FB7F89410922303109222038FBF2091FB
:101590008F02309190028FB7F8943093DF0220933E
:1015A000DE028FBF85E020CF8FB7F89424E030E0D3
:1015B00030932D0320932C038FBF0E94580274C2D6
:1015C0002FB7F89480912E0390912F032FBF00978F
:1015D00081F52FB7F89480919E0290919F029A7F97
:1015E000916090939F0280939E022FBF80911C0375
:1015F0002FB7882339F0F89480919E0290919F0232
:10160000926006C0F89480919E0290919F029D7F07
:1016100090939F0280939E022FBF8FB7F89492E021
:1016200090931B0321E030E030932F0320932E038F
:101630002CC28130910569F48FB7F89422E030E034
:1016400030932F0320932E038FBF88E08CBBEB9A3F
:101650002BC28230910529F48FB7F89423E030E053
:1016600032C08330910541F52FB7F8948091AE02D6
:101670009091AF028827907290938E028091B00271
:101680009091B102937085599C4F90938D028093F5
:101690008C0280919E0290919F029E7F90939F0268
:1016A00080939E0282E080931B0384E090E09093FD
:1016B0002F0380932E035FCE8430910549F48FB7BA
:1016C000F89425E030E030932F0320932E0373CE5F
:1016D000059709F0E9C12FB7F8948091AE02909177
:1016E000AF0288279074892F99272FBF892B21F566
:1016F00080918E0281110EC08FB7F894109223034F
:10170000109222038FBF20918C0230918D028FB7EF
:10171000F8940BC08FB7F894109223031092220311
:101720008FBF8FB7F8942FEF3FEF3093DF022093F6
:10173000DE028FBF86E058CE8FB7F89424E030E009
:1017400030932F0320932E038FBF0E945B02ACC106
:101750008FB7F89490911A039093020293E09093BC
:101760008A028FBF809102029FB7F8948093010292
:101770009FBF811199C12FB7F89480912803909150
:1017800029032FBF8130910509F416CE029709F481
:101790007DC10E94400488C11FB7F89480918802DF
:1017A000882321F081E00E94D90402C00E949F0694
:1017B0001FBF7AC18091D002811141C040911E03A8
:1017C00050911F0360912003709121032FB7F8946B
:1017D000C090F602D090F702E090F802F090F90283
:1017E0008091CC029091CD02A091CE02B091CF0217
:1017F0008C0D9D1DAE1DBF1D2FBF40931E0350932A
:101800001F0360932003709321031092D0022FB71F
:10181000F89431E0309392028093CC029093CD0201
:10182000A093CE02B093CF024093F6025093F702FA
:101830006093F8027093F9022FBF0E948E020E94FB
:10184000820268C00E9482022FB7F894109292021E
:101850002FBF2091E90221FF28C00091E1021091E1
:10186000E2022091E3023091E4026B017C01C01A94
:10187000D10AE20AF30A97018601C090E502D090EE
:10188000E602E090E702F090E80246015701801A74
:10189000910AA20AB30AE1E02FEF82169206A2068D
:1018A0002FE7B20649F4E0E007C0E0E088248A941C
:1018B000982CA82C2FE7B22E2091F20221FF22C0F3
:1018C0000091EA021091EB022091EC023091ED02BE
:1018D0006B017C01C01AD10AE20AF30A0091EE0200
:1018E0001091EF022091F0023091F1020C191D09C4
:1018F0002E093F09081519052A053B051CF4480166
:10190000590103C0EE2309F4CFC0181419041A04B6
:101910001B041CF00E942305C7C080921E039092F6
:101920001F03A0922003B092210321E02093D00254
:101930003FB7F894209392026093CC027093CD024B
:101940008093CE029093CF028092F6029092F7029B
:10195000A092F802B092F9023FBF0E948E02A4C08A
:101960008FB7F8949091D9029093000293E09093EE
:1019700086028FBF80910002811101C08098809102
:101980000002811191C081E08093DD021092350345
:101990000E94F40389C01092DD020091F4021091BC
:1019A000F5028091350381117FC0FFB6F8948091D4
:1019B0008602833009F03EC08091000281113AC056
:1019C0008091E002882309F464C06091870270E08E
:1019D000CB010196A1E0B0E08130910511F480E0E7
:1019E00090E0E82FE695E695E695F0E0E052FD4FB1
:1019F0002081382F3770AD0101C0440F3A95EAF7C6
:101A0000322F342331F040952423208380938702A2
:101A100006C08617970711F00196DECF8FEF8093EF
:101A2000D9028FEF8093000281E0809386028EE0DE
:101A30000E943902FFBE2FB7F89480912203909143
:101A400023032FBF892B81F58FB7F89424E030E072
:101A500030932303209322038FBF2FB7F89486E09F
:101A6000169507958A95E1F70F708091A4029091E1
:101A7000A502807F802B9093A5028093A4022FBFA4
:101A80008FB7F89495E090931B038FBF0E94DD05FC
:101A90000BC081E0809300021092860280917A0050
:101AA0008F7780937A00C6CF0F900F900F900F9092
:101AB0000F90DF91CF911F910F91FF90EF90DF90EA
:101AC000CF90BF90AF909F908F9008958FB7F8946C
:101AD00008958FBF08951F920F920FB60F92112491
:101AE0000F900FBE0F901F9018951F920F920FB678
:101AF0000F9211240F900FBE0F901F9018951F92F8
:101B00000F920FB60F9211240F900FBE0F901F90DF
:101B100018951F920F920FB60F9211240BB60F92C9
:101B20002F933F934F935F936F937F938F939F93E5
:101B3000AF93BF93EF93FF93809122039091230380
:101B4000EB988230910529F0039729F40E945B02FB
:101B500002C00E945802FF91EF91BF91AF919F91F7
:101B60008F917F916F915F914F913F912F910F9046
:101B70000BBE0F900FBE0F901F9018951F920F92E3
:101B80000FB60F9211240F900FBE0F901F90189553
:101B90001F920F920FB60F9211240F900FBE0F904D
:101BA0001F9018951F920F920FB60F9211240F904D
:101BB0000FBE0F901F9018951F920F920FB60F92A5
:101BC00011240F900FBE0F901F9018951F920F9227
:101BD0000FB60F9211240BB60F922F933F934F9392
:101BE0005F936F937F938F939F93AF93BF93EF9385
:101BF000FF930E945E028091B900982F987F2091F8
:101C00008902243079F1263021F0233009F04DC0CB
:101C100013C080918802813049F4903429F483E024
:101C20008093890281E010C084E016C09831E1F70A
:101C300083E08093890213C020918802213039F417
:101C4000807F803541F480E00E94D9042EC0983214
:101C500031F0903321F081E00E94CE0626C00E9430
:101C60009F0623C080913C038E7F80933C0380912C
:101C7000F3028F7D983029F0903119F08093F302B0
:101C8000EACF80648093F30291E0809188028130F2
:101C900009F090E08091DA02880F892B8093BB00D5
:101CA00086E0809389020E941E02FF91EF91BF910E
:101CB000AF919F918F917F916F915F914F913F91E4
:101CC0002F910F900BBE0F900FBE0F901F90189585
:101CD0001F920F920FB60F9211240BB60F922F93F3
:101CE0003F934F935F936F937F938F939F93AF93A4
:101CF000BF93EF93FF932FB7F8948091D502909103
:101D0000D602A091D702B091D8020196A11DB11DB3
:101D10008093D5029093D602A093D702B093D802B5
:101D20002FBF78940E948E02FF91EF91BF91AF91E7
:101D30009F918F917F916F915F914F913F912F91E3
:101D40000F900BBE0F900FBE0F901F9018951F9213
:101D50000F920FB60F9211240F900FBE0F901F908D
:101D600018951F920F920FB60F9211240BB60F9277
:101D70002F933F934F935F936F937F938F939F9393
:101D8000AF93BF93EF93FF93909106018091D4029C
:101D900097FD11C08350883008F08AC080918B0273
:101DA000869580938B029091060196FF81C0806892
:101DB00080938B027DC081508093D402811178C0C2
:101DC00080918B02803E09F470C0209133033091E2
:101DD0003403232B09F05DC0893561F0803F19F091
:101DE000823179F407C081E090E0909334038093CE
:101DF00033035BC081E090E09093CB028093CA02F2
:101E000054C02091CA023091CB0260E091E4232BB0
:101E100021F5262F30E0290F311D35952795A90191
:101E2000440F551FFA01EE56FE4FE491E81718F4DF
:101E300061E0620F09C08E1718F49FEF920F04C083
:101E4000FA01ED56FE4F1EC0961718F72EC08E17DA
:101E5000B0F49FEF920F961740F1262F30E0290F34
:101E6000311D35952795A901440F551FFA01E65FED
:101E7000FE4FE491E81758F761E0620FECCFFA01EA
:101E8000E55FFE4FE491E093DC0281E00E943902BD
:101E90000CC01092340310923303823111F0893553
:101EA00021F41092CB021092CA028BE08093D402EC
:101EB000FF91EF91BF91AF919F918F917F916F9122
:101EC0005F914F913F912F910F900BBE0F900FBEDE
:101ED0000F901F9018951F920F920FB60F9211241A
:101EE0000BB60F922F933F934F935F936F937F9314
:101EF0008F939F93AF93BF93CF93EF93FF932091D3
:101F000078003091790078944FB7F8948091380335
:101F100081FB992790F981704FBF811122C0809178
:101F20007A00877F80937A008091DD02813019F0FA
:101F3000823091F036C0911107C08DE790E00E9489
:101F400001030E94F4032DC03093F5022093F402A4
:101F50008FE00E94390225C0992379F31092DD02A7
:101F600020C0CFB7F8940E946602CFBF2FB7F89475
:101F700080917A0086FB992790F9877F806190FB9A
:101F800086F98F7780937A00877F80618F7B8F7748
:101F900080937A00877F80618F7B806880937A004E
:101FA0002FBFFF91EF91CF91BF91AF919F918F91F3
:101FB0007F916F915F914F913F912F910F900BBE49
:101FC0000F900FBE0F901F901895DFB7F89440E167
:101FD00050E06FEF70E08AEB92E00E9480128FEF8A
:101FE0008093300380933B0388EE91E0909332031B
:101FF00080933103089A099A0A9A109811981298B6
:1020000080E0877F8F7E8F7D8F7B8F7780937A00B4
:1020100081E083BF0E9427028F3F19F00E94600871
:10202000F9CF1092E0028091B60080728093B600E2
:102030008091B60081FDFCCF82E08093B00080915A
:10204000B60080FDFCCF85E08093B1008CE78093E3
:10205000B30080917000826080937000CFEFC093D6
:10206000D302729A739A7498759A0E942502779A8D
:102070006A9A6B9A6C9A6D9A6E9A6F9A82B112B83C
:1020800081B1C1B96FE380E00E946F076FE381E027
:102090000E946F0760EC80E00E946F0760EC81E0B7
:1020A0000E946F070E9427028F3F19F00E9460086C
:1020B000F9CFDFBF78948FB7F8941092370310925E
:1020C00036038FBF9FB7F894809107018F77809375
:1020D00007019FBF9FB7F894809107018F7B809382
:1020E00007019FBF80916D00806880936D008FB75E
:1020F000F8949BE09093D4021092CB021092CA0203
:1021000010923403109233038FBF80916800846073
:10211000809368002FB7F894809122039091230355
:102120002FBF892BE9F59FB7F89421E030E0309379
:10213000230320932203109225031092240310926C
:10214000270310922603109229031092280310925D
:102150002B0310922A0380E2EAE9F2E0DF01282F44
:102160001D922A95E9F7EAEFF2E0DF011D928A95C8
:10217000E9F79FBF529A5A98519A599853985B9889
:1021800080916900806880936900809169008F7BED
:10219000809369006AE070E080E090E00E94D503DF
:1021A0000E9442086AE08DE792E00E94A407CFB740
:1021B000F8940E9427028F3F09F058C08091700068
:1021C000837089F08091B6008A71E1F78091B30045
:1021D0009091B200891B883040F08091B200893F15
:1021E00020F483E003C085E001C082E0E0916E004E
:1021F000E67029F590916F009E7221F5E0917100D3
:10220000EE72E9F4909172009E72E1F4E091730035
:10221000EE72A9F40CB407FC15C09091C10098713E
:1022200089F4E091C900E87151F49091BC0092FDED
:1022300009C090917A0097FD04C0E5E003C0E0E09A
:1022400001C0E1E093B78E1708F4E82FF0E0EC5FEF
:10225000FE4F8491E92FE07FE160E82BE3BF7894A3
:102260008895F89483B78E7F83BFA3CFCFBF0E949A
:1022700060089DCFEE0FFF1F0590F491E02D0994AB
:102280002F923F924F925F926F927F928F929F9286
:10229000AF92BF92CF92DF92EF92FF920F931F9374
:1022A000CF93DF9300D000D000D0CDB7DEB75C0174
:1022B0006B017A016115710519F0DB018D939C9317
:1022C000E114F10429F0C7010297839708F0DCC0FC
:1022D0003501BFEF6B1A7B0AF5011081812F90E069
:1022E0000E947812892B11F05301F2CF1D3249F46C
:1022F0003501F2E06F0E711CD50111961C9101E0C1
:1023000009C01B3231F43501B2E06B0E711CF501CE
:10231000118100E0E114F10409F4C4C0F0E1EF160A
:10232000F10489F4103399F5D3018C918F7D8835B0
:1023300009F0B2C011961C91B2E06B0E711C0260E4
:1023400050E1E52EF12CEAE0EE16F10409F4B0C0FC
:10235000F0E1EF16F104D9F028E0E216F10451F4AF
:1023600038E0E32EF12C88248A94982CA82C4FE195
:10237000B42E13C06FEF7FEFCB019701442737FDD9
:102380004095542F0E94711549015A0106C08824B6
:102390008A94982CA82C2FE0B22E7E826D8260E069
:1023A00020E030E0A9012701662457FC6094762CD8
:1023B0002D803E80E0EDE10FEA3060F08FEB810F81
:1023C0008A3110F4E9EC05C08FE9810F8A3190F56C
:1023D000E9EAE10F8E2F90E08E159F055CF56F3FC7
:1023E00009F182169306A406B506D8F0C301B2011E
:1023F0000E9461152E2F30E040E050E029833A839F
:102400004B835C83260F371F481F591F89819A8190
:10241000AB81BC81281739074A075B0710F061E0E0
:1024200001C06FEFED81FE813196FE83ED83D10116
:102430001C91BECFC114D10489F0662339F08D817F
:102440009E810197F6019183808308C001FF06C039
:102450008D819E810297D6018D939C9300FF07C0CA
:1024600050954095309521953F4F4F4F5F4F67FFF7
:1024700010C082E290E090933E0380933D036FEFA3
:102480007FEF8FEF9FEF1BC060E070E080E090E097
:1024900016C0B901CA0113C010E3E114F10409F434
:1024A0005FCF51CF103309F43FCF9AE0E92EF12CE2
:1024B00089E9882E982CA82C89E1B82E6ECF269613
:1024C0000FB6F894DEBF0FBECDBFDF91CF911F9145
:1024D0000F91FF90EF90DF90CF90BF90AF909F90C3
:1024E0008F907F906F905F904F903F902F900895C6
:1024F000911138C2803219F089508550D0F7089573
:10250000DC0101C06D9341505040E0F708950F93F6
:102510001F93CF93DF93CDB7DEB72E970FB6F89406
:10252000DEBF0FBECDBF0D891E8986E08C831A8366
:1025300009838FEF9FE79E838D83AE01475E5F4FD8
:102540006F89788DCE0101960E94B7122F81388550
:10255000F801E20FF31F10822E960FB6F894DEBF3B
:102560000FBECDBFDF91CF911F910F9108952F9294
:102570003F924F925F926F927F928F929F92AF9213
:10258000BF92CF92DF92EF92FF920F931F93CF9360
:10259000DF93CDB7DEB72C970FB6F894DEBF0FBE32
:1025A000CDBF7C016B018A01FC01178216828381F9
:1025B00081FFBDC1CE0101964C01F7019381F60167
:1025C00093FD859193FF81916F01882309F4ABC13D
:1025D000853239F493FD859193FF81916F018532A6
:1025E00029F4B70190E00E94CB14E7CF512C312C95
:1025F00020E02032A0F48B3269F030F4803259F0C0
:10260000833269F420612CC08D3239F0803339F483
:10261000216026C02260246023C0286021C027FDDD
:1026200027C030ED380F3A3078F426FF06C0FAE0C4
:102630005F9E300D1124532E13C08AE0389E300D5A
:102640001124332E20620CC08E3221F426FD6BC182
:10265000206406C08C3611F4206802C0883641F42C
:10266000F60193FD859193FF81916F018111C1CF97
:10267000982F9F7D9554933028F40C5F1F4FFFE3F4
:10268000F9830DC0833631F0833771F0833509F05B
:102690005BC022C0F801808189830E5F1F4F4424F4
:1026A0004394512C540115C03801F2E06F0E711C97
:1026B000F801A080B18026FF03C0652D70E002C044
:1026C0006FEF7FEFC5012C870E94C0142C0183019E
:1026D0002C852F77222E17C03801F2E06F0E711C67
:1026E000F801A080B18026FF03C0652D70E002C014
:1026F0006FEF7FEFC5012C870E94B5142C012C854C
:102700002068222E830123FC1BC0832D90E04816F5
:102710005906B0F4B70180E290E00E94CB143A94DD
:10272000F4CFF50127FC859127FE81915F01B70168
:1027300090E00E94CB1431103A94F1E04F1A510806
:102740004114510471F7E5C0843611F0893639F52A
:10275000F80127FF07C060817181828193810C5F3E
:102760001F4F08C060817181882777FD8095982F61
:102770000E5F1F4F2F76722E97FF09C090958095A0
:10278000709561957F4F8F4F9F4F2068722E2AE082
:1027900030E0A4010E940315A82EA81844C0853774
:1027A00029F42F7EB22E2AE030E025C0F22FF97FE7
:1027B000BF2E8F36C1F018F4883579F0B4C0803759
:1027C00019F0883721F0AFC02F2F2061B22EB4FE50
:1027D0000DC08B2D8460B82E09C024FF0AC09F2F26
:1027E0009660B92E06C028E030E005C020E130E058
:1027F00002C020E132E0F801B7FE07C060817181BC
:10280000828193810C5F1F4F06C06081718180E0DF
:1028100090E00E5F1F4FA4010E940315A82EA81878
:10282000FB2DFF777F2E76FE0BC0372D3E7FA51444
:1028300050F474FE0AC072FC08C0372D3E7E05C0FD
:10284000BA2C372D03C0BA2C01C0B52C34FF0DC0F3
:10285000FE01EA0DF11D8081803311F4397E09C03B
:1028600032FF06C0B394B39404C0832F867809F076
:10287000B39433FD13C030FF06C05A2CB31418F4C0
:10288000530C5B18B32CB31468F4B70180E290E0EA
:102890003C870E94CB14B3943C85F5CFB31410F45D
:1028A0003B1801C0312C34FF12C0B70180E390E027
:1028B0003C870E94CB143C8532FF17C031FD03C01A
:1028C00088E790E002C088E590E0B7010CC0832F54
:1028D000867859F031FF02C08BE201C080E237FDFB
:1028E0008DE2B70190E00E94CB14A51438F4B70133
:1028F00080E390E00E94CB145A94F7CFAA94F4019D
:10290000EA0DF11D8081B70190E00E94CB14A11067
:10291000F5CF332009F451CEB70180E290E00E9458
:10292000CB143A94F6CFF7018681978102C08FEFDE
:102930009FEF2C960FB6F894DEBF0FBECDBFDF9190
:10294000CF911F910F91FF90EF90DF90CF90BF90AC
:10295000AF909F908F907F906F905F904F903F903F
:102960002F900895992788270895FC0105906150BC
:1029700070400110D8F7809590958E0F9F1F089595
:10298000FC016150704001900110D8F7809590953E
:102990008E0F9F1F08950F931F93CF93DF93FB011B
:1029A000238121FD03C08FEF9FEF28C022FF16C0B7
:1029B00046815781248135814217530744F4A08111
:1029C000B1819D012F5F3F4F318320838C932681FE
:1029D00037812F5F3F4F3783268310C0EB01092FCC
:1029E000182F0084F185E02D0995892BE1F68E8161
:1029F0009F8101969F838E83812F902FDF91CF91AE
:102A00001F910F910895FA01AA27283051F1203122
:102A100081F1E8946F936E7F6E5F7F4F8F4F9F4F72
:102A2000AF4FB1E03ED0B4E03CD0670F781F891FB4
:102A30009A1FA11D680F791F8A1F911DA11D6A0F82
:102A4000711D811D911DA11D20D009F468943F9135
:102A50002AE0269F11243019305D3193DEF6CF0134
:102A60000895462F4770405D4193B3E00FD0C9F7FA
:102A7000F6CF462F4F70405D4A3318F0495D31FD67
:102A80004052419302D0A9F7EACFB4E0A6959795BA
:102A9000879577956795BA95C9F700976105710590
:102AA00008959B01AC010A2E0694579547953795DA
:102AB0002795BA95C9F7620F731F841F951FA01D34
:102AC0000895DB018F939F930E949315BF91AF915F
:102AD000A29F800D911DA39F900DB29F900D112478
:102AE0000895A1E21A2EAA1BBB1BFD010DC0AA1F4F
:102AF000BB1FEE1FFF1FA217B307E407F50720F067
:102B0000A21BB30BE40BF50B661F771F881F991FE1
:102B10001A9469F760957095809590959B01AC012A
:102B2000BD01CF0108950E949E15A59F900DB49FF1
:102B3000900DA49F800D911D11240895A29FB001B6
:102B4000B39FC001A39F700D811D1124911DB29FE1
:102B5000700D811D1124911D0895F894FFCF01FF80
:102B600001FFFF207F050706081A02456E74657293
:102B7000206368616E6E656C3A00696E69742064EA
:102B80006F6E650074756E6520746F207374617468
:102B9000696F6E00526164696F20696E6974696162
:102BA0006C697A65642E00526164696F20696E6990
:102BB00074206661696C6564210025750074756E0A
:102BC000656420746F2073746174696F6E006E6544
:102BD00078742073746174696F6E00696E69742013
:042BE000666D00001E
:00000001FF
