:100000000C946E010C94040A0C940E0A0C94180AB9
:100010000C94220A0C94570A0C94610A0C946B0AF3
:100020000C94750A0C948D010C948D010C948D0127
:100030000C948D010C94FE0A0C948D010C943D0BD4
:100040000C948D010C948D010C948D010C948D01F8
:100050000C948D010C948D010C948D010C948D01E8
:100060000C948D010C948D010C948D010C948D01D8
:100070000C948D010C948D010C948D010C948D01C8
:100080000C948D010C948D010C948D010C948D01B8
:100090000C948D010C948D010C948D010C947F0AAD
:1000A0000C948D010C948D010C948D010C948D0198
:1000B0000C948D010C948D010C948D010C948D0188
:1000C0000C948D010C948D010C948D010C948D0178
:1000D0000C948D010C948D010C948D010C948D0168
:1000E0000C948D01EC0615071C07420735080C0916
:1000F00030093E098F0900020E060C0400000000C2
:100100000000005F00000007000700147F147F1448
:10011000242A7F2A1223130864623649552250008C
:1001200005030000001C2241000041221C00082A97
:100130001C2A0808083E080800503000000808087B
:100140000808006060000020100804023E51494584
:100150003E00427F400042615149462141454B31BA
:100160001814127F1027454545393C4A494930014A
:10017000710905033649494936064949291E0036A1
:1001800036000000563600000008142241141414F2
:100190001414412214080002015109063249794120
:1001A0003E7E1111117E7F494949363E414141222F
:1001B0007F4141221C7F494949417F090901013E94
:1001C000414151327F0808087F00417F41002040B3
:1001D000413F017F081422417F404040407F02049C
:1001E000027F7F0408107F3E4141413E7F0909099B
:1001F000063E4151215E7F09192946464949493148
:1002000001017F01013F4040403F1F2040201F7FF0
:100210002018207F631408146303047804036151D9
:1002200049454300007F4141020408102041417FBD
:10023000000004020102044040404040000102046A
:100240000020545454787F4844443838444444206F
:10025000384444487F3854545418087E0901020831
:100260001454543C7F0804047800447D400020402E
:10027000443D00007F10284400417F40007C04186A
:1002800004787C0804047838444444387C141414FA
:1002900008081414187C7C0804040848545454209A
:1002A000043F4440203C4040207C1C2040201C3C1B
:1002B0004030403C44281028440C5050503C44648A
:1002C000544C44000836410000007F0000004136D5
:1002D000080008082A1C08081C2A080811241FBE48
:1002E000CFEFD1E2DEBFCDBF12E0A0E0B2E0E4EBA1
:1002F000FEE100E00BBF02C007900D92AC35B107E4
:10030000D9F712E0ACE5B2E001C01D92A43EB107FE
:10031000E1F70E94470B0C94580F0C940000809159
:10032000A1028093BC00089576980895769A089566
:100330008091DD028F3F69F0E82FF0E0EF57FD4F2D
:1003400090819093DD029F3F11F49093E2029FEF22
:10035000908308959FB7F894E82FF0E0EF57FD4F92
:1003600020812F3F99F4E091E202E81779F0209183
:10037000DD022F3F19F48093DD0204C0F0E0EF5757
:10038000FD4F80838093E20280E001C085E09FBF43
:10039000089584E00C94AA0183E00C94AA018F9242
:1003A0009F92AF92BF92CF92DF92EF92FF920F9304
:1003B0001F934091A00241FF3BC080909802909013
:1003C0009902A0909A02B0909B02C0909C02D0909B
:1003D0009D02E0909E02F0909F028B019C01081903
:1003E00019092A093B090C151D052E053F0500F1C9
:1003F00040FF05C0842F8D7F8093A0020EC0B701FF
:10040000A601480D591D6A1D7B1D4093980250930B
:10041000990260939A0270939B022FB7F89480918F
:10042000CF029091D0022FBF019711F40E94CC010E
:1004300088E01F910F91FF90EF90DF90CF90BF90D9
:10044000AF909F908F900C94AA012FB7F894809151
:100450006002882309F14091A2025091A3026091A9
:10046000A4027091A50280918A0290918B02A091C2
:100470008C02B0918D02840F951FA61FB71F40916B
:1004800092025091930260919402709195024817E4
:1004900059076A077B0711F02FBF08951092600279
:1004A0002FBF87E00C94AA018FB7F8949091BC00FD
:1004B0009093A1028FBF089582E090E0019701968A
:1004C00001970196019701960197C1F708951F932F
:1004D000CF93DF938FB7F894C0915E02C1113DC0F6
:1004E00011E010935E021092C8028FBFDFB7F8943C
:1004F00080915D02811117C0509851981092B900F7
:1005000081E48093B8001092BA001092BC000E945F
:1005100054028091A1028E7F84608093A1020E9488
:100520008F0110935D02DFBFDFB7F8948091010265
:10053000813089F480915E02813021F485E00E944F
:10054000AA0109C0823039F48091C8028093010267
:1005500083E080935E02DFBF1DC0C091C802CC2340
:10056000C1F0909191029F3F99F4E0910202EE2335
:1005700079F0909103029F3F19F41092030204C096
:10058000F0E0EF56FD4F108210920202C0E001C071
:10059000C5E08FBF8C2FDF91CF911F910895CF932E
:1005A0002FB7F8948091D1029091D2022FBF00977B
:1005B00081F42FB7F89481E090E09093D602809375
:1005C000D5029093D2028093D1022FBFCF910C9489
:1005D0006702019709F044C08FB7F8949091000228
:1005E00091113CC08FBF8FB7F89490915D0291300C
:1005F000A9F522E020935D028FBF8FB7F89420E128
:1006000030E0309397022093960226EA32E030934E
:10061000900220938F0220E220935F0223E0209338
:10062000E3021092CA0290935C028FBF0E945402B0
:10063000CFB7F8948091A1028F7A816A8093A1024A
:1006400084E080935D020E948F01CFBF8FB7F89442
:100650001092D2021092D1028FBF02C08FBFBCCFC6
:10066000CF9108950F931F934FB7F8940091920282
:100670001091930220919402309195024FBFE8E9C6
:10068000F2E000831183228333836483758386833E
:100690009783E0EAF2E0808181608260808388E075
:1006A0001F910F910C94AA01CF93DF93CFB7F894C9
:1006B0000E9454028091A1028E7F80698093A102E2
:1006C0000E948F01CFBFDFB7F89480915E02833024
:1006D000C1F5C0910102C11134C0809103028F3F66
:1006E000C1F0E82FF0E0EF56FD4F908190930302A8
:1006F0009F3F11F4909302029FEF90838093C80272
:100700009093010281E080935E0285E00E94AA013D
:1007100016C081E08093010210925E0280915D021A
:10072000813069F40E9454028091A1028A768093FC
:10073000A1020E948F015898599810925D02DFBF64
:1007400002C0DFBFC1E08C2FDF91CF91089580916F
:10075000DB029091DC02009791F480916502909108
:100760006602997F9160909366028093650282E0B1
:100770008093C9020E94E60481E090E006C08130C7
:10078000910541F4EB9A82E090E09093DC02809333
:10079000DB0231C08230910529F40E94CF0283E050
:1007A00090E0F3CF8330910589F4809165029091B8
:1007B00066029E7F909366028093650282E080933A
:1007C000C9020E94E60484E090E0DFCF049799F428
:1007D000809177029091780293702FB7F89490935C
:1007E000C7028093C6022FBF82E00E94AA01109226
:1007F000D0021092CF0280E00895CF93DF93C09192
:10080000CF02D091D0020E9454031092D6021092CF
:10081000D50240E050E02AE0DA01AA55BD4FE22FB0
:10082000F0E0EE0FFF1FEF59FD4F8C9190E0982FF5
:10083000882711963C91832B918380832F5F2F70A3
:100840004E5F5F4F4032510539F7C230D10549F054
:10085000C330D10551F0219761F4DF91CF910C9411
:10086000CC01DF91CF910C94C901DF91CF910C9411
:10087000A703DF91CF910895811110C08091BB0033
:100880009091CA02E0918F02F0919002E90FF11D60
:1008900080838091CA028F5F8093CA022091CA022E
:1008A00080915F02281788F430E090E001972817C4
:1008B000390749F48091E30282FD05C08091A102CD
:1008C0008F7B8093A1020C948F018091A102282F2D
:1008D0002E7F9091E30291FF0AC09D7F9093E302E7
:1008E000822F80618093A1028091B90003C08E772E
:1008F0008093A1020E948F0181E080935D0280912C
:100900000002811102C00C94FD030895CF93DF9380
:1009100080910002811129C0C091CF02D091D002F4
:100920000E9454031092D6021092D502C330D10512
:10093000A1F048F4C130D10561F02297B1F4DF9104
:10094000CF910C94C901C430D10559F0259749F0D5
:100950000CC0DF91CF910C94CC01DF91CF910C941E
:10096000A7031092D0021092CF02DF91CF91089589
:100970008091CA0290915F02891780F4E0918F0202
:10098000F0919002E80FF11D80818093BB0080916F
:10099000CA028F5F8093CA020C948F018091A102DA
:1009A000282F2E7F9091E30291FF06C09D7F9093A8
:1009B000E302822F806101C08E778093A1020E94A2
:1009C0008F0181E080935D020C948604CF932FB752
:1009D000F8948091D3029091D4022FBF009799F59B
:1009E0009FB7F8948091C902880F82509FBF20E082
:1009F00092E02817B0F43FB7F894422F50E0E92F67
:100A0000F0E0EE0FFF1FEF59FD4F60817181FA0199
:100A1000EA55FD4F708361833FBF9F5F9F702E5FDC
:100A2000E8CF8FB7F89422E030E03093D6022093DD
:100A3000D50221E030E03093D4022093D3028FBF5F
:100A4000CF910C946702019709F047C09FB7F894C3
:100A50008091C9029FBF9FB7F89420910002211195
:100A6000F9CF9FBF9FB7F89420915D02213091F795
:100A700022E020935D029FBF9FB7F89420E130E011
:100A8000309397022093960226EA32E03093900248
:100A900020938F02880F825080935F0283E08093BF
:100AA000E3021092CA0210925C029FBF0E9454029D
:100AB000CFB7F8948091A1028F7E816E8093A102BE
:100AC00084E080935D020E948F01CFBF8FB7F894BE
:100AD0001092D4021092D3028FBFCF9108950E943A
:100AE00054028091A1028A7F8093A1020E948F010B
:100AF0000E9454028091A10284608093A1020E940E
:100B00008F0181E080935D0280915C02882331F047
:100B100080910002811104C00C94FD030C948604A2
:100B20000895882329F0813029F47298739A02C0BD
:100B30007398729A82B182B981B111B87498759A1A
:100B40000E9496010E945C0280B1079B09C00E942E
:100B500094010E945C020E9496010E945C02F5CF03
:100B60000E949401759881B18FEF81B90895CF9358
:100B7000DF931F92CDB7DEB70E94910581B111B806
:100B8000749A759A0E9496010E945C0280B10E943C
:100B900094010E945C020E9496010E945C0280B156
:100BA00089830E94940189810F90DF91CF910895EC
:100BB000CF93DF931F92CDB7DEB769830E94910573
:100BC000698162B981B18FEF81B9749A75980E9479
:100BD00096010E945C020E94940180E00F90DF91D8
:100BE000CF910895CF93DF931F92CDB7DEB769837E
:100BF0000E949105749875980E94960181B18FEFBB
:100C000081B9698162B90E945C020E94940180E00E
:100C10000F90DF91CF910895CF93DF93982FC62F38
:100C2000D82FD295D695D695D37081E0D8279F73CB
:100C3000692F60648D2F0E94F2056C2F6770686BBE
:100C40008D2FDF91CF910C94F2052F923F924F920E
:100C50005F926F927F928F929F92AF92BF92CF924C
:100C6000DF92EF92FF920F931F93CF93DF9300D009
:100C70001F92CDB7DEB7C62E8C014B83962F55E061
:100C8000952E88248394EE24E394F12CF80121918D
:100C90008F01222309F470C02A3011F02D3029F47D
:100CA0002B81285F2B835C2C65C0293021F44AE01E
:100CB000542E590E5FC036E0532E590E332727FDB0
:100CC0003095203231050CF455C020523109929EE6
:100CD000A001939E500D1124FA01E450FF4F5F01D3
:100CE000955F9983952D89EF482E2B81420E642CB8
:100CF000F501D49096FB772470F87824262C26945E
:100D000026942694F62DF7703F2E622D892F9A8314
:100D1000D0FE0DC00E940C06872D0E94B705B701BA
:100D200001C0660F3A94EAF7382E362A0DC00E94A9
:100D30000C06872D0E94B705970101C0220F3A9437
:100D4000EAF72095382E3222622D9A81892F0E944F
:100D50000C06632D872D0E94D8059A81D694639442
:100D60002B816212CBCF9F5F3FEFA31AB30A298179
:100D70009213BDCF952D8ACF0F900F900F90DF91DA
:100D8000CF911F910F91FF90EF90DF90CF90BF9088
:100D9000AF909F908F907F906F905F904F903F901B
:100DA0002F900895CF92DF92EF92FF920F931F93AF
:100DB000CF93DF93CDB7DEB727970FB6F894DEBF9A
:100DC0000FBECDBF90E08930910508F009C3FC014A
:100DD000EE58FF4F0C94740C4AE060E08CE092E017
:100DE0000E9425064AE060E086E192E00E94250626
:100DF0002FB7F8948091CF029091D0022FBF892B0A
:100E000009F0EEC28FB7F89422E030E03093D002C0
:100E10002093CF021092DA021092D9022EE034E031
:100E20003093E1022093E002F3C14AE060E086E201
:100E300092E00E942506D4C22FB7F8948091C60292
:100E40009091C7022FBF9F938F9383E392E09F936C
:100E50008F938E010F5F1F4F1F930F930E94810C82
:100E60004AE060E086E392E00E94250648E260E006
:100E7000C8010E9425060F900F900F900F900F90C1
:100E80000F90AEC22FB7F8948091D7029091D802FC
:100E90002FBF009731F45A9A8FB7F89421E030E0D1
:100EA00063C081309105A9F42FB7F89480916F0247
:100EB0009091700290689093700280936F021092EC
:100EC000800210927F028FE08093C90282E090E05E
:100ED00029C08230910581F48FB7F89423E030E087
:100EE0003093D8022093D7028FBF68E572E080E08C
:100EF00090E00E94320374C283309105D9F42FB779
:100F0000F89480916502909166028E7B9F7B816050
:100F10009064909366028093650282E08093C90298
:100F200084E090E09093D8028093D7022FBF0E9474
:100F3000E60456C28430910581F466E970E080E0F1
:100F400090E00E9432038FB7F89425E030E03093B0
:100F5000D8022093D7028FBF43C28530910561F438
:100F60008FB7F89426E030E03093D8022093D70270
:100F70008FBF0E94CF0234C28630910509F067C04E
:100F80008FB7F894C0906302D09064028FBF44E1A1
:100F900060E087E492E00E942506809164028F93CE
:100FA000809163028F9349E4E42E42E0F42EFF9295
:100FB000EF928E010F5F1F4F1F930F930E94810CC2
:100FC00044E160E0C8010E942506809166028F938B
:100FD000809165028F93FF92EF921F930F930E946F
:100FE000810C44E164E2C8010E9425060FB6F89422
:100FF000DEBF0FBECDBF33E5C31632E1D30611F01D
:1010000081E030C02FB7F8948091690290916A0214
:101010008373977B8460986490936A0280936902DB
:101020008FE199E190936C0280936B0280916D0245
:1010300090916E0288279E7F8F6490936E028093BA
:101040006D0286E08093C90287E090E06BCF07973E
:1010500009F0C6C18FB7F8941092D0021092CF0257
:101060008FBF80E00E94AA01BBC12FB7F894809186
:10107000D9029091DA022FBF009709F56FB7F89463
:101080008091670290916802AC0150682091E00263
:101090003091E102C9018B5693409370842B952BBC
:1010A000909368028093670283E08093C90281E095
:1010B00090E09093DA028093D9026FBF38CF8130ED
:1010C000910589F44EE160E08EE492E00E942506ED
:1010D0008FB7F89422E030E03093DA022093D902FF
:1010E0008FBFEB9A7DC18230910559F44EE160E0EB
:1010F00080E592E00E9425068FB7F89423E030E067
:1011000025C083309105D9F44EE160E082E592E09C
:101110000E9425062FB7F89480916702909168028B
:101120009F77909368028093670283E08093C9025F
:1011300084E090E09093DA028093D902F7CE843075
:10114000910549F48FB7F89425E030E03093DA0246
:101150002093D9020DCF059709F042C180916C020E
:101160008F9380916B028F9389E4E82E82E0F82EB2
:10117000FF92EF928E010F5F1F4F1F930F930E94FC
:10118000810C4EE160E0C8010E9425068091660254
:101190008F93809165028F93FF92EF921F930F932D
:1011A0000E94810C4EE164E2C8010E9425062FB71F
:1011B000F894809175029091760288279074892F17
:1011C00099272FBF0FB6F894DEBF0FBECDBF892B76
:1011D000B9F42FB7F89480917702909178029370C8
:1011E00085599C4F1092D0021092CF022FBF2FB77B
:1011F000F8949093C7028093C6022FBF82E032CF4B
:101200008FB7F89424E030E03093DA022093D902CB
:101210008FBF0E94C901E4C08FB7F8949091C802B3
:101220009093010293E090935E028FBF8091010240
:101230009FB7F894809300029FBF8111D1C02FB750
:10124000F8948091D5029091D6022FBF81309105FC
:1012500009F48FCE029709F46ACE0E945403C0C0ED
:101260001FB7F89480915C02882321F081E00E94EE
:101270003C0402C00E94B8041FBFB2C080918E021D
:10128000811141C04091CB025091CC026091CD02BE
:101290007091CE022FB7F894C090A202D090A30212
:1012A000E090A402F090A50280918A0290918B02B6
:1012B000A0918C02B0918D028C0D9D1DAE1DBF1DA5
:1012C0002FBF4093CB025093CC026093CD0270931A
:1012D000CE0210928E022FB7F89431E03093600264
:1012E00080938A0290938B02A0938C02B0938D021C
:1012F0004093A2025093A3026093A4027093A502AC
:101300002FBF0E9425022FB7F8946091920270912E
:10131000930280919402909195022FBF3CC08FB7A9
:10132000F8944091920250919302609194027091CE
:1013300095028FBF8FB7F894109260028FBF809193
:10134000A00281FF4DC08091980290919902A091D6
:101350009A02B0919B028A019B01081B190B2A0B70
:101360003B0B80919C0290919D02A0919E02B091B6
:101370009F02801B910BA20BB30B8F3F3FEF930794
:10138000A3073FE7B30761F1181619061A061B06F3
:101390002CF0CB01BA010E94CF0122C08093CB0276
:1013A0009093CC02A093CD02B093CE0221E0209383
:1013B0008E023FB7F8942093600240938A025093C4
:1013C0008B0260938C0270938D028093A2029093A3
:1013D000A302A093A402B093A5023FBF0E942502DE
:1013E00027960FB6F894DEBF0FBECDBFDF91CF9129
:1013F0001F910F91FF90EF90DF90CF9008958FB7DE
:10140000F89408958FBF08951F920F920FB60F9210
:1014100011240F900FBE0F901F9018951F920F92DE
:101420000FB60F9211240F900FBE0F901F901895BA
:101430001F920F920FB60F9211240F900FBE0F90B4
:101440001F9018951F920F920FB60F9211240BB692
:101450000F922F933F934F935F936F937F938F934D
:101460009F93AF93BF93EF93FF938091CF0290919F
:10147000D002EB988230910529F0039729F40E945D
:10148000A70302C00E94C901FF91EF91BF91AF91E4
:101490009F918F917F916F915F914F913F912F918C
:1014A0000F900BBE0F900FBE0F901F9018951F92BC
:1014B0000F920FB60F9211240F900FBE0F901F9036
:1014C00018951F920F920FB60F9211240F900FBE16
:1014D0000F901F9018951F920F920FB60F92112424
:1014E0000F900FBE0F901F9018951F920F920FB67E
:1014F0000F9211240F900FBE0F901F9018951F92FE
:101500000F920FB60F9211240BB60F922F933F93A9
:101510004F935F936F937F938F939F93AF93BF93FB
:10152000EF93FF930E9454028091B900982F987F07
:1015300020915D02243061F1263021F0233009F042
:101540004AC00BC080915C02813091F4903469F400
:1015500083E080935D0281E015C020915C02213020
:1015600069F0983291F0903381F00E946F0533C09A
:101570009831D9F783E080935D0207C0807F803582
:10158000A1F780E00E943C0426C00E94B80423C05A
:101590008091E3028E7F8093E3028091A1028F7D90
:1015A000983029F0903119F08093A102DECF806449
:1015B0008093A10291E080915C02813009F090E07B
:1015C00080919602880F892B8093BB0086E08093E0
:1015D0005D020E948F01FF91EF91BF91AF919F91AA
:1015E0008F917F916F915F914F913F912F910F90CC
:1015F0000BBE0F900FBE0F901F9018951F920F9269
:101600000FB60F9211240BB60F922F933F934F9367
:101610005F936F937F938F939F93AF93BF93EF935A
:10162000FF932FB7F8948091920290919302A0912A
:101630009402B09195020196A11DB11D8093920272
:1016400090939302A0939402B09395022FBF789445
:101650000E942502FF91EF91BF91AF919F918F91D1
:101660007F916F915F914F913F912F910F900BBEA2
:101670000F900FBE0F901F9018951F920F920FB6EC
:101680000F9211240F900FBE0F901F901895DFB787
:10169000F89449E050E06FEF70E081E892E00E943A
:1016A0007A0C8FEF8093DD028093E20288EE91E066
:1016B0009093DF028093DE02089A099A0A9A1098A2
:1016C0001198129881E083BF0E9498018F3F19F012
:1016D0000E94D206F9CF8091B60080728093B60046
:1016E0008091B60081FDFCCF82E08093B0008091B4
:1016F000B60080FDFCCF85E08093B1008CE780933D
:10170000B30080917000826080937000CFEFC0932F
:101710009102729A739A7498759A0E949601779AB8
:101720006A9A6B9A6C9A6D9A6E9A6F9A82B112B895
:1017300081B1C1B96FE380E00E94F2056FE381E0FF
:101740000E94F20560EC80E00E94F20560EC81E00E
:101750000E94F2050E9498018F3F19F00E94D20664
:10176000F9CFDFBF78942FB7F8948091CF02909192
:10177000D0022FBF892BB9F59FB7F89421E030E054
:101780003093D0022093CF021092D2021092D10255
:101790001092D4021092D3021092D6021092D50267
:1017A0001092D8021092D70280E2E1E6F2E0DF0167
:1017B000282F1D922A95E9F7E6EAF2E0DF011D9253
:1017C0008A95E9F79FBF529A5A98519A59988091F1
:1017D0006900806880936900809169008F7B8093A5
:1017E00069000E94CC01C0E06C2F80E00E940C06D2
:1017F0006C2F80E40E940C06D0E060E080E00E9444
:10180000D80560E081E00E94D805DF5FD038A9F7F5
:10181000CF5FC83049F74AE060E084E592E00E947B
:101820002506CFB7F8940E9498018F3F09F058C061
:1018300080917000837089F08091B6008A71E1F721
:101840008091B3009091B200891B883040F0809164
:10185000B200893F20F483E003C085E001C082E04C
:10186000E0916E00E67029F590916F009E7221F56F
:10187000E0917100EE72E9F4909172009E72E1F4D1
:10188000E0917300EE72A9F40CB407FC15C09091BE
:10189000C100987189F4E091C900E87151F4909108
:1018A000BC0092FD09C090917A0097FD04C0E5E06C
:1018B00003C0E0E001C0E1E093B78E1708F4E82F21
:1018C000F0E0EA50FF4F8491E92FE07FE160E82BE0
:1018D000E3BF78948895F89483B78E7F83BFA3CFB6
:1018E000CFBF0E94D2069DCFEE0FFF1F0590F4914F
:1018F000E02D0994DC0101C06D9341505040E0F7A8
:1019000008950F931F93CF93DF93CDB7DEB72E9734
:101910000FB6F894DEBF0FBECDBF0D891E8986E0DD
:101920008C831A8309838FEF9FE79E838D83AE019B
:10193000475E5F4F6F89788DCE0101960E94B10C92
:101940002F813885F801E20FF31F10822E960FB613
:10195000F894DEBF0FBECDBFDF91CF911F910F91E5
:1019600008952F923F924F925F926F927F928F9243
:101970009F92AF92BF92CF92DF92EF92FF920F931E
:101980001F93CF93DF93CDB7DEB72C970FB6F894A4
:10199000DEBF0FBECDBF7C016B018A01FC01178247
:1019A0001682838181FFBDC1CE0101964C01F701F2
:1019B0009381F60193FD859193FF81916F018823B7
:1019C00009F4ABC1853239F493FD859193FF819180
:1019D0006F01853229F4B70190E00E94C20EE7CF73
:1019E000512C312C20E02032A0F48B3269F030F4FD
:1019F000803259F0833269F420612CC08D3239F085
:101A0000803339F4216026C02260246023C028601E
:101A100021C027FD27C030ED380F3A3078F426FF7B
:101A200006C0FAE05F9E300D1124532E13C08AE0E9
:101A3000389E300D1124332E20620CC08E3221F4DA
:101A400026FD6BC1206406C08C3611F4206802C0EC
:101A5000883641F4F60193FD859193FF81916F01E2
:101A60008111C1CF982F9F7D9554933028F40C5F3E
:101A70001F4FFFE3F9830DC0833631F0833771F0D8
:101A8000833509F05BC022C0F801808189830E5F35
:101A90001F4F44244394512C540115C03801F2E0E7
:101AA0006F0E711CF801A080B18026FF03C0652D68
:101AB00070E002C06FEF7FEFC5012C870E94B70E68
:101AC0002C0183012C852F77222E17C03801F2E0DC
:101AD0006F0E711CF801A080B18026FF03C0652D38
:101AE00070E002C06FEF7FEFC5012C870E94AC0E43
:101AF0002C012C852068222E830123FC1BC0832D02
:101B000090E048165906B0F4B70180E290E00E94D8
:101B1000C20E3A94F4CFF50127FC859127FE8191FE
:101B20005F01B70190E00E94C20E31103A94F1E0DB
:101B30004F1A51084114510471F7E5C0843611F071
:101B4000893639F5F80127FF07C0608171818281EC
:101B500093810C5F1F4F08C060817181882777FDDA
:101B60008095982F0E5F1F4F2F76722E97FF09C01A
:101B700090958095709561957F4F8F4F9F4F20680E
:101B8000722E2AE030E0A4010E94FA0EA82EA818B6
:101B900044C0853729F42F7EB22E2AE030E025C0DC
:101BA000F22FF97FBF2E8F36C1F018F4883579F007
:101BB000B4C0803719F0883721F0AFC02F2F2061D3
:101BC000B22EB4FE0DC08B2D8460B82E09C024FF48
:101BD0000AC09F2F9660B92E06C028E030E005C0ED
:101BE00020E130E002C020E132E0F801B7FE07C09A
:101BF00060817181828193810C5F1F4F06C060817B
:101C0000718180E090E00E5F1F4FA4010E94FA0EE8
:101C1000A82EA818FB2DFF777F2E76FE0BC0372D40
:101C20003E7FA51450F474FE0AC072FC08C0372D24
:101C30003E7E05C0BA2C372D03C0BA2C01C0B52C8E
:101C400034FF0DC0FE01EA0DF11D8081803311F4D7
:101C5000397E09C032FF06C0B394B39404C0832F09
:101C6000867809F0B39433FD13C030FF06C05A2CB8
:101C7000B31418F4530C5B18B32CB31468F4B70105
:101C800080E290E03C870E94C20EB3943C85F5CF81
:101C9000B31410F43B1801C0312C34FF12C0B7014B
:101CA00080E390E03C870E94C20E3C8532FF17C063
:101CB00031FD03C088E790E002C088E590E0B701FD
:101CC0000CC0832F867859F031FF02C08BE201C02F
:101CD00080E237FD8DE2B70190E00E94C20EA514AC
:101CE00038F4B70180E390E00E94C20E5A94F7CF17
:101CF000AA94F401EA0DF11D8081B70190E00E94E1
:101D0000C20EA110F5CF332009F451CEB70180E205
:101D100090E00E94C20E3A94F6CFF7018681978137
:101D200002C08FEF9FEF2C960FB6F894DEBF0FBE68
:101D3000CDBFDF91CF911F910F91FF90EF90DF907A
:101D4000CF90BF90AF909F908F907F906F905F905B
:101D50004F903F902F900895FC0105906150704086
:101D60000110D8F7809590958E0F9F1F0895FC0164
:101D70006150704001900110D8F7809590958E0FBA
:101D80009F1F08950F931F93CF93DF93FB01238130
:101D900021FD03C08FEF9FEF28C022FF16C04681B0
:101DA0005781248135814217530744F4A081B181C2
:101DB0009D012F5F3F4F318320838C932681378194
:101DC0002F5F3F4F3783268310C0EB01092F182F59
:101DD0000084F185E02D0995892BE1F68E819F81A4
:101DE00001969F838E83812F902FDF91CF911F913A
:101DF0000F910895FA01AA27283051F1203181F17D
:101E0000E8946F936E7F6E5F7F4F8F4F9F4FAF4F02
:101E1000B1E03ED0B4E03CD0670F781F891F9A1F15
:101E2000A11D680F791F8A1F911DA11D6A0F711DC9
:101E3000811D911DA11D20D009F468943F912AE0D5
:101E4000269F11243019305D3193DEF6CF010895BD
:101E5000462F4770405D4193B3E00FD0C9F7F6CFEE
:101E6000462F4F70405D4A3318F0495D31FD4052B6
:101E7000419302D0A9F7EACFB4E0A695979587954C
:101E800077956795BA95C9F700976105710508952B
:101E90009B01AC010A2E06945795479537952795D7
:101EA000BA95C9F7620F731F841F951FA01D08956F
:101EB000F894FFCFFF01FFFF207F05070608FC0015
:101EC000696E697420646F6E650074756E65207448
:101ED0006F2073746174696F6E00696E6974206637
:101EE00061696C6564210025750074756E656420F8
:101EF000746F2073746174696F6E006800307825A8
:101F00005800620063006400696E697420666D00A9
:00000001FF
