S01F00006275696C642F626967415652365F313238302F6D61696E2E7372656377
S11300000C9456020C94681F0C94721F0C947C1F61
S11300100C94A51F0C94EB1F0C94F51F0C94FF1F5C
S11300200C9409200C9475020C9475020C94952080
S11300300C9475020C94781E0C9475020C94B71EE3
S11300400C9475020C9475020C9475020C94750250
S11300500C9475020C9475020C9475020C94750240
S11300600C94C11E0C9475020C9475020C947502C8
S11300700C9475020C9443210C9475020C94750233
S11300800C9475020C9475020C9475020C94750210
S11300900C9475020C9475020C9475020C94132044
S11300A00C9475020C9475020C9475020C947502F0
S11300B00C9475020C9475020C9475020C947502E0
S11300C00C9475020C9475020C9475020C947502D0
S11300D00C9475020C9475020C9475020C947502C0
S11300E00C947502120C830C050D320D3E0D400D5F
S11300F0520D6C0D940DC40EC90ED30E1C0FBB0F04
S1130100E10F2C109B10C810F4101A112111361194
S11301100C141B14FE14B715D11617182A186A18D4
S11301209B18E118FE18251933194E19A919000254
S11301300E060C040D090E78155116211A591B537D
S11301401C411D571E22214322582344244525784F
S1130150262329202A562B462C542D522E25314E47
S1130160324233483447355A3626394C3A4D3B4AA5
S11301703C553D2F3E28413B424B4349444F453D6E
S11301804629493A4A5F4B4C4C784D504E3F527881
S1130190547855605A0A5B5E5D2A613E660869318F
S11301A06B346C377030712C723273357436753829
S11301B0792B7A337B2D7C2A7D3900000D090E7C46
S11301C0157116311A791B731C611D771E32216358
S11301D02278236424652534263329202A762B6645
S11301E02C742D722E35316E326233683467357A51
S11301F03636392C3A6D3B6A3C753D373E38412CD6
S1130200426B4369446F45304639492E4A2D4B6C45
S11302104C6F4D704E2B526F546F555C5A0A5B787D
S11302205D27613C660869316B346C377030712C22
S11302307232733574367538792B7A337B2D7C2A78
S11302407D390000000000000000005F000000078E
S1130250000700147F147F14242A7F2A1223130812
S1130260646236495522500005030000001C2241F7
S1130270000041221C00082A1C2A0808083E08081D
S113028000503000000808080808006060000020E2
S1130290100804023E5149453E00427F400042613D
S11302A05149462141454B311814127F10274545C9
S11302B045393C4A494930017109050336494949E0
S11302C036064949291E003636000000563600001D
S11302D000081422411414141414412214080002B6
S11302E001510906324979413E7E1111117E7F493F
S11302F04949363E414141227F4141221C7F4949BF
S113030049417F090901013E414151327F080808F2
S11303107F00417F41002040413F017F081422417A
S11303207F404040407F0204027F7F0408107F3EEC
S11303304141413E7F090909063E4151215E7F0941
S1130340192946464949493101017F01013F40408D
S1130350403F1F2040201F7F2018207F6314081473
S1130360630304780403615149454300007F41411C
S1130370020408102041417F0000040201020440ED
S113038040404040000102040020545454787F4807
S11303904444383844444420384444487F3854540E
S11303A05418087E090102081454543C7F080404BC
S11303B07800447D40002040443D00007F102844E4
S11303C000417F40007C041804787C0804047838D9
S11303D0444444387C14141408081414187C7C080D
S11303E00404084854545420043F4440203C4040F2
S11303F0207C1C2040201C3C4030403C44281028D9
S1130400440C5050503C4464544C44000836410061
S113041000007F0000004136080008082A1C080874
S11304201C2A08084661766F7572697465732066C4
S1130430756C6C21004368616E6E656C206C697329
S1130440742066756C6C21004F7574206F66206291
S1130450616E64206C696D6974732100464D436C50
S113046069636B20696E6974206661696C656421D7
S113047000556E6B6E6F776E206572726F7221001D
S11304804572726F723A00566F6C756D653A004D25
S1130490487A004368616E6E656C3A2000456E745C
S11304A06572204368616E6E656C3A0011241FBE4C
S11304B0CFEFD1E2DEBFCDBF13E0A0E0B2E0E4EDC8
S11304C0F6E500E00BBF02C007900D92A634B10719
S11304D0D9F71FE1A6E4B3E001C01D92A337B10729
S11304E0E1F70E94C1220C94682B0C9400008091C7
S11304F040118093BC000895289A0895289808957F
S113050076980895769A08958091E21E8F3F69F057
S1130510E82FF0E0E054F44F90819093E21E9F3F67
S113052011F49093451F9FEF90830895EB980895DD
S11305309FB7F894E82FF0E0E054F44F20812F3F68
S113054099F4E091451FE81779F02091E21E2F3FBE
S113055019F48093E21E04C0F0E0E054F44F808369
S11305608093451F80E001C085E09FBF08958DE121
S11305700C94980289E10C94980288E10C949802F6
S11305808BE10C949802ECE7F0E0208180917B00F1
S1130590308190818870880F880F2F71822B35FBF2
S11305A0222720F920FB86F99295969596959370CB
S11305B0292F279522272795822B969508958FB763
S11305C0F8949091BC00909340118FBF08952FB779
S11305D0F89460911F0E7091200E8091210E9091DD
S11305E0220E2FBF0895CF92DF92EF92FF92CF9306
S11305F0C82F6A017B010E94E70229E0C29FF00133
S11306001124DF01AF5FBE4E6D937D938D939C9358
S113061013971496CD92DD92ED92FC921797E75FB3
S1130620FE4E80818E7F826080838FE0CF91FF9029
S1130630EF90DF90CF900C949802AC019091CA0E89
S11306409931B8F480912A0E292F30E0280F311DFA
S11306502931310514F029513109220F331FF901D1
S1130660E058FE4E518340839F5F9093CA0E80E012
S1130670089581E008958EBD0DB407FEFDCF8EB5BB
S113068008950C943B03CF93DF9300D0CDB7DEB72E
S11306906A8389830E947E0289810E9441036A8160
S11306A0862F0E9441030F900F90DF91CF910C94FD
S11306B07C02CF93DF931F92CDB7DEB789830E946C
S11306C07E0289810E94410380E00E943B0389836A
S11306D00E947C0289810F90DF91CF910895CF937E
S11306E0DF9300D0CDB7DEB76A8389830E947E0290
S11306F0898180680E9441036A81862F0E94410398
S11307000F900F90DF91CF910C947C028F929F9267
S1130710AF92BF92CF92DF92EF92FF920F931F930B
S1130720CF93DF932FEF280F9DE1299F9001112490
S113073089010E541E4EF8019081911140C0E901C7
S1130740CD54DE4E2097D9F17A0151E059831882B5
S11307501B8298E09A8396E09C8344E04D838090CA
S1130760240290902502A0902602B090270287864A
S1130770908AA18AB28AD901A554BE4EE6E1F2E07C
S1130780492F01900D924A95E1F7D901AB53BE4E22
S1130790FB0101900D929A95E1F7F701C080D18099
S11307A0E280F380F801C18ED28EE38EF48E8F83C3
S11307B01E82508380E10E94980280E001C085E09F
S11307C0DF91CF911F910F91FF90EF90DF90CF9029
S11307D0BF90AF909F908F9008953091CA0E3323AD
S11307E0C1F020912A0EE22FF0E0EE0FFF1FE05837
S11307F0FE4E808191811182108231503093CA0E55
S11308002F5F293119F020932A0E089510922A0E91
S1130810089580E090E008952FB7F89480912E0712
S1130820882309F14091441150914511609146117A
S1130830709147118091E60B9091E70BA091E80B22
S1130840B091E90B840F951FA61FB71F40911F0E8F
S11308505091200E6091210E7091220E4817590775
S11308606A077B0711F02FBF089510922E072FBF40
S11308708EE00C949802AC0120914E032431C0F414
S113088090914F03E92FF0E0EE0FFF1FE755F14E73
S11308905183408381E0890F843119F080934F03A1
S11308A002C010924F032F5F20934E0380E00895FF
S11308B081E008952FB7F8949091D91E2FBF91111C
S11308C00EC09FB7F89423E02093D91E1092DF1E28
S11308D08093260E9FBF0E94BA0280E0089581E0B3
S11308E008953FB7F8942091D91E3FBF211116C037
S11308F09C012B5633402E3C310580F42FB7F894DD
S113090032E03093D91E1092DE1E9093401F8093E4
S11309103F1F2FBF0E94BD0280E0089581E008952B
S1130920DC0181E04D91442311F12091E61E30E079
S113093090914111F90154E0EE0FFF1F5A95E1F730
S1130940E90FF11DE553F14F40839F5F90934111EF
S1130950F901E55DF14F8083903121F71092411147
S11309602F5F3F4F217033272093E61EDBCF08957E
S11309708FB7F8941092CE068FBF89E0E1EDF6E0D0
S1130980DF011D928A95E9F781E4EAEDF6E0DF01E3
S11309901D928A95E9F786E0EBE1F7E0DF011D920D
S11309A08A95E9F708950F931F93CF93DF9300D0AF
S11309B01F92CDB7DEB780916A031F928F9384E2B2
S11309C093E09F938F938E010F5F1F4F1F930F939D
S11309D00E9442281B821092E61E88E080934111F7
S11309E0C8010E94900484E20E9498020F900F9024
S11309F00F900F900F900F900F900F900F90DF912A
S1130A00CF911F910F910895CF92DF92EF92FF92B1
S1130A100F931F93CF93DF931F92CDB7DEB76B0174
S1130A2089830E94ED037C018C010E5F1F4F80E8D7
S1130A30D8011D928A95E9F729812F3FC9F4F6015F
S1130A4080858F9387818F9384818F9383818F9304
S1130A5082818F9381818F9380811F928F9386816E
S1130A608F9385818F931F921F928BE392E029C00D
S1130A70203190F5D60118968C9118978F9317967C
S1130A808C9117978F9314968C9114978F93139638
S1130A908C9113978F9312968C9112978F93119632
S1130AA08C9111978F938C911F928F9316968C91A2
S1130AB016978F9315968C918F931F922F9381E79E
S1130AC092E09F938F931F930F930E9442280FB637
S1130AD0F894DEBF0FBECDBFF701EF57FF4F108272
S1130AE0F80101900020E9F73197E01BF10BD701E1
S1130AF0ED93FC93C7010E943B0480912E0E81115B
S1130B000CC08BE00F90DF91CF911F910F91FF905C
S1130B10EF90DF90CF900C9498020F90DF91CF91DB
S1130B201F910F91FF90EF90DF90CF900895019760
S1130B30019601970196019701960197C1F70895CF
S1130B401F93CF93DF938FB7F894C0914A03C111D9
S1130B503DC011E010934A031092F6118FBFDFB726
S1130B60F89480914903811117C0509851981092BC
S1130B70B90081E48093B8001092BA001092BC00CE
S1130B800E94DF02809140118E7F84608093401127
S1130B900E94770210934903DFBFDFB7F894809176
S1130BA00E02813089F480914A03813021F480E27D
S1130BB00E94980209C0823039F48091F611809322
S1130BC00E0283E080934A03DFBF1DC0C091F6117B
S1130BD0CC23C1F090912D0E9F3F99F4E0910F0228
S1130BE0EE2379F0909110029F3F19F410921002B5
S1130BF004C0F0E0E35DF14F108210920F02C0E0F8
S1130C0001C0C5E08FBF8C2FDF91CF911F91089554
S1130C10882389F12FB7F89480916409909165092C
S1130C20906990936509809364091092E71E10926D
S1130C30E81E1092E91E84E08093D11E2FBF48E085
S1130C4050E060E270E08BEE9EE10E94A62740E453
S1130C5050E060E270E085EF9EE10E94A62746E046
S1130C6050E060E270E085E39FE10E94A62788E0FF
S1130C708CBBEB9A11C00E9496022FB7F894809116
S1130C806409909165099F7690936509809364093E
S1130C9084E08093D11E2FBF0C94B7021F93CF938F
S1130CA0DF931F92CDB7DEB7182F806479830E943B
S1130CB0430381E0810F7981672F80640F90DF9176
S1130CC0CF911F910C94430390915003E92FF0E0CE
S1130CD0EE0FFF1FE755F14E4081518120914E03E5
S1130CE0222359F09F5F943119F09093500302C06E
S1130CF010925003215020934E03CA010E941D03F9
S1130D0080914E03882319F08BE00C949802109282
S1130D102E0E0895660F660F68B9439A98B18295AE
S1130D20807F982B98B943980895CF93DF93C82F69
S1130D30D62F82958F700E948A066D2F8C2FDF919B
S1130D40CF910C948A06CF93DF939FB7F894809148
S1130D505303882369F19FBFDFB7F894C09153030D
S1130D60C11109C081E0809353031092110285E1FF
S1130D700E94980218C08091F10B8F3F99F4E09182
S1130D801202EE2379F0809113028F3F19F410922E
S1130D90130204C0F0E0EF50F44F108210921202DC
S1130DA0C0E001C0C5E0DFBF8C2FDF91CF91089573
S1130DB08CB58F7B8CBD229A2398219A209A8CB56E
S1130DC080618CBD8CB58F778CBD8DB58E7F8DBDCC
S1130DD08CB5877F8CBD8CB58B7F8CBD8CB58C7F9F
S1130DE08CBD8CB580648CBDB6CF882319F081305E
S1130DF071F0089510925803E09159038BE0E89F35
S1130E00F0011124E85BFE4E108282E110C01092C2
S1130E105103809152039DE0899FF0011124E55113
S1130E20F14F1082811102C00E94640686E10C9485
S1130E30980210925A0380915B0398E0899FF00115
S1130E401124E15FF14F10820E94F50681E10C94B8
S1130E50980281110FC0662369F080915E0381308E
S1130E6049F410925E03809109118D7F80930911DA
S1130E700C94190708950F931F93CF93DF938091D8
S1130E803B1F882309F43FC010E0C0E0DFE10FB747
S1130E90F89480913E1F8E7F80933E1F0E94C30270
S1130EA0282F2F73881F8827881F9170990F892BEB
S1130EB0181302C091E0D21390E080913E1F90FB82
S1130EC081F99D2F9F73990F990F8370892B8093BC
S1130ED03E1F1111D064D0937C0080917B00877FEA
S1130EE080937B0090913E1F8C2F8860806190FBE3
S1130EF085F98064806880937A000FBFDF91CF9179
S1130F001F910F910895C7E011E0D0E0C0CFCF93B7
S1130F10DF93CFB7F8940E94DF02809140118E7F57
S1130F208069809340110E947702CFBFDFB7F894A5
S1130F3080914A038330C1F5C0910E02C11134C0BF
S1130F40809110028F3FC1F0E82FF0E0E35DF14F94
S1130F509081909310029F3F11F490930F029FEFA2
S1130F6090838093F61190930E0281E080934A035C
S1130F7080E20E94980216C081E080930E021092D3
S1130F804A0380914903813069F40E94DF02809111
S1130F9040118A76809340110E947702589859989C
S1130FA010924903DFBF02C0DFBFC1E08C2FDF9185
S1130FB0CF910895CF93DF931F92CDB7DEB7898386
S1130FC00E947E028FEB0E94410383E00E94410352
S1130FD00E947C0269818FE10F90DF91CF910C9484
S1130FE06F03FC01009711F40C9419073091F50B71
S1130FF09091F60B8091A60B811124C047EA5BE027
S113100041155105F9F026E0DA0101900D922A9577
S1131010E1F740E058E05093AE0B4093AD0B43EF43
S11310205BE05093B00B4093AF0B892F90E0932B70
S11310309093B20B8093B10B81E08093A60B8DE06B
S11310400C9498020895882329F0813029F4729829
S1131050739A02C07398729A82B182B981B111B83D
S11310607498759A0E94820282E090E00E9497052B
S113107080B1079B0DC00E94800282E090E00E9434
S113108097050E94820282E090E00E949705F1CFCA
S11310900E948002759881B18FEF81B90895CF9332
S11310A0DF931F92CDB7DEB70E94230881B111B838
S11310B0749A759A0E94820282E090E00E949705D9
S11310C080B10E94800282E090E00E9497050E9415
S11310D0820282E090E00E94970580B189830E9499
S11310E0800289810F90DF91CF910895CF93C091B1
S11310F0D91E813011F48CE11AC00E948707109226
S1131100DC1E8FE10E949802C23059F020F4C130F5
S113111089F487E10CC0C33039F0C63059F48AE150
S113112006C0CF910C94BD02CF910C94BA02CF911A
S11311300C949802CF910895811110C08091BB0046
S11311409091D21EE091ED0BF091EE0BE90FF11DA1
S113115080838091D21E8F5F8093D21E2091D21EF5
S113116080912D07281788F430E090E00197281724
S1131170390749F48091701F82FD05C080914011A8
S11311808F7B809340110C94770280914011282F1B
S11311902E7F9091701F91FF0AC09D7F9093701FC6
S11311A0822F8061809340118091B90003C08E77B3
S11311B0809340110E94770281E0809349038091DB
S11311C00D02811102C00C9476080895CF93C0914A
S11311D0D91E813011F48EE114C00E948707109249
S11311E0DC1EC33089F038F4C13051F0C23079F4D8
S11311F0CF910C94BD02C63050F41092D91E07C092
S113120087E1CF910C949802CF910C94BA02CF91BC
S113121008958091D21E90912D07891780F4E09152
S1131220ED0BF091EE0BE80FF11D80818093BB0074
S11312308091D21E8F5F8093D21E0C94770280918E
S11312404011282F2E7F9091701F91FF06C09D7F23
S11312509093701F822F806101C08E77809340111C
S11312600E94770281E08093490380910D028111ED
S113127002C00C94E6080895CF93DF931F92CDB774
S1131280DEB789830E94DF02909140119A7F909388
S113129040110E9477020E94DF02909140119460F5
S11312A0909340110E94770291E09093490320911A
S11312B0480390910D028981222339F091110CC0C9
S11312C00F90DF91CF910C947608911105C00F9087
S11312D0DF91CF910C94E6080F90DF91CF910895A0
S11312E0CF93DF931F92CDB7DEB769830E942308A3
S11312F0698162B981B18FEF81B9749A75980E943E
S1131300820282E090E00E9497050E94800280E0C1
S11313100F90DF91CF910895CF93DF931F92CDB7B4
S1131320DEB769830E942308749875980E9482022C
S113133081B18FEF81B9698162B982E090E00E9446
S113134097050E94800280E00F90DF91CF9108956D
S1131350CF93DF93982FC62FD82FD295D695D695B5
S1131360D37081E0D8279F73692F60648D2F0E940A
S11313708C096C2F6770686B8D2FDF91CF910C9463
S11313808C095F926F927F928F929F92AF92BF92DD
S1131390CF92DF92EF92FF920F931F93CF93DF933D
S11313A090EE980F903608F054C06B0190E080974F
S11313B025E0289F8001299F100D11240C5B1D4FEF
S11313C0912C89EF682E6D0C55245394AA24A39470
S11313D0B12CF92CFC0CD62DF8017490F6FACC271C
S11313E0C0F9C5258D2E869486948694FD2FF770BA
S11313F0EF2E682D8F2D70FE0DC00E94A8098C2F32
S11314000E944F08B50101C0660FEA94EAF7E82E7E
S1131410E62A0DC00E94A8098C2F0E944F0895014E
S113142001C0220FEA94EAF72095E82EE222682D03
S11314308F2D0E94A8096E2D8C2F0E94700976941E
S1131440DF5FDD11CFCF0F5F1F4F939485E09812BC
S1131450C0CFDF91CF911F910F91FF90EF90DF905C
S1131460CF90BF90AF909F908F907F906F905F9040
S11314700895EF92FF920F931F93CF93DF9300D0C1
S1131480CDB7DEB77C01162F962F00E0F701E00FF1
S1131490F11D84918823B1F08A3011F08D3019F454
S11314A0485F912F0DC0893011F4965F09C09A5F8F
S11314B0692F742F49839A830E94C1099A814981B3
S11314C00F5FE4CF0F900F90DF91CF911F910F9199
S11314D0FF90EF900895FF920F931F93CF93DF93A4
S11314E0F62E8C01D42FCF2DF80181918F01882302
S11314F079F08A3011F08D3011F4D85FF4CF89304F
S113150011F4C65FF1CFCA5FBE010E94C109ECCFDE
S1131510DF91CF911F910F91FF900895CF93DF93A7
S1131520C0E06C2F80E00E94A8096C2F80E40E9428
S1131530A809D0E060E080E00E94700960E081E0EA
S11315400E947009DF5FD038A9F7CF5FC83049F730
S113155080E0DF91CF910895CF92DF92EF92FF92D6
S1131560CF93C82F6A017B010E94E70229E0C29F42
S1131570F0011124DF01AF5FBE4E6D937D938D9317
S11315809C9313971496CD92DD92ED92FC9217974B
S1131590E75FFE4E80818160826080838FE0CF911F
S11315A0FF90EF90DF90CF900C94980281E08093AD
S11315B05E0341E45FE166E072E00E94860344E674
S11315C050E060E070E080E00C94AC0A4F925F92CF
S11315D06F927F928F929F92AF92BF92CF92DF923F
S11315E0FF920F931F93CF93DF93A1E0B1E1C12C3E
S11315F0D12C49E04C9DF0014D9DF00D1124EF01DB
S1131600CF5FDE4EF884F1FECAC00D911D912D917D
S11316103C91139714968D909D90AD90BC90179724
S11316202B013C01401A510A620A730A48145904F6
S11316306A047B0408F4B3C0F0FE06C0E75FFE4E04
S113164020812D7F20830AC0B901A801480D591DAE
S11316506A1D7B1D488359836A837B8323E0C216FA
S113166009F44FC02C1538F081E0C81681F022E04F
S1131670C216E9F12DC085E0C81609F47EC0C8166B
S113168008F441C026E0C21609F47BC021C01092C0
S1131690481F1092491F10924A1F10924B1F10921C
S11316A0521F1092531F1092541F1092551F1092E4
S11316B05C1F10925D1F10925E1F10925F1F1092AC
S11316C0661F1092671F1092681F1092691F70C0E6
S11316D010925E0380915F038F5F80935F0383307A
S11316E018F40E94D60A64C00E94190761C09FB70B
S11316F0F8948091D91E9FBF813009F059C087E1C9
S11317003DC084E23BC09FB7F894809146038111A9
S113171027C081E0809346031092230E9FBF9FB79A
S1131720F89480917A00806880937A009FBFCFB745
S1131730F89480910C02813089F4809146038130C1
S113174021F482E20E94980209C0823039F4809127
S1131750230E80930C0283E080934603CFBF28C0FE
S11317608091230E882339F08091001180FD03C0FD
S11317708160809300119FBF1BC081E00E9498028A
S113178017C08FB7F89491E090932C078FBF48EE61
S113179053E060E070E085E00E94F30209C02FEF9F
S11317A0C21AD20A199627E0C216D10409F022CF30
S11317B08FE0DF91CF911F910F91FF90DF90CF9039
S11317C0BF90AF909F908F907F906F905F904F905D
S11317D00C9498022F923F924F925F926F927F9255
S11317E08F929F92AF92BF92CF92DF92EF92FF922D
S11317F00F931F93CF93DF93CDB7DEB7C75CD109A7
S11318000FB6F894DEBF0FBECDBF6DB67EB690E0C6
S11318108532910510F00C94541EFC01EE58FF4FD4
S11318200C9425258FB7F89410912B07009121076C
S11318308FBF0E948E0A4AE060E08DE994E00E9426
S1131840390A812F90E0C0970A9778F4043068F43D
S11318508FB7F894E091210791E09E0F90932107B0
S1131860F0E0EF5DF84F11838FBF183071F400235F
S113187061F08FB7F894E0912107E150E0932107DC
S1131880F0E0EF5DF84F11828FBF9FB7F89485E0C9
S1131890E2E2F7E0DE01119601900D928A95E1F7FC
S11318A09FBF44E160E0CE0101960E946B0A1736A7
S11318B011F00C94541E4AE050E060E070E0CE0158
S11318C001960E9456262FB7F89433E030932C07E4
S11318D02FBF9B012B5633402E3C310540F081E055
S11318E08093680387E00E9498020C94541E2FB7DB
S11318F0F89470932807609327072FBF85E00E9410
S113190098020C94541E2FB7F89480912907909153
S11319102A0731E030932C072FBF6AE070E00E9461
S113192011259F938F937F936F938AEA92E09F93FD
S11319308F938E0101541F4F1F930F930E944228CF
S11319400E948E0A47E060E083E994E00E94390A2D
S113195047E066E3C8010E946B0A47E06EE58FE842
S113196094E00E94390A85E1EAEDF6E0DE01A7552C
S1131970BF4F01900D928A95E1F785E1EFEEF6E015
S1131980DE01AF57BF4F01900D928A95E1F786E1D2
S1131990E4E0F7E0DE01119601900D928A95E1F7FB
S11319A0C254DF4F1882CE5BD040CA56DF4F188234
S11319B0C659D0401F8A4FE060E081ED96E00E9456
S11319C06B0A4FE066E38BE197E00E946B0A47E104
S11319D06AE7CE0187559F4F0E946B0A4FE16AE781
S11319E0CE018F579F4F0E946B0A47E26AE7CE01F0
S11319F001960E946B0A8DB79EB708960FB6F894AD
S1131A009EBF0FBE8DBF0C94541E809169039091AC
S1131A106A03891711F40C94541E2FB7F89490910B
S1131A20D91E2FBF911116C04FB7F89435E03093EB
S1131A30D91E282F2F708091660990916709807FA5
S1131A40822B90936709809366093093D11E4FBF10
S1131A500E94B7028091690380936A030E94D304B1
S1131A600C94541E80E00E945A04882311F40C94B0
S1131A70541E84E00E9498020C94541E81E0F3CF1B
S1131A802FB7F89480912707909128072FBF0E94C1
S1131A907104882311F40C94541E85E00E9498026A
S1131AA00C94541E0E948E0A4AE060E080E894E0A0
S1131AB00E94390A8091680344E160E0811106C004
S1131AC08CE594E00E94390A0C94541E81E794E05A
S1131AD00E94390A0C94541E0E948E0A4AE060E067
S1131AE080E894E00E94390A8091680344E160E050
S1131AF0823039F0833041F0813049F488E494E055
S1131B0008C085E394E005C084E294E002C081E764
S1131B1094E00E94390A48EE53E060E070E086E009
S1131B200E94AC0A0C94541E9FB7F894E0912B07C2
S1131B3080912C079FBF90912C07913009F01BC115
S1131B40E63609F452C0D8F4EE3209F4D7C0E136CF
S1131B5009F43EC0EC3209F0E3C00E94B80480915D
S1131B6036118D7F809336118FB7F89494E090935B
S1131B702C078FBF84E00E9498020C94541EEC360C
S1131B8009F48AC020F4E83609F469C0C9C0E3370F
S1131B9009F4A7C0E43709F0C3C00E94B8048091D7
S1131BA036118D7F809336118FB7F89410922107E8
S1131BB095E0E2E2F7E0DF011D929A95E9F792E001
S1131BC090932C078FBF80E00E9498020C94541EBF
S1131BD080E00E94D6218FB7F89496E090932C076A
S1131BE08FBF0E940B220C94541E8FB7F89496E07A
S1131BF090932C078FBF90916B03993040F52091FF
S1131C00760389E3829FF0011124EB58FC4F609125
S1131C10290770912A07438154816417750711F0CD
S1131C200C94541EE92FF0E0E559FC4F2183E09118
S1131C30750321E0290F20936B038E9FF00111247B
S1131C40EB58FC4F92830E940B220C94541E83E0A9
S1131C508093680387E00E9498020C94541E80913C
S1131C607603811102C080917503815080937603BD
S1131C708FB7F89493E090932C078FBFE09176038D
S1131C8099E3E99FF0011124EB58FC4F838194817F
S1131C900E9471040C94541E20917603422F50E04C
S1131CA08091750390E001974817590719F4109231
S1131CB0760303C02F5F209376038FB7F89493E0E5
S1131CC090932C078FBFE0917603A9E3EA9FF0017C
S1131CD01124EB58FC4F838194810E9471040C946D
S1131CE0541E0E94B8048FB7F89495E090932C0783
S1131CF08FBF82E00E945A040C94541E0E94B804C0
S1131D00809136118D7F809336118FB7F89494E0CB
S1131D1090932C078FBF83E00E9498020C94541E6A
S1131D208E2F90E0C0970A9710F00C94541EE05345
S1131D3011F40C94541E8FB7F89493E090932C07ED
S1131D40F0E0E559FC4FE181B9E3EB9FF001112488
S1131D50EB58FC4F238134813093280720932707C5
S1131D608FBF809136118D7F8093361185E00E945C
S1131D7098020C94541E823011F00C94541E80E08E
S1131D800E9498020C94541E82E00E945A040C94FF
S1131D90541E0E948E0A4AE060E080EB92E00E94AA
S1131DA06B0A0C94541E80914E03882309F440C09E
S1131DB0E0915003F0E0EE0FFF1FE755F14E019064
S1131DC0F081E02D208131818091EB0E81112CC0B6
S1131DD08CEE9EE0892B41F13296F093F50EE09360
S1131DE0F40E80EC8093EC0E88EA8093ED0E8AE288
S1131DF08093EE0E11E01093EF0E80E593EC909338
S1131E00F10E8093F00E9093F30E8093F20E3093C4
S1131E10F70E2093F60E1093EB0E86E10E949802C3
S1131E2010932E0E0C94541E10922E0E0C94541ECD
S1131E3010922E0E0C94541E80914D03E82FF0E066
S1131E40EE0FFF1FE451FE4EE080F18090914B03B2
S1131E50992359F08F5F853019F080934D0302C0A8
S1131E6010924D03915090934B03F701A080B180E1
S1131E70F5013197EE0DFF1D82818A3009F06BC0A8
S1131E8012826701F2E0CF0ED11C6DE070E0C60152
S1131E900E94AD27009721F0DC011D928D0105C041
S1131EA085010F5F1F4F0E0D1F1D43E050E06FE2D1
S1131EB072E0C6010E94C127892B11F00C94561BB5
S1131EC08DB69EB6F701408151815A01F2E0AF1AF6
S1131ED0B1088DB79EB78A199B090FB6F8949EBFB7
S1131EE00FBE8DBFADB7BEB711966D0143505109FA
S1131EF0B801CD010E949D27F601EA0DFB1D108259
S1131F00AE0141545F4F63EC72E0C6010E94DE27CC
S1131F105C01009711F40C94E71ABC0185EC92E083
S1131F200E94B827892B11F00C94E71A4AE050E07C
S1131F3060E070E0C154DF4F88819981CF5BD0406D
S1131F400E942B25603110F40C94EB190FB6F89411
S1131F509EBE0FBE8DBEC7010E941D0380914B0320
S1131F60882329F08CE00E9498020C94541E10924D
S1131F70270E0C94541E8091620381110C94541EFC
S1131F80809163038F5F817080936303EDE0E89F2A
S1131F90D0011124AA55B44F9C91913011F40C94A2
S1131FA0C11B8F5F817080936303E89FF00111244C
S1131FB0EA55F44F8081813011F00C94541E0C9436
S1131FC0C11B8091EC0B811141C04091D31E5091F3
S1131FD0D41E6091D51E7091D61E2FB7F894C09070
S1131FE04411D0904511E0904611F0904711809132
S1131FF0E60B9091E70BA091E80BB091E90B8C0DE7
S11320009D1DAE1DBF1D2FBF4093D31E5093D41EE4
S11320106093D51E7093D61E1092EC0B2FB7F894D4
S113202031E030932E078093E60B9093E70BA09357
S1132030E80BB093E90B409344115093451160931E
S11320404611709347112FBF0E940C040E94E702AF
S11320500E94E60A0C94541E0E94E7022FB7F894DB
S113206010922E072FBFE1E0F1E110E022242A9420
S1132070322C422C2FE7522E20E030E009E0029F60
S1132080D001039FB00D1124AF5FBE4E18964C9142
S113209041FF1AC0C080D180E280F3804B015C0113
S11320A08C189D08AE08BF08C480D580E680F780F0
S11320B0C818D908EA08FB08C214D304E404F504D8
S11320C01CF41601270111E02F5F3F4F399627308A
S11320D03105A9F6112311F40C94541E121413049F
S11320E01404150424F00E94E60A0C94541E209251
S11320F0D31E3092D41E4092D51E5092D61E21E09B
S11321002093EC0B3FB7F89420932E076093E60BD3
S11321107093E70B8093E80B9093E90B20924411A2
S11321203092451140924611509247113FBF0E9490
S11321300C040C94541E80915C0381110C94541E65
S113214080915D0390E001968170992780935D03EF
S11321502DE1289FF001299FF00D1124EE54FE4E2D
S11321603081313011F40C94211C0196817099272F
S113217080935D03289FF001299FF00D1124EE54F4
S1132180FE4E8081813011F00C94541E0C94211C5D
S113219080915A0381110C94541EE0915B03EF5F0C
S11321A0E170E0935B03AE2FB0E003E0AA0FBB1F26
S11321B00A95E1F7A15FB14F8C91813011F40C9431
S11321C0631CEF5FE170E0935B03F0E013E0EE0F5C
S11321D0FF1F1A95E1F7E15FF14F8081813011F023
S11321E00C94541E0C94631C8091580381110C941C
S11321F0541E809159038F5F817080935903EBE0E3
S1132200E89FD0011124A85BBE4E9C91913011F43B
S11322100C94701D8F5F817080935903E89FF001C7
S11322201124E85BFE4E8081813011F00C94541E21
S11322300C94701D81E0809354030E94A3060C94B7
S1132240541E8FB7F8941092300710922F071092F3
S1132250EB0B1092EA0B10923D1F10923C1F109250
S1132260290E1092280E8FBF0C94541E8FB7F89429
S113227092E0909353038FBF8091110281110C94CB
S1132280541E0E947C0280915703813021F08230D9
S113229009F498C085C26FEF8FEF0E9443038DE16C
S11322A00E94590380FFFBCF80E00E94DA0760E0C0
S11322B076E088E00E944E0680E096E09093150256
S11322C08093140260E076E08CE00E944E066FEF8B
S11322D07FE18AE00E944E0660E070E084E00E94A4
S11322E04E0660E88EE50E94430381E00E94DA070F
S11322F061EA88E50E94430382E00E94DA0760E015
S113230081E40E94430361E080E40E94430363E3A9
S113231082E40E94430360E083E40E9443036AE290
S113232072E08AE00E944E0665E184E40E94430361
S1132330909128028091290290931B0280931A02A3
S113234083E00E94DA0760911B0281E40E94430348
S113235060911A0280E40E9443036091190283E4AD
S11323600E9443036091180282E40E944303609137
S1132370170285E40E9443036091160284E40E94DC
S1132380430382E00E94DA0764E184E50E94430388
S113239060E471E086E10E944E0662E184E50E94F9
S11323A0430362E170E086E10E944E0660ED8BE536
S11323B00E94430364E08FE10E946F0382E08093F4
S11323C05703EEC180915403882309F43FC010924F
S11323D054038CE10E945903182F84FF20C082E02B
S11323E00E94DA0763E184E50E94430361E082E529
S11323F00E94430383E00E94DA078AE00E94BD2121
S113240080FDFBCF82E00E94DA0760E082E50E9453
S1132410430388E10E94BD2189E10E94BD2181E03E
S11324200E94DA0789E10E945903882319F081E0A8
S11324308093550310FF0AC00E947E028CEB0E9419
S1132440410381E00E9441030E947C028091560373
S1132450813009F043C080E00E94DA0760E070E058
S113246082E00E944E0660E08AE70E94430300E097
S113247010E06091EF0B7091F00B0617170768F4EA
S1132480E0915E11F0915F11E00FF11F60818AE726
S11324900E9443030F5F1F4FECCF86E00E944E065D
S11324A068E08FE10E946F0310925603109262035A
S11324B0809163032DE0829FF0011124EA55F44FCB
S11324C01082882331F0813031F480E00E94FA21B7
S11324D002C00E9419078DE00E9498028091550362
S11324E0813009F05DC180E00E94DA076091140236
S11324F07091150280E00E944E068AE30E945903FF
S113250090E090931502809314028AE30E94590389
S11325102091140230911502382B30931502209328
S113252014028AE30E945903082F10E08AE30E94F0
S11325305903182B8AE30E9459038AE30E94590322
S1132540C8010F978B31924090F4F1E3EF2EF7E03E
S1132550FF2E8AE30E945903D7018D937D01CD019B
S11325608153974080179107A0F310E001C011E058
S113257060911402709115028CE00E944E0660E492
S11325808EE10E946F0310925503111109C18091CD
S11325903D0790E0982F882720913E07822B8115D4
S11325A0B8E09B0729F08630984009F498C0F8C039
S11325B08FE397E09093D81E8093D71E80914F07A6
S11325C090915007A0915107B091520700912402B5
S11325D0109125022091260230912702801791073D
S11325E0A207B30739F140911C0250911D0260917A
S11325F01E0270911F026A017B01C094D094E09482
S1132600F0944601570188229922AA22BB228C14F5
S11326109D04AE04BF0409F0C3C080279127A227FC
S1132620B32784239523A623B723892B8A2B8B2BAB
S113263009F0B6C080914807813109F0B1C04091DA
S1132640570750E0542F442780915807482B8A019C
S1132650085011098091550790E0982F8827209100
S11326605607822B8035934C09F09AC00E94ED03E3
S11326707C0142E360E08BE597E00E946B0A01383D
S1132680110510F000E810E0A8016BE577E0C70140
S113269002960E949D27D7010D931C9320914B0312
S11326A02530A8F490914C03E92FF0E0EE0FFF1FC2
S11326B0E451FE4EF182E08281E0890F80934C0365
S11326C0853011F410924C032F5F20934B038091BB
S11326D0270E811165C08CE00E94980261C0809130
S11326E0450790E0982F882720914607822B813058
S11326F0910519F00297F1F053C0409124025091D2
S113270025026091260270912702809157079091CB
S11327105807A0915907B0915A07481759076A07F3
S11327207B07F1F54DE457E067E477E082E00E942F
S1132730860336C080915E03813091F580916003F9
S1132740BAE08B9FC0011124FC01E85BF04E40917C
S11327504D0750914E0760914F0770915007408389
S1132760518362837383DC01A45BB04E26E0E7E40B
S1132770F7E001900D922A95E1F7209109112D7F40
S11327802093091110925E03845B904E0E94F1071E
S11327908091600390E00196837099278093600391
S11327A01FB7F89480915303823011F58091110280
S11327B081111EC0809113028F3FB1F0E82FF0E029
S11327C0EF50F44F9081909313029F3F11F4909334
S11327D012029FEF90838093110281E08093530350
S11327E085E10E94980204C0809311021092530361
S11327F01FBF9FB7F89480915303882311F40C945E
S1132800F01D9FBF1FB7F8944A9903C083E10E944B
S113281098021FBF0C94541E8091510381110C9493
S1132820541E10925203F090EB0EE1E0FE120C9451
S1132830541E0C94F51D9FB7F8948091DD1E9FBF24
S1132840811110C05A9A48EE53E060E070E082E0D3
S11328500E94AC0A8FB7F89491E09093DD1E8FBF6D
S11328600C94541E813051F48FB7F89492E09093F5
S1132870DD1E8FBF0E94C0020C94541E8230D1F41E
S11328802FB7F89480916A0990916B09906890939E
S11328906B0980936A0910927B0910927A098FE080
S11328A08093D11E83E08093DD1E2FBF0E94B70268
S11328B00C94541E833079F48FB7F89494E0909379
S11328C0DD1E8FBF4EEE52E060E070E082E00E94B9
S11328D0AC0A0C94541E843099F48FB7F89421E018
S11328E030E4309361092093600992E09093D11E03
S11328F095E09093DD1E8FBF0E94B7020C94541E86
S1132900853079F48FB7F89496E09093DD1E8FBFED
S113291046E950E060E070E082E00E94AC0A0C946A
S1132920541E863051F48FB7F89497E09093DD1ECF
S11329308FBF0E94C0020C94541E873009F040C01F
S11329402FB7F89480915E0990915F092FBF83356A
S1132950924161F08FB7F8941092D91E8FBF1092F4
S1132960680386E00E9498020C94541E2FB7F894D2
S11329708091640990916509837397728460986467
S1132980909365098093640980E199E190936709C4
S113299080936609809168099091690988279E7FD0
S11329A08F64909369098093680986E08093D11EAF
S11329B088E08093DD1E2FBF0E94B7020C94541E42
S11329C0883011F00C94541E8FB7F8941092D91ECD
S11329D08FBF44E650E060E070E084E00E94F302C0
S11329E08FB7F89491E090932C078FBF81E00E94F9
S11329F0D6218AE00E9498020C94541E9FB7F89442
S1132A008091DE1E9FBF811122C02FB7F894809160
S1132A103F1F9091401F8B56934093709068909302
S1132A2063098093620980916409909165099F7696
S1132A30909365098093640984E08093D11E81E0BA
S1132A408093DE1E2FBF0E94B7020C94541E813067
S1132A5059F48FB7F89492E09093DE1E8FBF88E00C
S1132A608CBBEB9A0C94541E823051F48FB7F894BB
S1132A7093E09093DE1E8FBF0E94C0020C94541EFC
S1132A80833001F59FB7F89420917209309173094E
S1132A90337025593C4F3093471F2093461F209194
S1132AA06209309163093F77309363092093620987
S1132AB08093D11E84E08093DE1E9FBF0E94B702E4
S1132AC00C94541E843051F48FB7F89495E090938D
S1132AD0DE1E8FBF0E94C0020C94541E853011F07C
S1132AE00C94541E2FB7F894809170099091710939
S1132AF088279074892F99272FBF892B71F52091EE
S1132B00461F3091471F8FB7F89430932A072093BC
S1132B1029078FBF48EE53E060E070E085E00E9433
S1132B20F3028FB7F8949FE09093EA1E8FBF8091D1
S1132B30E11E882359F08FB7F89494E09093D91E3E
S1132B408FBF81E00E9408060C94541E8FB7F8943E
S1132B501092D91E8FBF0C94541E8FB7F89494E032
S1132B609093DE1E8FBF0E94BD020C94541E9FB72B
S1132B70F8941091260E8091DF1E9FBF811141C0F1
S1132B802FB7123061F4F894809160099091610933
S1132B90956090936109809360092FBF0FC0F894EA
S1132BA080916009909161099A7F91609093610985
S1132BB0809360092FBF11110C944B1E2FB7F8940A
S1132BC0809160099091610992609093610980936A
S1132BD060092FBF2FB7F89480916409909165091B
S1132BE09F769064909365098093640984E0809350
S1132BF0D11E81E08093DF1E2FBF0E94B7020C9488
S1132C00541E813059F48FB7F89492E09093DF1EEC
S1132C108FBF88E08CBBEB9A0C94541E823051F425
S1132C208FB7F89493E09093DF1E8FBF0E94C00289
S1132C300C94541E833089F52FB7F8948091700951
S1132C40909171098827907290936503809172091D
S1132C5090917309937085599C4F9093471F80936B
S1132C60461F80916009909161099E7F909361094C
S1132C708093600980916409909165099F7B90938A
S1132C8065098093640984E08093D11E8093DF1EDC
S1132C902FBF0E94B7020C94541E843051F48FB796
S1132CA0F89495E09093DF1E8FBF0E94C0020C94AD
S1132CB0541E853011F00C94541E2FB7F894809153
S1132CC070099091710988279074892F99272FBFD3
S1132CD0892B09F05DC080916503811135C0209175
S1132CE0461F3091471F8FB7F89430932A072093DB
S1132CF029078FBF48EE53E060E070E085E00E9452
S1132D00F3028FB7123039F4F8941092DF1E8FBF9C
S1132D100E94BA02C9C7F8949FE09093EA1E8FBF3D
S1132D208091E11E882351F08FB7F89494E090933A
S1132D30D91E8FBF81E00E940806B6C78FB7F894EA
S1132D401092D91E8FBFB0C78FB7F8942FEF3FEF03
S1132D5030932A07209329078FBF48EE53E060E0A1
S1132D6070E085E00E94F3028091E11E882351F017
S1132D708FB7F89494E09093D91E8FBF81E00E949E
S1132D80080692C78FB7F8941092D91E8FBF8CC7CC
S1132D908FB7F89494E09093DF1E8FBF0E94BA021D
S1132DA083C78FB7F8946091E01E8FBF611109C08B
S1132DB08FB7F89491E09093E01E8FBF0E94C002F9
S1132DC073C7613009F070C74FB7F894E091740984
S1132DD0F091750980917609A0917709909178090D
S1132DE07091790920917A0930917B094FBF4A2F5C
S1132DF046954695469550E04430510509F45BC02C
S1132E0024F44230510550F0FAC04530510509F41C
S1132E107FC04830510509F4AEC0F1C04FB7F894F3
S1132E20F093F31EE093F41E8370E82FF0E0EE0FAE
S1132E30FF1FE951F14E3483258321E030E0D901AD
S1132E4002C0AA0FBB1F8A95E2F7CD019091E71E3D
S1132E50892B8093E71E4FBF8F3009F0D0C089E0E3
S1132E60E1EDF6E0DF011D928A95E9F788E0EBEEEB
S1132E70FEE1A1EDB6E001900D928A95E1F72FB73E
S1132E80F8946093CE068091F31E90E0982F8827E3
S1132E903091F41E832B9093D0068093CF062FBFDE
S1132EA048E050E060E270E08BEE9EE10E94A627CD
S1132EB01092E71EA4C08F70FFB6F894B4E08B9F05
S1132EC0A00111248A010951114EF8017687BA0133
S1132ED06851714EDB011E969C93DA01A751B14EE5
S1132EE01E963C931E974651514EFA012687FFBE0B
S1132EF0F80196859D3021F1FB0196859D3001F105
S1132F001E969C919D30E1F0DA011E969C9116C0AC
S1132F108F709FB7F894E82FF0E0EE0FFF1FDF01EA
S1132F20A951B14E1E963C931E97E851F14E268747
S1132F309FBF1E969C919D3019F096859D3011F48B
S1132F408093EA1E9FB7F8948091E81E8F5F809368
S1132F50E81E9FBF81E4EAEDF6E0DF011D928A9549
S1132F60E9F780E4E5EFFEE1AAEDB6E001900D9209
S1132F708A95E1F744C0892F82958071932F9295A9
S1132F809F70892BA901E6E056954795EA95E1F7EC
S1132F904F73922F9F71969525FF02C0891B01C024
S1132FA0890F0FB7F894E5E3FFE116E0DF01212F65
S1132FB01D922A95E9F71F924F931F928F938FE1E9
S1132FC093E09F938F93FF93EF930E9442280FBF48
S1132FD0EBE1F7E0DF01212F1D922A95E9F7E5E304
S1132FE0FFE1ABE1B7E001900D921A95E1F78DB7DF
S1132FF09EB708960FB6F8949EBF0FBE8DBF809102
S1133000E11E81110CC08FB7F89494E09093D91EFF
S11330101092E01E8FBF80E00E94080645C68FB75D
S1133020F8941092D91E1092E01E8FBF3DC69FB730
S1133030F8948091DC1E9FBF882319F00E94C0027F
S113304033C68FB7F89491E09093DC1E8FBF0E9433
S1133050A0052AC68FB7F89490910D02911135C03E
S11330608FBF8FB7F89490914903913071F522E0A6
S1133070209349038FBF8FB7F89420E130E0309359
S1133080250E2093240E20E631E13093EE0B20939D
S1133090ED0B20E220932D0723E02093701F109264
S11330A0D21E909348038FBF0E94DF021FB7F8948B
S11330B0809140118F7A816A8093401184E08093DB
S11330C049030E9477021FBFEFC58FBF8CE10E94A6
S11330D09802EAC59FB7F8948091DC1E9FBF8823AD
S11330E019F00E94B702E0C59FB7F89482E080937C
S11330F0DC1E8091D11E880F82509FBF20E092E099
S11331002817B0F43FB7F894422F50E0E92FF0E0CD
S1133110EE0FFF1FE45AF64F60817181FA01E05A05
S1133120FE4E708361833FBF9F5F9F702E5FE8CF29
S11331300E94A005B9C59FB7F8948091D11E9FBF86
S11331409FB7F89420910D02211136C09FBF9FB7FD
S1133150F89420914903213079F522E02093490322
S11331609FBF9FB7F89420E130E03093250E209361
S1133170240E20E631E13093EE0B2093ED0B880F03
S1133180825080932D0783E08093701F1092D21E8B
S1133190109248039FBF0E94DF021FB7F8948091EA
S11331A040118F7E816E8093401184E080934903A7
S11331B00E9477021FBF78C59FBF8EE10E949802CC
S11331C073C540E050E02AE0DA01A05ABE4EE22F77
S11331D0F0E0EE0FFF1FE45AF64F8C9190E0982F29
S11331E0882711963C91832B918380832F5F2F70C6
S11331F04E5F5F4F4032510539F756C58FB7F8948B
S11332009091F61190930E0293E090934A038FBF2E
S113321080910E029FB7F89480930D029FBF811195
S113322043C59FB7F8948091DC1E9FBF813031F075
S1133230823041F48EE10E94980236C58CE10E94EE
S1133240980232C50E9487072FC51FB7F894809152
S11332504803882321F081E00E949C0802C00E9458
S113326009091FBF21C58FB7F8949091230E90933D
S11332700C0293E0909346038FBF80910C0281115E
S113328001C0809880910C0281110EC581E0809369
S1133290C90E10923B1F0E943B0706C51092C90E2F
S11332A0009142111091431180913B1F8111FCC484
S11332B0FFB6F89480914603833009F03EC08091B4
S11332C00C0281113AC080910011882309F4D8C4FA
S11332D06091470370E0CB010196A1E0B0E081303A
S11332E0910511F480E090E0E82FE695E695E695E7
S11332F0F0E0E050FF4E2081382F3770AD0101C05F
S1133300440F3A95EAF7322F342331F040952423C1
S113331020838093470306C08617970711F0019610
S1133320DECF8FEF8093230E8FEF80930C0281E02A
S11333308093460382E20E949802FFBE96E01695AF
S113334007959A95E1F70093690382E00E94980239
S1133350ABC480912B0E8130E1F460E080E80E94E0
S1133360950688E290E00E94970500E010E0F801DD
S1133370E553F14F61E080810E94950688E290E078
S11333800E9497050F5F1F4F0031110581F71092BE
S11333902B0E80912C0E813009F086C460E080EC05
S11333A00E94950688E290E00E94970500E010E0F4
S11333B0F801E552F14F61E080810E94950688E2B0
S11333C090E00E9497050F5F1F4F0031110581F7B0
S11333D010922C0E69C46CE270E0C154DF4F8881F6
S11333E09981CF5BD0400E94AD27892B21F40E94A4
S11333F0ED210C94A60F8E010F5F1F4FA80163EC03
S113340072E0C5010E94DE275C01009711F40C9460
S1133410A60F6E01B9EACB0ED11C49805A80B501C2
S113342088EC92E00E94B827892BB1F44AE050E07E
S113343060E070E0C2010E942B259B012B563340B3
S11334402E3C310510F00C94A60FCA53DF4F68834D
S1133450C65CD040372EAEC0B5018DEC92E00E9420
S1133460B827892B91F44AE050E060E070E0C20193
S11334700E942B25CC53DF4F6883C45CD040CB53D0
S1133480DF4F7883C55CD04095C0B50184ED92E0F0
S11334900E94B827892B79F44AE050E060E070E09C
S11334A0C2010E942B258FEF860F893010F00C94F7
S11334B0A60F262E7FC0B5018AED92E00E94B827A0
S11334C0892B99F55F924F92AFEDB2E0BF93AF9322
S11334D01F92F9E0FF93DF92CF920E940528D60154
S11334E018961C92E981FA81CF0108969A83898300
S11334F08DB79EB708960FB6F8949EBF0FBE8DBFCA
S113350080858C3211F00C94A60FCF0109969A8312
S113351089836CE270E00E94AD27009711F40C944B
S1133520A60F01969A83898345C0B50184EE92E083
S11335300E94B827892BF1F56E0191E8C90ED11CC0
S113354048E250E0B201C6010E94CF27FE01E755D0
S1133550FF4F10A6DF92CF92FF93EF93CB53DF4F31
S11335602881C55CD0402F93CC53DF4F2881C45CA5
S1133570D0402F933F92CA53DF4F2881C65CD0407E
S11335802F931F922F9289EE92E09F938F931F9314
S11335900F930E94422848E260E0C8010E946B0A2F
S11335A08DB79EB70E960FB6F8949EBF0FBE8DBF13
S11335B00C94A60FA80163EC72E080E090E00E94F6
S11335C0DE275C01009709F028CF0C94A60FC154A4
S11335D0DF4F19821882CF5BD040D701AD90BC90E9
S11335E0A50143505109B801C6010E949D27AC0CA6
S11335F0BD1CF50132971082AE0141545F4F63E068
S113360073E0C6010E94DE2730E8B32E05E013E024
S1133610009711F40C94A60F4AE050E060E070E0CB
S11336200E942B256031C0F5C953DF4F6883C75C06
S1133630D0400E94ED036C012C01B2E04B0E511CF2
S1133640F2012B2D11922A95E9F71F92C953DF4FEE
S11336506881C75CD0406F931F930F935F924F9222
S11336600E944228F20101900020E9F73197E41901
S1133670F509D601ED93FC93C6010E943B040F901B
S11336800F900F900F900F900F9080912E0E81113C
S113369003C08BE00E949802AE0141545F4F63E087
S11336A073E080E090E00E94DE27B2CF44E050E077
S11336B06AE272E0C6010E94C127892B11F00C94C2
S11336C0AB0FCDB6DEB6F701408151815A01F3E06C
S11336D0AF1AB1088DB79EB78A199B090FB6F89433
S11336E09EBF0FBE8DBFADB7BEB711964D014450FE
S11336F05109B801CD010E949D27F401EA0DFB1D7B
S11337001082AE014F5F5F4F63EC72E0C4010E9410
S1133710DE27009779F110E0A980BA80BC0180E12E
S113372093E00E94B827892B79F4B50184E193E0F2
S11337300E94B827892B39F0B50188E193E00E94F3
S1133740B827892BB9F411E06CE270E0C5010E943E
S1133750AD2701969A838983AE014F5F5F4F63EC77
S113376072E080E090E00E94DE270097A9F6111134
S11337700E94ED210FB6F894DEBE0FBECDBE0C94B0
S1133780AB0FE0916303ADE0EA9FC0011124FC019B
S1133790E955F44F26E0ACE7B9E001900D922A9583
S11337A0E1F726E0E6E1F2E0A2E8B9E001900D924B
S11337B02A95E1F7FC01EA55F44F978180859093AF
S11337C08909809388090385148561857285A80118
S11337D08AE899E00E949D278091560381111AC0BE
S11337E0809157038230B1F40E94A306811114C062
S11337F08CE799E090935F1180935E11025F1F4FF5
S11338001093F00B0093EF0B81E0809356038093A9
S113381062034AC285E001C087E090916303BDE082
S11338209B9FF0011124EA55F44F1082911103C0BB
S11338300E94190739C2913009F036C20E94FA2158
S113384033C280915D03282F30E06DE1869FF00143
S11338501124AF014D545E4E9091B30B911126C0CB
S113386064EB7BE06115710509F1EB53FE4E86E0D4
S1133870DB0101900D928A95E1F786E098E0909340
S1133880BB0B8093BA0B5093BD0B4093BC0B8CE1E4
S113389090E09093BF0B8093BE0B11E01093B30B99
S11338A08DE00E94980210935C03FEC19DE1929FFB
S11338B0F001939FF00D1124EE54FE4E108265E04A
S11338C00E942907F1C1F0905B0385E48093F30B18
S11338D01092F40B86E68093F80B8093F70B10920A
S11338E0FA0B1092F90B8FEF8093FB0B88E0F89E94
S11338F080011124D801A15FB14F6D0116964D913D
S11339005C911797CA0144968093F60B9093F50B3C
S11339101196ED91FC91129780819181A281B381DE
S11339208093030C9093040CA093050CB093060CA5
S11339308091240290912502A0912602B091270241
S11339408093FF0B9093000CA093010CB093020C96
S1133950F6016481758187E09CE00E949D27D60171
S113396013968C918093FC0B1092FE0B1092FD0B1E
S1133970E3EFFBE040E050E0BA0181919191480F00
S1133980591F611D711DBCE0E730FB07B1F7CB0186
S1133990AA27BB270097A105B10539F06627772729
S11339A0480F591F6A1F7B1FF2CF409550956095B1
S11339B070955093FE0B4093FD0B80911C029091E7
S11339C01D02A0911E02B0911F028090030C9090E2
S11339D0040CA090050CB090060C4091FF0B509184
S11339E0000C6091010C7091020C482559256A2540
S11339F07B25482359236A237B23452B462B472BBE
S1133A0019F4E3E0FCE002C0E0E2F2E0408151811D
S1133A106281738180959095A095B0954C015D016C
S1133A2084229522A622B72288169906AA06BB06E6
S1133A3019F480E092E030C0D090610334E0E32ECA
S1133A40AAE0CA2E8D2D90E0C89E9001C99E300D2B
S1133A501124D901A85BB04E8D909D90AD90BC907F
S1133A6084169506A606B70631F4D0926103C901FF
S1133A70845B904E0BC0019683709927D82EEA94EC
S1133A80E110E0CF8093610380E090E090936703BE
S1133A9080936603009719F00E94F1071DC080917E
S1133AA05E03811111C080819181A281B3818093D1
S1133AB0411F9093421FA093431FB093441F109241
S1133AC05F030E94D60A08C0F801E15FF14F10823B
S1133AD08F2D0E94F506E8C081E080935A03E4C06C
S1133AE0E0915903EE2EF12CBBE0EB9FF001112481
S1133AF0E85BFE4E418552858A010C5F1F4F85812C
S1133B0080932F0E86818093300E6781708583E3C6
S1133B109EE00E949D271092320E1092310EA80151
S1133B2056954795EFE2FEE020E030E080E090E03B
S1133B30DC012417350749F061917191860F971FB5
S1133B40A11DB11D2F5F3F4FF4CFAD01662777272D
S1133B50411551056105710539F0AA27BB27840F6A
S1133B60951FA61FB71FF1CF80959095A095B0958E
S1133B709093320E8093310E80910F0E811126C0E6
S1133B8080E19EE0892B11F12BE02E9DC0012F9D39
S1133B90900D1124875B9E4E9093110E8093100E0E
S1133BA0FF24F394F092120E8FE29EE09093140E91
S1133BB08093130E1093160E0093150EF0920F0EB1
S1133BC081E10E949802F09258036EC08BE08E9DB2
S1133BD0F0018F9DF00D1124E85BFE4E108264C04D
S1133BE08CB58F7B8CBD0C9401149091F00E809158
S1133BF0F10E9093F90E8093F80E9091F20E80914D
S1133C00F30E9093FB0E8093FA0E4091F60E5091B2
S1133C10F70E8A01085F1F4F0093FD0E1093FC0EF0
S1133C206091F40E7091F50E80E09FE00E949D2754
S1133C308091170E81111FC088E19EE0892BD9F075
S1133C408CEE9EE09093190E8093180E81E1809380
S1133C501A0E88EF9EE090931C0E80931B0E109317
S1133C601E0E00931D0EF092170E81E10E94980221
S1133C70F092510319C01092EB0E0E94640614C016
S1133C8081E080930C021092460380917A008F7732
S1133C9080937A0052CB2FB7F89480916009909169
S1133CA061099D7F0C94E5150FB6F8947EBE0FBE96
S1133CB06DBEC953DF4F0FB6F894DEBF0FBECDBF44
S1133CC0DF91CF911F910F91FF90EF90DF90CF90F4
S1133CD0BF90AF909F908F907F906F905F904F9028
S1133CE03F902F9008958FB7F89408958FBF08954B
S1133CF01F920F920FB60F9211240BB60F922F93AF
S1133D003F934F935F936F937F938F939F93AF935F
S1133D10BF93EF93FF932FB7F89480911F0E909168
S1133D20200EA091210EB091220E0196A11DB11D6D
S1133D3080931F0E9093200EA093210EB093220E19
S1133D402FBF78940E940C04FF91EF91BF91AF9123
S1133D509F918F917F916F915F914F913F912F919F
S1133D600F900BBE0F900FBE0F901F9018951F92CF
S1133D700F920FB60F9211240F900FBE0F901F9049
S1133D8018951F920F920FB60F9211240BB60F9233
S1133D90CF92DF92EF92FF920F931F932F933F9353
S1133DA04F935F936F937F938F939F93AF93BF933F
S1133DB0CF93DF93EF93FF932EB5E0912F07F0910C
S1133DC03007309739F08091280E9091290EE80F32
S1133DD0F91F20838091280E9091290E01969093CB
S1133DE0290E8093280E8CB58F778CBDC091280E38
S1133DF0D091290E20913C1F30913D1FC217D3074B
S1133E00D8F50091EA0B1091EB0BC0902F07D090DE
S1133E103007CE010A962817390708F4C9017C0136
S1133E2021E0E21AF108CE15DF05A0F40115110511
S1133E3029F0F801EC0FFD1F808101C080E00E9491
S1133E403B03C114D10421F0F601EC0FFD1F808364
S1133E502196E9CF8CB580688CBD0115110531F030
S1133E60F801EC0FFD1F80818EBD01C01EBCD093F4
S1133E70290EC093280E11C01092300710922F07FC
S1133E801092EB0B1092EA0B10923D1F10923C1F04
S1133E901092290E1092280E8EB5FF91EF91DF91AA
S1133EA0CF91BF91AF919F918F917F916F915F91CE
S1133EB04F913F912F911F910F91FF90EF90DF90C1
S1133EC0CF900F900BBE0F900FBE0F901F901895C0
S1133ED01F920F920FB60F9211240F900FBE0F90E6
S1133EE01F9018951F920F920FB60F9211240F90E6
S1133EF00FBE0F901F9018951F920F920FB60F923E
S1133F0011240BB60F922F933F934F935F936F93AC
S1133F107F938F939F93AF93BF93EF93FF9383E12B
S1133F200E949802FF91EF91BF91AF919F918F9161
S1133F307F916F915F914F913F912F910F900BBEA5
S1133F400F900FBE0F901F9018951F920F920FB6EF
S1133F500F9211240BB60F922F933F934F935F93BD
S1133F606F937F938F939F93AF93BF93EF93FF933D
S1133F708091D91E823029F0833041F0811116C01E
S1133F800AC00E9496020E94BD0212C00E949602BC
S1133F900E94BA020DC08091E11E882349F086E098
S1133FA08093D91E8AE10E94980202C00E94960260
S1133FB0FF91EF91BF91AF919F918F917F916F91FD
S1133FC05F914F913F912F910F900BBE0F900FBEB9
S1133FD00F901F9018951F920F920FB60F921124F5
S1133FE00F900FBE0F901F9018951F920F920FB64F
S1133FF00F9211240F900FBE0F901F9018951F92CF
S11340000F920FB60F9211240F900FBE0F901F90B6
S113401018951F920F920FB60F9211240F900FBE96
S11340200F901F9018951F920F920FB60F921124A4
S11340300BB60F922F933F934F935F936F937F939E
S11340408F939F93AF93BF93EF93FF930E94DF02ED
S11340508091B900982F987F20914903243079F1F9
S1134060263021F0233009F04DC013C0809148035D
S1134070813049F4903429F483E08093490381E04A
S113408010C084E016C09831E1F783E080934903BF
S113409013C020914803213039F4807F803541F4E6
S11340A080E00E949C082EC0983231F0903321F0B9
S11340B081E00E943C0926C00E94090923C0809126
S11340C0701F8E7F8093701F809140118F7D983078
S11340D029F0903119F080934011EACF80648093E5
S11340E0401191E080914803813009F090E0809183
S11340F0240E880F892B8093BB0086E080934903AC
S11341000E947702FF91EF91BF91AF919F918F91A0
S11341107F916F915F914F913F912F910F900BBEC3
S11341200F900FBE0F901F9018951F920F920FB60D
S11341300F9211240BB60F922F933F934F935F93DB
S11341406F937F938F939F93AF93BF93EF93FF935B
S1134150909106018091F20B97FD11C08350883035
S113416008F07EC0809164038695809364039091E7
S1134170060196FF75C080688093640371C0815006
S11341808093F20B81116CC080916403803E09F42A
S113419064C09091E51E911158C0893549F0803F63
S11341A019F0823149F404C081E08093E51E55C0C2
S11341B081E08093E50B51C09091E50B60E0911193
S11341C01FC091E4262F30E0290F311D3595279526
S11341D0A901440F551FFA01E454FE4FE491E81776
S11341E018F461E0620F09C08E1718F49FEF920F64
S11341F004C0FA01E354FE4F1EC0961718F72DC0F1
S113420091E4262F30E0290F311D35952795A9011A
S1134210440F551FFA01EC5CFE4FE491E81718F4C3
S113422061E0620F0FC08E1718F49FEF920F0AC05F
S1134230FA01EB5CFE4FE491E0932B0788E00E94C7
S113424098020BC09617E8F608C01092E51E82315A
S113425011F0893511F41092E50B8BE08093F20B89
S1134260FF91EF91BF91AF919F918F917F916F914A
S11342705F914F913F912F910F900BBE0F900FBE06
S11342800F901F9018951F920F920FB60F92112442
S11342900BB60F922F933F934F935F936F937F933C
S11342A08F939F93AF93BF93CF93EF93FF932091FB
S11342B078003091790078944FB7F89480913E1F3C
S11342C081FB992790F981704FBF811122C08091A1
S11342D07A00877F80937A008091C90E813019F02B
S11342E0823091F036C0911107C08DE790E00E94B2
S11342F097050E943B072DC0309343112093421130
S113430083E20E94980225C0992379F31092C90E82
S113431020C0CFB7F8940E94C302CFBF2FB7F89440
S113432080917A0086FB992790F9877F806190FBC2
S113433086F98F7780937A00877F80618F7B8F7770
S113434080937A00877F80618F7B806880937A0076
S11343502FBFFF91EF91CF91BF91AF919F918F911B
S11343607F916F915F914F913F912F910F900BBE71
S11343700F900FBE0F901F901895CF93DF931F924D
S1134380CDB7DEB789830E947E0289810E944103F2
S11343908FEF0E9441038FEF0E943B0389830E94A9
S11343A07C0289810F90DF91CF9108953FB7F894F3
S11343B09091E11E2091D91E8093E11E3FBF2111EF
S11343C00AC0891741F09FB7F89424E02093D91EBE
S11343D09FBF0E94080680E008959FB7F8949FBF8E
S11343E08FB7F8948FBF48EE53E060E070E085E04B
S11343F00C94F302682F10925C0380915D039DE19D
S1134400899FF0011124EE54FE4E10820E94290768
S113441080E10C949802CF93DF9380E029E390919C
S11344207503891708F04FC09FB7F8944091290786
S113443050912A079FBF289FB0011124EB01CB584C
S1134440DC4FEB81FC81E417F50719F48F3018F089
S11344503AC08F5FE4CF2FB7F8949091CE062FBF68
S11344602F813885232B01F59923F1F09FB7F89418
S11344702091CF063091D0069FBF3E832D83DB0170
S1134480A058BC4F98E0E1EDF6E001900D929A95AA
S1134490E1F79B0120583C4F38872F8369587C4FA4
S11344A0DF91CF910C9404058FB7F89491E0909329
S11344B02C078FBF48EE53E060E070E085E0DF91A9
S11344C0CF910C94F302809175038F3040F082E019
S11344D08093680387E0DF91CF910C9498028FB7A3
S11344E0F8949091CE062091290730912A078FBF26
S11344F0E091750389E38E9FF0011124E958FC4F84
S113450010823283218314821382168215821086CC
S1134510178220917503209376039923F9F09FB7AE
S1134520F8942091CF063091D0069FBF90917503E7
S1134530899FC0011124EC01CB58DC4F3E832D83AD
S1134540DC01A058BC4F28E0E1EDF6E001900D92AB
S11345502A95E1F780589C4F98878F836091750363
S113456089E3689FB001112469587C4F8FEF0E9442
S11345700405809175038F5F80937503DF91CF915C
S11345800895CF93DF93CDB7DEB76B970FB6F8944A
S1134590DEBF0FBECDBF0FB7F89445E250E06FEF1A
S11345A070E080EC9BE00E94A6278FEF8093E21ED0
S11345B08093451F88EE91E09093E41E8093E31E60
S11345C0089A099A0A9A10981198129880E0877F9D
S11345D08F7E8F7D8F7B8F7780937A0081E083BF7E
S11345E00E9484028F3F19F00E94EA0BF9CF87B131
S11345F08C6F87B918E288EE93E00E9497051150FA
S1134600D1F760E088E20E94950688E290E00E947B
S1134610970560E088E20E94950688E290E00E9497
S1134620970560E08CE00E94950688E290E00E9485
S1134630970560E081E00E94950688EE93E00E9471
S1134640970588EE93E00E94970560E086E00E945B
S1134650950688E290E00E94970540E250E060E20F
S113466070E08BEC9EE00E94A62781E080932B0EE5
S113467080932C0E1092E61E10924111109200119C
S11346808FEF80932D0E87EF91E1E0E8F1E18193C4
S113469091938E579F4F21E1E23BF207C1F789E1E5
S11346A08093CA0E10922A0E1FEF1093F10B729A88
S11346B0739A7498759A0E948202779A6A9A6B9A8E
S11346C06C9A6D9A6E9A6F9A82B112B881B111B9CF
S11346D06FE380E00E948C096FE381E00E948C0903
S11346E060EC80E00E948C0960EC81E00E948C09FF
S11346F08091B60080728093B6008091B60081FDEF
S1134700FCCF82E08093B0008091B60080FDFCCFA6
S113471085E08093B1008CE78093B30080917000B2
S113472082608093700040E355E760E070E081E0D0
S11347300E94F3028091280290912902909326020C
S1134740809327020E9484028F3F19F00E94EA0B93
S1134750F9CF0FBF78948FB7F89410922C078FBFBE
S1134760109275031092760310926B0310926A03F1
S11347701092690367E874E0CE0142960E9496277E
S1134780198E1092E61E10924111CE0142960E949B
S113479090040E94D3040E948E0A9FB7F8948091DB
S11347A007018F77809307019FBF9FB7F89480918B
S11347B007018F7B809307019FBF80916D00806804
S11347C080936D008FB7F8949BE09093F20B109256
S11347D0E50B1092E51E8FBF809168008460809382
S11347E068009FB7F8948091D91E9FBF811135C08E
S11347F09FB7F89481E08093D91E1092DA1E10922C
S1134800DB1E1092DC1E1092DD1E1092E11E80E26F
S1134810ECE5F9E0DF01282F1D922A95E9F7E0E69F
S1134820F1E1DF011D928A95E9F79FBF529A5A98E8
S1134830519A599853985B98809169008068809345
S11348406900809169008F7B8093690041E050E0AA
S113485060E070E082E00E94AC0A80EC8093240265
S113486098EA909325022AE22093260242E040939C
S113487027023FEF30931C0230931D0230931E0237
S113488010921F028093200290932102209322020F
S113489031E0309323021F924F931F922F931F9264
S11348A09F931F928F9389E293E09F938F938E013E
S11348B00F5F1F4F1F930F930E9442284CE360E049
S11348C0C8010E946B0A10922E0E1092270E0FB68A
S11348D0F894DEBF0FBECDBF80915703811136C05F
S11348E0209A0E947C02249A2C981B8E1A8E8A8D00
S11348F09B8D80329E4430F48A8D9B8D01969B8FD4
S11349008A8FF5CF2C9A1B8E1A8E8A8D9B8D8032BE
S11349109E4430F48A8D9B8D01969B8F8A8FF5CFB0
S113492052985A9A84E08CBB80916900806280938B
S11349306900809169008F7E80936900EA9A0E94E1
S1134940A306811103C081E0809357034AE060E02D
S11349508EE393E00E946B0A0E94B8041FB7F89498
S11349600E9484028F3F09F058C0809170008370C8
S113497089F08091B6008A71E1F78091B30090913B
S1134980B200891B883040F08091B200893F20F446
S113499083E003C085E001C082E0E0916E00E67030
S11349A029F590916F009E7221F5E0917100EE72ED
S11349B0E9F4909172009E72E1F4E0917300EE725A
S11349C0A9F40CB407FC15C09091C100987189F446
S11349D0E091C900E87151F49091BC0092FD09C0C6
S11349E090917A0097FD04C0E5E003C0E0E001C0C7
S11349F0E1E093B78E1708F4E82FF0E0E25DFE4F94
S1134A008491E92FE07FE160E82BE3BF78948895F7
S1134A10F89483B78E7F83BFA3CF1FBF0E94EA0B96
S1134A209DCFAA1BBB1B51E107C0AA1FBB1FA61722
S1134A30B70710F0A61BB70B881F991F5A95A9F743
S1134A4080959095BC01CD010895EE0FFF1F059050
S1134A50F491E02D09942F923F924F925F926F92BE
S1134A607F928F929F92AF92BF92CF92DF92EF92FA
S1134A70FF920F931F93CF93DF935C016B017A0135
S1134A806115710519F0FB0191838083E114F10430
S1134A9029F0C7010297839708F0F1C0E501219638
S1134AA0F5011081812F90E00E948E27892B11F04F
S1134AB05E01F4CF1D3229F42196F501118101E044
S1134AC007C01B3221F4E5012296F501118100E0B3
S1134AD0E114F10459F1F0E1EF16F10461F410333B
S1134AE0E1F488818F7D883569F519812296026009
S1134AF070E1E72EF12C88E0E816F10439F12CF48A
S1134B00F2E0EF16F104C9F12AC08AE0E816F104D4
S1134B1079F0E0E1EE16F10411F550E1E52EF12C07
S1134B20812C912CA12C68E0B62E2CC01033C9F234
S1134B303AE0E32EF12C4CEC842E982CA82C4CE07B
S1134B40B42E20C010E3E114F104A9F698E0E92E94
S1134B50F12C812C912CA12C20E1B22E13C060E009
S1134B6070E080E090E89701442737FD4095542F8A
S1134B700E942C2B49015A0105C0812C912CA12C97
S1134B8080E4B82E60E020E030E0A901270166242B
S1134B9057FC6094762C1E01E0EDE10FEA3060F0E2
S1134BA08FEB810F8A3110F4E9EC05C08FE9810F96
S1134BB08A3128F5E9EAE10F8E2F90E08E159F05E2
S1134BC0F4F467FD18C082169306A406B50690F0A7
S1134BD0C301B2010E941C2B9B01AC012E0F311D9D
S1134BE0411D511D213031054105F0E85F0710F4E6
S1134BF061E001C06FEF2196F1011081CCCF802FCD
S1134C008170C114D10471F0662329F02197F60153
S1134C10D183C08307C001FF19C02297F601D18355
S1134C20C08314C067FF12C0811105C02FEF3FEF8E
S1134C304FEF5FE704C020E030E040E050E882E25C
S1134C4090E09093721F8093711F16C0882341F0E7
S1134C5050954095309521953F4F4F4F5F4F0CC075
S1134C6057FF0AC082E290E09093721F8093711FF5
S1134C702FEF3FEF4FEF5FE7B901CA0104C060E0D7
S1134C8070E080E090E0DF91CF911F910F91FF9051
S1134C90EF90DF90CF90BF90AF909F908F907F90D8
S1134CA06F905F904F903F902F9008952F923F9276
S1134CB04F925F926F927F928F929F92AF92BF9228
S1134CC0CF92DF92EF92FF920F931F93CF93DF93D4
S1134CD000D000D000D0CDB7DEB75C016B017A0103
S1134CE06115710519F0DB018D939C93E114F104B6
S1134CF029F0C7010297839708F0DCC03501BFEFA4
S1134D006B1A7B0AF5011081812F90E00E948E2797
S1134D10892B11F05301F2CF1D3249F43501F2E031
S1134D206F0E711CD50111961C9101E009C01B3254
S1134D3031F43501B2E06B0E711CF501118100E014
S1134D40E114F10409F4C4C0F0E1EF16F10489F4AC
S1134D50103399F5D3018C918F7D883509F0B2C059
S1134D6011961C91B2E06B0E711C026050E1E52EAD
S1134D70F12CEAE0EE16F10409F4B0C0F0E1EF160C
S1134D80F104D9F028E0E216F10451F438E0E32EFE
S1134D90F12C88248A94982CA82C4FE1B42E13C0AB
S1134DA06FEF7FEFCB019701442737FD4095542FD8
S1134DB00E942C2B49015A0106C088248A94982CFD
S1134DC0A82C2FE0B22E7E826D8260E020E030E0DD
S1134DD0A9012701662457FC6094762C2D803E801F
S1134DE0E0EDE10FEA3060F08FEB810F8A3110F4CF
S1134DF0E9EC05C08FE9810F8A3190F5E9EAE10F0A
S1134E008E2F90E08E159F055CF56F3F09F1821699
S1134E109306A406B506D8F0C301B2010E941C2B68
S1134E202E2F30E040E050E029833A834B835C83AB
S1134E30260F371F481F591F89819A81AB81BC8176
S1134E40281739074A075B0710F061E001C06FEFCC
S1134E50ED81FE813196FE83ED83D1011C91BECF9D
S1134E60C114D10489F0662339F08D819E810197A4
S1134E70F6019183808308C001FF06C08D819E8165
S1134E800297D6018D939C9300FF07C050954095DF
S1134E90309521953F4F4F4F5F4F67FF10C082E21F
S1134EA090E09093721F8093711F6FEF7FEF8FEFED
S1134EB09FEF1BC060E070E080E090E016C0B90195
S1134EC0CA0113C010E3E114F10409F45FCF51CF18
S1134ED0103309F43FCF9AE0E92EF12C89E9882EAA
S1134EE0982CA82C89E1B82E6ECF26960FB6F8948C
S1134EF0DEBF0FBECDBFDF91CF911F910F91FF9009
S1134F00EF90DF90CF90BF90AF909F908F907F9065
S1134F106F905F904F903F902F9008959111DDC254
S1134F20803219F089508550D0F70895FB01DC01D7
S1134F3005900D920020E1F70895FB01DC0102C009
S1134F4001900D9241505040D8F70895DC0101C002
S1134F506D9341505040E0F70895FC01819186170C
S1134F6021F08823D9F7992708953197CF0108951F
S1134F70FB01DC018D91019080190110D9F3990B8B
S1134F800895FB01DC014150504030F08D910190B7
S1134F90801919F40020B9F7881B990B0895FB01B7
S1134FA0DC014150504048F001900D920020C9F7B7
S1134FB001C01D9241505040E0F70895FA01A191BB
S1134FC0B081009719F41097E1F0CD01DC01CD0117
S1134FD00D90002011F4C00113C0FB012191222384
S1134FE019F02015D9F7F3CFFB012191201519F4FD
S1134FF01E92119606C02223C1F70D900020A1F73E
S1135000D001FA01A193B08308950F931F93CF9316
S1135010DF93CDB7DEB72E970FB6F894DEBF0FBE81
S1135020CDBF0D891E898F89988D26E02C831A8324
S1135030098397FF02C080E090E801979E838D83E7
S1135040AE01455E5F4F698D7A8DCE0101960E9457
S113505072284D815E8157FD0AC02F813885421721
S113506053070CF49A01F801E20FF31F10822E96F5
S11350700FB6F894DEBF0FBECDBFDF91CF911F9165
S11350800F9108950F931F93CF93DF93CDB7DEB79E
S11350902E970FB6F894DEBF0FBECDBF0D891E89C3
S11350A086E08C831A8309838FEF9FE79E838D8329
S11350B0AE01475E5F4F6F89788DCE0101960E94E5
S11350C072282F813885F801E20FF31F10822E9683
S11350D00FB6F894DEBF0FBECDBFDF91CF911F9105
S11350E00F9108952F923F924F925F926F927F9209
S11350F08F929F92AF92BF92CF92DF92EF92FF92E4
S11351000F931F93CF93DF93CDB7DEB72C970FB6D2
S1135110F894DEBF0FBECDBF7C016B018A01FC0198
S113512017821682838181FFBDC1CE0101964C0195
S1135130F7019381F60193FD859193FF81916F01AE
S1135140882309F4ABC1853239F493FD859193FF2B
S113515081916F01853229F4B70190E00E94862A7B
S1135160E7CF512C312C20E02032A0F48B3269F0AF
S113517030F4803259F0833269F420612CC08D32CE
S113518039F0803339F4216026C02260246023C0C2
S1135190286021C027FD27C030ED380F3A3078F45D
S11351A026FF06C0FAE05F9E300D1124532E13C073
S11351B08AE0389E300D1124332E20620CC08E32CA
S11351C021F426FD6BC1206406C08C3611F42068DE
S11351D002C0883641F4F60193FD859193FF8191D5
S11351E06F018111C1CF982F9F7D9554933028F47E
S11351F00C5F1F4FFFE3F9830DC0833631F0833713
S113520071F0833509F05BC022C0F8018081898385
S11352100E5F1F4F44244394512C540115C0380190
S1135220F2E06F0E711CF801A080B18026FF03C06C
S1135230652D70E002C06FEF7FEFC5012C870E94DF
S11352407B2A2C0183012C852F77222E17C038014D
S1135250F2E06F0E711CF801A080B18026FF03C03C
S1135260652D70E002C06FEF7FEFC5012C870E94AF
S1135270702A2C012C852068222E830123FC1BC05C
S1135280832D90E048165906B0F4B70180E290E00F
S11352900E94862A3A94F4CFF50127FC859127FED3
S11352A081915F01B70190E00E94862A31103A94FF
S11352B0F1E04F1A51084114510471F7E5C08436E6
S11352C011F0893639F5F80127FF07C06081718133
S11352D0828193810C5F1F4F08C060817181882790
S11352E077FD8095982F0E5F1F4F2F76722E97FFB4
S11352F009C090958095709561957F4F8F4F9F4F12
S11353002068722E2AE030E0A4010E94BE2AA82E52
S1135310A81844C0853729F42F7EB22E2AE030E045
S113532025C0F22FF97FBF2E8F36C1F018F48835CF
S113533079F0B4C0803719F0883721F0AFC02F2F2F
S11353402061B22EB4FE0DC08B2D8460B82E09C02E
S113535024FF0AC09F2F9660B92E06C028E030E0D3
S113536005C020E130E002C020E132E0F801B7FEE0
S113537007C060817181828193810C5F1F4F06C0D9
S11353806081718180E090E00E5F1F4FA4010E9454
S1135390BE2AA82EA818FB2DFF777F2E76FE0BC001
S11353A0372D3E7FA51450F474FE0AC072FC08C069
S11353B0372D3E7E05C0BA2C372D03C0BA2C01C050
S11353C0B52C34FF0DC0FE01EA0DF11D8081803340
S11353D011F4397E09C032FF06C0B394B39404C0FB
S11353E0832F867809F0B39433FD13C030FF06C0D1
S11353F05A2CB31418F4530C5B18B32CB31468F47C
S1135400B70180E290E03C870E94862AB3943C85F1
S1135410F5CFB31410F43B1801C0312C34FF12C083
S1135420B70180E390E03C870E94862A3C8532FFE6
S113543017C031FD03C088E790E002C088E590E022
S1135440B7010CC0832F867859F031FF02C08BE27C
S113545001C080E237FD8DE2B70190E00E94862A08
S1135460A51438F4B70180E390E00E94862A5A9488
S1135470F7CFAA94F401EA0DF11D8081B70190E001
S11354800E94862AA110F5CF332009F451CEB7012A
S113549080E290E00E94862A3A94F6CFF701868152
S11354A0978102C08FEF9FEF2C960FB6F894DEBF62
S11354B00FBECDBFDF91CF911F910F91FF90EF9061
S11354C0DF90CF90BF90AF909F908F907F906F9020
S11354D05F904F903F902F900895992788270895C3
S11354E0FC010590615070400110D8F780959095AB
S11354F08E0F9F1F0895FC016150704001900110B0
S1135500D8F7809590958E0F9F1F08950F931F9342
S1135510CF93DF93FB01238121FD03C08FEF9FEF26
S113552028C022FF16C04681578124813581421745
S1135530530744F4A081B1819D012F5F3F4F318314
S113554020838C93268137812F5F3F4F37832683B7
S113555010C0EB01092F182F0084F185E02D099567
S1135560892BE1F68E819F8101969F838E83812F03
S1135570902FDF91CF911F910F910895FA01AA27DF
S1135580283051F1203181F1E8946F936E7F6E5F82
S11355907F4F8F4F9F4FAF4FB1E03ED0B4E03CD030
S11355A0670F781F891F9A1FA11D680F791F8A1F13
S11355B0911DA11D6A0F711D811D911DA11D20D07A
S11355C009F468943F912AE0269F11243019305D34
S11355D03193DEF6CF010895462F4770405D419325
S11355E0B3E00FD0C9F7F6CF462F4F70405D4A3372
S11355F018F0495D31FD4052419302D0A9F7EACF3A
S1135600B4E0A6959795879577956795BA95C9F768
S113561000976105710508959B01AC010A2E06945B
S11356205795479537952795BA95C9F7620F731F14
S1135630841F951FA01D0895DB018F939F930E94E3
S11356404E2BBF91AF91A29F800D911DA39F900DF2
S1135650B29F900D11240895A1E21A2EAA1BBB1B20
S1135660FD010DC0AA1FBB1FEE1FFF1FA217B3072A
S1135670E407F50720F0A21BB30BE40BF50B661F40
S1135680771F881F991F1A9469F760957095809504
S113569090959B01AC01BD01CF0108950E94592B47
S11356A0A59F900DB49F900DA49F800D911D112472
S11356B00895A29FB001B39FC001A39F700D811DE7
S11356C01124911DB29F700D811D1124911D089507
S10756D0F894FFCF78
S11356D4FFFFFFFFFFFFFFFFFFFFFFFF01FF01FFCE
S11356E4FFFFFFFF0006010203040506FFFF00009D
S11356F40A3C00010A3C000A010065727200006F52
S11357046B0000207F0507060844026164640D6988
S1135714643D25642C6E616D653D25732C7164694B
S1135724616C3D25642C667265713D25642C706939
S1135734636F64653D25642C6E6F74653D25730A3F
S1135744007570646174650D69643D25642C6E6133
S11357546D653D25732C716469616C3D25642C660B
S11357647265713D25642C7069636F64653D2564BD
S11357742C6E6F74653D25730A0025642E25640020
S1135784526164696F20696E697469616C697A65D0
S1135794642E003D0069640066726571007069637B
S11357A46F646500716469616C006E616D650025E8
S11357B42D3873006E6F746500713D25642C663D4D
S11357C425642C703D25642C6E3D25732C6E3D257B
S11357D4730A002C006765740D69643D25640A002E
S11357E4636D6400616464007570646174650025AC
S11357F43032643A25303264003E253033642E2539
S11358043033642E253033642E2530336400696EBE
S1095814697420666D00BA
S9030000FC
