:100000000C947C020C945A1F0C94641F0C946E1F69
:100010000C94971F0C94DD1F0C94E71F0C94F11F98
:100020000C94FB1F0C949B020C949B020C94872055
:100030000C949B020C946A1E0C949B020C94A91EB7
:100040000C949B020C949B020C949B020C949B02BC
:100050000C949B020C949B020C949B020C949B02AC
:100060000C94B31E0C949B020C949B020C949B0268
:100070000C949B020C9435210C949B020C949B02D3
:100080000C949B020C949B020C949B020C949B027C
:100090000C949B020C949B020C949B020C940520E4
:1000A0000C949B020C949B020C949B020C949B025C
:1000B0000C949B020C949B020C949B020C949B024C
:1000C0000C949B020C949B020C949B020C949B023C
:1000D0000C949B020C949B020C949B020C949B022C
:1000E0000C949B02F40B630CE20C0F0D1B0D1D0D09
:1000F000440D5E0DA00D430F480F520F890F6C1178
:10010000CC11F2113D12AD12DA1206132C13331377
:100110004813F015FF15DE168E17A118E419F7190C
:10012000371A681AAE1ACB1AF21A001B1B1B761B61
:1001300000020E060C040D090E78155116211A59ED
:100140001B531C411D571E22214322582344244582
:100150002578262329202A562B462C542D522E252D
:10016000314E324233483447355A3626394C3A4DAF
:100170003B4A3C553D2F3E28413B424B4349444F6F
:10018000453D4629493A4A5F4B4C4C784D504E3FCD
:100190005278547855605A0A5B5E5D2A613E660863
:1001A00069316B346C377030712C72327335743640
:1001B0007538792B7A337B2D7C2A7D3900000D0927
:1001C0000E7C157116311A791B731C611D771E3256
:1001D00021632278236424652534263329202A7656
:1001E0002B662C742D722E35316E32623368346773
:1001F000357A3636392C3A6D3B6A3C753D373E3898
:10020000412C426B4369446F45304639492E4A2D93
:100210004B6C4C6F4D704E2B526F546F555C5A0A9D
:100220005B785D27613C660869316B346C377030F0
:10023000712C7232733574367538792B7A337B2D85
:100240007C2A7D390000000000000000005F0000F3
:100250000007000700147F147F14242A7F2A12232A
:100260001308646236495522500005030000001C43
:100270002241000041221C00082A1C2A0808083ECE
:1002800008080050300000080808080800606000F6
:100290000020100804023E5149453E00427F4000C4
:1002A00042615149462141454B311814127F1027B4
:1002B000454545393C4A49493001710905033649EC
:1002C000494936064949291E00363600000056368F
:1002D00000000008142241141414141441221408BC
:1002E000000201510906324979413E7E1111117E09
:1002F0007F494949363E414141227F4141221C7F8D
:10030000494949417F090901013E414151327F0874
:1003100008087F00417F41002040413F017F0814D1
:1003200022417F404040407F0204027F7F0408104A
:100330007F3E4141413E7F090909063E4151215E10
:100340007F09192946464949493101017F01013F89
:100350004040403F1F2040201F7F2018207F631413
:100360000814630304780403615149454300007F86
:100370004141020408102041417F000004020102B3
:10038000044040404040000102040020545454788E
:100390007F484444383844444420384444487F38F3
:1003A00054545418087E090102081454543C7F0820
:1003B00004047800447D40002040443D00007F104C
:1003C000284400417F40007C041804787C08040421
:1003D0007838444444387C14141408081414187CE5
:1003E0007C080404084854545420043F4440203CF2
:1003F0004040207C1C2040201C3C4030403C442895
:100400001028440C5050503C4464544C440008366E
:10041000410000007F0000004136080008082A1C47
:1004200008081C2A08086E6F7465006E616D65000F
:10043000716469616C007069636F64650066726500
:1004400071006964004368616E6E656C20444220EF
:1004500046756C6C006D7367006F6B0044422065DD
:1004600072726F72210044422066756C6C210046E6
:1004700061766F7572697465732066756C6C2100A6
:100480004368616E6E656C206C6973742066756C70
:100490006C21004F7574206F662062616E64206C61
:1004A000696D6974732100464D436C69636B206903
:1004B0006E6974206661696C65642100556E6B6EAF
:1004C0006F776E206572726F7221004572726F7263
:1004D0003A00566F6C756D653A004D487A00436876
:1004E000616E6E656C3A2000456E746572204368DB
:1004F000616E6E656C3A000011241FBECFEFD1E231
:10050000DEBFCDBF13E0A0E0B2E0E0EAF6E500E038
:100510000BBF02C007900D92AA36B107D9F713E1BD
:10052000AAE6B3E001C01D92AD3AB107E1F70E941F
:1005300099220C944E2B0C94000080919012809381
:10054000BC000895289A08952898089576980895EB
:10055000769A089580911C138F3F69F0E82FF0E0A0
:10056000ED5EF24F908190931C139F3F11F4909396
:100570007F139FEF90830895EB9808959FB7F894A9
:10058000E82FF0E0ED5EF24F20812F3F99F4E091EB
:100590007F13E81779F020911C132F3F19F48093F3
:1005A0001C1304C0F0E0ED5EF24F808380937F1354
:1005B00080E001C085E09FBF089587E00C94BE02F3
:1005C00085E00C94BE028EE10C94BE028AE10C948C
:1005D000BE0289E10C94BE028BE00C94BE028CE159
:1005E0000C94BE02ECE7F0E0208180917B0030812A
:1005F00090818870880F880F2F71822B35FB2227FE
:1006000020F920FB86F99295969596959370292F5F
:10061000279522272795822B969508958FB7F894D2
:100620009091BC00909390128FBF08952FB7F894CB
:100630006091730F7091740F8091750F9091760F88
:100640002FBF0895CF92DF92EF92FF92CF93C82FE2
:100650006A017B010E94160329E0C29FF001112468
:10066000DF01AF5ABD4E6D937D938D939C9313978D
:100670001496CD92DD92ED92FC921797E75AFD4EBB
:1006800080818E7F8260808380E1CF91FF90EF90A8
:10069000DF90CF900C94BE028EBD0DB407FEFDCF4F
:1006A0008EB508950C944C03CF93DF9300D0CDB753
:1006B000DEB76A8389830E94A40289810E94520363
:1006C0006A81862F0E9452030F900F90DF91CF9185
:1006D0000C94A202CF93DF931F92CDB7DEB789832C
:1006E0000E94A40289810E94520380E00E944C0370
:1006F00089830E94A20289810F90DF91CF91089592
:10070000CF93DF9300D0CDB7DEB76A8389830E9491
:10071000A402898180680E9452036A81862F0E9408
:1007200052030F900F90DF91CF910C94A2028F9201
:100730009F92AF92BF92CF92DF92EF92FF920F9370
:100740001F93CF93DF932FEF280F9DE1299F9001F7
:100750001124890100531D4EF8019081911140C070
:10076000E901CF52DD4E2097D9F17A0151E059834A
:1007700018821B8298E09A8396E09C8344E04D8324
:100780008090240290902502A0902602B09027022B
:100790008786908AA18AB28AD901A752BD4EE6E126
:1007A000F2E0492F01900D924A95E1F7D901AD5140
:1007B000BD4EFB0101900D929A95E1F7F701C080C3
:1007C000D180E280F380F801C18ED28EE38EF48E68
:1007D0008F831E82508381E10E94BE0280E001C0AF
:1007E00085E0DF91CF911F910F91FF90EF90DF9007
:1007F000CF90BF90AF909F908F9008952FB7F894AF
:1008000080918108882309F14091941250919512AA
:10081000609196127091971280913A0D90913B0DD4
:10082000A0913C0DB0913D0D840F951FA61FB71FE1
:100830004091730F5091740F6091750F7091760F06
:10084000481759076A077B0711F02FBF08951092C8
:1008500081082FBF8FE00C94BE022FB7F8949091BF
:1008600013132FBF91110EC09FB7F89423E020936C
:1008700013131092191380937A0F9FBF0E94E60200
:1008800080E0089581E00895DC0181E04D914423EA
:1008900011F12091201330E090919112F90154E070
:1008A000EE0FFF1F5A95E1F7E90FF11DE55EFF4ED0
:1008B00040839F5F90939112F901E358F04F80833A
:1008C000903121F7109291122F5F3F4F2170332703
:1008D00020932013DBCF08958FB7F894109221084E
:1008E0008FBF89E0E4E2F8E0DF011D928A95E9F725
:1008F00081E4EDE2F8E0DF011D928A95E9F786E0F8
:10090000EEE6F8E0DF011D928A95E9F708950F936E
:100910001F93CF93DF9300D01F92CDB7DEB78091A6
:100920009F041F928F938AE293E09F938F938E018F
:100930000F5F1F4F1F930F930E9428281B82109256
:10094000201388E080939112C8010E94440485E23C
:100950000E94BE020F900F900F900F900F900F907B
:100960000F900F900F90DF91CF911F910F910895ED
:10097000CF93DF932FB7F89490919C042FBF9111E0
:100980006FC0FB019FB7F89422E020939C049FBFA7
:10099000A9E9B3E090E8ED0119929A95E9F78F3F44
:1009A00031F580858F9387818F9384818F938381A5
:1009B0008F9382818F9381818F9380811F928F93F8
:1009C00086818F9385818F931F921F928BE392E094
:1009D0009F938F93BF93AF930E9428288DB79EB7A4
:1009E00040960FB6F8949EBF0FBE8DBF27C08031D2
:1009F00028F590859F9397819F9394819F939381EE
:100A00009F9392819F9391819F9390811F929F9337
:100A100096819F9395819F931F928F9381E792E098
:100A20009F938F93BF93AF930E942828CDB7DEB7D3
:100A300060960FB6F894DEBF0FBECDBF10921804BB
:100A4000E9E9F3E001900020E9F7CF018A599340EA
:100A50009093980380939703DF91CF910C94EC02CD
:100A6000DF91CF9108950197019601970196019723
:100A700001960197C1F7089510927603E0917703EC
:100A80008BE0E89FF0011124E856FD4E108283E1CF
:100A90000C94BE020F931F93CF93DF930091190420
:100AA00010911A04F801E65EFB4F20812A30D1F440
:100AB000EC0110826DE070E08BE194E00E94A327CE
:100AC00099838883009741F0FC0110828881998185
:100AD00001969983888304C0055E1B4F19830883A0
:100AE00081E001C080E0DF91CF911F910F910895C7
:100AF0001F93CF93DF938FB7F894C0916E03C1110A
:100B00003DC011E010936E0310920A138FBFDFB740
:100B1000F89480916D03811117C0509851981092EC
:100B2000B90081E48093B8001092BA001092BC0022
:100B30000E940E03809190128E7F846080939012A9
:100B40000E949D0210936D03DFBFDFB7F894809180
:100B50000E02813089F480916E03813021F481E2AC
:100B60000E94BE0209C0823039F480910A1380933A
:100B70000E0283E080936E03DFBF1DC0C0910A1395
:100B8000CC23C1F090917F0F9F3F99F4E0910F0229
:100B9000EE2379F0909110029F3F19F41092100209
:100BA00004C0F0E0E158F04F108210920F02C0E054
:100BB00001C0C5E08FBF8C2FDF91CF911F910895A9
:100BC000882389F12FB7F8948091B70A9091B80AD9
:100BD00090699093B80A8093B70A109221131092EB
:100BE00022131092231384E080930B132FBF48E04D
:100BF00050E060E270E085E293E10E949C2740E4CF
:100C000050E060E270E08FE293E10E949C2746E0B2
:100C100050E060E270E08FE693E10E949C2788E05C
:100C20008CBBEB9A11C00E94BC022FB7F894809144
:100C3000B70A9091B80A9F769093B80A8093B70A42
:100C400084E080930B132FBF0C94E3021F93CF9388
:100C5000DF931F92CDB7DEB7182F806479830E948F
:100C6000540381E0810F7981672F80640F90DF91B9
:100C7000CF911F910C945403660F660F68B9439A85
:100C800098B18295807F982B98B943980895CF9317
:100C9000DF93C82FD62F82958F700E943C066D2F50
:100CA0008C2FDF91CF910C943C06CF93DF939FB7AD
:100CB000F89480917103882369F19FBFDFB7F8949E
:100CC000C0917103C11109C081E08093710310923A
:100CD000110286E10E94BE0218C08091450D8F3F2F
:100CE00099F4E0911202EE2379F0809113028F3F84
:100CF00019F41092130204C0F0E0EB5BF24F108283
:100D000010921202C0E001C0C5E0DFBF8C2FDF915E
:100D1000CF9108958CB58F7B8CBD229A2398219A10
:100D2000209A8CB580618CBD8CB58F778CBD8DB5CC
:100D30008E7F8DBD8CB5877F8CBD8CB58B7F8CBD38
:100D40008CB58C7F8CBD8CB580648CBDB6CF0F9379
:100D50001F93CF93DF9380917513882309F43FC0CD
:100D600010E0C0E0DFE10FB7F894809178138E7F38
:100D7000809378130E94F202282F2F73881F8827F0
:100D8000881F9170990F892B181302C091E0D2131C
:100D900090E08091781390FB81F99D2F9F73990FBC
:100DA000990F8370892B809378131111D064D0939D
:100DB0007C0080917B00877F80937B0090917813EB
:100DC0008C2F8860806190FB85F9806480688093B7
:100DD0007A000FBFDF91CF911F910F910895C7E067
:100DE00011E0D0E0C0CFCF93DF93CFB7F8940E944B
:100DF0000E03809190128E7F8069809390120E94E2
:100E00009D02CFBFDFB7F89480916E038330C1F5A8
:100E1000C0910E02C11134C0809110028F3FC1F009
:100E2000E82FF0E0E158F04F9081909310029F3F3F
:100E300011F490930F029FEF908380930A13909385
:100E40000E0281E080936E0381E20E94BE0216C012
:100E500081E080930E0210926E0380916D038130C9
:100E600069F40E940E03809190128A76809390120A
:100E70000E949D025898599810926D03DFBF02C0DE
:100E8000DFBFC1E08C2FDF91CF91089510926F03E7
:100E9000909170032DE0929FF0011124E55CFF4ECC
:100EA0001082911103C081110E94EC0287E10C9421
:100EB000BE02109278039091790328E0929FF0018E
:100EC0001124ED59F04F1082992329F0913029F423
:100ED0000E94460702C00E943C0582E10C94BE02BB
:100EE000811110C0662371F080917C03813051F430
:100EF00010927C03809159128D7F8093591281E06A
:100F00000C9459070895882319F0813021F0089531
:100F1000862F0C94590710927A0380917B039DE1F0
:100F2000899FF0011124E053FD4E10820E9470074A
:100F300081E10C94BE02CF93DF931F92CDB7DEB751
:100F400089830E94A4028FEB0E94520383E00E94D7
:100F500052030E94A20269818FE10F90DF91CF912D
:100F60000C948003FC01009719F481E00C9459075C
:100F70003091490D90914A0D8091F90C811124C056
:100F80004AEF5CE041155105F9F026E0DA010190E5
:100F90000D922A95E1F740E058E05093010D4093FF
:100FA000000D47E45DE05093030D4093020D892F3F
:100FB00090E0932B9093050D8093040D81E0809336
:100FC000F90C8EE00C94BE020895882329F081303C
:100FD00029F47298739A02C07398729A82B182B996
:100FE00081B111B87498759A0E94A80282E090E0CD
:100FF0000E94330580B1079B0DC00E94A60282E0CB
:1010000090E00E9433050E94A80282E090E00E94D6
:101010003305F1CF0E94A602759881B18FEF81B997
:101020000895CF93DF931F92CDB7DEB70E94E507F7
:1010300081B111B8749A759A0E94A80282E090E07A
:101040000E94330580B10E94A60282E090E00E94D7
:1010500033050E94A80282E090E00E94330580B12F
:1010600089830E94A60289810F90DF91CF91089514
:10107000CF93DF931F92CDB7DEB769830E94E50758
:10108000698162B981B18FEF81B9749A75980E94B4
:10109000A80282E090E00E9433050E94A60280E050
:1010A0000F90DF91CF910895CF93DF931F92CDB72B
:1010B000DEB769830E94E507749875980E94A802BC
:1010C00081B18FEF81B9698162B982E090E00E94BD
:1010D00033050E94A60280E00F90DF91CF91089522
:1010E000CF93DF93982FC62FD82FD295D695D6952C
:1010F000D37081E0D8279F73692F60648D2F0E9481
:1011000054086C2F6770686B8D2FDF91CF910C9412
:1011100054085F926F927F928F929F92AF92BF928C
:10112000CF92DF92EF92FF920F931F93CF93DF93B3
:1011300090EE980F903608F054C06B0190E08097C5
:1011400025E0289F8001299F100D11240A5B1D4F67
:10115000912C89EF682E6D0C55245394AA24A394E6
:10116000B12CF92CFC0CD62DF8017490F6FACC2792
:10117000C0F9C5258D2E869486948694FD2FF77030
:10118000EF2E682D8F2D70FE0DC00E9470088C2FE1
:101190000E941108B50101C0660FEA94EAF7E82E33
:1011A000E62A0DC00E9470088C2F0E94110895013C
:1011B00001C0220FEA94EAF72095E82EE222682D7A
:1011C0008F2D0E9470086E2D8C2F0E943808769407
:1011D000DF5FDD11CFCF0F5F1F4F939485E0981233
:1011E000C0CFDF91CF911F910F91FF90EF90DF90D3
:1011F000CF90BF90AF909F908F907F906F905F90B7
:101200000895EF92FF920F931F93CF93DF9300D037
:10121000CDB7DEB77C01162F962F00E0F701E00F67
:10122000F11D84918823B1F08A3011F08D3019F4CA
:10123000485F912F0DC0893011F4965F09C09A5F05
:10124000692F742F49839A830E9489089A81498162
:101250000F5FE4CF0F900F90DF91CF911F910F910F
:10126000FF90EF900895FF920F931F93CF93DF931A
:10127000F62E8C01D42FCF2DF80181918F01882378
:1012800079F08A3011F08D3011F4D85FF4CF8930C5
:1012900011F4C65FF1CFCA5FBE010E948908ECCF8E
:1012A000DF91CF911F910F91FF900895CF939FB73A
:1012B000F8949FBF811111C048E260E08AEA92E091
:1012C0000E9433098FB7F8948FBF48EE53E060E077
:1012D00070E085E0CF910C942203813011F484E01A
:1012E00001C085E080939D04CF910C94DD02CF93E3
:1012F000DF93C0E06C2F80E00E9470086C2F80E4C8
:101300000E947008D0E060E080E00E94380860E051
:1013100081E00E943808DF5FD038A9F7CF5FC8307E
:1013200049F780E0DF91CF910895CF93C0911313D7
:10133000813011F48DE11AC00E94F3061092161349
:1013400080E20E94BE02C23059F020F4C13089F41C
:1013500088E10CC0C33039F0C63059F48BE106C0C7
:10136000CF910C94E902CF910C94E602CF910C94AA
:10137000BE02CF910895811110C08091BB00909161
:101380000C13E091410DF091420DE90FF11D8083A6
:1013900080910C138F5F80930C1320910C1380911C
:1013A0008008281788F430E090E001972817390763
:1013B00049F48091AA1382FD05C0809190128F7B21
:1013C000809390120C949D0280919012282F2E7F72
:1013D0009091AA1391FF0AC09D7F9093AA13822F28
:1013E0008061809390128091B90003C08E778093C2
:1013F00090120E949D0281E080936D0380910D0206
:10140000811102C00C9495090895CF93C0911313D4
:10141000813011F48FE114C00E94F306109216136C
:10142000C33089F038F4C13051F0C23079F4CF9133
:101430000C94E902C63050F41092131307C088E1EF
:10144000CF910C94BE02CF910C94E602CF910895F7
:1014500080910C1390918008891780F4E091410DE0
:10146000F091420DE80FF11D80818093BB008091C7
:101470000C138F5F80930C130C949D02809190123B
:10148000282F2E7F9091AA1391FF06C09D7F9093E5
:10149000AA13822F806101C08E77809390120E94E0
:1014A0009D0281E080936D0380910D02811102C045
:1014B0000C94050A0895CF93DF931F92CDB7DEB742
:1014C00089830E940E03909190129A7F90939012BC
:1014D0000E949D020E940E0390919012946090933E
:1014E00090120E949D0291E090936D0320916C03F5
:1014F00090910D028981222339F091110CC00F9037
:10150000DF91CF910C949509911105C00F90DF9157
:10151000CF910C94050A0F90DF91CF910895CF924F
:10152000DF92EF92FF92CF93C82F6A017B010E9456
:10153000160329E0C29FF0011124DF01AF5ABD4E0E
:101540006D937D938D939C9313971496CD92DD921A
:10155000ED92FC921797E75AFD4E80818160826080
:10156000808380E1CF91FF90EF90DF90CF900C943B
:10157000BE0281E080937C034BE753E166E072E0BA
:101580000E94970344E650E060E070E080E00C9435
:101590008F0A4F925F926F927F928F929F92AF923B
:1015A000BF92CF92DF92FF920F931F93CF93DF935F
:1015B000A1E5B2E1C12CD12C49E04C9DF0014D9D3B
:1015C000F00D1124EF01CF5ADD4EF884F1FECBC0AF
:1015D0000D911D912D913C91139714968D909D9096
:1015E000AD90BC9017972B013C01401A510A620A3A
:1015F000730A481459046A047B0408F4B4C0F0FE6A
:1016000006C0E75AFD4E20812D7F20830AC0B90114
:10161000A801480D591D6A1D7B1D488359836A83A3
:101620007B8323E0C21609F450C02C1538F081E00A
:10163000C81681F022E0C216F1F12DC085E0C8166F
:1016400009F47FC0C81608F442C026E0C21609F4A7
:101650007CC021C0109282131092831310928413C5
:101660001092851310928C1310928D1310928E137A
:1016700010928F1310929613109297131092981342
:10168000109299131092A0131092A1131092A2130A
:101690001092A31371C010927C0380917D038F5F21
:1016A00080937D03833018F40E94B90A65C081E0FD
:1016B0000E94590761C09FB7F894809113139FBF90
:1016C000813009F059C088E13DC085E23BC09FB739
:1016D000F89480916A03811127C081E080936A03A6
:1016E0001092770F9FBF9FB7F89480917A0080681F
:1016F00080937A009FBFCFB7F89480910C0281301D
:1017000089F480916A03813021F483E20E94BE0251
:1017100009C0823039F48091770F80930C0283E006
:1017200080936A03CFBF28C08091770F882339F058
:101730008091501280FD03C08160809350129FBF42
:101740001BC081E00E94BE0217C08FB7F89491E0E1
:1017500090937F088FBF48EE53E060E070E085E033
:101760000E94220309C02FEFC21AD20A199627E05D
:10177000C216D10409F021CF80E1DF91CF911F91F2
:101780000F91FF90DF90CF90BF90AF909F908F9080
:101790007F906F905F904F900C94BE022F923F927B
:1017A0004F925F926F927F928F929F92AF92BF9271
:1017B000CF92DF92EF92FF920F931F93CF93DF931D
:1017C000CDB7DEB7C35DD1090FB6F894DEBF0FBE4B
:1017D000CDBF90E08632910510F00C944B1EFC01B9
:1017E000EE58FF4F0C94F3248FB7F89410917E08B5
:1017F000009174088FBF0E9477094AE060E088EE8C
:1018000094E00E940109812F90E0C0970A9778F434
:10181000043068F48FB7F894E091740891E09E0F5B
:1018200090937408F0E0EC58F74F11838FBF183095
:1018300071F4002361F08FB7F894E0917408E150DF
:10184000E0937408F0E0EC58F74F11828FBF9FB718
:10185000F89485E0E5E7F8E0DE01119601900D923D
:101860008A95E1F79FBF44E160E0CE0101960E94B6
:101870003309173611F00C944B1E4AE050E060E03B
:1018800070E0CE0101960E9424262FB7F89433E031
:1018900030937F082FBF9B012B5633402E3C3105E0
:1018A00038F081E080939D040E94DD020C944B1E71
:1018B0002FB7F89470937B0860937A082FBF0E942B
:1018C000E0020C944B1E2FB7F89480917C08909105
:1018D0007D0831E030937F082FBF6AE070E00E94FE
:1018E000DF249F938F937F936F938DEA92E09F9372
:1018F0008F938E0100541F4F1F930F930E9428282F
:101900000E94770947E060E08EED94E00E940109B3
:1019100047E066E3C8010E94330947E06EE58AEDBF
:1019200094E00E94010985E1EDE2F8E0DE01A655B0
:10193000BF4F01900D928A95E1F785E1E2E4F8E06E
:10194000DE01AF57BF4F01900D928A95E1F786E116
:10195000E7E5F8E0DE01119601900D928A95E1F736
:10196000C154DF4F1882CF5BD040CA56DF4F188278
:10197000C659D0401F8A4FE060E084E298E00E94A0
:1019800033094FE066E38EE698E00E94330947E1B1
:101990006AE7CE0186559F4F0E9433094FE16AE7FF
:1019A000CE018F579F4F0E94330947E26AE7CE016D
:1019B00001960E9433090FB6F894DEBF0FBECDBF6B
:1019C0000C944B1E80919E0490919F04891711F4F2
:1019D0000C944B1E2FB7F894909113132FBF9111B5
:1019E00016C04FB7F89435E030931313282F2F709B
:1019F0008091B90A9091BA0A807F822B9093BA0A9B
:101A00008093B90A30930B134FBF0E94E302809179
:101A10009E0480939F040E9487040C944B1E80E0D8
:101A20000E942D04882311F40C944B1E84E00E9424
:101A3000BE020C944B1E81E0F3CF2FB7F894809137
:101A40007A0890917B082FBF3FB7F8942091131329
:101A50003FBF21110C94B81B9C012B5633402E3CE8
:101A6000310510F00C94B81B2FB7F89432E0309386
:101A700013131092181390937A13809379132FBF36
:101A80000E94E9020C944B1E0E9477094AE060E034
:101A90008BEC94E00E94010980919D0444E160E098
:101AA000811106C087EA94E00E9401090C944B1E44
:101AB0008CEB94E00E9401090C944B1E80918612DD
:101AC0008D7F809386120E9477094AE060E08BEC5C
:101AD00094E00E94010980919D048330C1F048F494
:101AE000813081F08230E9F444E160E080E894E004
:101AF0001CC0843089F08530A1F444E160E08CE5BD
:101B000094E013C044E160E083E994E00EC044E156
:101B100060E08FE694E009C044E160E086E694E08E
:101B200004C044E160E08CEB94E00E94010948EEBF
:101B300053E060E070E086E00E948F0A0C944B1E38
:101B400089E0EAE2F2E0DE01119601900D928A95B9
:101B5000E1F79FB7F894E0917E0880917F089FBFDE
:101B600090917F08913009F085C1E93609F42FC1C1
:101B700018F5E13609F453C0C0F4EC3209F4ECC0B6
:101B8000EE3209F04DC10E946C04809186128D7F67
:101B9000809386128FB7F89494E090937F088FBF5C
:101BA00083E00E94BE020C944B1EE63609F444C04A
:101BB000E83609F47AC034C1E03709F4DFC070F4C4
:101BC000EC3609F493C0EF3609F02AC1BE016F5F0D
:101BD0007F4F8FEF0E94B8040C944B1EE33709F43B
:101BE000AEC0E43709F01CC10E946C0480918612DB
:101BF0008D7F809386128FB7F8941092740895E0C9
:101C0000E5E7F8E0DF011D929A95E9F792E09093FD
:101C10007F088FBF80E00E94BE020C944B1E80E0C4
:101C20000E9482228FB7F89496E090937F088FBF2E
:101C30000E94C8210C944B1E8FB7F89496E09093A5
:101C40007F088FBF9091A004993040F52091AB049C
:101C50008BE3829FF0011124E655FB4F60917C08D5
:101C600070917D08438154816417750711F00C94BD
:101C70004B1EE92FF0E0E056FB4F2183E091AA04D0
:101C800021E0290F2093A0048E9FF0011124E65536
:101C9000FB4F92830E94C8210C944B1E83E08093DB
:101CA0009D040E94DD020C944B1E8091AB048111B7
:101CB00002C08091AA0481508093AB048FB7F8943E
:101CC00093E090937F08E091AB049BE3E99FF001E0
:101CD0001124E655FB4F2381348130937B082093F8
:101CE0007A088FBF0E94E0020C944B1E2091AB0437
:101CF000422F50E08091AA0490E0019748175907BD
:101D000019F41092AB0403C02F5F2093AB048FB77C
:101D1000F89493E090937F08E091AB04ABE3EA9FE3
:101D2000F0011124E655FB4F2381348130937B0869
:101D300020937A088FBF0E94E0020C944B1E0E94F1
:101D40006C048FB7F89495E090937F088FBF82E082
:101D50000E942D040C944B1E0E946C0480918612EC
:101D60008D7F809386128FB7F89494E090937F08CC
:101D70008FBF84E00E94BE020C944B1E9FB7F89464
:101D800080919C049FBF81110C944B1E8FB7F894D7
:101D900095E090939C048FBF09E913E080E8F80177
:101DA00011928A95E9F763EB72E0C8010E94AE27B1
:101DB000F80101900020E9F78F010A5913401093B0
:101DC0009803009397030E94EC020C944B1E9FB75C
:101DD000F89480919C049FBF81110C944B1E8FB787
:101DE000F89493E090939C048FBF09E913E080E896
:101DF000D8011D928A95E9F76EEB72E0C8010E9446
:101E0000AE27F80101900020E9F78F010A5913402D
:101E100010939803009397030E94EC020C944B1EBE
:101E20008E2F90E0C0970A9710F00C944B1EE05351
:101E300011F40C944B1E8FB7F89493E090937F08A5
:101E4000F0E0E056FB4FE181BBE3EB9FF001112492
:101E5000E655FB4F2381348130937B0820937A0829
:101E60008FBF809186128D7F809386120E94E00240
:101E70000C944B1E823011F00C944B1E80E00E949B
:101E8000BE020C944B1E82E00E942D040C944B1E4B
:101E90000E9477094AE060E085EC92E00E943309F5
:101EA0000C944B1E409197035091980380913B10E6
:101EB00081112BC08CE390E1892B39F189E993E002
:101EC000909345108093441080EC80933C1088EAF6
:101ED00080933D108AE280933E1081E080933F1012
:101EE00020E533EC309341102093401030934310A1
:101EF00020934210509347104093461080933B101C
:101F000087E10E94BE020C944B1E0E94EC020C94CE
:101F10004B1E9FB7F89480919C049FBF833009F4B7
:101F200048C0843009F48EC0823009F0CEC1CE01A1
:101F30008F579F4F0E944A05882309F4C6C142E08B
:101F400050E069E574E08BE194E00E946B27CF5785
:101F5000DF4F28813981C158D040892BA1F4AE01CF
:101F60004F5F5F4F68ED72E0C9010E94C4274AE0ED
:101F700050E060E070E089819A810E9424266F30F1
:101F800048F480E008C065E574E0C9010E94792743
:101F9000009721F482E00E94560997C14FE050E07B
:101FA00065E474E004960E946B27892B99F781E021
:101FB000F2CF80911D048A3039F442E360E08AED6B
:101FC00092E00E94330981C1CE018F579F4F0E943A
:101FD0004A05882309F479C1109286031092870379
:101FE000AE014F5F5F4F63EE72E0CF57DF4F8881E6
:101FF0009981C158D0400E94C4270097D1F04AE08F
:1020000050E060E070E00E94F9246F3050F4E091FD
:10201000860381E08E0F80938603F0E0EA57FC4F41
:102020006283AE014F5F5F4F63EE72E080E090E04D
:10203000E2CF80918603882309F447C181E0809331
:102040009B0440C1CE018E529F4F0E944A058823B7
:1020500009F42EC14CE360E085EE92E00E94330962
:10206000FE0131967F01AF0168ED72E0CE52DF4F85
:1020700088819981C25DD0400E94C4278C0100975D
:1020800009F4C2C069EE862E62E0962E78E0272E13
:102090005E01F9ECAF0EB11CC980DA8042E050E07D
:1020A00062E474E0C8010E946B27892B59F44AE06E
:1020B00050E060E070E0C6010E9424266F3008F412
:1020C00098C0A2C044E050E06DE374E0C8010E94F3
:1020D0006B27892B89F44AE050E060E070E0C6018C
:1020E0000E9424269B012B5633402E3C310508F0DC
:1020F0008BC0562E472E7DC046E050E066E374E06C
:10210000C8010E946B27892B51F44AE050E060E03F
:1021100070E0C6010E942426762E672E6AC045E034
:1021200050E060E374E0C8010E946B27892B71F4D2
:102130004AE050E060E070E0C6010E9424268FEF84
:10214000860F893008F060C0362E53C044E050E05E
:102150006BE274E0C8010E946B27892B49F5DF927E
:10216000CF929F928F921F922F92BF92AF920E9416
:10217000EB27D50119961C92E981FA81CF010896C7
:102180009A8389830FB6F894DEBF0FBECDBF8085DA
:102190008C32D1F5CF0109969A8389836CE270E085
:1021A0000E94A327009781F101969A83898321C019
:1021B00044E050E066E274E0C8010E946B27892B7E
:1021C000C1F48E010F571F4F48E250E0B601C8011D
:1021D0000E94B527FE01E753FF4F11A61F930F93EF
:1021E000FF93EF936F927F924F925F921F923F9275
:1021F0004DC0A70168ED72E080E090E00E94C42726
:102200008C01009709F048CF89E0FE01E054FF4FB0
:10221000DE01A655BF4F01900D928A95E1F7CE548D
:10222000DF4F8881C25BD0408F93CF54DF4F8881CE
:10223000C15BD0408F93C055DF4F8881C05BD040D9
:102240008F93C155DF4F8881CF5AD0408F93C255AD
:10225000DF4F8881CE5AD0408F93C355DF4F88819E
:10226000CD5AD0408F93C455DF4F8881CC5AD0408F
:102270008F93C555DF4F8881CB5AD0408F93C65579
:10228000DF4F8881CA5AD0401F928F938EEE92E022
:102290009F938F93FF92EF920E94282848E260E07C
:1022A000C7010E9433090FB6F894DEBF0FBECDBF41
:1022B0004CE360E088E093E00E94330980919B0446
:1022C000882319F08DE00E94BE028FB7F894109217
:1022D0009C048FBF0C944B1E4CE360E080E193E0C4
:1022E0000E94330940918703242F30E080918603B8
:1022F00090E0821B930B18161906DCF54F5F409394
:102300008703F901EA57FC4F82812FB7F894909127
:102310009C042FBF91110C944B1E9FB7F89424E09E
:1023200020939C049FBF09E913E090E8D8011D9217
:102330009A95E9F71F928F938AE193E09F938F9389
:102340001F930F930E942828F80101900020E9F7BD
:102350008F010A59134010939803009397030E942A
:10236000EC020F900F900F900F900F900F900C9425
:102370004B1E10929B0410928603109287038FB716
:10238000F89410929C048FBF42E360E08AED92E0E3
:102390000E9433090C944B1E8091800381110C9490
:1023A0004B1E809181038F5F817080938103EDE0EC
:1023B000E89FD0011124A750B34F9C91913011F4A4
:1023C0000C94BB1B8F5F817080938103E89FF001A9
:1023D0001124E750F34F8081813011F00C944B1E93
:1023E0000C94BB1B8091400D811141C040910D1395
:1023F00050910E1360910F13709110132FB7F89432
:10240000C0909412D0909512E0909612F09097128E
:1024100080913A0D90913B0DA0913C0DB0913D0DF6
:102420008C0D9D1DAE1DBF1D2FBF40930D135093EE
:102430000E1360930F13709310131092400D2FB76B
:10244000F89431E03093810880933A0D90933B0DDE
:10245000A0933C0DB0933D0D409394125093951270
:1024600060939612709397122FBF0E94FE030E94F2
:1024700016030E94C90A0C944B1E0E9416032FB724
:10248000F894109281082FBFE1E5F2E110E04424B6
:102490004A94542C642C5FE7752E20E030E009E06C
:1024A000029FA001039F500D1124DA01AF5ABD4EC7
:1024B00018964C9141FF1AC0C080D180E280F38011
:1024C0004B015C018C189D08AE08BF08C480D58004
:1024D000E680F780C818D908EA08FB08C414D504B8
:1024E000E604F7041CF42601370111E02F5F3F4F8B
:1024F000399627303105A1F6112311F40C944B1EA7
:10250000141415041604170424F00E94C90A0C942C
:102510004B1E40920D1350920E1360920F13709247
:10252000101321E02093400D3FB7F89420938108C9
:1025300060933A0D70933B0D80933C0D90933D0D4D
:102540004092941250929512609296127092971245
:102550003FBF0E94FE030C944B1E80917A038111B1
:102560000C944B1E80917B0390E00196817099271B
:1025700080937B032DE1289FF001299FF00D11240A
:10258000E053FD4E3081313011F40C94131C019650
:102590008170992780937B03289FF001299FF00D7C
:1025A0001124E053FD4E8081813011F00C944B1EBC
:1025B0000C94131C8091780381110C944B1EE091B4
:1025C0007903EF5FE170E0937903AE2FB0E043E071
:1025D000AA0FBB1F4A95E1F7AD59B04F8C918130DE
:1025E00011F40C94551CEF5FE170E0937903F0E077
:1025F00033E0EE0FFF1F3A95E1F7ED59F04F808180
:10260000813011F00C944B1E0C94551C8091760374
:1026100081110C944B1E809177038F5F81708093A2
:102620007703EBE0E89FD0011124A856BD4E9C91A2
:10263000913011F40C94681D8F5F81708093770343
:10264000E89FF0011124E856FD4E8081813011F0A1
:102650000C944B1E0C94681D81E0809372030E94C1
:1026600055060C944B1E8FB7F89410928308109265
:10267000820810923F0D10923E0D10927713109227
:10268000761310927C0F10927B0F8FBF0C944B1E11
:102690008FB7F89492E0909371038FBF80911102ED
:1026A00081110C944B1E0E94A2028091750381300F
:1026B00021F0823009F498C057C26FEF8FEF0E946B
:1026C00054038DE10E946A0380FFFBCF80E00E94EB
:1026D0009B0760E076E088E00E94260680E096E0B6
:1026E000909315028093140260E076E08CE00E94E3
:1026F00026066FEF7FE18AE00E94260660E070E028
:1027000084E00E94260660E88EE50E94540381E082
:102710000E949B0761EA88E50E94540382E00E94C0
:102720009B0760E081E40E94540361E080E40E9422
:10273000540363E382E40E94540360E083E40E9454
:1027400054036AE272E08AE00E94260665E184E4AE
:102750000E945403909128028091290290931B02B9
:1027600080931A0283E00E949B0760911B0281E420
:102770000E94540360911A0280E40E945403609105
:10278000190283E40E9454036091180282E40E94BB
:1027900054036091170285E40E945403609116026D
:1027A00084E40E94540382E00E949B0764E184E574
:1027B0000E94540360E471E086E10E94260662E113
:1027C00084E50E94540362E170E086E10E942606DF
:1027D00060ED8BE50E94540364E08FE10E9480036A
:1027E00082E080937503C0C180917203882309F44D
:1027F0003FC0109272038CE10E946A03182F84FF7D
:1028000020C082E00E949B0763E184E50E9454039C
:1028100061E082E50E94540383E00E949B078AE006
:102820000E94AF2180FDFBCF82E00E949B0760E009
:1028300082E50E94540388E10E94AF2189E10E9451
:10284000AF2181E00E949B0789E10E946A038823EF
:1028500019F081E08093730310FF0AC00E94A40264
:102860008CEB0E94520381E00E9452030E94A2025C
:10287000809174038130E1F580E00E949B0760E065
:1028800070E082E00E94260660E08AE70E9454031E
:1028900000E010E06091430D7091440D061717079A
:1028A00068F4E091AE12F091AF12E00FF11F608179
:1028B0008AE70E9454030F5F1F4FECCF86E00E940F
:1028C000260668E08FE10E94800310927403109244
:1028D0008003809181036DE0869FF0011124E75011
:1028E000F34F108260E00E9483078EE00E94BE02D8
:1028F00080917303813009F037C180E00E949B070B
:10290000609114027091150280E00E9426068AE30D
:102910000E946A0390E090931502809314028AE368
:102920000E946A032091140230911502382B3093D3
:102930001502209314028AE30E946A03082F10E014
:102940008AE30E946A03182B8AE30E946A038AE3DF
:102950000E946A03C8010F978B31924090F4E4E81B
:10296000EE2EE8E0FE2E8AE30E946A03F7018193CF
:102970007F01CF018458984080179107A0F310E0A1
:1029800001C011E060911402709115028CE00E9468
:10299000260660E48EE10E948003109273031111F9
:1029A000E3C08091900890E0982F882720919108AB
:1029B000822B8115F8E09F0729F08630984009F4B2
:1029C00072C0D2C082E998E09093121380931113E1
:1029D0008091A2089091A308A091A408B091A508A5
:1029E00000912402109125022091260230912702A5
:1029F00080179107A207B30739F140911C0250914B
:102A00001D0260911E0270911F026A017B01C09439
:102A1000D094E094F0944601570188229922AA228A
:102A2000BB228C149D04AE04BF0409F09DC0802716
:102A30009127A227B32784239523A623B723892B85
:102A40008A2B8B2B09F090C080919B08813109F073
:102A50008BC00091AA0810E0102F00278091AB08CE
:102A6000082B085011098091A80890E0982F88271A
:102A70002091A908822B8035934C09F075C001384C
:102A8000110510F000E810E0A8016EEA78E08BE193
:102A900094E00E94932710931A04009319048CE089
:102AA0000E94BE0261C08091980890E0982F88270C
:102AB00020919908822B8130910519F00297F1F04D
:102AC00053C04091240250912502609126027091DA
:102AD00027028091AA089091AB08A091AC08B09110
:102AE000AD08481759076A077B07F1F540EA58E037
:102AF0006AE978E082E00E94970336C080917C0307
:102B0000813091F580917E03AAE08A9FC001112453
:102B1000FC01EE57FC4E4091A0085091A108609135
:102B2000A2087091A3084083518362837383DC0100
:102B3000AA57BC4E26E0EAE9F8E001900D922A95EA
:102B4000E1F7209159122D7F2093591210927C03A6
:102B50008A579C4E0E94B20780917E0390E00196B6
:102B60008370992780937E031FB7F8948091710337
:102B7000823011F58091110281111EC080911302E3
:102B80008F3FB1F0E82FF0E0EB5BF24F9081909334
:102B900013029F3F11F4909312029FEF9083809352
:102BA000110281E08093710386E10E94BE0204C09D
:102BB00080931102109271031FBF9FB7F894809108
:102BC0007103882311F40C94E81D9FBF1FB7F8947C
:102BD0004A9903C084E10E94BE021FBF0C944B1EA1
:102BE00080916F0381110C944B1E10927003F09032
:102BF0003B10B1E0FB120C944B1E0C94ED1D9FB7E3
:102C0000F894809117139FBF811110C05A9A48EE13
:102C100053E060E070E082E00E948F0A8FB7F89482
:102C200091E0909317138FBF0C944B1E813051F499
:102C30008FB7F89492E0909317138FBF0E94EF0222
:102C40000C944B1E8230D1F42FB7F8948091BD0ABA
:102C50009091BE0A90689093BE0A8093BD0A10922C
:102C6000CE0A1092CD0A8FE080930B1383E08093FD
:102C700017132FBF0E94E3020C944B1E833079F48C
:102C80008FB7F89494E0909317138FBF4EEE52E0F5
:102C900060E070E082E00E948F0A0C944B1E84304A
:102CA00099F48FB7F89421E030E43093B40A20937C
:102CB000B30A92E090930B1395E0909317138FBF94
:102CC0000E94E3020C944B1E853079F48FB7F89480
:102CD00096E0909317138FBF46E950E060E070E0F4
:102CE00082E00E948F0A0C944B1E863051F48FB7FD
:102CF000F89497E0909317138FBF0E94EF020C9403
:102D00004B1E873009F03EC02FB7F8948091B10A6E
:102D10009091B20A2FBF8335924159F08FB7F89442
:102D2000109213138FBF10929D0486E00E94BE0282
:102D3000B2C72FB7F8948091B70A9091B80A8373FD
:102D40009772846098649093B80A8093B70A80E180
:102D500099E19093BA0A8093B90A8091BB0A909145
:102D6000BC0A88279E7F8F649093BC0A8093BB0A1D
:102D700086E080930B1388E0809317132FBF0E9487
:102D8000E30289C7883009F086C78FB7F89410929C
:102D900013138FBF44E650E060E070E084E00E94CF
:102DA00022038FB7F89491E090937F088FBF81E062
:102DB0000E9482228AE00E94BE026DC79FB7F894EB
:102DC000809118139FBF811121C02FB7F894809173
:102DD000791390917A138B569340937090689093E7
:102DE000B60A8093B50A8091B70A9091B80A9F7687
:102DF0009093B80A8093B70A84E080930B1381E024
:102E0000809318132FBF0E94E30245C7813051F40D
:102E10008FB7F89492E0909318138FBF88E08CBB23
:102E2000EB9A39C7823049F48FB7F89493E09093C6
:102E300018138FBF0E94EF022EC78330F9F49FB79B
:102E4000F8942091C50A3091C60A337025593C4F39
:102E500030938113209380132091B50A3091B60AE4
:102E60003F773093B60A2093B50A80930B1384E022
:102E7000809318139FBF0E94E3020DC7843049F46A
:102E80008FB7F89495E0909318138FBF0E94EF02CC
:102E900002C7853009F0FFC62FB7F8948091C30AA6
:102EA0009091C40A88279074892F99272FBF892B66
:102EB00061F520918013309181138FB7F89430938E
:102EC0007D0820937C088FBF48EE53E060E070E0FF
:102ED00085E00E9422038FB7F8949FE0909324131B
:102EE0008FBF80911B13882351F08FB7F89494E023
:102EF000909313138FBF81E00E94E005CCC68FB77B
:102F0000F894109213138FBFC6C68FB7F89494E04D
:102F1000909318138FBF0E94E902BDC69FB7F89423
:102F200010917A0F809119139FBF81113FC02FB765
:102F3000123061F4F8948091B30A9091B40A9560CC
:102F40009093B40A8093B30A2FBF0EC0F894809177
:102F5000B30A9091B40A9A7F91609093B40A8093D7
:102F6000B30A2FBF11118FC62FB7F8948091B30AFF
:102F70009091B40A92609093B40A8093B30A2FBFE1
:102F80002FB7F8948091B70A9091B80A9F76906411
:102F90009093B80A8093B70A84E080930B1381E082
:102FA000809319132FBF0E94E30275C6813051F43C
:102FB0008FB7F89492E0909319138FBF88E08CBB81
:102FC000EB9A69C6823049F48FB7F89493E09093F6
:102FD00019138FBF0E94EF025EC6833081F52FB7B1
:102FE000F8948091C30A9091C40A882790729093B4
:102FF00083038091C50A9091C60A937085599C4FAE
:1030000090938113809380138091B30A9091B40AB6
:103010009E7F9093B40A8093B30A8091B70A9091EF
:10302000B80A9F7B9093B80A8093B70A84E0809394
:103030000B13809319132FBF0E94E3022CC6843018
:1030400049F48FB7F89495E0909319138FBF0E94BD
:10305000EF0221C6853009F01EC62FB7F894809183
:10306000C30A9091C40A88279074892F99272FBF8B
:10307000892B09F05DC080918303811135C02091B7
:103080008013309181138FB7F89430937D0820938B
:103090007C088FBF48EE53E060E070E085E00E945E
:1030A00022038FB7123039F4F894109219138FBF9E
:1030B0000E94E602F0C5F8949FE0909324138FBF1E
:1030C00080911B13882351F08FB7F89494E090936C
:1030D00013138FBF81E00E94E005DDC58FB7F89420
:1030E000109213138FBFD7C58FB7F8942FEF3FEF10
:1030F00030937D0820937C088FBF48EE53E060E05A
:1031000070E085E00E94220380911B13882351F018
:103110008FB7F89494E0909313138FBF81E00E94CF
:10312000E005B9C58FB7F894109213138FBFB3C5DC
:103130008FB7F89494E0909319138FBF0E94E60222
:10314000AAC58FB7F89460911A138FBF611109C097
:103150008FB7F89491E090931A138FBF0E94EF02FB
:103160009AC5613009F097C54FB7F894E091C70A46
:10317000F091C80A8091C90AA091CA0A9091CB0A1D
:103180007091CC0A2091CD0A3091CE0A4FBF4A2FC0
:1031900046954695469550E04430510509F45BC08C
:1031A00024F44230510550F0F7C04530510509F480
:1031B0007FC04830510509F4AEC0EEC04FB7F89457
:1031C000F0932D13E0932E138370E82FF0E0EE0FB1
:1031D000FF1FEF5DFC4E3483258321E030E0D901F1
:1031E00002C0AA0FBB1F8A95E2F7CD01909121136F
:1031F000892B809321134FBF8F3009F0CDC089E018
:10320000E4E2F8E0DF011D928A95E9F788E0E5E263
:10321000F3E1A4E2B8E001900D928A95E1F72FB7AF
:10322000F8946093210880912D1390E0982F8827BF
:1032300030912E13832B90932308809322082FBF65
:1032400048E050E060E270E085E293E10E949C2754
:1032500010922113A1C08F70FFB6F894B4E08B9F39
:10326000A00111248A010F5D1C4EF8017687BA0176
:103270006E5D7C4EDB011E969C93DA01AD5DBC4E0B
:103280001E963C931E974C5D5C4EFA012687FFBE4E
:10329000F80196859D3021F1FB0196859D3001F165
:1032A0001E969C919D30E1F0DA011E969C9116C00D
:1032B0008F709FB7F894E82FF0E0EE0FFF1FDF014B
:1032C000AF5DBC4E1E963C931E97EE5DFC4E26876E
:1032D0009FBF1E969C919D3019F096859D3011F4EC
:1032E000809324139FB7F894809122138F5F80936B
:1032F00022139FBF81E4EDE2F8E0DF011D928A9581
:10330000E9F780E4EFE2F3E1ADE2B8E001900D927D
:103310008A95E1F741C0892F82958071932F92950C
:103320009F70892BA901E6E056954795EA95E1F74C
:103330004F73922F9F71969525FF02C0891B01C084
:10334000890F0FB7F894EFE6F3E116E0DF01212FC4
:103350001D922A95E9F71F924F931F928F9385E252
:1033600093E09F938F93FF93EF930E9428280FBFC2
:10337000EEE6F8E0DF01212F1D922A95E9F7EFE64E
:10338000F3E1AEE6B8E001900D921A95E1F70FB6C1
:10339000F894DEBF0FBECDBF80911B1381110CC00E
:1033A0008FB7F89494E09093131310921A138FBF71
:1033B00080E00E94E0056FC48FB7F8941092131359
:1033C00010921A138FBF67C49FB7F8948091161399
:1033D0009FBF882319F00E94EF025DC48FB7F89455
:1033E00091E0909316138FBF0E94780554C48FB755
:1033F000F89490910D02911135C08FBF8FB7F8945A
:1034000090916D03913071F522E020936D038FBF91
:103410008FB7F89420E130E03093790F2093780F44
:1034200020EB32E13093420D2093410D20E22093B6
:10343000800823E02093AA1310920C1390936C033E
:103440008FBF0E940E031FB7F894809190128F7A5D
:10345000816A8093901284E080936D030E949D02A4
:103460001FBF19C48FBF8DE10E94BE0214C49FB755
:10347000F894809116139FBF882319F00E94E302ED
:103480000AC49FB7F89482E08093161380910B13BF
:10349000880F82509FBF20E092E02817B0F43FB71A
:1034A000F894422F50E0E92FF0E0EE0FFF1FE155B6
:1034B000F54F60817181FA01E055FD4E70836183A3
:1034C0003FBF9F5F9F702E5FE8CF0E947805E3C3E8
:1034D0009FB7F89480910B139FBF9FB7F8942091EA
:1034E0000D02211136C09FBF9FB7F89420916D0344
:1034F000213079F522E020936D039FBF9FB7F894A8
:1035000020E130E03093790F2093780F20EB32E107
:103510003093420D2093410D880F82508093800894
:1035200083E08093AA1310920C1310926C039FBF38
:103530000E940E031FB7F894809190128F7E816EC7
:103540008093901284E080936D030E949D021FBFC0
:10355000A2C39FBF8FE10E94BE029DC340E050E026
:103560002AE0DA01A055BD4EE22FF0E0EE0FFF1F7A
:10357000E155F54F8C9190E0982F882711963C915A
:10358000832B918380832F5F2F704E5F5F4F40327C
:10359000510539F780C38FB7F89490910A1390932F
:1035A0000E0293E090936E038FBF80910E029FB73F
:1035B000F89480930D029FBF81116DC39FB7F8945B
:1035C000809116139FBF813031F0823041F48FE13A
:1035D0000E94BE0260C38DE10E94BE025CC30E94D5
:1035E000F30659C31FB7F89480916C03882321F028
:1035F00081E00E94BB0902C00E94280A1FBF4BC382
:103600008FB7F8949091770F90930C0293E090937A
:103610006A038FBF80910C02811101C08098809154
:103620000C02811138C381E080931A101092751337
:103630000E94A70630C310921A10009192121091A6
:10364000931280917513811126C3FFB6F89480916F
:103650006A03833009F03EC080910C0281113AC0A8
:1036600080915012882309F403C360916B0370E0CA
:10367000CB010196A1E0B0E08130910511F480E02A
:1036800090E0E82FE695E695E695F0E0E05BFD4EEC
:103690002081382F3770AD0101C0440F3A95EAF709
:1036A000322F342331F040952423208380936B0301
:1036B00006C08617970711F00196DECF8FEF809333
:1036C000770F8FEF80930C0281E080936A0383E28F
:1036D0000E94BE02FFBE96E0169507959A95E1F707
:1036E00000939E0482E00E94BE02D5C280917D0FAD
:1036F0008130E1F460E080E80E94470688E290E0D3
:103700000E94330500E010E0F801E55EFF4E61E045
:1037100080810E94470688E290E00E9433050F5F97
:103720001F4F0031110581F710927D0F80917E0FA0
:10373000813009F0B0C260E080EC0E94470688E268
:1037400090E00E94330500E010E0F801E55DFF4ED7
:1037500061E080810E94470688E290E00E94330584
:103760000F5F1F4F0031110581F710927E0F93C23A
:103770000E94E00290C2E0918103ADE0EA9FC001A7
:103780001124FC01E650F34F26E0AFECBAE00190C3
:103790000D922A95E1F726E0E6E1F2E0A5EDBAE028
:1037A00001900D922A95E1F7FC01E750F34F9781C4
:1037B00080859093DC0A8093DB0A038514856185FC
:1037C0007285A8018DED9AE00E9493278091740381
:1037D00081111AC0809175038230B1F40E945506A0
:1037E000811114C08FEC9AE09093AF128093AE12C7
:1037F000025F1F4F1093440D0093430D81E08093AF
:1038000074038093800347C265E001C067E0809144
:103810008103BDE08B9FF0011124E750F34F10822C
:103820000E94830738C280917B03282F30E06DE12E
:10383000869FF0011124AF014F525D4E9091060D0D
:10384000911126C067E07DE06115710509F1ED5128
:10385000FD4E86E0DB0101900D928A95E1F786E04E
:1038600098E090930E0D80930D0D5093100D4093A2
:103870000F0D8CE190E09093120D8093110D11E0EB
:103880001093060D8EE00E94BE0210937A0303C2CD
:103890009DE1929FF001939FF00D1124E053FD4EA6
:1038A000108265E00E947007F6C1F090790385E40C
:1038B0008093470D1092480D86E680934C0D8093BF
:1038C0004B0D10924E0D10924D0D8FEF80934F0DBA
:1038D00088E0F89E80011124D801AD59B04F6D01E8
:1038E00016964D915C911797CA01449680934A0DA4
:1038F0009093490D1196ED91FC91129780819181E1
:10390000A281B3818093570D9093580DA093590DC8
:10391000B0935A0D8091240290912502A091260225
:10392000B09127028093530D9093540DA093550DA1
:10393000B093560DF601648175818BE59DE00E9480
:103940009327D60113968C918093500D1092520DAF
:103950001092510DE7E4FDE080E090E0DC01219160
:103960003191820F931FA11DB11D2DE0EB35F207A0
:10397000B1F7AD016627772741155105610571053E
:1039800039F0AA27BB27840F951FA61FB71FF1CFB9
:1039900080959095A095B0959093520D8093510D80
:1039A00080911C0290911D02A0911E02B0911F02F5
:1039B0008090570D9090580DA090590DB0905A0DD1
:1039C0004091530D5091540D6091550D7091560DCD
:1039D000482559256A257B25482359236A237B23BB
:1039E000452B462B472B19F4E7E5FDE002C0E0E24A
:1039F000F2E080809180A280B38080959095A09520
:103A0000B095AC01BD01482159216A217B2148179D
:103A100059076A077B0719F480E092E02DC05091A6
:103A20007F0344E06AE0252F30E0629FC001639F7E
:103A3000900D1124DC01AE57BC4E4D905D906D9001
:103A40007C90481459046A047B0429F450937F0342
:103A50008A579C4E0BC0C901019683709927582F35
:103A6000415009F780937F0380E090E090938503B5
:103A700080938403009719F00E94B20725C08091BB
:103A80007C03811111C080819181A281B3818093D7
:103A90007B1390937C13A0937D13B0937E131092AD
:103AA0007D030E94B90A10C0F801ED59F04F108251
:103AB000F11003C00E943C05EEC0B1E0FB12EBC068
:103AC00085E00E944607E7C081E080937803E3C069
:103AD000E0917703EE2EF12C2BE0E29FF001112410
:103AE000E856FD4E418552858A010C5F1F4F858146
:103AF0008093800F86818093810F6781708584E831
:103B00009FE00E9493271092830F1092820FA801CA
:103B100056954795E0E8FFE020E030E080E090E057
:103B2000DC012417350749F061917191860F971FC9
:103B3000A11DB11D2F5F3F4FF4CFAD016627772741
:103B4000411551056105710539F0AA27BB27840F7E
:103B5000951FA61FB71FF1CF80959095A095B095A2
:103B60009093830F8093820F8091630F811126C001
:103B700084E69FE0892B11F12BE02E9DC0012F9D43
:103B8000900D112487569D4E9093650F8093640F7E
:103B9000FF24F394F092660F80E89FE09093680F03
:103BA0008093670F10936A0F0093690FF092630F71
:103BB00082E10E94BE02F09276036DC08BE08E9D82
:103BC000F0018F9DF00D1124E856FD4E108263C068
:103BD0008CB58F7B8CBD0C94E51590914010809135
:103BE0004110909349108093481090914210809119
:103BF000431090934B1080934A104091461050917F
:103C000047108A01085F1F4F00934D1010934C100E
:103C1000609144107091451080E590E10E949327D7
:103C200080916B0F81111FC08CE69FE0892BD9F02A
:103C30008CE390E190936D0F80936C0F81E1809302
:103C40006E0F88E490E19093700F80936F0F109344
:103C5000720F0093710FF0926B0F82E10E94BE020F
:103C6000F0926F0318C010923B100E94EC0213C038
:103C700081E080930C0210926A0380917A008F7722
:103C800080937A0027CD2FB7F8948091B30A909152
:103C9000B40A9D7F70C9CD52DF4F0FB6F894DEBFD6
:103CA0000FBECDBFDF91CF911F910F91FF90EF908D
:103CB000DF90CF90BF90AF909F908F907F906F904C
:103CC0005F904F903F902F9008958FB7F89408958C
:103CD0008FBF08951F920F920FB60F9211240BB64B
:103CE0000F922F933F934F935F936F937F938F9395
:103CF0009F93AF93BF93EF93FF932FB7F894809167
:103D0000730F9091740FA091750FB091760F01967B
:103D1000A11DB11D8093730F9093740FA093750F25
:103D2000B093760F2FBF78940E94FE03FF91EF911E
:103D3000BF91AF919F918F917F916F915F914F91C3
:103D40003F912F910F900BBE0F900FBE0F901F90C1
:103D500018951F920F920FB60F9211240F900FBE5D
:103D60000F901F9018951F920F920FB60F9211246B
:103D70000BB60F92CF92DF92EF92FF920F931F93A9
:103D80002F933F934F935F936F937F938F939F9363
:103D9000AF93BF93CF93DF93EF93FF932EB5E09153
:103DA0008208F0918308309739F080917B0F9091D1
:103DB0007C0FE80FF91F208380917B0F90917C0F7F
:103DC000019690937C0F80937B0F8CB58F778CBD81
:103DD000C0917B0FD0917C0F209176133091771397
:103DE000C217D307D8F500913E0D10913F0DC0903A
:103DF0008208D0908308CE010A962817390708F464
:103E0000C9017C0121E0E21AF108CE15DF05A0F41A
:103E10000115110529F0F801EC0FFD1F808101C08B
:103E200080E00E944C03C114D10421F0F601EC0F94
:103E3000FD1F80832196E9CF8CB580688CBD01156C
:103E4000110531F0F801EC0FFD1F80818EBD01C01E
:103E50001EBCD0937C0FC0937B0F11C010928308BF
:103E60001092820810923F0D10923E0D109277131F
:103E70001092761310927C0F10927B0F8EB5FF91EB
:103E8000EF91DF91CF91BF91AF919F918F917F91F2
:103E90006F915F914F913F912F911F910F91FF90E3
:103EA000EF90DF90CF900F900BBE0F900FBE0F9052
:103EB0001F9018951F920F920FB60F9211240F901A
:103EC0000FBE0F901F9018951F920F920FB60F9272
:103ED00011240F900FBE0F901F9018951F920F92F4
:103EE0000FB60F9211240BB60F922F933F934F935F
:103EF0005F936F937F938F939F93AF93BF93EF9352
:103F0000FF9384E10E94BE02FF91EF91BF91AF91B8
:103F10009F918F917F916F915F914F913F912F91E1
:103F20000F900BBE0F900FBE0F901F9018951F9211
:103F30000F920FB60F9211240BB60F922F933F934F
:103F40004F935F936F937F938F939F93AF93BF93A1
:103F5000EF93FF9380911313823029F0833041F067
:103F6000811116C00AC00E94BC020E94E90212C060
:103F70000E94BC020E94E6020DC080911B138823A0
:103F800049F086E0809313138BE10E94BE0202C0C9
:103F90000E94BC02FF91EF91BF91AF919F918F91D1
:103FA0007F916F915F914F913F912F910F900BBE39
:103FB0000F900FBE0F901F9018951F920F920FB683
:103FC0000F9211240F900FBE0F901F9018951F9203
:103FD0000F920FB60F9211240F900FBE0F901F90EB
:103FE00018951F920F920FB60F9211240F900FBECB
:103FF0000F901F9018951F920F920FB60F921124D9
:104000000F900FBE0F901F9018951F920F920FB632
:104010000F9211240BB60F922F933F934F935F9300
:104020006F937F938F939F93AF93BF93EF93FF9380
:104030000E940E038091B900982F987F20916D0304
:10404000243079F1263021F0233009F04DC013C01F
:1040500080916C03813049F4903429F483E080939B
:104060006D0381E010C084E016C09831E1F783E071
:1040700080936D0313C020916C03213039F4807F4D
:10408000803541F480E00E94BB092EC0983231F0A7
:10409000903321F081E00E945B0A26C00E94280A2A
:1040A00023C08091AA138E7F8093AA1380919012CF
:1040B0008F7D983029F0903119F080939012EACFDB
:1040C00080648093901291E080916C03813009F0BC
:1040D00090E08091780F880F892B8093BB0086E059
:1040E00080936D030E949D02FF91EF91BF91AF916C
:1040F0009F918F917F916F915F914F913F912F9100
:104100000F900BBE0F900FBE0F901F9018951F922F
:104110000F920FB60F9211240BB60F922F933F936D
:104120004F935F936F937F938F939F93AF93BF93BF
:10413000EF93FF93909106018091460D97FD11C07A
:104140008350883008F07EC08091820386958093EA
:1041500082039091060196FF75C080688093820368
:1041600071C081508093460D81116CC08091820393
:10417000803E09F464C090911F13911158C0893595
:1041800049F0803F19F0823149F404C081E0809306
:104190001F1355C081E08093390D51C09091390DA6
:1041A00060E091111FC091E4262F30E0290F311DEE
:1041B00035952795A901440F551FFA01E254FE4F8A
:1041C000E491E81718F461E0620F09C08E1718F443
:1041D0009FEF920F04C0FA01E154FE4F1EC09617E4
:1041E00018F72DC091E4262F30E0290F311D3595A9
:1041F0002795A901440F551FFA01EA5CFE4FE4918F
:10420000E81718F461E0620F0FC08E1718F49FEFE3
:10421000920F0AC0FA01E95CFE4FE491E0937E0838
:1042200088E00E94BE020BC09617E8F608C0109204
:104230001F13823111F0893511F41092390D8BE082
:104240008093460DFF91EF91BF91AF919F918F9118
:104250007F916F915F914F913F912F910F900BBE86
:104260000F900FBE0F901F9018951F920F920FB6D0
:104270000F9211240BB60F922F933F934F935F939E
:104280006F937F938F939F93AF93BF93CF93EF934E
:10429000FF93209178003091790078944FB7F8948B
:1042A0008091781381FB992790F981704FBF81111C
:1042B00022C080917A00877F80937A0080911A10C3
:1042C000813019F0823091F036C0911107C08DE72E
:1042D00090E00E9433050E94A7062DC030939312F0
:1042E0002093921284E20E94BE0225C0992379F3A2
:1042F00010921A1020C0CFB7F8940E94F202CFBFDC
:104300002FB7F89480917A0086FB992790F9877FE0
:10431000806190FB86F98F7780937A00877F806138
:104320008F7B8F7780937A00877F80618F7B806817
:1043300080937A002FBFFF91EF91CF91BF91AF9102
:104340009F918F917F916F915F914F913F912F91AD
:104350000F900BBE0F900FBE0F901F901895CF932C
:10436000DF931F92CDB7DEB789830E94A4028981B3
:104370000E9452038FEF0E9452038FEF0E944C0362
:1043800089830E94A20289810F90DF91CF910895C5
:10439000CF93DF9380E02BE39091AA04891708F074
:1043A0004DC09FB7F89440917C0850917D089FBF05
:1043B000289FB0011124EB01C655DB4FEB81FC8136
:1043C000E417F50719F48F3018F038C08F5FE4CF89
:1043D0002FB7F894909121082FBF2F813885232B78
:1043E000F1F49923E1F09FB7F894209122083091DD
:1043F00023089FBF3E832D839B012B543B4F98E0A6
:10440000E4E2F8E0D90101900D929A95E1F738873E
:104410002F8364557B4FDF91CF910C94B8048FB7F5
:10442000F89491E090937F088FBF48EE53E060E0EE
:1044300070E085E0DF91CF910C9422038091AA0473
:104440008F3038F082E080939D04DF91CF910C94FF
:10445000DD028FB7F8949091210820917C0830916B
:104460007D088FBFE091AA048BE38E9FF001112499
:10447000E455FB4F1082328321831482138216820B
:104480001582108617822091AA042093AB049923E9
:1044900031F19FB7F89420912208309123089FBFF3
:1044A000A091AA048A9FD0011124FD01E655FB4F7B
:1044B00036832583AB54BB4F98E0E4E2F8E00190EB
:1044C0000D929A95E1F79091AA04899FC001112459
:1044D000FC01E655FB4F8B549B4F9087878360917F
:1044E000AA048BE3689FB001112464557B4F8FEFC2
:1044F0000E94B8048091AA048F5F8093AA04DF9180
:10450000CF9108953FB7F89490911B132091131306
:1045100080931B133FBF21110AC0891741F09FB739
:10452000F89424E0209313139FBF0E94E00580E0DD
:104530000895CF93DF93CDB7DEB76B970FB6F8949E
:10454000DEBF0FBECDBF0FB7F89446E250E06FEF6D
:1045500070E083E19DE00E949C278FEF80931C1305
:1045600080937F1388EE91E090931E1380931D1328
:10457000089A099A0A9A10981198129880E0877FF1
:104580008F7E8F7D8F7B8F7780937A0081E083BFD2
:104590000E94AA028F3F19F00E94CE0BF9CF87B17B
:1045A0008C6F87B918E288EE93E00E9433051150B2
:1045B000D1F760E088E20E94470688E290E00E941E
:1045C000330560E088E20E94470688E290E00E949E
:1045D000330560E08CE00E94470688E290E00E948C
:1045E000330560E081E00E94470688EE93E00E9478
:1045F000330588EE93E00E94330560E086E00E9478
:10460000470688E290E00E94330540E250E060E215
:1046100070E08BE190E10E949C2781E080937D0F08
:1046200080937E0F109220131092911210925012CC
:104630001FEF10937F0F1093450D729A739A749821
:10464000759A0E94A802779A6A9A6B9A6C9A6D9AE8
:104650006E9A6F9A82B112B881B111B96FE380E09E
:104660000E9454086FE381E00E94540860EC80E0EF
:104670000E94540860EC81E00E9454088091B600CA
:1046800080728093B6008091B60081FDFCCF82E0FD
:104690008093B0008091B60080FDFCCF85E08093D0
:1046A000B1008CE78093B3008091700082608093AA
:1046B000700040E355E760E070E081E00E94220373
:1046C00080912802909129029093260280932702DC
:1046D0000E94AA028F3F19F00E94CE0BF9CF0FBFA4
:1046E00078948FB7F89410927F088FBF1092AA0425
:1046F0001092AB041092A00410929F0410929E049A
:1047000062ED74E0CE0142960E946427198E1092E9
:10471000201310929112CE0142960E9444040E94EE
:1047200087040E9477099FB7F894809107018F77DB
:10473000809307019FBF9FB7F894809107018F7BFB
:10474000809307019FBF80916D00806880936D000A
:104750008FB7F8949BE09093460D1092390D10920C
:104760001F138FBF809168008460809368009FB79B
:10477000F894809113139FBF811135C09FB7F894AF
:1047800081E080931313109214131092151310925A
:1047900016131092171310921B1380E2EFEAFAE03F
:1047A000DF01282F1D922A95E9F7E0EBF2E1DF0106
:1047B0001D928A95E9F79FBF529A5A98519A599833
:1047C00053985B988091690080688093690080911C
:1047D00069008F7B8093690041E050E060E070E009
:1047E00082E00E948F0A8FB7F89451E050939C04A6
:1047F0008FBF80EC8093240298EA909325022AE2EE
:104800002093260242E0409327023FEF30931C02A0
:1048100030931D0230931E0210921F0280932002DB
:104820009093210220932202509323021F924F93D0
:104830001F922F931F929F931F928F938CE493E06C
:104840009F938F938E010F5F1F4F1F930F930E94B3
:1048500028284CE360E0C8010E94330910929B04B1
:104860000FB6F894DEBF0FBECDBF809175038111E6
:1048700036C0209A0E94A202249A2C981B8E1A8E6F
:104880008A8D9B8D80329E4430F48A8D9B8D01965B
:104890009B8F8A8FF5CF2C9A1B8E1A8E8A8D9B8DBB
:1048A00080329E4430F48A8D9B8D01969B8F8A8F37
:1048B000F5CF52985A9A84E08CBB8091690080624F
:1048C00080936900809169008F7E80936900EA9AE5
:1048D0000E945506811103C081E0809375038FB754
:1048E000F89410929C048FBF4AE060E081E693E068
:1048F0000E9433090E946C041FB7F8940E94AA0218
:104900008F3F09F058C080917000837089F08091CA
:10491000B6008A71E1F78091B3009091B200891BD3
:10492000883040F08091B200893F20F483E003C0DA
:1049300085E001C082E0E0916E00E67029F590917B
:104940006F009E7221F5E0917100EE72E9F4909192
:1049500072009E72E1F4E0917300EE72A9F40CB45F
:1049600007FC15C09091C100987189F4E091C900CD
:10497000E87151F49091BC0092FD09C090917A00C9
:1049800097FD04C0E5E003C0E0E001C0E1E093B7BB
:104990008E1708F4E82FF0E0E05DFE4F8491E92FD8
:1049A000E07FE160E82BE3BF78948895F89483B7C3
:1049B0008E7F83BFA3CF1FBF0E94CE0B9DCFAA1BAC
:1049C000BB1B51E107C0AA1FBB1FA617B70710F0FA
:1049D000A61BB70B881F991F5A95A9F7809590952C
:1049E000BC01CD010895EE0FFF1F0590F491E02D5D
:1049F00009942F923F924F925F926F927F928F9283
:104A00009F92AF92BF92CF92DF92EF92FF920F935D
:104A10001F93CF93DF935C016B017A0161157105E0
:104A200019F0FB0191838083E114F10429F0C7019F
:104A30000297839708F0F1C0E5012196F5011081F6
:104A4000812F90E00E945C27892B11F05E01F4CF4A
:104A50001D3229F42196F501118101E007C01B32B6
:104A600021F4E5012296F501118100E0E114F10441
:104A700059F1F0E1EF16F10461F41033E1F48881AB
:104A80008F7D883569F519812296026070E1E72EE5
:104A9000F12C88E0E816F10439F12CF4F2E0EF167D
:104AA000F104C9F12AC08AE0E816F10479F0E0E1E6
:104AB000EE16F10411F550E1E52EF12C812C912C2C
:104AC000A12C68E0B62E2CC01033C9F23AE0E32ED8
:104AD000F12C4CEC842E982CA82C4CE0B42E20C049
:104AE00010E3E114F104A9F698E0E92EF12C812CF1
:104AF000912CA12C20E1B22E13C060E070E080E088
:104B000090E89701442737FD4095542F0E94122BBF
:104B100049015A0105C0812C912CA12C80E4B82EAA
:104B200060E020E030E0A9012701662457FC609492
:104B3000762C1E01E0EDE10FEA3060F08FEB810F83
:104B40008A3110F4E9EC05C08FE9810F8A3128F52C
:104B5000E9EAE10F8E2F90E08E159F05F4F467FDD2
:104B600018C082169306A406B50690F0C301B201E0
:104B70000E94022B9B01AC012E0F311D411D511DC6
:104B8000213031054105F0E85F0710F461E001C014
:104B90006FEF2196F1011081CCCF802F8170C1146D
:104BA000D10471F0662329F02197F601D183C083E7
:104BB00007C001FF19C02297F601D183C08314C03A
:104BC00067FF12C0811105C02FEF3FEF4FEF5FE786
:104BD00004C020E030E040E050E882E290E09093B2
:104BE000AC138093AB1316C0882341F050954095C9
:104BF000309521953F4F4F4F5F4F0CC057FF0AC074
:104C000082E290E09093AC138093AB132FEF3FEFD1
:104C10004FEF5FE7B901CA0104C060E070E080E0D7
:104C200090E0DF91CF911F910F91FF90EF90DF9077
:104C3000CF90BF90AF909F908F907F906F905F903C
:104C40004F903F902F9008952F923F924F925F92F6
:104C50006F927F928F929F92AF92BF92CF92DF928C
:104C6000EF92FF920F931F93CF93DF9300D000D06A
:104C700000D0CDB7DEB75C016B017A01611571051B
:104C800019F0DB018D939C93E114F10429F0C70125
:104C90000297839708F0DCC03501BFEF6B1A7B0ADF
:104CA000F5011081812F90E00E945C27892B11F083
:104CB0005301F2CF1D3249F43501F2E06F0E711C41
:104CC000D50111961C9101E009C01B3231F4350168
:104CD000B2E06B0E711CF501118100E0E114F104EA
:104CE00009F4C4C0F0E1EF16F10489F4103399F52A
:104CF000D3018C918F7D883509F0B2C011961C913B
:104D0000B2E06B0E711C026050E1E52EF12CEAE07E
:104D1000EE16F10409F4B0C0F0E1EF16F104D9F099
:104D200028E0E216F10451F438E0E32EF12C882457
:104D30008A94982CA82C4FE1B42E13C06FEF7FEF0C
:104D4000CB019701442737FD4095542F0E94122B29
:104D500049015A0106C088248A94982CA82C2FE077
:104D6000B22E7E826D8260E020E030E0A901270152
:104D7000662457FC6094762C2D803E80E0EDE10F98
:104D8000EA3060F08FEB810F8A3110F4E9EC05C056
:104D90008FE9810F8A3190F5E9EAE10F8E2F90E0DB
:104DA0008E159F055CF56F3F09F182169306A406E8
:104DB000B506D8F0C301B2010E94022B2E2F30E0BD
:104DC00040E050E029833A834B835C83260F371FF2
:104DD000481F591F89819A81AB81BC8128173907E7
:104DE0004A075B0710F061E001C06FEFED81FE81C3
:104DF0003196FE83ED83D1011C91BECFC114D10445
:104E000089F0662339F08D819E810197F6019183A7
:104E1000808308C001FF06C08D819E810297D60164
:104E20008D939C9300FF07C0509540953095219538
:104E30003F4F4F4F5F4F67FF10C082E290E090936B
:104E4000AC138093AB136FEF7FEF8FEF9FEF1BC01F
:104E500060E070E080E090E016C0B901CA0113C0C4
:104E600010E3E114F10409F45FCF51CF103309F4DA
:104E70003FCF9AE0E92EF12C89E9882E982CA82CB6
:104E800089E1B82E6ECF26960FB6F894DEBF0FBE1E
:104E9000CDBFDF91CF911F910F91FF90EF90DF90E9
:104EA000CF90BF90AF909F908F907F906F905F90CA
:104EB0004F903F902F9008959111F5C2803219F0D4
:104EC00089508550D0F70895FB01DC0105900D92C3
:104ED0000020E1F70895FB01DC014150504030F023
:104EE0008D910590801919F40020B9F7881B990B52
:104EF0000895FB0155915523A9F0BF01DC014D91A7
:104F000045174111E1F759F4CD010590002049F012
:104F10004D9140154111C9F3FB014111EFCF81E0E3
:104F200090E001970895FB01DC0102C001900D9211
:104F300041505040D8F70895DC0101C06D934150B5
:104F40005040E0F70895FC018191861721F08823F5
:104F5000D9F7992708953197CF010895FB01DC0116
:104F600001900D920020E1F70895FB01DC01415012
:104F7000504048F001900D920020C9F701C01D92E9
:104F800041505040E0F70895FA01A191B081009797
:104F900019F41097E1F0CD01DC01CD010D90002056
:104FA00011F4C00113C0FB012191222319F0201537
:104FB000D9F7F3CFFB012191201519F41E92119618
:104FC00006C02223C1F70D900020A1F7D001FA01FD
:104FD000A193B08308950F931F93CF93DF93CDB721
:104FE000DEB72E970FB6F894DEBF0FBECDBF0D898A
:104FF0001E898F89988D26E02C831A83098397FF59
:1050000002C080E090E801979E838D83AE01455EEB
:105010005F4F698D7A8DCE0101960E9458284D818F
:105020005E8157FD0AC02F813885421753070CF463
:105030009A01F801E20FF31F10822E960FB6F89432
:10504000DEBF0FBECDBFDF91CF911F910F910895AD
:105050000F931F93CF93DF93CDB7DEB72E970FB685
:10506000F894DEBF0FBECDBF0D891E8986E08C830C
:105070001A8309838FEF9FE79E838D83AE01475E7E
:105080005F4F6F89788DCE0101960E9458282F813D
:105090003885F801E20FF31F10822E960FB6F894B0
:1050A000DEBF0FBECDBFDF91CF911F910F9108954D
:1050B0002F923F924F925F926F927F928F929F9228
:1050C000AF92BF92CF92DF92EF92FF920F931F9316
:1050D000CF93DF93CDB7DEB72C970FB6F894DEBF32
:1050E0000FBECDBF7C016B018A01FC0117821682C5
:1050F000838181FFBDC1CE0101964C01F7019381EF
:10510000F60193FD859193FF81916F01882309F446
:10511000ABC1853239F493FD859193FF81916F0185
:10512000853229F4B70190E00E946C2AE7CF512C18
:10513000312C20E02032A0F48B3269F030F4803240
:1051400059F0833269F420612CC08D3239F08033FC
:1051500039F4216026C02260246023C0286021C069
:1051600027FD27C030ED380F3A3078F426FF06C00F
:10517000FAE05F9E300D1124532E13C08AE0389E52
:10518000300D1124332E20620CC08E3221F426FD06
:105190006BC1206406C08C3611F4206802C08836CA
:1051A00041F4F60193FD859193FF81916F01811187
:1051B000C1CF982F9F7D9554933028F40C5F1F4FDB
:1051C000FFE3F9830DC0833631F0833771F0833507
:1051D00009F05BC022C0F801808189830E5F1F4FF8
:1051E00044244394512C540115C03801F2E06F0E51
:1051F000711CF801A080B18026FF03C0652D70E00E
:1052000002C06FEF7FEFC5012C870E94612A2C013D
:1052100083012C852F77222E17C03801F2E06F0E04
:10522000711CF801A080B18026FF03C0652D70E0DD
:1052300002C06FEF7FEFC5012C870E94562A2C0118
:105240002C852068222E830123FC1BC0832D90E037
:1052500048165906B0F4B70180E290E00E946C2A2B
:105260003A94F4CFF50127FC859127FE81915F01E7
:10527000B70190E00E946C2A31103A94F1E04F1A85
:1052800051084114510471F7E5C0843611F0893694
:1052900039F5F80127FF07C0608171818281938110
:1052A0000C5F1F4F08C060817181882777FD809552
:1052B000982F0E5F1F4F2F76722E97FF09C0909583
:1052C0008095709561957F4F8F4F9F4F2068722E0C
:1052D0002AE030E0A4010E94A42AA82EA81844C005
:1052E000853729F42F7EB22E2AE030E025C0F22F38
:1052F000F97FBF2E8F36C1F018F4883579F0B4C02D
:10530000803719F0883721F0AFC02F2F2061B22EDF
:10531000B4FE0DC08B2D8460B82E09C024FF0AC0D6
:105320009F2F9660B92E06C028E030E005C020E12E
:1053300030E002C020E132E0F801B7FE07C0608132
:105340007181828193810C5F1F4F06C060817181E2
:1053500080E090E00E5F1F4FA4010E94A42AA82EB7
:10536000A818FB2DFF777F2E76FE0BC0372D3E7FD2
:10537000A51450F474FE0AC072FC08C0372D3E7E9E
:1053800005C0BA2C372D03C0BA2C01C0B52C34FF90
:105390000DC0FE01EA0DF11D8081803311F4397ECC
:1053A00009C032FF06C0B394B39404C0832F86783B
:1053B00009F0B39433FD13C030FF06C05A2CB31468
:1053C00018F4530C5B18B32CB31468F4B70180E2E3
:1053D00090E03C870E946C2AB3943C85F5CFB314CF
:1053E00010F43B1801C0312C34FF12C0B70180E328
:1053F00090E03C870E946C2A3C8532FF17C031FD4B
:1054000003C088E790E002C088E590E0B7010CC0D7
:10541000832F867859F031FF02C08BE201C080E211
:1054200037FD8DE2B70190E00E946C2AA51438F494
:10543000B70180E390E00E946C2A5A94F7CFAA94B7
:10544000F401EA0DF11D8081B70190E00E946C2A01
:10545000A110F5CF332009F451CEB70180E290E0DE
:105460000E946C2A3A94F6CFF7018681978102C098
:105470008FEF9FEF2C960FB6F894DEBF0FBECDBF17
:10548000DF91CF911F910F91FF90EF90DF90CF9020
:10549000BF90AF909F908F907F906F905F904F9054
:1054A0003F902F900895992788270895FC01059033
:1054B000615070400110D8F7809590958E0F9F1F16
:1054C0000895FC016150704001900110D8F780955B
:1054D00090958E0F9F1F08950F931F93CF93DF9387
:1054E000FB01238121FD03C08FEF9FEF28C022FF26
:1054F00016C046815781248135814217530744F4F1
:10550000A081B1819D012F5F3F4F318320838C9318
:10551000268137812F5F3F4F3783268310C0EB01F1
:10552000092F182F0084F185E02D0995892BE1F6CC
:105530008E819F8101969F838E83812F902FDF9193
:10554000CF911F910F910895FA01AA27283051F1A8
:10555000203181F1E8946F936E7F6E5F7F4F8F4FA4
:105560009F4FAF4FB1E03ED0B4E03CD0670F781F03
:10557000891F9A1FA11D680F791F8A1F911DA11DE8
:105580006A0F711D811D911DA11D20D009F4689421
:105590003F912AE0269F11243019305D3193DEF6C9
:1055A000CF010895462F4770405D4193B3E00FD07F
:1055B000C9F7F6CF462F4F70405D4A3318F0495D6A
:1055C00031FD4052419302D0A9F7EACFB4E0A6954D
:1055D0009795879577956795BA95C9F7009761056F
:1055E000710508959B01AC010A2E069457954795C5
:1055F00037952795BA95C9F7620F731F841F951FBA
:10560000A01D0895DB018F939F930E94342BBF91BF
:10561000AF91A29F800D911DA39F900DB29F900D01
:1056200011240895A1E21A2EAA1BBB1BFD010DC077
:10563000AA1FBB1FEE1FFF1FA217B307E407F50742
:1056400020F0A21BB30BE40BF50B661F771F881F1E
:10565000991F1A9469F760957095809590959B01B4
:10566000AC01BD01CF0108950E943F2BA59F900D75
:10567000B49F900DA49F800D911D11240895A29FA9
:10568000B001B39FC001A39F700D811D1124911D16
:10569000B29F700D811D1124911D0895F894FFCFC4
:1056A000FFFFFFFFFFFFFFFFFFFFFFFF01FF01FF06
:1056B000FFFFFFFF0006010203040506FFFF0000D5
:1056C0000A3C00010A3C000A0100010E0439302F97
:1056D000033803207F0507060846026164640D69EC
:1056E000643D25642C6E616D653D25732C71646984
:1056F000616C3D25642C667265713D25642C706972
:10570000636F64653D25642C6E6F74653D25730A77
:10571000007570646174650D69643D25642C6E616B
:105720006D653D25732C716469616C3D25642C6643
:105730007265713D25642C7069636F64653D2564F5
:105740002C6E6F74653D25730A0073630025642E0B
:105750002564007075726765616C6C0D0A006C6978
:1057600073740D0A00526164696F20696E6974690F
:10577000616C697A65642E003D006C697374206504
:105780006E64002C0067657400252D387300713D30
:1057900025642C663D25642C703D25642C6E3D25CA
:1057A000732C6E3D25730A006765742066696E0070
:1057B000666574636861626364006765740D69643B
:1057C0003D25640A00253032643A253032640020D9
:1057D000204F453120202000796F2073657276615B
:1057E0007320686162652064657265003E25303310
:1057F000642E253033642E253033642E25303364F7
:0A58000000696E697420666D0000F7
:00000001FF
